{"contracts/test/MockRocketPool.sol":{"MockRocketPool":{"abi":[{"inputs":[{"internalType":"uint256","name":"_initialRate","type":"uint256"},{"internalType":"address","name":"_admin","type":"address"},{"internalType":"bool","name":"_isCompetitionMode","type":"bool"},{"internalType":"uint256","name":"_maxMintAmount","type":"uint256"}],"stateMutability":"nonpayable","type":"constructor"},{"anonymous":false,"inputs":[{"indexed":true,"internalType":"address","name":"owner","type":"address"},{"indexed":true,"internalType":"address","name":"spender","type":"address"},{"indexed":false,"internalType":"uint256","name":"amount","type":"uint256"}],"name":"Approval","type":"event"},{"anonymous":false,"inputs":[{"indexed":true,"internalType":"address","name":"user","type":"address"},{"indexed":true,"internalType":"contract Authority","name":"newAuthority","type":"address"}],"name":"AuthorityUpdated","type":"event"},{"anonymous":false,"inputs":[{"indexed":true,"internalType":"address","name":"user","type":"address"},{"indexed":true,"internalType":"address","name":"newOwner","type":"address"}],"name":"OwnershipTransferred","type":"event"},{"anonymous":false,"inputs":[{"indexed":true,"internalType":"bytes4","name":"functionSig","type":"bytes4"},{"indexed":false,"internalType":"bool","name":"enabled","type":"bool"}],"name":"PublicCapabilityUpdated","type":"event"},{"anonymous":false,"inputs":[{"indexed":true,"internalType":"uint8","name":"role","type":"uint8"},{"indexed":true,"internalType":"bytes4","name":"functionSig","type":"bytes4"},{"indexed":false,"internalType":"bool","name":"enabled","type":"bool"}],"name":"RoleCapabilityUpdated","type":"event"},{"anonymous":false,"inputs":[{"indexed":true,"internalType":"address","name":"target","type":"address"},{"indexed":true,"internalType":"contract Authority","name":"authority","type":"address"}],"name":"TargetCustomAuthorityUpdated","type":"event"},{"anonymous":false,"inputs":[{"indexed":true,"internalType":"address","name":"from","type":"address"},{"indexed":true,"internalType":"address","name":"to","type":"address"},{"indexed":false,"internalType":"uint256","name":"amount","type":"uint256"}],"name":"Transfer","type":"event"},{"anonymous":false,"inputs":[{"indexed":true,"internalType":"address","name":"user","type":"address"},{"indexed":true,"internalType":"uint8","name":"role","type":"uint8"},{"indexed":false,"internalType":"bool","name":"enabled","type":"bool"}],"name":"UserRoleUpdated","type":"event"},{"inputs":[],"name":"DOMAIN_SEPARATOR","outputs":[{"internalType":"bytes32","name":"","type":"bytes32"}],"stateMutability":"view","type":"function"},{"inputs":[{"internalType":"address","name":"","type":"address"},{"internalType":"address","name":"","type":"address"}],"name":"allowance","outputs":[{"internalType":"uint256","name":"","type":"uint256"}],"stateMutability":"view","type":"function"},{"inputs":[{"internalType":"address","name":"spender","type":"address"},{"internalType":"uint256","name":"amount","type":"uint256"}],"name":"approve","outputs":[{"internalType":"bool","name":"","type":"bool"}],"stateMutability":"nonpayable","type":"function"},{"inputs":[],"name":"authority","outputs":[{"internalType":"contract Authority","name":"","type":"address"}],"stateMutability":"view","type":"function"},{"inputs":[{"internalType":"address","name":"","type":"address"}],"name":"balanceOf","outputs":[{"internalType":"uint256","name":"","type":"uint256"}],"stateMutability":"view","type":"function"},{"inputs":[{"internalType":"uint256","name":"amount","type":"uint256"}],"name":"burn","outputs":[],"stateMutability":"nonpayable","type":"function"},{"inputs":[{"internalType":"address","name":"destination","type":"address"},{"internalType":"uint256","name":"amount","type":"uint256"}],"name":"burn","outputs":[],"stateMutability":"nonpayable","type":"function"},{"inputs":[{"internalType":"address","name":"user","type":"address"},{"internalType":"address","name":"target","type":"address"},{"internalType":"bytes4","name":"functionSig","type":"bytes4"}],"name":"canCall","outputs":[{"internalType":"bool","name":"","type":"bool"}],"stateMutability":"view","type":"function"},{"inputs":[],"name":"decimals","outputs":[{"internalType":"uint8","name":"","type":"uint8"}],"stateMutability":"view","type":"function"},{"inputs":[{"internalType":"uint8","name":"role","type":"uint8"},{"internalType":"bytes4","name":"functionSig","type":"bytes4"}],"name":"doesRoleHaveCapability","outputs":[{"internalType":"bool","name":"","type":"bool"}],"stateMutability":"view","type":"function"},{"inputs":[{"internalType":"address","name":"user","type":"address"},{"internalType":"uint8","name":"role","type":"uint8"}],"name":"doesUserHaveRole","outputs":[{"internalType":"bool","name":"","type":"bool"}],"stateMutability":"view","type":"function"},{"inputs":[{"internalType":"uint256","name":"_rethAmount","type":"uint256"}],"name":"getEthValue","outputs":[{"internalType":"uint256","name":"","type":"uint256"}],"stateMutability":"view","type":"function"},{"inputs":[],"name":"getRate","outputs":[{"internalType":"uint256","name":"","type":"uint256"}],"stateMutability":"view","type":"function"},{"inputs":[{"internalType":"uint256","name":"_ethAmount","type":"uint256"}],"name":"getRethValue","outputs":[{"internalType":"uint256","name":"","type":"uint256"}],"stateMutability":"view","type":"function"},{"inputs":[{"internalType":"bytes4","name":"","type":"bytes4"}],"name":"getRolesWithCapability","outputs":[{"internalType":"bytes32","name":"","type":"bytes32"}],"stateMutability":"view","type":"function"},{"inputs":[{"internalType":"address","name":"","type":"address"}],"name":"getTargetCustomAuthority","outputs":[{"internalType":"contract Authority","name":"","type":"address"}],"stateMutability":"view","type":"function"},{"inputs":[],"name":"getTotalPooledEther","outputs":[{"internalType":"uint256","name":"","type":"uint256"}],"stateMutability":"view","type":"function"},{"inputs":[],"name":"getTotalShares","outputs":[{"internalType":"uint256","name":"","type":"uint256"}],"stateMutability":"view","type":"function"},{"inputs":[{"internalType":"address","name":"","type":"address"}],"name":"getUserRoles","outputs":[{"internalType":"bytes32","name":"","type":"bytes32"}],"stateMutability":"view","type":"function"},{"inputs":[{"internalType":"bytes4","name":"","type":"bytes4"}],"name":"isCapabilityPublic","outputs":[{"internalType":"bool","name":"","type":"bool"}],"stateMutability":"view","type":"function"},{"inputs":[],"name":"isCompetitionMode","outputs":[{"internalType":"bool","name":"","type":"bool"}],"stateMutability":"view","type":"function"},{"inputs":[],"name":"maxMintAmount","outputs":[{"internalType":"uint256","name":"","type":"uint256"}],"stateMutability":"view","type":"function"},{"inputs":[{"internalType":"address","name":"destination","type":"address"},{"internalType":"uint256","name":"amount","type":"uint256"}],"name":"mint","outputs":[],"stateMutability":"nonpayable","type":"function"},{"inputs":[{"internalType":"uint256","name":"amount","type":"uint256"}],"name":"mint","outputs":[],"stateMutability":"nonpayable","type":"function"},{"inputs":[],"name":"name","outputs":[{"internalType":"string","name":"","type":"string"}],"stateMutability":"view","type":"function"},{"inputs":[{"internalType":"address","name":"","type":"address"}],"name":"nonces","outputs":[{"internalType":"uint256","name":"","type":"uint256"}],"stateMutability":"view","type":"function"},{"inputs":[],"name":"owner","outputs":[{"internalType":"address","name":"","type":"address"}],"stateMutability":"view","type":"function"},{"inputs":[{"internalType":"address","name":"owner","type":"address"},{"internalType":"address","name":"spender","type":"address"},{"internalType":"uint256","name":"value","type":"uint256"},{"internalType":"uint256","name":"deadline","type":"uint256"},{"internalType":"uint8","name":"v","type":"uint8"},{"internalType":"bytes32","name":"r","type":"bytes32"},{"internalType":"bytes32","name":"s","type":"bytes32"}],"name":"permit","outputs":[],"stateMutability":"nonpayable","type":"function"},{"inputs":[{"internalType":"contract Authority","name":"newAuthority","type":"address"}],"name":"setAuthority","outputs":[],"stateMutability":"nonpayable","type":"function"},{"inputs":[{"internalType":"bytes4","name":"functionSig","type":"bytes4"},{"internalType":"bool","name":"enabled","type":"bool"}],"name":"setPublicCapability","outputs":[],"stateMutability":"nonpayable","type":"function"},{"inputs":[{"internalType":"uint256","name":"_rate_","type":"uint256"}],"name":"setRate","outputs":[],"stateMutability":"nonpayable","type":"function"},{"inputs":[{"internalType":"uint8","name":"role","type":"uint8"},{"internalType":"bytes4","name":"functionSig","type":"bytes4"},{"internalType":"bool","name":"enabled","type":"bool"}],"name":"setRoleCapability","outputs":[],"stateMutability":"nonpayable","type":"function"},{"inputs":[{"internalType":"address","name":"target","type":"address"},{"internalType":"contract Authority","name":"customAuthority","type":"address"}],"name":"setTargetCustomAuthority","outputs":[],"stateMutability":"nonpayable","type":"function"},{"inputs":[{"internalType":"address","name":"user","type":"address"},{"internalType":"uint8","name":"role","type":"uint8"},{"internalType":"bool","name":"enabled","type":"bool"}],"name":"setUserRole","outputs":[],"stateMutability":"nonpayable","type":"function"},{"inputs":[{"internalType":"address","name":"","type":"address"}],"name":"submit","outputs":[{"internalType":"uint256","name":"","type":"uint256"}],"stateMutability":"payable","type":"function"},{"inputs":[],"name":"symbol","outputs":[{"internalType":"string","name":"","type":"string"}],"stateMutability":"view","type":"function"},{"inputs":[],"name":"totalSupply","outputs":[{"internalType":"uint256","name":"","type":"uint256"}],"stateMutability":"view","type":"function"},{"inputs":[{"internalType":"address","name":"to","type":"address"},{"internalType":"uint256","name":"amount","type":"uint256"}],"name":"transfer","outputs":[{"internalType":"bool","name":"","type":"bool"}],"stateMutability":"nonpayable","type":"function"},{"inputs":[{"internalType":"address","name":"from","type":"address"},{"internalType":"address","name":"to","type":"address"},{"internalType":"uint256","name":"amount","type":"uint256"}],"name":"transferFrom","outputs":[{"internalType":"bool","name":"","type":"bool"}],"stateMutability":"nonpayable","type":"function"},{"inputs":[{"internalType":"address","name":"newOwner","type":"address"}],"name":"transferOwnership","outputs":[],"stateMutability":"nonpayable","type":"function"},{"inputs":[{"internalType":"address","name":"_recipient","type":"address"},{"internalType":"uint256","name":"_sharesAmount","type":"uint256"}],"name":"transferShares","outputs":[{"internalType":"uint256","name":"","type":"uint256"}],"stateMutability":"nonpayable","type":"function"},{"inputs":[{"internalType":"address","name":"_sender","type":"address"},{"internalType":"address","name":"_recipient","type":"address"},{"internalType":"uint256","name":"_sharesAmount","type":"uint256"}],"name":"transferSharesFrom","outputs":[{"internalType":"uint256","name":"","type":"uint256"}],"stateMutability":"nonpayable","type":"function"}],"devdoc":{"author":"DELV","custom:disclaimer":"The language used in this code is for coding convenience                    only, and is not intended to, and does not, have any                    particular legal or regulatory significance.","kind":"dev","methods":{},"title":"MockRocketPool","version":1},"evm":{"bytecode":{"linkReferences":{},"object":"6101206040523480156200001257600080fd5b5060405162002cc838038062002cc8833981016040819052620000359162000214565b6040518060400160405280600e81526020016d0a4dec6d6cae8a0deded8408aa8960931b815250604051806040016040528060048152602001630a48aa8960e31b815250601285858582308181898989826000908162000096919062000317565b506001620000a5838262000317565b5060ff81166080524660a052620000bb62000178565b60c0525050600680546001600160a01b038086166001600160a01b03199283168117909355600780549186169190921617905560405190915033907f8be0079c531659141344cd1fd0a4f28419497f9722a3daafe3b4186f6b6457e090600090a36040516001600160a01b0382169033907fa3396fd7f6e0a21b50e5089d2da70d5ac0a3bbbd1f617a93f134b7638998019890600090a35050505090151560e05261010052505050600c94909455505042600d5550620004619050565b60007f8b73c3c69bb8fe3d512ecc4cf759cc79239f7b179b0ffacaa9a75d522b39400f6000604051620001ac9190620003e3565b6040805191829003822060208301939093528101919091527fc89efdaa54c0f20c7adf612882df0950f5a951637e0307cdcb4c672f298b8bc660608201524660808201523060a082015260c00160405160208183030381529060405280519060200120905090565b600080600080608085870312156200022b57600080fd5b845160208601519094506001600160a01b03811681146200024b57600080fd5b604086015190935080151581146200026257600080fd5b6060959095015193969295505050565b634e487b7160e01b600052604160045260246000fd5b600181811c908216806200029d57607f821691505b602082108103620002be57634e487b7160e01b600052602260045260246000fd5b50919050565b601f8211156200031257600081815260208120601f850160051c81016020861015620002ed5750805b601f850160051c820191505b818110156200030e57828155600101620002f9565b5050505b505050565b81516001600160401b0381111562000333576200033362000272565b6200034b8162000344845462000288565b84620002c4565b602080601f8311600181146200038357600084156200036a5750858301515b600019600386901b1c1916600185901b1785556200030e565b600085815260208120601f198616915b82811015620003b45788860151825594840194600190910190840162000393565b5085821015620003d35787850151600019600388901b60f8161c191681555b5050505050600190811b01905550565b6000808354620003f38162000288565b600182811680156200040e5760018114620004245762000455565b60ff198416875282151583028701945062000455565b8760005260208060002060005b858110156200044c5781548a82015290840190820162000431565b50505082870194505b50929695505050505050565b60805160a05160c05160e051610100516127f1620004d7600039600081816103e201528181610f2e01526117960152600081816105e801528181610d3b01528181610e7401528181610fc60152818161161801526116dc01526000610e3901526000610e040152600061043601526127f16000f3fe6080604052600436106102d15760003560e01c80637a8c63b511610179578063a9059cbb116100d6578063d505accf1161008a578063ea7ca27611610064578063ea7ca276146108c9578063ed0d0efb1461091a578063f2fde38b1461094757600080fd5b8063d505accf14610816578063dd62ed3e14610836578063e688747b1461086e57600080fd5b8063bf7e214f116100bb578063bf7e214f14610791578063c53a3985146107be578063d5002f2e1461080157600080fd5b8063a9059cbb14610751578063b70096131461077157600080fd5b80638fcb4e5b1161012d5780639dc29fac116101125780639dc29fac146106fe578063a0712d681461071e578063a1903eab1461073e57600080fd5b80638fcb4e5b146106c957806395d89b41146106e957600080fd5b80637ecebe001161015e5780637ecebe001461062a5780638b32fa23146106575780638da5cb5b1461067757600080fd5b80637a8c63b5146105d65780637a9e5e4b1461060a57600080fd5b80633644e515116102325780634b5159da116101e65780636d780459116101c05780636d7804591461056957806370a0823114610589578063728b952b146105b657600080fd5b80634b5159da14610514578063679aefce1461053457806367aff4841461054957600080fd5b806340c10f191161021757806340c10f19146104b457806342966c68146104d45780634346f03e146104f457600080fd5b80633644e5151461048a57806337cfdaca1461049f57600080fd5b806318160ddd1161028957806323b872dd1161026e57806323b872dd14610404578063313ce5671461042457806334fcf4371461046a57600080fd5b806318160ddd146103ba578063239c70ae146103d057600080fd5b8063095ea7b3116102ba578063095ea7b3146103385780630bade8a4146103685780630ea9b75b1461039857600080fd5b806306a36aee146102d657806306fdde0314610316575b600080fd5b3480156102e257600080fd5b506103036102f13660046122b4565b60096020526000908152604090205481565b6040519081526020015b60405180910390f35b34801561032257600080fd5b5061032b610967565b60405161030d91906122d1565b34801561034457600080fd5b5061035861035336600461233d565b6109f5565b604051901515815260200161030d565b34801561037457600080fd5b5061035861038336600461239e565b600a6020526000908152604090205460ff1681565b3480156103a457600080fd5b506103b86103b33660046123d8565b610a6f565b005b3480156103c657600080fd5b5061030360025481565b3480156103dc57600080fd5b506103037f000000000000000000000000000000000000000000000000000000000000000081565b34801561041057600080fd5b5061035861041f36600461241f565b610bf3565b34801561043057600080fd5b506104587f000000000000000000000000000000000000000000000000000000000000000081565b60405160ff909116815260200161030d565b34801561047657600080fd5b506103b8610485366004612460565b610d39565b34801561049657600080fd5b50610303610e00565b3480156104ab57600080fd5b50610303610e5b565b3480156104c057600080fd5b506103b86104cf36600461233d565b610e72565b3480156104e057600080fd5b506103b86104ef366004612460565b610fc4565b34801561050057600080fd5b5061030361050f366004612460565b61108b565b34801561052057600080fd5b506103b861052f366004612479565b6110a9565b34801561054057600080fd5b50600c54610303565b34801561055557600080fd5b506103b86105643660046124b0565b6111d3565b34801561057557600080fd5b5061030361058436600461241f565b611324565b34801561059557600080fd5b506103036105a43660046122b4565b60036020526000908152604090205481565b3480156105c257600080fd5b506103b86105d13660046124de565b61135c565b3480156105e257600080fd5b506103587f000000000000000000000000000000000000000000000000000000000000000081565b34801561061657600080fd5b506103b86106253660046122b4565b61146c565b34801561063657600080fd5b506103036106453660046122b4565b60056020526000908152604090205481565b34801561066357600080fd5b50610303610672366004612460565b6115c9565b34801561068357600080fd5b506006546106a49073ffffffffffffffffffffffffffffffffffffffff1681565b60405173ffffffffffffffffffffffffffffffffffffffff909116815260200161030d565b3480156106d557600080fd5b506103036106e436600461233d565b6115de565b3480156106f557600080fd5b5061032b611609565b34801561070a57600080fd5b506103b861071936600461233d565b611616565b34801561072a57600080fd5b506103b8610739366004612460565b6116da565b61030361074c3660046122b4565b611828565b34801561075d57600080fd5b5061035861076c36600461233d565b6118b4565b34801561077d57600080fd5b5061035861078c36600461250c565b611939565b34801561079d57600080fd5b506007546106a49073ffffffffffffffffffffffffffffffffffffffff1681565b3480156107ca57600080fd5b506106a46107d93660046122b4565b60086020526000908152604090205473ffffffffffffffffffffffffffffffffffffffff1681565b34801561080d57600080fd5b50600f54610303565b34801561082257600080fd5b506103b8610831366004612553565b611ad0565b34801561084257600080fd5b506103036108513660046124de565b600460209081526000928352604080842090915290825290205481565b34801561087a57600080fd5b506103586108893660046125c1565b7fffffffff00000000000000000000000000000000000000000000000000000000166000908152600b602052604090205460ff919091161c600116151590565b3480156108d557600080fd5b506103586108e43660046125f4565b73ffffffffffffffffffffffffffffffffffffffff91909116600090815260096020526040902054600160ff9092161c16151590565b34801561092657600080fd5b5061030361093536600461239e565b600b6020526000908152604090205481565b34801561095357600080fd5b506103b86109623660046122b4565b611def565b6000805461097490612620565b80601f01602080910402602001604051908101604052809291908181526020018280546109a090612620565b80156109ed5780601f106109c2576101008083540402835291602001916109ed565b820191906000526020600020905b8154815290600101906020018083116109d057829003601f168201915b505050505081565b33600081815260046020908152604080832073ffffffffffffffffffffffffffffffffffffffff8716808552925280832085905551919290917f8c5be1e5ebec7d5bd14f71427d1e84f3dd0314c0f7b2291e5b200ac8c7c3b92590610a5d9086815260200190565b60405180910390a35060015b92915050565b610a9d336000357fffffffff0000000000000000000000000000000000000000000000000000000016611ef4565b610b08576040517f08c379a000000000000000000000000000000000000000000000000000000000815260206004820152600c60248201527f554e415554484f52495a4544000000000000000000000000000000000000000060448201526064015b60405180910390fd5b8015610b50577fffffffff0000000000000000000000000000000000000000000000000000000082166000908152600b602052604090208054600160ff86161b179055610b8f565b7fffffffff0000000000000000000000000000000000000000000000000000000082166000908152600b602052604090208054600160ff86161b191690555b817bffffffffffffffffffffffffffffffffffffffffffffffffffffffff19168360ff167fbfe16b2c35ce23dfd1ab0e7b5d086a10060c9b52d1574e1680c881b3b3a2b15183604051610be6911515815260200190565b60405180910390a3505050565b73ffffffffffffffffffffffffffffffffffffffff831660009081526004602090815260408083203384529091528120547fffffffffffffffffffffffffffffffffffffffffffffffffffffffffffffffff8114610c8757610c5583826126a2565b73ffffffffffffffffffffffffffffffffffffffff861660009081526004602090815260408083203384529091529020555b73ffffffffffffffffffffffffffffffffffffffff851660009081526003602052604081208054859290610cbc9084906126a2565b909155505073ffffffffffffffffffffffffffffffffffffffff808516600081815260036020526040908190208054870190555190918716907fddf252ad1be2c89b69c2b068fc378daa952ba7f163c4a11628f55a4df523b3ef90610d249087815260200190565b60405180910390a360019150505b9392505050565b7f000000000000000000000000000000000000000000000000000000000000000015610df357610d8d336000357fffffffff0000000000000000000000000000000000000000000000000000000016611ef4565b610df3576040517f08c379a000000000000000000000000000000000000000000000000000000000815260206004820152601d60248201527f45524332304d696e7461626c653a206e6f7420617574686f72697a65640000006044820152606401610aff565b610dfb612005565b600c55565b60007f00000000000000000000000000000000000000000000000000000000000000004614610e3657610e31612036565b905090565b507f000000000000000000000000000000000000000000000000000000000000000090565b6000610e656120d0565b600e54610e3191906126b5565b7f000000000000000000000000000000000000000000000000000000000000000015610f2c57610ec6336000357fffffffff0000000000000000000000000000000000000000000000000000000016611ef4565b610f2c576040517f08c379a000000000000000000000000000000000000000000000000000000000815260206004820152601d60248201527f45524332304d696e7461626c653a206e6f7420617574686f72697a65640000006044820152606401610aff565b7f0000000000000000000000000000000000000000000000000000000000000000811115610fb6576040517f08c379a000000000000000000000000000000000000000000000000000000000815260206004820181905260248201527f4d6f636b455243343632363a20496e76616c6964206d696e7420616d6f756e746044820152606401610aff565b610fc08282612125565b5050565b7f00000000000000000000000000000000000000000000000000000000000000001561107e57611018336000357fffffffff0000000000000000000000000000000000000000000000000000000016611ef4565b61107e576040517f08c379a000000000000000000000000000000000000000000000000000000000815260206004820152601d60248201527f45524332304d696e7461626c653a206e6f7420617574686f72697a65640000006044820152606401610aff565b611088338261219e565b50565b6000610a69611099600f5490565b6110a1610e5b565b84919061222c565b6110d7336000357fffffffff0000000000000000000000000000000000000000000000000000000016611ef4565b61113d576040517f08c379a000000000000000000000000000000000000000000000000000000000815260206004820152600c60248201527f554e415554484f52495a454400000000000000000000000000000000000000006044820152606401610aff565b7fffffffff0000000000000000000000000000000000000000000000000000000082166000818152600a602090815260409182902080547fffffffffffffffffffffffffffffffffffffffffffffffffffffffffffffff001685151590811790915591519182527f36d28126bef21a4f3765d7fcb7c45cead463ae4c41094ef3b771ede598544103910160405180910390a25050565b611201336000357fffffffff0000000000000000000000000000000000000000000000000000000016611ef4565b611267576040517f08c379a000000000000000000000000000000000000000000000000000000000815260206004820152600c60248201527f554e415554484f52495a454400000000000000000000000000000000000000006044820152606401610aff565b80156112a35773ffffffffffffffffffffffffffffffffffffffff831660009081526009602052604090208054600160ff85161b1790556112d6565b73ffffffffffffffffffffffffffffffffffffffff831660009081526009602052604090208054600160ff85161b191690555b8160ff168373ffffffffffffffffffffffffffffffffffffffff167f4c9bdd0c8e073eb5eda2250b18d8e5121ff27b62064fbeeeed4869bb99bc5bf283604051610be6911515815260200190565b600061132e612005565b600061134661133b610e5b565b600f5485919061222c565b9050611353858583610bf3565b50949350505050565b61138a336000357fffffffff0000000000000000000000000000000000000000000000000000000016611ef4565b6113f0576040517f08c379a000000000000000000000000000000000000000000000000000000000815260206004820152600c60248201527f554e415554484f52495a454400000000000000000000000000000000000000006044820152606401610aff565b73ffffffffffffffffffffffffffffffffffffffff82811660008181526008602052604080822080547fffffffffffffffffffffffff0000000000000000000000000000000000000000169486169485179055517fa4908e11a5f895b13d51526c331ac93cdd30e59772361c5d07874eb36bff20659190a35050565b60065473ffffffffffffffffffffffffffffffffffffffff1633148061154f57506007546040517fb70096130000000000000000000000000000000000000000000000000000000081523360048201523060248201526000357fffffffff0000000000000000000000000000000000000000000000000000000016604482015273ffffffffffffffffffffffffffffffffffffffff9091169063b700961390606401602060405180830381865afa15801561152b573d6000803e3d6000fd5b505050506040513d601f19601f8201168201806040525081019061154f91906126c8565b61155857600080fd5b600780547fffffffffffffffffffffffff00000000000000000000000000000000000000001673ffffffffffffffffffffffffffffffffffffffff831690811790915560405133907fa3396fd7f6e0a21b50e5089d2da70d5ac0a3bbbd1f617a93f134b7638998019890600090a350565b6000610a696115d6610e5b565b600f546110a1565b60006115e8612005565b60006115f561133b610e5b565b905061160184826118b4565b509392505050565b6001805461097490612620565b7f0000000000000000000000000000000000000000000000000000000000000000156116d05761166a336000357fffffffff0000000000000000000000000000000000000000000000000000000016611ef4565b6116d0576040517f08c379a000000000000000000000000000000000000000000000000000000000815260206004820152601d60248201527f45524332304d696e7461626c653a206e6f7420617574686f72697a65640000006044820152606401610aff565b610fc0828261219e565b7f0000000000000000000000000000000000000000000000000000000000000000156117945761172e336000357fffffffff0000000000000000000000000000000000000000000000000000000016611ef4565b611794576040517f08c379a000000000000000000000000000000000000000000000000000000000815260206004820152601d60248201527f45524332304d696e7461626c653a206e6f7420617574686f72697a65640000006044820152606401610aff565b7f000000000000000000000000000000000000000000000000000000000000000081111561181e576040517f08c379a000000000000000000000000000000000000000000000000000000000815260206004820181905260248201527f4d6f636b455243343632363a20496e76616c6964206d696e7420616d6f756e746044820152606401610aff565b6110883382612125565b6000611832612005565b600f546000036118595734600f819055600e819055611852903390612125565b5034919050565b6000611877611867600f5490565b61186f610e5b565b34919061222c565b905034600e600082825461188b91906126b5565b9250508190555080600f60008282546118a491906126b5565b90915550610a6990503334612125565b336000908152600360205260408120805483919083906118d59084906126a2565b909155505073ffffffffffffffffffffffffffffffffffffffff8316600081815260036020526040908190208054850190555133907fddf252ad1be2c89b69c2b068fc378daa952ba7f163c4a11628f55a4df523b3ef90610a5d9086815260200190565b73ffffffffffffffffffffffffffffffffffffffff8083166000908152600860205260408120549091168015611a31576040517fb700961300000000000000000000000000000000000000000000000000000000815273ffffffffffffffffffffffffffffffffffffffff868116600483015285811660248301527fffffffff000000000000000000000000000000000000000000000000000000008516604483015282169063b700961390606401602060405180830381865afa158015611a05573d6000803e3d6000fd5b505050506040513d601f19601f82011682018060405250810190611a2991906126c8565b915050610d32565b7fffffffff0000000000000000000000000000000000000000000000000000000083166000908152600a602052604090205460ff1680611ac757507fffffffff0000000000000000000000000000000000000000000000000000000083166000908152600b602090815260408083205473ffffffffffffffffffffffffffffffffffffffff891684526009909252909120541615155b95945050505050565b42841015611b3a576040517f08c379a000000000000000000000000000000000000000000000000000000000815260206004820152601760248201527f5045524d49545f444541444c494e455f455850495245440000000000000000006044820152606401610aff565b60006001611b46610e00565b73ffffffffffffffffffffffffffffffffffffffff8a811660008181526005602090815260409182902080546001810190915582517f6e71edae12b1b97f4d1f60370fef10105fa2faae0126114a169c64845d6126c98184015280840194909452938d166060840152608083018c905260a083019390935260c08083018b90528151808403909101815260e0830190915280519201919091207f190100000000000000000000000000000000000000000000000000000000000061010083015261010282019290925261012281019190915261014201604080517fffffffffffffffffffffffffffffffffffffffffffffffffffffffffffffffe08184030181528282528051602091820120600084529083018083525260ff871690820152606081018590526080810184905260a0016020604051602081039080840390855afa158015611c98573d6000803e3d6000fd5b50506040517fffffffffffffffffffffffffffffffffffffffffffffffffffffffffffffffe0015191505073ffffffffffffffffffffffffffffffffffffffff811615801590611d1357508773ffffffffffffffffffffffffffffffffffffffff168173ffffffffffffffffffffffffffffffffffffffff16145b611d79576040517f08c379a000000000000000000000000000000000000000000000000000000000815260206004820152600e60248201527f494e56414c49445f5349474e45520000000000000000000000000000000000006044820152606401610aff565b73ffffffffffffffffffffffffffffffffffffffff90811660009081526004602090815260408083208a8516808552908352928190208990555188815291928a16917f8c5be1e5ebec7d5bd14f71427d1e84f3dd0314c0f7b2291e5b200ac8c7c3b925910160405180910390a350505050505050565b611e1d336000357fffffffff0000000000000000000000000000000000000000000000000000000016611ef4565b611e83576040517f08c379a000000000000000000000000000000000000000000000000000000000815260206004820152600c60248201527f554e415554484f52495a454400000000000000000000000000000000000000006044820152606401610aff565b600680547fffffffffffffffffffffffff00000000000000000000000000000000000000001673ffffffffffffffffffffffffffffffffffffffff831690811790915560405133907f8be0079c531659141344cd1fd0a4f28419497f9722a3daafe3b4186f6b6457e090600090a350565b60075460009073ffffffffffffffffffffffffffffffffffffffff168015801590611fd857506040517fb700961300000000000000000000000000000000000000000000000000000000815273ffffffffffffffffffffffffffffffffffffffff85811660048301523060248301527fffffffff000000000000000000000000000000000000000000000000000000008516604483015282169063b700961390606401602060405180830381865afa158015611fb4573d6000803e3d6000fd5b505050506040513d601f19601f82011682018060405250810190611fd891906126c8565b80611ffd575060065473ffffffffffffffffffffffffffffffffffffffff8581169116145b949350505050565b600061200f6120d0565b9050801561202f5780600e600082825461202991906126b5565b90915550505b5042600d55565b60007f8b73c3c69bb8fe3d512ecc4cf759cc79239f7b179b0ffacaa9a75d522b39400f600060405161206891906126e5565b6040805191829003822060208301939093528101919091527fc89efdaa54c0f20c7adf612882df0950f5a951637e0307cdcb4c672f298b8bc660608201524660808201523060a082015260c00160405160208183030381529060405280519060200120905090565b6000600c546000036120e25750600090565b60006121006301e13380600d54426120fa91906126a2565b90612268565b90506000610d3261211c83600c5461227d90919063ffffffff16565b600e549061227d565b806002600082825461213791906126b5565b909155505073ffffffffffffffffffffffffffffffffffffffff82166000818152600360209081526040808320805486019055518481527fddf252ad1be2c89b69c2b068fc378daa952ba7f163c4a11628f55a4df523b3ef91015b60405180910390a35050565b73ffffffffffffffffffffffffffffffffffffffff8216600090815260036020526040812080548392906121d39084906126a2565b909155505060028054829003905560405181815260009073ffffffffffffffffffffffffffffffffffffffff8416907fddf252ad1be2c89b69c2b068fc378daa952ba7f163c4a11628f55a4df523b3ef90602001612192565b6000827fffffffffffffffffffffffffffffffffffffffffffffffffffffffffffffffff048411830215820261226157600080fd5b5091020490565b6000610d3283670de0b6b3a76400008461222c565b6000610d328383670de0b6b3a764000061222c565b73ffffffffffffffffffffffffffffffffffffffff8116811461108857600080fd5b6000602082840312156122c657600080fd5b8135610d3281612292565b600060208083528351808285015260005b818110156122fe578581018301518582016040015282016122e2565b5060006040828601015260407fffffffffffffffffffffffffffffffffffffffffffffffffffffffffffffffe0601f8301168501019250505092915050565b6000806040838503121561235057600080fd5b823561235b81612292565b946020939093013593505050565b80357fffffffff000000000000000000000000000000000000000000000000000000008116811461239957600080fd5b919050565b6000602082840312156123b057600080fd5b610d3282612369565b803560ff8116811461239957600080fd5b801515811461108857600080fd5b6000806000606084860312156123ed57600080fd5b6123f6846123b9565b925061240460208501612369565b91506040840135612414816123ca565b809150509250925092565b60008060006060848603121561243457600080fd5b833561243f81612292565b9250602084013561244f81612292565b929592945050506040919091013590565b60006020828403121561247257600080fd5b5035919050565b6000806040838503121561248c57600080fd5b61249583612369565b915060208301356124a5816123ca565b809150509250929050565b6000806000606084860312156124c557600080fd5b83356124d081612292565b9250612404602085016123b9565b600080604083850312156124f157600080fd5b82356124fc81612292565b915060208301356124a581612292565b60008060006060848603121561252157600080fd5b833561252c81612292565b9250602084013561253c81612292565b915061254a60408501612369565b90509250925092565b600080600080600080600060e0888a03121561256e57600080fd5b873561257981612292565b9650602088013561258981612292565b955060408801359450606088013593506125a5608089016123b9565b925060a0880135915060c0880135905092959891949750929550565b600080604083850312156125d457600080fd5b6125dd836123b9565b91506125eb60208401612369565b90509250929050565b6000806040838503121561260757600080fd5b823561261281612292565b91506125eb602084016123b9565b600181811c9082168061263457607f821691505b60208210810361266d577f4e487b7100000000000000000000000000000000000000000000000000000000600052602260045260246000fd5b50919050565b7f4e487b7100000000000000000000000000000000000000000000000000000000600052601160045260246000fd5b81810381811115610a6957610a69612673565b80820180821115610a6957610a69612673565b6000602082840312156126da57600080fd5b8151610d32816123ca565b600080835481600182811c91508083168061270157607f831692505b60208084108203612739577f4e487b710000000000000000000000000000000000000000000000000000000086526022600452602486fd5b81801561274d5760018114612780576127ad565b7fffffffffffffffffffffffffffffffffffffffffffffffffffffffffffffff00861689528415158502890196506127ad565b60008a81526020902060005b868110156127a55781548b82015290850190830161278c565b505084890196505b50949897505050505050505056fea2646970667358221220cfd6eb454aa625b34bc581747d599dcdaaeb852a30b300e05d15c414f1fb8dcb64736f6c63430008140033","opcodes":"PUSH2 0x120 PUSH1 0x40 MSTORE CALLVALUE DUP1 ISZERO PUSH3 0x12 JUMPI PUSH1 0x0 DUP1 REVERT JUMPDEST POP PUSH1 0x40 MLOAD PUSH3 0x2CC8 CODESIZE SUB DUP1 PUSH3 0x2CC8 DUP4 CODECOPY DUP2 ADD PUSH1 0x40 DUP2 SWAP1 MSTORE PUSH3 0x35 SWAP2 PUSH3 0x214 JUMP JUMPDEST PUSH1 0x40 MLOAD DUP1 PUSH1 0x40 ADD PUSH1 0x40 MSTORE DUP1 PUSH1 0xE DUP2 MSTORE PUSH1 0x20 ADD PUSH14 0xA4DEC6D6CAE8A0DEDED8408AA89 PUSH1 0x93 SHL DUP2 MSTORE POP PUSH1 0x40 MLOAD DUP1 PUSH1 0x40 ADD PUSH1 0x40 MSTORE DUP1 PUSH1 0x4 DUP2 MSTORE PUSH1 0x20 ADD PUSH4 0xA48AA89 PUSH1 0xE3 SHL DUP2 MSTORE POP PUSH1 0x12 DUP6 DUP6 DUP6 DUP3 ADDRESS DUP2 DUP2 DUP10 DUP10 DUP10 DUP3 PUSH1 0x0 SWAP1 DUP2 PUSH3 0x96 SWAP2 SWAP1 PUSH3 0x317 JUMP JUMPDEST POP PUSH1 0x1 PUSH3 0xA5 DUP4 DUP3 PUSH3 0x317 JUMP JUMPDEST POP PUSH1 0xFF DUP2 AND PUSH1 0x80 MSTORE CHAINID PUSH1 0xA0 MSTORE PUSH3 0xBB PUSH3 0x178 JUMP JUMPDEST PUSH1 0xC0 MSTORE POP POP PUSH1 0x6 DUP1 SLOAD PUSH1 0x1 PUSH1 0x1 PUSH1 0xA0 SHL SUB DUP1 DUP7 AND PUSH1 0x1 PUSH1 0x1 PUSH1 0xA0 SHL SUB NOT SWAP3 DUP4 AND DUP2 OR SWAP1 SWAP4 SSTORE PUSH1 0x7 DUP1 SLOAD SWAP2 DUP7 AND SWAP2 SWAP1 SWAP3 AND OR SWAP1 SSTORE PUSH1 0x40 MLOAD SWAP1 SWAP2 POP CALLER SWAP1 PUSH32 0x8BE0079C531659141344CD1FD0A4F28419497F9722A3DAAFE3B4186F6B6457E0 SWAP1 PUSH1 0x0 SWAP1 LOG3 PUSH1 0x40 MLOAD PUSH1 0x1 PUSH1 0x1 PUSH1 0xA0 SHL SUB DUP3 AND SWAP1 CALLER SWAP1 PUSH32 0xA3396FD7F6E0A21B50E5089D2DA70D5AC0A3BBBD1F617A93F134B76389980198 SWAP1 PUSH1 0x0 SWAP1 LOG3 POP POP POP POP SWAP1 ISZERO ISZERO PUSH1 0xE0 MSTORE PUSH2 0x100 MSTORE POP POP POP PUSH1 0xC SWAP5 SWAP1 SWAP5 SSTORE POP POP TIMESTAMP PUSH1 0xD SSTORE POP PUSH3 0x461 SWAP1 POP JUMP JUMPDEST PUSH1 0x0 PUSH32 0x8B73C3C69BB8FE3D512ECC4CF759CC79239F7B179B0FFACAA9A75D522B39400F PUSH1 0x0 PUSH1 0x40 MLOAD PUSH3 0x1AC SWAP2 SWAP1 PUSH3 0x3E3 JUMP JUMPDEST PUSH1 0x40 DUP1 MLOAD SWAP2 DUP3 SWAP1 SUB DUP3 KECCAK256 PUSH1 0x20 DUP4 ADD SWAP4 SWAP1 SWAP4 MSTORE DUP2 ADD SWAP2 SWAP1 SWAP2 MSTORE PUSH32 0xC89EFDAA54C0F20C7ADF612882DF0950F5A951637E0307CDCB4C672F298B8BC6 PUSH1 0x60 DUP3 ADD MSTORE CHAINID PUSH1 0x80 DUP3 ADD MSTORE ADDRESS PUSH1 0xA0 DUP3 ADD MSTORE PUSH1 0xC0 ADD PUSH1 0x40 MLOAD PUSH1 0x20 DUP2 DUP4 SUB SUB DUP2 MSTORE SWAP1 PUSH1 0x40 MSTORE DUP1 MLOAD SWAP1 PUSH1 0x20 ADD KECCAK256 SWAP1 POP SWAP1 JUMP JUMPDEST PUSH1 0x0 DUP1 PUSH1 0x0 DUP1 PUSH1 0x80 DUP6 DUP8 SUB SLT ISZERO PUSH3 0x22B JUMPI PUSH1 0x0 DUP1 REVERT JUMPDEST DUP5 MLOAD PUSH1 0x20 DUP7 ADD MLOAD SWAP1 SWAP5 POP PUSH1 0x1 PUSH1 0x1 PUSH1 0xA0 SHL SUB DUP2 AND DUP2 EQ PUSH3 0x24B JUMPI PUSH1 0x0 DUP1 REVERT JUMPDEST PUSH1 0x40 DUP7 ADD MLOAD SWAP1 SWAP4 POP DUP1 ISZERO ISZERO DUP2 EQ PUSH3 0x262 JUMPI PUSH1 0x0 DUP1 REVERT JUMPDEST PUSH1 0x60 SWAP6 SWAP1 SWAP6 ADD MLOAD SWAP4 SWAP7 SWAP3 SWAP6 POP POP POP JUMP JUMPDEST PUSH4 0x4E487B71 PUSH1 0xE0 SHL PUSH1 0x0 MSTORE PUSH1 0x41 PUSH1 0x4 MSTORE PUSH1 0x24 PUSH1 0x0 REVERT JUMPDEST PUSH1 0x1 DUP2 DUP2 SHR SWAP1 DUP3 AND DUP1 PUSH3 0x29D JUMPI PUSH1 0x7F DUP3 AND SWAP2 POP JUMPDEST PUSH1 0x20 DUP3 LT DUP2 SUB PUSH3 0x2BE JUMPI PUSH4 0x4E487B71 PUSH1 0xE0 SHL PUSH1 0x0 MSTORE PUSH1 0x22 PUSH1 0x4 MSTORE PUSH1 0x24 PUSH1 0x0 REVERT JUMPDEST POP SWAP2 SWAP1 POP JUMP JUMPDEST PUSH1 0x1F DUP3 GT ISZERO PUSH3 0x312 JUMPI PUSH1 0x0 DUP2 DUP2 MSTORE PUSH1 0x20 DUP2 KECCAK256 PUSH1 0x1F DUP6 ADD PUSH1 0x5 SHR DUP2 ADD PUSH1 0x20 DUP7 LT ISZERO PUSH3 0x2ED JUMPI POP DUP1 JUMPDEST PUSH1 0x1F DUP6 ADD PUSH1 0x5 SHR DUP3 ADD SWAP2 POP JUMPDEST DUP2 DUP2 LT ISZERO PUSH3 0x30E JUMPI DUP3 DUP2 SSTORE PUSH1 0x1 ADD PUSH3 0x2F9 JUMP JUMPDEST POP POP POP JUMPDEST POP POP POP JUMP JUMPDEST DUP2 MLOAD PUSH1 0x1 PUSH1 0x1 PUSH1 0x40 SHL SUB DUP2 GT ISZERO PUSH3 0x333 JUMPI PUSH3 0x333 PUSH3 0x272 JUMP JUMPDEST PUSH3 0x34B DUP2 PUSH3 0x344 DUP5 SLOAD PUSH3 0x288 JUMP JUMPDEST DUP5 PUSH3 0x2C4 JUMP JUMPDEST PUSH1 0x20 DUP1 PUSH1 0x1F DUP4 GT PUSH1 0x1 DUP2 EQ PUSH3 0x383 JUMPI PUSH1 0x0 DUP5 ISZERO PUSH3 0x36A JUMPI POP DUP6 DUP4 ADD MLOAD JUMPDEST PUSH1 0x0 NOT PUSH1 0x3 DUP7 SWAP1 SHL SHR NOT AND PUSH1 0x1 DUP6 SWAP1 SHL OR DUP6 SSTORE PUSH3 0x30E JUMP JUMPDEST PUSH1 0x0 DUP6 DUP2 MSTORE PUSH1 0x20 DUP2 KECCAK256 PUSH1 0x1F NOT DUP7 AND SWAP2 JUMPDEST DUP3 DUP2 LT ISZERO PUSH3 0x3B4 JUMPI DUP9 DUP7 ADD MLOAD DUP3 SSTORE SWAP5 DUP5 ADD SWAP5 PUSH1 0x1 SWAP1 SWAP2 ADD SWAP1 DUP5 ADD PUSH3 0x393 JUMP JUMPDEST POP DUP6 DUP3 LT ISZERO PUSH3 0x3D3 JUMPI DUP8 DUP6 ADD MLOAD PUSH1 0x0 NOT PUSH1 0x3 DUP9 SWAP1 SHL PUSH1 0xF8 AND SHR NOT AND DUP2 SSTORE JUMPDEST POP POP POP POP POP PUSH1 0x1 SWAP1 DUP2 SHL ADD SWAP1 SSTORE POP JUMP JUMPDEST PUSH1 0x0 DUP1 DUP4 SLOAD PUSH3 0x3F3 DUP2 PUSH3 0x288 JUMP JUMPDEST PUSH1 0x1 DUP3 DUP2 AND DUP1 ISZERO PUSH3 0x40E JUMPI PUSH1 0x1 DUP2 EQ PUSH3 0x424 JUMPI PUSH3 0x455 JUMP JUMPDEST PUSH1 0xFF NOT DUP5 AND DUP8 MSTORE DUP3 ISZERO ISZERO DUP4 MUL DUP8 ADD SWAP5 POP PUSH3 0x455 JUMP JUMPDEST DUP8 PUSH1 0x0 MSTORE PUSH1 0x20 DUP1 PUSH1 0x0 KECCAK256 PUSH1 0x0 JUMPDEST DUP6 DUP2 LT ISZERO PUSH3 0x44C JUMPI DUP2 SLOAD DUP11 DUP3 ADD MSTORE SWAP1 DUP5 ADD SWAP1 DUP3 ADD PUSH3 0x431 JUMP JUMPDEST POP POP POP DUP3 DUP8 ADD SWAP5 POP JUMPDEST POP SWAP3 SWAP7 SWAP6 POP POP POP POP POP POP JUMP JUMPDEST PUSH1 0x80 MLOAD PUSH1 0xA0 MLOAD PUSH1 0xC0 MLOAD PUSH1 0xE0 MLOAD PUSH2 0x100 MLOAD PUSH2 0x27F1 PUSH3 0x4D7 PUSH1 0x0 CODECOPY PUSH1 0x0 DUP2 DUP2 PUSH2 0x3E2 ADD MSTORE DUP2 DUP2 PUSH2 0xF2E ADD MSTORE PUSH2 0x1796 ADD MSTORE PUSH1 0x0 DUP2 DUP2 PUSH2 0x5E8 ADD MSTORE DUP2 DUP2 PUSH2 0xD3B ADD MSTORE DUP2 DUP2 PUSH2 0xE74 ADD MSTORE DUP2 DUP2 PUSH2 0xFC6 ADD MSTORE DUP2 DUP2 PUSH2 0x1618 ADD MSTORE PUSH2 0x16DC ADD MSTORE PUSH1 0x0 PUSH2 0xE39 ADD MSTORE PUSH1 0x0 PUSH2 0xE04 ADD MSTORE PUSH1 0x0 PUSH2 0x436 ADD MSTORE PUSH2 0x27F1 PUSH1 0x0 RETURN INVALID PUSH1 0x80 PUSH1 0x40 MSTORE PUSH1 0x4 CALLDATASIZE LT PUSH2 0x2D1 JUMPI PUSH1 0x0 CALLDATALOAD PUSH1 0xE0 SHR DUP1 PUSH4 0x7A8C63B5 GT PUSH2 0x179 JUMPI DUP1 PUSH4 0xA9059CBB GT PUSH2 0xD6 JUMPI DUP1 PUSH4 0xD505ACCF GT PUSH2 0x8A JUMPI DUP1 PUSH4 0xEA7CA276 GT PUSH2 0x64 JUMPI DUP1 PUSH4 0xEA7CA276 EQ PUSH2 0x8C9 JUMPI DUP1 PUSH4 0xED0D0EFB EQ PUSH2 0x91A JUMPI DUP1 PUSH4 0xF2FDE38B EQ PUSH2 0x947 JUMPI PUSH1 0x0 DUP1 REVERT JUMPDEST DUP1 PUSH4 0xD505ACCF EQ PUSH2 0x816 JUMPI DUP1 PUSH4 0xDD62ED3E EQ PUSH2 0x836 JUMPI DUP1 PUSH4 0xE688747B EQ PUSH2 0x86E JUMPI PUSH1 0x0 DUP1 REVERT JUMPDEST DUP1 PUSH4 0xBF7E214F GT PUSH2 0xBB JUMPI DUP1 PUSH4 0xBF7E214F EQ PUSH2 0x791 JUMPI DUP1 PUSH4 0xC53A3985 EQ PUSH2 0x7BE JUMPI DUP1 PUSH4 0xD5002F2E EQ PUSH2 0x801 JUMPI PUSH1 0x0 DUP1 REVERT JUMPDEST DUP1 PUSH4 0xA9059CBB EQ PUSH2 0x751 JUMPI DUP1 PUSH4 0xB7009613 EQ PUSH2 0x771 JUMPI PUSH1 0x0 DUP1 REVERT JUMPDEST DUP1 PUSH4 0x8FCB4E5B GT PUSH2 0x12D JUMPI DUP1 PUSH4 0x9DC29FAC GT PUSH2 0x112 JUMPI DUP1 PUSH4 0x9DC29FAC EQ PUSH2 0x6FE JUMPI DUP1 PUSH4 0xA0712D68 EQ PUSH2 0x71E JUMPI DUP1 PUSH4 0xA1903EAB EQ PUSH2 0x73E JUMPI PUSH1 0x0 DUP1 REVERT JUMPDEST DUP1 PUSH4 0x8FCB4E5B EQ PUSH2 0x6C9 JUMPI DUP1 PUSH4 0x95D89B41 EQ PUSH2 0x6E9 JUMPI PUSH1 0x0 DUP1 REVERT JUMPDEST DUP1 PUSH4 0x7ECEBE00 GT PUSH2 0x15E JUMPI DUP1 PUSH4 0x7ECEBE00 EQ PUSH2 0x62A JUMPI DUP1 PUSH4 0x8B32FA23 EQ PUSH2 0x657 JUMPI DUP1 PUSH4 0x8DA5CB5B EQ PUSH2 0x677 JUMPI PUSH1 0x0 DUP1 REVERT JUMPDEST DUP1 PUSH4 0x7A8C63B5 EQ PUSH2 0x5D6 JUMPI DUP1 PUSH4 0x7A9E5E4B EQ PUSH2 0x60A JUMPI PUSH1 0x0 DUP1 REVERT JUMPDEST DUP1 PUSH4 0x3644E515 GT PUSH2 0x232 JUMPI DUP1 PUSH4 0x4B5159DA GT PUSH2 0x1E6 JUMPI DUP1 PUSH4 0x6D780459 GT PUSH2 0x1C0 JUMPI DUP1 PUSH4 0x6D780459 EQ PUSH2 0x569 JUMPI DUP1 PUSH4 0x70A08231 EQ PUSH2 0x589 JUMPI DUP1 PUSH4 0x728B952B EQ PUSH2 0x5B6 JUMPI PUSH1 0x0 DUP1 REVERT JUMPDEST DUP1 PUSH4 0x4B5159DA EQ PUSH2 0x514 JUMPI DUP1 PUSH4 0x679AEFCE EQ PUSH2 0x534 JUMPI DUP1 PUSH4 0x67AFF484 EQ PUSH2 0x549 JUMPI PUSH1 0x0 DUP1 REVERT JUMPDEST DUP1 PUSH4 0x40C10F19 GT PUSH2 0x217 JUMPI DUP1 PUSH4 0x40C10F19 EQ PUSH2 0x4B4 JUMPI DUP1 PUSH4 0x42966C68 EQ PUSH2 0x4D4 JUMPI DUP1 PUSH4 0x4346F03E EQ PUSH2 0x4F4 JUMPI PUSH1 0x0 DUP1 REVERT JUMPDEST DUP1 PUSH4 0x3644E515 EQ PUSH2 0x48A JUMPI DUP1 PUSH4 0x37CFDACA EQ PUSH2 0x49F JUMPI PUSH1 0x0 DUP1 REVERT JUMPDEST DUP1 PUSH4 0x18160DDD GT PUSH2 0x289 JUMPI DUP1 PUSH4 0x23B872DD GT PUSH2 0x26E JUMPI DUP1 PUSH4 0x23B872DD EQ PUSH2 0x404 JUMPI DUP1 PUSH4 0x313CE567 EQ PUSH2 0x424 JUMPI DUP1 PUSH4 0x34FCF437 EQ PUSH2 0x46A JUMPI PUSH1 0x0 DUP1 REVERT JUMPDEST DUP1 PUSH4 0x18160DDD EQ PUSH2 0x3BA JUMPI DUP1 PUSH4 0x239C70AE EQ PUSH2 0x3D0 JUMPI PUSH1 0x0 DUP1 REVERT JUMPDEST DUP1 PUSH4 0x95EA7B3 GT PUSH2 0x2BA JUMPI DUP1 PUSH4 0x95EA7B3 EQ PUSH2 0x338 JUMPI DUP1 PUSH4 0xBADE8A4 EQ PUSH2 0x368 JUMPI DUP1 PUSH4 0xEA9B75B EQ PUSH2 0x398 JUMPI PUSH1 0x0 DUP1 REVERT JUMPDEST DUP1 PUSH4 0x6A36AEE EQ PUSH2 0x2D6 JUMPI DUP1 PUSH4 0x6FDDE03 EQ PUSH2 0x316 JUMPI JUMPDEST PUSH1 0x0 DUP1 REVERT JUMPDEST CALLVALUE DUP1 ISZERO PUSH2 0x2E2 JUMPI PUSH1 0x0 DUP1 REVERT JUMPDEST POP PUSH2 0x303 PUSH2 0x2F1 CALLDATASIZE PUSH1 0x4 PUSH2 0x22B4 JUMP JUMPDEST PUSH1 0x9 PUSH1 0x20 MSTORE PUSH1 0x0 SWAP1 DUP2 MSTORE PUSH1 0x40 SWAP1 KECCAK256 SLOAD DUP2 JUMP JUMPDEST PUSH1 0x40 MLOAD SWAP1 DUP2 MSTORE PUSH1 0x20 ADD JUMPDEST PUSH1 0x40 MLOAD DUP1 SWAP2 SUB SWAP1 RETURN JUMPDEST CALLVALUE DUP1 ISZERO PUSH2 0x322 JUMPI PUSH1 0x0 DUP1 REVERT JUMPDEST POP PUSH2 0x32B PUSH2 0x967 JUMP JUMPDEST PUSH1 0x40 MLOAD PUSH2 0x30D SWAP2 SWAP1 PUSH2 0x22D1 JUMP JUMPDEST CALLVALUE DUP1 ISZERO PUSH2 0x344 JUMPI PUSH1 0x0 DUP1 REVERT JUMPDEST POP PUSH2 0x358 PUSH2 0x353 CALLDATASIZE PUSH1 0x4 PUSH2 0x233D JUMP JUMPDEST PUSH2 0x9F5 JUMP JUMPDEST PUSH1 0x40 MLOAD SWAP1 ISZERO ISZERO DUP2 MSTORE PUSH1 0x20 ADD PUSH2 0x30D JUMP JUMPDEST CALLVALUE DUP1 ISZERO PUSH2 0x374 JUMPI PUSH1 0x0 DUP1 REVERT JUMPDEST POP PUSH2 0x358 PUSH2 0x383 CALLDATASIZE PUSH1 0x4 PUSH2 0x239E JUMP JUMPDEST PUSH1 0xA PUSH1 0x20 MSTORE PUSH1 0x0 SWAP1 DUP2 MSTORE PUSH1 0x40 SWAP1 KECCAK256 SLOAD PUSH1 0xFF AND DUP2 JUMP JUMPDEST CALLVALUE DUP1 ISZERO PUSH2 0x3A4 JUMPI PUSH1 0x0 DUP1 REVERT JUMPDEST POP PUSH2 0x3B8 PUSH2 0x3B3 CALLDATASIZE PUSH1 0x4 PUSH2 0x23D8 JUMP JUMPDEST PUSH2 0xA6F JUMP JUMPDEST STOP JUMPDEST CALLVALUE DUP1 ISZERO PUSH2 0x3C6 JUMPI PUSH1 0x0 DUP1 REVERT JUMPDEST POP PUSH2 0x303 PUSH1 0x2 SLOAD DUP2 JUMP JUMPDEST CALLVALUE DUP1 ISZERO PUSH2 0x3DC JUMPI PUSH1 0x0 DUP1 REVERT JUMPDEST POP PUSH2 0x303 PUSH32 0x0 DUP2 JUMP JUMPDEST CALLVALUE DUP1 ISZERO PUSH2 0x410 JUMPI PUSH1 0x0 DUP1 REVERT JUMPDEST POP PUSH2 0x358 PUSH2 0x41F CALLDATASIZE PUSH1 0x4 PUSH2 0x241F JUMP JUMPDEST PUSH2 0xBF3 JUMP JUMPDEST CALLVALUE DUP1 ISZERO PUSH2 0x430 JUMPI PUSH1 0x0 DUP1 REVERT JUMPDEST POP PUSH2 0x458 PUSH32 0x0 DUP2 JUMP JUMPDEST PUSH1 0x40 MLOAD PUSH1 0xFF SWAP1 SWAP2 AND DUP2 MSTORE PUSH1 0x20 ADD PUSH2 0x30D JUMP JUMPDEST CALLVALUE DUP1 ISZERO PUSH2 0x476 JUMPI PUSH1 0x0 DUP1 REVERT JUMPDEST POP PUSH2 0x3B8 PUSH2 0x485 CALLDATASIZE PUSH1 0x4 PUSH2 0x2460 JUMP JUMPDEST PUSH2 0xD39 JUMP JUMPDEST CALLVALUE DUP1 ISZERO PUSH2 0x496 JUMPI PUSH1 0x0 DUP1 REVERT JUMPDEST POP PUSH2 0x303 PUSH2 0xE00 JUMP JUMPDEST CALLVALUE DUP1 ISZERO PUSH2 0x4AB JUMPI PUSH1 0x0 DUP1 REVERT JUMPDEST POP PUSH2 0x303 PUSH2 0xE5B JUMP JUMPDEST CALLVALUE DUP1 ISZERO PUSH2 0x4C0 JUMPI PUSH1 0x0 DUP1 REVERT JUMPDEST POP PUSH2 0x3B8 PUSH2 0x4CF CALLDATASIZE PUSH1 0x4 PUSH2 0x233D JUMP JUMPDEST PUSH2 0xE72 JUMP JUMPDEST CALLVALUE DUP1 ISZERO PUSH2 0x4E0 JUMPI PUSH1 0x0 DUP1 REVERT JUMPDEST POP PUSH2 0x3B8 PUSH2 0x4EF CALLDATASIZE PUSH1 0x4 PUSH2 0x2460 JUMP JUMPDEST PUSH2 0xFC4 JUMP JUMPDEST CALLVALUE DUP1 ISZERO PUSH2 0x500 JUMPI PUSH1 0x0 DUP1 REVERT JUMPDEST POP PUSH2 0x303 PUSH2 0x50F CALLDATASIZE PUSH1 0x4 PUSH2 0x2460 JUMP JUMPDEST PUSH2 0x108B JUMP JUMPDEST CALLVALUE DUP1 ISZERO PUSH2 0x520 JUMPI PUSH1 0x0 DUP1 REVERT JUMPDEST POP PUSH2 0x3B8 PUSH2 0x52F CALLDATASIZE PUSH1 0x4 PUSH2 0x2479 JUMP JUMPDEST PUSH2 0x10A9 JUMP JUMPDEST CALLVALUE DUP1 ISZERO PUSH2 0x540 JUMPI PUSH1 0x0 DUP1 REVERT JUMPDEST POP PUSH1 0xC SLOAD PUSH2 0x303 JUMP JUMPDEST CALLVALUE DUP1 ISZERO PUSH2 0x555 JUMPI PUSH1 0x0 DUP1 REVERT JUMPDEST POP PUSH2 0x3B8 PUSH2 0x564 CALLDATASIZE PUSH1 0x4 PUSH2 0x24B0 JUMP JUMPDEST PUSH2 0x11D3 JUMP JUMPDEST CALLVALUE DUP1 ISZERO PUSH2 0x575 JUMPI PUSH1 0x0 DUP1 REVERT JUMPDEST POP PUSH2 0x303 PUSH2 0x584 CALLDATASIZE PUSH1 0x4 PUSH2 0x241F JUMP JUMPDEST PUSH2 0x1324 JUMP JUMPDEST CALLVALUE DUP1 ISZERO PUSH2 0x595 JUMPI PUSH1 0x0 DUP1 REVERT JUMPDEST POP PUSH2 0x303 PUSH2 0x5A4 CALLDATASIZE PUSH1 0x4 PUSH2 0x22B4 JUMP JUMPDEST PUSH1 0x3 PUSH1 0x20 MSTORE PUSH1 0x0 SWAP1 DUP2 MSTORE PUSH1 0x40 SWAP1 KECCAK256 SLOAD DUP2 JUMP JUMPDEST CALLVALUE DUP1 ISZERO PUSH2 0x5C2 JUMPI PUSH1 0x0 DUP1 REVERT JUMPDEST POP PUSH2 0x3B8 PUSH2 0x5D1 CALLDATASIZE PUSH1 0x4 PUSH2 0x24DE JUMP JUMPDEST PUSH2 0x135C JUMP JUMPDEST CALLVALUE DUP1 ISZERO PUSH2 0x5E2 JUMPI PUSH1 0x0 DUP1 REVERT JUMPDEST POP PUSH2 0x358 PUSH32 0x0 DUP2 JUMP JUMPDEST CALLVALUE DUP1 ISZERO PUSH2 0x616 JUMPI PUSH1 0x0 DUP1 REVERT JUMPDEST POP PUSH2 0x3B8 PUSH2 0x625 CALLDATASIZE PUSH1 0x4 PUSH2 0x22B4 JUMP JUMPDEST PUSH2 0x146C JUMP JUMPDEST CALLVALUE DUP1 ISZERO PUSH2 0x636 JUMPI PUSH1 0x0 DUP1 REVERT JUMPDEST POP PUSH2 0x303 PUSH2 0x645 CALLDATASIZE PUSH1 0x4 PUSH2 0x22B4 JUMP JUMPDEST PUSH1 0x5 PUSH1 0x20 MSTORE PUSH1 0x0 SWAP1 DUP2 MSTORE PUSH1 0x40 SWAP1 KECCAK256 SLOAD DUP2 JUMP JUMPDEST CALLVALUE DUP1 ISZERO PUSH2 0x663 JUMPI PUSH1 0x0 DUP1 REVERT JUMPDEST POP PUSH2 0x303 PUSH2 0x672 CALLDATASIZE PUSH1 0x4 PUSH2 0x2460 JUMP JUMPDEST PUSH2 0x15C9 JUMP JUMPDEST CALLVALUE DUP1 ISZERO PUSH2 0x683 JUMPI PUSH1 0x0 DUP1 REVERT JUMPDEST POP PUSH1 0x6 SLOAD PUSH2 0x6A4 SWAP1 PUSH20 0xFFFFFFFFFFFFFFFFFFFFFFFFFFFFFFFFFFFFFFFF AND DUP2 JUMP JUMPDEST PUSH1 0x40 MLOAD PUSH20 0xFFFFFFFFFFFFFFFFFFFFFFFFFFFFFFFFFFFFFFFF SWAP1 SWAP2 AND DUP2 MSTORE PUSH1 0x20 ADD PUSH2 0x30D JUMP JUMPDEST CALLVALUE DUP1 ISZERO PUSH2 0x6D5 JUMPI PUSH1 0x0 DUP1 REVERT JUMPDEST POP PUSH2 0x303 PUSH2 0x6E4 CALLDATASIZE PUSH1 0x4 PUSH2 0x233D JUMP JUMPDEST PUSH2 0x15DE JUMP JUMPDEST CALLVALUE DUP1 ISZERO PUSH2 0x6F5 JUMPI PUSH1 0x0 DUP1 REVERT JUMPDEST POP PUSH2 0x32B PUSH2 0x1609 JUMP JUMPDEST CALLVALUE DUP1 ISZERO PUSH2 0x70A JUMPI PUSH1 0x0 DUP1 REVERT JUMPDEST POP PUSH2 0x3B8 PUSH2 0x719 CALLDATASIZE PUSH1 0x4 PUSH2 0x233D JUMP JUMPDEST PUSH2 0x1616 JUMP JUMPDEST CALLVALUE DUP1 ISZERO PUSH2 0x72A JUMPI PUSH1 0x0 DUP1 REVERT JUMPDEST POP PUSH2 0x3B8 PUSH2 0x739 CALLDATASIZE PUSH1 0x4 PUSH2 0x2460 JUMP JUMPDEST PUSH2 0x16DA JUMP JUMPDEST PUSH2 0x303 PUSH2 0x74C CALLDATASIZE PUSH1 0x4 PUSH2 0x22B4 JUMP JUMPDEST PUSH2 0x1828 JUMP JUMPDEST CALLVALUE DUP1 ISZERO PUSH2 0x75D JUMPI PUSH1 0x0 DUP1 REVERT JUMPDEST POP PUSH2 0x358 PUSH2 0x76C CALLDATASIZE PUSH1 0x4 PUSH2 0x233D JUMP JUMPDEST PUSH2 0x18B4 JUMP JUMPDEST CALLVALUE DUP1 ISZERO PUSH2 0x77D JUMPI PUSH1 0x0 DUP1 REVERT JUMPDEST POP PUSH2 0x358 PUSH2 0x78C CALLDATASIZE PUSH1 0x4 PUSH2 0x250C JUMP JUMPDEST PUSH2 0x1939 JUMP JUMPDEST CALLVALUE DUP1 ISZERO PUSH2 0x79D JUMPI PUSH1 0x0 DUP1 REVERT JUMPDEST POP PUSH1 0x7 SLOAD PUSH2 0x6A4 SWAP1 PUSH20 0xFFFFFFFFFFFFFFFFFFFFFFFFFFFFFFFFFFFFFFFF AND DUP2 JUMP JUMPDEST CALLVALUE DUP1 ISZERO PUSH2 0x7CA JUMPI PUSH1 0x0 DUP1 REVERT JUMPDEST POP PUSH2 0x6A4 PUSH2 0x7D9 CALLDATASIZE PUSH1 0x4 PUSH2 0x22B4 JUMP JUMPDEST PUSH1 0x8 PUSH1 0x20 MSTORE PUSH1 0x0 SWAP1 DUP2 MSTORE PUSH1 0x40 SWAP1 KECCAK256 SLOAD PUSH20 0xFFFFFFFFFFFFFFFFFFFFFFFFFFFFFFFFFFFFFFFF AND DUP2 JUMP JUMPDEST CALLVALUE DUP1 ISZERO PUSH2 0x80D JUMPI PUSH1 0x0 DUP1 REVERT JUMPDEST POP PUSH1 0xF SLOAD PUSH2 0x303 JUMP JUMPDEST CALLVALUE DUP1 ISZERO PUSH2 0x822 JUMPI PUSH1 0x0 DUP1 REVERT JUMPDEST POP PUSH2 0x3B8 PUSH2 0x831 CALLDATASIZE PUSH1 0x4 PUSH2 0x2553 JUMP JUMPDEST PUSH2 0x1AD0 JUMP JUMPDEST CALLVALUE DUP1 ISZERO PUSH2 0x842 JUMPI PUSH1 0x0 DUP1 REVERT JUMPDEST POP PUSH2 0x303 PUSH2 0x851 CALLDATASIZE PUSH1 0x4 PUSH2 0x24DE JUMP JUMPDEST PUSH1 0x4 PUSH1 0x20 SWAP1 DUP2 MSTORE PUSH1 0x0 SWAP3 DUP4 MSTORE PUSH1 0x40 DUP1 DUP5 KECCAK256 SWAP1 SWAP2 MSTORE SWAP1 DUP3 MSTORE SWAP1 KECCAK256 SLOAD DUP2 JUMP JUMPDEST CALLVALUE DUP1 ISZERO PUSH2 0x87A JUMPI PUSH1 0x0 DUP1 REVERT JUMPDEST POP PUSH2 0x358 PUSH2 0x889 CALLDATASIZE PUSH1 0x4 PUSH2 0x25C1 JUMP JUMPDEST PUSH32 0xFFFFFFFF00000000000000000000000000000000000000000000000000000000 AND PUSH1 0x0 SWAP1 DUP2 MSTORE PUSH1 0xB PUSH1 0x20 MSTORE PUSH1 0x40 SWAP1 KECCAK256 SLOAD PUSH1 0xFF SWAP2 SWAP1 SWAP2 AND SHR PUSH1 0x1 AND ISZERO ISZERO SWAP1 JUMP JUMPDEST CALLVALUE DUP1 ISZERO PUSH2 0x8D5 JUMPI PUSH1 0x0 DUP1 REVERT JUMPDEST POP PUSH2 0x358 PUSH2 0x8E4 CALLDATASIZE PUSH1 0x4 PUSH2 0x25F4 JUMP JUMPDEST PUSH20 0xFFFFFFFFFFFFFFFFFFFFFFFFFFFFFFFFFFFFFFFF SWAP2 SWAP1 SWAP2 AND PUSH1 0x0 SWAP1 DUP2 MSTORE PUSH1 0x9 PUSH1 0x20 MSTORE PUSH1 0x40 SWAP1 KECCAK256 SLOAD PUSH1 0x1 PUSH1 0xFF SWAP1 SWAP3 AND SHR AND ISZERO ISZERO SWAP1 JUMP JUMPDEST CALLVALUE DUP1 ISZERO PUSH2 0x926 JUMPI PUSH1 0x0 DUP1 REVERT JUMPDEST POP PUSH2 0x303 PUSH2 0x935 CALLDATASIZE PUSH1 0x4 PUSH2 0x239E JUMP JUMPDEST PUSH1 0xB PUSH1 0x20 MSTORE PUSH1 0x0 SWAP1 DUP2 MSTORE PUSH1 0x40 SWAP1 KECCAK256 SLOAD DUP2 JUMP JUMPDEST CALLVALUE DUP1 ISZERO PUSH2 0x953 JUMPI PUSH1 0x0 DUP1 REVERT JUMPDEST POP PUSH2 0x3B8 PUSH2 0x962 CALLDATASIZE PUSH1 0x4 PUSH2 0x22B4 JUMP JUMPDEST PUSH2 0x1DEF JUMP JUMPDEST PUSH1 0x0 DUP1 SLOAD PUSH2 0x974 SWAP1 PUSH2 0x2620 JUMP JUMPDEST DUP1 PUSH1 0x1F ADD PUSH1 0x20 DUP1 SWAP2 DIV MUL PUSH1 0x20 ADD PUSH1 0x40 MLOAD SWAP1 DUP2 ADD PUSH1 0x40 MSTORE DUP1 SWAP3 SWAP2 SWAP1 DUP2 DUP2 MSTORE PUSH1 0x20 ADD DUP3 DUP1 SLOAD PUSH2 0x9A0 SWAP1 PUSH2 0x2620 JUMP JUMPDEST DUP1 ISZERO PUSH2 0x9ED JUMPI DUP1 PUSH1 0x1F LT PUSH2 0x9C2 JUMPI PUSH2 0x100 DUP1 DUP4 SLOAD DIV MUL DUP4 MSTORE SWAP2 PUSH1 0x20 ADD SWAP2 PUSH2 0x9ED JUMP JUMPDEST DUP3 ADD SWAP2 SWAP1 PUSH1 0x0 MSTORE PUSH1 0x20 PUSH1 0x0 KECCAK256 SWAP1 JUMPDEST DUP2 SLOAD DUP2 MSTORE SWAP1 PUSH1 0x1 ADD SWAP1 PUSH1 0x20 ADD DUP1 DUP4 GT PUSH2 0x9D0 JUMPI DUP3 SWAP1 SUB PUSH1 0x1F AND DUP3 ADD SWAP2 JUMPDEST POP POP POP POP POP DUP2 JUMP JUMPDEST CALLER PUSH1 0x0 DUP2 DUP2 MSTORE PUSH1 0x4 PUSH1 0x20 SWAP1 DUP2 MSTORE PUSH1 0x40 DUP1 DUP4 KECCAK256 PUSH20 0xFFFFFFFFFFFFFFFFFFFFFFFFFFFFFFFFFFFFFFFF DUP8 AND DUP1 DUP6 MSTORE SWAP3 MSTORE DUP1 DUP4 KECCAK256 DUP6 SWAP1 SSTORE MLOAD SWAP2 SWAP3 SWAP1 SWAP2 PUSH32 0x8C5BE1E5EBEC7D5BD14F71427D1E84F3DD0314C0F7B2291E5B200AC8C7C3B925 SWAP1 PUSH2 0xA5D SWAP1 DUP7 DUP2 MSTORE PUSH1 0x20 ADD SWAP1 JUMP JUMPDEST PUSH1 0x40 MLOAD DUP1 SWAP2 SUB SWAP1 LOG3 POP PUSH1 0x1 JUMPDEST SWAP3 SWAP2 POP POP JUMP JUMPDEST PUSH2 0xA9D CALLER PUSH1 0x0 CALLDATALOAD PUSH32 0xFFFFFFFF00000000000000000000000000000000000000000000000000000000 AND PUSH2 0x1EF4 JUMP JUMPDEST PUSH2 0xB08 JUMPI PUSH1 0x40 MLOAD PUSH32 0x8C379A000000000000000000000000000000000000000000000000000000000 DUP2 MSTORE PUSH1 0x20 PUSH1 0x4 DUP3 ADD MSTORE PUSH1 0xC PUSH1 0x24 DUP3 ADD MSTORE PUSH32 0x554E415554484F52495A45440000000000000000000000000000000000000000 PUSH1 0x44 DUP3 ADD MSTORE PUSH1 0x64 ADD JUMPDEST PUSH1 0x40 MLOAD DUP1 SWAP2 SUB SWAP1 REVERT JUMPDEST DUP1 ISZERO PUSH2 0xB50 JUMPI PUSH32 0xFFFFFFFF00000000000000000000000000000000000000000000000000000000 DUP3 AND PUSH1 0x0 SWAP1 DUP2 MSTORE PUSH1 0xB PUSH1 0x20 MSTORE PUSH1 0x40 SWAP1 KECCAK256 DUP1 SLOAD PUSH1 0x1 PUSH1 0xFF DUP7 AND SHL OR SWAP1 SSTORE PUSH2 0xB8F JUMP JUMPDEST PUSH32 0xFFFFFFFF00000000000000000000000000000000000000000000000000000000 DUP3 AND PUSH1 0x0 SWAP1 DUP2 MSTORE PUSH1 0xB PUSH1 0x20 MSTORE PUSH1 0x40 SWAP1 KECCAK256 DUP1 SLOAD PUSH1 0x1 PUSH1 0xFF DUP7 AND SHL NOT AND SWAP1 SSTORE JUMPDEST DUP2 PUSH28 0xFFFFFFFFFFFFFFFFFFFFFFFFFFFFFFFFFFFFFFFFFFFFFFFFFFFFFFFF NOT AND DUP4 PUSH1 0xFF AND PUSH32 0xBFE16B2C35CE23DFD1AB0E7B5D086A10060C9B52D1574E1680C881B3B3A2B151 DUP4 PUSH1 0x40 MLOAD PUSH2 0xBE6 SWAP2 ISZERO ISZERO DUP2 MSTORE PUSH1 0x20 ADD SWAP1 JUMP JUMPDEST PUSH1 0x40 MLOAD DUP1 SWAP2 SUB SWAP1 LOG3 POP POP POP JUMP JUMPDEST PUSH20 0xFFFFFFFFFFFFFFFFFFFFFFFFFFFFFFFFFFFFFFFF DUP4 AND PUSH1 0x0 SWAP1 DUP2 MSTORE PUSH1 0x4 PUSH1 0x20 SWAP1 DUP2 MSTORE PUSH1 0x40 DUP1 DUP4 KECCAK256 CALLER DUP5 MSTORE SWAP1 SWAP2 MSTORE DUP2 KECCAK256 SLOAD PUSH32 0xFFFFFFFFFFFFFFFFFFFFFFFFFFFFFFFFFFFFFFFFFFFFFFFFFFFFFFFFFFFFFFFF DUP2 EQ PUSH2 0xC87 JUMPI PUSH2 0xC55 DUP4 DUP3 PUSH2 0x26A2 JUMP JUMPDEST PUSH20 0xFFFFFFFFFFFFFFFFFFFFFFFFFFFFFFFFFFFFFFFF DUP7 AND PUSH1 0x0 SWAP1 DUP2 MSTORE PUSH1 0x4 PUSH1 0x20 SWAP1 DUP2 MSTORE PUSH1 0x40 DUP1 DUP4 KECCAK256 CALLER DUP5 MSTORE SWAP1 SWAP2 MSTORE SWAP1 KECCAK256 SSTORE JUMPDEST PUSH20 0xFFFFFFFFFFFFFFFFFFFFFFFFFFFFFFFFFFFFFFFF DUP6 AND PUSH1 0x0 SWAP1 DUP2 MSTORE PUSH1 0x3 PUSH1 0x20 MSTORE PUSH1 0x40 DUP2 KECCAK256 DUP1 SLOAD DUP6 SWAP3 SWAP1 PUSH2 0xCBC SWAP1 DUP5 SWAP1 PUSH2 0x26A2 JUMP JUMPDEST SWAP1 SWAP2 SSTORE POP POP PUSH20 0xFFFFFFFFFFFFFFFFFFFFFFFFFFFFFFFFFFFFFFFF DUP1 DUP6 AND PUSH1 0x0 DUP2 DUP2 MSTORE PUSH1 0x3 PUSH1 0x20 MSTORE PUSH1 0x40 SWAP1 DUP2 SWAP1 KECCAK256 DUP1 SLOAD DUP8 ADD SWAP1 SSTORE MLOAD SWAP1 SWAP2 DUP8 AND SWAP1 PUSH32 0xDDF252AD1BE2C89B69C2B068FC378DAA952BA7F163C4A11628F55A4DF523B3EF SWAP1 PUSH2 0xD24 SWAP1 DUP8 DUP2 MSTORE PUSH1 0x20 ADD SWAP1 JUMP JUMPDEST PUSH1 0x40 MLOAD DUP1 SWAP2 SUB SWAP1 LOG3 PUSH1 0x1 SWAP2 POP POP JUMPDEST SWAP4 SWAP3 POP POP POP JUMP JUMPDEST PUSH32 0x0 ISZERO PUSH2 0xDF3 JUMPI PUSH2 0xD8D CALLER PUSH1 0x0 CALLDATALOAD PUSH32 0xFFFFFFFF00000000000000000000000000000000000000000000000000000000 AND PUSH2 0x1EF4 JUMP JUMPDEST PUSH2 0xDF3 JUMPI PUSH1 0x40 MLOAD PUSH32 0x8C379A000000000000000000000000000000000000000000000000000000000 DUP2 MSTORE PUSH1 0x20 PUSH1 0x4 DUP3 ADD MSTORE PUSH1 0x1D PUSH1 0x24 DUP3 ADD MSTORE PUSH32 0x45524332304D696E7461626C653A206E6F7420617574686F72697A6564000000 PUSH1 0x44 DUP3 ADD MSTORE PUSH1 0x64 ADD PUSH2 0xAFF JUMP JUMPDEST PUSH2 0xDFB PUSH2 0x2005 JUMP JUMPDEST PUSH1 0xC SSTORE JUMP JUMPDEST PUSH1 0x0 PUSH32 0x0 CHAINID EQ PUSH2 0xE36 JUMPI PUSH2 0xE31 PUSH2 0x2036 JUMP JUMPDEST SWAP1 POP SWAP1 JUMP JUMPDEST POP PUSH32 0x0 SWAP1 JUMP JUMPDEST PUSH1 0x0 PUSH2 0xE65 PUSH2 0x20D0 JUMP JUMPDEST PUSH1 0xE SLOAD PUSH2 0xE31 SWAP2 SWAP1 PUSH2 0x26B5 JUMP JUMPDEST PUSH32 0x0 ISZERO PUSH2 0xF2C JUMPI PUSH2 0xEC6 CALLER PUSH1 0x0 CALLDATALOAD PUSH32 0xFFFFFFFF00000000000000000000000000000000000000000000000000000000 AND PUSH2 0x1EF4 JUMP JUMPDEST PUSH2 0xF2C JUMPI PUSH1 0x40 MLOAD PUSH32 0x8C379A000000000000000000000000000000000000000000000000000000000 DUP2 MSTORE PUSH1 0x20 PUSH1 0x4 DUP3 ADD MSTORE PUSH1 0x1D PUSH1 0x24 DUP3 ADD MSTORE PUSH32 0x45524332304D696E7461626C653A206E6F7420617574686F72697A6564000000 PUSH1 0x44 DUP3 ADD MSTORE PUSH1 0x64 ADD PUSH2 0xAFF JUMP JUMPDEST PUSH32 0x0 DUP2 GT ISZERO PUSH2 0xFB6 JUMPI PUSH1 0x40 MLOAD PUSH32 0x8C379A000000000000000000000000000000000000000000000000000000000 DUP2 MSTORE PUSH1 0x20 PUSH1 0x4 DUP3 ADD DUP2 SWAP1 MSTORE PUSH1 0x24 DUP3 ADD MSTORE PUSH32 0x4D6F636B455243343632363A20496E76616C6964206D696E7420616D6F756E74 PUSH1 0x44 DUP3 ADD MSTORE PUSH1 0x64 ADD PUSH2 0xAFF JUMP JUMPDEST PUSH2 0xFC0 DUP3 DUP3 PUSH2 0x2125 JUMP JUMPDEST POP POP JUMP JUMPDEST PUSH32 0x0 ISZERO PUSH2 0x107E JUMPI PUSH2 0x1018 CALLER PUSH1 0x0 CALLDATALOAD PUSH32 0xFFFFFFFF00000000000000000000000000000000000000000000000000000000 AND PUSH2 0x1EF4 JUMP JUMPDEST PUSH2 0x107E JUMPI PUSH1 0x40 MLOAD PUSH32 0x8C379A000000000000000000000000000000000000000000000000000000000 DUP2 MSTORE PUSH1 0x20 PUSH1 0x4 DUP3 ADD MSTORE PUSH1 0x1D PUSH1 0x24 DUP3 ADD MSTORE PUSH32 0x45524332304D696E7461626C653A206E6F7420617574686F72697A6564000000 PUSH1 0x44 DUP3 ADD MSTORE PUSH1 0x64 ADD PUSH2 0xAFF JUMP JUMPDEST PUSH2 0x1088 CALLER DUP3 PUSH2 0x219E JUMP JUMPDEST POP JUMP JUMPDEST PUSH1 0x0 PUSH2 0xA69 PUSH2 0x1099 PUSH1 0xF SLOAD SWAP1 JUMP JUMPDEST PUSH2 0x10A1 PUSH2 0xE5B JUMP JUMPDEST DUP5 SWAP2 SWAP1 PUSH2 0x222C JUMP JUMPDEST PUSH2 0x10D7 CALLER PUSH1 0x0 CALLDATALOAD PUSH32 0xFFFFFFFF00000000000000000000000000000000000000000000000000000000 AND PUSH2 0x1EF4 JUMP JUMPDEST PUSH2 0x113D JUMPI PUSH1 0x40 MLOAD PUSH32 0x8C379A000000000000000000000000000000000000000000000000000000000 DUP2 MSTORE PUSH1 0x20 PUSH1 0x4 DUP3 ADD MSTORE PUSH1 0xC PUSH1 0x24 DUP3 ADD MSTORE PUSH32 0x554E415554484F52495A45440000000000000000000000000000000000000000 PUSH1 0x44 DUP3 ADD MSTORE PUSH1 0x64 ADD PUSH2 0xAFF JUMP JUMPDEST PUSH32 0xFFFFFFFF00000000000000000000000000000000000000000000000000000000 DUP3 AND PUSH1 0x0 DUP2 DUP2 MSTORE PUSH1 0xA PUSH1 0x20 SWAP1 DUP2 MSTORE PUSH1 0x40 SWAP2 DUP3 SWAP1 KECCAK256 DUP1 SLOAD PUSH32 0xFFFFFFFFFFFFFFFFFFFFFFFFFFFFFFFFFFFFFFFFFFFFFFFFFFFFFFFFFFFFFF00 AND DUP6 ISZERO ISZERO SWAP1 DUP2 OR SWAP1 SWAP2 SSTORE SWAP2 MLOAD SWAP2 DUP3 MSTORE PUSH32 0x36D28126BEF21A4F3765D7FCB7C45CEAD463AE4C41094EF3B771EDE598544103 SWAP2 ADD PUSH1 0x40 MLOAD DUP1 SWAP2 SUB SWAP1 LOG2 POP POP JUMP JUMPDEST PUSH2 0x1201 CALLER PUSH1 0x0 CALLDATALOAD PUSH32 0xFFFFFFFF00000000000000000000000000000000000000000000000000000000 AND PUSH2 0x1EF4 JUMP JUMPDEST PUSH2 0x1267 JUMPI PUSH1 0x40 MLOAD PUSH32 0x8C379A000000000000000000000000000000000000000000000000000000000 DUP2 MSTORE PUSH1 0x20 PUSH1 0x4 DUP3 ADD MSTORE PUSH1 0xC PUSH1 0x24 DUP3 ADD MSTORE PUSH32 0x554E415554484F52495A45440000000000000000000000000000000000000000 PUSH1 0x44 DUP3 ADD MSTORE PUSH1 0x64 ADD PUSH2 0xAFF JUMP JUMPDEST DUP1 ISZERO PUSH2 0x12A3 JUMPI PUSH20 0xFFFFFFFFFFFFFFFFFFFFFFFFFFFFFFFFFFFFFFFF DUP4 AND PUSH1 0x0 SWAP1 DUP2 MSTORE PUSH1 0x9 PUSH1 0x20 MSTORE PUSH1 0x40 SWAP1 KECCAK256 DUP1 SLOAD PUSH1 0x1 PUSH1 0xFF DUP6 AND SHL OR SWAP1 SSTORE PUSH2 0x12D6 JUMP JUMPDEST PUSH20 0xFFFFFFFFFFFFFFFFFFFFFFFFFFFFFFFFFFFFFFFF DUP4 AND PUSH1 0x0 SWAP1 DUP2 MSTORE PUSH1 0x9 PUSH1 0x20 MSTORE PUSH1 0x40 SWAP1 KECCAK256 DUP1 SLOAD PUSH1 0x1 PUSH1 0xFF DUP6 AND SHL NOT AND SWAP1 SSTORE JUMPDEST DUP2 PUSH1 0xFF AND DUP4 PUSH20 0xFFFFFFFFFFFFFFFFFFFFFFFFFFFFFFFFFFFFFFFF AND PUSH32 0x4C9BDD0C8E073EB5EDA2250B18D8E5121FF27B62064FBEEEED4869BB99BC5BF2 DUP4 PUSH1 0x40 MLOAD PUSH2 0xBE6 SWAP2 ISZERO ISZERO DUP2 MSTORE PUSH1 0x20 ADD SWAP1 JUMP JUMPDEST PUSH1 0x0 PUSH2 0x132E PUSH2 0x2005 JUMP JUMPDEST PUSH1 0x0 PUSH2 0x1346 PUSH2 0x133B PUSH2 0xE5B JUMP JUMPDEST PUSH1 0xF SLOAD DUP6 SWAP2 SWAP1 PUSH2 0x222C JUMP JUMPDEST SWAP1 POP PUSH2 0x1353 DUP6 DUP6 DUP4 PUSH2 0xBF3 JUMP JUMPDEST POP SWAP5 SWAP4 POP POP POP POP JUMP JUMPDEST PUSH2 0x138A CALLER PUSH1 0x0 CALLDATALOAD PUSH32 0xFFFFFFFF00000000000000000000000000000000000000000000000000000000 AND PUSH2 0x1EF4 JUMP JUMPDEST PUSH2 0x13F0 JUMPI PUSH1 0x40 MLOAD PUSH32 0x8C379A000000000000000000000000000000000000000000000000000000000 DUP2 MSTORE PUSH1 0x20 PUSH1 0x4 DUP3 ADD MSTORE PUSH1 0xC PUSH1 0x24 DUP3 ADD MSTORE PUSH32 0x554E415554484F52495A45440000000000000000000000000000000000000000 PUSH1 0x44 DUP3 ADD MSTORE PUSH1 0x64 ADD PUSH2 0xAFF JUMP JUMPDEST PUSH20 0xFFFFFFFFFFFFFFFFFFFFFFFFFFFFFFFFFFFFFFFF DUP3 DUP2 AND PUSH1 0x0 DUP2 DUP2 MSTORE PUSH1 0x8 PUSH1 0x20 MSTORE PUSH1 0x40 DUP1 DUP3 KECCAK256 DUP1 SLOAD PUSH32 0xFFFFFFFFFFFFFFFFFFFFFFFF0000000000000000000000000000000000000000 AND SWAP5 DUP7 AND SWAP5 DUP6 OR SWAP1 SSTORE MLOAD PUSH32 0xA4908E11A5F895B13D51526C331AC93CDD30E59772361C5D07874EB36BFF2065 SWAP2 SWAP1 LOG3 POP POP JUMP JUMPDEST PUSH1 0x6 SLOAD PUSH20 0xFFFFFFFFFFFFFFFFFFFFFFFFFFFFFFFFFFFFFFFF AND CALLER EQ DUP1 PUSH2 0x154F JUMPI POP PUSH1 0x7 SLOAD PUSH1 0x40 MLOAD PUSH32 0xB700961300000000000000000000000000000000000000000000000000000000 DUP2 MSTORE CALLER PUSH1 0x4 DUP3 ADD MSTORE ADDRESS PUSH1 0x24 DUP3 ADD MSTORE PUSH1 0x0 CALLDATALOAD PUSH32 0xFFFFFFFF00000000000000000000000000000000000000000000000000000000 AND PUSH1 0x44 DUP3 ADD MSTORE PUSH20 0xFFFFFFFFFFFFFFFFFFFFFFFFFFFFFFFFFFFFFFFF SWAP1 SWAP2 AND SWAP1 PUSH4 0xB7009613 SWAP1 PUSH1 0x64 ADD PUSH1 0x20 PUSH1 0x40 MLOAD DUP1 DUP4 SUB DUP2 DUP7 GAS STATICCALL ISZERO DUP1 ISZERO PUSH2 0x152B JUMPI RETURNDATASIZE PUSH1 0x0 DUP1 RETURNDATACOPY RETURNDATASIZE PUSH1 0x0 REVERT JUMPDEST POP POP POP POP PUSH1 0x40 MLOAD RETURNDATASIZE PUSH1 0x1F NOT PUSH1 0x1F DUP3 ADD AND DUP3 ADD DUP1 PUSH1 0x40 MSTORE POP DUP2 ADD SWAP1 PUSH2 0x154F SWAP2 SWAP1 PUSH2 0x26C8 JUMP JUMPDEST PUSH2 0x1558 JUMPI PUSH1 0x0 DUP1 REVERT JUMPDEST PUSH1 0x7 DUP1 SLOAD PUSH32 0xFFFFFFFFFFFFFFFFFFFFFFFF0000000000000000000000000000000000000000 AND PUSH20 0xFFFFFFFFFFFFFFFFFFFFFFFFFFFFFFFFFFFFFFFF DUP4 AND SWAP1 DUP2 OR SWAP1 SWAP2 SSTORE PUSH1 0x40 MLOAD CALLER SWAP1 PUSH32 0xA3396FD7F6E0A21B50E5089D2DA70D5AC0A3BBBD1F617A93F134B76389980198 SWAP1 PUSH1 0x0 SWAP1 LOG3 POP JUMP JUMPDEST PUSH1 0x0 PUSH2 0xA69 PUSH2 0x15D6 PUSH2 0xE5B JUMP JUMPDEST PUSH1 0xF SLOAD PUSH2 0x10A1 JUMP JUMPDEST PUSH1 0x0 PUSH2 0x15E8 PUSH2 0x2005 JUMP JUMPDEST PUSH1 0x0 PUSH2 0x15F5 PUSH2 0x133B PUSH2 0xE5B JUMP JUMPDEST SWAP1 POP PUSH2 0x1601 DUP5 DUP3 PUSH2 0x18B4 JUMP JUMPDEST POP SWAP4 SWAP3 POP POP POP JUMP JUMPDEST PUSH1 0x1 DUP1 SLOAD PUSH2 0x974 SWAP1 PUSH2 0x2620 JUMP JUMPDEST PUSH32 0x0 ISZERO PUSH2 0x16D0 JUMPI PUSH2 0x166A CALLER PUSH1 0x0 CALLDATALOAD PUSH32 0xFFFFFFFF00000000000000000000000000000000000000000000000000000000 AND PUSH2 0x1EF4 JUMP JUMPDEST PUSH2 0x16D0 JUMPI PUSH1 0x40 MLOAD PUSH32 0x8C379A000000000000000000000000000000000000000000000000000000000 DUP2 MSTORE PUSH1 0x20 PUSH1 0x4 DUP3 ADD MSTORE PUSH1 0x1D PUSH1 0x24 DUP3 ADD MSTORE PUSH32 0x45524332304D696E7461626C653A206E6F7420617574686F72697A6564000000 PUSH1 0x44 DUP3 ADD MSTORE PUSH1 0x64 ADD PUSH2 0xAFF JUMP JUMPDEST PUSH2 0xFC0 DUP3 DUP3 PUSH2 0x219E JUMP JUMPDEST PUSH32 0x0 ISZERO PUSH2 0x1794 JUMPI PUSH2 0x172E CALLER PUSH1 0x0 CALLDATALOAD PUSH32 0xFFFFFFFF00000000000000000000000000000000000000000000000000000000 AND PUSH2 0x1EF4 JUMP JUMPDEST PUSH2 0x1794 JUMPI PUSH1 0x40 MLOAD PUSH32 0x8C379A000000000000000000000000000000000000000000000000000000000 DUP2 MSTORE PUSH1 0x20 PUSH1 0x4 DUP3 ADD MSTORE PUSH1 0x1D PUSH1 0x24 DUP3 ADD MSTORE PUSH32 0x45524332304D696E7461626C653A206E6F7420617574686F72697A6564000000 PUSH1 0x44 DUP3 ADD MSTORE PUSH1 0x64 ADD PUSH2 0xAFF JUMP JUMPDEST PUSH32 0x0 DUP2 GT ISZERO PUSH2 0x181E JUMPI PUSH1 0x40 MLOAD PUSH32 0x8C379A000000000000000000000000000000000000000000000000000000000 DUP2 MSTORE PUSH1 0x20 PUSH1 0x4 DUP3 ADD DUP2 SWAP1 MSTORE PUSH1 0x24 DUP3 ADD MSTORE PUSH32 0x4D6F636B455243343632363A20496E76616C6964206D696E7420616D6F756E74 PUSH1 0x44 DUP3 ADD MSTORE PUSH1 0x64 ADD PUSH2 0xAFF JUMP JUMPDEST PUSH2 0x1088 CALLER DUP3 PUSH2 0x2125 JUMP JUMPDEST PUSH1 0x0 PUSH2 0x1832 PUSH2 0x2005 JUMP JUMPDEST PUSH1 0xF SLOAD PUSH1 0x0 SUB PUSH2 0x1859 JUMPI CALLVALUE PUSH1 0xF DUP2 SWAP1 SSTORE PUSH1 0xE DUP2 SWAP1 SSTORE PUSH2 0x1852 SWAP1 CALLER SWAP1 PUSH2 0x2125 JUMP JUMPDEST POP CALLVALUE SWAP2 SWAP1 POP JUMP JUMPDEST PUSH1 0x0 PUSH2 0x1877 PUSH2 0x1867 PUSH1 0xF SLOAD SWAP1 JUMP JUMPDEST PUSH2 0x186F PUSH2 0xE5B JUMP JUMPDEST CALLVALUE SWAP2 SWAP1 PUSH2 0x222C JUMP JUMPDEST SWAP1 POP CALLVALUE PUSH1 0xE PUSH1 0x0 DUP3 DUP3 SLOAD PUSH2 0x188B SWAP2 SWAP1 PUSH2 0x26B5 JUMP JUMPDEST SWAP3 POP POP DUP2 SWAP1 SSTORE POP DUP1 PUSH1 0xF PUSH1 0x0 DUP3 DUP3 SLOAD PUSH2 0x18A4 SWAP2 SWAP1 PUSH2 0x26B5 JUMP JUMPDEST SWAP1 SWAP2 SSTORE POP PUSH2 0xA69 SWAP1 POP CALLER CALLVALUE PUSH2 0x2125 JUMP JUMPDEST CALLER PUSH1 0x0 SWAP1 DUP2 MSTORE PUSH1 0x3 PUSH1 0x20 MSTORE PUSH1 0x40 DUP2 KECCAK256 DUP1 SLOAD DUP4 SWAP2 SWAP1 DUP4 SWAP1 PUSH2 0x18D5 SWAP1 DUP5 SWAP1 PUSH2 0x26A2 JUMP JUMPDEST SWAP1 SWAP2 SSTORE POP POP PUSH20 0xFFFFFFFFFFFFFFFFFFFFFFFFFFFFFFFFFFFFFFFF DUP4 AND PUSH1 0x0 DUP2 DUP2 MSTORE PUSH1 0x3 PUSH1 0x20 MSTORE PUSH1 0x40 SWAP1 DUP2 SWAP1 KECCAK256 DUP1 SLOAD DUP6 ADD SWAP1 SSTORE MLOAD CALLER SWAP1 PUSH32 0xDDF252AD1BE2C89B69C2B068FC378DAA952BA7F163C4A11628F55A4DF523B3EF SWAP1 PUSH2 0xA5D SWAP1 DUP7 DUP2 MSTORE PUSH1 0x20 ADD SWAP1 JUMP JUMPDEST PUSH20 0xFFFFFFFFFFFFFFFFFFFFFFFFFFFFFFFFFFFFFFFF DUP1 DUP4 AND PUSH1 0x0 SWAP1 DUP2 MSTORE PUSH1 0x8 PUSH1 0x20 MSTORE PUSH1 0x40 DUP2 KECCAK256 SLOAD SWAP1 SWAP2 AND DUP1 ISZERO PUSH2 0x1A31 JUMPI PUSH1 0x40 MLOAD PUSH32 0xB700961300000000000000000000000000000000000000000000000000000000 DUP2 MSTORE PUSH20 0xFFFFFFFFFFFFFFFFFFFFFFFFFFFFFFFFFFFFFFFF DUP7 DUP2 AND PUSH1 0x4 DUP4 ADD MSTORE DUP6 DUP2 AND PUSH1 0x24 DUP4 ADD MSTORE PUSH32 0xFFFFFFFF00000000000000000000000000000000000000000000000000000000 DUP6 AND PUSH1 0x44 DUP4 ADD MSTORE DUP3 AND SWAP1 PUSH4 0xB7009613 SWAP1 PUSH1 0x64 ADD PUSH1 0x20 PUSH1 0x40 MLOAD DUP1 DUP4 SUB DUP2 DUP7 GAS STATICCALL ISZERO DUP1 ISZERO PUSH2 0x1A05 JUMPI RETURNDATASIZE PUSH1 0x0 DUP1 RETURNDATACOPY RETURNDATASIZE PUSH1 0x0 REVERT JUMPDEST POP POP POP POP PUSH1 0x40 MLOAD RETURNDATASIZE PUSH1 0x1F NOT PUSH1 0x1F DUP3 ADD AND DUP3 ADD DUP1 PUSH1 0x40 MSTORE POP DUP2 ADD SWAP1 PUSH2 0x1A29 SWAP2 SWAP1 PUSH2 0x26C8 JUMP JUMPDEST SWAP2 POP POP PUSH2 0xD32 JUMP JUMPDEST PUSH32 0xFFFFFFFF00000000000000000000000000000000000000000000000000000000 DUP4 AND PUSH1 0x0 SWAP1 DUP2 MSTORE PUSH1 0xA PUSH1 0x20 MSTORE PUSH1 0x40 SWAP1 KECCAK256 SLOAD PUSH1 0xFF AND DUP1 PUSH2 0x1AC7 JUMPI POP PUSH32 0xFFFFFFFF00000000000000000000000000000000000000000000000000000000 DUP4 AND PUSH1 0x0 SWAP1 DUP2 MSTORE PUSH1 0xB PUSH1 0x20 SWAP1 DUP2 MSTORE PUSH1 0x40 DUP1 DUP4 KECCAK256 SLOAD PUSH20 0xFFFFFFFFFFFFFFFFFFFFFFFFFFFFFFFFFFFFFFFF DUP10 AND DUP5 MSTORE PUSH1 0x9 SWAP1 SWAP3 MSTORE SWAP1 SWAP2 KECCAK256 SLOAD AND ISZERO ISZERO JUMPDEST SWAP6 SWAP5 POP POP POP POP POP JUMP JUMPDEST TIMESTAMP DUP5 LT ISZERO PUSH2 0x1B3A JUMPI PUSH1 0x40 MLOAD PUSH32 0x8C379A000000000000000000000000000000000000000000000000000000000 DUP2 MSTORE PUSH1 0x20 PUSH1 0x4 DUP3 ADD MSTORE PUSH1 0x17 PUSH1 0x24 DUP3 ADD MSTORE PUSH32 0x5045524D49545F444541444C494E455F45585049524544000000000000000000 PUSH1 0x44 DUP3 ADD MSTORE PUSH1 0x64 ADD PUSH2 0xAFF JUMP JUMPDEST PUSH1 0x0 PUSH1 0x1 PUSH2 0x1B46 PUSH2 0xE00 JUMP JUMPDEST PUSH20 0xFFFFFFFFFFFFFFFFFFFFFFFFFFFFFFFFFFFFFFFF DUP11 DUP2 AND PUSH1 0x0 DUP2 DUP2 MSTORE PUSH1 0x5 PUSH1 0x20 SWAP1 DUP2 MSTORE PUSH1 0x40 SWAP2 DUP3 SWAP1 KECCAK256 DUP1 SLOAD PUSH1 0x1 DUP2 ADD SWAP1 SWAP2 SSTORE DUP3 MLOAD PUSH32 0x6E71EDAE12B1B97F4D1F60370FEF10105FA2FAAE0126114A169C64845D6126C9 DUP2 DUP5 ADD MSTORE DUP1 DUP5 ADD SWAP5 SWAP1 SWAP5 MSTORE SWAP4 DUP14 AND PUSH1 0x60 DUP5 ADD MSTORE PUSH1 0x80 DUP4 ADD DUP13 SWAP1 MSTORE PUSH1 0xA0 DUP4 ADD SWAP4 SWAP1 SWAP4 MSTORE PUSH1 0xC0 DUP1 DUP4 ADD DUP12 SWAP1 MSTORE DUP2 MLOAD DUP1 DUP5 SUB SWAP1 SWAP2 ADD DUP2 MSTORE PUSH1 0xE0 DUP4 ADD SWAP1 SWAP2 MSTORE DUP1 MLOAD SWAP3 ADD SWAP2 SWAP1 SWAP2 KECCAK256 PUSH32 0x1901000000000000000000000000000000000000000000000000000000000000 PUSH2 0x100 DUP4 ADD MSTORE PUSH2 0x102 DUP3 ADD SWAP3 SWAP1 SWAP3 MSTORE PUSH2 0x122 DUP2 ADD SWAP2 SWAP1 SWAP2 MSTORE PUSH2 0x142 ADD PUSH1 0x40 DUP1 MLOAD PUSH32 0xFFFFFFFFFFFFFFFFFFFFFFFFFFFFFFFFFFFFFFFFFFFFFFFFFFFFFFFFFFFFFFE0 DUP2 DUP5 SUB ADD DUP2 MSTORE DUP3 DUP3 MSTORE DUP1 MLOAD PUSH1 0x20 SWAP2 DUP3 ADD KECCAK256 PUSH1 0x0 DUP5 MSTORE SWAP1 DUP4 ADD DUP1 DUP4 MSTORE MSTORE PUSH1 0xFF DUP8 AND SWAP1 DUP3 ADD MSTORE PUSH1 0x60 DUP2 ADD DUP6 SWAP1 MSTORE PUSH1 0x80 DUP2 ADD DUP5 SWAP1 MSTORE PUSH1 0xA0 ADD PUSH1 0x20 PUSH1 0x40 MLOAD PUSH1 0x20 DUP2 SUB SWAP1 DUP1 DUP5 SUB SWAP1 DUP6 GAS STATICCALL ISZERO DUP1 ISZERO PUSH2 0x1C98 JUMPI RETURNDATASIZE PUSH1 0x0 DUP1 RETURNDATACOPY RETURNDATASIZE PUSH1 0x0 REVERT JUMPDEST POP POP PUSH1 0x40 MLOAD PUSH32 0xFFFFFFFFFFFFFFFFFFFFFFFFFFFFFFFFFFFFFFFFFFFFFFFFFFFFFFFFFFFFFFE0 ADD MLOAD SWAP2 POP POP PUSH20 0xFFFFFFFFFFFFFFFFFFFFFFFFFFFFFFFFFFFFFFFF DUP2 AND ISZERO DUP1 ISZERO SWAP1 PUSH2 0x1D13 JUMPI POP DUP8 PUSH20 0xFFFFFFFFFFFFFFFFFFFFFFFFFFFFFFFFFFFFFFFF AND DUP2 PUSH20 0xFFFFFFFFFFFFFFFFFFFFFFFFFFFFFFFFFFFFFFFF AND EQ JUMPDEST PUSH2 0x1D79 JUMPI PUSH1 0x40 MLOAD PUSH32 0x8C379A000000000000000000000000000000000000000000000000000000000 DUP2 MSTORE PUSH1 0x20 PUSH1 0x4 DUP3 ADD MSTORE PUSH1 0xE PUSH1 0x24 DUP3 ADD MSTORE PUSH32 0x494E56414C49445F5349474E4552000000000000000000000000000000000000 PUSH1 0x44 DUP3 ADD MSTORE PUSH1 0x64 ADD PUSH2 0xAFF JUMP JUMPDEST PUSH20 0xFFFFFFFFFFFFFFFFFFFFFFFFFFFFFFFFFFFFFFFF SWAP1 DUP2 AND PUSH1 0x0 SWAP1 DUP2 MSTORE PUSH1 0x4 PUSH1 0x20 SWAP1 DUP2 MSTORE PUSH1 0x40 DUP1 DUP4 KECCAK256 DUP11 DUP6 AND DUP1 DUP6 MSTORE SWAP1 DUP4 MSTORE SWAP3 DUP2 SWAP1 KECCAK256 DUP10 SWAP1 SSTORE MLOAD DUP9 DUP2 MSTORE SWAP2 SWAP3 DUP11 AND SWAP2 PUSH32 0x8C5BE1E5EBEC7D5BD14F71427D1E84F3DD0314C0F7B2291E5B200AC8C7C3B925 SWAP2 ADD PUSH1 0x40 MLOAD DUP1 SWAP2 SUB SWAP1 LOG3 POP POP POP POP POP POP POP JUMP JUMPDEST PUSH2 0x1E1D CALLER PUSH1 0x0 CALLDATALOAD PUSH32 0xFFFFFFFF00000000000000000000000000000000000000000000000000000000 AND PUSH2 0x1EF4 JUMP JUMPDEST PUSH2 0x1E83 JUMPI PUSH1 0x40 MLOAD PUSH32 0x8C379A000000000000000000000000000000000000000000000000000000000 DUP2 MSTORE PUSH1 0x20 PUSH1 0x4 DUP3 ADD MSTORE PUSH1 0xC PUSH1 0x24 DUP3 ADD MSTORE PUSH32 0x554E415554484F52495A45440000000000000000000000000000000000000000 PUSH1 0x44 DUP3 ADD MSTORE PUSH1 0x64 ADD PUSH2 0xAFF JUMP JUMPDEST PUSH1 0x6 DUP1 SLOAD PUSH32 0xFFFFFFFFFFFFFFFFFFFFFFFF0000000000000000000000000000000000000000 AND PUSH20 0xFFFFFFFFFFFFFFFFFFFFFFFFFFFFFFFFFFFFFFFF DUP4 AND SWAP1 DUP2 OR SWAP1 SWAP2 SSTORE PUSH1 0x40 MLOAD CALLER SWAP1 PUSH32 0x8BE0079C531659141344CD1FD0A4F28419497F9722A3DAAFE3B4186F6B6457E0 SWAP1 PUSH1 0x0 SWAP1 LOG3 POP JUMP JUMPDEST PUSH1 0x7 SLOAD PUSH1 0x0 SWAP1 PUSH20 0xFFFFFFFFFFFFFFFFFFFFFFFFFFFFFFFFFFFFFFFF AND DUP1 ISZERO DUP1 ISZERO SWAP1 PUSH2 0x1FD8 JUMPI POP PUSH1 0x40 MLOAD PUSH32 0xB700961300000000000000000000000000000000000000000000000000000000 DUP2 MSTORE PUSH20 0xFFFFFFFFFFFFFFFFFFFFFFFFFFFFFFFFFFFFFFFF DUP6 DUP2 AND PUSH1 0x4 DUP4 ADD MSTORE ADDRESS PUSH1 0x24 DUP4 ADD MSTORE PUSH32 0xFFFFFFFF00000000000000000000000000000000000000000000000000000000 DUP6 AND PUSH1 0x44 DUP4 ADD MSTORE DUP3 AND SWAP1 PUSH4 0xB7009613 SWAP1 PUSH1 0x64 ADD PUSH1 0x20 PUSH1 0x40 MLOAD DUP1 DUP4 SUB DUP2 DUP7 GAS STATICCALL ISZERO DUP1 ISZERO PUSH2 0x1FB4 JUMPI RETURNDATASIZE PUSH1 0x0 DUP1 RETURNDATACOPY RETURNDATASIZE PUSH1 0x0 REVERT JUMPDEST POP POP POP POP PUSH1 0x40 MLOAD RETURNDATASIZE PUSH1 0x1F NOT PUSH1 0x1F DUP3 ADD AND DUP3 ADD DUP1 PUSH1 0x40 MSTORE POP DUP2 ADD SWAP1 PUSH2 0x1FD8 SWAP2 SWAP1 PUSH2 0x26C8 JUMP JUMPDEST DUP1 PUSH2 0x1FFD JUMPI POP PUSH1 0x6 SLOAD PUSH20 0xFFFFFFFFFFFFFFFFFFFFFFFFFFFFFFFFFFFFFFFF DUP6 DUP2 AND SWAP2 AND EQ JUMPDEST SWAP5 SWAP4 POP POP POP POP JUMP JUMPDEST PUSH1 0x0 PUSH2 0x200F PUSH2 0x20D0 JUMP JUMPDEST SWAP1 POP DUP1 ISZERO PUSH2 0x202F JUMPI DUP1 PUSH1 0xE PUSH1 0x0 DUP3 DUP3 SLOAD PUSH2 0x2029 SWAP2 SWAP1 PUSH2 0x26B5 JUMP JUMPDEST SWAP1 SWAP2 SSTORE POP POP JUMPDEST POP TIMESTAMP PUSH1 0xD SSTORE JUMP JUMPDEST PUSH1 0x0 PUSH32 0x8B73C3C69BB8FE3D512ECC4CF759CC79239F7B179B0FFACAA9A75D522B39400F PUSH1 0x0 PUSH1 0x40 MLOAD PUSH2 0x2068 SWAP2 SWAP1 PUSH2 0x26E5 JUMP JUMPDEST PUSH1 0x40 DUP1 MLOAD SWAP2 DUP3 SWAP1 SUB DUP3 KECCAK256 PUSH1 0x20 DUP4 ADD SWAP4 SWAP1 SWAP4 MSTORE DUP2 ADD SWAP2 SWAP1 SWAP2 MSTORE PUSH32 0xC89EFDAA54C0F20C7ADF612882DF0950F5A951637E0307CDCB4C672F298B8BC6 PUSH1 0x60 DUP3 ADD MSTORE CHAINID PUSH1 0x80 DUP3 ADD MSTORE ADDRESS PUSH1 0xA0 DUP3 ADD MSTORE PUSH1 0xC0 ADD PUSH1 0x40 MLOAD PUSH1 0x20 DUP2 DUP4 SUB SUB DUP2 MSTORE SWAP1 PUSH1 0x40 MSTORE DUP1 MLOAD SWAP1 PUSH1 0x20 ADD KECCAK256 SWAP1 POP SWAP1 JUMP JUMPDEST PUSH1 0x0 PUSH1 0xC SLOAD PUSH1 0x0 SUB PUSH2 0x20E2 JUMPI POP PUSH1 0x0 SWAP1 JUMP JUMPDEST PUSH1 0x0 PUSH2 0x2100 PUSH4 0x1E13380 PUSH1 0xD SLOAD TIMESTAMP PUSH2 0x20FA SWAP2 SWAP1 PUSH2 0x26A2 JUMP JUMPDEST SWAP1 PUSH2 0x2268 JUMP JUMPDEST SWAP1 POP PUSH1 0x0 PUSH2 0xD32 PUSH2 0x211C DUP4 PUSH1 0xC SLOAD PUSH2 0x227D SWAP1 SWAP2 SWAP1 PUSH4 0xFFFFFFFF AND JUMP JUMPDEST PUSH1 0xE SLOAD SWAP1 PUSH2 0x227D JUMP JUMPDEST DUP1 PUSH1 0x2 PUSH1 0x0 DUP3 DUP3 SLOAD PUSH2 0x2137 SWAP2 SWAP1 PUSH2 0x26B5 JUMP JUMPDEST SWAP1 SWAP2 SSTORE POP POP PUSH20 0xFFFFFFFFFFFFFFFFFFFFFFFFFFFFFFFFFFFFFFFF DUP3 AND PUSH1 0x0 DUP2 DUP2 MSTORE PUSH1 0x3 PUSH1 0x20 SWAP1 DUP2 MSTORE PUSH1 0x40 DUP1 DUP4 KECCAK256 DUP1 SLOAD DUP7 ADD SWAP1 SSTORE MLOAD DUP5 DUP2 MSTORE PUSH32 0xDDF252AD1BE2C89B69C2B068FC378DAA952BA7F163C4A11628F55A4DF523B3EF SWAP2 ADD JUMPDEST PUSH1 0x40 MLOAD DUP1 SWAP2 SUB SWAP1 LOG3 POP POP JUMP JUMPDEST PUSH20 0xFFFFFFFFFFFFFFFFFFFFFFFFFFFFFFFFFFFFFFFF DUP3 AND PUSH1 0x0 SWAP1 DUP2 MSTORE PUSH1 0x3 PUSH1 0x20 MSTORE PUSH1 0x40 DUP2 KECCAK256 DUP1 SLOAD DUP4 SWAP3 SWAP1 PUSH2 0x21D3 SWAP1 DUP5 SWAP1 PUSH2 0x26A2 JUMP JUMPDEST SWAP1 SWAP2 SSTORE POP POP PUSH1 0x2 DUP1 SLOAD DUP3 SWAP1 SUB SWAP1 SSTORE PUSH1 0x40 MLOAD DUP2 DUP2 MSTORE PUSH1 0x0 SWAP1 PUSH20 0xFFFFFFFFFFFFFFFFFFFFFFFFFFFFFFFFFFFFFFFF DUP5 AND SWAP1 PUSH32 0xDDF252AD1BE2C89B69C2B068FC378DAA952BA7F163C4A11628F55A4DF523B3EF SWAP1 PUSH1 0x20 ADD PUSH2 0x2192 JUMP JUMPDEST PUSH1 0x0 DUP3 PUSH32 0xFFFFFFFFFFFFFFFFFFFFFFFFFFFFFFFFFFFFFFFFFFFFFFFFFFFFFFFFFFFFFFFF DIV DUP5 GT DUP4 MUL ISZERO DUP3 MUL PUSH2 0x2261 JUMPI PUSH1 0x0 DUP1 REVERT JUMPDEST POP SWAP2 MUL DIV SWAP1 JUMP JUMPDEST PUSH1 0x0 PUSH2 0xD32 DUP4 PUSH8 0xDE0B6B3A7640000 DUP5 PUSH2 0x222C JUMP JUMPDEST PUSH1 0x0 PUSH2 0xD32 DUP4 DUP4 PUSH8 0xDE0B6B3A7640000 PUSH2 0x222C JUMP JUMPDEST PUSH20 0xFFFFFFFFFFFFFFFFFFFFFFFFFFFFFFFFFFFFFFFF DUP2 AND DUP2 EQ PUSH2 0x1088 JUMPI PUSH1 0x0 DUP1 REVERT JUMPDEST PUSH1 0x0 PUSH1 0x20 DUP3 DUP5 SUB SLT ISZERO PUSH2 0x22C6 JUMPI PUSH1 0x0 DUP1 REVERT JUMPDEST DUP2 CALLDATALOAD PUSH2 0xD32 DUP2 PUSH2 0x2292 JUMP JUMPDEST PUSH1 0x0 PUSH1 0x20 DUP1 DUP4 MSTORE DUP4 MLOAD DUP1 DUP3 DUP6 ADD MSTORE PUSH1 0x0 JUMPDEST DUP2 DUP2 LT ISZERO PUSH2 0x22FE JUMPI DUP6 DUP2 ADD DUP4 ADD MLOAD DUP6 DUP3 ADD PUSH1 0x40 ADD MSTORE DUP3 ADD PUSH2 0x22E2 JUMP JUMPDEST POP PUSH1 0x0 PUSH1 0x40 DUP3 DUP7 ADD ADD MSTORE PUSH1 0x40 PUSH32 0xFFFFFFFFFFFFFFFFFFFFFFFFFFFFFFFFFFFFFFFFFFFFFFFFFFFFFFFFFFFFFFE0 PUSH1 0x1F DUP4 ADD AND DUP6 ADD ADD SWAP3 POP POP POP SWAP3 SWAP2 POP POP JUMP JUMPDEST PUSH1 0x0 DUP1 PUSH1 0x40 DUP4 DUP6 SUB SLT ISZERO PUSH2 0x2350 JUMPI PUSH1 0x0 DUP1 REVERT JUMPDEST DUP3 CALLDATALOAD PUSH2 0x235B DUP2 PUSH2 0x2292 JUMP JUMPDEST SWAP5 PUSH1 0x20 SWAP4 SWAP1 SWAP4 ADD CALLDATALOAD SWAP4 POP POP POP JUMP JUMPDEST DUP1 CALLDATALOAD PUSH32 0xFFFFFFFF00000000000000000000000000000000000000000000000000000000 DUP2 AND DUP2 EQ PUSH2 0x2399 JUMPI PUSH1 0x0 DUP1 REVERT JUMPDEST SWAP2 SWAP1 POP JUMP JUMPDEST PUSH1 0x0 PUSH1 0x20 DUP3 DUP5 SUB SLT ISZERO PUSH2 0x23B0 JUMPI PUSH1 0x0 DUP1 REVERT JUMPDEST PUSH2 0xD32 DUP3 PUSH2 0x2369 JUMP JUMPDEST DUP1 CALLDATALOAD PUSH1 0xFF DUP2 AND DUP2 EQ PUSH2 0x2399 JUMPI PUSH1 0x0 DUP1 REVERT JUMPDEST DUP1 ISZERO ISZERO DUP2 EQ PUSH2 0x1088 JUMPI PUSH1 0x0 DUP1 REVERT JUMPDEST PUSH1 0x0 DUP1 PUSH1 0x0 PUSH1 0x60 DUP5 DUP7 SUB SLT ISZERO PUSH2 0x23ED JUMPI PUSH1 0x0 DUP1 REVERT JUMPDEST PUSH2 0x23F6 DUP5 PUSH2 0x23B9 JUMP JUMPDEST SWAP3 POP PUSH2 0x2404 PUSH1 0x20 DUP6 ADD PUSH2 0x2369 JUMP JUMPDEST SWAP2 POP PUSH1 0x40 DUP5 ADD CALLDATALOAD PUSH2 0x2414 DUP2 PUSH2 0x23CA JUMP JUMPDEST DUP1 SWAP2 POP POP SWAP3 POP SWAP3 POP SWAP3 JUMP JUMPDEST PUSH1 0x0 DUP1 PUSH1 0x0 PUSH1 0x60 DUP5 DUP7 SUB SLT ISZERO PUSH2 0x2434 JUMPI PUSH1 0x0 DUP1 REVERT JUMPDEST DUP4 CALLDATALOAD PUSH2 0x243F DUP2 PUSH2 0x2292 JUMP JUMPDEST SWAP3 POP PUSH1 0x20 DUP5 ADD CALLDATALOAD PUSH2 0x244F DUP2 PUSH2 0x2292 JUMP JUMPDEST SWAP3 SWAP6 SWAP3 SWAP5 POP POP POP PUSH1 0x40 SWAP2 SWAP1 SWAP2 ADD CALLDATALOAD SWAP1 JUMP JUMPDEST PUSH1 0x0 PUSH1 0x20 DUP3 DUP5 SUB SLT ISZERO PUSH2 0x2472 JUMPI PUSH1 0x0 DUP1 REVERT JUMPDEST POP CALLDATALOAD SWAP2 SWAP1 POP JUMP JUMPDEST PUSH1 0x0 DUP1 PUSH1 0x40 DUP4 DUP6 SUB SLT ISZERO PUSH2 0x248C JUMPI PUSH1 0x0 DUP1 REVERT JUMPDEST PUSH2 0x2495 DUP4 PUSH2 0x2369 JUMP JUMPDEST SWAP2 POP PUSH1 0x20 DUP4 ADD CALLDATALOAD PUSH2 0x24A5 DUP2 PUSH2 0x23CA JUMP JUMPDEST DUP1 SWAP2 POP POP SWAP3 POP SWAP3 SWAP1 POP JUMP JUMPDEST PUSH1 0x0 DUP1 PUSH1 0x0 PUSH1 0x60 DUP5 DUP7 SUB SLT ISZERO PUSH2 0x24C5 JUMPI PUSH1 0x0 DUP1 REVERT JUMPDEST DUP4 CALLDATALOAD PUSH2 0x24D0 DUP2 PUSH2 0x2292 JUMP JUMPDEST SWAP3 POP PUSH2 0x2404 PUSH1 0x20 DUP6 ADD PUSH2 0x23B9 JUMP JUMPDEST PUSH1 0x0 DUP1 PUSH1 0x40 DUP4 DUP6 SUB SLT ISZERO PUSH2 0x24F1 JUMPI PUSH1 0x0 DUP1 REVERT JUMPDEST DUP3 CALLDATALOAD PUSH2 0x24FC DUP2 PUSH2 0x2292 JUMP JUMPDEST SWAP2 POP PUSH1 0x20 DUP4 ADD CALLDATALOAD PUSH2 0x24A5 DUP2 PUSH2 0x2292 JUMP JUMPDEST PUSH1 0x0 DUP1 PUSH1 0x0 PUSH1 0x60 DUP5 DUP7 SUB SLT ISZERO PUSH2 0x2521 JUMPI PUSH1 0x0 DUP1 REVERT JUMPDEST DUP4 CALLDATALOAD PUSH2 0x252C DUP2 PUSH2 0x2292 JUMP JUMPDEST SWAP3 POP PUSH1 0x20 DUP5 ADD CALLDATALOAD PUSH2 0x253C DUP2 PUSH2 0x2292 JUMP JUMPDEST SWAP2 POP PUSH2 0x254A PUSH1 0x40 DUP6 ADD PUSH2 0x2369 JUMP JUMPDEST SWAP1 POP SWAP3 POP SWAP3 POP SWAP3 JUMP JUMPDEST PUSH1 0x0 DUP1 PUSH1 0x0 DUP1 PUSH1 0x0 DUP1 PUSH1 0x0 PUSH1 0xE0 DUP9 DUP11 SUB SLT ISZERO PUSH2 0x256E JUMPI PUSH1 0x0 DUP1 REVERT JUMPDEST DUP8 CALLDATALOAD PUSH2 0x2579 DUP2 PUSH2 0x2292 JUMP JUMPDEST SWAP7 POP PUSH1 0x20 DUP9 ADD CALLDATALOAD PUSH2 0x2589 DUP2 PUSH2 0x2292 JUMP JUMPDEST SWAP6 POP PUSH1 0x40 DUP9 ADD CALLDATALOAD SWAP5 POP PUSH1 0x60 DUP9 ADD CALLDATALOAD SWAP4 POP PUSH2 0x25A5 PUSH1 0x80 DUP10 ADD PUSH2 0x23B9 JUMP JUMPDEST SWAP3 POP PUSH1 0xA0 DUP9 ADD CALLDATALOAD SWAP2 POP PUSH1 0xC0 DUP9 ADD CALLDATALOAD SWAP1 POP SWAP3 SWAP6 SWAP9 SWAP2 SWAP5 SWAP8 POP SWAP3 SWAP6 POP JUMP JUMPDEST PUSH1 0x0 DUP1 PUSH1 0x40 DUP4 DUP6 SUB SLT ISZERO PUSH2 0x25D4 JUMPI PUSH1 0x0 DUP1 REVERT JUMPDEST PUSH2 0x25DD DUP4 PUSH2 0x23B9 JUMP JUMPDEST SWAP2 POP PUSH2 0x25EB PUSH1 0x20 DUP5 ADD PUSH2 0x2369 JUMP JUMPDEST SWAP1 POP SWAP3 POP SWAP3 SWAP1 POP JUMP JUMPDEST PUSH1 0x0 DUP1 PUSH1 0x40 DUP4 DUP6 SUB SLT ISZERO PUSH2 0x2607 JUMPI PUSH1 0x0 DUP1 REVERT JUMPDEST DUP3 CALLDATALOAD PUSH2 0x2612 DUP2 PUSH2 0x2292 JUMP JUMPDEST SWAP2 POP PUSH2 0x25EB PUSH1 0x20 DUP5 ADD PUSH2 0x23B9 JUMP JUMPDEST PUSH1 0x1 DUP2 DUP2 SHR SWAP1 DUP3 AND DUP1 PUSH2 0x2634 JUMPI PUSH1 0x7F DUP3 AND SWAP2 POP JUMPDEST PUSH1 0x20 DUP3 LT DUP2 SUB PUSH2 0x266D JUMPI PUSH32 0x4E487B7100000000000000000000000000000000000000000000000000000000 PUSH1 0x0 MSTORE PUSH1 0x22 PUSH1 0x4 MSTORE PUSH1 0x24 PUSH1 0x0 REVERT JUMPDEST POP SWAP2 SWAP1 POP JUMP JUMPDEST PUSH32 0x4E487B7100000000000000000000000000000000000000000000000000000000 PUSH1 0x0 MSTORE PUSH1 0x11 PUSH1 0x4 MSTORE PUSH1 0x24 PUSH1 0x0 REVERT JUMPDEST DUP2 DUP2 SUB DUP2 DUP2 GT ISZERO PUSH2 0xA69 JUMPI PUSH2 0xA69 PUSH2 0x2673 JUMP JUMPDEST DUP1 DUP3 ADD DUP1 DUP3 GT ISZERO PUSH2 0xA69 JUMPI PUSH2 0xA69 PUSH2 0x2673 JUMP JUMPDEST PUSH1 0x0 PUSH1 0x20 DUP3 DUP5 SUB SLT ISZERO PUSH2 0x26DA JUMPI PUSH1 0x0 DUP1 REVERT JUMPDEST DUP2 MLOAD PUSH2 0xD32 DUP2 PUSH2 0x23CA JUMP JUMPDEST PUSH1 0x0 DUP1 DUP4 SLOAD DUP2 PUSH1 0x1 DUP3 DUP2 SHR SWAP2 POP DUP1 DUP4 AND DUP1 PUSH2 0x2701 JUMPI PUSH1 0x7F DUP4 AND SWAP3 POP JUMPDEST PUSH1 0x20 DUP1 DUP5 LT DUP3 SUB PUSH2 0x2739 JUMPI PUSH32 0x4E487B7100000000000000000000000000000000000000000000000000000000 DUP7 MSTORE PUSH1 0x22 PUSH1 0x4 MSTORE PUSH1 0x24 DUP7 REVERT JUMPDEST DUP2 DUP1 ISZERO PUSH2 0x274D JUMPI PUSH1 0x1 DUP2 EQ PUSH2 0x2780 JUMPI PUSH2 0x27AD JUMP JUMPDEST PUSH32 0xFFFFFFFFFFFFFFFFFFFFFFFFFFFFFFFFFFFFFFFFFFFFFFFFFFFFFFFFFFFFFF00 DUP7 AND DUP10 MSTORE DUP5 ISZERO ISZERO DUP6 MUL DUP10 ADD SWAP7 POP PUSH2 0x27AD JUMP JUMPDEST PUSH1 0x0 DUP11 DUP2 MSTORE PUSH1 0x20 SWAP1 KECCAK256 PUSH1 0x0 JUMPDEST DUP7 DUP2 LT ISZERO PUSH2 0x27A5 JUMPI DUP2 SLOAD DUP12 DUP3 ADD MSTORE SWAP1 DUP6 ADD SWAP1 DUP4 ADD PUSH2 0x278C JUMP JUMPDEST POP POP DUP5 DUP10 ADD SWAP7 POP JUMPDEST POP SWAP5 SWAP9 SWAP8 POP POP POP POP POP POP POP POP JUMP INVALID LOG2 PUSH5 0x6970667358 0x22 SLT KECCAK256 0xCF 0xD6 0xEB GASLIMIT 0x4A 0xA6 0x25 0xB3 0x4B 0xC5 DUP2 PUSH21 0x7D599DCDAAEB852A30B300E05D15C414F1FB8DCB64 PUSH20 0x6F6C634300081400330000000000000000000000 "},"gasEstimates":{"creation":{"codeDepositCost":"2045000","executionCost":"infinite","totalCost":"infinite"},"external":{"DOMAIN_SEPARATOR()":"infinite","allowance(address,address)":"infinite","approve(address,uint256)":"24539","authority()":"2380","balanceOf(address)":"2579","burn(address,uint256)":"infinite","burn(uint256)":"infinite","canCall(address,address,bytes4)":"infinite","decimals()":"infinite","doesRoleHaveCapability(uint8,bytes4)":"infinite","doesUserHaveRole(address,uint8)":"2705","getEthValue(uint256)":"infinite","getRate()":"2371","getRethValue(uint256)":"infinite","getRolesWithCapability(bytes4)":"2584","getTargetCustomAuthority(address)":"2605","getTotalPooledEther()":"4627","getTotalShares()":"2392","getUserRoles(address)":"2560","isCapabilityPublic(bytes4)":"2610","isCompetitionMode()":"infinite","maxMintAmount()":"infinite","mint(address,uint256)":"infinite","mint(uint256)":"infinite","name()":"infinite","nonces(address)":"2558","owner()":"2425","permit(address,address,uint256,uint256,uint8,bytes32,bytes32)":"infinite","setAuthority(address)":"infinite","setPublicCapability(bytes4,bool)":"infinite","setRate(uint256)":"infinite","setRoleCapability(uint8,bytes4,bool)":"infinite","setTargetCustomAuthority(address,address)":"infinite","setUserRole(address,uint8,bool)":"infinite","submit(address)":"infinite","symbol()":"infinite","totalSupply()":"2353","transfer(address,uint256)":"infinite","transferFrom(address,address,uint256)":"infinite","transferOwnership(address)":"infinite","transferShares(address,uint256)":"infinite","transferSharesFrom(address,address,uint256)":"infinite"},"internal":{"_accrue()":"infinite","_getAccruedInterest()":"infinite"}},"methodIdentifiers":{"DOMAIN_SEPARATOR()":"3644e515","allowance(address,address)":"dd62ed3e","approve(address,uint256)":"095ea7b3","authority()":"bf7e214f","balanceOf(address)":"70a08231","burn(address,uint256)":"9dc29fac","burn(uint256)":"42966c68","canCall(address,address,bytes4)":"b7009613","decimals()":"313ce567","doesRoleHaveCapability(uint8,bytes4)":"e688747b","doesUserHaveRole(address,uint8)":"ea7ca276","getEthValue(uint256)":"8b32fa23","getRate()":"679aefce","getRethValue(uint256)":"4346f03e","getRolesWithCapability(bytes4)":"ed0d0efb","getTargetCustomAuthority(address)":"c53a3985","getTotalPooledEther()":"37cfdaca","getTotalShares()":"d5002f2e","getUserRoles(address)":"06a36aee","isCapabilityPublic(bytes4)":"0bade8a4","isCompetitionMode()":"7a8c63b5","maxMintAmount()":"239c70ae","mint(address,uint256)":"40c10f19","mint(uint256)":"a0712d68","name()":"06fdde03","nonces(address)":"7ecebe00","owner()":"8da5cb5b","permit(address,address,uint256,uint256,uint8,bytes32,bytes32)":"d505accf","setAuthority(address)":"7a9e5e4b","setPublicCapability(bytes4,bool)":"4b5159da","setRate(uint256)":"34fcf437","setRoleCapability(uint8,bytes4,bool)":"0ea9b75b","setTargetCustomAuthority(address,address)":"728b952b","setUserRole(address,uint8,bool)":"67aff484","submit(address)":"a1903eab","symbol()":"95d89b41","totalSupply()":"18160ddd","transfer(address,uint256)":"a9059cbb","transferFrom(address,address,uint256)":"23b872dd","transferOwnership(address)":"f2fde38b","transferShares(address,uint256)":"8fcb4e5b","transferSharesFrom(address,address,uint256)":"6d780459"}},"storageLayout":{"storage":[{"astId":3103,"contract":"contracts/test/MockRocketPool.sol:MockRocketPool","label":"name","offset":0,"slot":"0","type":"t_string_storage"},{"astId":3105,"contract":"contracts/test/MockRocketPool.sol:MockRocketPool","label":"symbol","offset":0,"slot":"1","type":"t_string_storage"},{"astId":3109,"contract":"contracts/test/MockRocketPool.sol:MockRocketPool","label":"totalSupply","offset":0,"slot":"2","type":"t_uint256"},{"astId":3113,"contract":"contracts/test/MockRocketPool.sol:MockRocketPool","label":"balanceOf","offset":0,"slot":"3","type":"t_mapping(t_address,t_uint256)"},{"astId":3119,"contract":"contracts/test/MockRocketPool.sol:MockRocketPool","label":"allowance","offset":0,"slot":"4","type":"t_mapping(t_address,t_mapping(t_address,t_uint256))"},{"astId":3127,"contract":"contracts/test/MockRocketPool.sol:MockRocketPool","label":"nonces","offset":0,"slot":"5","type":"t_mapping(t_address,t_uint256)"},{"astId":2623,"contract":"contracts/test/MockRocketPool.sol:MockRocketPool","label":"owner","offset":0,"slot":"6","type":"t_address"},{"astId":2626,"contract":"contracts/test/MockRocketPool.sol:MockRocketPool","label":"authority","offset":0,"slot":"7","type":"t_contract(Authority)2777"},{"astId":2834,"contract":"contracts/test/MockRocketPool.sol:MockRocketPool","label":"getTargetCustomAuthority","offset":0,"slot":"8","type":"t_mapping(t_address,t_contract(Authority)2777)"},{"astId":2838,"contract":"contracts/test/MockRocketPool.sol:MockRocketPool","label":"getUserRoles","offset":0,"slot":"9","type":"t_mapping(t_address,t_bytes32)"},{"astId":2842,"contract":"contracts/test/MockRocketPool.sol:MockRocketPool","label":"isCapabilityPublic","offset":0,"slot":"10","type":"t_mapping(t_bytes4,t_bool)"},{"astId":2846,"contract":"contracts/test/MockRocketPool.sol:MockRocketPool","label":"getRolesWithCapability","offset":0,"slot":"11","type":"t_mapping(t_bytes4,t_bytes32)"},{"astId":2304,"contract":"contracts/test/MockRocketPool.sol:MockRocketPool","label":"_rate","offset":0,"slot":"12","type":"t_uint256"},{"astId":2306,"contract":"contracts/test/MockRocketPool.sol:MockRocketPool","label":"_lastUpdated","offset":0,"slot":"13","type":"t_uint256"},{"astId":2308,"contract":"contracts/test/MockRocketPool.sol:MockRocketPool","label":"totalPooledEther","offset":0,"slot":"14","type":"t_uint256"},{"astId":2310,"contract":"contracts/test/MockRocketPool.sol:MockRocketPool","label":"totalShares","offset":0,"slot":"15","type":"t_uint256"}],"types":{"t_address":{"encoding":"inplace","label":"address","numberOfBytes":"20"},"t_bool":{"encoding":"inplace","label":"bool","numberOfBytes":"1"},"t_bytes32":{"encoding":"inplace","label":"bytes32","numberOfBytes":"32"},"t_bytes4":{"encoding":"inplace","label":"bytes4","numberOfBytes":"4"},"t_contract(Authority)2777":{"encoding":"inplace","label":"contract Authority","numberOfBytes":"20"},"t_mapping(t_address,t_bytes32)":{"encoding":"mapping","key":"t_address","label":"mapping(address => bytes32)","numberOfBytes":"32","value":"t_bytes32"},"t_mapping(t_address,t_contract(Authority)2777)":{"encoding":"mapping","key":"t_address","label":"mapping(address => contract Authority)","numberOfBytes":"32","value":"t_contract(Authority)2777"},"t_mapping(t_address,t_mapping(t_address,t_uint256))":{"encoding":"mapping","key":"t_address","label":"mapping(address => mapping(address => uint256))","numberOfBytes":"32","value":"t_mapping(t_address,t_uint256)"},"t_mapping(t_address,t_uint256)":{"encoding":"mapping","key":"t_address","label":"mapping(address => uint256)","numberOfBytes":"32","value":"t_uint256"},"t_mapping(t_bytes4,t_bool)":{"encoding":"mapping","key":"t_bytes4","label":"mapping(bytes4 => bool)","numberOfBytes":"32","value":"t_bool"},"t_mapping(t_bytes4,t_bytes32)":{"encoding":"mapping","key":"t_bytes4","label":"mapping(bytes4 => bytes32)","numberOfBytes":"32","value":"t_bytes32"},"t_string_storage":{"encoding":"bytes","label":"string","numberOfBytes":"32"},"t_uint256":{"encoding":"inplace","label":"uint256","numberOfBytes":"32"}}},"userdoc":{"kind":"user","methods":{"getEthValue(uint256)":{"notice":"IRocketTokenRETH ///"},"setRate(uint256)":{"notice":"Mock ///"},"submit(address)":{"notice":"Overrides ///"}},"notice":"This mock yield source will accrue interest at a specified rate         Every stateful interaction will accrue interest, so the interest         accrual will approximate continuous compounding as the contract         is called more frequently.","version":1}}}}