{"solmate/auth/authorities/MultiRolesAuthority.sol":{"MultiRolesAuthority":{"abi":[{"inputs":[{"internalType":"address","name":"_owner","type":"address"},{"internalType":"contract Authority","name":"_authority","type":"address"}],"stateMutability":"nonpayable","type":"constructor"},{"anonymous":false,"inputs":[{"indexed":true,"internalType":"address","name":"user","type":"address"},{"indexed":true,"internalType":"contract Authority","name":"newAuthority","type":"address"}],"name":"AuthorityUpdated","type":"event"},{"anonymous":false,"inputs":[{"indexed":true,"internalType":"address","name":"user","type":"address"},{"indexed":true,"internalType":"address","name":"newOwner","type":"address"}],"name":"OwnershipTransferred","type":"event"},{"anonymous":false,"inputs":[{"indexed":true,"internalType":"bytes4","name":"functionSig","type":"bytes4"},{"indexed":false,"internalType":"bool","name":"enabled","type":"bool"}],"name":"PublicCapabilityUpdated","type":"event"},{"anonymous":false,"inputs":[{"indexed":true,"internalType":"uint8","name":"role","type":"uint8"},{"indexed":true,"internalType":"bytes4","name":"functionSig","type":"bytes4"},{"indexed":false,"internalType":"bool","name":"enabled","type":"bool"}],"name":"RoleCapabilityUpdated","type":"event"},{"anonymous":false,"inputs":[{"indexed":true,"internalType":"address","name":"target","type":"address"},{"indexed":true,"internalType":"contract Authority","name":"authority","type":"address"}],"name":"TargetCustomAuthorityUpdated","type":"event"},{"anonymous":false,"inputs":[{"indexed":true,"internalType":"address","name":"user","type":"address"},{"indexed":true,"internalType":"uint8","name":"role","type":"uint8"},{"indexed":false,"internalType":"bool","name":"enabled","type":"bool"}],"name":"UserRoleUpdated","type":"event"},{"inputs":[],"name":"authority","outputs":[{"internalType":"contract Authority","name":"","type":"address"}],"stateMutability":"view","type":"function"},{"inputs":[{"internalType":"address","name":"user","type":"address"},{"internalType":"address","name":"target","type":"address"},{"internalType":"bytes4","name":"functionSig","type":"bytes4"}],"name":"canCall","outputs":[{"internalType":"bool","name":"","type":"bool"}],"stateMutability":"view","type":"function"},{"inputs":[{"internalType":"uint8","name":"role","type":"uint8"},{"internalType":"bytes4","name":"functionSig","type":"bytes4"}],"name":"doesRoleHaveCapability","outputs":[{"internalType":"bool","name":"","type":"bool"}],"stateMutability":"view","type":"function"},{"inputs":[{"internalType":"address","name":"user","type":"address"},{"internalType":"uint8","name":"role","type":"uint8"}],"name":"doesUserHaveRole","outputs":[{"internalType":"bool","name":"","type":"bool"}],"stateMutability":"view","type":"function"},{"inputs":[{"internalType":"bytes4","name":"","type":"bytes4"}],"name":"getRolesWithCapability","outputs":[{"internalType":"bytes32","name":"","type":"bytes32"}],"stateMutability":"view","type":"function"},{"inputs":[{"internalType":"address","name":"","type":"address"}],"name":"getTargetCustomAuthority","outputs":[{"internalType":"contract Authority","name":"","type":"address"}],"stateMutability":"view","type":"function"},{"inputs":[{"internalType":"address","name":"","type":"address"}],"name":"getUserRoles","outputs":[{"internalType":"bytes32","name":"","type":"bytes32"}],"stateMutability":"view","type":"function"},{"inputs":[{"internalType":"bytes4","name":"","type":"bytes4"}],"name":"isCapabilityPublic","outputs":[{"internalType":"bool","name":"","type":"bool"}],"stateMutability":"view","type":"function"},{"inputs":[],"name":"owner","outputs":[{"internalType":"address","name":"","type":"address"}],"stateMutability":"view","type":"function"},{"inputs":[{"internalType":"contract Authority","name":"newAuthority","type":"address"}],"name":"setAuthority","outputs":[],"stateMutability":"nonpayable","type":"function"},{"inputs":[{"internalType":"bytes4","name":"functionSig","type":"bytes4"},{"internalType":"bool","name":"enabled","type":"bool"}],"name":"setPublicCapability","outputs":[],"stateMutability":"nonpayable","type":"function"},{"inputs":[{"internalType":"uint8","name":"role","type":"uint8"},{"internalType":"bytes4","name":"functionSig","type":"bytes4"},{"internalType":"bool","name":"enabled","type":"bool"}],"name":"setRoleCapability","outputs":[],"stateMutability":"nonpayable","type":"function"},{"inputs":[{"internalType":"address","name":"target","type":"address"},{"internalType":"contract Authority","name":"customAuthority","type":"address"}],"name":"setTargetCustomAuthority","outputs":[],"stateMutability":"nonpayable","type":"function"},{"inputs":[{"internalType":"address","name":"user","type":"address"},{"internalType":"uint8","name":"role","type":"uint8"},{"internalType":"bool","name":"enabled","type":"bool"}],"name":"setUserRole","outputs":[],"stateMutability":"nonpayable","type":"function"},{"inputs":[{"internalType":"address","name":"newOwner","type":"address"}],"name":"transferOwnership","outputs":[],"stateMutability":"nonpayable","type":"function"}],"devdoc":{"author":"Solmate (https://github.com/transmissions11/solmate/blob/main/src/auth/authorities/MultiRolesAuthority.sol)","kind":"dev","methods":{},"version":1},"evm":{"bytecode":{"linkReferences":{},"object":"608060405234801561001057600080fd5b506040516110fc3803806110fc83398101604081905261002f916100e1565b600080546001600160a01b03199081166001600160a01b0385811691821784556001805490931690851617909155604051849284929133917f8be0079c531659141344cd1fd0a4f28419497f9722a3daafe3b4186f6b6457e091a36040516001600160a01b0382169033907fa3396fd7f6e0a21b50e5089d2da70d5ac0a3bbbd1f617a93f134b7638998019890600090a35050505061011b565b6001600160a01b03811681146100de57600080fd5b50565b600080604083850312156100f457600080fd5b82516100ff816100c9565b6020840151909250610110816100c9565b809150509250929050565b610fd28061012a6000396000f3fe608060405234801561001057600080fd5b50600436106100f55760003560e01c80638da5cb5b11610097578063e688747b11610066578063e688747b1461026f578063ea7ca276146102bd578063ed0d0efb14610301578063f2fde38b1461032157600080fd5b80638da5cb5b146101c1578063b700961314610206578063bf7e214f14610219578063c53a39851461023957600080fd5b80634b5159da116100d35780634b5159da1461017557806367aff48414610188578063728b952b1461019b5780637a9e5e4b146101ae57600080fd5b806306a36aee146100fa5780630bade8a41461012d5780630ea9b75b14610160575b600080fd5b61011a610108366004610d73565b60036020526000908152604090205481565b6040519081526020015b60405180910390f35b61015061013b366004610dc5565b60046020526000908152604090205460ff1681565b6040519015158152602001610124565b61017361016e366004610dff565b610334565b005b610173610183366004610e46565b6104b8565b610173610196366004610e7d565b6105e2565b6101736101a9366004610eab565b610733565b6101736101bc366004610d73565b610843565b6000546101e19073ffffffffffffffffffffffffffffffffffffffff1681565b60405173ffffffffffffffffffffffffffffffffffffffff9091168152602001610124565b610150610214366004610ed9565b6109a0565b6001546101e19073ffffffffffffffffffffffffffffffffffffffff1681565b6101e1610247366004610d73565b60026020526000908152604090205473ffffffffffffffffffffffffffffffffffffffff1681565b61015061027d366004610f20565b7fffffffff000000000000000000000000000000000000000000000000000000001660009081526005602052604090205460ff919091161c600116151590565b6101506102cb366004610f53565b73ffffffffffffffffffffffffffffffffffffffff91909116600090815260036020526040902054600160ff9092161c16151590565b61011a61030f366004610dc5565b60056020526000908152604090205481565b61017361032f366004610d73565b610b39565b610362336000357fffffffff0000000000000000000000000000000000000000000000000000000016610c3d565b6103cd576040517f08c379a000000000000000000000000000000000000000000000000000000000815260206004820152600c60248201527f554e415554484f52495a4544000000000000000000000000000000000000000060448201526064015b60405180910390fd5b8015610415577fffffffff00000000000000000000000000000000000000000000000000000000821660009081526005602052604090208054600160ff86161b179055610454565b7fffffffff00000000000000000000000000000000000000000000000000000000821660009081526005602052604090208054600160ff86161b191690555b817bffffffffffffffffffffffffffffffffffffffffffffffffffffffff19168360ff167fbfe16b2c35ce23dfd1ab0e7b5d086a10060c9b52d1574e1680c881b3b3a2b151836040516104ab911515815260200190565b60405180910390a3505050565b6104e6336000357fffffffff0000000000000000000000000000000000000000000000000000000016610c3d565b61054c576040517f08c379a000000000000000000000000000000000000000000000000000000000815260206004820152600c60248201527f554e415554484f52495a4544000000000000000000000000000000000000000060448201526064016103c4565b7fffffffff00000000000000000000000000000000000000000000000000000000821660008181526004602090815260409182902080547fffffffffffffffffffffffffffffffffffffffffffffffffffffffffffffff001685151590811790915591519182527f36d28126bef21a4f3765d7fcb7c45cead463ae4c41094ef3b771ede598544103910160405180910390a25050565b610610336000357fffffffff0000000000000000000000000000000000000000000000000000000016610c3d565b610676576040517f08c379a000000000000000000000000000000000000000000000000000000000815260206004820152600c60248201527f554e415554484f52495a4544000000000000000000000000000000000000000060448201526064016103c4565b80156106b25773ffffffffffffffffffffffffffffffffffffffff831660009081526003602052604090208054600160ff85161b1790556106e5565b73ffffffffffffffffffffffffffffffffffffffff831660009081526003602052604090208054600160ff85161b191690555b8160ff168373ffffffffffffffffffffffffffffffffffffffff167f4c9bdd0c8e073eb5eda2250b18d8e5121ff27b62064fbeeeed4869bb99bc5bf2836040516104ab911515815260200190565b610761336000357fffffffff0000000000000000000000000000000000000000000000000000000016610c3d565b6107c7576040517f08c379a000000000000000000000000000000000000000000000000000000000815260206004820152600c60248201527f554e415554484f52495a4544000000000000000000000000000000000000000060448201526064016103c4565b73ffffffffffffffffffffffffffffffffffffffff82811660008181526002602052604080822080547fffffffffffffffffffffffff0000000000000000000000000000000000000000169486169485179055517fa4908e11a5f895b13d51526c331ac93cdd30e59772361c5d07874eb36bff20659190a35050565b60005473ffffffffffffffffffffffffffffffffffffffff1633148061092657506001546040517fb70096130000000000000000000000000000000000000000000000000000000081523360048201523060248201526000357fffffffff0000000000000000000000000000000000000000000000000000000016604482015273ffffffffffffffffffffffffffffffffffffffff9091169063b700961390606401602060405180830381865afa158015610902573d6000803e3d6000fd5b505050506040513d601f19601f820116820180604052508101906109269190610f7f565b61092f57600080fd5b600180547fffffffffffffffffffffffff00000000000000000000000000000000000000001673ffffffffffffffffffffffffffffffffffffffff831690811790915560405133907fa3396fd7f6e0a21b50e5089d2da70d5ac0a3bbbd1f617a93f134b7638998019890600090a350565b73ffffffffffffffffffffffffffffffffffffffff8083166000908152600260205260408120549091168015610a98576040517fb700961300000000000000000000000000000000000000000000000000000000815273ffffffffffffffffffffffffffffffffffffffff868116600483015285811660248301527fffffffff000000000000000000000000000000000000000000000000000000008516604483015282169063b700961390606401602060405180830381865afa158015610a6c573d6000803e3d6000fd5b505050506040513d601f19601f82011682018060405250810190610a909190610f7f565b915050610b32565b7fffffffff00000000000000000000000000000000000000000000000000000000831660009081526004602052604090205460ff1680610b2e57507fffffffff00000000000000000000000000000000000000000000000000000000831660009081526005602090815260408083205473ffffffffffffffffffffffffffffffffffffffff891684526003909252909120541615155b9150505b9392505050565b610b67336000357fffffffff0000000000000000000000000000000000000000000000000000000016610c3d565b610bcd576040517f08c379a000000000000000000000000000000000000000000000000000000000815260206004820152600c60248201527f554e415554484f52495a4544000000000000000000000000000000000000000060448201526064016103c4565b600080547fffffffffffffffffffffffff00000000000000000000000000000000000000001673ffffffffffffffffffffffffffffffffffffffff83169081178255604051909133917f8be0079c531659141344cd1fd0a4f28419497f9722a3daafe3b4186f6b6457e09190a350565b60015460009073ffffffffffffffffffffffffffffffffffffffff168015801590610d2157506040517fb700961300000000000000000000000000000000000000000000000000000000815273ffffffffffffffffffffffffffffffffffffffff85811660048301523060248301527fffffffff000000000000000000000000000000000000000000000000000000008516604483015282169063b700961390606401602060405180830381865afa158015610cfd573d6000803e3d6000fd5b505050506040513d601f19601f82011682018060405250810190610d219190610f7f565b80610d46575060005473ffffffffffffffffffffffffffffffffffffffff8581169116145b949350505050565b73ffffffffffffffffffffffffffffffffffffffff81168114610d7057600080fd5b50565b600060208284031215610d8557600080fd5b8135610b3281610d4e565b80357fffffffff0000000000000000000000000000000000000000000000000000000081168114610dc057600080fd5b919050565b600060208284031215610dd757600080fd5b610b3282610d90565b803560ff81168114610dc057600080fd5b8015158114610d7057600080fd5b600080600060608486031215610e1457600080fd5b610e1d84610de0565b9250610e2b60208501610d90565b91506040840135610e3b81610df1565b809150509250925092565b60008060408385031215610e5957600080fd5b610e6283610d90565b91506020830135610e7281610df1565b809150509250929050565b600080600060608486031215610e9257600080fd5b8335610e9d81610d4e565b9250610e2b60208501610de0565b60008060408385031215610ebe57600080fd5b8235610ec981610d4e565b91506020830135610e7281610d4e565b600080600060608486031215610eee57600080fd5b8335610ef981610d4e565b92506020840135610f0981610d4e565b9150610f1760408501610d90565b90509250925092565b60008060408385031215610f3357600080fd5b610f3c83610de0565b9150610f4a60208401610d90565b90509250929050565b60008060408385031215610f6657600080fd5b8235610f7181610d4e565b9150610f4a60208401610de0565b600060208284031215610f9157600080fd5b8151610b3281610df156fea264697066735822122058e51601b81e93d2b5857cc1190b2d9ac98cd995cca4a2c1b5f68f8bce3ffc6064736f6c63430008140033","opcodes":"PUSH1 0x80 PUSH1 0x40 MSTORE CALLVALUE DUP1 ISZERO PUSH2 0x10 JUMPI PUSH1 0x0 DUP1 REVERT JUMPDEST POP PUSH1 0x40 MLOAD PUSH2 0x10FC CODESIZE SUB DUP1 PUSH2 0x10FC DUP4 CODECOPY DUP2 ADD PUSH1 0x40 DUP2 SWAP1 MSTORE PUSH2 0x2F SWAP2 PUSH2 0xE1 JUMP JUMPDEST PUSH1 0x0 DUP1 SLOAD PUSH1 0x1 PUSH1 0x1 PUSH1 0xA0 SHL SUB NOT SWAP1 DUP2 AND PUSH1 0x1 PUSH1 0x1 PUSH1 0xA0 SHL SUB DUP6 DUP2 AND SWAP2 DUP3 OR DUP5 SSTORE PUSH1 0x1 DUP1 SLOAD SWAP1 SWAP4 AND SWAP1 DUP6 AND OR SWAP1 SWAP2 SSTORE PUSH1 0x40 MLOAD DUP5 SWAP3 DUP5 SWAP3 SWAP2 CALLER SWAP2 PUSH32 0x8BE0079C531659141344CD1FD0A4F28419497F9722A3DAAFE3B4186F6B6457E0 SWAP2 LOG3 PUSH1 0x40 MLOAD PUSH1 0x1 PUSH1 0x1 PUSH1 0xA0 SHL SUB DUP3 AND SWAP1 CALLER SWAP1 PUSH32 0xA3396FD7F6E0A21B50E5089D2DA70D5AC0A3BBBD1F617A93F134B76389980198 SWAP1 PUSH1 0x0 SWAP1 LOG3 POP POP POP POP PUSH2 0x11B JUMP JUMPDEST PUSH1 0x1 PUSH1 0x1 PUSH1 0xA0 SHL SUB DUP2 AND DUP2 EQ PUSH2 0xDE JUMPI PUSH1 0x0 DUP1 REVERT JUMPDEST POP JUMP JUMPDEST PUSH1 0x0 DUP1 PUSH1 0x40 DUP4 DUP6 SUB SLT ISZERO PUSH2 0xF4 JUMPI PUSH1 0x0 DUP1 REVERT JUMPDEST DUP3 MLOAD PUSH2 0xFF DUP2 PUSH2 0xC9 JUMP JUMPDEST PUSH1 0x20 DUP5 ADD MLOAD SWAP1 SWAP3 POP PUSH2 0x110 DUP2 PUSH2 0xC9 JUMP JUMPDEST DUP1 SWAP2 POP POP SWAP3 POP SWAP3 SWAP1 POP JUMP JUMPDEST PUSH2 0xFD2 DUP1 PUSH2 0x12A PUSH1 0x0 CODECOPY PUSH1 0x0 RETURN INVALID PUSH1 0x80 PUSH1 0x40 MSTORE CALLVALUE DUP1 ISZERO PUSH2 0x10 JUMPI PUSH1 0x0 DUP1 REVERT JUMPDEST POP PUSH1 0x4 CALLDATASIZE LT PUSH2 0xF5 JUMPI PUSH1 0x0 CALLDATALOAD PUSH1 0xE0 SHR DUP1 PUSH4 0x8DA5CB5B GT PUSH2 0x97 JUMPI DUP1 PUSH4 0xE688747B GT PUSH2 0x66 JUMPI DUP1 PUSH4 0xE688747B EQ PUSH2 0x26F JUMPI DUP1 PUSH4 0xEA7CA276 EQ PUSH2 0x2BD JUMPI DUP1 PUSH4 0xED0D0EFB EQ PUSH2 0x301 JUMPI DUP1 PUSH4 0xF2FDE38B EQ PUSH2 0x321 JUMPI PUSH1 0x0 DUP1 REVERT JUMPDEST DUP1 PUSH4 0x8DA5CB5B EQ PUSH2 0x1C1 JUMPI DUP1 PUSH4 0xB7009613 EQ PUSH2 0x206 JUMPI DUP1 PUSH4 0xBF7E214F EQ PUSH2 0x219 JUMPI DUP1 PUSH4 0xC53A3985 EQ PUSH2 0x239 JUMPI PUSH1 0x0 DUP1 REVERT JUMPDEST DUP1 PUSH4 0x4B5159DA GT PUSH2 0xD3 JUMPI DUP1 PUSH4 0x4B5159DA EQ PUSH2 0x175 JUMPI DUP1 PUSH4 0x67AFF484 EQ PUSH2 0x188 JUMPI DUP1 PUSH4 0x728B952B EQ PUSH2 0x19B JUMPI DUP1 PUSH4 0x7A9E5E4B EQ PUSH2 0x1AE JUMPI PUSH1 0x0 DUP1 REVERT JUMPDEST DUP1 PUSH4 0x6A36AEE EQ PUSH2 0xFA JUMPI DUP1 PUSH4 0xBADE8A4 EQ PUSH2 0x12D JUMPI DUP1 PUSH4 0xEA9B75B EQ PUSH2 0x160 JUMPI JUMPDEST PUSH1 0x0 DUP1 REVERT JUMPDEST PUSH2 0x11A PUSH2 0x108 CALLDATASIZE PUSH1 0x4 PUSH2 0xD73 JUMP JUMPDEST PUSH1 0x3 PUSH1 0x20 MSTORE PUSH1 0x0 SWAP1 DUP2 MSTORE PUSH1 0x40 SWAP1 KECCAK256 SLOAD DUP2 JUMP JUMPDEST PUSH1 0x40 MLOAD SWAP1 DUP2 MSTORE PUSH1 0x20 ADD JUMPDEST PUSH1 0x40 MLOAD DUP1 SWAP2 SUB SWAP1 RETURN JUMPDEST PUSH2 0x150 PUSH2 0x13B CALLDATASIZE PUSH1 0x4 PUSH2 0xDC5 JUMP JUMPDEST PUSH1 0x4 PUSH1 0x20 MSTORE PUSH1 0x0 SWAP1 DUP2 MSTORE PUSH1 0x40 SWAP1 KECCAK256 SLOAD PUSH1 0xFF AND DUP2 JUMP JUMPDEST PUSH1 0x40 MLOAD SWAP1 ISZERO ISZERO DUP2 MSTORE PUSH1 0x20 ADD PUSH2 0x124 JUMP JUMPDEST PUSH2 0x173 PUSH2 0x16E CALLDATASIZE PUSH1 0x4 PUSH2 0xDFF JUMP JUMPDEST PUSH2 0x334 JUMP JUMPDEST STOP JUMPDEST PUSH2 0x173 PUSH2 0x183 CALLDATASIZE PUSH1 0x4 PUSH2 0xE46 JUMP JUMPDEST PUSH2 0x4B8 JUMP JUMPDEST PUSH2 0x173 PUSH2 0x196 CALLDATASIZE PUSH1 0x4 PUSH2 0xE7D JUMP JUMPDEST PUSH2 0x5E2 JUMP JUMPDEST PUSH2 0x173 PUSH2 0x1A9 CALLDATASIZE PUSH1 0x4 PUSH2 0xEAB JUMP JUMPDEST PUSH2 0x733 JUMP JUMPDEST PUSH2 0x173 PUSH2 0x1BC CALLDATASIZE PUSH1 0x4 PUSH2 0xD73 JUMP JUMPDEST PUSH2 0x843 JUMP JUMPDEST PUSH1 0x0 SLOAD PUSH2 0x1E1 SWAP1 PUSH20 0xFFFFFFFFFFFFFFFFFFFFFFFFFFFFFFFFFFFFFFFF AND DUP2 JUMP JUMPDEST PUSH1 0x40 MLOAD PUSH20 0xFFFFFFFFFFFFFFFFFFFFFFFFFFFFFFFFFFFFFFFF SWAP1 SWAP2 AND DUP2 MSTORE PUSH1 0x20 ADD PUSH2 0x124 JUMP JUMPDEST PUSH2 0x150 PUSH2 0x214 CALLDATASIZE PUSH1 0x4 PUSH2 0xED9 JUMP JUMPDEST PUSH2 0x9A0 JUMP JUMPDEST PUSH1 0x1 SLOAD PUSH2 0x1E1 SWAP1 PUSH20 0xFFFFFFFFFFFFFFFFFFFFFFFFFFFFFFFFFFFFFFFF AND DUP2 JUMP JUMPDEST PUSH2 0x1E1 PUSH2 0x247 CALLDATASIZE PUSH1 0x4 PUSH2 0xD73 JUMP JUMPDEST PUSH1 0x2 PUSH1 0x20 MSTORE PUSH1 0x0 SWAP1 DUP2 MSTORE PUSH1 0x40 SWAP1 KECCAK256 SLOAD PUSH20 0xFFFFFFFFFFFFFFFFFFFFFFFFFFFFFFFFFFFFFFFF AND DUP2 JUMP JUMPDEST PUSH2 0x150 PUSH2 0x27D CALLDATASIZE PUSH1 0x4 PUSH2 0xF20 JUMP JUMPDEST PUSH32 0xFFFFFFFF00000000000000000000000000000000000000000000000000000000 AND PUSH1 0x0 SWAP1 DUP2 MSTORE PUSH1 0x5 PUSH1 0x20 MSTORE PUSH1 0x40 SWAP1 KECCAK256 SLOAD PUSH1 0xFF SWAP2 SWAP1 SWAP2 AND SHR PUSH1 0x1 AND ISZERO ISZERO SWAP1 JUMP JUMPDEST PUSH2 0x150 PUSH2 0x2CB CALLDATASIZE PUSH1 0x4 PUSH2 0xF53 JUMP JUMPDEST PUSH20 0xFFFFFFFFFFFFFFFFFFFFFFFFFFFFFFFFFFFFFFFF SWAP2 SWAP1 SWAP2 AND PUSH1 0x0 SWAP1 DUP2 MSTORE PUSH1 0x3 PUSH1 0x20 MSTORE PUSH1 0x40 SWAP1 KECCAK256 SLOAD PUSH1 0x1 PUSH1 0xFF SWAP1 SWAP3 AND SHR AND ISZERO ISZERO SWAP1 JUMP JUMPDEST PUSH2 0x11A PUSH2 0x30F CALLDATASIZE PUSH1 0x4 PUSH2 0xDC5 JUMP JUMPDEST PUSH1 0x5 PUSH1 0x20 MSTORE PUSH1 0x0 SWAP1 DUP2 MSTORE PUSH1 0x40 SWAP1 KECCAK256 SLOAD DUP2 JUMP JUMPDEST PUSH2 0x173 PUSH2 0x32F CALLDATASIZE PUSH1 0x4 PUSH2 0xD73 JUMP JUMPDEST PUSH2 0xB39 JUMP JUMPDEST PUSH2 0x362 CALLER PUSH1 0x0 CALLDATALOAD PUSH32 0xFFFFFFFF00000000000000000000000000000000000000000000000000000000 AND PUSH2 0xC3D JUMP JUMPDEST PUSH2 0x3CD JUMPI PUSH1 0x40 MLOAD PUSH32 0x8C379A000000000000000000000000000000000000000000000000000000000 DUP2 MSTORE PUSH1 0x20 PUSH1 0x4 DUP3 ADD MSTORE PUSH1 0xC PUSH1 0x24 DUP3 ADD MSTORE PUSH32 0x554E415554484F52495A45440000000000000000000000000000000000000000 PUSH1 0x44 DUP3 ADD MSTORE PUSH1 0x64 ADD JUMPDEST PUSH1 0x40 MLOAD DUP1 SWAP2 SUB SWAP1 REVERT JUMPDEST DUP1 ISZERO PUSH2 0x415 JUMPI PUSH32 0xFFFFFFFF00000000000000000000000000000000000000000000000000000000 DUP3 AND PUSH1 0x0 SWAP1 DUP2 MSTORE PUSH1 0x5 PUSH1 0x20 MSTORE PUSH1 0x40 SWAP1 KECCAK256 DUP1 SLOAD PUSH1 0x1 PUSH1 0xFF DUP7 AND SHL OR SWAP1 SSTORE PUSH2 0x454 JUMP JUMPDEST PUSH32 0xFFFFFFFF00000000000000000000000000000000000000000000000000000000 DUP3 AND PUSH1 0x0 SWAP1 DUP2 MSTORE PUSH1 0x5 PUSH1 0x20 MSTORE PUSH1 0x40 SWAP1 KECCAK256 DUP1 SLOAD PUSH1 0x1 PUSH1 0xFF DUP7 AND SHL NOT AND SWAP1 SSTORE JUMPDEST DUP2 PUSH28 0xFFFFFFFFFFFFFFFFFFFFFFFFFFFFFFFFFFFFFFFFFFFFFFFFFFFFFFFF NOT AND DUP4 PUSH1 0xFF AND PUSH32 0xBFE16B2C35CE23DFD1AB0E7B5D086A10060C9B52D1574E1680C881B3B3A2B151 DUP4 PUSH1 0x40 MLOAD PUSH2 0x4AB SWAP2 ISZERO ISZERO DUP2 MSTORE PUSH1 0x20 ADD SWAP1 JUMP JUMPDEST PUSH1 0x40 MLOAD DUP1 SWAP2 SUB SWAP1 LOG3 POP POP POP JUMP JUMPDEST PUSH2 0x4E6 CALLER PUSH1 0x0 CALLDATALOAD PUSH32 0xFFFFFFFF00000000000000000000000000000000000000000000000000000000 AND PUSH2 0xC3D JUMP JUMPDEST PUSH2 0x54C JUMPI PUSH1 0x40 MLOAD PUSH32 0x8C379A000000000000000000000000000000000000000000000000000000000 DUP2 MSTORE PUSH1 0x20 PUSH1 0x4 DUP3 ADD MSTORE PUSH1 0xC PUSH1 0x24 DUP3 ADD MSTORE PUSH32 0x554E415554484F52495A45440000000000000000000000000000000000000000 PUSH1 0x44 DUP3 ADD MSTORE PUSH1 0x64 ADD PUSH2 0x3C4 JUMP JUMPDEST PUSH32 0xFFFFFFFF00000000000000000000000000000000000000000000000000000000 DUP3 AND PUSH1 0x0 DUP2 DUP2 MSTORE PUSH1 0x4 PUSH1 0x20 SWAP1 DUP2 MSTORE PUSH1 0x40 SWAP2 DUP3 SWAP1 KECCAK256 DUP1 SLOAD PUSH32 0xFFFFFFFFFFFFFFFFFFFFFFFFFFFFFFFFFFFFFFFFFFFFFFFFFFFFFFFFFFFFFF00 AND DUP6 ISZERO ISZERO SWAP1 DUP2 OR SWAP1 SWAP2 SSTORE SWAP2 MLOAD SWAP2 DUP3 MSTORE PUSH32 0x36D28126BEF21A4F3765D7FCB7C45CEAD463AE4C41094EF3B771EDE598544103 SWAP2 ADD PUSH1 0x40 MLOAD DUP1 SWAP2 SUB SWAP1 LOG2 POP POP JUMP JUMPDEST PUSH2 0x610 CALLER PUSH1 0x0 CALLDATALOAD PUSH32 0xFFFFFFFF00000000000000000000000000000000000000000000000000000000 AND PUSH2 0xC3D JUMP JUMPDEST PUSH2 0x676 JUMPI PUSH1 0x40 MLOAD PUSH32 0x8C379A000000000000000000000000000000000000000000000000000000000 DUP2 MSTORE PUSH1 0x20 PUSH1 0x4 DUP3 ADD MSTORE PUSH1 0xC PUSH1 0x24 DUP3 ADD MSTORE PUSH32 0x554E415554484F52495A45440000000000000000000000000000000000000000 PUSH1 0x44 DUP3 ADD MSTORE PUSH1 0x64 ADD PUSH2 0x3C4 JUMP JUMPDEST DUP1 ISZERO PUSH2 0x6B2 JUMPI PUSH20 0xFFFFFFFFFFFFFFFFFFFFFFFFFFFFFFFFFFFFFFFF DUP4 AND PUSH1 0x0 SWAP1 DUP2 MSTORE PUSH1 0x3 PUSH1 0x20 MSTORE PUSH1 0x40 SWAP1 KECCAK256 DUP1 SLOAD PUSH1 0x1 PUSH1 0xFF DUP6 AND SHL OR SWAP1 SSTORE PUSH2 0x6E5 JUMP JUMPDEST PUSH20 0xFFFFFFFFFFFFFFFFFFFFFFFFFFFFFFFFFFFFFFFF DUP4 AND PUSH1 0x0 SWAP1 DUP2 MSTORE PUSH1 0x3 PUSH1 0x20 MSTORE PUSH1 0x40 SWAP1 KECCAK256 DUP1 SLOAD PUSH1 0x1 PUSH1 0xFF DUP6 AND SHL NOT AND SWAP1 SSTORE JUMPDEST DUP2 PUSH1 0xFF AND DUP4 PUSH20 0xFFFFFFFFFFFFFFFFFFFFFFFFFFFFFFFFFFFFFFFF AND PUSH32 0x4C9BDD0C8E073EB5EDA2250B18D8E5121FF27B62064FBEEEED4869BB99BC5BF2 DUP4 PUSH1 0x40 MLOAD PUSH2 0x4AB SWAP2 ISZERO ISZERO DUP2 MSTORE PUSH1 0x20 ADD SWAP1 JUMP JUMPDEST PUSH2 0x761 CALLER PUSH1 0x0 CALLDATALOAD PUSH32 0xFFFFFFFF00000000000000000000000000000000000000000000000000000000 AND PUSH2 0xC3D JUMP JUMPDEST PUSH2 0x7C7 JUMPI PUSH1 0x40 MLOAD PUSH32 0x8C379A000000000000000000000000000000000000000000000000000000000 DUP2 MSTORE PUSH1 0x20 PUSH1 0x4 DUP3 ADD MSTORE PUSH1 0xC PUSH1 0x24 DUP3 ADD MSTORE PUSH32 0x554E415554484F52495A45440000000000000000000000000000000000000000 PUSH1 0x44 DUP3 ADD MSTORE PUSH1 0x64 ADD PUSH2 0x3C4 JUMP JUMPDEST PUSH20 0xFFFFFFFFFFFFFFFFFFFFFFFFFFFFFFFFFFFFFFFF DUP3 DUP2 AND PUSH1 0x0 DUP2 DUP2 MSTORE PUSH1 0x2 PUSH1 0x20 MSTORE PUSH1 0x40 DUP1 DUP3 KECCAK256 DUP1 SLOAD PUSH32 0xFFFFFFFFFFFFFFFFFFFFFFFF0000000000000000000000000000000000000000 AND SWAP5 DUP7 AND SWAP5 DUP6 OR SWAP1 SSTORE MLOAD PUSH32 0xA4908E11A5F895B13D51526C331AC93CDD30E59772361C5D07874EB36BFF2065 SWAP2 SWAP1 LOG3 POP POP JUMP JUMPDEST PUSH1 0x0 SLOAD PUSH20 0xFFFFFFFFFFFFFFFFFFFFFFFFFFFFFFFFFFFFFFFF AND CALLER EQ DUP1 PUSH2 0x926 JUMPI POP PUSH1 0x1 SLOAD PUSH1 0x40 MLOAD PUSH32 0xB700961300000000000000000000000000000000000000000000000000000000 DUP2 MSTORE CALLER PUSH1 0x4 DUP3 ADD MSTORE ADDRESS PUSH1 0x24 DUP3 ADD MSTORE PUSH1 0x0 CALLDATALOAD PUSH32 0xFFFFFFFF00000000000000000000000000000000000000000000000000000000 AND PUSH1 0x44 DUP3 ADD MSTORE PUSH20 0xFFFFFFFFFFFFFFFFFFFFFFFFFFFFFFFFFFFFFFFF SWAP1 SWAP2 AND SWAP1 PUSH4 0xB7009613 SWAP1 PUSH1 0x64 ADD PUSH1 0x20 PUSH1 0x40 MLOAD DUP1 DUP4 SUB DUP2 DUP7 GAS STATICCALL ISZERO DUP1 ISZERO PUSH2 0x902 JUMPI RETURNDATASIZE PUSH1 0x0 DUP1 RETURNDATACOPY RETURNDATASIZE PUSH1 0x0 REVERT JUMPDEST POP POP POP POP PUSH1 0x40 MLOAD RETURNDATASIZE PUSH1 0x1F NOT PUSH1 0x1F DUP3 ADD AND DUP3 ADD DUP1 PUSH1 0x40 MSTORE POP DUP2 ADD SWAP1 PUSH2 0x926 SWAP2 SWAP1 PUSH2 0xF7F JUMP JUMPDEST PUSH2 0x92F JUMPI PUSH1 0x0 DUP1 REVERT JUMPDEST PUSH1 0x1 DUP1 SLOAD PUSH32 0xFFFFFFFFFFFFFFFFFFFFFFFF0000000000000000000000000000000000000000 AND PUSH20 0xFFFFFFFFFFFFFFFFFFFFFFFFFFFFFFFFFFFFFFFF DUP4 AND SWAP1 DUP2 OR SWAP1 SWAP2 SSTORE PUSH1 0x40 MLOAD CALLER SWAP1 PUSH32 0xA3396FD7F6E0A21B50E5089D2DA70D5AC0A3BBBD1F617A93F134B76389980198 SWAP1 PUSH1 0x0 SWAP1 LOG3 POP JUMP JUMPDEST PUSH20 0xFFFFFFFFFFFFFFFFFFFFFFFFFFFFFFFFFFFFFFFF DUP1 DUP4 AND PUSH1 0x0 SWAP1 DUP2 MSTORE PUSH1 0x2 PUSH1 0x20 MSTORE PUSH1 0x40 DUP2 KECCAK256 SLOAD SWAP1 SWAP2 AND DUP1 ISZERO PUSH2 0xA98 JUMPI PUSH1 0x40 MLOAD PUSH32 0xB700961300000000000000000000000000000000000000000000000000000000 DUP2 MSTORE PUSH20 0xFFFFFFFFFFFFFFFFFFFFFFFFFFFFFFFFFFFFFFFF DUP7 DUP2 AND PUSH1 0x4 DUP4 ADD MSTORE DUP6 DUP2 AND PUSH1 0x24 DUP4 ADD MSTORE PUSH32 0xFFFFFFFF00000000000000000000000000000000000000000000000000000000 DUP6 AND PUSH1 0x44 DUP4 ADD MSTORE DUP3 AND SWAP1 PUSH4 0xB7009613 SWAP1 PUSH1 0x64 ADD PUSH1 0x20 PUSH1 0x40 MLOAD DUP1 DUP4 SUB DUP2 DUP7 GAS STATICCALL ISZERO DUP1 ISZERO PUSH2 0xA6C JUMPI RETURNDATASIZE PUSH1 0x0 DUP1 RETURNDATACOPY RETURNDATASIZE PUSH1 0x0 REVERT JUMPDEST POP POP POP POP PUSH1 0x40 MLOAD RETURNDATASIZE PUSH1 0x1F NOT PUSH1 0x1F DUP3 ADD AND DUP3 ADD DUP1 PUSH1 0x40 MSTORE POP DUP2 ADD SWAP1 PUSH2 0xA90 SWAP2 SWAP1 PUSH2 0xF7F JUMP JUMPDEST SWAP2 POP POP PUSH2 0xB32 JUMP JUMPDEST PUSH32 0xFFFFFFFF00000000000000000000000000000000000000000000000000000000 DUP4 AND PUSH1 0x0 SWAP1 DUP2 MSTORE PUSH1 0x4 PUSH1 0x20 MSTORE PUSH1 0x40 SWAP1 KECCAK256 SLOAD PUSH1 0xFF AND DUP1 PUSH2 0xB2E JUMPI POP PUSH32 0xFFFFFFFF00000000000000000000000000000000000000000000000000000000 DUP4 AND PUSH1 0x0 SWAP1 DUP2 MSTORE PUSH1 0x5 PUSH1 0x20 SWAP1 DUP2 MSTORE PUSH1 0x40 DUP1 DUP4 KECCAK256 SLOAD PUSH20 0xFFFFFFFFFFFFFFFFFFFFFFFFFFFFFFFFFFFFFFFF DUP10 AND DUP5 MSTORE PUSH1 0x3 SWAP1 SWAP3 MSTORE SWAP1 SWAP2 KECCAK256 SLOAD AND ISZERO ISZERO JUMPDEST SWAP2 POP POP JUMPDEST SWAP4 SWAP3 POP POP POP JUMP JUMPDEST PUSH2 0xB67 CALLER PUSH1 0x0 CALLDATALOAD PUSH32 0xFFFFFFFF00000000000000000000000000000000000000000000000000000000 AND PUSH2 0xC3D JUMP JUMPDEST PUSH2 0xBCD JUMPI PUSH1 0x40 MLOAD PUSH32 0x8C379A000000000000000000000000000000000000000000000000000000000 DUP2 MSTORE PUSH1 0x20 PUSH1 0x4 DUP3 ADD MSTORE PUSH1 0xC PUSH1 0x24 DUP3 ADD MSTORE PUSH32 0x554E415554484F52495A45440000000000000000000000000000000000000000 PUSH1 0x44 DUP3 ADD MSTORE PUSH1 0x64 ADD PUSH2 0x3C4 JUMP JUMPDEST PUSH1 0x0 DUP1 SLOAD PUSH32 0xFFFFFFFFFFFFFFFFFFFFFFFF0000000000000000000000000000000000000000 AND PUSH20 0xFFFFFFFFFFFFFFFFFFFFFFFFFFFFFFFFFFFFFFFF DUP4 AND SWAP1 DUP2 OR DUP3 SSTORE PUSH1 0x40 MLOAD SWAP1 SWAP2 CALLER SWAP2 PUSH32 0x8BE0079C531659141344CD1FD0A4F28419497F9722A3DAAFE3B4186F6B6457E0 SWAP2 SWAP1 LOG3 POP JUMP JUMPDEST PUSH1 0x1 SLOAD PUSH1 0x0 SWAP1 PUSH20 0xFFFFFFFFFFFFFFFFFFFFFFFFFFFFFFFFFFFFFFFF AND DUP1 ISZERO DUP1 ISZERO SWAP1 PUSH2 0xD21 JUMPI POP PUSH1 0x40 MLOAD PUSH32 0xB700961300000000000000000000000000000000000000000000000000000000 DUP2 MSTORE PUSH20 0xFFFFFFFFFFFFFFFFFFFFFFFFFFFFFFFFFFFFFFFF DUP6 DUP2 AND PUSH1 0x4 DUP4 ADD MSTORE ADDRESS PUSH1 0x24 DUP4 ADD MSTORE PUSH32 0xFFFFFFFF00000000000000000000000000000000000000000000000000000000 DUP6 AND PUSH1 0x44 DUP4 ADD MSTORE DUP3 AND SWAP1 PUSH4 0xB7009613 SWAP1 PUSH1 0x64 ADD PUSH1 0x20 PUSH1 0x40 MLOAD DUP1 DUP4 SUB DUP2 DUP7 GAS STATICCALL ISZERO DUP1 ISZERO PUSH2 0xCFD JUMPI RETURNDATASIZE PUSH1 0x0 DUP1 RETURNDATACOPY RETURNDATASIZE PUSH1 0x0 REVERT JUMPDEST POP POP POP POP PUSH1 0x40 MLOAD RETURNDATASIZE PUSH1 0x1F NOT PUSH1 0x1F DUP3 ADD AND DUP3 ADD DUP1 PUSH1 0x40 MSTORE POP DUP2 ADD SWAP1 PUSH2 0xD21 SWAP2 SWAP1 PUSH2 0xF7F JUMP JUMPDEST DUP1 PUSH2 0xD46 JUMPI POP PUSH1 0x0 SLOAD PUSH20 0xFFFFFFFFFFFFFFFFFFFFFFFFFFFFFFFFFFFFFFFF DUP6 DUP2 AND SWAP2 AND EQ JUMPDEST SWAP5 SWAP4 POP POP POP POP JUMP JUMPDEST PUSH20 0xFFFFFFFFFFFFFFFFFFFFFFFFFFFFFFFFFFFFFFFF DUP2 AND DUP2 EQ PUSH2 0xD70 JUMPI PUSH1 0x0 DUP1 REVERT JUMPDEST POP JUMP JUMPDEST PUSH1 0x0 PUSH1 0x20 DUP3 DUP5 SUB SLT ISZERO PUSH2 0xD85 JUMPI PUSH1 0x0 DUP1 REVERT JUMPDEST DUP2 CALLDATALOAD PUSH2 0xB32 DUP2 PUSH2 0xD4E JUMP JUMPDEST DUP1 CALLDATALOAD PUSH32 0xFFFFFFFF00000000000000000000000000000000000000000000000000000000 DUP2 AND DUP2 EQ PUSH2 0xDC0 JUMPI PUSH1 0x0 DUP1 REVERT JUMPDEST SWAP2 SWAP1 POP JUMP JUMPDEST PUSH1 0x0 PUSH1 0x20 DUP3 DUP5 SUB SLT ISZERO PUSH2 0xDD7 JUMPI PUSH1 0x0 DUP1 REVERT JUMPDEST PUSH2 0xB32 DUP3 PUSH2 0xD90 JUMP JUMPDEST DUP1 CALLDATALOAD PUSH1 0xFF DUP2 AND DUP2 EQ PUSH2 0xDC0 JUMPI PUSH1 0x0 DUP1 REVERT JUMPDEST DUP1 ISZERO ISZERO DUP2 EQ PUSH2 0xD70 JUMPI PUSH1 0x0 DUP1 REVERT JUMPDEST PUSH1 0x0 DUP1 PUSH1 0x0 PUSH1 0x60 DUP5 DUP7 SUB SLT ISZERO PUSH2 0xE14 JUMPI PUSH1 0x0 DUP1 REVERT JUMPDEST PUSH2 0xE1D DUP5 PUSH2 0xDE0 JUMP JUMPDEST SWAP3 POP PUSH2 0xE2B PUSH1 0x20 DUP6 ADD PUSH2 0xD90 JUMP JUMPDEST SWAP2 POP PUSH1 0x40 DUP5 ADD CALLDATALOAD PUSH2 0xE3B DUP2 PUSH2 0xDF1 JUMP JUMPDEST DUP1 SWAP2 POP POP SWAP3 POP SWAP3 POP SWAP3 JUMP JUMPDEST PUSH1 0x0 DUP1 PUSH1 0x40 DUP4 DUP6 SUB SLT ISZERO PUSH2 0xE59 JUMPI PUSH1 0x0 DUP1 REVERT JUMPDEST PUSH2 0xE62 DUP4 PUSH2 0xD90 JUMP JUMPDEST SWAP2 POP PUSH1 0x20 DUP4 ADD CALLDATALOAD PUSH2 0xE72 DUP2 PUSH2 0xDF1 JUMP JUMPDEST DUP1 SWAP2 POP POP SWAP3 POP SWAP3 SWAP1 POP JUMP JUMPDEST PUSH1 0x0 DUP1 PUSH1 0x0 PUSH1 0x60 DUP5 DUP7 SUB SLT ISZERO PUSH2 0xE92 JUMPI PUSH1 0x0 DUP1 REVERT JUMPDEST DUP4 CALLDATALOAD PUSH2 0xE9D DUP2 PUSH2 0xD4E JUMP JUMPDEST SWAP3 POP PUSH2 0xE2B PUSH1 0x20 DUP6 ADD PUSH2 0xDE0 JUMP JUMPDEST PUSH1 0x0 DUP1 PUSH1 0x40 DUP4 DUP6 SUB SLT ISZERO PUSH2 0xEBE JUMPI PUSH1 0x0 DUP1 REVERT JUMPDEST DUP3 CALLDATALOAD PUSH2 0xEC9 DUP2 PUSH2 0xD4E JUMP JUMPDEST SWAP2 POP PUSH1 0x20 DUP4 ADD CALLDATALOAD PUSH2 0xE72 DUP2 PUSH2 0xD4E JUMP JUMPDEST PUSH1 0x0 DUP1 PUSH1 0x0 PUSH1 0x60 DUP5 DUP7 SUB SLT ISZERO PUSH2 0xEEE JUMPI PUSH1 0x0 DUP1 REVERT JUMPDEST DUP4 CALLDATALOAD PUSH2 0xEF9 DUP2 PUSH2 0xD4E JUMP JUMPDEST SWAP3 POP PUSH1 0x20 DUP5 ADD CALLDATALOAD PUSH2 0xF09 DUP2 PUSH2 0xD4E JUMP JUMPDEST SWAP2 POP PUSH2 0xF17 PUSH1 0x40 DUP6 ADD PUSH2 0xD90 JUMP JUMPDEST SWAP1 POP SWAP3 POP SWAP3 POP SWAP3 JUMP JUMPDEST PUSH1 0x0 DUP1 PUSH1 0x40 DUP4 DUP6 SUB SLT ISZERO PUSH2 0xF33 JUMPI PUSH1 0x0 DUP1 REVERT JUMPDEST PUSH2 0xF3C DUP4 PUSH2 0xDE0 JUMP JUMPDEST SWAP2 POP PUSH2 0xF4A PUSH1 0x20 DUP5 ADD PUSH2 0xD90 JUMP JUMPDEST SWAP1 POP SWAP3 POP SWAP3 SWAP1 POP JUMP JUMPDEST PUSH1 0x0 DUP1 PUSH1 0x40 DUP4 DUP6 SUB SLT ISZERO PUSH2 0xF66 JUMPI PUSH1 0x0 DUP1 REVERT JUMPDEST DUP3 CALLDATALOAD PUSH2 0xF71 DUP2 PUSH2 0xD4E JUMP JUMPDEST SWAP2 POP PUSH2 0xF4A PUSH1 0x20 DUP5 ADD PUSH2 0xDE0 JUMP JUMPDEST PUSH1 0x0 PUSH1 0x20 DUP3 DUP5 SUB SLT ISZERO PUSH2 0xF91 JUMPI PUSH1 0x0 DUP1 REVERT JUMPDEST DUP2 MLOAD PUSH2 0xB32 DUP2 PUSH2 0xDF1 JUMP INVALID LOG2 PUSH5 0x6970667358 0x22 SLT KECCAK256 PC 0xE5 AND ADD 0xB8 0x1E SWAP4 0xD2 0xB5 DUP6 PUSH29 0xC1190B2D9AC98CD995CCA4A2C1B5F68F8BCE3FFC6064736F6C63430008 EQ STOP CALLER "},"gasEstimates":{"creation":{"codeDepositCost":"810000","executionCost":"infinite","totalCost":"infinite"},"external":{"authority()":"2380","canCall(address,address,bytes4)":"infinite","doesRoleHaveCapability(uint8,bytes4)":"infinite","doesUserHaveRole(address,uint8)":"2683","getRolesWithCapability(bytes4)":"2562","getTargetCustomAuthority(address)":"2605","getUserRoles(address)":"2514","isCapabilityPublic(bytes4)":"2565","owner()":"2336","setAuthority(address)":"infinite","setPublicCapability(bytes4,bool)":"infinite","setRoleCapability(uint8,bytes4,bool)":"infinite","setTargetCustomAuthority(address,address)":"infinite","setUserRole(address,uint8,bool)":"infinite","transferOwnership(address)":"infinite"}},"methodIdentifiers":{"authority()":"bf7e214f","canCall(address,address,bytes4)":"b7009613","doesRoleHaveCapability(uint8,bytes4)":"e688747b","doesUserHaveRole(address,uint8)":"ea7ca276","getRolesWithCapability(bytes4)":"ed0d0efb","getTargetCustomAuthority(address)":"c53a3985","getUserRoles(address)":"06a36aee","isCapabilityPublic(bytes4)":"0bade8a4","owner()":"8da5cb5b","setAuthority(address)":"7a9e5e4b","setPublicCapability(bytes4,bool)":"4b5159da","setRoleCapability(uint8,bytes4,bool)":"0ea9b75b","setTargetCustomAuthority(address,address)":"728b952b","setUserRole(address,uint8,bool)":"67aff484","transferOwnership(address)":"f2fde38b"}},"storageLayout":{"storage":[{"astId":2623,"contract":"solmate/auth/authorities/MultiRolesAuthority.sol:MultiRolesAuthority","label":"owner","offset":0,"slot":"0","type":"t_address"},{"astId":2626,"contract":"solmate/auth/authorities/MultiRolesAuthority.sol:MultiRolesAuthority","label":"authority","offset":0,"slot":"1","type":"t_contract(Authority)2777"},{"astId":2834,"contract":"solmate/auth/authorities/MultiRolesAuthority.sol:MultiRolesAuthority","label":"getTargetCustomAuthority","offset":0,"slot":"2","type":"t_mapping(t_address,t_contract(Authority)2777)"},{"astId":2838,"contract":"solmate/auth/authorities/MultiRolesAuthority.sol:MultiRolesAuthority","label":"getUserRoles","offset":0,"slot":"3","type":"t_mapping(t_address,t_bytes32)"},{"astId":2842,"contract":"solmate/auth/authorities/MultiRolesAuthority.sol:MultiRolesAuthority","label":"isCapabilityPublic","offset":0,"slot":"4","type":"t_mapping(t_bytes4,t_bool)"},{"astId":2846,"contract":"solmate/auth/authorities/MultiRolesAuthority.sol:MultiRolesAuthority","label":"getRolesWithCapability","offset":0,"slot":"5","type":"t_mapping(t_bytes4,t_bytes32)"}],"types":{"t_address":{"encoding":"inplace","label":"address","numberOfBytes":"20"},"t_bool":{"encoding":"inplace","label":"bool","numberOfBytes":"1"},"t_bytes32":{"encoding":"inplace","label":"bytes32","numberOfBytes":"32"},"t_bytes4":{"encoding":"inplace","label":"bytes4","numberOfBytes":"4"},"t_contract(Authority)2777":{"encoding":"inplace","label":"contract Authority","numberOfBytes":"20"},"t_mapping(t_address,t_bytes32)":{"encoding":"mapping","key":"t_address","label":"mapping(address => bytes32)","numberOfBytes":"32","value":"t_bytes32"},"t_mapping(t_address,t_contract(Authority)2777)":{"encoding":"mapping","key":"t_address","label":"mapping(address => contract Authority)","numberOfBytes":"32","value":"t_contract(Authority)2777"},"t_mapping(t_bytes4,t_bool)":{"encoding":"mapping","key":"t_bytes4","label":"mapping(bytes4 => bool)","numberOfBytes":"32","value":"t_bool"},"t_mapping(t_bytes4,t_bytes32)":{"encoding":"mapping","key":"t_bytes4","label":"mapping(bytes4 => bytes32)","numberOfBytes":"32","value":"t_bytes32"}}},"userdoc":{"kind":"user","methods":{},"notice":"Flexible and target agnostic role based Authority that supports up to 256 roles.","version":1}}}}