{
  "_format": "hh-sol-artifact-1",
  "contractName": "HyperdriveFactory",
  "sourceName": "contracts/src/factory/HyperdriveFactory.sol",
  "abi": [
    {
      "inputs": [
        {
          "components": [
            {
              "internalType": "address",
              "name": "governance",
              "type": "address"
            },
            {
              "internalType": "address",
              "name": "hyperdriveGovernance",
              "type": "address"
            },
            {
              "internalType": "address[]",
              "name": "defaultPausers",
              "type": "address[]"
            },
            {
              "internalType": "address",
              "name": "feeCollector",
              "type": "address"
            },
            {
              "internalType": "address",
              "name": "sweepCollector",
              "type": "address"
            },
            {
              "internalType": "uint256",
              "name": "checkpointDurationResolution",
              "type": "uint256"
            },
            {
              "internalType": "uint256",
              "name": "minCheckpointDuration",
              "type": "uint256"
            },
            {
              "internalType": "uint256",
              "name": "maxCheckpointDuration",
              "type": "uint256"
            },
            {
              "internalType": "uint256",
              "name": "minPositionDuration",
              "type": "uint256"
            },
            {
              "internalType": "uint256",
              "name": "maxPositionDuration",
              "type": "uint256"
            },
            {
              "internalType": "uint256",
              "name": "minFixedAPR",
              "type": "uint256"
            },
            {
              "internalType": "uint256",
              "name": "maxFixedAPR",
              "type": "uint256"
            },
            {
              "internalType": "uint256",
              "name": "minTimeStretchAPR",
              "type": "uint256"
            },
            {
              "internalType": "uint256",
              "name": "maxTimeStretchAPR",
              "type": "uint256"
            },
            {
              "components": [
                {
                  "internalType": "uint256",
                  "name": "curve",
                  "type": "uint256"
                },
                {
                  "internalType": "uint256",
                  "name": "flat",
                  "type": "uint256"
                },
                {
                  "internalType": "uint256",
                  "name": "governanceLP",
                  "type": "uint256"
                },
                {
                  "internalType": "uint256",
                  "name": "governanceZombie",
                  "type": "uint256"
                }
              ],
              "internalType": "struct IHyperdrive.Fees",
              "name": "minFees",
              "type": "tuple"
            },
            {
              "components": [
                {
                  "internalType": "uint256",
                  "name": "curve",
                  "type": "uint256"
                },
                {
                  "internalType": "uint256",
                  "name": "flat",
                  "type": "uint256"
                },
                {
                  "internalType": "uint256",
                  "name": "governanceLP",
                  "type": "uint256"
                },
                {
                  "internalType": "uint256",
                  "name": "governanceZombie",
                  "type": "uint256"
                }
              ],
              "internalType": "struct IHyperdrive.Fees",
              "name": "maxFees",
              "type": "tuple"
            },
            {
              "internalType": "address",
              "name": "linkerFactory",
              "type": "address"
            },
            {
              "internalType": "bytes32",
              "name": "linkerCodeHash",
              "type": "bytes32"
            }
          ],
          "internalType": "struct HyperdriveFactory.FactoryConfig",
          "name": "_factoryConfig",
          "type": "tuple"
        },
        {
          "internalType": "string",
          "name": "_name",
          "type": "string"
        }
      ],
      "stateMutability": "nonpayable",
      "type": "constructor"
    },
    {
      "inputs": [],
      "name": "DeployerCoordinatorAlreadyAdded",
      "type": "error"
    },
    {
      "inputs": [],
      "name": "DeployerCoordinatorIndexMismatch",
      "type": "error"
    },
    {
      "inputs": [],
      "name": "DeployerCoordinatorNotAdded",
      "type": "error"
    },
    {
      "inputs": [],
      "name": "EndIndexTooLarge",
      "type": "error"
    },
    {
      "inputs": [],
      "name": "InvalidCheckpointDuration",
      "type": "error"
    },
    {
      "inputs": [],
      "name": "InvalidCheckpointDurationResolution",
      "type": "error"
    },
    {
      "inputs": [],
      "name": "InvalidDeployConfig",
      "type": "error"
    },
    {
      "inputs": [],
      "name": "InvalidDeployerCoordinator",
      "type": "error"
    },
    {
      "inputs": [],
      "name": "InvalidFees",
      "type": "error"
    },
    {
      "inputs": [],
      "name": "InvalidFixedAPR",
      "type": "error"
    },
    {
      "inputs": [],
      "name": "InvalidIndexes",
      "type": "error"
    },
    {
      "inputs": [],
      "name": "InvalidMaxCheckpointDuration",
      "type": "error"
    },
    {
      "inputs": [],
      "name": "InvalidMaxFees",
      "type": "error"
    },
    {
      "inputs": [],
      "name": "InvalidMaxFixedAPR",
      "type": "error"
    },
    {
      "inputs": [],
      "name": "InvalidMaxPositionDuration",
      "type": "error"
    },
    {
      "inputs": [],
      "name": "InvalidMaxTimeStretchAPR",
      "type": "error"
    },
    {
      "inputs": [],
      "name": "InvalidMinCheckpointDuration",
      "type": "error"
    },
    {
      "inputs": [],
      "name": "InvalidMinFees",
      "type": "error"
    },
    {
      "inputs": [],
      "name": "InvalidMinFixedAPR",
      "type": "error"
    },
    {
      "inputs": [],
      "name": "InvalidMinPositionDuration",
      "type": "error"
    },
    {
      "inputs": [],
      "name": "InvalidMinTimeStretchAPR",
      "type": "error"
    },
    {
      "inputs": [],
      "name": "InvalidPositionDuration",
      "type": "error"
    },
    {
      "inputs": [],
      "name": "InvalidTimeStretchAPR",
      "type": "error"
    },
    {
      "inputs": [],
      "name": "LnInvalidInput",
      "type": "error"
    },
    {
      "inputs": [],
      "name": "ReceiveLocked",
      "type": "error"
    },
    {
      "inputs": [],
      "name": "TransferFailed",
      "type": "error"
    },
    {
      "inputs": [],
      "name": "Unauthorized",
      "type": "error"
    },
    {
      "inputs": [],
      "name": "UnsafeCastToInt256",
      "type": "error"
    },
    {
      "anonymous": false,
      "inputs": [
        {
          "indexed": false,
          "internalType": "uint256",
          "name": "newCheckpointDurationResolution",
          "type": "uint256"
        }
      ],
      "name": "CheckpointDurationResolutionUpdated",
      "type": "event"
    },
    {
      "anonymous": false,
      "inputs": [
        {
          "indexed": false,
          "internalType": "address[]",
          "name": "newDefaultPausers",
          "type": "address[]"
        }
      ],
      "name": "DefaultPausersUpdated",
      "type": "event"
    },
    {
      "anonymous": false,
      "inputs": [
        {
          "indexed": true,
          "internalType": "address",
          "name": "deployerCoordinator",
          "type": "address"
        },
        {
          "indexed": false,
          "internalType": "address",
          "name": "hyperdrive",
          "type": "address"
        },
        {
          "components": [
            {
              "internalType": "contract IERC20",
              "name": "baseToken",
              "type": "address"
            },
            {
              "internalType": "contract IERC20",
              "name": "vaultSharesToken",
              "type": "address"
            },
            {
              "internalType": "address",
              "name": "linkerFactory",
              "type": "address"
            },
            {
              "internalType": "bytes32",
              "name": "linkerCodeHash",
              "type": "bytes32"
            },
            {
              "internalType": "uint256",
              "name": "minimumShareReserves",
              "type": "uint256"
            },
            {
              "internalType": "uint256",
              "name": "minimumTransactionAmount",
              "type": "uint256"
            },
            {
              "internalType": "uint256",
              "name": "positionDuration",
              "type": "uint256"
            },
            {
              "internalType": "uint256",
              "name": "checkpointDuration",
              "type": "uint256"
            },
            {
              "internalType": "uint256",
              "name": "timeStretch",
              "type": "uint256"
            },
            {
              "internalType": "address",
              "name": "governance",
              "type": "address"
            },
            {
              "internalType": "address",
              "name": "feeCollector",
              "type": "address"
            },
            {
              "internalType": "address",
              "name": "sweepCollector",
              "type": "address"
            },
            {
              "components": [
                {
                  "internalType": "uint256",
                  "name": "curve",
                  "type": "uint256"
                },
                {
                  "internalType": "uint256",
                  "name": "flat",
                  "type": "uint256"
                },
                {
                  "internalType": "uint256",
                  "name": "governanceLP",
                  "type": "uint256"
                },
                {
                  "internalType": "uint256",
                  "name": "governanceZombie",
                  "type": "uint256"
                }
              ],
              "internalType": "struct IHyperdrive.Fees",
              "name": "fees",
              "type": "tuple"
            }
          ],
          "indexed": false,
          "internalType": "struct IHyperdrive.PoolDeployConfig",
          "name": "config",
          "type": "tuple"
        },
        {
          "indexed": false,
          "internalType": "bytes",
          "name": "extraData",
          "type": "bytes"
        }
      ],
      "name": "Deployed",
      "type": "event"
    },
    {
      "anonymous": false,
      "inputs": [
        {
          "indexed": true,
          "internalType": "address",
          "name": "deployerCoordinator",
          "type": "address"
        }
      ],
      "name": "DeployerCoordinatorAdded",
      "type": "event"
    },
    {
      "anonymous": false,
      "inputs": [
        {
          "indexed": true,
          "internalType": "address",
          "name": "deployerCoordinator",
          "type": "address"
        }
      ],
      "name": "DeployerCoordinatorRemoved",
      "type": "event"
    },
    {
      "anonymous": false,
      "inputs": [
        {
          "indexed": true,
          "internalType": "address",
          "name": "newFeeCollector",
          "type": "address"
        }
      ],
      "name": "FeeCollectorUpdated",
      "type": "event"
    },
    {
      "anonymous": false,
      "inputs": [
        {
          "indexed": true,
          "internalType": "address",
          "name": "governance",
          "type": "address"
        }
      ],
      "name": "GovernanceUpdated",
      "type": "event"
    },
    {
      "anonymous": false,
      "inputs": [
        {
          "indexed": true,
          "internalType": "address",
          "name": "hyperdriveGovernance",
          "type": "address"
        }
      ],
      "name": "HyperdriveGovernanceUpdated",
      "type": "event"
    },
    {
      "anonymous": false,
      "inputs": [
        {
          "indexed": true,
          "internalType": "bytes32",
          "name": "newLinkerCodeHash",
          "type": "bytes32"
        }
      ],
      "name": "LinkerCodeHashUpdated",
      "type": "event"
    },
    {
      "anonymous": false,
      "inputs": [
        {
          "indexed": true,
          "internalType": "address",
          "name": "newLinkerFactory",
          "type": "address"
        }
      ],
      "name": "LinkerFactoryUpdated",
      "type": "event"
    },
    {
      "anonymous": false,
      "inputs": [
        {
          "indexed": false,
          "internalType": "uint256",
          "name": "newMaxCheckpointDuration",
          "type": "uint256"
        }
      ],
      "name": "MaxCheckpointDurationUpdated",
      "type": "event"
    },
    {
      "anonymous": false,
      "inputs": [
        {
          "components": [
            {
              "internalType": "uint256",
              "name": "curve",
              "type": "uint256"
            },
            {
              "internalType": "uint256",
              "name": "flat",
              "type": "uint256"
            },
            {
              "internalType": "uint256",
              "name": "governanceLP",
              "type": "uint256"
            },
            {
              "internalType": "uint256",
              "name": "governanceZombie",
              "type": "uint256"
            }
          ],
          "indexed": false,
          "internalType": "struct IHyperdrive.Fees",
          "name": "newMaxFees",
          "type": "tuple"
        }
      ],
      "name": "MaxFeesUpdated",
      "type": "event"
    },
    {
      "anonymous": false,
      "inputs": [
        {
          "indexed": false,
          "internalType": "uint256",
          "name": "newMaxFixedAPR",
          "type": "uint256"
        }
      ],
      "name": "MaxFixedAPRUpdated",
      "type": "event"
    },
    {
      "anonymous": false,
      "inputs": [
        {
          "indexed": false,
          "internalType": "uint256",
          "name": "newMaxPositionDuration",
          "type": "uint256"
        }
      ],
      "name": "MaxPositionDurationUpdated",
      "type": "event"
    },
    {
      "anonymous": false,
      "inputs": [
        {
          "indexed": false,
          "internalType": "uint256",
          "name": "newMaxTimeStretchAPR",
          "type": "uint256"
        }
      ],
      "name": "MaxTimeStretchAPRUpdated",
      "type": "event"
    },
    {
      "anonymous": false,
      "inputs": [
        {
          "indexed": false,
          "internalType": "uint256",
          "name": "newMinCheckpointDuration",
          "type": "uint256"
        }
      ],
      "name": "MinCheckpointDurationUpdated",
      "type": "event"
    },
    {
      "anonymous": false,
      "inputs": [
        {
          "components": [
            {
              "internalType": "uint256",
              "name": "curve",
              "type": "uint256"
            },
            {
              "internalType": "uint256",
              "name": "flat",
              "type": "uint256"
            },
            {
              "internalType": "uint256",
              "name": "governanceLP",
              "type": "uint256"
            },
            {
              "internalType": "uint256",
              "name": "governanceZombie",
              "type": "uint256"
            }
          ],
          "indexed": false,
          "internalType": "struct IHyperdrive.Fees",
          "name": "newMinFees",
          "type": "tuple"
        }
      ],
      "name": "MinFeesUpdated",
      "type": "event"
    },
    {
      "anonymous": false,
      "inputs": [
        {
          "indexed": false,
          "internalType": "uint256",
          "name": "newMinFixedAPR",
          "type": "uint256"
        }
      ],
      "name": "MinFixedAPRUpdated",
      "type": "event"
    },
    {
      "anonymous": false,
      "inputs": [
        {
          "indexed": false,
          "internalType": "uint256",
          "name": "newMinPositionDuration",
          "type": "uint256"
        }
      ],
      "name": "MinPositionDurationUpdated",
      "type": "event"
    },
    {
      "anonymous": false,
      "inputs": [
        {
          "indexed": false,
          "internalType": "uint256",
          "name": "newMinTimeStretchAPR",
          "type": "uint256"
        }
      ],
      "name": "MinTimeStretchAPRUpdated",
      "type": "event"
    },
    {
      "anonymous": false,
      "inputs": [
        {
          "indexed": true,
          "internalType": "address",
          "name": "newSweepCollector",
          "type": "address"
        }
      ],
      "name": "SweepCollectorUpdated",
      "type": "event"
    },
    {
      "inputs": [
        {
          "internalType": "address",
          "name": "_deployerCoordinator",
          "type": "address"
        }
      ],
      "name": "addDeployerCoordinator",
      "outputs": [],
      "stateMutability": "nonpayable",
      "type": "function"
    },
    {
      "inputs": [],
      "name": "checkpointDurationResolution",
      "outputs": [
        {
          "internalType": "uint256",
          "name": "",
          "type": "uint256"
        }
      ],
      "stateMutability": "view",
      "type": "function"
    },
    {
      "inputs": [],
      "name": "defaultPausers",
      "outputs": [
        {
          "internalType": "address[]",
          "name": "",
          "type": "address[]"
        }
      ],
      "stateMutability": "view",
      "type": "function"
    },
    {
      "inputs": [
        {
          "internalType": "bytes32",
          "name": "_deploymentId",
          "type": "bytes32"
        },
        {
          "internalType": "address",
          "name": "_deployerCoordinator",
          "type": "address"
        },
        {
          "components": [
            {
              "internalType": "contract IERC20",
              "name": "baseToken",
              "type": "address"
            },
            {
              "internalType": "contract IERC20",
              "name": "vaultSharesToken",
              "type": "address"
            },
            {
              "internalType": "address",
              "name": "linkerFactory",
              "type": "address"
            },
            {
              "internalType": "bytes32",
              "name": "linkerCodeHash",
              "type": "bytes32"
            },
            {
              "internalType": "uint256",
              "name": "minimumShareReserves",
              "type": "uint256"
            },
            {
              "internalType": "uint256",
              "name": "minimumTransactionAmount",
              "type": "uint256"
            },
            {
              "internalType": "uint256",
              "name": "positionDuration",
              "type": "uint256"
            },
            {
              "internalType": "uint256",
              "name": "checkpointDuration",
              "type": "uint256"
            },
            {
              "internalType": "uint256",
              "name": "timeStretch",
              "type": "uint256"
            },
            {
              "internalType": "address",
              "name": "governance",
              "type": "address"
            },
            {
              "internalType": "address",
              "name": "feeCollector",
              "type": "address"
            },
            {
              "internalType": "address",
              "name": "sweepCollector",
              "type": "address"
            },
            {
              "components": [
                {
                  "internalType": "uint256",
                  "name": "curve",
                  "type": "uint256"
                },
                {
                  "internalType": "uint256",
                  "name": "flat",
                  "type": "uint256"
                },
                {
                  "internalType": "uint256",
                  "name": "governanceLP",
                  "type": "uint256"
                },
                {
                  "internalType": "uint256",
                  "name": "governanceZombie",
                  "type": "uint256"
                }
              ],
              "internalType": "struct IHyperdrive.Fees",
              "name": "fees",
              "type": "tuple"
            }
          ],
          "internalType": "struct IHyperdrive.PoolDeployConfig",
          "name": "_config",
          "type": "tuple"
        },
        {
          "internalType": "bytes",
          "name": "_extraData",
          "type": "bytes"
        },
        {
          "internalType": "uint256",
          "name": "_contribution",
          "type": "uint256"
        },
        {
          "internalType": "uint256",
          "name": "_fixedAPR",
          "type": "uint256"
        },
        {
          "internalType": "uint256",
          "name": "_timeStretchAPR",
          "type": "uint256"
        },
        {
          "components": [
            {
              "internalType": "address",
              "name": "destination",
              "type": "address"
            },
            {
              "internalType": "bool",
              "name": "asBase",
              "type": "bool"
            },
            {
              "internalType": "bytes",
              "name": "extraData",
              "type": "bytes"
            }
          ],
          "internalType": "struct IHyperdrive.Options",
          "name": "_options",
          "type": "tuple"
        },
        {
          "internalType": "bytes32",
          "name": "_salt",
          "type": "bytes32"
        }
      ],
      "name": "deployAndInitialize",
      "outputs": [
        {
          "internalType": "contract IHyperdrive",
          "name": "",
          "type": "address"
        }
      ],
      "stateMutability": "payable",
      "type": "function"
    },
    {
      "inputs": [
        {
          "internalType": "bytes32",
          "name": "_deploymentId",
          "type": "bytes32"
        },
        {
          "internalType": "address",
          "name": "_deployerCoordinator",
          "type": "address"
        },
        {
          "components": [
            {
              "internalType": "contract IERC20",
              "name": "baseToken",
              "type": "address"
            },
            {
              "internalType": "contract IERC20",
              "name": "vaultSharesToken",
              "type": "address"
            },
            {
              "internalType": "address",
              "name": "linkerFactory",
              "type": "address"
            },
            {
              "internalType": "bytes32",
              "name": "linkerCodeHash",
              "type": "bytes32"
            },
            {
              "internalType": "uint256",
              "name": "minimumShareReserves",
              "type": "uint256"
            },
            {
              "internalType": "uint256",
              "name": "minimumTransactionAmount",
              "type": "uint256"
            },
            {
              "internalType": "uint256",
              "name": "positionDuration",
              "type": "uint256"
            },
            {
              "internalType": "uint256",
              "name": "checkpointDuration",
              "type": "uint256"
            },
            {
              "internalType": "uint256",
              "name": "timeStretch",
              "type": "uint256"
            },
            {
              "internalType": "address",
              "name": "governance",
              "type": "address"
            },
            {
              "internalType": "address",
              "name": "feeCollector",
              "type": "address"
            },
            {
              "internalType": "address",
              "name": "sweepCollector",
              "type": "address"
            },
            {
              "components": [
                {
                  "internalType": "uint256",
                  "name": "curve",
                  "type": "uint256"
                },
                {
                  "internalType": "uint256",
                  "name": "flat",
                  "type": "uint256"
                },
                {
                  "internalType": "uint256",
                  "name": "governanceLP",
                  "type": "uint256"
                },
                {
                  "internalType": "uint256",
                  "name": "governanceZombie",
                  "type": "uint256"
                }
              ],
              "internalType": "struct IHyperdrive.Fees",
              "name": "fees",
              "type": "tuple"
            }
          ],
          "internalType": "struct IHyperdrive.PoolDeployConfig",
          "name": "_config",
          "type": "tuple"
        },
        {
          "internalType": "bytes",
          "name": "_extraData",
          "type": "bytes"
        },
        {
          "internalType": "uint256",
          "name": "_fixedAPR",
          "type": "uint256"
        },
        {
          "internalType": "uint256",
          "name": "_timeStretchAPR",
          "type": "uint256"
        },
        {
          "internalType": "uint256",
          "name": "_targetIndex",
          "type": "uint256"
        },
        {
          "internalType": "bytes32",
          "name": "_salt",
          "type": "bytes32"
        }
      ],
      "name": "deployTarget",
      "outputs": [
        {
          "internalType": "address",
          "name": "",
          "type": "address"
        }
      ],
      "stateMutability": "nonpayable",
      "type": "function"
    },
    {
      "inputs": [],
      "name": "feeCollector",
      "outputs": [
        {
          "internalType": "address",
          "name": "",
          "type": "address"
        }
      ],
      "stateMutability": "view",
      "type": "function"
    },
    {
      "inputs": [
        {
          "internalType": "uint256",
          "name": "index",
          "type": "uint256"
        }
      ],
      "name": "getDeployerCoordinatorAtIndex",
      "outputs": [
        {
          "internalType": "address",
          "name": "",
          "type": "address"
        }
      ],
      "stateMutability": "view",
      "type": "function"
    },
    {
      "inputs": [
        {
          "internalType": "uint256",
          "name": "startIndex",
          "type": "uint256"
        },
        {
          "internalType": "uint256",
          "name": "endIndex",
          "type": "uint256"
        }
      ],
      "name": "getDeployerCoordinatorsInRange",
      "outputs": [
        {
          "internalType": "address[]",
          "name": "range",
          "type": "address[]"
        }
      ],
      "stateMutability": "view",
      "type": "function"
    },
    {
      "inputs": [
        {
          "internalType": "uint256",
          "name": "index",
          "type": "uint256"
        }
      ],
      "name": "getInstanceAtIndex",
      "outputs": [
        {
          "internalType": "address",
          "name": "",
          "type": "address"
        }
      ],
      "stateMutability": "view",
      "type": "function"
    },
    {
      "inputs": [
        {
          "internalType": "uint256",
          "name": "startIndex",
          "type": "uint256"
        },
        {
          "internalType": "uint256",
          "name": "endIndex",
          "type": "uint256"
        }
      ],
      "name": "getInstancesInRange",
      "outputs": [
        {
          "internalType": "address[]",
          "name": "range",
          "type": "address[]"
        }
      ],
      "stateMutability": "view",
      "type": "function"
    },
    {
      "inputs": [],
      "name": "getNumberOfDeployerCoordinators",
      "outputs": [
        {
          "internalType": "uint256",
          "name": "",
          "type": "uint256"
        }
      ],
      "stateMutability": "view",
      "type": "function"
    },
    {
      "inputs": [],
      "name": "getNumberOfInstances",
      "outputs": [
        {
          "internalType": "uint256",
          "name": "",
          "type": "uint256"
        }
      ],
      "stateMutability": "view",
      "type": "function"
    },
    {
      "inputs": [],
      "name": "governance",
      "outputs": [
        {
          "internalType": "address",
          "name": "",
          "type": "address"
        }
      ],
      "stateMutability": "view",
      "type": "function"
    },
    {
      "inputs": [],
      "name": "hyperdriveGovernance",
      "outputs": [
        {
          "internalType": "address",
          "name": "",
          "type": "address"
        }
      ],
      "stateMutability": "view",
      "type": "function"
    },
    {
      "inputs": [
        {
          "internalType": "address",
          "name": "instance",
          "type": "address"
        }
      ],
      "name": "instancesToDeployerCoordinators",
      "outputs": [
        {
          "internalType": "address",
          "name": "deployCoordinator",
          "type": "address"
        }
      ],
      "stateMutability": "view",
      "type": "function"
    },
    {
      "inputs": [
        {
          "internalType": "address",
          "name": "",
          "type": "address"
        }
      ],
      "name": "isDeployerCoordinator",
      "outputs": [
        {
          "internalType": "bool",
          "name": "",
          "type": "bool"
        }
      ],
      "stateMutability": "view",
      "type": "function"
    },
    {
      "inputs": [
        {
          "internalType": "address",
          "name": "",
          "type": "address"
        }
      ],
      "name": "isInstance",
      "outputs": [
        {
          "internalType": "bool",
          "name": "",
          "type": "bool"
        }
      ],
      "stateMutability": "view",
      "type": "function"
    },
    {
      "inputs": [],
      "name": "linkerCodeHash",
      "outputs": [
        {
          "internalType": "bytes32",
          "name": "",
          "type": "bytes32"
        }
      ],
      "stateMutability": "view",
      "type": "function"
    },
    {
      "inputs": [],
      "name": "linkerFactory",
      "outputs": [
        {
          "internalType": "address",
          "name": "",
          "type": "address"
        }
      ],
      "stateMutability": "view",
      "type": "function"
    },
    {
      "inputs": [],
      "name": "maxCheckpointDuration",
      "outputs": [
        {
          "internalType": "uint256",
          "name": "",
          "type": "uint256"
        }
      ],
      "stateMutability": "view",
      "type": "function"
    },
    {
      "inputs": [],
      "name": "maxFees",
      "outputs": [
        {
          "components": [
            {
              "internalType": "uint256",
              "name": "curve",
              "type": "uint256"
            },
            {
              "internalType": "uint256",
              "name": "flat",
              "type": "uint256"
            },
            {
              "internalType": "uint256",
              "name": "governanceLP",
              "type": "uint256"
            },
            {
              "internalType": "uint256",
              "name": "governanceZombie",
              "type": "uint256"
            }
          ],
          "internalType": "struct IHyperdrive.Fees",
          "name": "",
          "type": "tuple"
        }
      ],
      "stateMutability": "view",
      "type": "function"
    },
    {
      "inputs": [],
      "name": "maxFixedAPR",
      "outputs": [
        {
          "internalType": "uint256",
          "name": "",
          "type": "uint256"
        }
      ],
      "stateMutability": "view",
      "type": "function"
    },
    {
      "inputs": [],
      "name": "maxPositionDuration",
      "outputs": [
        {
          "internalType": "uint256",
          "name": "",
          "type": "uint256"
        }
      ],
      "stateMutability": "view",
      "type": "function"
    },
    {
      "inputs": [],
      "name": "maxTimeStretchAPR",
      "outputs": [
        {
          "internalType": "uint256",
          "name": "",
          "type": "uint256"
        }
      ],
      "stateMutability": "view",
      "type": "function"
    },
    {
      "inputs": [],
      "name": "minCheckpointDuration",
      "outputs": [
        {
          "internalType": "uint256",
          "name": "",
          "type": "uint256"
        }
      ],
      "stateMutability": "view",
      "type": "function"
    },
    {
      "inputs": [],
      "name": "minFees",
      "outputs": [
        {
          "components": [
            {
              "internalType": "uint256",
              "name": "curve",
              "type": "uint256"
            },
            {
              "internalType": "uint256",
              "name": "flat",
              "type": "uint256"
            },
            {
              "internalType": "uint256",
              "name": "governanceLP",
              "type": "uint256"
            },
            {
              "internalType": "uint256",
              "name": "governanceZombie",
              "type": "uint256"
            }
          ],
          "internalType": "struct IHyperdrive.Fees",
          "name": "",
          "type": "tuple"
        }
      ],
      "stateMutability": "view",
      "type": "function"
    },
    {
      "inputs": [],
      "name": "minFixedAPR",
      "outputs": [
        {
          "internalType": "uint256",
          "name": "",
          "type": "uint256"
        }
      ],
      "stateMutability": "view",
      "type": "function"
    },
    {
      "inputs": [],
      "name": "minPositionDuration",
      "outputs": [
        {
          "internalType": "uint256",
          "name": "",
          "type": "uint256"
        }
      ],
      "stateMutability": "view",
      "type": "function"
    },
    {
      "inputs": [],
      "name": "minTimeStretchAPR",
      "outputs": [
        {
          "internalType": "uint256",
          "name": "",
          "type": "uint256"
        }
      ],
      "stateMutability": "view",
      "type": "function"
    },
    {
      "inputs": [],
      "name": "name",
      "outputs": [
        {
          "internalType": "string",
          "name": "",
          "type": "string"
        }
      ],
      "stateMutability": "view",
      "type": "function"
    },
    {
      "inputs": [
        {
          "internalType": "address",
          "name": "_deployerCoordinator",
          "type": "address"
        },
        {
          "internalType": "uint256",
          "name": "_index",
          "type": "uint256"
        }
      ],
      "name": "removeDeployerCoordinator",
      "outputs": [],
      "stateMutability": "nonpayable",
      "type": "function"
    },
    {
      "inputs": [],
      "name": "sweepCollector",
      "outputs": [
        {
          "internalType": "address",
          "name": "",
          "type": "address"
        }
      ],
      "stateMutability": "view",
      "type": "function"
    },
    {
      "inputs": [
        {
          "internalType": "uint256",
          "name": "_checkpointDurationResolution",
          "type": "uint256"
        }
      ],
      "name": "updateCheckpointDurationResolution",
      "outputs": [],
      "stateMutability": "nonpayable",
      "type": "function"
    },
    {
      "inputs": [
        {
          "internalType": "address[]",
          "name": "_defaultPausers_",
          "type": "address[]"
        }
      ],
      "name": "updateDefaultPausers",
      "outputs": [],
      "stateMutability": "nonpayable",
      "type": "function"
    },
    {
      "inputs": [
        {
          "internalType": "address",
          "name": "_feeCollector",
          "type": "address"
        }
      ],
      "name": "updateFeeCollector",
      "outputs": [],
      "stateMutability": "nonpayable",
      "type": "function"
    },
    {
      "inputs": [
        {
          "internalType": "address",
          "name": "_governance",
          "type": "address"
        }
      ],
      "name": "updateGovernance",
      "outputs": [],
      "stateMutability": "nonpayable",
      "type": "function"
    },
    {
      "inputs": [
        {
          "internalType": "address",
          "name": "_hyperdriveGovernance",
          "type": "address"
        }
      ],
      "name": "updateHyperdriveGovernance",
      "outputs": [],
      "stateMutability": "nonpayable",
      "type": "function"
    },
    {
      "inputs": [
        {
          "internalType": "bytes32",
          "name": "_linkerCodeHash",
          "type": "bytes32"
        }
      ],
      "name": "updateLinkerCodeHash",
      "outputs": [],
      "stateMutability": "nonpayable",
      "type": "function"
    },
    {
      "inputs": [
        {
          "internalType": "address",
          "name": "_linkerFactory",
          "type": "address"
        }
      ],
      "name": "updateLinkerFactory",
      "outputs": [],
      "stateMutability": "nonpayable",
      "type": "function"
    },
    {
      "inputs": [
        {
          "internalType": "uint256",
          "name": "_maxCheckpointDuration",
          "type": "uint256"
        }
      ],
      "name": "updateMaxCheckpointDuration",
      "outputs": [],
      "stateMutability": "nonpayable",
      "type": "function"
    },
    {
      "inputs": [
        {
          "components": [
            {
              "internalType": "uint256",
              "name": "curve",
              "type": "uint256"
            },
            {
              "internalType": "uint256",
              "name": "flat",
              "type": "uint256"
            },
            {
              "internalType": "uint256",
              "name": "governanceLP",
              "type": "uint256"
            },
            {
              "internalType": "uint256",
              "name": "governanceZombie",
              "type": "uint256"
            }
          ],
          "internalType": "struct IHyperdrive.Fees",
          "name": "__maxFees",
          "type": "tuple"
        }
      ],
      "name": "updateMaxFees",
      "outputs": [],
      "stateMutability": "nonpayable",
      "type": "function"
    },
    {
      "inputs": [
        {
          "internalType": "uint256",
          "name": "_maxFixedAPR",
          "type": "uint256"
        }
      ],
      "name": "updateMaxFixedAPR",
      "outputs": [],
      "stateMutability": "nonpayable",
      "type": "function"
    },
    {
      "inputs": [
        {
          "internalType": "uint256",
          "name": "_maxPositionDuration",
          "type": "uint256"
        }
      ],
      "name": "updateMaxPositionDuration",
      "outputs": [],
      "stateMutability": "nonpayable",
      "type": "function"
    },
    {
      "inputs": [
        {
          "internalType": "uint256",
          "name": "_maxTimeStretchAPR",
          "type": "uint256"
        }
      ],
      "name": "updateMaxTimeStretchAPR",
      "outputs": [],
      "stateMutability": "nonpayable",
      "type": "function"
    },
    {
      "inputs": [
        {
          "internalType": "uint256",
          "name": "_minCheckpointDuration",
          "type": "uint256"
        }
      ],
      "name": "updateMinCheckpointDuration",
      "outputs": [],
      "stateMutability": "nonpayable",
      "type": "function"
    },
    {
      "inputs": [
        {
          "components": [
            {
              "internalType": "uint256",
              "name": "curve",
              "type": "uint256"
            },
            {
              "internalType": "uint256",
              "name": "flat",
              "type": "uint256"
            },
            {
              "internalType": "uint256",
              "name": "governanceLP",
              "type": "uint256"
            },
            {
              "internalType": "uint256",
              "name": "governanceZombie",
              "type": "uint256"
            }
          ],
          "internalType": "struct IHyperdrive.Fees",
          "name": "__minFees",
          "type": "tuple"
        }
      ],
      "name": "updateMinFees",
      "outputs": [],
      "stateMutability": "nonpayable",
      "type": "function"
    },
    {
      "inputs": [
        {
          "internalType": "uint256",
          "name": "_minFixedAPR",
          "type": "uint256"
        }
      ],
      "name": "updateMinFixedAPR",
      "outputs": [],
      "stateMutability": "nonpayable",
      "type": "function"
    },
    {
      "inputs": [
        {
          "internalType": "uint256",
          "name": "_minPositionDuration",
          "type": "uint256"
        }
      ],
      "name": "updateMinPositionDuration",
      "outputs": [],
      "stateMutability": "nonpayable",
      "type": "function"
    },
    {
      "inputs": [
        {
          "internalType": "uint256",
          "name": "_minTimeStretchAPR",
          "type": "uint256"
        }
      ],
      "name": "updateMinTimeStretchAPR",
      "outputs": [],
      "stateMutability": "nonpayable",
      "type": "function"
    },
    {
      "inputs": [
        {
          "internalType": "address",
          "name": "_sweepCollector",
          "type": "address"
        }
      ],
      "name": "updateSweepCollector",
      "outputs": [],
      "stateMutability": "nonpayable",
      "type": "function"
    },
    {
      "inputs": [],
      "name": "version",
      "outputs": [
        {
          "internalType": "string",
          "name": "",
          "type": "string"
        }
      ],
      "stateMutability": "view",
      "type": "function"
    },
    {
      "stateMutability": "payable",
      "type": "receive"
    }
  ],
  "bytecode": "0x608060405260026001553480156200001657600080fd5b50604051620046e7380380620046e783398101604081905262000039916200069d565b6000620000478282620008c2565b508160a001518260c0015110806200007357508160a001518260c001516200007091906200098e565b15155b156200009257604051630219d66360e11b815260040160405180910390fd5b60c0820151600981905560e08301511080620000c257508160a001518260e00151620000bf91906200098e565b15155b15620000e15760405163f9c0959d60e01b815260040160405180910390fd5b60e0820151600a81905561010083015110806200011357508160a001518261010001516200011091906200098e565b15155b156200013257604051633007ad0160e11b815260040160405180910390fd5b610100820151600b81905561012083015110806200016557508160a001518261012001516200016291906200098e565b15155b15620001845760405163cfb699cb60e01b815260040160405180910390fd5b610120820151600c556101608201516101408301511115620001b9576040516330554de160e01b815260040160405180910390fd5b610140820151600d55610160820151600e556101a08201516101808301511115620001f7576040516383ebdfb760e01b815260040160405180910390fd5b610180820151600f556101a08201516010556101e082015151670de0b6b3a76400001080620002365750670de0b6b3a7640000826101e0015160200151115b80620002525750670de0b6b3a7640000826101e0015160400151115b806200026e5750670de0b6b3a7640000826101e0015160600151115b156200028d5760405163161071fb60e11b815260040160405180910390fd5b6101e082015180516015819055602082015160165560408201516017556060909101516018556101c0830151511180620002d85750816101e0015160200151826101c0015160200151115b80620002f55750816101e0015160400151826101c0015160400151115b80620003125750816101e0015160600151826101c0015160600151115b1562000331576040516315b05a8f60e01b815260040160405180910390fd5b6101c082015180516011556020808201516012556040808301516013556060928301516014558451600280546001600160a01b03199081166001600160a01b03938416179091558387015160038054831691841691909117905593860151600680548616918316919091179055608086015160078054909516911617909255908301518051620003c692601992019062000403565b5050610200810151600480546001600160a01b0319166001600160a01b0390921691909117905561022081015160055560a00151600855620009b1565b8280548282559060005260206000209081019282156200045b579160200282015b828111156200045b57825182546001600160a01b0319166001600160a01b0390911617825560209092019160019091019062000424565b50620004699291506200046d565b5090565b5b808211156200046957600081556001016200046e565b634e487b7160e01b600052604160045260246000fd5b60405161024081016001600160401b0381118282101715620004c057620004c062000484565b60405290565b604051601f8201601f191681016001600160401b0381118282101715620004f157620004f162000484565b604052919050565b80516001600160a01b03811681146200051157600080fd5b919050565b600082601f8301126200052857600080fd5b815160206001600160401b0382111562000546576200054662000484565b8160051b62000557828201620004c6565b92835284810182019282810190878511156200057257600080fd5b83870192505b848310156200059c576200058c83620004f9565b8252918301919083019062000578565b979650505050505050565b600060808284031215620005ba57600080fd5b604051608081016001600160401b0381118282101715620005df57620005df62000484565b8060405250809150825181526020830151602082015260408301516040820152606083015160608201525092915050565b600082601f8301126200062257600080fd5b81516001600160401b038111156200063e576200063e62000484565b602062000654601f8301601f19168201620004c6565b82815285828487010111156200066957600080fd5b60005b83811015620006895785810183015182820184015282016200066c565b506000928101909101919091529392505050565b60008060408385031215620006b157600080fd5b82516001600160401b0380821115620006c957600080fd5b908401906103008287031215620006df57600080fd5b620006e96200049a565b620006f483620004f9565b81526200070460208401620004f9565b60208201526040830151828111156200071c57600080fd5b6200072a8882860162000516565b6040830152506200073e60608401620004f9565b60608201526200075160808401620004f9565b608082015260a0838101519082015260c0808401519082015260e08084015190820152610100808401519082015261012080840151908201526101408084015190820152610160808401519082015261018080840151908201526101a080840151908201526101c0620007c788828601620005a7565b90820152620007db876102408501620005a7565b6101e0820152620007f06102c08401620004f9565b6102008201526102e092909201516102208301526020850151919350808211156200081a57600080fd5b50620008298582860162000610565b9150509250929050565b600181811c908216806200084857607f821691505b6020821081036200086957634e487b7160e01b600052602260045260246000fd5b50919050565b601f821115620008bd57600081815260208120601f850160051c81016020861015620008985750805b601f850160051c820191505b81811015620008b957828155600101620008a4565b5050505b505050565b81516001600160401b03811115620008de57620008de62000484565b620008f681620008ef845462000833565b846200086f565b602080601f8311600181146200092e5760008415620009155750858301515b600019600386901b1c1916600185901b178555620008b9565b600085815260208120601f198616915b828110156200095f578886015182559484019460019091019084016200093e565b50858210156200097e5787850151600019600388901b60f8161c191681555b5050505050600190811b01905550565b600082620009ac57634e487b7160e01b600052601260045260246000fd5b500690565b613d2680620009c16000396000f3fe6080604052600436106103385760003560e01c806397b0e8ce116101b0578063d6f50169116100ec578063e333155511610095578063eb71f66c1161006f578063eb71f66c146109b9578063ec895f11146109d9578063f8c09e59146109f9578063fe3d5aeb14610a2957600080fd5b8063e333155514610957578063e71f34b314610984578063e83e34b1146109a457600080fd5b8063dd2b8fbb116100c6578063dd2b8fbb1461090c578063e0e2daaa1461092c578063e1b39c801461094257600080fd5b8063d6f50169146108c0578063daac24da146108d6578063daf012e6146108f657600080fd5b8063bf9bd5cd11610159578063c905a4b511610133578063c905a4b51461085e578063d0f96b9214610874578063d23d7ea31461088a578063d2c35ce8146108a057600080fd5b8063bf9bd5cd146107f9578063c17225631461080f578063c415b95c1461083157600080fd5b8063a64c90bf1161018a578063a64c90bf14610797578063b2561263146107b9578063bc30e7a1146107d957600080fd5b806397b0e8ce1461072a57806399623bb11461074a5780639af252621461077757600080fd5b806354fd4d501161027f5780636e95d67c11610228578063852297851161020257806385229785146106b45780638627a4f0146106d45780638e127cf5146106f45780638efc09861461071457600080fd5b80636e95d67c1461065f5780636f6d5c4a1461067457806383b361e81461069457600080fd5b8063628027a311610259578063628027a3146105bc5780636b44e6be146105dc5780636c8cc8651461061c57600080fd5b806354fd4d50146105305780635720c9d5146105795780635aa6e6751461058f57600080fd5b80632885e3ac116102e1578063421caba8116102bb578063421caba8146104cc57806348800760146104ec5780634fbfee771461051057600080fd5b80632885e3ac1461046c5780632facc5191461048c578063411c3035146104ac57600080fd5b806310d1dc3e1161031257806310d1dc3e1461040c57806311e77bfe1461042c5780631978ebcf1461044c57600080fd5b8063069024941461038057806306fdde03146103bd57806310780f73146103df57600080fd5b3661037b57600260015403610379576040517f5563ada800000000000000000000000000000000000000000000000000000000815260040160405180910390fd5b005b600080fd5b61039361038e366004613498565b610a49565b60405173ffffffffffffffffffffffffffffffffffffffff90911681526020015b60405180910390f35b3480156103c957600080fd5b506103d2610f5d565b6040516103b4919061362b565b3480156103eb57600080fd5b506007546103939073ffffffffffffffffffffffffffffffffffffffff1681565b34801561041857600080fd5b5061037961042736600461363e565b610feb565b34801561043857600080fd5b50610379610447366004613650565b611144565b34801561045857600080fd5b50610379610467366004613650565b61125d565b34801561047857600080fd5b5061037961048736600461363e565b61131f565b34801561049857600080fd5b506103936104a7366004613669565b6114c5565b3480156104b857600080fd5b506103796104c73660046136fd565b611603565b3480156104d857600080fd5b506103796104e7366004613729565b6118d0565b3480156104f857600080fd5b5061050260105481565b6040519081526020016103b4565b34801561051c57600080fd5b5061037961052b366004613650565b611a50565b34801561053c57600080fd5b506103d26040518060400160405280600681526020017f76312e302e32000000000000000000000000000000000000000000000000000081525081565b34801561058557600080fd5b5061050260095481565b34801561059b57600080fd5b506002546103939073ffffffffffffffffffffffffffffffffffffffff1681565b3480156105c857600080fd5b506103796105d7366004613650565b611ad4565b3480156105e857600080fd5b5061060c6105f7366004613729565b601e6020526000908152604090205460ff1681565b60405190151581526020016103b4565b34801561062857600080fd5b50610393610637366004613729565b601c6020526000908152604090205473ffffffffffffffffffffffffffffffffffffffff1681565b34801561066b57600080fd5b50601d54610502565b34801561068057600080fd5b5061037961068f366004613650565b611b96565b3480156106a057600080fd5b506103796106af366004613650565b611c7a565b3480156106c057600080fd5b506103796106cf366004613729565b611d3c565b3480156106e057600080fd5b506103796106ef366004613729565b611dfc565b34801561070057600080fd5b5061037961070f366004613650565b611ebc565b34801561072057600080fd5b50610502600c5481565b34801561073657600080fd5b50610379610745366004613650565b611fa0565b34801561075657600080fd5b506004546103939073ffffffffffffffffffffffffffffffffffffffff1681565b34801561078357600080fd5b5061037961079236600461374d565b612062565b3480156107a357600080fd5b506107ac6120f1565b6040516103b491906137c2565b3480156107c557600080fd5b506103796107d4366004613729565b612160565b3480156107e557600080fd5b506107ac6107f436600461381c565b612220565b34801561080557600080fd5b50610502600e5481565b34801561081b57600080fd5b50610824612389565b6040516103b4919061383e565b34801561083d57600080fd5b506006546103939073ffffffffffffffffffffffffffffffffffffffff1681565b34801561086a57600080fd5b5061050260055481565b34801561088057600080fd5b5061050260085481565b34801561089657600080fd5b50610502600d5481565b3480156108ac57600080fd5b506103796108bb366004613729565b6123e1565b3480156108cc57600080fd5b50610502600f5481565b3480156108e257600080fd5b506103936108f1366004613650565b6124a1565b34801561090257600080fd5b50610502600b5481565b34801561091857600080fd5b50610379610927366004613729565b6124de565b34801561093857600080fd5b50610502600a5481565b34801561094e57600080fd5b50601a54610502565b34801561096357600080fd5b506003546103939073ffffffffffffffffffffffffffffffffffffffff1681565b34801561099057600080fd5b5061037961099f366004613650565b61259e565b3480156109b057600080fd5b50610824612682565b3480156109c557600080fd5b506103796109d4366004613650565b6126da565b3480156109e557600080fd5b506107ac6109f436600461381c565b6127b2565b348015610a0557600080fd5b5061060c610a14366004613729565b601b6020526000908152604090205460ff1681565b348015610a3557600080fd5b50610393610a44366004613650565b612914565b73ffffffffffffffffffffffffffffffffffffffff88166000908152601b602052604081205460ff16610aa8576040517f6e623f0f00000000000000000000000000000000000000000000000000000000815260040160405180910390fd5b610ab3888686612929565b60408051336020808301919091528183018d9052825180830384018152606083019384905280519101207f1ae6f5150000000000000000000000000000000000000000000000000000000090925260009173ffffffffffffffffffffffffffffffffffffffff8c1691631ae6f51591610b34918d908d9089906064016139a2565b6020604051808303816000875af1158015610b53573d6000803e3d6000fd5b505050506040513d601f19601f82011682018060405250810190610b7791906139dd565b73ffffffffffffffffffffffffffffffffffffffff8181166000908152601c60205260409081902080547fffffffffffffffffffffffff0000000000000000000000000000000000000000168e84169081179091556003549092166101208d015251919250907fd371ed88cc563fd25b2a95ce8bb8d0adbf9bb4d8725c94996d2cae1d0ddf2a7290610c0e9084908d908d906139fa565b60405180910390a2601d805460018082019092557f6d4407e7be21f808e6509aa9fa9143369579dd7d760fe20a2c09680fc146134f0180547fffffffffffffffffffffffff00000000000000000000000000000000000000001673ffffffffffffffffffffffffffffffffffffffff8481169182179092556000908152601e602090815260409182902080547fffffffffffffffffffffffffffffffffffffffffffffffffffffffffffffff0016851790559280558051339381019390935282018d90528b16906316abfc7090349060600160405160208183030381529060405280519060200120338b8b8a6040518763ffffffff1660e01b8152600401610d1a959493929190613a42565b60206040518083038185885af1158015610d38573d6000803e3d6000fd5b50505050506040513d601f19601f82011682018060405250810190610d5d9190613ab3565b50600260015560005b601954811015610e3b578173ffffffffffffffffffffffffffffffffffffffff16637180c8ca60198381548110610d9f57610d9f613acc565b60009182526020909120015460405160e083901b7fffffffff0000000000000000000000000000000000000000000000000000000016815273ffffffffffffffffffffffffffffffffffffffff909116600482015260016024820152604401600060405180830381600087803b158015610e1857600080fd5b505af1158015610e2c573d6000803e3d6000fd5b50505050806001019050610d66565b506003546040517fab033ea900000000000000000000000000000000000000000000000000000000815273ffffffffffffffffffffffffffffffffffffffff91821660048201529082169063ab033ea990602401600060405180830381600087803b158015610ea957600080fd5b505af1158015610ebd573d6000803e3d6000fd5b504792505081159050610f4e57604051600090339083908381818185875af1925050503d8060008114610f0c576040519150601f19603f3d011682016040523d82523d6000602084013e610f11565b606091505b5050905080610f4c576040517f90b8ec1800000000000000000000000000000000000000000000000000000000815260040160405180910390fd5b505b509a9950505050505050505050565b60008054610f6a90613afb565b80601f0160208091040260200160405190810160405280929190818152602001828054610f9690613afb565b8015610fe35780601f10610fb857610100808354040283529160200191610fe3565b820191906000526020600020905b815481529060010190602001808311610fc657829003601f168201915b505050505081565b60025473ffffffffffffffffffffffffffffffffffffffff16331461103c576040517f82b4290000000000000000000000000000000000000000000000000000000000815260040160405180910390fd5b604080516080810182526015548082526016546020830152601754928201929092526018546060820152908235118061107c575080602001518260200135115b8061108e575080604001518260400135115b806110a0575080606001518260600135115b156110d7576040517f15b05a8f00000000000000000000000000000000000000000000000000000000815260040160405180910390fd5b81356011819055602080840135601281905560408086013560138190556060808801356014819055835196875294860193909352908401528201527fe1c45f8aeb543f30b37cc2fccfbac0f32cc8f234284df921d71cff04e51ef421906080015b60405180910390a15050565b60025473ffffffffffffffffffffffffffffffffffffffff163314611195576040517f82b4290000000000000000000000000000000000000000000000000000000000815260040160405180910390fd5b806009546111a39190613b48565b1515806111bc575080600a546111b99190613b48565b15155b806111d3575080600b546111d09190613b48565b15155b806111ea575080600c546111e79190613b48565b15155b15611221576040517f8dbae0a800000000000000000000000000000000000000000000000000000000815260040160405180910390fd5b60088190556040518181527f04ed835b488b4fcf0a212a46ed67cbbffc2fc81b5cb6a12c546572cbf7b7e06a906020015b60405180910390a150565b60025473ffffffffffffffffffffffffffffffffffffffff1633146112ae576040517f82b4290000000000000000000000000000000000000000000000000000000000815260040160405180910390fd5b600e548111156112ea576040517f1670f79700000000000000000000000000000000000000000000000000000000815260040160405180910390fd5b600d8190556040518181527faab0ee9100629c405a4d75336e1640cc81e0608fb0d7f17389c06ee8d4f0219190602001611252565b60025473ffffffffffffffffffffffffffffffffffffffff163314611370576040517f82b4290000000000000000000000000000000000000000000000000000000000815260040160405180910390fd5b6040805160808101825260115481526012546020820152601354918101919091526014546060820152670de0b6b3a7640000823511806113bb5750670de0b6b3a76400008260200135115b806113d15750670de0b6b3a76400008260400135115b806113e75750670de0b6b3a76400008260600135115b806113f3575080518235105b80611405575080602001518260200135105b80611417575080604001518260400135105b80611429575080606001518260600135105b15611460576040517f2c20e3f600000000000000000000000000000000000000000000000000000000815260040160405180910390fd5b81356015819055602080840135601681905560408086013560178190556060808801356018819055835196875294860193909352908401528201527f8c6093c7e65dd862e88162770c4e156e8a0da57d25d961e0fb6f28cfb7ff89a790608001611138565b73ffffffffffffffffffffffffffffffffffffffff87166000908152601b602052604081205460ff16611524576040517f6e623f0f00000000000000000000000000000000000000000000000000000000815260040160405180910390fd5b61152f878686612929565b60408051336020808301919091528183018c9052825180830384018152606083019384905280519101207f0b3c4f860000000000000000000000000000000000000000000000000000000090925260009173ffffffffffffffffffffffffffffffffffffffff8b1691630b3c4f86916115b2918c908c908a908a90606401613b83565b6020604051808303816000875af11580156115d1573d6000803e3d6000fd5b505050506040513d601f19601f820116820180604052508101906115f591906139dd565b9a9950505050505050505050565b60025473ffffffffffffffffffffffffffffffffffffffff163314611654576040517f82b4290000000000000000000000000000000000000000000000000000000000815260040160405180910390fd5b73ffffffffffffffffffffffffffffffffffffffff82166000908152601b602052604090205460ff166116b3576040517f4bf121ab00000000000000000000000000000000000000000000000000000000815260040160405180910390fd5b8173ffffffffffffffffffffffffffffffffffffffff16601a82815481106116dd576116dd613acc565b60009182526020909120015473ffffffffffffffffffffffffffffffffffffffff1614611736576040517f3c9c032c00000000000000000000000000000000000000000000000000000000815260040160405180910390fd5b73ffffffffffffffffffffffffffffffffffffffff82166000908152601b6020526040902080547fffffffffffffffffffffffffffffffffffffffffffffffffffffffffffffff00169055601a805461179190600190613bf1565b815481106117a1576117a1613acc565b600091825260209091200154601a805473ffffffffffffffffffffffffffffffffffffffff90921691839081106117da576117da613acc565b9060005260206000200160006101000a81548173ffffffffffffffffffffffffffffffffffffffff021916908373ffffffffffffffffffffffffffffffffffffffff160217905550601a80548061183357611833613c04565b60008281526020812082017fffffffffffffffffffffffffffffffffffffffffffffffffffffffffffffffff90810180547fffffffffffffffffffffffff000000000000000000000000000000000000000016905590910190915560405173ffffffffffffffffffffffffffffffffffffffff8416917f709b7450bfafda93efd91d29149870a794637ac9d696ca61625fd2f53548afe091a25050565b60025473ffffffffffffffffffffffffffffffffffffffff163314611921576040517f82b4290000000000000000000000000000000000000000000000000000000000815260040160405180910390fd5b73ffffffffffffffffffffffffffffffffffffffff81166000908152601b602052604090205460ff1615611981576040517fbd34634f00000000000000000000000000000000000000000000000000000000815260040160405180910390fd5b73ffffffffffffffffffffffffffffffffffffffff81166000818152601b602052604080822080547fffffffffffffffffffffffffffffffffffffffffffffffffffffffffffffff00166001908117909155601a8054918201815583527f057c384a7d1c54f3a1b2e5e67b2617b8224fdfd1ea7234eea573a6ff665ff63e0180547fffffffffffffffffffffffff00000000000000000000000000000000000000001684179055517f16ce88285cfd59829a5aa04370a5ec8090a18c14e7e7fb9d4b12a42291c098e39190a250565b60025473ffffffffffffffffffffffffffffffffffffffff163314611aa1576040517f82b4290000000000000000000000000000000000000000000000000000000000815260040160405180910390fd5b600581905560405181907f395a61259037298d1c4cd4bf177b64ad5995d38a9394573fcd9060d649314ad090600090a250565b60025473ffffffffffffffffffffffffffffffffffffffff163314611b25576040517f82b4290000000000000000000000000000000000000000000000000000000000815260040160405180910390fd5b600f54811015611b61576040517fa35539d000000000000000000000000000000000000000000000000000000000815260040160405180910390fd5b60108190556040518181527fa9e7961bb3342715dbecc208087a6a9df8986d524b3a0a829fd90f5a2f5ba53e90602001611252565b60025473ffffffffffffffffffffffffffffffffffffffff163314611be7576040517f82b4290000000000000000000000000000000000000000000000000000000000815260040160405180910390fd5b600954811080611c025750600854611bff9082613b48565b15155b80611c0e5750600b5481115b15611c45576040517ff9c0959d00000000000000000000000000000000000000000000000000000000815260040160405180910390fd5b600a8190556040518181527f31407ddd1722f500b8aa2c18e112398626dd7c2869a5f80731ec30b244d9b5f290602001611252565b60025473ffffffffffffffffffffffffffffffffffffffff163314611ccb576040517f82b4290000000000000000000000000000000000000000000000000000000000815260040160405180910390fd5b601054811115611d07576040517f5a8f655700000000000000000000000000000000000000000000000000000000815260040160405180910390fd5b600f8190556040518181527f490eb2a91746aa933c9ffe2f7939aa06498f3259139f8805f008b12c8c697a4690602001611252565b60025473ffffffffffffffffffffffffffffffffffffffff163314611d8d576040517f82b4290000000000000000000000000000000000000000000000000000000000815260040160405180910390fd5b600480547fffffffffffffffffffffffff00000000000000000000000000000000000000001673ffffffffffffffffffffffffffffffffffffffff83169081179091556040517f03aa5b0fb65014eea89fda04a7bc11742014881f3c078f2c75b7226ce10d941890600090a250565b60025473ffffffffffffffffffffffffffffffffffffffff163314611e4d576040517f82b4290000000000000000000000000000000000000000000000000000000000815260040160405180910390fd5b600780547fffffffffffffffffffffffff00000000000000000000000000000000000000001673ffffffffffffffffffffffffffffffffffffffff83169081179091556040517fc049058b1df2dd8902739ceb78992df12fa8369c06c450b3c6787137b452fdd290600090a250565b60025473ffffffffffffffffffffffffffffffffffffffff163314611f0d576040517f82b4290000000000000000000000000000000000000000000000000000000000815260040160405180910390fd5b600854811080611f285750600854611f259082613b48565b15155b80611f345750600a5481115b15611f6b576040517f0433acc600000000000000000000000000000000000000000000000000000000815260040160405180910390fd5b60098190556040518181527f6f8175cdbac1b4d238abba24a17d2554d7b9750bbeda6414e191c478384b763190602001611252565b60025473ffffffffffffffffffffffffffffffffffffffff163314611ff1576040517f82b4290000000000000000000000000000000000000000000000000000000000815260040160405180910390fd5b600d5481101561202d576040517f673edec000000000000000000000000000000000000000000000000000000000815260040160405180910390fd5b600e8190556040518181527f4fa35c11ce9a45ae882c154ecb53ab5cac52a74a5b9b0373be36deb30c78297890602001611252565b60025473ffffffffffffffffffffffffffffffffffffffff1633146120b3576040517f82b4290000000000000000000000000000000000000000000000000000000000815260040160405180910390fd5b6120bf6019838361318e565b507f2a85276cf604a3822e19b29a3e97aebfbc47a19025c2e8f6e80b3af774dcbc388282604051611138929190613c33565b6060601980548060200260200160405190810160405280929190818152602001828054801561215657602002820191906000526020600020905b815473ffffffffffffffffffffffffffffffffffffffff16815260019091019060200180831161212b575b5050505050905090565b60025473ffffffffffffffffffffffffffffffffffffffff1633146121b1576040517f82b4290000000000000000000000000000000000000000000000000000000000815260040160405180910390fd5b600280547fffffffffffffffffffffffff00000000000000000000000000000000000000001673ffffffffffffffffffffffffffffffffffffffff83169081179091556040517f9d3e522e1e47a2f6009739342b9cc7b252a1888154e843ab55ee1c81745795ab90600090a250565b60608183111561225c576040517f764e6b5600000000000000000000000000000000000000000000000000000000815260040160405180910390fd5b601d548210612297576040517fe0f7becb00000000000000000000000000000000000000000000000000000000815260040160405180910390fd5b6122a18383613bf1565b6122ac906001613c8e565b67ffffffffffffffff8111156122c4576122c4613257565b6040519080825280602002602001820160405280156122ed578160200160208202803683370190505b509050825b82811161238257601d818154811061230c5761230c613acc565b9060005260206000200160009054906101000a900473ffffffffffffffffffffffffffffffffffffffff16828583038151811061234b5761234b613acc565b73ffffffffffffffffffffffffffffffffffffffff909216602092830291909101909101528061237a81613ca1565b9150506122f2565b5092915050565b6123b46040518060800160405280600081526020016000815260200160008152602001600081525090565b50604080516080810182526011548152601254602082015260135491810191909152601454606082015290565b60025473ffffffffffffffffffffffffffffffffffffffff163314612432576040517f82b4290000000000000000000000000000000000000000000000000000000000815260040160405180910390fd5b600680547fffffffffffffffffffffffff00000000000000000000000000000000000000001673ffffffffffffffffffffffffffffffffffffffff83169081179091556040517fe5693914d19c789bdee50a362998c0bc8d035a835f9871da5d51152f0582c34f90600090a250565b6000601d82815481106124b6576124b6613acc565b60009182526020909120015473ffffffffffffffffffffffffffffffffffffffff1692915050565b60025473ffffffffffffffffffffffffffffffffffffffff16331461252f576040517f82b4290000000000000000000000000000000000000000000000000000000000815260040160405180910390fd5b600380547fffffffffffffffffffffffff00000000000000000000000000000000000000001673ffffffffffffffffffffffffffffffffffffffff83169081179091556040517ff3e07b4bb4394f2ff320bd1dd151551dff304d5e948b401d8558b228482c97d890600090a250565b60025473ffffffffffffffffffffffffffffffffffffffff1633146125ef576040517f82b4290000000000000000000000000000000000000000000000000000000000815260040160405180910390fd5b600a5481108061260a57506008546126079082613b48565b15155b806126165750600c5481115b1561264d576040517f600f5a0200000000000000000000000000000000000000000000000000000000815260040160405180910390fd5b600b8190556040518181527fe9ef3e93dff799d4db8a12ff79e0918a5a78d75b10527864f4b1c920f6f4f17890602001611252565b6126ad6040518060800160405280600081526020016000815260200160008152602001600081525090565b50604080516080810182526015548152601654602082015260175491810191909152601854606082015290565b60025473ffffffffffffffffffffffffffffffffffffffff16331461272b576040517f82b4290000000000000000000000000000000000000000000000000000000000815260040160405180910390fd5b600b5481108061274657506008546127439082613b48565b15155b1561277d576040517fcfb699cb00000000000000000000000000000000000000000000000000000000815260040160405180910390fd5b600c8190556040518181527f866fe9485f9983afceaa1385307b6eb0fd3df5a250ae2b0bf76dc9ddd316926b90602001611252565b6060818311156127ee576040517f764e6b5600000000000000000000000000000000000000000000000000000000815260040160405180910390fd5b601a548210612829576040517fe0f7becb00000000000000000000000000000000000000000000000000000000815260040160405180910390fd5b6128338383613bf1565b61283e906001613c8e565b67ffffffffffffffff81111561285657612856613257565b60405190808252806020026020018201604052801561287f578160200160208202803683370190505b509050825b82811161238257601a818154811061289e5761289e613acc565b9060005260206000200160009054906101000a900473ffffffffffffffffffffffffffffffffffffffff1682858303815181106128dd576128dd613acc565b73ffffffffffffffffffffffffffffffffffffffff909216602092830291909101909101528061290c81613ca1565b915050612884565b6000601a82815481106124b6576124b6613acc565b6009548360e0015110806129425750600a548360e00151115b8061295d57506008548360e0015161295a9190613b48565b15155b15612994576040517f5428734d00000000000000000000000000000000000000000000000000000000815260040160405180910390fd5b600b548360c0015110806129ad5750600c548360c00151115b806129ca57508260e001518360c001516129c79190613b48565b15155b15612a01576040517f4a7fff9e00000000000000000000000000000000000000000000000000000000815260040160405180910390fd5b601554610180840151511180612a35575060165460c084015161018085015160200151612a33916301e1338090612d0a565b115b80612a4a575060175461018084015160400151115b80612a5f575060185461018084015160600151115b80612a71575060115461018084015151105b80612a9a575060125460c084015161018085015160200151612a98916301e1338090612d4e565b105b80612aaf575060135461018084015160400151105b80612ac4575060145461018084015160600151105b15612afb576040517f2d8768f900000000000000000000000000000000000000000000000000000000815260040160405180910390fd5b600d54821080612b0c5750600e5482115b15612b43576040517f30554de100000000000000000000000000000000000000000000000000000000815260040160405180910390fd5b6000612b686611c37937e08000612b6285671bc16d674ec80000612d8a565b90612da8565b600f54909150612b789082612da8565b821080612bab5750612ba8612b9f671bc16d674ec80000612b998685612da8565b90612dbe565b60105490612dd3565b82115b15612be2576040517f83ebdfb700000000000000000000000000000000000000000000000000000000815260040160405180910390fd5b6000612bf2838660c00151612de8565b600454604087015191925073ffffffffffffffffffffffffffffffffffffffff9182169116141580612c2a5750600554856060015114155b80612c56575060065461014086015173ffffffffffffffffffffffffffffffffffffffff908116911614155b80612c82575060075461016086015173ffffffffffffffffffffffffffffffffffffffff908116911614155b80612cae575060035461012086015173ffffffffffffffffffffffffffffffffffffffff908116911614155b80612cbd575061010085015115155b15612cf4576040517fe8c02dd700000000000000000000000000000000000000000000000000000000815260040160405180910390fd5b3061012086015261010090940193909352505050565b6000827fffffffffffffffffffffffffffffffffffffffffffffffffffffffffffffffff0484118302158202612d3f57600080fd5b50910281810615159190040190565b6000827fffffffffffffffffffffffffffffffffffffffffffffffffffffffffffffffff0484118302158202612d8357600080fd5b5091020490565b6000612d9f83670de0b6b3a764000084612d4e565b90505b92915050565b6000818311612db75781612d9f565b5090919050565b6000612d9f8383670de0b6b3a7640000612d4e565b6000818311612de25782612d9f565b50919050565b600080612e19612e0a612dfc866064613cd9565b66a5bbed86c5a00090612dbe565b6748cd4072281e000090612d8a565b9050612e2d670de0b6b3a764000082612d8a565b9050612e8581612b99612e58612e53612e4e89670de0b6b3a7640000613c8e565b612e8d565b612eed565b612e7f612e53612e6d8a8a6301e13380612d4e565b612e4e90670de0b6b3a7640000613c8e565b90612d8a565b949350505050565b60007f7fffffffffffffffffffffffffffffffffffffffffffffffffffffffffffffff821115612ee9576040517f72dd4e0200000000000000000000000000000000000000000000000000000000815260040160405180910390fd5b5090565b6000808213612f28576040517fe61b497500000000000000000000000000000000000000000000000000000000815260040160405180910390fd5b506fffffffffffffffffffffffffffffffff811160071b81811c67ffffffffffffffff1060061b1781811c63ffffffff1060051b1781811c61ffff1060041b1781811c60ff10600390811b90911782811c600f1060021b1782811c909110600190811b90911782811c90911017609f8181036060019290921b917fffffffffffffffffffffffffffffffffffffffffffffffffffffffffffffffa0820190612fd29084901c612e8d565b6c465772b2bbbb5f824b15207a3081018102606090811d6d0388eaa27412d5aca026815d636e018202811d6d0df99ac502031bf953eff472fdcc018202811d6d13cdffb29d51d99322bdff5f2211018202811d6d0a0f742023def783a307a986912e018202811d6d01920d8043ca89b5239253284e42018202811d6c0b7a86d7375468fac667a0a527016c29508e458543d8aa4df2abee7883018302821d6d0139601a2efabe717e604cbb4894018302821d6d02247f7a7b6594320649aa03aba1018302821d7fffffffffffffffffffffffffffffffffffffff73c0c716a594e00d54e3c4cbc9018302821d7ffffffffffffffffffffffffffffffffffffffdc7b88c420e53a9890533129f6f01830290911d7fffffffffffffffffffffffffffffffffffffff465fda27eb4d63ded474e5f832019091027ffffffffffffffff5f6af8f7b3396644f18e157960000000000000000000000000105711340daa0d5f769dba1915cef59f0815a5506027d0267a36c0c95b3975ab3ee5b203a7614a3f75373f047d803ae7b6687f2b391909102017d57115e47018c7177eebf7cd370a3356a1b7863008a5ae8028c72b88642840160ae1d92915050565b828054828255906000526020600020908101928215613206579160200282015b828111156132065781547fffffffffffffffffffffffff00000000000000000000000000000000000000001673ffffffffffffffffffffffffffffffffffffffff8435161782556020909201916001909101906131ae565b50612ee99291505b80821115612ee9576000815560010161320e565b73ffffffffffffffffffffffffffffffffffffffff8116811461324457600080fd5b50565b803561325281613222565b919050565b7f4e487b7100000000000000000000000000000000000000000000000000000000600052604160045260246000fd5b6040516101a0810167ffffffffffffffff811182821017156132aa576132aa613257565b60405290565b6000608082840312156132c257600080fd5b6040516080810181811067ffffffffffffffff821117156132e5576132e5613257565b8060405250809150823581526020830135602082015260408301356040820152606083013560608201525092915050565b6000610200828403121561332957600080fd5b613331613286565b905061333c82613247565b815261334a60208301613247565b602082015261335b60408301613247565b6040820152606082013560608201526080820135608082015260a082013560a082015260c082013560c082015260e082013560e08201526101008083013581830152506101206133ac818401613247565b908201526101406133be838201613247565b908201526101606133d0838201613247565b908201526101806133e3848483016132b0565b9082015292915050565b600082601f8301126133fe57600080fd5b813567ffffffffffffffff8082111561341957613419613257565b604051601f83017fffffffffffffffffffffffffffffffffffffffffffffffffffffffffffffffe0908116603f0116810190828211818310171561345f5761345f613257565b8160405283815286602085880101111561347857600080fd5b836020870160208301376000602085830101528094505050505092915050565b60008060008060008060008060006103008a8c0312156134b757600080fd5b8935985060208a01356134c981613222565b97506134d88b60408c01613316565b96506102408a013567ffffffffffffffff808211156134f657600080fd5b6135028d838e016133ed565b97506102608c013596506102808c013595506102a08c013594506102c08c013591508082111561353157600080fd5b908b01906060828e03121561354557600080fd5b60405160608101818110838211171561356057613560613257565b604052823561356e81613222565b81526020830135801515811461358357600080fd5b602082015260408301358281111561359a57600080fd5b6135a68f8286016133ed565b6040830152508094505050506102e08a013590509295985092959850929598565b6000815180845260005b818110156135ed576020818501810151868301820152016135d1565b5060006020828601015260207fffffffffffffffffffffffffffffffffffffffffffffffffffffffffffffffe0601f83011685010191505092915050565b602081526000612d9f60208301846135c7565b600060808284031215612de257600080fd5b60006020828403121561366257600080fd5b5035919050565b6000806000806000806000806102e0898b03121561368657600080fd5b88359750602089013561369881613222565b96506136a78a60408b01613316565b955061024089013567ffffffffffffffff8111156136c457600080fd5b6136d08b828c016133ed565b989b979a5095986102608101359761028082013597506102a082013596506102c090910135945092505050565b6000806040838503121561371057600080fd5b823561371b81613222565b946020939093013593505050565b60006020828403121561373b57600080fd5b813561374681613222565b9392505050565b6000806020838503121561376057600080fd5b823567ffffffffffffffff8082111561377857600080fd5b818501915085601f83011261378c57600080fd5b81358181111561379b57600080fd5b8660208260051b85010111156137b057600080fd5b60209290920196919550909350505050565b6020808252825182820181905260009190848201906040850190845b8181101561381057835173ffffffffffffffffffffffffffffffffffffffff16835292840192918401916001016137de565b50909695505050505050565b6000806040838503121561382f57600080fd5b50508035926020909101359150565b8151815260208083015190820152604080830151908201526060808301519082015260808101612da2565b805173ffffffffffffffffffffffffffffffffffffffff16825260208101516138aa602084018273ffffffffffffffffffffffffffffffffffffffff169052565b5060408101516138d2604084018273ffffffffffffffffffffffffffffffffffffffff169052565b50606081015160608301526080810151608083015260a081015160a083015260c081015160c083015260e081015160e0830152610100808201518184015250610120808201516139398285018273ffffffffffffffffffffffffffffffffffffffff169052565b50506101408181015173ffffffffffffffffffffffffffffffffffffffff9081169184019190915261016080830151909116908301526101809081015180519183019190915260208101516101a083015260408101516101c0830152606001516101e090910152565b60006102608683526139b76020840187613869565b806102208401526139ca818401866135c7565b9150508261024083015295945050505050565b6000602082840312156139ef57600080fd5b815161374681613222565b600061024073ffffffffffffffffffffffffffffffffffffffff86168352613a256020840186613869565b80610220840152613a38818401856135c7565b9695505050505050565b858152600073ffffffffffffffffffffffffffffffffffffffff808716602084015285604084015284606084015260a060808401528084511660a0840152506020830151151560c08301526040830151606060e0840152613aa76101008401826135c7565b98975050505050505050565b600060208284031215613ac557600080fd5b5051919050565b7f4e487b7100000000000000000000000000000000000000000000000000000000600052603260045260246000fd5b600181811c90821680613b0f57607f821691505b602082108103612de2577f4e487b7100000000000000000000000000000000000000000000000000000000600052602260045260246000fd5b600082613b7e577f4e487b7100000000000000000000000000000000000000000000000000000000600052601260045260246000fd5b500690565b6000610280878352613b986020840188613869565b80610220840152613bab818401876135c7565b610240840195909552505061026001529392505050565b7f4e487b7100000000000000000000000000000000000000000000000000000000600052601160045260246000fd5b81810381811115612da257612da2613bc2565b7f4e487b7100000000000000000000000000000000000000000000000000000000600052603160045260246000fd5b60208082528181018390526000908460408401835b86811015613c83578235613c5b81613222565b73ffffffffffffffffffffffffffffffffffffffff1682529183019190830190600101613c48565b509695505050505050565b80820180821115612da257612da2613bc2565b60007fffffffffffffffffffffffffffffffffffffffffffffffffffffffffffffffff8203613cd257613cd2613bc2565b5060010190565b8082028115828204841417612da257612da2613bc256fea264697066735822122091fcf897495f4520e26c4d8caf0f29b17dfa9589ba2d2a3682cdbd639e08c8d464736f6c63430008140033",
  "linkReferences": {},
  "deployedLinkReferences": {}
}