{
  "_format": "hh-sol-artifact-1",
  "contractName": "HyperdriveRegistry",
  "sourceName": "contracts/src/factory/HyperdriveRegistry.sol",
  "abi": [
    {
      "inputs": [
        {
          "internalType": "string",
          "name": "_name",
          "type": "string"
        }
      ],
      "stateMutability": "nonpayable",
      "type": "constructor"
    },
    {
      "inputs": [],
      "name": "Unauthorized",
      "type": "error"
    },
    {
      "anonymous": false,
      "inputs": [
        {
          "indexed": true,
          "internalType": "address",
          "name": "governance",
          "type": "address"
        }
      ],
      "name": "GovernanceUpdated",
      "type": "event"
    },
    {
      "anonymous": false,
      "inputs": [
        {
          "indexed": true,
          "internalType": "address",
          "name": "hyperdrive",
          "type": "address"
        },
        {
          "indexed": false,
          "internalType": "uint256",
          "name": "data",
          "type": "uint256"
        }
      ],
      "name": "HyperdriveInfoUpdated",
      "type": "event"
    },
    {
      "inputs": [
        {
          "internalType": "address",
          "name": "_hyperdriveInstance",
          "type": "address"
        }
      ],
      "name": "getHyperdriveInfo",
      "outputs": [
        {
          "internalType": "uint256",
          "name": "",
          "type": "uint256"
        }
      ],
      "stateMutability": "view",
      "type": "function"
    },
    {
      "inputs": [],
      "name": "governance",
      "outputs": [
        {
          "internalType": "address",
          "name": "",
          "type": "address"
        }
      ],
      "stateMutability": "view",
      "type": "function"
    },
    {
      "inputs": [],
      "name": "name",
      "outputs": [
        {
          "internalType": "string",
          "name": "",
          "type": "string"
        }
      ],
      "stateMutability": "view",
      "type": "function"
    },
    {
      "inputs": [
        {
          "internalType": "address",
          "name": "_hyperdriveInstance",
          "type": "address"
        },
        {
          "internalType": "uint256",
          "name": "_data",
          "type": "uint256"
        }
      ],
      "name": "setHyperdriveInfo",
      "outputs": [],
      "stateMutability": "nonpayable",
      "type": "function"
    },
    {
      "inputs": [
        {
          "internalType": "address",
          "name": "_governance",
          "type": "address"
        }
      ],
      "name": "updateGovernance",
      "outputs": [],
      "stateMutability": "nonpayable",
      "type": "function"
    },
    {
      "inputs": [],
      "name": "version",
      "outputs": [
        {
          "internalType": "string",
          "name": "",
          "type": "string"
        }
      ],
      "stateMutability": "view",
      "type": "function"
    }
  ],
  "bytecode": "0x608060405234801561001057600080fd5b5060405161077b38038061077b83398101604081905261002f9161006a565b600180546001600160a01b03191633179055600061004d82826101bc565b505061027b565b634e487b7160e01b600052604160045260246000fd5b6000602080838503121561007d57600080fd5b82516001600160401b038082111561009457600080fd5b818501915085601f8301126100a857600080fd5b8151818111156100ba576100ba610054565b604051601f8201601f19908116603f011681019083821181831017156100e2576100e2610054565b8160405282815288868487010111156100fa57600080fd5b600093505b8284101561011c57848401860151818501870152928501926100ff565b600086848301015280965050505050505092915050565b600181811c9082168061014757607f821691505b60208210810361016757634e487b7160e01b600052602260045260246000fd5b50919050565b601f8211156101b757600081815260208120601f850160051c810160208610156101945750805b601f850160051c820191505b818110156101b3578281556001016101a0565b5050505b505050565b81516001600160401b038111156101d5576101d5610054565b6101e9816101e38454610133565b8461016d565b602080601f83116001811461021e57600084156102065750858301515b600019600386901b1c1916600185901b1785556101b3565b600085815260208120601f198616915b8281101561024d5788860151825594840194600190910190840161022e565b508582101561026b5787850151600019600388901b60f8161c191681555b5050505050600190811b01905550565b6104f18061028a6000396000f3fe608060405234801561001057600080fd5b50600436106100725760003560e01c80635aa6e675116100505780635aa6e67514610115578063b25612631461015a578063be44e71a1461016f57600080fd5b806306fdde031461007757806332ddcb881461009557806354fd4d50146100d9575b600080fd5b61007f610182565b60405161008c9190610387565b60405180910390f35b6100cb6100a336600461041c565b73ffffffffffffffffffffffffffffffffffffffff1660009081526002602052604090205490565b60405190815260200161008c565b61007f6040518060400160405280600681526020017f76312e302e32000000000000000000000000000000000000000000000000000081525081565b6001546101359073ffffffffffffffffffffffffffffffffffffffff1681565b60405173ffffffffffffffffffffffffffffffffffffffff909116815260200161008c565b61016d61016836600461041c565b610210565b005b61016d61017d36600461043e565b6102d0565b6000805461018f90610468565b80601f01602080910402602001604051908101604052809291908181526020018280546101bb90610468565b80156102085780601f106101dd57610100808354040283529160200191610208565b820191906000526020600020905b8154815290600101906020018083116101eb57829003601f168201915b505050505081565b60015473ffffffffffffffffffffffffffffffffffffffff163314610261576040517f82b4290000000000000000000000000000000000000000000000000000000000815260040160405180910390fd5b600180547fffffffffffffffffffffffff00000000000000000000000000000000000000001673ffffffffffffffffffffffffffffffffffffffff83169081179091556040517f9d3e522e1e47a2f6009739342b9cc7b252a1888154e843ab55ee1c81745795ab90600090a250565b60015473ffffffffffffffffffffffffffffffffffffffff163314610321576040517f82b4290000000000000000000000000000000000000000000000000000000000815260040160405180910390fd5b73ffffffffffffffffffffffffffffffffffffffff821660008181526002602052604090819020839055517ff0ddd07f037f75a9ab309993d576264e5074e0d60be48db5629946f0fec5d3569061037b9084815260200190565b60405180910390a25050565b600060208083528351808285015260005b818110156103b457858101830151858201604001528201610398565b5060006040828601015260407fffffffffffffffffffffffffffffffffffffffffffffffffffffffffffffffe0601f8301168501019250505092915050565b803573ffffffffffffffffffffffffffffffffffffffff8116811461041757600080fd5b919050565b60006020828403121561042e57600080fd5b610437826103f3565b9392505050565b6000806040838503121561045157600080fd5b61045a836103f3565b946020939093013593505050565b600181811c9082168061047c57607f821691505b6020821081036104b5577f4e487b7100000000000000000000000000000000000000000000000000000000600052602260045260246000fd5b5091905056fea2646970667358221220154333acb52b1fddb9360acf21aa898541da506f659c0b1bf48153bf27413bf664736f6c63430008140033",
  "linkReferences": {},
  "deployedLinkReferences": {}
}