{
  "_format": "hh-sol-artifact-1",
  "contractName": "ERC4626Target0Deployer",
  "sourceName": "contracts/src/deployers/erc4626/ERC4626Target0Deployer.sol",
  "abi": [
    {
      "inputs": [
        {
          "components": [
            {
              "internalType": "contract IERC20",
              "name": "baseToken",
              "type": "address"
            },
            {
              "internalType": "contract IERC20",
              "name": "vaultSharesToken",
              "type": "address"
            },
            {
              "internalType": "address",
              "name": "linkerFactory",
              "type": "address"
            },
            {
              "internalType": "bytes32",
              "name": "linkerCodeHash",
              "type": "bytes32"
            },
            {
              "internalType": "uint256",
              "name": "initialVaultSharePrice",
              "type": "uint256"
            },
            {
              "internalType": "uint256",
              "name": "minimumShareReserves",
              "type": "uint256"
            },
            {
              "internalType": "uint256",
              "name": "minimumTransactionAmount",
              "type": "uint256"
            },
            {
              "internalType": "uint256",
              "name": "positionDuration",
              "type": "uint256"
            },
            {
              "internalType": "uint256",
              "name": "checkpointDuration",
              "type": "uint256"
            },
            {
              "internalType": "uint256",
              "name": "timeStretch",
              "type": "uint256"
            },
            {
              "internalType": "address",
              "name": "governance",
              "type": "address"
            },
            {
              "internalType": "address",
              "name": "feeCollector",
              "type": "address"
            },
            {
              "internalType": "address",
              "name": "sweepCollector",
              "type": "address"
            },
            {
              "components": [
                {
                  "internalType": "uint256",
                  "name": "curve",
                  "type": "uint256"
                },
                {
                  "internalType": "uint256",
                  "name": "flat",
                  "type": "uint256"
                },
                {
                  "internalType": "uint256",
                  "name": "governanceLP",
                  "type": "uint256"
                },
                {
                  "internalType": "uint256",
                  "name": "governanceZombie",
                  "type": "uint256"
                }
              ],
              "internalType": "struct IHyperdrive.Fees",
              "name": "fees",
              "type": "tuple"
            }
          ],
          "internalType": "struct IHyperdrive.PoolConfig",
          "name": "_config",
          "type": "tuple"
        },
        {
          "internalType": "bytes",
          "name": "",
          "type": "bytes"
        },
        {
          "internalType": "bytes32",
          "name": "_salt",
          "type": "bytes32"
        }
      ],
      "name": "deploy",
      "outputs": [
        {
          "internalType": "address",
          "name": "",
          "type": "address"
        }
      ],
      "stateMutability": "nonpayable",
      "type": "function"
    }
  ],
  "bytecode": "0x608060405234801561001057600080fd5b50615877806100206000396000f3fe608060405234801561001057600080fd5b506004361061002b5760003560e01c8063195d4bfc14610030575b600080fd5b61004361003e366004610278565b61006c565b60405173ffffffffffffffffffffffffffffffffffffffff909116815260200160405180910390f35b6040805133602082015290810182905260009060600160405160208183030381529060405280519060200120846040516100a5906100d8565b6100af91906103a2565b8190604051809103906000f59050801580156100cf573d6000803e3d6000fd5b50949350505050565b61533e8061050483390190565b7f4e487b7100000000000000000000000000000000000000000000000000000000600052604160045260246000fd5b6040516101c0810167ffffffffffffffff81118282101715610138576101386100e5565b60405290565b803573ffffffffffffffffffffffffffffffffffffffff8116811461016257600080fd5b919050565b60006080828403121561017957600080fd5b6040516080810181811067ffffffffffffffff8211171561019c5761019c6100e5565b8060405250809150823581526020830135602082015260408301356040820152606083013560608201525092915050565b600082601f8301126101de57600080fd5b813567ffffffffffffffff808211156101f9576101f96100e5565b604051601f83017fffffffffffffffffffffffffffffffffffffffffffffffffffffffffffffffe0908116603f0116810190828211818310171561023f5761023f6100e5565b8160405283815286602085880101111561025857600080fd5b836020870160208301376000602085830101528094505050505092915050565b600080600083850361026081121561028f57600080fd5b6102208082121561029f57600080fd5b6102a7610114565b91506102b28661013e565b82526102c06020870161013e565b60208301526102d16040870161013e565b6040830152606086013560608301526080860135608083015260a086013560a083015260c086013560c083015260e086013560e083015261010080870135818401525061012080870135818401525061014061032e81880161013e565b9083015261016061034087820161013e565b9083015261018061035287820161013e565b908301526101a061036588888301610167565b9083015290935084013567ffffffffffffffff81111561038457600080fd5b610390868287016101cd565b92505061024084013590509250925092565b815173ffffffffffffffffffffffffffffffffffffffff168152610220810160208301516103e8602084018273ffffffffffffffffffffffffffffffffffffffff169052565b506040830151610410604084018273ffffffffffffffffffffffffffffffffffffffff169052565b50606083015160608301526080830151608083015260a083015160a083015260c083015160c083015260e083015160e0830152610100808401518184015250610120808401518184015250610140808401516104838285018273ffffffffffffffffffffffffffffffffffffffff169052565b50506101608381015173ffffffffffffffffffffffffffffffffffffffff81168483015250506101808381015173ffffffffffffffffffffffffffffffffffffffff81168483015250506101a08381015180518483015260208101516101c085015260408101516101e0850152606081015161020085015250509291505056fe6102406040523480156200001257600080fd5b506040516200533e3803806200533e8339810160408190526200003591620001e1565b600160005580516001600160a01b039081166080908152602080840151831660a0908152918401516101a0908152918401516101c05260c0808501516101e0526101008086015190915260e0808601519052610120808601519091529184018051519092528151015161014090815281516040908101516101609081529251606090810151610180908152918601518516610200528501516102205290840151600a80546001600160a01b03199081169286169290921790559184015160088054841691851691909117905590920151600980549093169116179055620002d4565b6040516101c081016001600160401b03811182821017156200014957634e487b7160e01b600052604160045260246000fd5b60405290565b80516001600160a01b03811681146200016757600080fd5b919050565b6000608082840312156200017f57600080fd5b604051608081016001600160401b0381118282101715620001b057634e487b7160e01b600052604160045260246000fd5b8060405250809150825181526020830151602082015260408301516040820152606083015160608201525092915050565b60006102208284031215620001f557600080fd5b620001ff62000117565b6200020a836200014f565b81526200021a602084016200014f565b60208201526200022d604084016200014f565b6040820152606083015160608201526080830151608082015260a083015160a082015260c083015160c082015260e083015160e08201526101008084015181830152506101208084015181830152506101406200028c8185016200014f565b90820152610160620002a08482016200014f565b90820152610180620002b48482016200014f565b908201526101a0620002c9858583016200016c565b908201529392505050565b60805160a05160c05160e05161010051610120516101405161016051610180516101a0516101c0516101e0516102005161022051614f3d62000401600039600081816109bc01528181610f5b015261149601526000818161096c01528181610f340152611446015260008181610fd5015261253b015260008181610faf0152612515015260008181610f8501526124ef01526000611105015260006110e0015260006110bb015260006110980152600081816110480152612561015260008181610ffb015281816112930152612e3901526000818161102101526132140152600081816106b301528181610f0801528181612b0901528181612d6d015281816130bb0152818161315401526131e60152600081816107ce01528181610ee3015261123a0152614f3d6000f3fe608060405234801561001057600080fd5b50600436106102405760003560e01c806360246c8811610145578063becee9c3116100bd578063d81657431161008c578063e4af29d111610071578063e4af29d1146105a0578063e985e9c5146105b3578063fba56008146105c657600080fd5b8063d816574314610578578063e44808bc1461058d57600080fd5b8063becee9c314610535578063c55dae6314610555578063c69e16ad1461055d578063cf210e651461056557600080fd5b8063a22cb46511610114578063ab033ea9116100f9578063ab033ea9146104fa578063b0d965801461050d578063bd85b0391461052257600080fd5b8063a22cb465146104d4578063a42dce80146104e757600080fd5b806360246c88146103ea5780637180c8ca1461049b5780637ecebe00146104ae5780639cd241af146104c157600080fd5b806320fc4881116101d85780633e691db9116101a75780634e41a1fb1161018c5780634e41a1fb146103bc5780634ed2d6ac146103cf57806354fd4d50146103e257600080fd5b80633e691db91461038657806346fbf68e1461039957600080fd5b806320fc48811461030457806321ff32a914610338578063313ce567146103595780633656eec21461037357600080fd5b80630a4e1493116102145780630a4e14931461029e57806314e5f07b146102cb57806317fad7fc146102de5780631c0f12b6146102f157600080fd5b8062ad800c1461024557806301681a621461026e57806302329a291461028357806306fdde0314610296575b600080fd5b6102586102533660046142ce565b6105fe565b6040516102659190614355565b60405180910390f35b61028161027c36600461438a565b610635565b005b6102816102913660046143b5565b610641565b61025861064a565b6102a6610698565b60405173ffffffffffffffffffffffffffffffffffffffff9091168152602001610265565b6102816102d93660046143e1565b6106e5565b6102816102ec3660046144b5565b610701565b6102816102ff36600461454a565b610717565b6103176103123660046142ce565b61072a565b60405190516fffffffffffffffffffffffffffffffff168152602001610265565b61034b610346366004614592565b610774565b604051908152602001610265565b6103616107c7565b60405160ff9091168152602001610265565b61034b6103813660046145d4565b61086f565b61034b610394366004614604565b6108b5565b6103ac6103a736600461438a565b6108c0565b6040519015158152602001610265565b6102586103ca3660046142ce565b610903565b6102816103dd36600461463f565b610911565b610258610a75565b6103f2610ac0565b6040516102659190815181526020808301519082015260408083015190820152606080830151908201526080808301519082015260a0808301519082015260c0808301519082015260e08083015190820152610100808301519082015261012080830151908201526101408083015190820152610160808301519082015261018080830151908201526101a080830151908201526101c091820151918101919091526101e00190565b6102816104a9366004614689565b610db8565b61034b6104bc36600461438a565b610dc6565b6102816104cf3660046146b7565b610dff565b6102816104e2366004614689565b610e10565b6102816104f536600461438a565b610ea7565b61028161050836600461438a565b610eb0565b610515610eb9565b60405161026591906146ef565b61034b6105303660046142ce565b611142565b610548610543366004614851565b611164565b6040516102659190614893565b6102a661121f565b61034b61126c565b61034b6105733660046142ce565b611286565b6105806112cf565b60405161026591906148d7565b61028161059b366004614a37565b6113eb565b6102816105ae36600461438a565b611549565b6103ac6105c1366004614a96565b611552565b6105ce6115a3565b6040805182516fffffffffffffffffffffffffffffffff9081168252602093840151169281019290925201610265565b606061063061060c83611618565b60405160200161061c9190614355565b604051602081830303815290604052611768565b919050565b61063e816117a5565b50565b61063e816119c2565b60606106956040518060400160405280601181526020017f455243343632364879706572647269766500000000000000000000000000000081525060405160200161061c9190614355565b90565b6040805173ffffffffffffffffffffffffffffffffffffffff7f0000000000000000000000000000000000000000000000000000000000000000166020820152600091610695910161061c565b6106f6898989898989898989611a7c565b505050505050505050565b61070f868686868686611d56565b505050505050565b6107248484848433611e56565b50505050565b6040805160208101909152600081526106306007600084815260200190815260200160002060405160200161061c91546fffffffffffffffffffffffffffffffff16815260200190565b600083815260106020908152604080832073ffffffffffffffffffffffffffffffffffffffff868116855290835281842090851684528252808320548151928301526107c0910161061c565b9392505050565b60006106957f000000000000000000000000000000000000000000000000000000000000000073ffffffffffffffffffffffffffffffffffffffff1663313ce5676040518163ffffffff1660e01b8152600401602060405180830381865afa158015610837573d6000803e3d6000fd5b505050506040513d601f19601f8201168201806040525081019061085b9190614ac4565b6040805160ff90921660208301520161061c565b6000828152600d6020908152604080832073ffffffffffffffffffffffffffffffffffffffff851684528252808320548151928301526108af910161061c565b92915050565b60006108af826120d0565b73ffffffffffffffffffffffffffffffffffffffff81166000908152600c602090815260408083205490516106309261061c9260ff169101901515815260200190565b606061063061060c8361226c565b836109fe81604080513060208083019190915281830193909352815180820383018152606080830184528151918501919091207fff0000000000000000000000000000000000000000000000000000000000000060808401527f000000000000000000000000000000000000000000000000000000000000000090911b7fffffffffffffffffffffffffffffffffffffffff00000000000000000000000016608183015260958201527f000000000000000000000000000000000000000000000000000000000000000060b5808301919091528251808303909101815260d5909101909152805191012090565b73ffffffffffffffffffffffffffffffffffffffff163373ffffffffffffffffffffffffffffffffffffffff1614610a62576040517f2aab8bd300000000000000000000000000000000000000000000000000000000815260040160405180910390fd5b610a6e858585856123a2565b5050505050565b60606106956040518060400160405280600681526020017f76312e302e32000000000000000000000000000000000000000000000000000081525060405160200161061c9190614355565b610b39604051806101e001604052806000815260200160008152602001600081526020016000815260200160008152602001600081526020016000815260200160008152602001600081526020016000815260200160008152602001600081526020016000815260200160008152602001600081525090565b6000610b4361241c565b600654600e6020527fd2d06a3478833ecfcc0864e3afb188a7ff21caef68ea336a6e4f79f78f6fb3e95460008080527fe710864318d4a32f37d6ce54cb3fadbef648dd12d8dbdf53973564d56b7f881c54939450926fffffffffffffffffffffffffffffffff90921691610bb79190614b3f565b610bc19190614b52565b90506000808311610bd3576000610bee565b610bee83610be8610be386612434565b6125f6565b9061263f565b604080516101e0810182526001546fffffffffffffffffffffffffffffffff8082168352600354600f81900b60208501526005546dffffffffffffffffffffffffffff62010000820416958501959095527001000000000000000000000000000000009485900482166060850152918490048116608084015260a0830187905260c08301889052600254849004811660e0840152600454808216610100850152918490048116610120840152908390048116610140830152600654808216610160840152929092049091166101808201529091506000906101a081018415610cdf57610cda8486612654565b610ce2565b60005b81526002546fffffffffffffffffffffffffffffffff16602091820152604051919250610db19161061c91849101815181526020808301519082015260408083015190820152606080830151908201526080808301519082015260a0808301519082015260c0808301519082015260e08083015190820152610100808301519082015261012080830151908201526101408083015190820152610160808301519082015261018080830151908201526101a080830151908201526101c091820151918101919091526101e00190565b5050505090565b610dc28282612669565b5050565b73ffffffffffffffffffffffffffffffffffffffff8116600090815260116020908152604080832054815192830152610630910161061c565b610e0b838383336123a2565b505050565b336000818152600f6020908152604080832073ffffffffffffffffffffffffffffffffffffffff87168085529083529281902080547fffffffffffffffffffffffffffffffffffffffffffffffffffffffffffffff001686151590811790915590519081529192917f17307eab39ab6107e8899845ad3d59bd9653f200f220920489ca2b5937696c31910160405180910390a35050565b61063e81612744565b61063e81612804565b610ec16141b0565b604080516101c08101825273ffffffffffffffffffffffffffffffffffffffff7f0000000000000000000000000000000000000000000000000000000000000000811682527f000000000000000000000000000000000000000000000000000000000000000081166020808401919091527f00000000000000000000000000000000000000000000000000000000000000008216838501527f00000000000000000000000000000000000000000000000000000000000000006060808501919091527f00000000000000000000000000000000000000000000000000000000000000006080808601919091527f000000000000000000000000000000000000000000000000000000000000000060a08601527f000000000000000000000000000000000000000000000000000000000000000060c08601527f000000000000000000000000000000000000000000000000000000000000000060e08601527f00000000000000000000000000000000000000000000000000000000000000006101008601527f0000000000000000000000000000000000000000000000000000000000000000610120860152600a5484166101408601526008548416610160860152600954909316610180850152845192830185527f000000000000000000000000000000000000000000000000000000000000000083527f0000000000000000000000000000000000000000000000000000000000000000838301527f0000000000000000000000000000000000000000000000000000000000000000838601527f0000000000000000000000000000000000000000000000000000000000000000908301526101a083019190915291516106959261061c9291016146ef565b6000818152600e6020908152604080832054815192830152610630910161061c565b606060008267ffffffffffffffff81111561118157611181614b65565b6040519080825280602002602001820160405280156111aa578160200160208202803683370190505b50905060005b838110156112035760008585838181106111cc576111cc614b94565b905060200201359050600081549050808484815181106111ee576111ee614b94565b602090810291909101015250506001016111b0565b506112188160405160200161061c9190614893565b5092915050565b6040805173ffffffffffffffffffffffffffffffffffffffff7f0000000000000000000000000000000000000000000000000000000000000000166020820152600091610695910161061c565b6000610695600b5460405160200161061c91815260200190565b60006106306112bd6112b87f000000000000000000000000000000000000000000000000000000000000000085614b3f565b6128c4565b60405160200161061c91815260200190565b6040805161018081018252600080825260208201819052918101829052606081018290526080810182905260a0810182905260c0810182905260e08101829052610100810182905261012081018290526101408101829052610160810191909152610695600160405160200161061c919081546fffffffffffffffffffffffffffffffff8082168352608091821c602084015260018401548082166040850152821c60608401526002840154600f81900b83850152821c60a0840152600384015490811660c0840152811c60e083015260049092015460ff8082161515610100840152600882901c1615156101208301526dffffffffffffffffffffffffffff601082901c1661014083015290911c6101608201526101800190565b846114d881604080513060208083019190915281830193909352815180820383018152606080830184528151918501919091207fff0000000000000000000000000000000000000000000000000000000000000060808401527f000000000000000000000000000000000000000000000000000000000000000090911b7fffffffffffffffffffffffffffffffffffffffff00000000000000000000000016608183015260958201527f000000000000000000000000000000000000000000000000000000000000000060b5808301919091528251808303909101815260d5909101909152805191012090565b73ffffffffffffffffffffffffffffffffffffffff163373ffffffffffffffffffffffffffffffffffffffff161461153c576040517f2aab8bd300000000000000000000000000000000000000000000000000000000815260040160405180910390fd5b61070f8686868686611e56565b61063e81612908565b73ffffffffffffffffffffffffffffffffffffffff8281166000908152600f60209081526040808320938516835292815282822054835160ff90911615159181019190915290916108af910161061c565b60408051808201909152600080825260208201526040805180820182526006546fffffffffffffffffffffffffffffffff80821680845270010000000000000000000000000000000090920481166020938401908152845193840192909252905116918101919091526106959060600161061c565b606060f882901c7effffffffffffffffffffffffffffffffffffffffffffffffffffffffffffff8316600061164c826129c8565b9050600083600381111561166257611662614ae1565b036116a4576040518060400160405280600d81526020017f48797065726472697665204c50000000000000000000000000000000000000008152509350611760565b60018360038111156116b8576116b8614ae1565b036116e457806040516020016116ce9190614bc3565b6040516020818303038152906040529350611760565b60028360038111156116f8576116f8614ae1565b0361170e57806040516020016116ce9190614c08565b600383600381111561172257611722614ae1565b03611760576040518060400160405280601b81526020017f48797065726472697665205769746864726177616c205368617265000000000081525093505b505050919050565b806040517fdcc8112600000000000000000000000000000000000000000000000000000000815260040161179c9190614355565b60405180910390fd5b6117ad612a95565b600954336000908152600c602052604090205473ffffffffffffffffffffffffffffffffffffffff9091169060ff161580156117ff57503373ffffffffffffffffffffffffffffffffffffffff821614155b80156118235750600a5473ffffffffffffffffffffffffffffffffffffffff163314155b1561185a576040517f82b4290000000000000000000000000000000000000000000000000000000000815260040160405180910390fd5b6000611864612ad8565b6040517f70a0823100000000000000000000000000000000000000000000000000000000815230600482015290915060009073ffffffffffffffffffffffffffffffffffffffff8516906370a0823190602401602060405180830381865afa1580156118d4573d6000803e3d6000fd5b505050506040513d601f19601f820116820180604052508101906118f89190614c4d565b905061191b73ffffffffffffffffffffffffffffffffffffffff85168483612b89565b81611924612ad8565b1461195b576040517f9eec2ff800000000000000000000000000000000000000000000000000000000815260040160405180910390fd5b8373ffffffffffffffffffffffffffffffffffffffff168373ffffffffffffffffffffffffffffffffffffffff167f951f51ee88c8e42633698bba90d1e53c0954470938036879e691c0232b47e09660405160405180910390a350505061063e6001600055565b336000908152600c602052604090205460ff16611a0b576040517f82b4290000000000000000000000000000000000000000000000000000000000815260040160405180910390fd5b60058054821515610100027fffffffffffffffffffffffffffffffffffffffffffffffffffffffffffff00ff9091161790556040517f7c4d1fe30fdbfda9e9c4c43e759ef32e4db5128d4cb58ff3ae9583b89b6242a590611a7190831515815260200190565b60405180910390a150565b83421115611ab6576040517ff87d927100000000000000000000000000000000000000000000000000000000815260040160405180910390fd5b73ffffffffffffffffffffffffffffffffffffffff8716611b03576040517ff0dd15fd00000000000000000000000000000000000000000000000000000000815260040160405180910390fd5b73ffffffffffffffffffffffffffffffffffffffff87811660008181526011602090815260408083205481518084018f905280830195909552948b166060850152891515608085015260a084019490945260c08084018990528451808503909101815260e0840190945283519301929092207f190100000000000000000000000000000000000000000000000000000000000061010083015261010282018c905261012282015261014201604080517fffffffffffffffffffffffffffffffffffffffffffffffffffffffffffffffe08184030181528282528051602091820120600080855291840180845281905260ff88169284019290925260608301869052608083018590529092509060019060a0016020604051602081039080840390855afa158015611c37573d6000803e3d6000fd5b5050506020604051035190508873ffffffffffffffffffffffffffffffffffffffff168173ffffffffffffffffffffffffffffffffffffffff1614611ca8576040517f8baa579f00000000000000000000000000000000000000000000000000000000815260040160405180910390fd5b73ffffffffffffffffffffffffffffffffffffffff898116600081815260116020908152604080832080546001019055600f8252808320948d168084529482529182902080547fffffffffffffffffffffffffffffffffffffffffffffffffffffffffffffff00168c151590811790915591519182527f17307eab39ab6107e8899845ad3d59bd9653f200f220920489ca2b5937696c31910160405180910390a35050505050505050505050565b73ffffffffffffffffffffffffffffffffffffffff86161580611d8d575073ffffffffffffffffffffffffffffffffffffffff8516155b15611dc4576040517ff0dd15fd00000000000000000000000000000000000000000000000000000000815260040160405180910390fd5b828114611dfd576040517fba430d3800000000000000000000000000000000000000000000000000000000815260040160405180910390fd5b60005b83811015611e4d57611e45858583818110611e1d57611e1d614b94565b905060200201358888868686818110611e3857611e38614b94565b9050602002013533611e56565b600101611e00565b50505050505050565b73ffffffffffffffffffffffffffffffffffffffff84161580611e8d575073ffffffffffffffffffffffffffffffffffffffff8316155b15611ec4576040517ff0dd15fd00000000000000000000000000000000000000000000000000000000815260040160405180910390fd5b8373ffffffffffffffffffffffffffffffffffffffff168173ffffffffffffffffffffffffffffffffffffffff1614611fe75773ffffffffffffffffffffffffffffffffffffffff8085166000908152600f602090815260408083209385168352929052205460ff16611fe757600085815260106020908152604080832073ffffffffffffffffffffffffffffffffffffffff808916855290835281842090851684529091529020547fffffffffffffffffffffffffffffffffffffffffffffffffffffffffffffffff8114611fe557600086815260106020908152604080832073ffffffffffffffffffffffffffffffffffffffff808a168552908352818420908616845290915281208054859290611fdf908490614b52565b90915550505b505b6000858152600d6020908152604080832073ffffffffffffffffffffffffffffffffffffffff8816845290915281208054849290612026908490614b52565b90915550506000858152600d6020908152604080832073ffffffffffffffffffffffffffffffffffffffff871684529091528120805484929061206a908490614b3f565b9091555050604080518681526020810184905273ffffffffffffffffffffffffffffffffffffffff8086169287821692918516917fc3d58168c5ae7397731d063d5bbf3d657854427343f4c083240f7aacaa2d0f62910160405180910390a45050505050565b60006120da612a95565b6120e382612c16565b60085473ffffffffffffffffffffffffffffffffffffffff168061210a602085018561438a565b73ffffffffffffffffffffffffffffffffffffffff1614612157576040517f2b44eccc00000000000000000000000000000000000000000000000000000000815260040160405180910390fd5b336000908152600c602052604090205460ff1615801561218d57503373ffffffffffffffffffffffffffffffffffffffff821614155b80156121b15750600a5473ffffffffffffffffffffffffffffffffffffffff163314155b156121e8576040517f82b4290000000000000000000000000000000000000000000000000000000000815260040160405180910390fd5b60006121f261241c565b600b80546000909155909150612209818387612c72565b93508273ffffffffffffffffffffffffffffffffffffffff167fa4bafc79b3f9fdba2427cd386f1fbc7d8779e9fd7229f6220d53bc04d3901e4761224e868589612d0c565b60405190815260200160405180910390a25050506106306001600055565b606060f882901c7effffffffffffffffffffffffffffffffffffffffffffffffffffffffffffff831660006122a0826129c8565b905060008360038111156122b6576122b6614ae1565b036122f8576040518060400160405280600d81526020017f485950455244524956452d4c50000000000000000000000000000000000000008152509350611760565b600183600381111561230c5761230c614ae1565b0361232257806040516020016116ce9190614c66565b600283600381111561233657612336614ae1565b0361234c57806040516020016116ce9190614cab565b600383600381111561236057612360614ae1565b0361176057505060408051808201909152600d81527f485950455244524956452d57530000000000000000000000000000000000000060208201529392505050565b600084815260106020908152604080832073ffffffffffffffffffffffffffffffffffffffff85811680865291845282852090881680865290845293829020869055905185815290917f8c5be1e5ebec7d5bd14f71427d1e84f3dd0314c0f7b2291e5b200ac8c7c3b925910160405180910390a350505050565b600061242f670de0b6b3a7640000612d3b565b905090565b6124986040518061018001604052806000815260200160008152602001600081526020016000815260200160008152602001600081526020016000815260200160008152602001600081526020016000815260200160008152602001600081525090565b60408051610180810182526001546fffffffffffffffffffffffffffffffff8082168352600354600f0b602084015270010000000000000000000000000000000091829004811693830193909352606082018590527f000000000000000000000000000000000000000000000000000000000000000060808301527f000000000000000000000000000000000000000000000000000000000000000060a08301527f000000000000000000000000000000000000000000000000000000000000000060c08301527f000000000000000000000000000000000000000000000000000000000000000060e083015260025404821661010082015260045490916101208301916125a69116612dee565b81526003546fffffffffffffffffffffffffffffffff70010000000000000000000000000000000091829004811660208401526004546040909301926125ee92900416612dee565b905292915050565b600080600061260484612e64565b9150915080611218576040517faa2c651600000000000000000000000000000000000000000000000000000000815260040160405180910390fd5b60006107c08383670de0b6b3a7640000612ef1565b60006107c083670de0b6b3a764000084612ef1565b600a5473ffffffffffffffffffffffffffffffffffffffff1633146126ba576040517f82b4290000000000000000000000000000000000000000000000000000000000815260040160405180910390fd5b73ffffffffffffffffffffffffffffffffffffffff82166000818152600c602090815260409182902080547fffffffffffffffffffffffffffffffffffffffffffffffffffffffffffffff001685151590811790915591519182527f902923dcd4814f6cef7005a70e01d5cf2035ab02d4523ef3b865f1d7bab885af910160405180910390a25050565b600a5473ffffffffffffffffffffffffffffffffffffffff163314612795576040517f82b4290000000000000000000000000000000000000000000000000000000000815260040160405180910390fd5b600880547fffffffffffffffffffffffff00000000000000000000000000000000000000001673ffffffffffffffffffffffffffffffffffffffff83169081179091556040517fe5693914d19c789bdee50a362998c0bc8d035a835f9871da5d51152f0582c34f90600090a250565b600a5473ffffffffffffffffffffffffffffffffffffffff163314612855576040517f82b4290000000000000000000000000000000000000000000000000000000000815260040160405180910390fd5b600a80547fffffffffffffffffffffffff00000000000000000000000000000000000000001673ffffffffffffffffffffffffffffffffffffffff83169081179091556040517f9d3e522e1e47a2f6009739342b9cc7b252a1888154e843ab55ee1c81745795ab90600090a250565b60006128ec600e60006128d8600286612f2d565b815260200190815260200160002054612f93565b6128fe600e60006128d8600187612f2d565b6108af9190614ce3565b600a5473ffffffffffffffffffffffffffffffffffffffff163314612959576040517f82b4290000000000000000000000000000000000000000000000000000000000815260040160405180910390fd5b600980547fffffffffffffffffffffffff00000000000000000000000000000000000000001673ffffffffffffffffffffffffffffffffffffffff83169081179091556040517fc049058b1df2dd8902739ceb78992df12fa8369c06c450b3c6787137b452fdd290600090a250565b60408051604e80825260808201909252606091906000908260208201818036833701905050905060005b8415612a8757612a03600a86614d32565b612a0e906030614b3f565b60f81b826001612a1e8487614b52565b612a289190614b52565b81518110612a3857612a38614b94565b60200101907effffffffffffffffffffffffffffffffffffffffffffffffffffffffffffff1916908160001a90535080612a7181614d46565b9150612a809050600a86614d7e565b94506129f2565b918290030190815292915050565b600260005403612ad1576040517f3ee5aeb500000000000000000000000000000000000000000000000000000000815260040160405180910390fd5b6002600055565b6040517f70a082310000000000000000000000000000000000000000000000000000000081523060048201526000907f000000000000000000000000000000000000000000000000000000000000000073ffffffffffffffffffffffffffffffffffffffff16906370a0823190602401602060405180830381865afa158015612b65573d6000803e3d6000fd5b505050506040513d601f19601f8201168201806040525081019061242f9190614c4d565b6040805173ffffffffffffffffffffffffffffffffffffffff8416602482015260448082018490528251808303909101815260649091019091526020810180517bffffffffffffffffffffffffffffffffffffffffffffffffffffffff167fa9059cbb00000000000000000000000000000000000000000000000000000000179052610e0b908490612ff3565b6000612c25602083018361438a565b73ffffffffffffffffffffffffffffffffffffffff160361063e576040517ff0dd15fd00000000000000000000000000000000000000000000000000000000815260040160405180910390fd5b600080612c7f858561263f565b9050612c8a81613089565b945084600003612c9e5760009150506107c0565b612cae60408401602085016143b5565b15612cdd57612cd685612cc4602086018661438a565b612cd16040870187614d92565b6130ff565b9150612d04565b612d0085612cee602086018661438a565b612cfb6040870187614d92565b6131cc565b8491505b509392505050565b6000612d1e60408301602084016143b5565b15612d2a5750826107c0565b612d34848461263f565b90506107c0565b6040517f07a2d13a000000000000000000000000000000000000000000000000000000008152600481018290526000907f000000000000000000000000000000000000000000000000000000000000000073ffffffffffffffffffffffffffffffffffffffff16906307a2d13a906024015b602060405180830381865afa158015612dca573d6000803e3d6000fd5b505050506040513d601f19601f820116820180604052508101906108af9190614c4d565b600080670de0b6b3a7640000612e0261320d565b612e0c9190614df7565b9050808311612e1c576000612e26565b612e268184614b52565b91506107c0612e5d670de0b6b3a76400007f0000000000000000000000000000000000000000000000000000000000000000614df7565b8390612654565b6000806000806000612e7586613243565b9150915080612e8c57506000958695509350505050565b612e998660a00151612f93565b612ea28761357d565b83612eb08960000151612f93565b612eba9190614e0e565b612ec49190614e0e565b612ece9190614ce3565b925050506000811215612ee75750600093849350915050565b9360019350915050565b6000827fffffffffffffffffffffffffffffffffffffffffffffffffffffffffffffffff0484118302158202612f2657600080fd5b5091020490565b60007effffffffffffffffffffffffffffffffffffffffffffffffffffffffffffff821115612f88576040517fb7d0949700000000000000000000000000000000000000000000000000000000815260040160405180910390fd5b5060f89190911b1790565b60007f7fffffffffffffffffffffffffffffffffffffffffffffffffffffffffffffff821115612fef576040517f72dd4e0200000000000000000000000000000000000000000000000000000000815260040160405180910390fd5b5090565b600061301573ffffffffffffffffffffffffffffffffffffffff8416836135e1565b9050805160001415801561303a5750808060200190518101906130389190614e2e565b155b15610e0b576040517f5274afe700000000000000000000000000000000000000000000000000000000815273ffffffffffffffffffffffffffffffffffffffff8416600482015260240161179c565b6040517fc6e6f592000000000000000000000000000000000000000000000000000000008152600481018290526000907f000000000000000000000000000000000000000000000000000000000000000073ffffffffffffffffffffffffffffffffffffffff169063c6e6f59290602401612dad565b6040517fba0876520000000000000000000000000000000000000000000000000000000081526004810185905273ffffffffffffffffffffffffffffffffffffffff84811660248301523060448301526000917f00000000000000000000000000000000000000000000000000000000000000009091169063ba087652906064016020604051808303816000875af115801561319f573d6000803e3d6000fd5b505050506040513d601f19601f820116820180604052508101906131c39190614c4d565b95945050505050565b61072473ffffffffffffffffffffffffffffffffffffffff7f0000000000000000000000000000000000000000000000000000000000000000168486612b89565b60006132397f000000000000000000000000000000000000000000000000000000000000000042614d32565b61242f9042614b52565b600080600061326d61326885610160015186610140015161263f90919063ffffffff16565b612f93565b61328d6132688661012001518761010001516135ef90919063ffffffff16565b6132979190614ce3565b90506000806132ae86600001518760200151613604565b91509150806132c557506000958695509350505050565b60008313156134155760008390506000613313886000015189602001518a604001518b60a001518c60e00151670de0b6b3a76400006133049190614b52565b8d606001518e60800151613643565b935090508261332c575060009788975095505050505050565b8181106133ca576000613366858a60400151858c60e00151670de0b6b3a76400006133579190614b52565b8d606001518e60800151613755565b945090508315801561337b57508860c0015183105b156133925750600098600198509650505050505050565b836133a857506000988998509650505050505050565b6133b181612f93565b6133ba90614e4b565b9960019950975050505050505050565b6000886020015112613401576133e98860a00151856132689190614b52565b6133f290614e4b565b98600198509650505050505050565b60a088015188516133e99161326891614b52565b600083121561356e57600061342984614e4b565b9050600061345d8489604001518a60e00151670de0b6b3a764000061344e9190614b52565b8b606001518c60800151613818565b9350905082613476575060009788975095505050505050565b8181106134fb5760006134b0858a60400151858c60e00151670de0b6b3a76400006134a19190614b52565b8d606001518e608001516138c4565b94509050831580156134c557508860c0015183105b156134dc5750600098600198509650505050505050565b836134f257506000988998509650505050505050565b6133ba81612f93565b600061352d858a604001518b60e00151670de0b6b3a764000061351e9190614b52565b8c606001518d6080015161399b565b945090508361354757506000988998509650505050505050565b6133ba6135648a60600151848661355e9190614b52565b90612654565b6132689083614b3f565b50600095600195509350505050565b60006135b0613268836101200151670de0b6b3a764000061359e9190614b52565b60608501516101008601519190613a4a565b6128fe613268846101600151670de0b6b3a76400006135cf9190614b52565b60608601516101408701519190612ef1565b60606107c083836000613a8e565b60006107c08383670de0b6b3a7640000613a4a565b60008060008361361386612f93565b61361d9190614ce3565b9050600081121561363557600080925092505061363c565b9150600190505b9250929050565b60008060008812156136655761365888614e4b565b6136629087614b3f565b95505b6000806136728b8b613604565b915091508061368957600080935093505050613749565b6000613698838b8a8a8a613b51565b905060006136bb6136b38a6136ad8a8e6135ef565b90613b80565b899089613a4a565b9050808210156136d5576000809550955050505050613749565b808203670de0b6b3a7640000811061370a576137036136fc670de0b6b3a76400008c612654565b8290613b80565b9050613722565b61371f6136fc670de0b6b3a76400008c613beb565b90505b8b81101561373b57600080965096505050505050613749565b8b9003955060019450505050505b97509795505050505050565b60008060006137678989888888613c00565b9050613777866136ad898b614b3f565b97508781101561378e57600080925092505061380d565b87810361379c818688613a4a565b9050670de0b6b3a764000081106137c9576137c26136fc670de0b6b3a764000089613beb565b90506137e1565b6137de6136fc670de0b6b3a764000089612654565b90505b6137eb8186613beb565b9050808a10156138035760008093509350505061380d565b8903925060019150505b965096945050505050565b600080600061382a8888888888613c00565b90506000613855670de0b6b3a76400006138448888612654565b61384e9190614b3f565b8390613beb565b9050670de0b6b3a764000081106138825761387b6136fc670de0b6b3a764000089613beb565b905061389a565b6138976136fc670de0b6b3a764000089612654565b90505b808810156138b0576000809350935050506138ba565b8703925060019150505b9550959350505050565b60008060006138d68989888888613c00565b9050868810156138ed57600080925092505061380d565b96869003966138fc8887613b80565b97508781101561391357600080925092505061380d565b878103613921818688613a4a565b9050670de0b6b3a7640000811061394e576139476136fc670de0b6b3a764000089613beb565b9050613966565b6139636136fc670de0b6b3a764000089612654565b90505b6139708186613beb565b9050898110156139885760008093509350505061380d565b9890980398600198509650505050505050565b60008060006139ad8888888888613b51565b905060006139d1670de0b6b3a76400006139c78888613beb565b612e5d9190614b3f565b9050670de0b6b3a764000081106139fe576139f76136fc670de0b6b3a764000089612654565b9050613a16565b613a136136fc670de0b6b3a764000089613beb565b90505b613a208186612654565b905088811015613a38576000809350935050506138ba565b97909703976001975095505050505050565b6000827fffffffffffffffffffffffffffffffffffffffffffffffffffffffffffffffff0484118302158202613a7f57600080fd5b50910281810615159190040190565b606081471015613acc576040517fcd78605900000000000000000000000000000000000000000000000000000000815230600482015260240161179c565b6000808573ffffffffffffffffffffffffffffffffffffffff168486604051613af59190614e83565b60006040518083038185875af1925050503d8060008114613b32576040519150601f19603f3d011682016040523d82523d6000602084013e613b37565b606091505b5091509150613b47868383613c25565b9695505050505050565b6000613b5d8585613b80565b613b76613b6e866136ad868b61263f565b859085612ef1565b613b479190614b3f565b600081600003613b995750670de0b6b3a76400006108af565b82600003613ba9575060006108af565b6000613bb483612f93565b90506000613bc9613bc486612f93565b613cb4565b9050818102613be0670de0b6b3a764000082614e9f565b9050613b4781613f55565b60006107c083670de0b6b3a764000084613a4a565b6000613c0c8585613b80565b613b76613c1d866136ad868b6135ef565b859085613a4a565b606082613c3a57613c358261416e565b6107c0565b8151158015613c5e575073ffffffffffffffffffffffffffffffffffffffff84163b155b15613cad576040517f9996b31500000000000000000000000000000000000000000000000000000000815273ffffffffffffffffffffffffffffffffffffffff8516600482015260240161179c565b50806107c0565b6000808213613cef576040517fe61b497500000000000000000000000000000000000000000000000000000000815260040160405180910390fd5b506fffffffffffffffffffffffffffffffff811160071b81811c67ffffffffffffffff1060061b1781811c63ffffffff1060051b1781811c61ffff1060041b1781811c60ff10600390811b90911782811c600f1060021b1782811c909110600190811b90911782811c90911017609f8181036060019290921b917fffffffffffffffffffffffffffffffffffffffffffffffffffffffffffffffa0820190613d999084901c612f93565b6c465772b2bbbb5f824b15207a3081018102606090811d6d0388eaa27412d5aca026815d636e018202811d6d0df99ac502031bf953eff472fdcc018202811d6d13cdffb29d51d99322bdff5f2211018202811d6d0a0f742023def783a307a986912e018202811d6d01920d8043ca89b5239253284e42018202811d6c0b7a86d7375468fac667a0a527016c29508e458543d8aa4df2abee7883018302821d6d0139601a2efabe717e604cbb4894018302821d6d02247f7a7b6594320649aa03aba1018302821d7fffffffffffffffffffffffffffffffffffffff73c0c716a594e00d54e3c4cbc9018302821d7ffffffffffffffffffffffffffffffffffffffdc7b88c420e53a9890533129f6f01830290911d7fffffffffffffffffffffffffffffffffffffff465fda27eb4d63ded474e5f832019091027ffffffffffffffff5f6af8f7b3396644f18e157960000000000000000000000000105711340daa0d5f769dba1915cef59f0815a5506027d0267a36c0c95b3975ab3ee5b203a7614a3f75373f047d803ae7b6687f2b391909102017d57115e47018c7177eebf7cd370a3356a1b7863008a5ae8028c72b88642840160ae1d92915050565b60007ffffffffffffffffffffffffffffffffffffffffffffffffdb731c958f34d94c18213613f8657506000919050565b680755bf798b4a1bf1e58212613fc8576040517f73a2d6b100000000000000000000000000000000000000000000000000000000815260040160405180910390fd5b6503782dace9d9604e83901b059150600060606bb17217f7d1cf79abc9e3b39884821b056b80000000000000000000000001901d6bb17217f7d1cf79abc9e3b3988102909303927fffffffffffffffffffffffffffffffffffffffdbf3ccf1604d263450f02a550484018402606090811d6d0277594991cfc85f6e2461837cd9018502811d7fffffffffffffffffffffffffffffffffffffe5adedaa1cb095af9e4da10e363c018502811d6db1bbb201f443cf962f1a1d3db4a5018502811d7ffffffffffffffffffffffffffffffffffffd38dc772608b0ae56cce01296c0eb018502811d6e05180bb14799ab47a8a8cb2a527d57016d02d16720577bd19bf614176fe9ea6c10fe68e7fd37d0007b713f765087018702831d9081019087017ffffffffffffffffffffffffffffffffffffffe2c69812cf03b0763fd454a8f7e01810290921d6e0587f503bb6ea29d25fcb74019645001860279d835ebba824c98fb31b83b2ca45c000000000000000000000000018181059550929350909190613b4774029d9dc38563c32e5c2f6dc192ee70ef65f9978af3860260c38690031c612f93565b80511561417e5780518082602001fd5b6040517f1425ea4200000000000000000000000000000000000000000000000000000000815260040160405180910390fd5b604051806101c00160405280600073ffffffffffffffffffffffffffffffffffffffff168152602001600073ffffffffffffffffffffffffffffffffffffffff168152602001600073ffffffffffffffffffffffffffffffffffffffff16815260200160008019168152602001600081526020016000815260200160008152602001600081526020016000815260200160008152602001600073ffffffffffffffffffffffffffffffffffffffff168152602001600073ffffffffffffffffffffffffffffffffffffffff168152602001600073ffffffffffffffffffffffffffffffffffffffff1681526020016142c96040518060800160405280600081526020016000815260200160008152602001600081525090565b905290565b6000602082840312156142e057600080fd5b5035919050565b60005b838110156143025781810151838201526020016142ea565b50506000910152565b600081518084526143238160208601602086016142e7565b601f017fffffffffffffffffffffffffffffffffffffffffffffffffffffffffffffffe0169290920160200192915050565b6020815260006107c0602083018461430b565b73ffffffffffffffffffffffffffffffffffffffff8116811461063e57600080fd5b60006020828403121561439c57600080fd5b81356107c081614368565b801515811461063e57600080fd5b6000602082840312156143c757600080fd5b81356107c0816143a7565b60ff8116811461063e57600080fd5b60008060008060008060008060006101208a8c03121561440057600080fd5b8935985060208a0135975060408a013561441981614368565b965060608a013561442981614368565b955060808a0135614439816143a7565b945060a08a0135935060c08a0135614450816143d2565b8093505060e08a013591506101008a013590509295985092959850929598565b60008083601f84011261448257600080fd5b50813567ffffffffffffffff81111561449a57600080fd5b6020830191508360208260051b850101111561363c57600080fd5b600080600080600080608087890312156144ce57600080fd5b86356144d981614368565b955060208701356144e981614368565b9450604087013567ffffffffffffffff8082111561450657600080fd5b6145128a838b01614470565b9096509450606089013591508082111561452b57600080fd5b5061453889828a01614470565b979a9699509497509295939492505050565b6000806000806080858703121561456057600080fd5b84359350602085013561457281614368565b9250604085013561458281614368565b9396929550929360600135925050565b6000806000606084860312156145a757600080fd5b8335925060208401356145b981614368565b915060408401356145c981614368565b809150509250925092565b600080604083850312156145e757600080fd5b8235915060208301356145f981614368565b809150509250929050565b60006020828403121561461657600080fd5b813567ffffffffffffffff81111561462d57600080fd5b8201606081850312156107c057600080fd5b6000806000806080858703121561465557600080fd5b84359350602085013561466781614368565b925060408501359150606085013561467e81614368565b939692955090935050565b6000806040838503121561469c57600080fd5b82356146a781614368565b915060208301356145f9816143a7565b6000806000606084860312156146cc57600080fd5b8335925060208401356146de81614368565b929592945050506040919091013590565b815173ffffffffffffffffffffffffffffffffffffffff16815261022081016020830151614735602084018273ffffffffffffffffffffffffffffffffffffffff169052565b50604083015161475d604084018273ffffffffffffffffffffffffffffffffffffffff169052565b50606083015160608301526080830151608083015260a083015160a083015260c083015160c083015260e083015160e0830152610100808401518184015250610120808401518184015250610140808401516147d08285018273ffffffffffffffffffffffffffffffffffffffff169052565b50506101608381015173ffffffffffffffffffffffffffffffffffffffff81168483015250506101808381015173ffffffffffffffffffffffffffffffffffffffff81168483015250506101a08381015180518483015260208101516101c085015260408101516101e085015260608101516102008501525b505092915050565b6000806020838503121561486457600080fd5b823567ffffffffffffffff81111561487b57600080fd5b61488785828601614470565b90969095509350505050565b6020808252825182820181905260009190848201906040850190845b818110156148cb578351835292840192918401916001016148af565b50909695505050505050565b81516fffffffffffffffffffffffffffffffff1681526101808101602083015161491560208401826fffffffffffffffffffffffffffffffff169052565b50604083015161493960408401826fffffffffffffffffffffffffffffffff169052565b50606083015161495d60608401826fffffffffffffffffffffffffffffffff169052565b5060808301516149726080840182600f0b9052565b5060a083015161499660a08401826fffffffffffffffffffffffffffffffff169052565b5060c08301516149ba60c08401826fffffffffffffffffffffffffffffffff169052565b5060e08301516149de60e08401826fffffffffffffffffffffffffffffffff169052565b506101008381015115159083015261012080840151151590830152610140808401516dffffffffffffffffffffffffffff1690830152610160808401516fffffffffffffffffffffffffffffffff811682850152614849565b600080600080600060a08688031215614a4f57600080fd5b853594506020860135614a6181614368565b93506040860135614a7181614368565b9250606086013591506080860135614a8881614368565b809150509295509295909350565b60008060408385031215614aa957600080fd5b8235614ab481614368565b915060208301356145f981614368565b600060208284031215614ad657600080fd5b81516107c0816143d2565b7f4e487b7100000000000000000000000000000000000000000000000000000000600052602160045260246000fd5b7f4e487b7100000000000000000000000000000000000000000000000000000000600052601160045260246000fd5b808201808211156108af576108af614b10565b818103818111156108af576108af614b10565b7f4e487b7100000000000000000000000000000000000000000000000000000000600052604160045260246000fd5b7f4e487b7100000000000000000000000000000000000000000000000000000000600052603260045260246000fd5b7f48797065726472697665204c6f6e673a20000000000000000000000000000000815260008251614bfb8160118501602087016142e7565b9190910160110192915050565b7f487970657264726976652053686f72743a200000000000000000000000000000815260008251614c408160128501602087016142e7565b9190910160120192915050565b600060208284031215614c5f57600080fd5b5051919050565b7f485950455244524956452d4c4f4e473a00000000000000000000000000000000815260008251614c9e8160108501602087016142e7565b9190910160100192915050565b7f485950455244524956452d53484f52543a000000000000000000000000000000815260008251614bfb8160118501602087016142e7565b818103600083128015838313168383128216171561121857611218614b10565b7f4e487b7100000000000000000000000000000000000000000000000000000000600052601260045260246000fd5b600082614d4157614d41614d03565b500690565b60007fffffffffffffffffffffffffffffffffffffffffffffffffffffffffffffffff8203614d7757614d77614b10565b5060010190565b600082614d8d57614d8d614d03565b500490565b60008083357fffffffffffffffffffffffffffffffffffffffffffffffffffffffffffffffe1843603018112614dc757600080fd5b83018035915067ffffffffffffffff821115614de257600080fd5b60200191503681900382131561363c57600080fd5b80820281158282048414176108af576108af614b10565b808201828112600083128015821682158216171561484957614849614b10565b600060208284031215614e4057600080fd5b81516107c0816143a7565b60007f80000000000000000000000000000000000000000000000000000000000000008203614e7c57614e7c614b10565b5060000390565b60008251614e958184602087016142e7565b9190910192915050565b600082614eae57614eae614d03565b7fffffffffffffffffffffffffffffffffffffffffffffffffffffffffffffffff83147f800000000000000000000000000000000000000000000000000000000000000083141615614f0257614f02614b10565b50059056fea26469706673582212203e4c49c8491bfe92c639bdb3838dd9d3d3a8ef02c2e353e12efaafb0d6bf451464736f6c63430008140033a2646970667358221220e4be80bcb8a84d9f1344c14483fcdfc3e8b20b666376857e34d087f2143ccc3864736f6c63430008140033",
  "linkReferences": {},
  "deployedLinkReferences": {}
}