{
  "_format": "hh-sol-artifact-1",
  "contractName": "MockERC4626",
  "sourceName": "contracts/test/MockERC4626.sol",
  "abi": [
    {
      "inputs": [
        {
          "internalType": "contract ERC20Mintable",
          "name": "_asset",
          "type": "address"
        },
        {
          "internalType": "string",
          "name": "_name",
          "type": "string"
        },
        {
          "internalType": "string",
          "name": "_symbol",
          "type": "string"
        },
        {
          "internalType": "uint256",
          "name": "_initialRate",
          "type": "uint256"
        },
        {
          "internalType": "address",
          "name": "_admin",
          "type": "address"
        },
        {
          "internalType": "bool",
          "name": "_isCompetitionMode",
          "type": "bool"
        },
        {
          "internalType": "uint256",
          "name": "_maxMintAmount",
          "type": "uint256"
        }
      ],
      "stateMutability": "nonpayable",
      "type": "constructor"
    },
    {
      "anonymous": false,
      "inputs": [
        {
          "indexed": true,
          "internalType": "address",
          "name": "owner",
          "type": "address"
        },
        {
          "indexed": true,
          "internalType": "address",
          "name": "spender",
          "type": "address"
        },
        {
          "indexed": false,
          "internalType": "uint256",
          "name": "amount",
          "type": "uint256"
        }
      ],
      "name": "Approval",
      "type": "event"
    },
    {
      "anonymous": false,
      "inputs": [
        {
          "indexed": true,
          "internalType": "address",
          "name": "user",
          "type": "address"
        },
        {
          "indexed": true,
          "internalType": "contract Authority",
          "name": "newAuthority",
          "type": "address"
        }
      ],
      "name": "AuthorityUpdated",
      "type": "event"
    },
    {
      "anonymous": false,
      "inputs": [
        {
          "indexed": true,
          "internalType": "address",
          "name": "caller",
          "type": "address"
        },
        {
          "indexed": true,
          "internalType": "address",
          "name": "owner",
          "type": "address"
        },
        {
          "indexed": false,
          "internalType": "uint256",
          "name": "assets",
          "type": "uint256"
        },
        {
          "indexed": false,
          "internalType": "uint256",
          "name": "shares",
          "type": "uint256"
        }
      ],
      "name": "Deposit",
      "type": "event"
    },
    {
      "anonymous": false,
      "inputs": [
        {
          "indexed": true,
          "internalType": "address",
          "name": "user",
          "type": "address"
        },
        {
          "indexed": true,
          "internalType": "address",
          "name": "newOwner",
          "type": "address"
        }
      ],
      "name": "OwnershipTransferred",
      "type": "event"
    },
    {
      "anonymous": false,
      "inputs": [
        {
          "indexed": true,
          "internalType": "bytes4",
          "name": "functionSig",
          "type": "bytes4"
        },
        {
          "indexed": false,
          "internalType": "bool",
          "name": "enabled",
          "type": "bool"
        }
      ],
      "name": "PublicCapabilityUpdated",
      "type": "event"
    },
    {
      "anonymous": false,
      "inputs": [
        {
          "indexed": true,
          "internalType": "uint8",
          "name": "role",
          "type": "uint8"
        },
        {
          "indexed": true,
          "internalType": "bytes4",
          "name": "functionSig",
          "type": "bytes4"
        },
        {
          "indexed": false,
          "internalType": "bool",
          "name": "enabled",
          "type": "bool"
        }
      ],
      "name": "RoleCapabilityUpdated",
      "type": "event"
    },
    {
      "anonymous": false,
      "inputs": [
        {
          "indexed": true,
          "internalType": "address",
          "name": "target",
          "type": "address"
        },
        {
          "indexed": true,
          "internalType": "contract Authority",
          "name": "authority",
          "type": "address"
        }
      ],
      "name": "TargetCustomAuthorityUpdated",
      "type": "event"
    },
    {
      "anonymous": false,
      "inputs": [
        {
          "indexed": true,
          "internalType": "address",
          "name": "from",
          "type": "address"
        },
        {
          "indexed": true,
          "internalType": "address",
          "name": "to",
          "type": "address"
        },
        {
          "indexed": false,
          "internalType": "uint256",
          "name": "amount",
          "type": "uint256"
        }
      ],
      "name": "Transfer",
      "type": "event"
    },
    {
      "anonymous": false,
      "inputs": [
        {
          "indexed": true,
          "internalType": "address",
          "name": "user",
          "type": "address"
        },
        {
          "indexed": true,
          "internalType": "uint8",
          "name": "role",
          "type": "uint8"
        },
        {
          "indexed": false,
          "internalType": "bool",
          "name": "enabled",
          "type": "bool"
        }
      ],
      "name": "UserRoleUpdated",
      "type": "event"
    },
    {
      "anonymous": false,
      "inputs": [
        {
          "indexed": true,
          "internalType": "address",
          "name": "caller",
          "type": "address"
        },
        {
          "indexed": true,
          "internalType": "address",
          "name": "receiver",
          "type": "address"
        },
        {
          "indexed": true,
          "internalType": "address",
          "name": "owner",
          "type": "address"
        },
        {
          "indexed": false,
          "internalType": "uint256",
          "name": "assets",
          "type": "uint256"
        },
        {
          "indexed": false,
          "internalType": "uint256",
          "name": "shares",
          "type": "uint256"
        }
      ],
      "name": "Withdraw",
      "type": "event"
    },
    {
      "inputs": [],
      "name": "DOMAIN_SEPARATOR",
      "outputs": [
        {
          "internalType": "bytes32",
          "name": "",
          "type": "bytes32"
        }
      ],
      "stateMutability": "view",
      "type": "function"
    },
    {
      "inputs": [
        {
          "internalType": "address",
          "name": "",
          "type": "address"
        },
        {
          "internalType": "address",
          "name": "",
          "type": "address"
        }
      ],
      "name": "allowance",
      "outputs": [
        {
          "internalType": "uint256",
          "name": "",
          "type": "uint256"
        }
      ],
      "stateMutability": "view",
      "type": "function"
    },
    {
      "inputs": [
        {
          "internalType": "address",
          "name": "spender",
          "type": "address"
        },
        {
          "internalType": "uint256",
          "name": "amount",
          "type": "uint256"
        }
      ],
      "name": "approve",
      "outputs": [
        {
          "internalType": "bool",
          "name": "",
          "type": "bool"
        }
      ],
      "stateMutability": "nonpayable",
      "type": "function"
    },
    {
      "inputs": [],
      "name": "asset",
      "outputs": [
        {
          "internalType": "contract ERC20",
          "name": "",
          "type": "address"
        }
      ],
      "stateMutability": "view",
      "type": "function"
    },
    {
      "inputs": [],
      "name": "authority",
      "outputs": [
        {
          "internalType": "contract Authority",
          "name": "",
          "type": "address"
        }
      ],
      "stateMutability": "view",
      "type": "function"
    },
    {
      "inputs": [
        {
          "internalType": "address",
          "name": "",
          "type": "address"
        }
      ],
      "name": "balanceOf",
      "outputs": [
        {
          "internalType": "uint256",
          "name": "",
          "type": "uint256"
        }
      ],
      "stateMutability": "view",
      "type": "function"
    },
    {
      "inputs": [
        {
          "internalType": "uint256",
          "name": "amount",
          "type": "uint256"
        }
      ],
      "name": "burn",
      "outputs": [],
      "stateMutability": "nonpayable",
      "type": "function"
    },
    {
      "inputs": [
        {
          "internalType": "address",
          "name": "destination",
          "type": "address"
        },
        {
          "internalType": "uint256",
          "name": "amount",
          "type": "uint256"
        }
      ],
      "name": "burn",
      "outputs": [],
      "stateMutability": "nonpayable",
      "type": "function"
    },
    {
      "inputs": [
        {
          "internalType": "address",
          "name": "user",
          "type": "address"
        },
        {
          "internalType": "address",
          "name": "target",
          "type": "address"
        },
        {
          "internalType": "bytes4",
          "name": "functionSig",
          "type": "bytes4"
        }
      ],
      "name": "canCall",
      "outputs": [
        {
          "internalType": "bool",
          "name": "",
          "type": "bool"
        }
      ],
      "stateMutability": "view",
      "type": "function"
    },
    {
      "inputs": [
        {
          "internalType": "uint256",
          "name": "shares",
          "type": "uint256"
        }
      ],
      "name": "convertToAssets",
      "outputs": [
        {
          "internalType": "uint256",
          "name": "",
          "type": "uint256"
        }
      ],
      "stateMutability": "view",
      "type": "function"
    },
    {
      "inputs": [
        {
          "internalType": "uint256",
          "name": "assets",
          "type": "uint256"
        }
      ],
      "name": "convertToShares",
      "outputs": [
        {
          "internalType": "uint256",
          "name": "",
          "type": "uint256"
        }
      ],
      "stateMutability": "view",
      "type": "function"
    },
    {
      "inputs": [],
      "name": "decimals",
      "outputs": [
        {
          "internalType": "uint8",
          "name": "",
          "type": "uint8"
        }
      ],
      "stateMutability": "view",
      "type": "function"
    },
    {
      "inputs": [
        {
          "internalType": "uint256",
          "name": "_assets",
          "type": "uint256"
        },
        {
          "internalType": "address",
          "name": "_receiver",
          "type": "address"
        }
      ],
      "name": "deposit",
      "outputs": [
        {
          "internalType": "uint256",
          "name": "",
          "type": "uint256"
        }
      ],
      "stateMutability": "nonpayable",
      "type": "function"
    },
    {
      "inputs": [
        {
          "internalType": "uint8",
          "name": "role",
          "type": "uint8"
        },
        {
          "internalType": "bytes4",
          "name": "functionSig",
          "type": "bytes4"
        }
      ],
      "name": "doesRoleHaveCapability",
      "outputs": [
        {
          "internalType": "bool",
          "name": "",
          "type": "bool"
        }
      ],
      "stateMutability": "view",
      "type": "function"
    },
    {
      "inputs": [
        {
          "internalType": "address",
          "name": "user",
          "type": "address"
        },
        {
          "internalType": "uint8",
          "name": "role",
          "type": "uint8"
        }
      ],
      "name": "doesUserHaveRole",
      "outputs": [
        {
          "internalType": "bool",
          "name": "",
          "type": "bool"
        }
      ],
      "stateMutability": "view",
      "type": "function"
    },
    {
      "inputs": [],
      "name": "getRate",
      "outputs": [
        {
          "internalType": "uint256",
          "name": "",
          "type": "uint256"
        }
      ],
      "stateMutability": "view",
      "type": "function"
    },
    {
      "inputs": [
        {
          "internalType": "bytes4",
          "name": "",
          "type": "bytes4"
        }
      ],
      "name": "getRolesWithCapability",
      "outputs": [
        {
          "internalType": "bytes32",
          "name": "",
          "type": "bytes32"
        }
      ],
      "stateMutability": "view",
      "type": "function"
    },
    {
      "inputs": [
        {
          "internalType": "address",
          "name": "",
          "type": "address"
        }
      ],
      "name": "getTargetCustomAuthority",
      "outputs": [
        {
          "internalType": "contract Authority",
          "name": "",
          "type": "address"
        }
      ],
      "stateMutability": "view",
      "type": "function"
    },
    {
      "inputs": [
        {
          "internalType": "address",
          "name": "",
          "type": "address"
        }
      ],
      "name": "getUserRoles",
      "outputs": [
        {
          "internalType": "bytes32",
          "name": "",
          "type": "bytes32"
        }
      ],
      "stateMutability": "view",
      "type": "function"
    },
    {
      "inputs": [
        {
          "internalType": "bytes4",
          "name": "",
          "type": "bytes4"
        }
      ],
      "name": "isCapabilityPublic",
      "outputs": [
        {
          "internalType": "bool",
          "name": "",
          "type": "bool"
        }
      ],
      "stateMutability": "view",
      "type": "function"
    },
    {
      "inputs": [],
      "name": "isCompetitionMode",
      "outputs": [
        {
          "internalType": "bool",
          "name": "",
          "type": "bool"
        }
      ],
      "stateMutability": "view",
      "type": "function"
    },
    {
      "inputs": [
        {
          "internalType": "address",
          "name": "",
          "type": "address"
        }
      ],
      "name": "maxDeposit",
      "outputs": [
        {
          "internalType": "uint256",
          "name": "",
          "type": "uint256"
        }
      ],
      "stateMutability": "view",
      "type": "function"
    },
    {
      "inputs": [
        {
          "internalType": "address",
          "name": "",
          "type": "address"
        }
      ],
      "name": "maxMint",
      "outputs": [
        {
          "internalType": "uint256",
          "name": "",
          "type": "uint256"
        }
      ],
      "stateMutability": "view",
      "type": "function"
    },
    {
      "inputs": [],
      "name": "maxMintAmount",
      "outputs": [
        {
          "internalType": "uint256",
          "name": "",
          "type": "uint256"
        }
      ],
      "stateMutability": "view",
      "type": "function"
    },
    {
      "inputs": [
        {
          "internalType": "address",
          "name": "owner",
          "type": "address"
        }
      ],
      "name": "maxRedeem",
      "outputs": [
        {
          "internalType": "uint256",
          "name": "",
          "type": "uint256"
        }
      ],
      "stateMutability": "view",
      "type": "function"
    },
    {
      "inputs": [
        {
          "internalType": "address",
          "name": "owner",
          "type": "address"
        }
      ],
      "name": "maxWithdraw",
      "outputs": [
        {
          "internalType": "uint256",
          "name": "",
          "type": "uint256"
        }
      ],
      "stateMutability": "view",
      "type": "function"
    },
    {
      "inputs": [
        {
          "internalType": "address",
          "name": "destination",
          "type": "address"
        },
        {
          "internalType": "uint256",
          "name": "amount",
          "type": "uint256"
        }
      ],
      "name": "mint",
      "outputs": [],
      "stateMutability": "nonpayable",
      "type": "function"
    },
    {
      "inputs": [
        {
          "internalType": "uint256",
          "name": "_shares",
          "type": "uint256"
        },
        {
          "internalType": "address",
          "name": "_receiver",
          "type": "address"
        }
      ],
      "name": "mint",
      "outputs": [
        {
          "internalType": "uint256",
          "name": "",
          "type": "uint256"
        }
      ],
      "stateMutability": "nonpayable",
      "type": "function"
    },
    {
      "inputs": [
        {
          "internalType": "uint256",
          "name": "amount",
          "type": "uint256"
        }
      ],
      "name": "mint",
      "outputs": [],
      "stateMutability": "nonpayable",
      "type": "function"
    },
    {
      "inputs": [],
      "name": "name",
      "outputs": [
        {
          "internalType": "string",
          "name": "",
          "type": "string"
        }
      ],
      "stateMutability": "view",
      "type": "function"
    },
    {
      "inputs": [
        {
          "internalType": "address",
          "name": "",
          "type": "address"
        }
      ],
      "name": "nonces",
      "outputs": [
        {
          "internalType": "uint256",
          "name": "",
          "type": "uint256"
        }
      ],
      "stateMutability": "view",
      "type": "function"
    },
    {
      "inputs": [],
      "name": "owner",
      "outputs": [
        {
          "internalType": "address",
          "name": "",
          "type": "address"
        }
      ],
      "stateMutability": "view",
      "type": "function"
    },
    {
      "inputs": [
        {
          "internalType": "address",
          "name": "owner",
          "type": "address"
        },
        {
          "internalType": "address",
          "name": "spender",
          "type": "address"
        },
        {
          "internalType": "uint256",
          "name": "value",
          "type": "uint256"
        },
        {
          "internalType": "uint256",
          "name": "deadline",
          "type": "uint256"
        },
        {
          "internalType": "uint8",
          "name": "v",
          "type": "uint8"
        },
        {
          "internalType": "bytes32",
          "name": "r",
          "type": "bytes32"
        },
        {
          "internalType": "bytes32",
          "name": "s",
          "type": "bytes32"
        }
      ],
      "name": "permit",
      "outputs": [],
      "stateMutability": "nonpayable",
      "type": "function"
    },
    {
      "inputs": [
        {
          "internalType": "uint256",
          "name": "assets",
          "type": "uint256"
        }
      ],
      "name": "previewDeposit",
      "outputs": [
        {
          "internalType": "uint256",
          "name": "",
          "type": "uint256"
        }
      ],
      "stateMutability": "view",
      "type": "function"
    },
    {
      "inputs": [
        {
          "internalType": "uint256",
          "name": "shares",
          "type": "uint256"
        }
      ],
      "name": "previewMint",
      "outputs": [
        {
          "internalType": "uint256",
          "name": "",
          "type": "uint256"
        }
      ],
      "stateMutability": "view",
      "type": "function"
    },
    {
      "inputs": [
        {
          "internalType": "uint256",
          "name": "shares",
          "type": "uint256"
        }
      ],
      "name": "previewRedeem",
      "outputs": [
        {
          "internalType": "uint256",
          "name": "",
          "type": "uint256"
        }
      ],
      "stateMutability": "view",
      "type": "function"
    },
    {
      "inputs": [
        {
          "internalType": "uint256",
          "name": "assets",
          "type": "uint256"
        }
      ],
      "name": "previewWithdraw",
      "outputs": [
        {
          "internalType": "uint256",
          "name": "",
          "type": "uint256"
        }
      ],
      "stateMutability": "view",
      "type": "function"
    },
    {
      "inputs": [
        {
          "internalType": "uint256",
          "name": "_shares",
          "type": "uint256"
        },
        {
          "internalType": "address",
          "name": "_receiver",
          "type": "address"
        },
        {
          "internalType": "address",
          "name": "_owner",
          "type": "address"
        }
      ],
      "name": "redeem",
      "outputs": [
        {
          "internalType": "uint256",
          "name": "",
          "type": "uint256"
        }
      ],
      "stateMutability": "nonpayable",
      "type": "function"
    },
    {
      "inputs": [
        {
          "internalType": "contract Authority",
          "name": "newAuthority",
          "type": "address"
        }
      ],
      "name": "setAuthority",
      "outputs": [],
      "stateMutability": "nonpayable",
      "type": "function"
    },
    {
      "inputs": [
        {
          "internalType": "bytes4",
          "name": "functionSig",
          "type": "bytes4"
        },
        {
          "internalType": "bool",
          "name": "enabled",
          "type": "bool"
        }
      ],
      "name": "setPublicCapability",
      "outputs": [],
      "stateMutability": "nonpayable",
      "type": "function"
    },
    {
      "inputs": [
        {
          "internalType": "uint256",
          "name": "_rate_",
          "type": "uint256"
        }
      ],
      "name": "setRate",
      "outputs": [],
      "stateMutability": "nonpayable",
      "type": "function"
    },
    {
      "inputs": [
        {
          "internalType": "uint8",
          "name": "role",
          "type": "uint8"
        },
        {
          "internalType": "bytes4",
          "name": "functionSig",
          "type": "bytes4"
        },
        {
          "internalType": "bool",
          "name": "enabled",
          "type": "bool"
        }
      ],
      "name": "setRoleCapability",
      "outputs": [],
      "stateMutability": "nonpayable",
      "type": "function"
    },
    {
      "inputs": [
        {
          "internalType": "address",
          "name": "target",
          "type": "address"
        },
        {
          "internalType": "contract Authority",
          "name": "customAuthority",
          "type": "address"
        }
      ],
      "name": "setTargetCustomAuthority",
      "outputs": [],
      "stateMutability": "nonpayable",
      "type": "function"
    },
    {
      "inputs": [
        {
          "internalType": "address",
          "name": "user",
          "type": "address"
        },
        {
          "internalType": "uint8",
          "name": "role",
          "type": "uint8"
        },
        {
          "internalType": "bool",
          "name": "enabled",
          "type": "bool"
        }
      ],
      "name": "setUserRole",
      "outputs": [],
      "stateMutability": "nonpayable",
      "type": "function"
    },
    {
      "inputs": [],
      "name": "symbol",
      "outputs": [
        {
          "internalType": "string",
          "name": "",
          "type": "string"
        }
      ],
      "stateMutability": "view",
      "type": "function"
    },
    {
      "inputs": [],
      "name": "totalAssets",
      "outputs": [
        {
          "internalType": "uint256",
          "name": "",
          "type": "uint256"
        }
      ],
      "stateMutability": "view",
      "type": "function"
    },
    {
      "inputs": [],
      "name": "totalSupply",
      "outputs": [
        {
          "internalType": "uint256",
          "name": "",
          "type": "uint256"
        }
      ],
      "stateMutability": "view",
      "type": "function"
    },
    {
      "inputs": [
        {
          "internalType": "address",
          "name": "to",
          "type": "address"
        },
        {
          "internalType": "uint256",
          "name": "amount",
          "type": "uint256"
        }
      ],
      "name": "transfer",
      "outputs": [
        {
          "internalType": "bool",
          "name": "",
          "type": "bool"
        }
      ],
      "stateMutability": "nonpayable",
      "type": "function"
    },
    {
      "inputs": [
        {
          "internalType": "address",
          "name": "from",
          "type": "address"
        },
        {
          "internalType": "address",
          "name": "to",
          "type": "address"
        },
        {
          "internalType": "uint256",
          "name": "amount",
          "type": "uint256"
        }
      ],
      "name": "transferFrom",
      "outputs": [
        {
          "internalType": "bool",
          "name": "",
          "type": "bool"
        }
      ],
      "stateMutability": "nonpayable",
      "type": "function"
    },
    {
      "inputs": [
        {
          "internalType": "address",
          "name": "newOwner",
          "type": "address"
        }
      ],
      "name": "transferOwnership",
      "outputs": [],
      "stateMutability": "nonpayable",
      "type": "function"
    },
    {
      "inputs": [
        {
          "internalType": "uint256",
          "name": "_assets",
          "type": "uint256"
        },
        {
          "internalType": "address",
          "name": "_receiver",
          "type": "address"
        },
        {
          "internalType": "address",
          "name": "_owner",
          "type": "address"
        }
      ],
      "name": "withdraw",
      "outputs": [
        {
          "internalType": "uint256",
          "name": "",
          "type": "uint256"
        }
      ],
      "stateMutability": "nonpayable",
      "type": "function"
    }
  ],
  "bytecode": "0x6101406040523480156200001257600080fd5b506040516200372f3803806200372f833981016040819052620000359162000315565b823081818a8a8a8181846001600160a01b031663313ce5676040518163ffffffff1660e01b8152600401602060405180830381865afa1580156200007d573d6000803e3d6000fd5b505050506040513d601f19601f82011682018060405250810190620000a39190620003d8565b6000620000b1848262000493565b506001620000c0838262000493565b5060ff81166080524660a052620000d66200019b565b60c0525050506001600160a01b0392831660e0525050600680548483166001600160a01b0319918216811790925560078054938516939091169290921790915560405133907f8be0079c531659141344cd1fd0a4f28419497f9722a3daafe3b4186f6b6457e090600090a36040516001600160a01b0382169033907fa3396fd7f6e0a21b50e5089d2da70d5ac0a3bbbd1f617a93f134b7638998019890600090a3505050600c9490945542600d55901515610100526101205250620005dd9350505050565b60007f8b73c3c69bb8fe3d512ecc4cf759cc79239f7b179b0ffacaa9a75d522b39400f6000604051620001cf91906200055f565b6040805191829003822060208301939093528101919091527fc89efdaa54c0f20c7adf612882df0950f5a951637e0307cdcb4c672f298b8bc660608201524660808201523060a082015260c00160405160208183030381529060405280519060200120905090565b6001600160a01b03811681146200024d57600080fd5b50565b634e487b7160e01b600052604160045260246000fd5b600082601f8301126200027857600080fd5b81516001600160401b038082111562000295576200029562000250565b604051601f8301601f19908116603f01168101908282118183101715620002c057620002c062000250565b81604052838152602092508683858801011115620002dd57600080fd5b600091505b83821015620003015785820183015181830184015290820190620002e2565b600093810190920192909252949350505050565b600080600080600080600060e0888a0312156200033157600080fd5b87516200033e8162000237565b60208901519097506001600160401b03808211156200035c57600080fd5b6200036a8b838c0162000266565b975060408a01519150808211156200038157600080fd5b50620003908a828b0162000266565b955050606088015193506080880151620003aa8162000237565b60a08901519093508015158114620003c157600080fd5b8092505060c0880151905092959891949750929550565b600060208284031215620003eb57600080fd5b815160ff81168114620003fd57600080fd5b9392505050565b600181811c908216806200041957607f821691505b6020821081036200043a57634e487b7160e01b600052602260045260246000fd5b50919050565b601f8211156200048e57600081815260208120601f850160051c81016020861015620004695750805b601f850160051c820191505b818110156200048a5782815560010162000475565b5050505b505050565b81516001600160401b03811115620004af57620004af62000250565b620004c781620004c0845462000404565b8462000440565b602080601f831160018114620004ff5760008415620004e65750858301515b600019600386901b1c1916600185901b1785556200048a565b600085815260208120601f198616915b8281101562000530578886015182559484019460019091019084016200050f565b50858210156200054f5787850151600019600388901b60f8161c191681555b5050505050600190811b01905550565b60008083546200056f8162000404565b600182811680156200058a5760018114620005a057620005d1565b60ff1984168752821515830287019450620005d1565b8760005260208060002060005b85811015620005c85781548a820152908401908201620005ad565b50505082870194505b50929695505050505050565b60805160a05160c05160e05161010051610120516130a06200068f6000396000818161042501528181610f79015261177e0152600081816105df01528181610da201528181610ebf015281816110110152818161160001526116c40152600081816104b3015281816108f401528181611f75015281816121cc0152818161247701528181612529015281816126e701526128b401526000610e9b01526000610e6b0152600061045f01526130a06000f3fe608060405234801561001057600080fd5b50600436106103415760003560e01c80637a8c63b5116101bd578063bf7e214f116100f9578063d905777e116100a2578063ea7ca2761161007c578063ea7ca27614610832578063ed0d0efb14610876578063ef8b30f714610896578063f2fde38b146108a957600080fd5b8063d905777e14610783578063dd62ed3e146107b9578063e688747b146107e457600080fd5b8063c6e6f592116100d3578063c6e6f5921461074a578063ce96cb771461075d578063d505accf1461077057600080fd5b8063bf7e214f146106f4578063c53a398514610714578063c63d75b6146104fa57600080fd5b80639dc29fac11610166578063b3d7f6b911610140578063b3d7f6b9146106a8578063b460af94146106bb578063b7009613146106ce578063ba087652146106e157600080fd5b80639dc29fac1461066f578063a0712d6814610682578063a9059cbb1461069557600080fd5b80638da5cb5b116101975780638da5cb5b1461063457806394bf804d1461065457806395d89b411461066757600080fd5b80637a8c63b5146105da5780637a9e5e4b146106015780637ecebe001461061457600080fd5b806334fcf4371161028c5780634b5159da1161023557806367aff4841161020f57806367aff484146105815780636e553f651461059457806370a08231146105a7578063728b952b146105c757600080fd5b80634b5159da146105535780634cdad50614610566578063679aefce1461057957600080fd5b8063402d267d11610266578063402d267d146104fa57806340c10f191461052d57806342966c681461054057600080fd5b806334fcf437146104935780633644e515146104a657806338d52e0f146104ae57600080fd5b80630bade8a4116102ee578063239c70ae116102c8578063239c70ae1461042057806323b872dd14610447578063313ce5671461045a57600080fd5b80630bade8a4146103df5780630ea9b75b1461040257806318160ddd1461041757600080fd5b806307a2d13a1161031f57806307a2d13a14610396578063095ea7b3146103a95780630a28a477146103cc57600080fd5b806301e1d1141461034657806306a36aee1461036157806306fdde0314610381575b600080fd5b61034e6108bc565b6040519081526020015b60405180910390f35b61034e61036f366004612aee565b60096020526000908152604090205481565b610389610983565b6040516103589190612b0b565b61034e6103a4366004612b77565b610a11565b6103bc6103b7366004612b90565b610a3e565b6040519015158152602001610358565b61034e6103da366004612b77565b610ab8565b6103bc6103ed366004612bf1565b600a6020526000908152604090205460ff1681565b610415610410366004612c2b565b610ad8565b005b61034e60025481565b61034e7f000000000000000000000000000000000000000000000000000000000000000081565b6103bc610455366004612c72565b610c5c565b6104817f000000000000000000000000000000000000000000000000000000000000000081565b60405160ff9091168152602001610358565b6104156104a1366004612b77565b610da0565b61034e610e67565b6104d57f000000000000000000000000000000000000000000000000000000000000000081565b60405173ffffffffffffffffffffffffffffffffffffffff9091168152602001610358565b61034e610508366004612aee565b507fffffffffffffffffffffffffffffffffffffffffffffffffffffffffffffffff90565b61041561053b366004612b90565b610ebd565b61041561054e366004612b77565b61100f565b610415610561366004612cb3565b6110d6565b61034e610574366004612b77565b611200565b600c5461034e565b61041561058f366004612cea565b61120b565b61034e6105a2366004612d18565b61135c565b61034e6105b5366004612aee565b60036020526000908152604090205481565b6104156105d5366004612d3d565b611370565b6103bc7f000000000000000000000000000000000000000000000000000000000000000081565b61041561060f366004612aee565b611480565b61034e610622366004612aee565b60056020526000908152604090205481565b6006546104d59073ffffffffffffffffffffffffffffffffffffffff1681565b61034e610662366004612d18565b6115dd565b6103896115f1565b61041561067d366004612b90565b6115fe565b610415610690366004612b77565b6116c2565b6103bc6106a3366004612b90565b611810565b61034e6106b6366004612b77565b611895565b61034e6106c9366004612d6b565b6118b4565b6103bc6106dc366004612da2565b6118d1565b61034e6106ef366004612d6b565b611a68565b6007546104d59073ffffffffffffffffffffffffffffffffffffffff1681565b6104d5610722366004612aee565b60086020526000908152604090205473ffffffffffffffffffffffffffffffffffffffff1681565b61034e610758366004612b77565b611a7d565b61034e61076b366004612aee565b611a9d565b61041561077e366004612de9565b611acc565b61034e610791366004612aee565b73ffffffffffffffffffffffffffffffffffffffff1660009081526003602052604090205490565b61034e6107c7366004612d3d565b600460209081526000928352604080842090915290825290205481565b6103bc6107f2366004612e57565b7fffffffff00000000000000000000000000000000000000000000000000000000166000908152600b602052604090205460ff919091161c600116151590565b6103bc610840366004612e8a565b73ffffffffffffffffffffffffffffffffffffffff91909116600090815260096020526040902054600160ff9092161c16151590565b61034e610884366004612bf1565b600b6020526000908152604090205481565b61034e6108a4366004612b77565b611deb565b6104156108b7366004612aee565b611df6565b60006108c6611efb565b6040517f70a082310000000000000000000000000000000000000000000000000000000081523060048201527f000000000000000000000000000000000000000000000000000000000000000073ffffffffffffffffffffffffffffffffffffffff16906370a0823190602401602060405180830381865afa158015610950573d6000803e3d6000fd5b505050506040513d601f19601f820116820180604052508101906109749190612eb6565b61097e9190612efe565b905090565b6000805461099090612f11565b80601f01602080910402602001604051908101604052809291908181526020018280546109bc90612f11565b8015610a095780601f106109de57610100808354040283529160200191610a09565b820191906000526020600020905b8154815290600101906020018083116109ec57829003601f168201915b505050505081565b6002546000908015610a3557610a30610a286108bc565b849083611ffb565b610a37565b825b9392505050565b33600081815260046020908152604080832073ffffffffffffffffffffffffffffffffffffffff8716808552925280832085905551919290917f8c5be1e5ebec7d5bd14f71427d1e84f3dd0314c0f7b2291e5b200ac8c7c3b92590610aa69086815260200190565b60405180910390a35060015b92915050565b6002546000908015610a3557610a3081610ad06108bc565b859190612037565b610b06336000357fffffffff000000000000000000000000000000000000000000000000000000001661207b565b610b71576040517f08c379a000000000000000000000000000000000000000000000000000000000815260206004820152600c60248201527f554e415554484f52495a4544000000000000000000000000000000000000000060448201526064015b60405180910390fd5b8015610bb9577fffffffff0000000000000000000000000000000000000000000000000000000082166000908152600b602052604090208054600160ff86161b179055610bf8565b7fffffffff0000000000000000000000000000000000000000000000000000000082166000908152600b602052604090208054600160ff86161b191690555b817bffffffffffffffffffffffffffffffffffffffffffffffffffffffff19168360ff167fbfe16b2c35ce23dfd1ab0e7b5d086a10060c9b52d1574e1680c881b3b3a2b15183604051610c4f911515815260200190565b60405180910390a3505050565b73ffffffffffffffffffffffffffffffffffffffff831660009081526004602090815260408083203384529091528120547fffffffffffffffffffffffffffffffffffffffffffffffffffffffffffffffff8114610cf057610cbe8382612f64565b73ffffffffffffffffffffffffffffffffffffffff861660009081526004602090815260408083203384529091529020555b73ffffffffffffffffffffffffffffffffffffffff851660009081526003602052604081208054859290610d25908490612f64565b909155505073ffffffffffffffffffffffffffffffffffffffff808516600081815260036020526040908190208054870190555190918716907fddf252ad1be2c89b69c2b068fc378daa952ba7f163c4a11628f55a4df523b3ef90610d8d9087815260200190565b60405180910390a3506001949350505050565b7f000000000000000000000000000000000000000000000000000000000000000015610e5a57610df4336000357fffffffff000000000000000000000000000000000000000000000000000000001661207b565b610e5a576040517f08c379a000000000000000000000000000000000000000000000000000000000815260206004820152601b60248201527f4d6f636b455243343632363a206e6f7420617574686f72697a656400000000006044820152606401610b68565b610e6261218b565b600c55565b60007f00000000000000000000000000000000000000000000000000000000000000004614610e985761097e612245565b507f000000000000000000000000000000000000000000000000000000000000000090565b7f000000000000000000000000000000000000000000000000000000000000000015610f7757610f11336000357fffffffff000000000000000000000000000000000000000000000000000000001661207b565b610f77576040517f08c379a000000000000000000000000000000000000000000000000000000000815260206004820152601b60248201527f4d6f636b455243343632363a206e6f7420617574686f72697a656400000000006044820152606401610b68565b7f0000000000000000000000000000000000000000000000000000000000000000811115611001576040517f08c379a000000000000000000000000000000000000000000000000000000000815260206004820181905260248201527f4d6f636b455243343632363a20496e76616c6964206d696e7420616d6f756e746044820152606401610b68565b61100b82826122df565b5050565b7f0000000000000000000000000000000000000000000000000000000000000000156110c957611063336000357fffffffff000000000000000000000000000000000000000000000000000000001661207b565b6110c9576040517f08c379a000000000000000000000000000000000000000000000000000000000815260206004820152601b60248201527f4d6f636b455243343632363a206e6f7420617574686f72697a656400000000006044820152606401610b68565b6110d33382612358565b50565b611104336000357fffffffff000000000000000000000000000000000000000000000000000000001661207b565b61116a576040517f08c379a000000000000000000000000000000000000000000000000000000000815260206004820152600c60248201527f554e415554484f52495a454400000000000000000000000000000000000000006044820152606401610b68565b7fffffffff0000000000000000000000000000000000000000000000000000000082166000818152600a602090815260409182902080547fffffffffffffffffffffffffffffffffffffffffffffffffffffffffffffff001685151590811790915591519182527f36d28126bef21a4f3765d7fcb7c45cead463ae4c41094ef3b771ede598544103910160405180910390a25050565b6000610ab282610a11565b611239336000357fffffffff000000000000000000000000000000000000000000000000000000001661207b565b61129f576040517f08c379a000000000000000000000000000000000000000000000000000000000815260206004820152600c60248201527f554e415554484f52495a454400000000000000000000000000000000000000006044820152606401610b68565b80156112db5773ffffffffffffffffffffffffffffffffffffffff831660009081526009602052604090208054600160ff85161b17905561130e565b73ffffffffffffffffffffffffffffffffffffffff831660009081526009602052604090208054600160ff85161b191690555b8160ff168373ffffffffffffffffffffffffffffffffffffffff167f4c9bdd0c8e073eb5eda2250b18d8e5121ff27b62064fbeeeed4869bb99bc5bf283604051610c4f911515815260200190565b600061136661218b565b610a3783836123e6565b61139e336000357fffffffff000000000000000000000000000000000000000000000000000000001661207b565b611404576040517f08c379a000000000000000000000000000000000000000000000000000000000815260206004820152600c60248201527f554e415554484f52495a454400000000000000000000000000000000000000006044820152606401610b68565b73ffffffffffffffffffffffffffffffffffffffff82811660008181526008602052604080822080547fffffffffffffffffffffffff0000000000000000000000000000000000000000169486169485179055517fa4908e11a5f895b13d51526c331ac93cdd30e59772361c5d07874eb36bff20659190a35050565b60065473ffffffffffffffffffffffffffffffffffffffff1633148061156357506007546040517fb70096130000000000000000000000000000000000000000000000000000000081523360048201523060248201526000357fffffffff0000000000000000000000000000000000000000000000000000000016604482015273ffffffffffffffffffffffffffffffffffffffff9091169063b700961390606401602060405180830381865afa15801561153f573d6000803e3d6000fd5b505050506040513d601f19601f820116820180604052508101906115639190612f77565b61156c57600080fd5b600780547fffffffffffffffffffffffff00000000000000000000000000000000000000001673ffffffffffffffffffffffffffffffffffffffff831690811790915560405133907fa3396fd7f6e0a21b50e5089d2da70d5ac0a3bbbd1f617a93f134b7638998019890600090a350565b60006115e761218b565b610a378383612502565b6001805461099090612f11565b7f0000000000000000000000000000000000000000000000000000000000000000156116b857611652336000357fffffffff000000000000000000000000000000000000000000000000000000001661207b565b6116b8576040517f08c379a000000000000000000000000000000000000000000000000000000000815260206004820152601b60248201527f4d6f636b455243343632363a206e6f7420617574686f72697a656400000000006044820152606401610b68565b61100b8282612358565b7f00000000000000000000000000000000000000000000000000000000000000001561177c57611716336000357fffffffff000000000000000000000000000000000000000000000000000000001661207b565b61177c576040517f08c379a000000000000000000000000000000000000000000000000000000000815260206004820152601b60248201527f4d6f636b455243343632363a206e6f7420617574686f72697a656400000000006044820152606401610b68565b7f0000000000000000000000000000000000000000000000000000000000000000811115611806576040517f08c379a000000000000000000000000000000000000000000000000000000000815260206004820181905260248201527f4d6f636b455243343632363a20496e76616c6964206d696e7420616d6f756e746044820152606401610b68565b6110d333826122df565b33600090815260036020526040812080548391908390611831908490612f64565b909155505073ffffffffffffffffffffffffffffffffffffffff8316600081815260036020526040908190208054850190555133907fddf252ad1be2c89b69c2b068fc378daa952ba7f163c4a11628f55a4df523b3ef90610aa69086815260200190565b6002546000908015610a3557610a306118ac6108bc565b849083612037565b60006118be61218b565b6118c98484846125ab565b949350505050565b73ffffffffffffffffffffffffffffffffffffffff80831660009081526008602052604081205490911680156119c9576040517fb700961300000000000000000000000000000000000000000000000000000000815273ffffffffffffffffffffffffffffffffffffffff868116600483015285811660248301527fffffffff000000000000000000000000000000000000000000000000000000008516604483015282169063b700961390606401602060405180830381865afa15801561199d573d6000803e3d6000fd5b505050506040513d601f19601f820116820180604052508101906119c19190612f77565b915050610a37565b7fffffffff0000000000000000000000000000000000000000000000000000000083166000908152600a602052604090205460ff1680611a5f57507fffffffff0000000000000000000000000000000000000000000000000000000083166000908152600b602090815260408083205473ffffffffffffffffffffffffffffffffffffffff891684526009909252909120541615155b95945050505050565b6000611a7261218b565b6118c984848461270e565b6002546000908015610a3557610a3081611a956108bc565b859190611ffb565b73ffffffffffffffffffffffffffffffffffffffff8116600090815260036020526040812054610ab290610a11565b42841015611b36576040517f08c379a000000000000000000000000000000000000000000000000000000000815260206004820152601760248201527f5045524d49545f444541444c494e455f455850495245440000000000000000006044820152606401610b68565b60006001611b42610e67565b73ffffffffffffffffffffffffffffffffffffffff8a811660008181526005602090815260409182902080546001810190915582517f6e71edae12b1b97f4d1f60370fef10105fa2faae0126114a169c64845d6126c98184015280840194909452938d166060840152608083018c905260a083019390935260c08083018b90528151808403909101815260e0830190915280519201919091207f190100000000000000000000000000000000000000000000000000000000000061010083015261010282019290925261012281019190915261014201604080517fffffffffffffffffffffffffffffffffffffffffffffffffffffffffffffffe08184030181528282528051602091820120600084529083018083525260ff871690820152606081018590526080810184905260a0016020604051602081039080840390855afa158015611c94573d6000803e3d6000fd5b50506040517fffffffffffffffffffffffffffffffffffffffffffffffffffffffffffffffe0015191505073ffffffffffffffffffffffffffffffffffffffff811615801590611d0f57508773ffffffffffffffffffffffffffffffffffffffff168173ffffffffffffffffffffffffffffffffffffffff16145b611d75576040517f08c379a000000000000000000000000000000000000000000000000000000000815260206004820152600e60248201527f494e56414c49445f5349474e45520000000000000000000000000000000000006044820152606401610b68565b73ffffffffffffffffffffffffffffffffffffffff90811660009081526004602090815260408083208a8516808552908352928190208990555188815291928a16917f8c5be1e5ebec7d5bd14f71427d1e84f3dd0314c0f7b2291e5b200ac8c7c3b925910160405180910390a350505050505050565b6000610ab282611a7d565b611e24336000357fffffffff000000000000000000000000000000000000000000000000000000001661207b565b611e8a576040517f08c379a000000000000000000000000000000000000000000000000000000000815260206004820152600c60248201527f554e415554484f52495a454400000000000000000000000000000000000000006044820152606401610b68565b600680547fffffffffffffffffffffffff00000000000000000000000000000000000000001673ffffffffffffffffffffffffffffffffffffffff831690811790915560405133907f8be0079c531659141344cd1fd0a4f28419497f9722a3daafe3b4186f6b6457e090600090a350565b6000600c54600003611f0d5750600090565b6000611f2b6301e13380600d5442611f259190612f64565b906128db565b90506000610a37611f4783600c546128f090919063ffffffff16565b6040517f70a082310000000000000000000000000000000000000000000000000000000081523060048201527f000000000000000000000000000000000000000000000000000000000000000073ffffffffffffffffffffffffffffffffffffffff16906370a0823190602401602060405180830381865afa158015611fd1573d6000803e3d6000fd5b505050506040513d601f19601f82011682018060405250810190611ff59190612eb6565b906128f0565b6000827fffffffffffffffffffffffffffffffffffffffffffffffffffffffffffffffff048411830215820261203057600080fd5b5091020490565b6000827fffffffffffffffffffffffffffffffffffffffffffffffffffffffffffffffff048411830215820261206c57600080fd5b50910281810615159190040190565b60075460009073ffffffffffffffffffffffffffffffffffffffff16801580159061215f57506040517fb700961300000000000000000000000000000000000000000000000000000000815273ffffffffffffffffffffffffffffffffffffffff85811660048301523060248301527fffffffff000000000000000000000000000000000000000000000000000000008516604483015282169063b700961390606401602060405180830381865afa15801561213b573d6000803e3d6000fd5b505050506040513d601f19601f8201168201806040525081019061215f9190612f77565b806118c9575060065473ffffffffffffffffffffffffffffffffffffffff858116911614949350505050565b6000612195611efb565b9050801561223e576040517fa0712d68000000000000000000000000000000000000000000000000000000008152600481018290527f000000000000000000000000000000000000000000000000000000000000000073ffffffffffffffffffffffffffffffffffffffff169063a0712d6890602401600060405180830381600087803b15801561222557600080fd5b505af1158015612239573d6000803e3d6000fd5b505050505b5042600d55565b60007f8b73c3c69bb8fe3d512ecc4cf759cc79239f7b179b0ffacaa9a75d522b39400f60006040516122779190612f94565b6040805191829003822060208301939093528101919091527fc89efdaa54c0f20c7adf612882df0950f5a951637e0307cdcb4c672f298b8bc660608201524660808201523060a082015260c00160405160208183030381529060405280519060200120905090565b80600260008282546122f19190612efe565b909155505073ffffffffffffffffffffffffffffffffffffffff82166000818152600360209081526040808320805486019055518481527fddf252ad1be2c89b69c2b068fc378daa952ba7f163c4a11628f55a4df523b3ef91015b60405180910390a35050565b73ffffffffffffffffffffffffffffffffffffffff82166000908152600360205260408120805483929061238d908490612f64565b909155505060028054829003905560405181815260009073ffffffffffffffffffffffffffffffffffffffff8416907fddf252ad1be2c89b69c2b068fc378daa952ba7f163c4a11628f55a4df523b3ef9060200161234c565b60006123f183611deb565b90508060000361245d576040517f08c379a000000000000000000000000000000000000000000000000000000000815260206004820152600b60248201527f5a45524f5f5348415245530000000000000000000000000000000000000000006044820152606401610b68565b61249f73ffffffffffffffffffffffffffffffffffffffff7f000000000000000000000000000000000000000000000000000000000000000016333086612905565b6124a982826122df565b604080518481526020810183905273ffffffffffffffffffffffffffffffffffffffff84169133917fdcbc1c05240f31ff3ad067ef1ee35ce4997762752e3a095284754544f4c709d791015b60405180910390a3610ab2565b600061250d83611895565b905061255173ffffffffffffffffffffffffffffffffffffffff7f000000000000000000000000000000000000000000000000000000000000000016333084612905565b61255b82846122df565b604080518281526020810185905273ffffffffffffffffffffffffffffffffffffffff84169133917fdcbc1c05240f31ff3ad067ef1ee35ce4997762752e3a095284754544f4c709d791016124f5565b60006125b684610ab8565b90503373ffffffffffffffffffffffffffffffffffffffff83161461266b5773ffffffffffffffffffffffffffffffffffffffff821660009081526004602090815260408083203384529091529020547fffffffffffffffffffffffffffffffffffffffffffffffffffffffffffffffff8114612669576126378282612f64565b73ffffffffffffffffffffffffffffffffffffffff841660009081526004602090815260408083203384529091529020555b505b6126758282612358565b604080518581526020810183905273ffffffffffffffffffffffffffffffffffffffff808516929086169133917ffbde797d201c681b91056529119e0b02407c7bb96a4a2c75c01fc9667232c8db910160405180910390a4610a3773ffffffffffffffffffffffffffffffffffffffff7f00000000000000000000000000000000000000000000000000000000000000001684866129f7565b60003373ffffffffffffffffffffffffffffffffffffffff8316146127c35773ffffffffffffffffffffffffffffffffffffffff821660009081526004602090815260408083203384529091529020547fffffffffffffffffffffffffffffffffffffffffffffffffffffffffffffffff81146127c15761278f8582612f64565b73ffffffffffffffffffffffffffffffffffffffff841660009081526004602090815260408083203384529091529020555b505b6127cc84611200565b905080600003612838576040517f08c379a000000000000000000000000000000000000000000000000000000000815260206004820152600b60248201527f5a45524f5f4153534554530000000000000000000000000000000000000000006044820152606401610b68565b6128428285612358565b604080518281526020810186905273ffffffffffffffffffffffffffffffffffffffff808516929086169133917ffbde797d201c681b91056529119e0b02407c7bb96a4a2c75c01fc9667232c8db910160405180910390a4610a3773ffffffffffffffffffffffffffffffffffffffff7f00000000000000000000000000000000000000000000000000000000000000001684836129f7565b6000610a3783670de0b6b3a764000084611ffb565b6000610a378383670de0b6b3a7640000611ffb565b60006040517f23b872dd00000000000000000000000000000000000000000000000000000000815273ffffffffffffffffffffffffffffffffffffffff8516600482015273ffffffffffffffffffffffffffffffffffffffff841660248201528260448201526020600060648360008a5af13d15601f3d11600160005114161716915050806129f0576040517f08c379a000000000000000000000000000000000000000000000000000000000815260206004820152601460248201527f5452414e534645525f46524f4d5f4641494c45440000000000000000000000006044820152606401610b68565b5050505050565b60006040517fa9059cbb00000000000000000000000000000000000000000000000000000000815273ffffffffffffffffffffffffffffffffffffffff84166004820152826024820152602060006044836000895af13d15601f3d1160016000511416171691505080612ac6576040517f08c379a000000000000000000000000000000000000000000000000000000000815260206004820152600f60248201527f5452414e534645525f4641494c454400000000000000000000000000000000006044820152606401610b68565b50505050565b73ffffffffffffffffffffffffffffffffffffffff811681146110d357600080fd5b600060208284031215612b0057600080fd5b8135610a3781612acc565b600060208083528351808285015260005b81811015612b3857858101830151858201604001528201612b1c565b5060006040828601015260407fffffffffffffffffffffffffffffffffffffffffffffffffffffffffffffffe0601f8301168501019250505092915050565b600060208284031215612b8957600080fd5b5035919050565b60008060408385031215612ba357600080fd5b8235612bae81612acc565b946020939093013593505050565b80357fffffffff0000000000000000000000000000000000000000000000000000000081168114612bec57600080fd5b919050565b600060208284031215612c0357600080fd5b610a3782612bbc565b803560ff81168114612bec57600080fd5b80151581146110d357600080fd5b600080600060608486031215612c4057600080fd5b612c4984612c0c565b9250612c5760208501612bbc565b91506040840135612c6781612c1d565b809150509250925092565b600080600060608486031215612c8757600080fd5b8335612c9281612acc565b92506020840135612ca281612acc565b929592945050506040919091013590565b60008060408385031215612cc657600080fd5b612ccf83612bbc565b91506020830135612cdf81612c1d565b809150509250929050565b600080600060608486031215612cff57600080fd5b8335612d0a81612acc565b9250612c5760208501612c0c565b60008060408385031215612d2b57600080fd5b823591506020830135612cdf81612acc565b60008060408385031215612d5057600080fd5b8235612d5b81612acc565b91506020830135612cdf81612acc565b600080600060608486031215612d8057600080fd5b833592506020840135612d9281612acc565b91506040840135612c6781612acc565b600080600060608486031215612db757600080fd5b8335612dc281612acc565b92506020840135612dd281612acc565b9150612de060408501612bbc565b90509250925092565b600080600080600080600060e0888a031215612e0457600080fd5b8735612e0f81612acc565b96506020880135612e1f81612acc565b95506040880135945060608801359350612e3b60808901612c0c565b925060a0880135915060c0880135905092959891949750929550565b60008060408385031215612e6a57600080fd5b612e7383612c0c565b9150612e8160208401612bbc565b90509250929050565b60008060408385031215612e9d57600080fd5b8235612ea881612acc565b9150612e8160208401612c0c565b600060208284031215612ec857600080fd5b5051919050565b7f4e487b7100000000000000000000000000000000000000000000000000000000600052601160045260246000fd5b80820180821115610ab257610ab2612ecf565b600181811c90821680612f2557607f821691505b602082108103612f5e577f4e487b7100000000000000000000000000000000000000000000000000000000600052602260045260246000fd5b50919050565b81810381811115610ab257610ab2612ecf565b600060208284031215612f8957600080fd5b8151610a3781612c1d565b600080835481600182811c915080831680612fb057607f831692505b60208084108203612fe8577f4e487b710000000000000000000000000000000000000000000000000000000086526022600452602486fd5b818015612ffc576001811461302f5761305c565b7fffffffffffffffffffffffffffffffffffffffffffffffffffffffffffffff008616895284151585028901965061305c565b60008a81526020902060005b868110156130545781548b82015290850190830161303b565b505084890196505b50949897505050505050505056fea264697066735822122038706b123fbe43a93a5be480d45abe077a5784b14cfd2cf7702fa82cc2fe3e0f64736f6c63430008140033",
  "linkReferences": {},
  "deployedLinkReferences": {}
}