{
  "_format": "hh-sol-artifact-1",
  "contractName": "ERC4626Target1",
  "sourceName": "contracts/src/instances/erc4626/ERC4626Target1.sol",
  "abi": [
    {
      "inputs": [
        {
          "components": [
            {
              "internalType": "contract IERC20",
              "name": "baseToken",
              "type": "address"
            },
            {
              "internalType": "contract IERC20",
              "name": "vaultSharesToken",
              "type": "address"
            },
            {
              "internalType": "address",
              "name": "linkerFactory",
              "type": "address"
            },
            {
              "internalType": "bytes32",
              "name": "linkerCodeHash",
              "type": "bytes32"
            },
            {
              "internalType": "uint256",
              "name": "initialVaultSharePrice",
              "type": "uint256"
            },
            {
              "internalType": "uint256",
              "name": "minimumShareReserves",
              "type": "uint256"
            },
            {
              "internalType": "uint256",
              "name": "minimumTransactionAmount",
              "type": "uint256"
            },
            {
              "internalType": "uint256",
              "name": "positionDuration",
              "type": "uint256"
            },
            {
              "internalType": "uint256",
              "name": "checkpointDuration",
              "type": "uint256"
            },
            {
              "internalType": "uint256",
              "name": "timeStretch",
              "type": "uint256"
            },
            {
              "internalType": "address",
              "name": "governance",
              "type": "address"
            },
            {
              "internalType": "address",
              "name": "feeCollector",
              "type": "address"
            },
            {
              "internalType": "address",
              "name": "sweepCollector",
              "type": "address"
            },
            {
              "components": [
                {
                  "internalType": "uint256",
                  "name": "curve",
                  "type": "uint256"
                },
                {
                  "internalType": "uint256",
                  "name": "flat",
                  "type": "uint256"
                },
                {
                  "internalType": "uint256",
                  "name": "governanceLP",
                  "type": "uint256"
                },
                {
                  "internalType": "uint256",
                  "name": "governanceZombie",
                  "type": "uint256"
                }
              ],
              "internalType": "struct IHyperdrive.Fees",
              "name": "fees",
              "type": "tuple"
            }
          ],
          "internalType": "struct IHyperdrive.PoolConfig",
          "name": "_config",
          "type": "tuple"
        }
      ],
      "stateMutability": "nonpayable",
      "type": "constructor"
    },
    {
      "inputs": [
        {
          "internalType": "address",
          "name": "target",
          "type": "address"
        }
      ],
      "name": "AddressEmptyCode",
      "type": "error"
    },
    {
      "inputs": [
        {
          "internalType": "address",
          "name": "account",
          "type": "address"
        }
      ],
      "name": "AddressInsufficientBalance",
      "type": "error"
    },
    {
      "inputs": [],
      "name": "DistributeExcessIdleFailed",
      "type": "error"
    },
    {
      "inputs": [],
      "name": "ExpInvalidExponent",
      "type": "error"
    },
    {
      "inputs": [],
      "name": "FailedInnerCall",
      "type": "error"
    },
    {
      "inputs": [],
      "name": "InsufficientBalance",
      "type": "error"
    },
    {
      "inputs": [],
      "name": "InsufficientLiquidity",
      "type": "error"
    },
    {
      "inputs": [],
      "name": "InvalidPresentValue",
      "type": "error"
    },
    {
      "inputs": [],
      "name": "InvalidTimestamp",
      "type": "error"
    },
    {
      "inputs": [],
      "name": "LnInvalidInput",
      "type": "error"
    },
    {
      "inputs": [],
      "name": "MinimumTransactionAmount",
      "type": "error"
    },
    {
      "inputs": [],
      "name": "OutputLimit",
      "type": "error"
    },
    {
      "inputs": [],
      "name": "ReentrancyGuardReentrantCall",
      "type": "error"
    },
    {
      "inputs": [],
      "name": "RestrictedZeroAddress",
      "type": "error"
    },
    {
      "inputs": [
        {
          "internalType": "address",
          "name": "token",
          "type": "address"
        }
      ],
      "name": "SafeERC20FailedOperation",
      "type": "error"
    },
    {
      "inputs": [],
      "name": "UnsafeCastToInt128",
      "type": "error"
    },
    {
      "inputs": [],
      "name": "UnsafeCastToInt256",
      "type": "error"
    },
    {
      "inputs": [],
      "name": "UnsafeCastToUint112",
      "type": "error"
    },
    {
      "inputs": [],
      "name": "UnsafeCastToUint128",
      "type": "error"
    },
    {
      "anonymous": false,
      "inputs": [
        {
          "indexed": true,
          "internalType": "address",
          "name": "provider",
          "type": "address"
        },
        {
          "indexed": false,
          "internalType": "uint256",
          "name": "lpAmount",
          "type": "uint256"
        },
        {
          "indexed": false,
          "internalType": "uint256",
          "name": "baseAmount",
          "type": "uint256"
        },
        {
          "indexed": false,
          "internalType": "uint256",
          "name": "vaultShareAmount",
          "type": "uint256"
        },
        {
          "indexed": false,
          "internalType": "bool",
          "name": "asBase",
          "type": "bool"
        },
        {
          "indexed": false,
          "internalType": "uint256",
          "name": "lpSharePrice",
          "type": "uint256"
        }
      ],
      "name": "AddLiquidity",
      "type": "event"
    },
    {
      "anonymous": false,
      "inputs": [
        {
          "indexed": true,
          "internalType": "address",
          "name": "owner",
          "type": "address"
        },
        {
          "indexed": true,
          "internalType": "address",
          "name": "spender",
          "type": "address"
        },
        {
          "indexed": false,
          "internalType": "uint256",
          "name": "value",
          "type": "uint256"
        }
      ],
      "name": "Approval",
      "type": "event"
    },
    {
      "anonymous": false,
      "inputs": [
        {
          "indexed": true,
          "internalType": "address",
          "name": "account",
          "type": "address"
        },
        {
          "indexed": true,
          "internalType": "address",
          "name": "operator",
          "type": "address"
        },
        {
          "indexed": false,
          "internalType": "bool",
          "name": "approved",
          "type": "bool"
        }
      ],
      "name": "ApprovalForAll",
      "type": "event"
    },
    {
      "anonymous": false,
      "inputs": [
        {
          "indexed": true,
          "internalType": "address",
          "name": "trader",
          "type": "address"
        },
        {
          "indexed": true,
          "internalType": "address",
          "name": "destination",
          "type": "address"
        },
        {
          "indexed": true,
          "internalType": "uint256",
          "name": "assetId",
          "type": "uint256"
        },
        {
          "indexed": false,
          "internalType": "uint256",
          "name": "maturityTime",
          "type": "uint256"
        },
        {
          "indexed": false,
          "internalType": "uint256",
          "name": "baseAmount",
          "type": "uint256"
        },
        {
          "indexed": false,
          "internalType": "uint256",
          "name": "vaultShareAmount",
          "type": "uint256"
        },
        {
          "indexed": false,
          "internalType": "bool",
          "name": "asBase",
          "type": "bool"
        },
        {
          "indexed": false,
          "internalType": "uint256",
          "name": "bondAmount",
          "type": "uint256"
        }
      ],
      "name": "CloseLong",
      "type": "event"
    },
    {
      "anonymous": false,
      "inputs": [
        {
          "indexed": true,
          "internalType": "address",
          "name": "trader",
          "type": "address"
        },
        {
          "indexed": true,
          "internalType": "address",
          "name": "destination",
          "type": "address"
        },
        {
          "indexed": true,
          "internalType": "uint256",
          "name": "assetId",
          "type": "uint256"
        },
        {
          "indexed": false,
          "internalType": "uint256",
          "name": "maturityTime",
          "type": "uint256"
        },
        {
          "indexed": false,
          "internalType": "uint256",
          "name": "baseAmount",
          "type": "uint256"
        },
        {
          "indexed": false,
          "internalType": "uint256",
          "name": "vaultShareAmount",
          "type": "uint256"
        },
        {
          "indexed": false,
          "internalType": "bool",
          "name": "asBase",
          "type": "bool"
        },
        {
          "indexed": false,
          "internalType": "uint256",
          "name": "basePayment",
          "type": "uint256"
        },
        {
          "indexed": false,
          "internalType": "uint256",
          "name": "bondAmount",
          "type": "uint256"
        }
      ],
      "name": "CloseShort",
      "type": "event"
    },
    {
      "anonymous": false,
      "inputs": [
        {
          "indexed": true,
          "internalType": "address",
          "name": "collector",
          "type": "address"
        },
        {
          "indexed": false,
          "internalType": "uint256",
          "name": "fees",
          "type": "uint256"
        }
      ],
      "name": "CollectGovernanceFee",
      "type": "event"
    },
    {
      "anonymous": false,
      "inputs": [
        {
          "indexed": true,
          "internalType": "uint256",
          "name": "checkpointTime",
          "type": "uint256"
        },
        {
          "indexed": false,
          "internalType": "uint256",
          "name": "checkpointVaultSharePrice",
          "type": "uint256"
        },
        {
          "indexed": false,
          "internalType": "uint256",
          "name": "vaultSharePrice",
          "type": "uint256"
        },
        {
          "indexed": false,
          "internalType": "uint256",
          "name": "maturedShorts",
          "type": "uint256"
        },
        {
          "indexed": false,
          "internalType": "uint256",
          "name": "maturedLongs",
          "type": "uint256"
        },
        {
          "indexed": false,
          "internalType": "uint256",
          "name": "lpSharePrice",
          "type": "uint256"
        }
      ],
      "name": "CreateCheckpoint",
      "type": "event"
    },
    {
      "anonymous": false,
      "inputs": [
        {
          "indexed": true,
          "internalType": "address",
          "name": "newFeeCollector",
          "type": "address"
        }
      ],
      "name": "FeeCollectorUpdated",
      "type": "event"
    },
    {
      "anonymous": false,
      "inputs": [
        {
          "indexed": true,
          "internalType": "address",
          "name": "newGovernance",
          "type": "address"
        }
      ],
      "name": "GovernanceUpdated",
      "type": "event"
    },
    {
      "anonymous": false,
      "inputs": [
        {
          "indexed": true,
          "internalType": "address",
          "name": "provider",
          "type": "address"
        },
        {
          "indexed": false,
          "internalType": "uint256",
          "name": "lpAmount",
          "type": "uint256"
        },
        {
          "indexed": false,
          "internalType": "uint256",
          "name": "baseAmount",
          "type": "uint256"
        },
        {
          "indexed": false,
          "internalType": "uint256",
          "name": "vaultShareAmount",
          "type": "uint256"
        },
        {
          "indexed": false,
          "internalType": "bool",
          "name": "asBase",
          "type": "bool"
        },
        {
          "indexed": false,
          "internalType": "uint256",
          "name": "apr",
          "type": "uint256"
        }
      ],
      "name": "Initialize",
      "type": "event"
    },
    {
      "anonymous": false,
      "inputs": [
        {
          "indexed": true,
          "internalType": "address",
          "name": "trader",
          "type": "address"
        },
        {
          "indexed": true,
          "internalType": "uint256",
          "name": "assetId",
          "type": "uint256"
        },
        {
          "indexed": false,
          "internalType": "uint256",
          "name": "maturityTime",
          "type": "uint256"
        },
        {
          "indexed": false,
          "internalType": "uint256",
          "name": "baseAmount",
          "type": "uint256"
        },
        {
          "indexed": false,
          "internalType": "uint256",
          "name": "vaultShareAmount",
          "type": "uint256"
        },
        {
          "indexed": false,
          "internalType": "bool",
          "name": "asBase",
          "type": "bool"
        },
        {
          "indexed": false,
          "internalType": "uint256",
          "name": "bondAmount",
          "type": "uint256"
        }
      ],
      "name": "OpenLong",
      "type": "event"
    },
    {
      "anonymous": false,
      "inputs": [
        {
          "indexed": true,
          "internalType": "address",
          "name": "trader",
          "type": "address"
        },
        {
          "indexed": true,
          "internalType": "uint256",
          "name": "assetId",
          "type": "uint256"
        },
        {
          "indexed": false,
          "internalType": "uint256",
          "name": "maturityTime",
          "type": "uint256"
        },
        {
          "indexed": false,
          "internalType": "uint256",
          "name": "baseAmount",
          "type": "uint256"
        },
        {
          "indexed": false,
          "internalType": "uint256",
          "name": "vaultShareAmount",
          "type": "uint256"
        },
        {
          "indexed": false,
          "internalType": "bool",
          "name": "asBase",
          "type": "bool"
        },
        {
          "indexed": false,
          "internalType": "uint256",
          "name": "baseProceeds",
          "type": "uint256"
        },
        {
          "indexed": false,
          "internalType": "uint256",
          "name": "bondAmount",
          "type": "uint256"
        }
      ],
      "name": "OpenShort",
      "type": "event"
    },
    {
      "anonymous": false,
      "inputs": [
        {
          "indexed": false,
          "internalType": "bool",
          "name": "isPaused",
          "type": "bool"
        }
      ],
      "name": "PauseStatusUpdated",
      "type": "event"
    },
    {
      "anonymous": false,
      "inputs": [
        {
          "indexed": true,
          "internalType": "address",
          "name": "newPauser",
          "type": "address"
        },
        {
          "indexed": false,
          "internalType": "bool",
          "name": "status",
          "type": "bool"
        }
      ],
      "name": "PauserUpdated",
      "type": "event"
    },
    {
      "anonymous": false,
      "inputs": [
        {
          "indexed": true,
          "internalType": "address",
          "name": "provider",
          "type": "address"
        },
        {
          "indexed": true,
          "internalType": "address",
          "name": "destination",
          "type": "address"
        },
        {
          "indexed": false,
          "internalType": "uint256",
          "name": "withdrawalShareAmount",
          "type": "uint256"
        },
        {
          "indexed": false,
          "internalType": "uint256",
          "name": "baseAmount",
          "type": "uint256"
        },
        {
          "indexed": false,
          "internalType": "uint256",
          "name": "vaultShareAmount",
          "type": "uint256"
        },
        {
          "indexed": false,
          "internalType": "bool",
          "name": "asBase",
          "type": "bool"
        }
      ],
      "name": "RedeemWithdrawalShares",
      "type": "event"
    },
    {
      "anonymous": false,
      "inputs": [
        {
          "indexed": true,
          "internalType": "address",
          "name": "provider",
          "type": "address"
        },
        {
          "indexed": true,
          "internalType": "address",
          "name": "destination",
          "type": "address"
        },
        {
          "indexed": false,
          "internalType": "uint256",
          "name": "lpAmount",
          "type": "uint256"
        },
        {
          "indexed": false,
          "internalType": "uint256",
          "name": "baseAmount",
          "type": "uint256"
        },
        {
          "indexed": false,
          "internalType": "uint256",
          "name": "vaultShareAmount",
          "type": "uint256"
        },
        {
          "indexed": false,
          "internalType": "bool",
          "name": "asBase",
          "type": "bool"
        },
        {
          "indexed": false,
          "internalType": "uint256",
          "name": "withdrawalShareAmount",
          "type": "uint256"
        },
        {
          "indexed": false,
          "internalType": "uint256",
          "name": "lpSharePrice",
          "type": "uint256"
        }
      ],
      "name": "RemoveLiquidity",
      "type": "event"
    },
    {
      "anonymous": false,
      "inputs": [
        {
          "indexed": true,
          "internalType": "address",
          "name": "collector",
          "type": "address"
        },
        {
          "indexed": true,
          "internalType": "address",
          "name": "target",
          "type": "address"
        }
      ],
      "name": "Sweep",
      "type": "event"
    },
    {
      "anonymous": false,
      "inputs": [
        {
          "indexed": true,
          "internalType": "address",
          "name": "newSweepCollector",
          "type": "address"
        }
      ],
      "name": "SweepCollectorUpdated",
      "type": "event"
    },
    {
      "anonymous": false,
      "inputs": [
        {
          "indexed": true,
          "internalType": "address",
          "name": "operator",
          "type": "address"
        },
        {
          "indexed": true,
          "internalType": "address",
          "name": "from",
          "type": "address"
        },
        {
          "indexed": true,
          "internalType": "address",
          "name": "to",
          "type": "address"
        },
        {
          "indexed": false,
          "internalType": "uint256",
          "name": "id",
          "type": "uint256"
        },
        {
          "indexed": false,
          "internalType": "uint256",
          "name": "value",
          "type": "uint256"
        }
      ],
      "name": "TransferSingle",
      "type": "event"
    },
    {
      "inputs": [
        {
          "internalType": "uint256",
          "name": "_maturityTime",
          "type": "uint256"
        },
        {
          "internalType": "uint256",
          "name": "_bondAmount",
          "type": "uint256"
        },
        {
          "internalType": "uint256",
          "name": "_minOutput",
          "type": "uint256"
        },
        {
          "components": [
            {
              "internalType": "address",
              "name": "destination",
              "type": "address"
            },
            {
              "internalType": "bool",
              "name": "asBase",
              "type": "bool"
            },
            {
              "internalType": "bytes",
              "name": "extraData",
              "type": "bytes"
            }
          ],
          "internalType": "struct IHyperdrive.Options",
          "name": "_options",
          "type": "tuple"
        }
      ],
      "name": "closeShort",
      "outputs": [
        {
          "internalType": "uint256",
          "name": "",
          "type": "uint256"
        }
      ],
      "stateMutability": "nonpayable",
      "type": "function"
    },
    {
      "inputs": [
        {
          "internalType": "uint256",
          "name": "_withdrawalShares",
          "type": "uint256"
        },
        {
          "internalType": "uint256",
          "name": "_minOutputPerShare",
          "type": "uint256"
        },
        {
          "components": [
            {
              "internalType": "address",
              "name": "destination",
              "type": "address"
            },
            {
              "internalType": "bool",
              "name": "asBase",
              "type": "bool"
            },
            {
              "internalType": "bytes",
              "name": "extraData",
              "type": "bytes"
            }
          ],
          "internalType": "struct IHyperdrive.Options",
          "name": "_options",
          "type": "tuple"
        }
      ],
      "name": "redeemWithdrawalShares",
      "outputs": [
        {
          "internalType": "uint256",
          "name": "",
          "type": "uint256"
        },
        {
          "internalType": "uint256",
          "name": "",
          "type": "uint256"
        }
      ],
      "stateMutability": "nonpayable",
      "type": "function"
    }
  ],
  "bytecode": "0x6102406040523480156200001257600080fd5b50604051620056de380380620056de8339810160408190526200003591620001e1565b600160005580516001600160a01b039081166080908152602080840151831660a0908152918401516101a0908152918401516101c05260c0808501516101e0526101008086015190915260e0808601519052610120808601519091529184018051519092528151015161014090815281516040908101516101609081529251606090810151610180908152918601518516610200528501516102205290840151600a80546001600160a01b03199081169286169290921790559184015160088054841691851691909117905590920151600980549093169116179055620002d4565b6040516101c081016001600160401b03811182821017156200014957634e487b7160e01b600052604160045260246000fd5b60405290565b80516001600160a01b03811681146200016757600080fd5b919050565b6000608082840312156200017f57600080fd5b604051608081016001600160401b0381118282101715620001b057634e487b7160e01b600052604160045260246000fd5b8060405250809150825181526020830151602082015260408301516040820152606083015160608201525092915050565b60006102208284031215620001f557600080fd5b620001ff62000117565b6200020a836200014f565b81526200021a602084016200014f565b60208201526200022d604084016200014f565b6040820152606083015160608201526080830151608082015260a083015160a082015260c083015160c082015260e083015160e08201526101008084015181830152506101208084015181830152506101406200028c8185016200014f565b90820152610160620002a08482016200014f565b90820152610180620002b48482016200014f565b908201526101a0620002c9858583016200016c565b908201529392505050565b60805160a05160c05160e05161010051610120516101405161016051610180516101a0516101c0516101e05161020051610220516152ae620004306000396000505060005050600081816101b40152612e0c01526000818161155a01528181611c6e01528181611cd1015281816129000152818161294501528181612bcd0152612de6015260008181610ed801528181610f3b0152818161112c0152612dc0015260006119db015260008181611b2e0152818161244301526124bc01526000818161078a015281816110a501528181611b020152612490015260008181610f8d0152612409015260008181610eb601528181610f5c0152818161114d0152612e320152600081816106bc01528181611019015281816122870152613960015260008181610526015281816105c50152610633015260008181611808015281816126ff0152818161279801526128210152600050506152ae6000f3fe608060405234801561001057600080fd5b50600436106100365760003560e01c8063074a6de91461003b57806329b23fc114610068575b600080fd5b61004e610049366004614e07565b610089565b604080519283526020830191909152015b60405180910390f35b61007b610076366004614e57565b6100a4565b60405190815260200161005f565b6000806100978585856100bd565b915091505b935093915050565b60006100b28585858561019f565b90505b949350505050565b6000806100c8610465565b6100d1836104a8565b60006100db610507565b90506100f06100e861051f565b826004610555565b506100fe3387838888610aa9565b90935091506101106020850185614eb1565b73ffffffffffffffffffffffffffffffffffffffff16337f4ce1e73a001c994d4d884cd1e382579f9c1e81eccf26e70ece8caa1b60a8c2cf8461015487868a610c92565b61015f88878b610cc1565b61016f60408b0160208c01614ef5565b604080519485526020850193909352918301521515606082015260800160405180910390a35061009c6001600055565b60006101a9610465565b6101b2826104a8565b7f000000000000000000000000000000000000000000000000000000000000000084101561020c576040517f423bbb4600000000000000000000000000000000000000000000000000000000815260040160405180910390fd5b6000610216610507565b9050854210156102315761022b6100e861051f565b5061023f565b61023d86826004610555565b505b61025461024d600288610ce9565b3387610d4f565b60008060008060006102678a878d610e68565b945094509450945094508a4210156103275780600b600082825461028b9190614f41565b9091555061029e90508a8685858f6111a6565b60006102a98c6113d2565b90506102c76102b78c61141c565b6102c19083614f54565b8261147c565b6102d087611553565b6102dc576102dc6115c5565b60006102e7886115f7565b905080610320576040517f8bdf918d00000000000000000000000000000000000000000000000000000000815260040160405180910390fd5b505061033e565b6103318487611604565b935061033c866115f7565b505b600061034b85888b611727565b905089811015610387576040517fc972651700000000000000000000000000000000000000000000000000000000815260040160405180910390fd5b8a8c85848a8d610398600286610ce9565b6103a56020830183614eb1565b73ffffffffffffffffffffffffffffffffffffffff16337fcb02fec44af7356703a283b87ccec63f4ea688efc67fee9cdc1834a93260c730886103e98c8888610c92565b6103f48d8989610cc1565b6104046040890160208a01614ef5565b6104188a6104128d8f614f41565b906117c1565b6040805195865260208601949094529284019190915215156060830152608082015260a081018b905260c00160405180910390a450949b5050505050505050505050506100b56001600055565b6002600054036104a1576040517f3ee5aeb500000000000000000000000000000000000000000000000000000000815260040160405180910390fd5b6002600055565b60006104b76020830183614eb1565b73ffffffffffffffffffffffffffffffffffffffff1603610504576040517ff0dd15fd00000000000000000000000000000000000000000000000000000000815260040160405180910390fd5b50565b600061051a670de0b6b3a76400006117d6565b905090565b600061054b7f000000000000000000000000000000000000000000000000000000000000000042614fa3565b61051a9042614fb7565b600083815260076020526040812080546fffffffffffffffffffffffffffffffff1615158061058357504285115b156105a257546fffffffffffffffffffffffffffffffff169050610aa2565b6000806105ad61051f565b90508087036105be57859150610661565b60006105ea7f000000000000000000000000000000000000000000000000000000000000000089614f41565b90505b6000818152600760205260409020546fffffffffffffffffffffffffffffffff169250818114801561061d575082155b15610626578692505b8260000361065f576106587f000000000000000000000000000000000000000000000000000000000000000082614f41565b90506105ed565b505b61066a82611889565b83547fffffffffffffffffffffffffffffffff00000000000000000000000000000000166fffffffffffffffffffffffffffffffff919091161783556106af866118d5565b50600090506007816106e17f00000000000000000000000000000000000000000000000000000000000000008b614fb7565b815260208101919091526040016000908120546fffffffffffffffffffffffffffffffff16915061071360028a610ce9565b6000818152600e60205260408120549192508a8a8315610896576001925060008061074286898c866000611aeb565b9150915080600b60008282546107589190614f41565b9091555061077490508660008461076e8161141c565b886111a6565b61077e8183614f41565b91506107ae86838a8d877f0000000000000000000000000000000000000000000000000000000000000000611bba565b91506107c26107bd83856117c1565b611c04565b600580546002906107ea9084906201000090046dffffffffffffffffffffffffffff16614fca565b92506101000a8154816dffffffffffffffffffffffffffff02191690836dffffffffffffffffffffffffffff16021790555061082582611889565b6005805460109061085d90849070010000000000000000000000000000000090046fffffffffffffffffffffffffffffffff16614ff1565b92506101000a8154816fffffffffffffffffffffffffffffffff02191690836fffffffffffffffffffffffffffffffff16021790555050505b60006108a3600184610ce9565b6000818152600e602052604090205490915080156109ef57600194506000806108d0838b8e886001611aeb565b9150915080600b60008282546108e69190614f41565b909155506109029050836000846108fc8161141c565b8a611c4e565b61090c8183614fb7565b915061091b6107bd83876117c1565b600580546002906109439084906201000090046dffffffffffffffffffffffffffff16614fca565b92506101000a8154816dffffffffffffffffffffffffffff02191690836dffffffffffffffffffffffffffff16021790555061097e82611889565b600580546010906109b690849070010000000000000000000000000000000090046fffffffffffffffffffffffffffffffff16614ff1565b92506101000a8154816fffffffffffffffffffffffffffffffff02191690836fffffffffffffffffffffffffffffffff16021790555050505b8415610a2757610a1b610a018761141c565b610a0a8361141c565b610a149190614f54565b600061147c565b610a258e8e611f08565b505b6000610a328f6120fb565b5090508f7fff888cf98d2696e95c8c39aa98c9ad55a5378008f7a56614c9353b7137a57ab78c868a8686604051610a8b959493929190948552602085019390935260408401919091526060830152608082015260a00190565b60405180910390a250989a50505050505050505050505b9392505050565b600080610ab5856115f7565b505060065485906fffffffffffffffffffffffffffffffff1680821115610aec57806fffffffffffffffffffffffffffffffff1691505b81600003610b01576000809250925050610c88565b610b2c7f03000000000000000000000000000000000000000000000000000000000000008984610d4f565b600654600090610b689084906fffffffffffffffffffffffffffffffff70010000000000000000000000000000000090910481169085166121f4565b9050610b7383611889565b610b7d908361501a565b600680547fffffffffffffffffffffffffffffffff00000000000000000000000000000000166fffffffffffffffffffffffffffffffff92909216919091179055610bc781611889565b60068054601090610bff90849070010000000000000000000000000000000090046fffffffffffffffffffffffffffffffff1661501a565b92506101000a8154816fffffffffffffffffffffffffffffffff02191690836fffffffffffffffffffffffffffffffff160217905550610c40818887611727565b9350610c4c8684612230565b841015610c85576040517fc972651700000000000000000000000000000000000000000000000000000000815260040160405180910390fd5b50505b9550959350505050565b6000610ca46040830160208401614ef5565b15610cb0575082610aa2565b610cba84846117c1565b9050610aa2565b6000610cd36040830160208401614ef5565b15610ce257610cba8484612245565b5082610aa2565b60007effffffffffffffffffffffffffffffffffffffffffffffffffffffffffffff821115610d44576040517fb7d0949700000000000000000000000000000000000000000000000000000000815260040160405180910390fd5b5060f89190911b1790565b6000838152600d6020908152604080832073ffffffffffffffffffffffffffffffffffffffff86168452909152902054811115610db8576040517ff4d678b800000000000000000000000000000000000000000000000000000000815260040160405180910390fd5b6000838152600d6020908152604080832073ffffffffffffffffffffffffffffffffffffffff86168452825280832080548590039055858352600e90915281208054839290610e08908490614fb7565b9091555050604080518481526020810183905260009173ffffffffffffffffffffffffffffffffffffffff85169133917fc3d58168c5ae7397731d063d5bbf3d657854427343f4c083240f7aacaa2d0f62910160405180910390a4505050565b6000806000806000806000610e7c8861225a565b9050610efc610e896122ab565b60015470010000000000000000000000000000000090046fffffffffffffffffffffffffffffffff168c847f00000000000000000000000000000000000000000000000000000000000000008e7f00000000000000000000000000000000000000000000000000000000000000006122d5565b909850955091506000610f80610f106122ab565b60015470010000000000000000000000000000000090046fffffffffffffffffffffffffffffffff167f00000000000000000000000000000000000000000000000000000000000000007f0000000000000000000000000000000000000000000000000000000000000000612345565b9050610fb68389610fb1847f000000000000000000000000000000000000000000000000000000000000000061235c565b61238c565b15610fc357610fc36115c5565b8a8a60008080610fd5858888876123e4565b9b5091945092509050610fe88184614fb7565b610ff29089614f41565b9750610ffe8284614f41565b611008908c614f41565b9a50505050505050506000600760007f00000000000000000000000000000000000000000000000000000000000000008a6110439190614fb7565b815260208101919091526040016000908120546fffffffffffffffffffffffffffffffff169150428911611097576000898152600760205260409020546fffffffffffffffffffffffffffffffff16611099565b895b90506110c98b8784848e7f0000000000000000000000000000000000000000000000000000000000000000611bba565b96506110d58487614fb7565b9550670de0b6b3a7640000611171846110ec6122ab565b6110f69190614f41565b60015461112a908c9070010000000000000000000000000000000090046fffffffffffffffffffffffffffffffff16614fb7565b7f00000000000000000000000000000000000000000000000000000000000000007f0000000000000000000000000000000000000000000000000000000000000000612345565b111561117f5761117f6115c5565b61118f87878587868660006124f8565b9b9f939e50919c50909a5090975050505050505050565b60035470010000000000000000000000000000000090046fffffffffffffffffffffffffffffffff1661122061121b826111e8670de0b6b3a764000086615043565b60045470010000000000000000000000000000000090046fffffffffffffffffffffffffffffffff1691908a6000612597565b611889565b600480546fffffffffffffffffffffffffffffffff92831670010000000000000000000000000000000002921691909117905561125c86611889565b611266908261501a565b600380546fffffffffffffffffffffffffffffffff9283167001000000000000000000000000000000000292169190911790556112a284611889565b600180546000906112c69084906fffffffffffffffffffffffffffffffff16614ff1565b92506101000a8154816fffffffffffffffffffffffffffffffff02191690836fffffffffffffffffffffffffffffffff16021790555061130583612641565b6003805460009061131a908490600f0b61505a565b92506101000a8154816fffffffffffffffffffffffffffffffff0219169083600f0b6fffffffffffffffffffffffffffffffff16021790555061135c85611889565b6001805460109061139490849070010000000000000000000000000000000090046fffffffffffffffffffffffffffffffff1661501a565b92506101000a8154816fffffffffffffffffffffffffffffffff02191690836fffffffffffffffffffffffffffffffff160217905550505050505050565b60006113fa600e60006113e6600286610ce9565b81526020019081526020016000205461141c565b61140c600e60006113e6600187610ce9565b6114169190614f54565b92915050565b60007f7fffffffffffffffffffffffffffffffffffffffffffffffffffffffffffffff821115611478576040517f72dd4e0200000000000000000000000000000000000000000000000000000000815260040160405180910390fd5b5090565b60006114a561148b84836126b7565b6114968460006126b7565b6114a09190614f54565b612641565b9050600081600f0b131561151557600280548291906000906114da9084906fffffffffffffffffffffffffffffffff16614ff1565b92506101000a8154816fffffffffffffffffffffffffffffffff02191690836fffffffffffffffffffffffffffffffff160217905550505050565b600081600f0b121561154e5761152a816150a8565b600280546000906114da9084906fffffffffffffffffffffffffffffffff1661501a565b505050565b600061157f7f000000000000000000000000000000000000000000000000000000000000000083612230565b60025461159e91906fffffffffffffffffffffffffffffffff16614f41565b6001546115bd906fffffffffffffffffffffffffffffffff16846117c1565b101592915050565b6040517fbb55fd2700000000000000000000000000000000000000000000000000000000815260040160405180910390fd5b6000611416826004611f08565b6000806000611612846118d5565b9092509050600061162386866117c1565b90508183111561163b576116388683856121f4565b95505b8281101561164d578083039250611652565b600092505b61165b83611c04565b600580546dffffffffffffffffffffffffffff9290921662010000027fffffffffffffffffffffffffffffffff0000000000000000000000000000ffff90921691909117908190556fffffffffffffffffffffffffffffffff70010000000000000000000000000000000090910416808710156116da578690036116de565b5060005b6116e781611889565b600580546fffffffffffffffffffffffffffffffff9283167001000000000000000000000000000000000292169190911790555085935050505092915050565b60008061173485856117c1565b905061173f816126cd565b945084600003611753576000915050610aa2565b6117636040840160208501614ef5565b156117925761178b856117796020860186614eb1565b61178660408701876150e6565b612743565b91506117b9565b6117b5856117a36020860186614eb1565b6117b060408701876150e6565b612807565b8491505b509392505050565b6000610aa28383670de0b6b3a76400006121f4565b6040517f07a2d13a000000000000000000000000000000000000000000000000000000008152600481018290526000907f000000000000000000000000000000000000000000000000000000000000000073ffffffffffffffffffffffffffffffffffffffff16906307a2d13a906024015b602060405180830381865afa158015611865573d6000803e3d6000fd5b505050506040513d601f19601f82011682018060405250810190611416919061514b565b60006fffffffffffffffffffffffffffffffff821115611478576040517f1e15f2a200000000000000000000000000000000000000000000000000000000815260040160405180910390fd5b600554600090819061190e90849070010000000000000000000000000000000090046fffffffffffffffffffffffffffffffff166117c1565b6005546201000090046dffffffffffffffffffffffffffff169250905081811115611ae657600061193f8383614fb7565b905061194e61121b828661284e565b6005805460109061198690849070010000000000000000000000000000000090046fffffffffffffffffffffffffffffffff1661501a565b92506101000a8154816fffffffffffffffffffffffffffffffff02191690836fffffffffffffffffffffffffffffffff16021790555060006119d1858361224590919063ffffffff16565b905060006119ff827f00000000000000000000000000000000000000000000000000000000000000006117c1565b905080600b6000828254611a139190614f41565b90915550611a2390508183614fb7565b9150611a2e82611889565b60018054600090611a529084906fffffffffffffffffffffffffffffffff16614ff1565b92506101000a8154816fffffffffffffffffffffffffffffffff02191690836fffffffffffffffffffffffffffffffff160217905550611a9182612863565b60038054600090611aa6908490600f0b61505a565b92506101000a8154816fffffffffffffffffffffffffffffffff0219169083600f0b6fffffffffffffffffffffffffffffffff1602179055508493505050505b915091565b600080611af88785612245565b91506000611b26837f00000000000000000000000000000000000000000000000000000000000000006117c1565b9050611b52817f00000000000000000000000000000000000000000000000000000000000000006117c1565b91508315611b7557611b648282614fb7565b611b6e9084614fb7565b9250611b8c565b611b7f8282614fb7565b611b899084614f41565b92505b86861015611baf57611b9f8387896121f4565b9250611bac8287896121f4565b91505b509550959350505050565b600080611bd284611bcc8a888a6121f4565b90612245565b9050611bdf8884866121f4565b611be99082614f41565b905086811115611bf95786810391505b509695505050505050565b60006dffffffffffffffffffffffffffff821115611478576040517f10d62a2e00000000000000000000000000000000000000000000000000000000815260040160405180910390fd5b6001546fffffffffffffffffffffffffffffffff1683811080611c9957507f0000000000000000000000000000000000000000000000000000000000000000611c978583614fb7565b105b15611ca657611ca66115c5565b6003549084900390600f0b611cbb8482614f54565b905083611cc78661141c565b138015611cfc57507f0000000000000000000000000000000000000000000000000000000000000000611cfa83836128af565b105b15611d0957611d096115c5565b60025470010000000000000000000000000000000090046fffffffffffffffffffffffffffffffff16611d6a61121b82611d4b670de0b6b3a764000088615043565b6004546fffffffffffffffffffffffffffffffff1691908c6000612597565b600480547fffffffffffffffffffffffffffffffff00000000000000000000000000000000166fffffffffffffffffffffffffffffffff92909216919091179055611db58882614fb7565b9050611dc081611889565b600280546fffffffffffffffffffffffffffffffff928316700100000000000000000000000000000000029216919091179055611dfc83611889565b600180547fffffffffffffffffffffffffffffffff00000000000000000000000000000000166fffffffffffffffffffffffffffffffff92909216919091179055611e4682612641565b600380547fffffffffffffffffffffffffffffffff00000000000000000000000000000000166fffffffffffffffffffffffffffffffff92909216919091179055611e9087611889565b60018054601090611ec890849070010000000000000000000000000000000090046fffffffffffffffffffffffffffffffff16614ff1565b92506101000a8154816fffffffffffffffffffffffffffffffff02191690836fffffffffffffffffffffffffffffffff1602179055505050505050505050565b6006547f03000000000000000000000000000000000000000000000000000000000000006000908152600e6020527fd2d06a3478833ecfcc0864e3afb188a7ff21caef68ea336a6e4f79f78f6fb3e95490918291611f78916fffffffffffffffffffffffffffffffff1690614fb7565b905080600003611f8c576001915050611416565b6000611f97856128d5565b905080600003611fac57600192505050611416565b600080611fba838589612992565b9150915080611fd0576000945050505050611416565b600080611fdd8489612a98565b91509150611ffb611fed8261141c565b611ff690615164565b612b8a565b9250826120115760009650505050505050611416565b61201a82611889565b6006805460009061203e9084906fffffffffffffffffffffffffffffffff16614ff1565b92506101000a8154816fffffffffffffffffffffffffffffffff02191690836fffffffffffffffffffffffffffffffff16021790555061207d81611889565b600680546010906120b590849070010000000000000000000000000000000090046fffffffffffffffffffffffffffffffff16614ff1565b92506101000a8154816fffffffffffffffffffffffffffffffff02191690836fffffffffffffffffffffffffffffffff1602179055506001965050505050505092915050565b60008060008061211261210d86612d05565b612ec7565b9150915080612128575060009485945092505050565b6000808611612138576000612142565b61214283876117c1565b600654600e6020527fd2d06a3478833ecfcc0864e3afb188a7ff21caef68ea336a6e4f79f78f6fb3e95460008080527fe710864318d4a32f37d6ce54cb3fadbef648dd12d8dbdf53973564d56b7f881c54939450926fffffffffffffffffffffffffffffffff909216916121b69190614f41565b6121c09190614fb7565b9050806000036121d95750600096879650945050505050565b60006121e58383612245565b98600198509650505050505050565b6000827fffffffffffffffffffffffffffffffffffffffffffffffffffffffffffffffff048411830215820261222957600080fd5b5091020490565b6000610aa28383670de0b6b3a7640000612f54565b6000610aa283670de0b6b3a7640000846121f4565b60008061226561051f565b905080831161227557600061227f565b61227f8184614fb7565b9150610aa2827f0000000000000000000000000000000000000000000000000000000000000000612245565b60015460035460009161051a916fffffffffffffffffffffffffffffffff90911690600f0b6128af565b600080806122f66122ee88670de0b6b3a7640000614fb7565b899087612f54565b90508615612338576123088888612230565b91506123298a8a846123228a670de0b6b3a7640000614fb7565b8989612f98565b92506123358382614f41565b90505b9750975097945050505050565b60006100b2826123568588886121f4565b90612fbb565b600061237a61237384670de0b6b3a7640000614fb7565b8390612230565b610aa290670de0b6b3a7640000614fb7565b6000806123d98561239b6122ab565b6123a59190614f41565b60015461112a90879070010000000000000000000000000000000090046fffffffffffffffffffffffffffffffff16614fb7565b909210949350505050565b600080808061243b87866124348b61242e6124078c670de0b6b3a7640000614fb7565b7f000000000000000000000000000000000000000000000000000000000000000090612230565b90612230565b9190612f54565b9350612467847f00000000000000000000000000000000000000000000000000000000000000006117c1565b9150600061248861248089670de0b6b3a7640000614fb7565b8a9088612f54565b90506124b4817f0000000000000000000000000000000000000000000000000000000000000000612230565b93506124e0847f00000000000000000000000000000000000000000000000000000000000000006117c1565b6124ea9084614f41565b915050945094509450949050565b6000806000806000808888101561256757861561251d5761251a8d898b6121f4565b9c505b6125288c898b6121f4565b9b506125338b61141c565b61253c8d61141c565b6125469190614f54565b90506125538b898b6121f4565b9a506125608a898b6121f4565b9950612586565b6125708b61141c565b6125798d61141c565b6125839190614f54565b90505b9b9c9a9b999a975050505050505050565b6000826000036125a8575084612638565b81156125fb576125d96125bb8487614f41565b6125c585876117c1565b6125cf888a6117c1565b611bcc9190614f41565b905060006125e78588613030565b9050808210156125f5578091505b50612638565b82850361260a57506000612638565b6126356126178487614fb7565b6126218587612230565b61262b888a6117c1565b611bcc9190614fb7565b90505b95945050505050565b60007fffffffffffffffffffffffffffffffff8000000000000000000000000000000082128061268057506f7fffffffffffffffffffffffffffffff82135b15611478576040517fa5353be500000000000000000000000000000000000000000000000000000000815260040160405180910390fd5b60008183136126c65781610aa2565b5090919050565b6040517fc6e6f592000000000000000000000000000000000000000000000000000000008152600481018290526000907f000000000000000000000000000000000000000000000000000000000000000073ffffffffffffffffffffffffffffffffffffffff169063c6e6f59290602401611848565b6040517fba0876520000000000000000000000000000000000000000000000000000000081526004810185905273ffffffffffffffffffffffffffffffffffffffff84811660248301523060448301526000917f00000000000000000000000000000000000000000000000000000000000000009091169063ba087652906064016020604051808303816000875af11580156127e3573d6000803e3d6000fd5b505050506040513d601f19601f820116820180604052508101906100b2919061514b565b61284873ffffffffffffffffffffffffffffffffffffffff7f000000000000000000000000000000000000000000000000000000000000000016848661303f565b50505050565b6000610aa283670de0b6b3a764000084612f54565b60006f7fffffffffffffffffffffffffffffff821115611478576040517fa5353be500000000000000000000000000000000000000000000000000000000815260040160405180910390fd5b6000806128bc84846130cc565b9092509050806128ce576128ce6115c5565b5092915050565b60025460009081906128f9906fffffffffffffffffffffffffffffffff168461284e565b90506129257f000000000000000000000000000000000000000000000000000000000000000082614f41565b6001546fffffffffffffffffffffffffffffffff16111561298c576001547f0000000000000000000000000000000000000000000000000000000000000000906129829083906fffffffffffffffffffffffffffffffff16614fb7565b610aa29190614fb7565b50919050565b61299a614d47565b6000806129a684612d05565b905060006129b382612ec7565b93509050826129c857506000915061009c9050565b60006129ef6129ea8461016001518561014001516117c190919063ffffffff16565b61141c565b612a0f6129ea85610120015186610100015161223090919063ffffffff16565b612a199190614f54565b604080516101208101825285815260208082019590955260008052600e85527fe710864318d4a32f37d6ce54cb3fadbef648dd12d8dbdf53973564d56b7f881c54818301526060810199909952608089019990995260a088015250815160c087015281015160e086015290940151610100840152509092600192509050565b600080600080612ab08660c001518760e001516130cc565b9150915080612ac757600080935093505050612b83565b6000612ad38784613108565b92509050811580612ae2575080155b15612af65760008094509450505050612b83565b6000612b028883613217565b905080600003612b1c576000809550955050505050612b83565b87606001518111612b335794509250612b83915050565b5060608701516000612b478986858b6132e8565b905080600003612b6257600080965096505050505050612b83565b828110612b7a57600080965096505050505050612b83565b90955093505050505b9250929050565b6001546003546000916fffffffffffffffffffffffffffffffff80821692600f0b9170010000000000000000000000000000000090041683808080612bf28787877f00000000000000000000000000000000000000000000000000000000000000008d6137fd565b935093509350935080612c0e5750600098975050505050505050565b868414612c6057612c1e84611889565b600180547fffffffffffffffffffffffffffffffff00000000000000000000000000000000166fffffffffffffffffffffffffffffffff929092169190911790555b858314612cb257612c7083612641565b600380547fffffffffffffffffffffffffffffffff00000000000000000000000000000000166fffffffffffffffffffffffffffffffff929092169190911790555b848214612cf657612cc282611889565b600180546fffffffffffffffffffffffffffffffff9283167001000000000000000000000000000000000292169190911790555b50600198975050505050505050565b612d696040518061018001604052806000815260200160008152602001600081526020016000815260200160008152602001600081526020016000815260200160008152602001600081526020016000815260200160008152602001600081525090565b60408051610180810182526001546fffffffffffffffffffffffffffffffff8082168352600354600f0b602084015270010000000000000000000000000000000091829004811693830193909352606082018590527f000000000000000000000000000000000000000000000000000000000000000060808301527f000000000000000000000000000000000000000000000000000000000000000060a08301527f000000000000000000000000000000000000000000000000000000000000000060c08301527f000000000000000000000000000000000000000000000000000000000000000060e08301526002540482166101008201526004549091610120830191612e779116613915565b81526003546fffffffffffffffffffffffffffffffff7001000000000000000000000000000000009182900481166020840152600454604090930192612ebf92900416613915565b905292915050565b6000806000806000612ed88661398b565b9150915080612eef57506000958695509350505050565b612efc8660a0015161141c565b612f0587613cab565b83612f13896000015161141c565b612f1d919061519c565b612f27919061519c565b612f319190614f54565b925050506000811215612f4a5750600093849350915050565b9360019350915050565b6000827fffffffffffffffffffffffffffffffffffffffffffffffffffffffffffffffff0484118302158202612f8957600080fd5b50910281810615159190040190565b600080612fa9888888888888613d0f565b909250905080611bf957611bf96115c5565b600081600003612fd45750670de0b6b3a7640000611416565b82600003612fe457506000611416565b6000612fef8361141c565b90506000613004612fff8661141c565b613df0565b905081810261301b670de0b6b3a7640000826151c4565b905061302681614091565b9695505050505050565b600081831161298c5782610aa2565b6040805173ffffffffffffffffffffffffffffffffffffffff8416602482015260448082018490528251808303909101815260649091019091526020810180517bffffffffffffffffffffffffffffffffffffffffffffffffffffffff167fa9059cbb0000000000000000000000000000000000000000000000000000000017905261154e9084906142aa565b6000806000836130db8661141c565b6130e59190614f54565b905060008112156130fd576000809250925050612b83565b946001945092505050565b60008060008460a001511261312557505060808201516001612b83565b60008460a0015161313590615164565b9050600061317185876101000151886000015160e00151670de0b6b3a764000061315f9190614fb7565b89516060810151608090910151614345565b93509050821580613180575080155b1561319357600080935093505050612b83565b600061319f838361284e565b9050670de0b6b3a764000081116131db5780670de0b6b3a76400000394506131d48760c00151866117c190919063ffffffff16565b94506131ea565b60008094509450505050612b83565b8660800151851115613209578660800151600194509450505050612b83565b506001925050509250929050565b60008061324d8460c001518560e00151866101000151876000015160a0015161323f8861141c565b61324890615164565b6137fd565b87516040810192909252602082019290925291909152905080613274576000915050611416565b60006132838560000151612ec7565b925090508161329757600092505050611416565b846020015181106132ad57600092505050611416565b6000856060015186604001516132c39190614f41565b90506132de828760200151836121f49092919063ffffffff16565b6130269082614fb7565b600080856060015186604001516132ff9190614f41565b6020870151606088015191925060009161331991846121f4565b90508660a001516000036133305791506100b59050565b6000808089600488101561334357600497505b60005b8881101561369f57613358868b613030565b955060006133818360c001518460e00151856101000151866000015160a0015161323f8c61141c565b865160408101929092526020820192909252919091529050806133af576000985050505050505050506100b5565b60006133be8e60000151612ec7565b92509050816133d957600099505050505050505050506100b5565b6133e484828b6143ee565b156133fa578799505050505050505050506100b5565b60008460a00151131561356357835180516020820151604083015160a084015160e09094015160009461344e9493929161343c90670de0b6b3a7640000614fb7565b8a51606081015160809091015161445a565b935090508261346a5760009a50505050505050505050506100b5565b808560a00151106135615761347e8561455f565b90995092508261349b5760009a50505050505050505050506100b5565b6134c08560c001518660e00151876101000151886000015160a0015161323f8e61141c565b885160408101929092526020820192909252919091529250826134f05760009a50505050505050505050506100b5565b845180516020820151604083015160a084015160e090940151613520949061343c90670de0b6b3a7640000614fb7565b935090508261353c5760009a50505050505050505050506100b5565b8e60a00151811161355957889a50505050505050505050506100b5565b505050613346565b505b6000613574858f8760a00151614635565b9350905082158061358d5750670de0b6b3a76400008110155b156135a55760009a50505050505050505050506100b5565b80670de0b6b3a764000003905060006135d26129ea8760400151886020015161223090919063ffffffff16565b6135df6129ea858e6117c1565b6135e99190614f54565b905088158061360757506135fc89614990565b61360582614990565b125b15613616578098508997508296505b600081131561363e5761362d8b611bcc8385612245565b613637908b614f41565b9950613690565b60008112156136875760006136588c611bcc858186615164565b90508a81101561366c57808b039a50613681565b60009c505050505050505050505050506100b5565b50613690565b5050505061369f565b84600101945050505050613346565b5060006136c78260c001518360e00151846101000151856000015160a0015161323f8b61141c565b855160408101929092526020820192909252919091529050806136f45760009750505050505050506100b5565b600061370383600001516149a8565b905060006137256129ea8560400151866020015161223090919063ffffffff16565b6137326129ea848c6117c1565b61373c9190614f54565b905061374787614990565b61375082614990565b121561375d578795508194505b613784613778655af3107a4000670de0b6b3a7640000614fb7565b6020860151908b612f54565b6040850151613794908790612245565b10806137d457506137c26137b6655af3107a4000670de0b6b3a7640000614f41565b6020860151908b6121f4565b60408501516137d290879061284e565b115b156137eb57600099505050505050505050506100b5565b50939c9b505050505050505050505050565b6000806000808460000361381c57508792508691508590506001613909565b6000856138288b61141c565b613832919061519c565b905061383d8761141c565b81121561385857600080600080945094509450945050613909565b80945060008912613878576138716129ea868b8d6121f4565b935061389b565b61388f6129ea6138878b615164565b87908d612f54565b61389890615164565b93505b6000806138a88c8c6130cc565b91509150806138c7576000806000809650965096509650505050613909565b60006138d388886130cc565b92509050816138f357600080600080975097509750975050505050613909565b6138fe8b82856121f4565b955060019450505050505b95509550955095915050565b600080670de0b6b3a764000061392961051f565b6139339190615043565b905080831161394357600061394d565b61394d8184614fb7565b9150610aa2613984670de0b6b3a76400007f0000000000000000000000000000000000000000000000000000000000000000615043565b8390612245565b60008060006139b06129ea8561016001518661014001516117c190919063ffffffff16565b6139d06129ea86610120015187610100015161223090919063ffffffff16565b6139da9190614f54565b90506000806139f1866000015187602001516130cc565b9150915080613a0857506000958695509350505050565b6000831315613b495760008390506000613a56886000015189602001518a604001518b60a001518c60e00151670de0b6b3a7640000613a479190614fb7565b8d606001518e6080015161445a565b9350905082613a6f575060009788975095505050505050565b818110613b0d576000613aa9858a60400151858c60e00151670de0b6b3a7640000613a9a9190614fb7565b8d606001518e608001516149f1565b9450905083158015613abe57508860c0015183105b15613ad55750600098600198509650505050505050565b83613aeb57506000988998509650505050505050565b613af48161141c565b613afd90615164565b9960019950975050505050505050565b6000886020015112613b3557613b2c8860a00151856129ea9190614fb7565b6121e590615164565b60a08801518851613b2c916129ea91614fb7565b6000831215613c9c576000613b5d84615164565b90506000613b918489604001518a60e00151670de0b6b3a7640000613b829190614fb7565b8b606001518c60800151614345565b9350905082613baa575060009788975095505050505050565b818110613c2f576000613be4858a60400151858c60e00151670de0b6b3a7640000613bd59190614fb7565b8d606001518e60800151613d0f565b9450905083158015613bf957508860c0015183105b15613c105750600098600198509650505050505050565b83613c2657506000988998509650505050505050565b613afd8161141c565b6000613c61858a604001518b60e00151670de0b6b3a7640000613c529190614fb7565b8c606001518d60800151614ab1565b9450905083613c7b57506000988998509650505050505050565b613afd613c928a606001518486611bcc9190614fb7565b6129ea9083614f41565b50600095600195509350505050565b6000613cde6129ea836101200151670de0b6b3a7640000613ccc9190614fb7565b60608501516101008601519190612f54565b61140c6129ea846101600151670de0b6b3a7640000613cfd9190614fb7565b606086015161014087015191906121f4565b6000806000613d218989888888614b60565b905086881015613d38576000809250925050613de5565b9686900396613d478887612fbb565b975087811015613d5e576000809250925050613de5565b878103613d6c818688612f54565b9050670de0b6b3a76400008110613da057613d99613d92670de0b6b3a76400008961284e565b8290612fbb565b9050613db8565b613db5613d92670de0b6b3a764000089612245565b90505b613dc2818661284e565b905089811015613dda57600080935093505050613de5565b899003925060019150505b965096945050505050565b6000808213613e2b576040517fe61b497500000000000000000000000000000000000000000000000000000000815260040160405180910390fd5b506fffffffffffffffffffffffffffffffff811160071b81811c67ffffffffffffffff1060061b1781811c63ffffffff1060051b1781811c61ffff1060041b1781811c60ff10600390811b90911782811c600f1060021b1782811c909110600190811b90911782811c90911017609f8181036060019290921b917fffffffffffffffffffffffffffffffffffffffffffffffffffffffffffffffa0820190613ed59084901c61141c565b6c465772b2bbbb5f824b15207a3081018102606090811d6d0388eaa27412d5aca026815d636e018202811d6d0df99ac502031bf953eff472fdcc018202811d6d13cdffb29d51d99322bdff5f2211018202811d6d0a0f742023def783a307a986912e018202811d6d01920d8043ca89b5239253284e42018202811d6c0b7a86d7375468fac667a0a527016c29508e458543d8aa4df2abee7883018302821d6d0139601a2efabe717e604cbb4894018302821d6d02247f7a7b6594320649aa03aba1018302821d7fffffffffffffffffffffffffffffffffffffff73c0c716a594e00d54e3c4cbc9018302821d7ffffffffffffffffffffffffffffffffffffffdc7b88c420e53a9890533129f6f01830290911d7fffffffffffffffffffffffffffffffffffffff465fda27eb4d63ded474e5f832019091027ffffffffffffffff5f6af8f7b3396644f18e157960000000000000000000000000105711340daa0d5f769dba1915cef59f0815a5506027d0267a36c0c95b3975ab3ee5b203a7614a3f75373f047d803ae7b6687f2b391909102017d57115e47018c7177eebf7cd370a3356a1b7863008a5ae8028c72b88642840160ae1d92915050565b60007ffffffffffffffffffffffffffffffffffffffffffffffffdb731c958f34d94c182136140c257506000919050565b680755bf798b4a1bf1e58212614104576040517f73a2d6b100000000000000000000000000000000000000000000000000000000815260040160405180910390fd5b6503782dace9d9604e83901b059150600060606bb17217f7d1cf79abc9e3b39884821b056b80000000000000000000000001901d6bb17217f7d1cf79abc9e3b3988102909303927fffffffffffffffffffffffffffffffffffffffdbf3ccf1604d263450f02a550484018402606090811d6d0277594991cfc85f6e2461837cd9018502811d7fffffffffffffffffffffffffffffffffffffe5adedaa1cb095af9e4da10e363c018502811d6db1bbb201f443cf962f1a1d3db4a5018502811d7ffffffffffffffffffffffffffffffffffffd38dc772608b0ae56cce01296c0eb018502811d6e05180bb14799ab47a8a8cb2a527d57016d02d16720577bd19bf614176fe9ea6c10fe68e7fd37d0007b713f765087018702831d9081019087017ffffffffffffffffffffffffffffffffffffffe2c69812cf03b0763fd454a8f7e01810290921d6e0587f503bb6ea29d25fcb74019645001860279d835ebba824c98fb31b83b2ca45c00000000000000000000000001818105955092935090919061302674029d9dc38563c32e5c2f6dc192ee70ef65f9978af3860260c38690031c61141c565b60006142cc73ffffffffffffffffffffffffffffffffffffffff841683614b8f565b905080516000141580156142f15750808060200190518101906142ef919061522c565b155b1561154e576040517f5274afe700000000000000000000000000000000000000000000000000000000815273ffffffffffffffffffffffffffffffffffffffff841660048201526024015b60405180910390fd5b60008060006143578888888888614b60565b90506000614382670de0b6b3a76400006143718888612245565b61437b9190614f41565b839061284e565b9050670de0b6b3a764000081106143af576143a8613d92670de0b6b3a76400008961284e565b90506143c7565b6143c4613d92670de0b6b3a764000089612245565b90505b808810156143dd57600080935093505050610c88565b909603976001975095505050505050565b6020830151600090614400908461284e565b6040850151614410908490612245565b101580156100b5575060208401516144409084614439633b9aca00670de0b6b3a7640000614f41565b91906121f4565b604085015161445090849061284e565b1115949350505050565b600080600088121561447c5761446f88615164565b6144799087614f41565b95505b6000806144898b8b6130cc565b91509150806144a057600080935093505050614553565b60006144af838b8a8a8a614b9d565b905060006144cc6144c48a6123568a8e612230565b899089612f54565b9050808210156144e6576000809550955050505050614553565b808203670de0b6b3a764000081106145145761450d613d92670de0b6b3a76400008c612245565b905061452c565b614529613d92670de0b6b3a76400008c61284e565b90505b8b81101561454557600080965096505050505050614553565b8b9003955060019450505050505b97509795505050505050565b60008060008360e001511361457957506000928392509050565b60006145888460000151613cab565b905060006145b48560400151866060015187604001516145a89190614f41565b60208801519190612f54565b9050600082126145db57808210156145ce578190036145f1565b5060009485945092505050565b6145e482615164565b6145ee9082614f41565b90505b60e085015160c0860151614606918390612f54565b9050808560c001511015614621575060009485945092505050565b808560c00151036001935093505050915091565b600080600080841261465957855160400151614652908590614f41565b9050614694565b600061466485615164565b875160400151909150811015614684578651604001518190039150614692565b60008093509350505061009c565b505b8551805160209091015160009182916146ad91906130cc565b91509150806146c5576000809450945050505061009c565b875160e08101516040909101516000916146fa916146ee916146e79190612fbb565b8a906117c1565b6101008b01519061284e565b895160e0810151608090910151614725916147199161235690886117c1565b8b51606001519061284e565b61472f9190614f41565b9050600061476761475b6147548c6000015160e0015188612fbb90919063ffffffff16565b8b90612230565b6101008c015190612245565b9050808210156147825760008096509650505050505061009c565b808203915060006147c4858c60000151604001518d6000015160e00151670de0b6b3a76400006147b29190614fb7565b8e516060810151608090910151614b60565b905060006147ee8c6000015160e00151670de0b6b3a76400006147e79190614fb7565b8890612fbb565b90508082101561480b57600080985098505050505050505061009c565b8b51608081015160609091015191830391614827918391612f54565b9050670de0b6b3a7640000811061486b578b5160e0015161486490613d929061485890670de0b6b3a7640000614fb7565b8e5160e001519061284e565b905061489a565b8b5160e0015161489790613d929061488b90670de0b6b3a7640000614fb7565b8e5160e0015190612245565b90505b8b51606001516148ad9085908390612f54565b935083670de0b6b3a764000011156148d15783670de0b6b3a76400000393506148e5565b60006001985098505050505050505061009c565b60008c60e00151126149485760c08c015160e08d01516149049161284e565b9250670de0b6b3a764000083111561492957600080985098505050505050505061009c565b670de0b6b3a7640000929092039161494184846117c1565b935061497d565b61497a6149618d60c001518e60e00151611bcc90615164565b61497390670de0b6b3a7640000614f41565b85906117c1565b93505b50919a60019a5098505050505050505050565b600080821261499f5781611416565b61141682615164565b60008060006149b684612ec7565b91509150806128ce576040517faa2c651600000000000000000000000000000000000000000000000000000000815260040160405180910390fd5b6000806000614a038989888888614b60565b9050614a1386612356898b614f41565b975087811015614a2a576000809250925050613de5565b878103614a38818688612f54565b9050670de0b6b3a76400008110614a6557614a5e613d92670de0b6b3a76400008961284e565b9050614a7d565b614a7a613d92670de0b6b3a764000089612245565b90505b614a87818661284e565b9050808a1015614a9f57600080935093505050613de5565b90980398600198509650505050505050565b6000806000614ac38888888888614b9d565b90506000614ae7670de0b6b3a7640000614add888861284e565b6139849190614f41565b9050670de0b6b3a76400008110614b1457614b0d613d92670de0b6b3a764000089612245565b9050614b2c565b614b29613d92670de0b6b3a76400008961284e565b90505b614b368186612245565b905088811015614b4e57600080935093505050610c88565b97909703976001975095505050505050565b6000614b6c8585612fbb565b614b85614b7d86612356868b612230565b859085612f54565b6126359190614f41565b6060610aa283836000614bc2565b6000614ba98585612fbb565b614b85614bba86612356868b6117c1565b8590856121f4565b606081471015614c00576040517fcd78605900000000000000000000000000000000000000000000000000000000815230600482015260240161433c565b6000808573ffffffffffffffffffffffffffffffffffffffff168486604051614c299190615249565b60006040518083038185875af1925050503d8060008114614c66576040519150601f19603f3d011682016040523d82523d6000602084013e614c6b565b606091505b5091509150613026868383606082614c8b57614c8682614d05565b610aa2565b8151158015614caf575073ffffffffffffffffffffffffffffffffffffffff84163b155b15614cfe576040517f9996b31500000000000000000000000000000000000000000000000000000000815273ffffffffffffffffffffffffffffffffffffffff8516600482015260240161433c565b5080610aa2565b805115614d155780518082602001fd5b6040517f1425ea4200000000000000000000000000000000000000000000000000000000815260040160405180910390fd5b604051806101200160405280614db76040518061018001604052806000815260200160008152602001600081526020016000815260200160008152602001600081526020016000815260200160008152602001600081526020016000815260200160008152602001600081525090565b815260200160008152602001600081526020016000815260200160008152602001600081526020016000815260200160008152602001600081525090565b60006060828403121561298c57600080fd5b600080600060608486031215614e1c57600080fd5b8335925060208401359150604084013567ffffffffffffffff811115614e4157600080fd5b614e4d86828701614df5565b9150509250925092565b60008060008060808587031215614e6d57600080fd5b843593506020850135925060408501359150606085013567ffffffffffffffff811115614e9957600080fd5b614ea587828801614df5565b91505092959194509250565b600060208284031215614ec357600080fd5b813573ffffffffffffffffffffffffffffffffffffffff81168114610aa257600080fd5b801515811461050457600080fd5b600060208284031215614f0757600080fd5b8135610aa281614ee7565b7f4e487b7100000000000000000000000000000000000000000000000000000000600052601160045260246000fd5b8082018082111561141657611416614f12565b81810360008312801583831316838312821617156128ce576128ce614f12565b7f4e487b7100000000000000000000000000000000000000000000000000000000600052601260045260246000fd5b600082614fb257614fb2614f74565b500690565b8181038181111561141657611416614f12565b6dffffffffffffffffffffffffffff8181168382160190808211156128ce576128ce614f12565b6fffffffffffffffffffffffffffffffff8181168382160190808211156128ce576128ce614f12565b6fffffffffffffffffffffffffffffffff8281168282160390808211156128ce576128ce614f12565b808202811582820484141761141657611416614f12565b600f81810b9083900b016f7fffffffffffffffffffffffffffffff81137fffffffffffffffffffffffffffffffff800000000000000000000000000000008212171561141657611416614f12565b600081600f0b7fffffffffffffffffffffffffffffffff8000000000000000000000000000000081036150dd576150dd614f12565b60000392915050565b60008083357fffffffffffffffffffffffffffffffffffffffffffffffffffffffffffffffe184360301811261511b57600080fd5b83018035915067ffffffffffffffff82111561513657600080fd5b602001915036819003821315612b8357600080fd5b60006020828403121561515d57600080fd5b5051919050565b60007f8000000000000000000000000000000000000000000000000000000000000000820361519557615195614f12565b5060000390565b80820182811260008312801582168215821617156151bc576151bc614f12565b505092915050565b6000826151d3576151d3614f74565b7fffffffffffffffffffffffffffffffffffffffffffffffffffffffffffffffff83147f80000000000000000000000000000000000000000000000000000000000000008314161561522757615227614f12565b500590565b60006020828403121561523e57600080fd5b8151610aa281614ee7565b6000825160005b8181101561526a5760208186018101518583015201615250565b50600092019182525091905056fea2646970667358221220ad0ac9e510797bc1ea1ab48eb1f2daed1bbd2f26ab6a2480eacdf7220259d15a64736f6c63430008140033",
  "linkReferences": {},
  "deployedLinkReferences": {}
}