{
  "_format": "hh-sol-artifact-1",
  "contractName": "EzETHTarget4Deployer",
  "sourceName": "contracts/src/deployers/ezeth/EzETHTarget4Deployer.sol",
  "abi": [
    {
      "inputs": [
        {
          "internalType": "contract IRestakeManager",
          "name": "_restakeManager",
          "type": "address"
        }
      ],
      "stateMutability": "nonpayable",
      "type": "constructor"
    },
    {
      "inputs": [
        {
          "components": [
            {
              "internalType": "contract IERC20",
              "name": "baseToken",
              "type": "address"
            },
            {
              "internalType": "contract IERC20",
              "name": "vaultSharesToken",
              "type": "address"
            },
            {
              "internalType": "address",
              "name": "linkerFactory",
              "type": "address"
            },
            {
              "internalType": "bytes32",
              "name": "linkerCodeHash",
              "type": "bytes32"
            },
            {
              "internalType": "uint256",
              "name": "initialVaultSharePrice",
              "type": "uint256"
            },
            {
              "internalType": "uint256",
              "name": "minimumShareReserves",
              "type": "uint256"
            },
            {
              "internalType": "uint256",
              "name": "minimumTransactionAmount",
              "type": "uint256"
            },
            {
              "internalType": "uint256",
              "name": "positionDuration",
              "type": "uint256"
            },
            {
              "internalType": "uint256",
              "name": "checkpointDuration",
              "type": "uint256"
            },
            {
              "internalType": "uint256",
              "name": "timeStretch",
              "type": "uint256"
            },
            {
              "internalType": "address",
              "name": "governance",
              "type": "address"
            },
            {
              "internalType": "address",
              "name": "feeCollector",
              "type": "address"
            },
            {
              "internalType": "address",
              "name": "sweepCollector",
              "type": "address"
            },
            {
              "components": [
                {
                  "internalType": "uint256",
                  "name": "curve",
                  "type": "uint256"
                },
                {
                  "internalType": "uint256",
                  "name": "flat",
                  "type": "uint256"
                },
                {
                  "internalType": "uint256",
                  "name": "governanceLP",
                  "type": "uint256"
                },
                {
                  "internalType": "uint256",
                  "name": "governanceZombie",
                  "type": "uint256"
                }
              ],
              "internalType": "struct IHyperdrive.Fees",
              "name": "fees",
              "type": "tuple"
            }
          ],
          "internalType": "struct IHyperdrive.PoolConfig",
          "name": "_config",
          "type": "tuple"
        },
        {
          "internalType": "bytes",
          "name": "",
          "type": "bytes"
        },
        {
          "internalType": "bytes32",
          "name": "_salt",
          "type": "bytes32"
        }
      ],
      "name": "deploy",
      "outputs": [
        {
          "internalType": "address",
          "name": "",
          "type": "address"
        }
      ],
      "stateMutability": "nonpayable",
      "type": "function"
    },
    {
      "inputs": [],
      "name": "restakeManager",
      "outputs": [
        {
          "internalType": "contract IRestakeManager",
          "name": "",
          "type": "address"
        }
      ],
      "stateMutability": "view",
      "type": "function"
    }
  ],
  "bytecode": "0x60a060405234801561001057600080fd5b50604051615f5a380380615f5a83398101604081905261002f91610040565b6001600160a01b0316608052610070565b60006020828403121561005257600080fd5b81516001600160a01b038116811461006957600080fd5b9392505050565b608051615eca61009060003960008181607c015260cd0152615eca6000f3fe608060405234801561001057600080fd5b50600436106100365760003560e01c8063195d4bfc1461003b578063ff0996b514610077575b600080fd5b61004e6100493660046102cf565b61009e565b60405173ffffffffffffffffffffffffffffffffffffffff909116815260200160405180910390f35b61004e7f000000000000000000000000000000000000000000000000000000000000000081565b6040805133602082015290810182905260009060600160405160208183030381529060405280519060200120847f00000000000000000000000000000000000000000000000000000000000000006040516100f89061012e565b6101039291906103f9565b8190604051809103906000f5905080158015610123573d6000803e3d6000fd5b5090505b9392505050565b615948806200054d83390190565b7f4e487b7100000000000000000000000000000000000000000000000000000000600052604160045260246000fd5b6040516101c0810167ffffffffffffffff8111828210171561018f5761018f61013c565b60405290565b803573ffffffffffffffffffffffffffffffffffffffff811681146101b957600080fd5b919050565b6000608082840312156101d057600080fd5b6040516080810181811067ffffffffffffffff821117156101f3576101f361013c565b8060405250809150823581526020830135602082015260408301356040820152606083013560608201525092915050565b600082601f83011261023557600080fd5b813567ffffffffffffffff808211156102505761025061013c565b604051601f83017fffffffffffffffffffffffffffffffffffffffffffffffffffffffffffffffe0908116603f011681019082821181831017156102965761029661013c565b816040528381528660208588010111156102af57600080fd5b836020870160208301376000602085830101528094505050505092915050565b60008060008385036102608112156102e657600080fd5b610220808212156102f657600080fd5b6102fe61016b565b915061030986610195565b825261031760208701610195565b602083015261032860408701610195565b6040830152606086013560608301526080860135608083015260a086013560a083015260c086013560c083015260e086013560e0830152610100808701358184015250610120808701358184015250610140610385818801610195565b90830152610160610397878201610195565b908301526101806103a9878201610195565b908301526101a06103bc888883016101be565b9083015290935084013567ffffffffffffffff8111156103db57600080fd5b6103e786828701610224565b92505061024084013590509250925092565b825173ffffffffffffffffffffffffffffffffffffffff1681526102408101602084015161043f602084018273ffffffffffffffffffffffffffffffffffffffff169052565b506040840151610467604084018273ffffffffffffffffffffffffffffffffffffffff169052565b50606084015160608301526080840151608083015260a084015160a083015260c084015160c083015260e084015160e0830152610100808501518184015250610120808501518184015250610140808501516104da8285018273ffffffffffffffffffffffffffffffffffffffff169052565b50506101608481015173ffffffffffffffffffffffffffffffffffffffff90811691840191909152610180808601518216908401526101a08086015180519185019190915260208101516101c085015260408101516101e085015260600151610200840152831661022083015261012756fe6102806040523480156200001257600080fd5b50604051620059483803806200594883398101604081905262000035916200026c565b600160005581516001600160a01b039081166080908152602080850151831660a0908152918501516101a0908152918501516101c05260c0808601516101e0526101008087015190915260e08087015190526101208087015190915291850180515190925281518101516101409081528251604090810151610160908152935160609081015161018090815282890151871661020052908801516102205291870151600a80549187166001600160a01b0319928316179055938701516008805491871691861691909117905590860151600980549186169190941617909255918316610240819052815163224a19a960e21b815291518493919263892866a49260048083019391928290030181865afa15801562000157573d6000803e3d6000fd5b505050506040513d601f19601f820116820180604052508101906200017d919062000389565b6001600160a01b03166102605250620003b0915050565b6040516101c081016001600160401b0381118282101715620001c657634e487b7160e01b600052604160045260246000fd5b60405290565b6001600160a01b0381168114620001e257600080fd5b50565b8051620001f281620001cc565b919050565b6000608082840312156200020a57600080fd5b604051608081016001600160401b03811182821017156200023b57634e487b7160e01b600052604160045260246000fd5b8060405250809150825181526020830151602082015260408301516040820152606083015160608201525092915050565b6000808284036102408112156200028257600080fd5b610220808212156200029357600080fd5b6200029d62000194565b9150620002aa85620001e5565b8252620002ba60208601620001e5565b6020830152620002cd60408601620001e5565b6040830152606085015160608301526080850151608083015260a085015160a083015260c085015160c083015260e085015160e08301526101008086015181840152506101208086015181840152506101406200032c818701620001e5565b9083015261016062000340868201620001e5565b9083015261018062000354868201620001e5565b908301526101a06200036987878301620001f7565b81840152508193506200037e818601620001e5565b925050509250929050565b6000602082840312156200039c57600080fd5b8151620003a981620001cc565b9392505050565b60805160a05160c05160e05161010051610120516101405161016051610180516101a0516101c0516101e05161020051610220516102405161026051615426620005226000396000612b9a01526000612a160152600050506000505060008181610113015281816103eb0152818161060901526111560152600081816111300152818161166e0152818161213601528181612199015281816128d901528181612ebc015281816130e9015261312e0152600081816101a30152818161110a015281816114c9015261154301526000611c82015260008181611dd501528181612ce30152612d5c015260008181610d30015281816115dd01528181611da90152612d3001526000612caf0152600081816101e50152818161117c015281816114a701526115640152600081816101c4015281816106d101528181610c6201526127de015260008181610acc01528181610b6b0152610bd9015260008181611aa80152612acd0152600050506154266000f3fe6080604052600436106100295760003560e01c80634c2ac1d91461002e578063dbbe807014610054575b600080fd5b61004161003c366004614db8565b61007c565b6040519081526020015b60405180910390f35b610067610062366004614e1c565b610097565b6040805192835260208301919091520161004b565b600061008b86868686866100b4565b90505b95945050505050565b6000806100a6868686866105a9565b915091505b94509492505050565b60006100be610882565b600554610100900460ff1615610100576040517f21081abf00000000000000000000000000000000000000000000000000000000815260040160405180910390fd5b6101086108c5565b610111826108ff565b7f000000000000000000000000000000000000000000000000000000000000000086101561016b576040517f423bbb4600000000000000000000000000000000000000000000000000000000815260040160405180910390fd5b600061020961017861095e565b60015470010000000000000000000000000000000090046fffffffffffffffffffffffffffffffff167f00000000000000000000000000000000000000000000000000000000000000007f00000000000000000000000000000000000000000000000000000000000000007f000000000000000000000000000000000000000000000000000000000000000061098d565b90508481108061021857508381115b1561024f576040517f76c22a2200000000000000000000000000000000000000000000000000000000815260040160405180910390fd5b60008061025c89866109d3565b9150915061027361026b610ac5565b826004610afb565b506006547f03000000000000000000000000000000000000000000000000000000000000006000908152600e6020527fd2d06a3478833ecfcc0864e3afb188a7ff21caef68ea336a6e4f79f78f6fb3e95490916102e4916fffffffffffffffffffffffffffffffff90911690614ea5565b6000808052600e6020527fe710864318d4a32f37d6ce54cb3fadbef648dd12d8dbdf53973564d56b7f881c549192509061031f908390614eb8565b9050600080600061032f8661104f565b905061033a81611211565b915061034d61034888611261565b6112c1565b6001546fffffffffffffffffffffffffffffffff8082168352600354600f0b602084015270010000000000000000000000000000000090910416604082015261039581611211565b9250818310156103d1576040517f309b2a4200000000000000000000000000000000000000000000000000000000815260040160405180910390fd5b6103e784836103e08187614ea5565b9190611300565b98507f0000000000000000000000000000000000000000000000000000000000000000891015610443576040517f423bbb4600000000000000000000000000000000000000000000000000000000815260040160405180910390fd5b508b61044f8e8a61133c565b1015610487576040517fc972651700000000000000000000000000000000000000000000000000000000815260040160405180910390fd5b61049f600061049960208c018c614ecb565b8a61135a565b60006104aa8661141c565b9050806104e3576040517f8bdf918d00000000000000000000000000000000000000000000000000000000815260040160405180910390fd5b600084156104fa576104f5838661133c565b6104fd565b60005b90508e600061050d828a8f611429565b90508c61051d6020820182614ecb565b73ffffffffffffffffffffffffffffffffffffffff167fa59daf574c5c8db34377de83bceea2aa1433cc506d656f5e8f46e5f4b5c58a868e848e6105676040870160208801614f0f565b60408051948552602085019390935291830152151560608201526080810187905260a00160405180910390a250505050505050505050505061008e6001600055565b6000806105b4610882565b600554610100900460ff16156105f6576040517f21081abf00000000000000000000000000000000000000000000000000000000815260040160405180910390fd5b6105fe6108c5565b610607836108ff565b7f0000000000000000000000000000000000000000000000000000000000000000861015610661576040517f423bbb4600000000000000000000000000000000000000000000000000000000815260040160405180910390fd5b600061066b611458565b9050848110156106a7576040517f42af972b00000000000000000000000000000000000000000000000000000000815260040160405180910390fd5b60006106b1610ac5565b905060006106c86106c0610ac5565b846004610afb565b905060006106f67f000000000000000000000000000000000000000000000000000000000000000084614eb8565b905060008060006107088d888761146b565b92509250925080600b60008282546107209190614eb8565b909155506000905061073384898d611617565b9050808d101561076f576040517fc972651700000000000000000000000000000000000000000000000000000000815260040160405180910390fd5b610779818c6109d3565b50506107878e848a8861163f565b600061079460028761191b565b905060008f90506107b8828e60000160208101906107b29190614ecb565b8361135a565b848a8e846107c96020830183614ecb565b73ffffffffffffffffffffffffffffffffffffffff167fb354b32bd86ebd9f0968a338e5c2873d7f0d473aa7a668c2488e66038380258b8c8c61080d8b8888611981565b61081d6040880160208901614f0f565b610833898f8c61082d9190614ea5565b906119a9565b6040805195865260208601949094529284019190915215156060830152608082015260a0810188905260c00160405180910390a350979c50929a50505050505050505050506100ab6001600055565b6002600054036108be576040517f3ee5aeb500000000000000000000000000000000000000000000000000000000815260040160405180910390fd5b6002600055565b34156108fd576040517f1574f9f300000000000000000000000000000000000000000000000000000000815260040160405180910390fd5b565b600061090e6020830183614ecb565b73ffffffffffffffffffffffffffffffffffffffff160361095b576040517ff0dd15fd00000000000000000000000000000000000000000000000000000000815260040160405180910390fd5b50565b600154600354600091610988916fffffffffffffffffffffffffffffffff90911690600f0b6119be565b905090565b60008061099c878787866119dd565b90506109c86109b082866301e133806119f4565b6109c283670de0b6b3a7640000614ea5565b9061133c565b979650505050505050565b600080806109e76040850160208601614f0f565b15610a0c57610a02856109fd6040870187614f2c565b611a38565b9093509050610a28565b5034610a2485610a1f6040870187614f2c565b611a6d565b8492505b610a30611458565b91508015610abc57604051600090339083908381818185875af1925050503d8060008114610a7a576040519150601f19603f3d011682016040523d82523d6000602084013e610a7f565b606091505b5050905080610aba576040517f90b8ec1800000000000000000000000000000000000000000000000000000000815260040160405180910390fd5b505b505b9250929050565b6000610af17f000000000000000000000000000000000000000000000000000000000000000042614fc0565b6109889042614ea5565b600083815260076020526040812080546fffffffffffffffffffffffffffffffff16151580610b2957504285115b15610b4857546fffffffffffffffffffffffffffffffff169050611048565b600080610b53610ac5565b9050808703610b6457859150610c07565b6000610b907f000000000000000000000000000000000000000000000000000000000000000089614eb8565b90505b6000818152600760205260409020546fffffffffffffffffffffffffffffffff1692508181148015610bc3575082155b15610bcc578692505b82600003610c0557610bfe7f000000000000000000000000000000000000000000000000000000000000000082614eb8565b9050610b93565b505b610c1082611b30565b83547fffffffffffffffffffffffffffffffff00000000000000000000000000000000166fffffffffffffffffffffffffffffffff91909116178355610c5586611b7c565b5060009050600781610c877f00000000000000000000000000000000000000000000000000000000000000008b614ea5565b815260208101919091526040016000908120546fffffffffffffffffffffffffffffffff169150610cb960028a61191b565b6000818152600e60205260408120549192508a8a8315610e3c5760019250600080610ce886898c866000611d92565b9150915080600b6000828254610cfe9190614eb8565b90915550610d1a905086600084610d1481611261565b88611e61565b610d248183614eb8565b9150610d5486838a8d877f0000000000000000000000000000000000000000000000000000000000000000612088565b9150610d68610d6383856119a9565b6120cc565b60058054600290610d909084906201000090046dffffffffffffffffffffffffffff16614fd4565b92506101000a8154816dffffffffffffffffffffffffffff02191690836dffffffffffffffffffffffffffff160217905550610dcb82611b30565b60058054601090610e0390849070010000000000000000000000000000000090046fffffffffffffffffffffffffffffffff16614ffb565b92506101000a8154816fffffffffffffffffffffffffffffffff02191690836fffffffffffffffffffffffffffffffff16021790555050505b6000610e4960018461191b565b6000818152600e60205260409020549091508015610f955760019450600080610e76838b8e886001611d92565b9150915080600b6000828254610e8c9190614eb8565b90915550610ea8905083600084610ea281611261565b8a612116565b610eb28183614ea5565b9150610ec1610d6383876119a9565b60058054600290610ee99084906201000090046dffffffffffffffffffffffffffff16614fd4565b92506101000a8154816dffffffffffffffffffffffffffff02191690836dffffffffffffffffffffffffffff160217905550610f2482611b30565b60058054601090610f5c90849070010000000000000000000000000000000090046fffffffffffffffffffffffffffffffff16614ffb565b92506101000a8154816fffffffffffffffffffffffffffffffff02191690836fffffffffffffffffffffffffffffffff16021790555050505b8415610fcd57610fc1610fa787611261565b610fb083611261565b610fba9190615024565b60006123d0565b610fcb8e8e6124a7565b505b6000610fd88f61269a565b5090508f7fff888cf98d2696e95c8c39aa98c9ad55a5378008f7a56614c9353b7137a57ab78c868a8686604051611031959493929190948552602085019390935260408401919091526060830152608082015260a00190565b60405180910390a250989a50505050505050505050505b9392505050565b6110b36040518061018001604052806000815260200160008152602001600081526020016000815260200160008152602001600081526020016000815260200160008152602001600081526020016000815260200160008152602001600081525090565b60408051610180810182526001546fffffffffffffffffffffffffffffffff8082168352600354600f0b602084015270010000000000000000000000000000000091829004811693830193909352606082018590527f000000000000000000000000000000000000000000000000000000000000000060808301527f000000000000000000000000000000000000000000000000000000000000000060a08301527f000000000000000000000000000000000000000000000000000000000000000060c08301527f000000000000000000000000000000000000000000000000000000000000000060e083015260025404821661010082015260045490916101208301916111c19116612793565b81526003546fffffffffffffffffffffffffffffffff700100000000000000000000000000000000918290048116602084015260045460409093019261120992900416612793565b905292915050565b600080600061121f84612809565b915091508061125a576040517faa2c651600000000000000000000000000000000000000000000000000000000815260040160405180910390fd5b5092915050565b60007f7fffffffffffffffffffffffffffffffffffffffffffffffffffffffffffffff8211156112bd576040517f72dd4e0200000000000000000000000000000000000000000000000000000000815260040160405180910390fd5b5090565b6112ca81612896565b61095b576040517f5044b7f500000000000000000000000000000000000000000000000000000000815260040160405180910390fd5b6000827fffffffffffffffffffffffffffffffffffffffffffffffffffffffffffffffff048411830215820261133557600080fd5b5091020490565b600061135183670de0b6b3a764000084611300565b90505b92915050565b6000838152600d6020908152604080832073ffffffffffffffffffffffffffffffffffffffff8616845290915281208054839290611399908490614eb8565b90915550506000838152600e6020526040812080548392906113bc908490614eb8565b9091555050604080518481526020810183905273ffffffffffffffffffffffffffffffffffffffff84169160009133917fc3d58168c5ae7397731d063d5bbf3d657854427343f4c083240f7aacaa2d0f62910160405180910390a4505050565b60006113548260046124a7565b600061143b6040830160208401614f0f565b15611447575082611048565b61145184846119a9565b9050611048565b6000610988670de0b6b3a7640000612a11565b60008060006114ed61147b61095e565b60015470010000000000000000000000000000000090046fffffffffffffffffffffffffffffffff16887f0000000000000000000000000000000000000000000000000000000000000000897f0000000000000000000000000000000000000000000000000000000000000000612c22565b9150856114fa8387612c43565b111561150857611508612c58565b600080600061158861151861095e565b60015470010000000000000000000000000000000090046fffffffffffffffffffffffffffffffff167f00000000000000000000000000000000000000000000000000000000000000007f00000000000000000000000000000000000000000000000000000000000000006119dd565b905061159e89670de0b6b3a7640000838b612c8a565b509194509092506115b190508284614ea5565b6115bb9086614ea5565b9450611607886116018b6115cf868a614ea5565b8b6115da8e82612d98565b8e7f0000000000000000000000000000000000000000000000000000000000000000612dae565b90612c43565b9550909250505093509350939050565b60006116296040830160208401614f0f565b15611635575082611048565b611451848461133c565b6001546fffffffffffffffffffffffffffffffff168381101561166457611664612c58565b60035490849003907f00000000000000000000000000000000000000000000000000000000000000009061169c908390600f0b6119be565b10156116aa576116aa612c58565b600354611725906117209070010000000000000000000000000000000090046fffffffffffffffffffffffffffffffff166116ed670de0b6b3a764000086615044565b60045470010000000000000000000000000000000090046fffffffffffffffffffffffffffffffff169190896001612dd3565b611b30565b600480546fffffffffffffffffffffffffffffffff92831670010000000000000000000000000000000002921691909117905561176181611b30565b600180547fffffffffffffffffffffffffffffffff00000000000000000000000000000000166fffffffffffffffffffffffffffffffff929092169190911790556117ab85611b30565b600180546010906117e390849070010000000000000000000000000000000090046fffffffffffffffffffffffffffffffff16614ffb565b92506101000a8154816fffffffffffffffffffffffffffffffff02191690836fffffffffffffffffffffffffffffffff16021790555061182285611b30565b6003805460109061185a90849070010000000000000000000000000000000090046fffffffffffffffffffffffffffffffff16614ffb565b92506101000a8154816fffffffffffffffffffffffffffffffff02191690836fffffffffffffffffffffffffffffffff160217905550600061189b83612e71565b90506118b9816118aa88611261565b6118b49084615024565b6123d0565b6118c284612eb5565b6118ce576118ce612c58565b60006118d98561141c565b905080611912576040517f8bdf918d00000000000000000000000000000000000000000000000000000000815260040160405180910390fd5b50505050505050565b60007effffffffffffffffffffffffffffffffffffffffffffffffffffffffffffff821115611976576040517fb7d0949700000000000000000000000000000000000000000000000000000000815260040160405180910390fd5b5060f89190911b1790565b60006119936040830160208401614f0f565b156119a257611451848461133c565b5082611048565b60006113518383670de0b6b3a7640000611300565b6000806119cb8484612f27565b90925090508061125a5761125a612c58565b600061008e826119ee858888611300565b90612f63565b6000827fffffffffffffffffffffffffffffffffffffffffffffffffffffffffffffffff0484118302158202611a2957600080fd5b50910281810615159190040190565b6000806040517f6a17288200000000000000000000000000000000000000000000000000000000815260040160405180910390fd5b6040517f23b872dd000000000000000000000000000000000000000000000000000000008152336004820152306024820152604481018490527f000000000000000000000000000000000000000000000000000000000000000073ffffffffffffffffffffffffffffffffffffffff16906323b872dd906064016020604051808303816000875af1158015611b06573d6000803e3d6000fd5b505050506040513d601f19601f82011682018060405250810190611b2a919061505b565b50505050565b60006fffffffffffffffffffffffffffffffff8211156112bd576040517f1e15f2a200000000000000000000000000000000000000000000000000000000815260040160405180910390fd5b6005546000908190611bb590849070010000000000000000000000000000000090046fffffffffffffffffffffffffffffffff166119a9565b6005546201000090046dffffffffffffffffffffffffffff169250905081811115611d8d576000611be68383614ea5565b9050611bf56117208286612fd8565b60058054601090611c2d90849070010000000000000000000000000000000090046fffffffffffffffffffffffffffffffff16615078565b92506101000a8154816fffffffffffffffffffffffffffffffff02191690836fffffffffffffffffffffffffffffffff1602179055506000611c78858361133c90919063ffffffff16565b90506000611ca6827f00000000000000000000000000000000000000000000000000000000000000006119a9565b905080600b6000828254611cba9190614eb8565b90915550611cca90508183614ea5565b9150611cd582611b30565b60018054600090611cf99084906fffffffffffffffffffffffffffffffff16614ffb565b92506101000a8154816fffffffffffffffffffffffffffffffff02191690836fffffffffffffffffffffffffffffffff160217905550611d3882612fed565b60038054600090611d4d908490600f0b6150a1565b92506101000a8154816fffffffffffffffffffffffffffffffff0219169083600f0b6fffffffffffffffffffffffffffffffff1602179055508493505050505b915091565b600080611d9f878561133c565b91506000611dcd837f00000000000000000000000000000000000000000000000000000000000000006119a9565b9050611df9817f00000000000000000000000000000000000000000000000000000000000000006119a9565b91508315611e1c57611e0b8282614ea5565b611e159084614ea5565b9250611e33565b611e268282614ea5565b611e309084614eb8565b92505b86861015611e5657611e46838789611300565b9250611e53828789611300565b91505b509550959350505050565b60035470010000000000000000000000000000000090046fffffffffffffffffffffffffffffffff16611ed661172082611ea3670de0b6b3a764000086615044565b60045470010000000000000000000000000000000090046fffffffffffffffffffffffffffffffff1691908a6000612dd3565b600480546fffffffffffffffffffffffffffffffff928316700100000000000000000000000000000000029216919091179055611f1286611b30565b611f1c9082615078565b600380546fffffffffffffffffffffffffffffffff928316700100000000000000000000000000000000029216919091179055611f5884611b30565b60018054600090611f7c9084906fffffffffffffffffffffffffffffffff16614ffb565b92506101000a8154816fffffffffffffffffffffffffffffffff02191690836fffffffffffffffffffffffffffffffff160217905550611fbb83613039565b60038054600090611fd0908490600f0b6150a1565b92506101000a8154816fffffffffffffffffffffffffffffffff0219169083600f0b6fffffffffffffffffffffffffffffffff16021790555061201285611b30565b6001805460109061204a90849070010000000000000000000000000000000090046fffffffffffffffffffffffffffffffff16615078565b92506101000a8154816fffffffffffffffffffffffffffffffff02191690836fffffffffffffffffffffffffffffffff160217905550505050505050565b60008061209a846109c28a888a611300565b90506120a7888486611300565b6120b19082614eb8565b9050868111156120c15786810391505b509695505050505050565b60006dffffffffffffffffffffffffffff8211156112bd576040517f10d62a2e00000000000000000000000000000000000000000000000000000000815260040160405180910390fd5b6001546fffffffffffffffffffffffffffffffff168381108061216157507f000000000000000000000000000000000000000000000000000000000000000061215f8583614ea5565b105b1561216e5761216e612c58565b6003549084900390600f0b6121838482615024565b90508361218f86611261565b1380156121c457507f00000000000000000000000000000000000000000000000000000000000000006121c283836119be565b105b156121d1576121d1612c58565b60025470010000000000000000000000000000000090046fffffffffffffffffffffffffffffffff1661223261172082612213670de0b6b3a764000088615044565b6004546fffffffffffffffffffffffffffffffff1691908c6000612dd3565b600480547fffffffffffffffffffffffffffffffff00000000000000000000000000000000166fffffffffffffffffffffffffffffffff9290921691909117905561227d8882614ea5565b905061228881611b30565b600280546fffffffffffffffffffffffffffffffff9283167001000000000000000000000000000000000292169190911790556122c483611b30565b600180547fffffffffffffffffffffffffffffffff00000000000000000000000000000000166fffffffffffffffffffffffffffffffff9290921691909117905561230e82613039565b600380547fffffffffffffffffffffffffffffffff00000000000000000000000000000000166fffffffffffffffffffffffffffffffff9290921691909117905561235887611b30565b6001805460109061239090849070010000000000000000000000000000000090046fffffffffffffffffffffffffffffffff16614ffb565b92506101000a8154816fffffffffffffffffffffffffffffffff02191690836fffffffffffffffffffffffffffffffff1602179055505050505050505050565b60006123f96123df84836130af565b6123ea8460006130af565b6123f49190615024565b613039565b9050600081600f0b1315612469576002805482919060009061242e9084906fffffffffffffffffffffffffffffffff16614ffb565b92506101000a8154816fffffffffffffffffffffffffffffffff02191690836fffffffffffffffffffffffffffffffff160217905550505050565b600081600f0b12156124a25761247e816150ef565b6002805460009061242e9084906fffffffffffffffffffffffffffffffff16615078565b505050565b6006547f03000000000000000000000000000000000000000000000000000000000000006000908152600e6020527fd2d06a3478833ecfcc0864e3afb188a7ff21caef68ea336a6e4f79f78f6fb3e95490918291612517916fffffffffffffffffffffffffffffffff1690614ea5565b90508060000361252b576001915050611354565b6000612536856130be565b90508060000361254b57600192505050611354565b60008061255983858961317b565b915091508061256f576000945050505050611354565b60008061257c8489613288565b9150915061259a61258c82611261565b6125959061512d565b612896565b9250826125b05760009650505050505050611354565b6125b982611b30565b600680546000906125dd9084906fffffffffffffffffffffffffffffffff16614ffb565b92506101000a8154816fffffffffffffffffffffffffffffffff02191690836fffffffffffffffffffffffffffffffff16021790555061261c81611b30565b6006805460109061265490849070010000000000000000000000000000000090046fffffffffffffffffffffffffffffffff16614ffb565b92506101000a8154816fffffffffffffffffffffffffffffffff02191690836fffffffffffffffffffffffffffffffff1602179055506001965050505050505092915050565b6000806000806126b16126ac8661104f565b612809565b91509150806126c7575060009485945092505050565b60008086116126d75760006126e1565b6126e183876119a9565b600654600e6020527fd2d06a3478833ecfcc0864e3afb188a7ff21caef68ea336a6e4f79f78f6fb3e95460008080527fe710864318d4a32f37d6ce54cb3fadbef648dd12d8dbdf53973564d56b7f881c54939450926fffffffffffffffffffffffffffffffff909216916127559190614eb8565b61275f9190614ea5565b9050806000036127785750600096879650945050505050565b6000612784838361133c565b98600198509650505050505050565b600080670de0b6b3a76400006127a7610ac5565b6127b19190615044565b90508083116127c15760006127cb565b6127cb8184614ea5565b9150611048612802670de0b6b3a76400007f0000000000000000000000000000000000000000000000000000000000000000615044565b839061133c565b600080600080600061281a86613378565b915091508061283157506000958695509350505050565b61283e8660a00151611261565b61284787613698565b836128558960000151611261565b61285f9190615165565b6128699190615165565b6128739190615024565b92505050600081121561288c5750600093849350915050565b9360019350915050565b6001546003546000916fffffffffffffffffffffffffffffffff80821692600f0b91700100000000000000000000000000000000900416838080806128fe8787877f00000000000000000000000000000000000000000000000000000000000000008d6136fc565b93509350935093508061291a5750600098975050505050505050565b86841461296c5761292a84611b30565b600180547fffffffffffffffffffffffffffffffff00000000000000000000000000000000166fffffffffffffffffffffffffffffffff929092169190911790555b8583146129be5761297c83613039565b600380547fffffffffffffffffffffffffffffffff00000000000000000000000000000000166fffffffffffffffffffffffffffffffff929092169190911790555b848214612a02576129ce82611b30565b600180546fffffffffffffffffffffffffffffffff9283167001000000000000000000000000000000000292169190911790555b50600198975050505050505050565b6000807f000000000000000000000000000000000000000000000000000000000000000073ffffffffffffffffffffffffffffffffffffffff1663ff9969cd6040518163ffffffff1660e01b8152600401600060405180830381865afa158015612a7f573d6000803e3d6000fd5b505050506040513d6000823e601f3d9081017fffffffffffffffffffffffffffffffffffffffffffffffffffffffffffffffe0168201604052612ac5919081019061528f565b9250505060007f000000000000000000000000000000000000000000000000000000000000000073ffffffffffffffffffffffffffffffffffffffff166318160ddd6040518163ffffffff1660e01b8152600401602060405180830381865afa158015612b36573d6000803e3d6000fd5b505050506040513d601f19601f82011682018060405250810190612b5a919061536f565b6040517fc5c83cb00000000000000000000000000000000000000000000000000000000081526004810186905260248101829052604481018490529091507f000000000000000000000000000000000000000000000000000000000000000073ffffffffffffffffffffffffffffffffffffffff169063c5c83cb090606401602060405180830381865afa158015612bf6573d6000803e3d6000fd5b505050506040513d601f19601f82011682018060405250810190612c1a919061536f565b949350505050565b60006109c8878787612c3c88670de0b6b3a7640000614ea5565b8787613814565b60006113518383670de0b6b3a76400006119f4565b6040517fbb55fd2700000000000000000000000000000000000000000000000000000000815260040160405180910390fd5b6000808080612cdb8786612cd48b611601612cad8c670de0b6b3a7640000614ea5565b7f000000000000000000000000000000000000000000000000000000000000000090612c43565b91906119f4565b9350612d07847f00000000000000000000000000000000000000000000000000000000000000006119a9565b91506000612d28612d2089670de0b6b3a7640000614ea5565b8a90886119f4565b9050612d54817f0000000000000000000000000000000000000000000000000000000000000000612c43565b9350612d80847f00000000000000000000000000000000000000000000000000000000000000006119a9565b612d8a9084614eb8565b915050945094509450949050565b6000818311612da75781611351565b5090919050565b600080612dc684612dc08a888a6119f4565b90612fd8565b90506120a78884866119f4565b600082600003612de457508461008e565b8115612e3757612e15612df78487614eb8565b612e0185876119a9565b612e0b888a6119a9565b6109c29190614eb8565b90506000612e238588613837565b905080821015612e31578091505b5061008e565b828503612e465750600061008e565b61008b612e538487614ea5565b612e5d8587612c43565b612e67888a6119a9565b6109c29190614ea5565b6000612e99600e6000612e8560028661191b565b815260200190815260200160002054611261565b612eab600e6000612e8560018761191b565b6113549190615024565b6000612ee17f000000000000000000000000000000000000000000000000000000000000000083612c43565b600254612f0091906fffffffffffffffffffffffffffffffff16614eb8565b600154612f1f906fffffffffffffffffffffffffffffffff16846119a9565b101592915050565b600080600083612f3686611261565b612f409190615024565b90506000811215612f58576000809250925050610abe565b946001945092505050565b600081600003612f7c5750670de0b6b3a7640000611354565b82600003612f8c57506000611354565b6000612f9783611261565b90506000612fac612fa786611261565b613846565b9050818102612fc3670de0b6b3a764000082615388565b9050612fce81613ae7565b9695505050505050565b600061135183670de0b6b3a7640000846119f4565b60006f7fffffffffffffffffffffffffffffff8211156112bd576040517fa5353be500000000000000000000000000000000000000000000000000000000815260040160405180910390fd5b60007fffffffffffffffffffffffffffffffff8000000000000000000000000000000082128061307857506f7fffffffffffffffffffffffffffffff82135b156112bd576040517fa5353be500000000000000000000000000000000000000000000000000000000815260040160405180910390fd5b6000818313612da75781611351565b60025460009081906130e2906fffffffffffffffffffffffffffffffff1684612fd8565b905061310e7f000000000000000000000000000000000000000000000000000000000000000082614eb8565b6001546fffffffffffffffffffffffffffffffff161115613175576001547f00000000000000000000000000000000000000000000000000000000000000009061316b9083906fffffffffffffffffffffffffffffffff16614ea5565b6110489190614ea5565b50919050565b613183614cf8565b60008061318f8461104f565b9050600061319c82612809565b93509050826131b15750600091506132809050565b60006131d86131d38461016001518561014001516119a990919063ffffffff16565b611261565b6131f86131d3856101200151866101000151612c4390919063ffffffff16565b6132029190615024565b604080516101208101825285815260208082019590955260008052600e85527fe710864318d4a32f37d6ce54cb3fadbef648dd12d8dbdf53973564d56b7f881c5481830152606081018a9052608081018b905260a0810192909252845160c08301529284015160e08201529290910151610100830152509150600190505b935093915050565b6000806000806132a08660c001518760e00151612f27565b91509150806132b757600080935093505050610abe565b60006132c38784613d00565b925090508115806132d2575080155b156132e65760008094509450505050610abe565b60006132f28883613e0f565b90508060000361330c576000809550955050505050610abe565b876060015181116133235794509250610abe915050565b50606087015160006133378986858b613ee0565b90508060000361335257600080965096505050505050610abe565b82811061336a57600080965096505050505050610abe565b909890975095505050505050565b600080600061339d6131d38561016001518661014001516119a990919063ffffffff16565b6133bd6131d3866101200151876101000151612c4390919063ffffffff16565b6133c79190615024565b90506000806133de86600001518760200151612f27565b91509150806133f557506000958695509350505050565b60008313156135365760008390506000613443886000015189602001518a604001518b60a001518c60e00151670de0b6b3a76400006134349190614ea5565b8d606001518e608001516143f5565b935090508261345c575060009788975095505050505050565b8181106134fa576000613496858a60400151858c60e00151670de0b6b3a76400006134879190614ea5565b8d606001518e60800151614501565b94509050831580156134ab57508860c0015183105b156134c25750600098600198509650505050505050565b836134d857506000988998509650505050505050565b6134e181611261565b6134ea9061512d565b9960019950975050505050505050565b6000886020015112613522576135198860a00151856131d39190614ea5565b6127849061512d565b60a08801518851613519916131d391614ea5565b600083121561368957600061354a8461512d565b9050600061357e8489604001518a60e00151670de0b6b3a764000061356f9190614ea5565b8b606001518c608001516145c4565b9350905082613597575060009788975095505050505050565b81811061361c5760006135d1858a60400151858c60e00151670de0b6b3a76400006135c29190614ea5565b8d606001518e60800151614670565b94509050831580156135e657508860c0015183105b156135fd5750600098600198509650505050505050565b8361361357506000988998509650505050505050565b6134ea81611261565b600061364e858a604001518b60e00151670de0b6b3a764000061363f9190614ea5565b8c606001518d60800151614747565b945090508361366857506000988998509650505050505050565b6134ea61367f8a6060015184866109c29190614ea5565b6131d39083614eb8565b50600095600195509350505050565b60006136cb6131d3836101200151670de0b6b3a76400006136b99190614ea5565b606085015161010086015191906119f4565b612eab6131d3846101600151670de0b6b3a76400006136ea9190614ea5565b60608601516101408701519190611300565b6000806000808460000361371b57508792508691508590506001613808565b6000856137278b611261565b6137319190615165565b905061373c87611261565b81121561375757600080600080945094509450945050613808565b80945060008912613777576137706131d3868b8d611300565b935061379a565b61378e6131d36137868b61512d565b87908d6119f4565b6137979061512d565b93505b6000806137a78c8c612f27565b91509150806137c6576000806000809650965096509650505050613808565b60006137d28888612f27565b92509050816137f257600080600080975097509750975050505050613808565b6137fd8b8285611300565b955060019450505050505b95509550955095915050565b600080613825888888888888614501565b9092509050806120c1576120c1612c58565b60008183116131755782611351565b6000808213613881576040517fe61b497500000000000000000000000000000000000000000000000000000000815260040160405180910390fd5b506fffffffffffffffffffffffffffffffff811160071b81811c67ffffffffffffffff1060061b1781811c63ffffffff1060051b1781811c61ffff1060041b1781811c60ff10600390811b90911782811c600f1060021b1782811c909110600190811b90911782811c90911017609f8181036060019290921b917fffffffffffffffffffffffffffffffffffffffffffffffffffffffffffffffa082019061392b9084901c611261565b6c465772b2bbbb5f824b15207a3081018102606090811d6d0388eaa27412d5aca026815d636e018202811d6d0df99ac502031bf953eff472fdcc018202811d6d13cdffb29d51d99322bdff5f2211018202811d6d0a0f742023def783a307a986912e018202811d6d01920d8043ca89b5239253284e42018202811d6c0b7a86d7375468fac667a0a527016c29508e458543d8aa4df2abee7883018302821d6d0139601a2efabe717e604cbb4894018302821d6d02247f7a7b6594320649aa03aba1018302821d7fffffffffffffffffffffffffffffffffffffff73c0c716a594e00d54e3c4cbc9018302821d7ffffffffffffffffffffffffffffffffffffffdc7b88c420e53a9890533129f6f01830290911d7fffffffffffffffffffffffffffffffffffffff465fda27eb4d63ded474e5f832019091027ffffffffffffffff5f6af8f7b3396644f18e157960000000000000000000000000105711340daa0d5f769dba1915cef59f0815a5506027d0267a36c0c95b3975ab3ee5b203a7614a3f75373f047d803ae7b6687f2b391909102017d57115e47018c7177eebf7cd370a3356a1b7863008a5ae8028c72b88642840160ae1d92915050565b60007ffffffffffffffffffffffffffffffffffffffffffffffffdb731c958f34d94c18213613b1857506000919050565b680755bf798b4a1bf1e58212613b5a576040517f73a2d6b100000000000000000000000000000000000000000000000000000000815260040160405180910390fd5b6503782dace9d9604e83901b059150600060606bb17217f7d1cf79abc9e3b39884821b056b80000000000000000000000001901d6bb17217f7d1cf79abc9e3b3988102909303927fffffffffffffffffffffffffffffffffffffffdbf3ccf1604d263450f02a550484018402606090811d6d0277594991cfc85f6e2461837cd9018502811d7fffffffffffffffffffffffffffffffffffffe5adedaa1cb095af9e4da10e363c018502811d6db1bbb201f443cf962f1a1d3db4a5018502811d7ffffffffffffffffffffffffffffffffffffd38dc772608b0ae56cce01296c0eb018502811d6e05180bb14799ab47a8a8cb2a527d57016d02d16720577bd19bf614176fe9ea6c10fe68e7fd37d0007b713f765087018702831d9081019087017ffffffffffffffffffffffffffffffffffffffe2c69812cf03b0763fd454a8f7e01810290921d6e0587f503bb6ea29d25fcb74019645001860279d835ebba824c98fb31b83b2ca45c000000000000000000000000018181059550929350909190612fce74029d9dc38563c32e5c2f6dc192ee70ef65f9978af3860260c38690031c611261565b60008060008460a0015112613d1d57505060808201516001610abe565b60008460a00151613d2d9061512d565b90506000613d6985876101000151886000015160e00151670de0b6b3a7640000613d579190614ea5565b895160608101516080909101516145c4565b93509050821580613d78575080155b15613d8b57600080935093505050610abe565b6000613d978383612fd8565b9050670de0b6b3a76400008111613dd35780670de0b6b3a7640000039450613dcc8760c00151866119a990919063ffffffff16565b9450613de2565b60008094509450505050610abe565b8660800151851115613e01578660800151600194509450505050610abe565b506001925050509250929050565b600080613e458460c001518560e00151866101000151876000015160a00151613e3788611261565b613e409061512d565b6136fc565b87516040810192909252602082019290925291909152905080613e6c576000915050611354565b6000613e7b8560000151612809565b9250905081613e8f57600092505050611354565b84602001518110613ea557600092505050611354565b600085606001518660400151613ebb9190614eb8565b9050613ed6828760200151836113009092919063ffffffff16565b612fce9082614ea5565b60008085606001518660400151613ef79190614eb8565b60208701516060880151919250600091613f119184611300565b90508660a00151600003613f28579150612c1a9050565b60008080896004881015613f3b57600497505b60005b8881101561429757613f50868b613837565b95506000613f798360c001518460e00151856101000151866000015160a00151613e378c611261565b86516040810192909252602082019290925291909152905080613fa757600098505050505050505050612c1a565b6000613fb68e60000151612809565b9250905081613fd15760009950505050505050505050612c1a565b613fdc84828b6147f6565b15613ff257879950505050505050505050612c1a565b60008460a00151131561415b57835180516020820151604083015160a084015160e0909401516000946140469493929161403490670de0b6b3a7640000614ea5565b8a5160608101516080909101516143f5565b93509050826140625760009a5050505050505050505050612c1a565b808560a0015110614159576140768561485b565b9099509250826140935760009a5050505050505050505050612c1a565b6140b88560c001518660e00151876101000151886000015160a00151613e378e611261565b885160408101929092526020820192909252919091529250826140e85760009a5050505050505050505050612c1a565b845180516020820151604083015160a084015160e090940151614118949061403490670de0b6b3a7640000614ea5565b93509050826141345760009a5050505050505050505050612c1a565b8e60a00151811161415157889a5050505050505050505050612c1a565b505050613f3e565b505b600061416c858f8760a00151614931565b935090508215806141855750670de0b6b3a76400008110155b1561419d5760009a5050505050505050505050612c1a565b80670de0b6b3a764000003905060006141ca6131d387604001518860200151612c4390919063ffffffff16565b6141d76131d3858e6119a9565b6141e19190615024565b90508815806141ff57506141f489614c8c565b6141fd82614c8c565b125b1561420e578098508997508296505b6000811315614236576142258b6109c2838561133c565b61422f908b614eb8565b9950614288565b600081121561427f5760006142508c6109c285818661512d565b90508a81101561426457808b039a50614279565b60009c50505050505050505050505050612c1a565b50614288565b50505050614297565b84600101945050505050613f3e565b5060006142bf8260c001518360e00151846101000151856000015160a00151613e378b611261565b855160408101929092526020820192909252919091529050806142ec576000975050505050505050612c1a565b60006142fb8360000151611211565b9050600061431d6131d385604001518660200151612c4390919063ffffffff16565b61432a6131d3848c6119a9565b6143349190615024565b905061433f87614c8c565b61434882614c8c565b1215614355578795508194505b61437c614370655af3107a4000670de0b6b3a7640000614ea5565b6020860151908b6119f4565b604085015161438c90879061133c565b10806143cc57506143ba6143ae655af3107a4000670de0b6b3a7640000614eb8565b6020860151908b611300565b60408501516143ca908790612fd8565b115b156143e35760009950505050505050505050612c1a565b50939c9b505050505050505050505050565b60008060008812156144175761440a8861512d565b6144149087614eb8565b95505b6000806144248b8b612f27565b915091508061443b576000809350935050506144f5565b600061444a838b8a8a8a614ca4565b9050600061446761445f8a6119ee8a8e612c43565b8990896119f4565b9050808210156144815760008095509550505050506144f5565b808203670de0b6b3a764000081106144b6576144af6144a8670de0b6b3a76400008c61133c565b8290612f63565b90506144ce565b6144cb6144a8670de0b6b3a76400008c612fd8565b90505b8b8110156144e7576000809650965050505050506144f5565b8b9003955060019450505050505b97509795505050505050565b60008060006145138989888888614cd3565b9050614523866119ee898b614eb8565b97508781101561453a5760008092509250506145b9565b8781036145488186886119f4565b9050670de0b6b3a764000081106145755761456e6144a8670de0b6b3a764000089612fd8565b905061458d565b61458a6144a8670de0b6b3a76400008961133c565b90505b6145978186612fd8565b9050808a10156145af576000809350935050506145b9565b8903925060019150505b965096945050505050565b60008060006145d68888888888614cd3565b90506000614601670de0b6b3a76400006145f0888861133c565b6145fa9190614eb8565b8390612fd8565b9050670de0b6b3a7640000811061462e576146276144a8670de0b6b3a764000089612fd8565b9050614646565b6146436144a8670de0b6b3a76400008961133c565b90505b8088101561465c57600080935093505050614666565b8703925060019150505b9550959350505050565b60008060006146828989888888614cd3565b9050868810156146995760008092509250506145b9565b96869003966146a88887612f63565b9750878110156146bf5760008092509250506145b9565b8781036146cd8186886119f4565b9050670de0b6b3a764000081106146fa576146f36144a8670de0b6b3a764000089612fd8565b9050614712565b61470f6144a8670de0b6b3a76400008961133c565b90505b61471c8186612fd8565b905089811015614734576000809350935050506145b9565b9890980398600198509650505050505050565b60008060006147598888888888614ca4565b9050600061477d670de0b6b3a76400006147738888612fd8565b6128029190614eb8565b9050670de0b6b3a764000081106147aa576147a36144a8670de0b6b3a76400008961133c565b90506147c2565b6147bf6144a8670de0b6b3a764000089612fd8565b90505b6147cc818661133c565b9050888110156147e457600080935093505050614666565b97909703976001975095505050505050565b60208301516000906148089084612fd8565b604085015161481890849061133c565b10158015612c1a5750602084015161484190846103e0633b9aca00670de0b6b3a7640000614eb8565b6040850151614851908490612fd8565b1115949350505050565b60008060008360e001511361487557506000928392509050565b60006148848460000151613698565b905060006148b08560400151866060015187604001516148a49190614eb8565b602088015191906119f4565b9050600082126148d757808210156148ca578190036148ed565b5060009485945092505050565b6148e08261512d565b6148ea9082614eb8565b90505b60e085015160c08601516149029183906119f4565b9050808560c00151101561491d575060009485945092505050565b808560c00151036001935093505050915091565b60008060008084126149555785516040015161494e908590614eb8565b9050614990565b60006149608561512d565b87516040015190915081101561498057865160400151819003915061498e565b600080935093505050613280565b505b8551805160209091015160009182916149a99190612f27565b91509150806149c15760008094509450505050613280565b875160e08101516040909101516000916149f6916149ea916149e39190612f63565b8a906119a9565b6101008b015190612fd8565b895160e0810151608090910151614a2191614a15916119ee90886119a9565b8b516060015190612fd8565b614a2b9190614eb8565b90506000614a63614a57614a508c6000015160e0015188612f6390919063ffffffff16565b8b90612c43565b6101008c01519061133c565b905080821015614a7e57600080965096505050505050613280565b80820391506000614ac0858c60000151604001518d6000015160e00151670de0b6b3a7640000614aae9190614ea5565b8e516060810151608090910151614cd3565b90506000614aea8c6000015160e00151670de0b6b3a7640000614ae39190614ea5565b8890612f63565b905080821015614b07576000809850985050505050505050613280565b8b51608081015160609091015191830391614b239183916119f4565b9050670de0b6b3a76400008110614b67578b5160e00151614b60906144a890614b5490670de0b6b3a7640000614ea5565b8e5160e0015190612fd8565b9050614b96565b8b5160e00151614b93906144a890614b8790670de0b6b3a7640000614ea5565b8e5160e001519061133c565b90505b8b5160600151614ba990859083906119f4565b935083670de0b6b3a76400001115614bcd5783670de0b6b3a7640000039350614be1565b600060019850985050505050505050613280565b60008c60e0015112614c445760c08c015160e08d0151614c0091612fd8565b9250670de0b6b3a7640000831115614c25576000809850985050505050505050613280565b670de0b6b3a76400009290920391614c3d84846119a9565b9350614c79565b614c76614c5d8d60c001518e60e001516109c29061512d565b614c6f90670de0b6b3a7640000614eb8565b85906119a9565b93505b50919a60019a5098505050505050505050565b6000808212614c9b5781611354565b6113548261512d565b6000614cb08585612f63565b614cc9614cc1866119ee868b6119a9565b859085611300565b61008b9190614eb8565b6000614cdf8585612f63565b614cc9614cf0866119ee868b612c43565b8590856119f4565b604051806101200160405280614d686040518061018001604052806000815260200160008152602001600081526020016000815260200160008152602001600081526020016000815260200160008152602001600081526020016000815260200160008152602001600081525090565b815260200160008152602001600081526020016000815260200160008152602001600081526020016000815260200160008152602001600081525090565b60006060828403121561317557600080fd5b600080600080600060a08688031215614dd057600080fd5b85359450602086013593506040860135925060608601359150608086013567ffffffffffffffff811115614e0357600080fd5b614e0f88828901614da6565b9150509295509295909350565b60008060008060808587031215614e3257600080fd5b843593506020850135925060408501359150606085013567ffffffffffffffff811115614e5e57600080fd5b614e6a87828801614da6565b91505092959194509250565b7f4e487b7100000000000000000000000000000000000000000000000000000000600052601160045260246000fd5b8181038181111561135457611354614e76565b8082018082111561135457611354614e76565b600060208284031215614edd57600080fd5b813573ffffffffffffffffffffffffffffffffffffffff8116811461104857600080fd5b801515811461095b57600080fd5b600060208284031215614f2157600080fd5b813561104881614f01565b60008083357fffffffffffffffffffffffffffffffffffffffffffffffffffffffffffffffe1843603018112614f6157600080fd5b83018035915067ffffffffffffffff821115614f7c57600080fd5b602001915036819003821315610abe57600080fd5b7f4e487b7100000000000000000000000000000000000000000000000000000000600052601260045260246000fd5b600082614fcf57614fcf614f91565b500690565b6dffffffffffffffffffffffffffff81811683821601908082111561125a5761125a614e76565b6fffffffffffffffffffffffffffffffff81811683821601908082111561125a5761125a614e76565b818103600083128015838313168383128216171561125a5761125a614e76565b808202811582820484141761135457611354614e76565b60006020828403121561506d57600080fd5b815161104881614f01565b6fffffffffffffffffffffffffffffffff82811682821603908082111561125a5761125a614e76565b600f81810b9083900b016f7fffffffffffffffffffffffffffffff81137fffffffffffffffffffffffffffffffff800000000000000000000000000000008212171561135457611354614e76565b600081600f0b7fffffffffffffffffffffffffffffffff80000000000000000000000000000000810361512457615124614e76565b60000392915050565b60007f8000000000000000000000000000000000000000000000000000000000000000820361515e5761515e614e76565b5060000390565b808201828112600083128015821682158216171561518557615185614e76565b505092915050565b7f4e487b7100000000000000000000000000000000000000000000000000000000600052604160045260246000fd5b604051601f82017fffffffffffffffffffffffffffffffffffffffffffffffffffffffffffffffe016810167ffffffffffffffff811182821017156152035761520361518d565b604052919050565b600067ffffffffffffffff8211156152255761522561518d565b5060051b60200190565b600082601f83011261524057600080fd5b815160206152556152508361520b565b6151bc565b82815260059290921b8401810191818101908684111561527457600080fd5b8286015b848110156120c15780518352918301918301615278565b6000806000606084860312156152a457600080fd5b835167ffffffffffffffff808211156152bc57600080fd5b818601915086601f8301126152d057600080fd5b815160206152e06152508361520b565b82815260059290921b8401810191818101908a8411156152ff57600080fd5b8286015b848110156153375780518681111561531b5760008081fd5b6153298d86838b010161522f565b845250918301918301615303565b509189015191975090935050508082111561535157600080fd5b5061535e8682870161522f565b925050604084015190509250925092565b60006020828403121561538157600080fd5b5051919050565b60008261539757615397614f91565b7fffffffffffffffffffffffffffffffffffffffffffffffffffffffffffffffff83147f8000000000000000000000000000000000000000000000000000000000000000831416156153eb576153eb614e76565b50059056fea26469706673582212207a13669fe8b7c79555f7899db6e222a01b994f19989a7664f2be5611ca8089cd64736f6c63430008140033a2646970667358221220e822716feafec24d98fba8ee4737ffc877ff2bb52208dde0d7155511cc0053b164736f6c63430008140033",
  "linkReferences": {},
  "deployedLinkReferences": {}
}