{
  "_format": "hh-sol-artifact-1",
  "contractName": "ERC4626HyperdriveDeployerCoordinator",
  "sourceName": "contracts/src/deployers/erc4626/ERC4626HyperdriveDeployerCoordinator.sol",
  "abi": [
    {
      "inputs": [
        {
          "internalType": "address",
          "name": "_factory",
          "type": "address"
        },
        {
          "internalType": "address",
          "name": "_coreDeployer",
          "type": "address"
        },
        {
          "internalType": "address",
          "name": "_target0Deployer",
          "type": "address"
        },
        {
          "internalType": "address",
          "name": "_target1Deployer",
          "type": "address"
        },
        {
          "internalType": "address",
          "name": "_target2Deployer",
          "type": "address"
        },
        {
          "internalType": "address",
          "name": "_target3Deployer",
          "type": "address"
        },
        {
          "internalType": "address",
          "name": "_target4Deployer",
          "type": "address"
        }
      ],
      "stateMutability": "nonpayable",
      "type": "constructor"
    },
    {
      "inputs": [
        {
          "internalType": "address",
          "name": "target",
          "type": "address"
        }
      ],
      "name": "AddressEmptyCode",
      "type": "error"
    },
    {
      "inputs": [
        {
          "internalType": "address",
          "name": "account",
          "type": "address"
        }
      ],
      "name": "AddressInsufficientBalance",
      "type": "error"
    },
    {
      "inputs": [],
      "name": "DeploymentAlreadyExists",
      "type": "error"
    },
    {
      "inputs": [],
      "name": "DeploymentDoesNotExist",
      "type": "error"
    },
    {
      "inputs": [],
      "name": "FailedInnerCall",
      "type": "error"
    },
    {
      "inputs": [],
      "name": "HyperdriveAlreadyDeployed",
      "type": "error"
    },
    {
      "inputs": [],
      "name": "HyperdriveIsNotDeployed",
      "type": "error"
    },
    {
      "inputs": [],
      "name": "IncompleteDeployment",
      "type": "error"
    },
    {
      "inputs": [],
      "name": "InsufficientValue",
      "type": "error"
    },
    {
      "inputs": [],
      "name": "InvalidBaseToken",
      "type": "error"
    },
    {
      "inputs": [],
      "name": "InvalidCheckpointDuration",
      "type": "error"
    },
    {
      "inputs": [],
      "name": "InvalidFeeAmounts",
      "type": "error"
    },
    {
      "inputs": [],
      "name": "InvalidMinimumShareReserves",
      "type": "error"
    },
    {
      "inputs": [],
      "name": "InvalidMinimumTransactionAmount",
      "type": "error"
    },
    {
      "inputs": [],
      "name": "InvalidPositionDuration",
      "type": "error"
    },
    {
      "inputs": [],
      "name": "InvalidTargetIndex",
      "type": "error"
    },
    {
      "inputs": [],
      "name": "InvalidVaultSharesToken",
      "type": "error"
    },
    {
      "inputs": [],
      "name": "MismatchedConfig",
      "type": "error"
    },
    {
      "inputs": [],
      "name": "MismatchedExtraData",
      "type": "error"
    },
    {
      "inputs": [],
      "name": "NotPayable",
      "type": "error"
    },
    {
      "inputs": [
        {
          "internalType": "address",
          "name": "token",
          "type": "address"
        }
      ],
      "name": "SafeERC20FailedOperation",
      "type": "error"
    },
    {
      "inputs": [],
      "name": "SenderIsNotFactory",
      "type": "error"
    },
    {
      "inputs": [],
      "name": "TargetAlreadyDeployed",
      "type": "error"
    },
    {
      "inputs": [],
      "name": "TransferFailed",
      "type": "error"
    },
    {
      "inputs": [],
      "name": "coreDeployer",
      "outputs": [
        {
          "internalType": "address",
          "name": "",
          "type": "address"
        }
      ],
      "stateMutability": "view",
      "type": "function"
    },
    {
      "inputs": [
        {
          "internalType": "bytes32",
          "name": "_deploymentId",
          "type": "bytes32"
        },
        {
          "components": [
            {
              "internalType": "contract IERC20",
              "name": "baseToken",
              "type": "address"
            },
            {
              "internalType": "contract IERC20",
              "name": "vaultSharesToken",
              "type": "address"
            },
            {
              "internalType": "address",
              "name": "linkerFactory",
              "type": "address"
            },
            {
              "internalType": "bytes32",
              "name": "linkerCodeHash",
              "type": "bytes32"
            },
            {
              "internalType": "uint256",
              "name": "minimumShareReserves",
              "type": "uint256"
            },
            {
              "internalType": "uint256",
              "name": "minimumTransactionAmount",
              "type": "uint256"
            },
            {
              "internalType": "uint256",
              "name": "positionDuration",
              "type": "uint256"
            },
            {
              "internalType": "uint256",
              "name": "checkpointDuration",
              "type": "uint256"
            },
            {
              "internalType": "uint256",
              "name": "timeStretch",
              "type": "uint256"
            },
            {
              "internalType": "address",
              "name": "governance",
              "type": "address"
            },
            {
              "internalType": "address",
              "name": "feeCollector",
              "type": "address"
            },
            {
              "internalType": "address",
              "name": "sweepCollector",
              "type": "address"
            },
            {
              "components": [
                {
                  "internalType": "uint256",
                  "name": "curve",
                  "type": "uint256"
                },
                {
                  "internalType": "uint256",
                  "name": "flat",
                  "type": "uint256"
                },
                {
                  "internalType": "uint256",
                  "name": "governanceLP",
                  "type": "uint256"
                },
                {
                  "internalType": "uint256",
                  "name": "governanceZombie",
                  "type": "uint256"
                }
              ],
              "internalType": "struct IHyperdrive.Fees",
              "name": "fees",
              "type": "tuple"
            }
          ],
          "internalType": "struct IHyperdrive.PoolDeployConfig",
          "name": "_deployConfig",
          "type": "tuple"
        },
        {
          "internalType": "bytes",
          "name": "_extraData",
          "type": "bytes"
        },
        {
          "internalType": "bytes32",
          "name": "_salt",
          "type": "bytes32"
        }
      ],
      "name": "deploy",
      "outputs": [
        {
          "internalType": "address",
          "name": "",
          "type": "address"
        }
      ],
      "stateMutability": "nonpayable",
      "type": "function"
    },
    {
      "inputs": [
        {
          "internalType": "bytes32",
          "name": "_deploymentId",
          "type": "bytes32"
        },
        {
          "components": [
            {
              "internalType": "contract IERC20",
              "name": "baseToken",
              "type": "address"
            },
            {
              "internalType": "contract IERC20",
              "name": "vaultSharesToken",
              "type": "address"
            },
            {
              "internalType": "address",
              "name": "linkerFactory",
              "type": "address"
            },
            {
              "internalType": "bytes32",
              "name": "linkerCodeHash",
              "type": "bytes32"
            },
            {
              "internalType": "uint256",
              "name": "minimumShareReserves",
              "type": "uint256"
            },
            {
              "internalType": "uint256",
              "name": "minimumTransactionAmount",
              "type": "uint256"
            },
            {
              "internalType": "uint256",
              "name": "positionDuration",
              "type": "uint256"
            },
            {
              "internalType": "uint256",
              "name": "checkpointDuration",
              "type": "uint256"
            },
            {
              "internalType": "uint256",
              "name": "timeStretch",
              "type": "uint256"
            },
            {
              "internalType": "address",
              "name": "governance",
              "type": "address"
            },
            {
              "internalType": "address",
              "name": "feeCollector",
              "type": "address"
            },
            {
              "internalType": "address",
              "name": "sweepCollector",
              "type": "address"
            },
            {
              "components": [
                {
                  "internalType": "uint256",
                  "name": "curve",
                  "type": "uint256"
                },
                {
                  "internalType": "uint256",
                  "name": "flat",
                  "type": "uint256"
                },
                {
                  "internalType": "uint256",
                  "name": "governanceLP",
                  "type": "uint256"
                },
                {
                  "internalType": "uint256",
                  "name": "governanceZombie",
                  "type": "uint256"
                }
              ],
              "internalType": "struct IHyperdrive.Fees",
              "name": "fees",
              "type": "tuple"
            }
          ],
          "internalType": "struct IHyperdrive.PoolDeployConfig",
          "name": "_deployConfig",
          "type": "tuple"
        },
        {
          "internalType": "bytes",
          "name": "_extraData",
          "type": "bytes"
        },
        {
          "internalType": "uint256",
          "name": "_targetIndex",
          "type": "uint256"
        },
        {
          "internalType": "bytes32",
          "name": "_salt",
          "type": "bytes32"
        }
      ],
      "name": "deployTarget",
      "outputs": [
        {
          "internalType": "address",
          "name": "target",
          "type": "address"
        }
      ],
      "stateMutability": "nonpayable",
      "type": "function"
    },
    {
      "inputs": [
        {
          "internalType": "bytes32",
          "name": "_deploymentId",
          "type": "bytes32"
        }
      ],
      "name": "deployments",
      "outputs": [
        {
          "components": [
            {
              "internalType": "bytes32",
              "name": "configHash",
              "type": "bytes32"
            },
            {
              "internalType": "bytes32",
              "name": "extraDataHash",
              "type": "bytes32"
            },
            {
              "internalType": "uint256",
              "name": "initialSharePrice",
              "type": "uint256"
            },
            {
              "internalType": "address",
              "name": "hyperdrive",
              "type": "address"
            },
            {
              "internalType": "address",
              "name": "target0",
              "type": "address"
            },
            {
              "internalType": "address",
              "name": "target1",
              "type": "address"
            },
            {
              "internalType": "address",
              "name": "target2",
              "type": "address"
            },
            {
              "internalType": "address",
              "name": "target3",
              "type": "address"
            },
            {
              "internalType": "address",
              "name": "target4",
              "type": "address"
            }
          ],
          "internalType": "struct HyperdriveDeployerCoordinator.Deployment",
          "name": "",
          "type": "tuple"
        }
      ],
      "stateMutability": "view",
      "type": "function"
    },
    {
      "inputs": [],
      "name": "factory",
      "outputs": [
        {
          "internalType": "address",
          "name": "",
          "type": "address"
        }
      ],
      "stateMutability": "view",
      "type": "function"
    },
    {
      "inputs": [
        {
          "internalType": "bytes32",
          "name": "_deploymentId",
          "type": "bytes32"
        },
        {
          "internalType": "address",
          "name": "_lp",
          "type": "address"
        },
        {
          "internalType": "uint256",
          "name": "_contribution",
          "type": "uint256"
        },
        {
          "internalType": "uint256",
          "name": "_apr",
          "type": "uint256"
        },
        {
          "components": [
            {
              "internalType": "address",
              "name": "destination",
              "type": "address"
            },
            {
              "internalType": "bool",
              "name": "asBase",
              "type": "bool"
            },
            {
              "internalType": "bytes",
              "name": "extraData",
              "type": "bytes"
            }
          ],
          "internalType": "struct IHyperdrive.Options",
          "name": "_options",
          "type": "tuple"
        }
      ],
      "name": "initialize",
      "outputs": [
        {
          "internalType": "uint256",
          "name": "lpShares",
          "type": "uint256"
        }
      ],
      "stateMutability": "payable",
      "type": "function"
    },
    {
      "inputs": [],
      "name": "name",
      "outputs": [
        {
          "internalType": "string",
          "name": "",
          "type": "string"
        }
      ],
      "stateMutability": "view",
      "type": "function"
    },
    {
      "inputs": [],
      "name": "target0Deployer",
      "outputs": [
        {
          "internalType": "address",
          "name": "",
          "type": "address"
        }
      ],
      "stateMutability": "view",
      "type": "function"
    },
    {
      "inputs": [],
      "name": "target1Deployer",
      "outputs": [
        {
          "internalType": "address",
          "name": "",
          "type": "address"
        }
      ],
      "stateMutability": "view",
      "type": "function"
    },
    {
      "inputs": [],
      "name": "target2Deployer",
      "outputs": [
        {
          "internalType": "address",
          "name": "",
          "type": "address"
        }
      ],
      "stateMutability": "view",
      "type": "function"
    },
    {
      "inputs": [],
      "name": "target3Deployer",
      "outputs": [
        {
          "internalType": "address",
          "name": "",
          "type": "address"
        }
      ],
      "stateMutability": "view",
      "type": "function"
    },
    {
      "inputs": [],
      "name": "target4Deployer",
      "outputs": [
        {
          "internalType": "address",
          "name": "",
          "type": "address"
        }
      ],
      "stateMutability": "view",
      "type": "function"
    },
    {
      "inputs": [],
      "name": "version",
      "outputs": [
        {
          "internalType": "string",
          "name": "",
          "type": "string"
        }
      ],
      "stateMutability": "pure",
      "type": "function"
    }
  ],
  "bytecode": "0x6101606040523480156200001257600080fd5b5060405162002e9a38038062002e9a833981016040819052620000359162000089565b6001600160a01b0396871660805294861660a05292851660c05290841660e05283166101005282166101205216610140526200011e565b80516001600160a01b03811681146200008457600080fd5b919050565b600080600080600080600060e0888a031215620000a557600080fd5b620000b0886200006c565b9650620000c0602089016200006c565b9550620000d0604089016200006c565b9450620000e0606089016200006c565b9350620000f0608089016200006c565b92506200010060a089016200006c565b91506200011060c089016200006c565b905092959891949750929550565b60805160a05160c05160e051610100516101205161014051612ce2620001b8600039600081816102eb0152610ca50152600081816103530152610b2f0152600081816103bb01526109b901526000818161031f01526108430152600081816103870152610588015260008181610423015261130d0152600081816103ef0152818161047b01528181610dec0152610ffa0152612ce26000f3fe6080604052600436106100d25760003560e01c8063966ecd1c1161007f578063ab71905f11610059578063ab71905f14610375578063b6cb1118146103a9578063c45a0155146103dd578063c83e1f511461041157600080fd5b8063966ecd1c146102d9578063a085fa301461030d578063aa8cd6c41461034157600080fd5b80631ae6f515116100b05780631ae6f51514610168578063374040171461018857806354fd4d501461029357600080fd5b806306fdde03146100d75780630b3c4f861461010257806316abfc7014610147575b600080fd5b3480156100e357600080fd5b506100ec610445565b6040516100f99190612126565b60405180910390f35b34801561010e57600080fd5b5061012261011d3660046123cf565b610461565b60405173ffffffffffffffffffffffffffffffffffffffff90911681526020016100f9565b61015a61015536600461244b565b610dd2565b6040519081526020016100f9565b34801561017457600080fd5b50610122610183366004612510565b610fe0565b34801561019457600080fd5b506102866101a3366004612573565b6040805161012081018252600080825260208201819052918101829052606081018290526080810182905260a0810182905260c0810182905260e08101829052610100810191909152506000908152602081815260409182902082516101208101845281548152600182015492810192909252600281015492820192909252600382015473ffffffffffffffffffffffffffffffffffffffff90811660608301526004830154811660808301526005830154811660a08301526006830154811660c08301526007830154811660e083015260089092015490911661010082015290565b6040516100f9919061258c565b34801561029f57600080fd5b5060408051808201909152600681527f76312e302e32000000000000000000000000000000000000000000000000000060208201526100ec565b3480156102e557600080fd5b506101227f000000000000000000000000000000000000000000000000000000000000000081565b34801561031957600080fd5b506101227f000000000000000000000000000000000000000000000000000000000000000081565b34801561034d57600080fd5b506101227f000000000000000000000000000000000000000000000000000000000000000081565b34801561038157600080fd5b506101227f000000000000000000000000000000000000000000000000000000000000000081565b3480156103b557600080fd5b506101227f000000000000000000000000000000000000000000000000000000000000000081565b3480156103e957600080fd5b506101227f000000000000000000000000000000000000000000000000000000000000000081565b34801561041d57600080fd5b506101227f000000000000000000000000000000000000000000000000000000000000000081565b604051806060016040528060248152602001612c896024913981565b60003373ffffffffffffffffffffffffffffffffffffffff7f000000000000000000000000000000000000000000000000000000000000000016146104d2576040517f4084351100000000000000000000000000000000000000000000000000000000815260040160405180910390fd5b6000868152602081905260408120908490036106b257805415610521576040517f77c3669a00000000000000000000000000000000000000000000000000000000815260040160405180910390fd5b61052a86611459565b6000610536878761171f565b905060008760405160200161054b9190612680565b604051602081830303815290604052805190602001209050600087805190602001209050600061057a8a6117c5565b9050838160800181815250507f000000000000000000000000000000000000000000000000000000000000000073ffffffffffffffffffffffffffffffffffffffff1663195d4bfc828b8e8b6040516020016105e0929190918252602082015260400190565b604051602081830303815290604052805190602001206040518463ffffffff1660e01b81526004016106149392919061292b565b6020604051808303816000875af1158015610633573d6000803e3d6000fd5b505050506040513d601f19601f82011682018060405250810190610657919061295f565b9285555060018401556002830191909155600490910180547fffffffffffffffffffffffff00000000000000000000000000000000000000001673ffffffffffffffffffffffffffffffffffffffff83161790559050610dc9565b600087815260208190526040902054806106f8576040517fe62c702400000000000000000000000000000000000000000000000000000000815260040160405180910390fd5b808760405160200161070a9190612680565b6040516020818303038152906040528051906020012014610757576040517f332ee11f00000000000000000000000000000000000000000000000000000000815260040160405180910390fd5b6001820154865160208801201461079a576040517fd193968800000000000000000000000000000000000000000000000000000000815260040160405180910390fd5b6107a387611459565b60006107ae886117c5565b600284015460808201529050600186900361093157600583015473ffffffffffffffffffffffffffffffffffffffff1615610815576040517f0744b57800000000000000000000000000000000000000000000000000000000815260040160405180910390fd5b604080513360208201529081018a90526060810186905273ffffffffffffffffffffffffffffffffffffffff7f0000000000000000000000000000000000000000000000000000000000000000169063195d4bfc9083908a90608001604051602081830303815290604052805190602001206040518463ffffffff1660e01b81526004016108a59392919061292b565b6020604051808303816000875af11580156108c4573d6000803e3d6000fd5b505050506040513d601f19601f820116820180604052508101906108e8919061295f565b6005840180547fffffffffffffffffffffffff00000000000000000000000000000000000000001673ffffffffffffffffffffffffffffffffffffffff83161790559350610dc5565b85600203610aa757600683015473ffffffffffffffffffffffffffffffffffffffff161561098b576040517f0744b57800000000000000000000000000000000000000000000000000000000815260040160405180910390fd5b604080513360208201529081018a90526060810186905273ffffffffffffffffffffffffffffffffffffffff7f0000000000000000000000000000000000000000000000000000000000000000169063195d4bfc9083908a90608001604051602081830303815290604052805190602001206040518463ffffffff1660e01b8152600401610a1b9392919061292b565b6020604051808303816000875af1158015610a3a573d6000803e3d6000fd5b505050506040513d601f19601f82011682018060405250810190610a5e919061295f565b6006840180547fffffffffffffffffffffffff00000000000000000000000000000000000000001673ffffffffffffffffffffffffffffffffffffffff83161790559350610dc5565b85600303610c1d57600783015473ffffffffffffffffffffffffffffffffffffffff1615610b01576040517f0744b57800000000000000000000000000000000000000000000000000000000815260040160405180910390fd5b604080513360208201529081018a90526060810186905273ffffffffffffffffffffffffffffffffffffffff7f0000000000000000000000000000000000000000000000000000000000000000169063195d4bfc9083908a90608001604051602081830303815290604052805190602001206040518463ffffffff1660e01b8152600401610b919392919061292b565b6020604051808303816000875af1158015610bb0573d6000803e3d6000fd5b505050506040513d601f19601f82011682018060405250810190610bd4919061295f565b6007840180547fffffffffffffffffffffffff00000000000000000000000000000000000000001673ffffffffffffffffffffffffffffffffffffffff83161790559350610dc5565b85600403610d9357600883015473ffffffffffffffffffffffffffffffffffffffff1615610c77576040517f0744b57800000000000000000000000000000000000000000000000000000000815260040160405180910390fd5b604080513360208201529081018a90526060810186905273ffffffffffffffffffffffffffffffffffffffff7f0000000000000000000000000000000000000000000000000000000000000000169063195d4bfc9083908a90608001604051602081830303815290604052805190602001206040518463ffffffff1660e01b8152600401610d079392919061292b565b6020604051808303816000875af1158015610d26573d6000803e3d6000fd5b505050506040513d601f19601f82011682018060405250810190610d4a919061295f565b6008840180547fffffffffffffffffffffffff00000000000000000000000000000000000000001673ffffffffffffffffffffffffffffffffffffffff83161790559350610dc5565b6040517f3b3f02b200000000000000000000000000000000000000000000000000000000815260040160405180910390fd5b5050505b95945050505050565b60003373ffffffffffffffffffffffffffffffffffffffff7f00000000000000000000000000000000000000000000000000000000000000001614610e43576040517f4084351100000000000000000000000000000000000000000000000000000000815260040160405180910390fd5b610e4b611884565b60008681526020819052604090206003015473ffffffffffffffffffffffffffffffffffffffff1680610eaa576040517f952b05cb00000000000000000000000000000000000000000000000000000000815260040160405180910390fd5b6000610eb8828888876118be565b90508173ffffffffffffffffffffffffffffffffffffffff166377d05ff4828888886040518563ffffffff1660e01b8152600401610ef89392919061297c565b60206040518083038185885af1158015610f16573d6000803e3d6000fd5b50505050506040513d601f19601f82011682018060405250810190610f3b91906129da565b92506000610f498234612a22565b90508015610dc557604051600090339083908381818185875af1925050503d8060008114610f93576040519150601f19603f3d011682016040523d82523d6000602084013e610f98565b606091505b5050905080610fd3576040517f90b8ec1800000000000000000000000000000000000000000000000000000000815260040160405180910390fd5b5050505095945050505050565b60003373ffffffffffffffffffffffffffffffffffffffff7f00000000000000000000000000000000000000000000000000000000000000001614611051576040517f4084351100000000000000000000000000000000000000000000000000000000815260040160405180910390fd5b6000858152602081815260409182902082516101208101845281548152600182015492810192909252600281015492820192909252600382015473ffffffffffffffffffffffffffffffffffffffff908116606083018190526004840154821660808401526005840154821660a08401526006840154821660c08401526007840154821660e084015260089093015416610100820152901561111f576040517f2c95caeb00000000000000000000000000000000000000000000000000000000815260040160405180910390fd5b8051611157576040517fe62c702400000000000000000000000000000000000000000000000000000000815260040160405180910390fd5b608081015173ffffffffffffffffffffffffffffffffffffffff161580611196575060a081015173ffffffffffffffffffffffffffffffffffffffff16155b806111b9575060c081015173ffffffffffffffffffffffffffffffffffffffff16155b806111dc575060e081015173ffffffffffffffffffffffffffffffffffffffff16155b80611200575061010081015173ffffffffffffffffffffffffffffffffffffffff16155b15611237576040517fe97cc2bf00000000000000000000000000000000000000000000000000000000815260040160405180910390fd5b805160405161124a908790602001612680565b6040516020818303038152906040528051906020012014611297576040517f332ee11f00000000000000000000000000000000000000000000000000000000815260040160405180910390fd5b80602001518480519060200120146112db576040517fd193968800000000000000000000000000000000000000000000000000000000815260040160405180910390fd5b6112e485611459565b60006112ef866117c5565b905081604001518160800181815250506000879050600085905060007f000000000000000000000000000000000000000000000000000000000000000073ffffffffffffffffffffffffffffffffffffffff1663ed871fd7858a88608001518960a001518a60c001518b60e001518c61010001518b8b60405160200161137f929190918252602082015260400190565b604051602081830303815290604052805190602001206040518963ffffffff1660e01b81526004016113b8989796959493929190612a35565b6020604051808303816000875af11580156113d7573d6000803e3d6000fd5b505050506040513d601f19601f820116820180604052508101906113fb919061295f565b60009a8b5260208b90526040909a2060030180547fffffffffffffffffffffffff00000000000000000000000000000000000000001673ffffffffffffffffffffffffffffffffffffffff8c16179055509798975050505050505050565b61146281611a02565b602081015173ffffffffffffffffffffffffffffffffffffffff166114b3576040517fe7ee73a000000000000000000000000000000000000000000000000000000000815260040160405180910390fd5b806020015173ffffffffffffffffffffffffffffffffffffffff166338d52e0f6040518163ffffffff1660e01b8152600401602060405180830381865afa158015611502573d6000803e3d6000fd5b505050506040513d601f19601f82011682018060405250810190611526919061295f565b73ffffffffffffffffffffffffffffffffffffffff16816000015173ffffffffffffffffffffffffffffffffffffffff161461158e576040517f0e442a4a00000000000000000000000000000000000000000000000000000000815260040160405180910390fd5b6004816000015173ffffffffffffffffffffffffffffffffffffffff1663313ce5676040518163ffffffff1660e01b8152600401602060405180830381865afa1580156115df573d6000803e3d6000fd5b505050506040513d601f19601f820116820180604052508101906116039190612aa9565b61160d9190612acc565b61161890600a612c05565b81608001511015611655576040517f49db44f500000000000000000000000000000000000000000000000000000000815260040160405180910390fd5b6004816000015173ffffffffffffffffffffffffffffffffffffffff1663313ce5676040518163ffffffff1660e01b8152600401602060405180830381865afa1580156116a6573d6000803e3d6000fd5b505050506040513d601f19601f820116820180604052508101906116ca9190612aa9565b6116d49190612acc565b6116df90600a612c05565b8160a00151101561171c576040517f3192a44600000000000000000000000000000000000000000000000000000000815260040160405180910390fd5b50565b60208201516040517f07a2d13a000000000000000000000000000000000000000000000000000000008152670de0b6b3a7640000600482015260009173ffffffffffffffffffffffffffffffffffffffff16906307a2d13a90602401602060405180830381865afa158015611798573d6000803e3d6000fd5b505050506040513d601f19601f820116820180604052508101906117bc91906129da565b90505b92915050565b6117cd611f9a565b815173ffffffffffffffffffffffffffffffffffffffff908116825260208084015182169083015260408084015182169083015260608084015190830152608083015160a08084019190915283015160c08084019190915283015160e08084019190915283015161010080840191909152830151610120808401919091528301518116610140808401919091528301518116610160808401919091528301511661018080830191909152909101516101a082015290565b34156118bc576040517f1574f9f300000000000000000000000000000000000000000000000000000000815260040160405180910390fd5b565b600080826020015115611941578573ffffffffffffffffffffffffffffffffffffffff1663c55dae636040518163ffffffff1660e01b8152600401602060405180830381865afa158015611916573d6000803e3d6000fd5b505050506040513d601f19601f8201168201806040525081019061193a919061295f565b90506119b3565b8573ffffffffffffffffffffffffffffffffffffffff16630a4e14936040518163ffffffff1660e01b8152600401602060405180830381865afa15801561198c573d6000803e3d6000fd5b505050506040513d601f19601f820116820180604052508101906119b0919061295f565b90505b6119d573ffffffffffffffffffffffffffffffffffffffff8216863087611b78565b6119f673ffffffffffffffffffffffffffffffffffffffff82168786611c07565b50600095945050505050565b6103e881608001511015611a42576040517f49db44f500000000000000000000000000000000000000000000000000000000815260040160405180910390fd5b8060e00151600003611a80576040517f5428734d00000000000000000000000000000000000000000000000000000000815260040160405180910390fd5b8060e001518160c001511080611aa857508060e001518160c00151611aa59190612c14565b15155b15611adf576040517f4a7fff9e00000000000000000000000000000000000000000000000000000000815260040160405180910390fd5b61018081015151670de0b6b3a76400001080611b0b5750670de0b6b3a764000081610180015160200151115b80611b265750670de0b6b3a764000081610180015160400151115b80611b415750670de0b6b3a764000081610180015160600151115b1561171c576040517f45ee598600000000000000000000000000000000000000000000000000000000815260040160405180910390fd5b60405173ffffffffffffffffffffffffffffffffffffffff8481166024830152838116604483015260648201839052611c019186918216906323b872dd906084015b604051602081830303815290604052915060e01b6020820180517bffffffffffffffffffffffffffffffffffffffffffffffffffffffff8381831617835250505050611cdb565b50505050565b6040805173ffffffffffffffffffffffffffffffffffffffff8416602482015260448082018490528251808303909101815260649091019091526020810180517bffffffffffffffffffffffffffffffffffffffffffffffffffffffff167f095ea7b300000000000000000000000000000000000000000000000000000000179052611c938482611d7b565b611c015760405173ffffffffffffffffffffffffffffffffffffffff848116602483015260006044830152611cd591869182169063095ea7b390606401611bba565b611c0184825b6000611cfd73ffffffffffffffffffffffffffffffffffffffff841683611e38565b90508051600014158015611d22575080806020019051810190611d209190612c4f565b155b15611d76576040517f5274afe700000000000000000000000000000000000000000000000000000000815273ffffffffffffffffffffffffffffffffffffffff841660048201526024015b60405180910390fd5b505050565b60008060008473ffffffffffffffffffffffffffffffffffffffff1684604051611da59190612c6c565b6000604051808303816000865af19150503d8060008114611de2576040519150601f19603f3d011682016040523d82523d6000602084013e611de7565b606091505b5091509150818015611e11575080511580611e11575080806020019051810190611e119190612c4f565b8015610dc957505050505073ffffffffffffffffffffffffffffffffffffffff163b151590565b60606117bc83836000846000808573ffffffffffffffffffffffffffffffffffffffff168486604051611e6b9190612c6c565b60006040518083038185875af1925050503d8060008114611ea8576040519150601f19603f3d011682016040523d82523d6000602084013e611ead565b606091505b5091509150611ebd868383611ec9565b925050505b9392505050565b606082611ede57611ed982611f58565b611ec2565b8151158015611f02575073ffffffffffffffffffffffffffffffffffffffff84163b155b15611f51576040517f9996b31500000000000000000000000000000000000000000000000000000000815273ffffffffffffffffffffffffffffffffffffffff85166004820152602401611d6d565b5080611ec2565b805115611f685780518082602001fd5b6040517f1425ea4200000000000000000000000000000000000000000000000000000000815260040160405180910390fd5b604051806101c00160405280600073ffffffffffffffffffffffffffffffffffffffff168152602001600073ffffffffffffffffffffffffffffffffffffffff168152602001600073ffffffffffffffffffffffffffffffffffffffff16815260200160008019168152602001600081526020016000815260200160008152602001600081526020016000815260200160008152602001600073ffffffffffffffffffffffffffffffffffffffff168152602001600073ffffffffffffffffffffffffffffffffffffffff168152602001600073ffffffffffffffffffffffffffffffffffffffff1681526020016120b36040518060800160405280600081526020016000815260200160008152602001600081525090565b905290565b60005b838110156120d35781810151838201526020016120bb565b50506000910152565b600081518084526120f48160208601602086016120b8565b601f017fffffffffffffffffffffffffffffffffffffffffffffffffffffffffffffffe0169290920160200192915050565b6020815260006117bc60208301846120dc565b7f4e487b7100000000000000000000000000000000000000000000000000000000600052604160045260246000fd5b6040516101a0810167ffffffffffffffff8111828210171561218c5761218c612139565b60405290565b6040516060810167ffffffffffffffff8111828210171561218c5761218c612139565b73ffffffffffffffffffffffffffffffffffffffff8116811461171c57600080fd5b80356121e2816121b5565b919050565b6000608082840312156121f957600080fd5b6040516080810181811067ffffffffffffffff8211171561221c5761221c612139565b8060405250809150823581526020830135602082015260408301356040820152606083013560608201525092915050565b6000610200828403121561226057600080fd5b612268612168565b9050612273826121d7565b8152612281602083016121d7565b6020820152612292604083016121d7565b6040820152606082013560608201526080820135608082015260a082013560a082015260c082013560c082015260e082013560e08201526101008083013581830152506101206122e38184016121d7565b908201526101406122f58382016121d7565b908201526101606123078382016121d7565b9082015261018061231a848483016121e7565b9082015292915050565b600082601f83011261233557600080fd5b813567ffffffffffffffff8082111561235057612350612139565b604051601f83017fffffffffffffffffffffffffffffffffffffffffffffffffffffffffffffffe0908116603f0116810190828211818310171561239657612396612139565b816040528381528660208588010111156123af57600080fd5b836020870160208301376000602085830101528094505050505092915050565b600080600080600061028086880312156123e857600080fd5b853594506123f9876020880161224d565b935061022086013567ffffffffffffffff81111561241657600080fd5b61242288828901612324565b95989497509495610240810135955061026001359392505050565b801515811461171c57600080fd5b600080600080600060a0868803121561246357600080fd5b853594506020860135612475816121b5565b93506040860135925060608601359150608086013567ffffffffffffffff808211156124a057600080fd5b908701906060828a0312156124b457600080fd5b6124bc612192565b82356124c7816121b5565b815260208301356124d78161243d565b60208201526040830135828111156124ee57600080fd5b6124fa8b828601612324565b6040830152508093505050509295509295909350565b600080600080610260858703121561252757600080fd5b84359350612538866020870161224d565b925061022085013567ffffffffffffffff81111561255557600080fd5b61256187828801612324565b94979396509394610240013593505050565b60006020828403121561258557600080fd5b5035919050565b600061012082019050825182526020830151602083015260408301516040830152606083015173ffffffffffffffffffffffffffffffffffffffff8082166060850152806080860151166080850152505060a083015161260460a084018273ffffffffffffffffffffffffffffffffffffffff169052565b5060c083015161262c60c084018273ffffffffffffffffffffffffffffffffffffffff169052565b5060e083015161265460e084018273ffffffffffffffffffffffffffffffffffffffff169052565b506101008381015173ffffffffffffffffffffffffffffffffffffffff8116848301525b505092915050565b815173ffffffffffffffffffffffffffffffffffffffff168152610200810160208301516126c6602084018273ffffffffffffffffffffffffffffffffffffffff169052565b5060408301516126ee604084018273ffffffffffffffffffffffffffffffffffffffff169052565b50606083015160608301526080830151608083015260a083015160a083015260c083015160c083015260e083015160e0830152610100808401518184015250610120808401516127558285018273ffffffffffffffffffffffffffffffffffffffff169052565b50506101408381015173ffffffffffffffffffffffffffffffffffffffff81168483015250506101608381015173ffffffffffffffffffffffffffffffffffffffff81168483015250506101808381015180518483015260208101516101a085015260408101516101c085015260608101516101e0850152612678565b805173ffffffffffffffffffffffffffffffffffffffff1682526020810151612813602084018273ffffffffffffffffffffffffffffffffffffffff169052565b50604081015161283b604084018273ffffffffffffffffffffffffffffffffffffffff169052565b50606081015160608301526080810151608083015260a081015160a083015260c081015160c083015260e081015160e0830152610100808201518184015250610120808201518184015250610140808201516128ae8285018273ffffffffffffffffffffffffffffffffffffffff169052565b50506101608181015173ffffffffffffffffffffffffffffffffffffffff81168483015250506101808181015173ffffffffffffffffffffffffffffffffffffffff81168483015250506101a08181015180518483015260208101516101c085015260408101516101e08501526060810151610200850152611c01565b600061026061293a83876127d2565b8061022084015261294d818401866120dc565b91505082610240830152949350505050565b60006020828403121561297157600080fd5b8151611ec2816121b5565b8381528260208201526060604082015273ffffffffffffffffffffffffffffffffffffffff825116606082015260208201511515608082015260006040830151606060a08401526129d060c08401826120dc565b9695505050505050565b6000602082840312156129ec57600080fd5b5051919050565b7f4e487b7100000000000000000000000000000000000000000000000000000000600052601160045260246000fd5b818103818111156117bf576117bf6129f3565b6000610300612a44838c6127d2565b80610220840152612a578184018b6120dc565b73ffffffffffffffffffffffffffffffffffffffff998a1661024085015297891661026084015250509386166102808501529185166102a08401529093166102c08201526102e0019190915292915050565b600060208284031215612abb57600080fd5b815160ff81168114611ec257600080fd5b60ff82811682821603908111156117bf576117bf6129f3565b600181815b80851115612b3e57817fffffffffffffffffffffffffffffffffffffffffffffffffffffffffffffffff04821115612b2457612b246129f3565b80851615612b3157918102915b93841c9390800290612aea565b509250929050565b600082612b55575060016117bf565b81612b62575060006117bf565b8160018114612b785760028114612b8257612b9e565b60019150506117bf565b60ff841115612b9357612b936129f3565b50506001821b6117bf565b5060208310610133831016604e8410600b8410161715612bc1575081810a6117bf565b612bcb8383612ae5565b807fffffffffffffffffffffffffffffffffffffffffffffffffffffffffffffffff04821115612bfd57612bfd6129f3565b029392505050565b60006117bc60ff841683612b46565b600082612c4a577f4e487b7100000000000000000000000000000000000000000000000000000000600052601260045260246000fd5b500690565b600060208284031215612c6157600080fd5b8151611ec28161243d565b60008251612c7e8184602087016120b8565b919091019291505056fe45524334363236487970657264726976654465706c6f796572436f6f7264696e61746f72a26469706673582212201f2c85556a56efbc558f8833536c1a82aa8917347e9131c60597c51e676fbd7964736f6c63430008140033",
  "linkReferences": {},
  "deployedLinkReferences": {}
}