{
  "_format": "hh-sol-artifact-1",
  "contractName": "MockLido",
  "sourceName": "contracts/test/MockLido.sol",
  "abi": [
    {
      "inputs": [
        {
          "internalType": "uint256",
          "name": "_initialRate",
          "type": "uint256"
        },
        {
          "internalType": "address",
          "name": "_admin",
          "type": "address"
        },
        {
          "internalType": "bool",
          "name": "_isCompetitionMode",
          "type": "bool"
        },
        {
          "internalType": "uint256",
          "name": "_maxMintAmount",
          "type": "uint256"
        }
      ],
      "stateMutability": "nonpayable",
      "type": "constructor"
    },
    {
      "anonymous": false,
      "inputs": [
        {
          "indexed": true,
          "internalType": "address",
          "name": "owner",
          "type": "address"
        },
        {
          "indexed": true,
          "internalType": "address",
          "name": "spender",
          "type": "address"
        },
        {
          "indexed": false,
          "internalType": "uint256",
          "name": "amount",
          "type": "uint256"
        }
      ],
      "name": "Approval",
      "type": "event"
    },
    {
      "anonymous": false,
      "inputs": [
        {
          "indexed": true,
          "internalType": "address",
          "name": "user",
          "type": "address"
        },
        {
          "indexed": true,
          "internalType": "contract Authority",
          "name": "newAuthority",
          "type": "address"
        }
      ],
      "name": "AuthorityUpdated",
      "type": "event"
    },
    {
      "anonymous": false,
      "inputs": [
        {
          "indexed": true,
          "internalType": "address",
          "name": "user",
          "type": "address"
        },
        {
          "indexed": true,
          "internalType": "address",
          "name": "newOwner",
          "type": "address"
        }
      ],
      "name": "OwnershipTransferred",
      "type": "event"
    },
    {
      "anonymous": false,
      "inputs": [
        {
          "indexed": true,
          "internalType": "bytes4",
          "name": "functionSig",
          "type": "bytes4"
        },
        {
          "indexed": false,
          "internalType": "bool",
          "name": "enabled",
          "type": "bool"
        }
      ],
      "name": "PublicCapabilityUpdated",
      "type": "event"
    },
    {
      "anonymous": false,
      "inputs": [
        {
          "indexed": true,
          "internalType": "uint8",
          "name": "role",
          "type": "uint8"
        },
        {
          "indexed": true,
          "internalType": "bytes4",
          "name": "functionSig",
          "type": "bytes4"
        },
        {
          "indexed": false,
          "internalType": "bool",
          "name": "enabled",
          "type": "bool"
        }
      ],
      "name": "RoleCapabilityUpdated",
      "type": "event"
    },
    {
      "anonymous": false,
      "inputs": [
        {
          "indexed": true,
          "internalType": "address",
          "name": "target",
          "type": "address"
        },
        {
          "indexed": true,
          "internalType": "contract Authority",
          "name": "authority",
          "type": "address"
        }
      ],
      "name": "TargetCustomAuthorityUpdated",
      "type": "event"
    },
    {
      "anonymous": false,
      "inputs": [
        {
          "indexed": true,
          "internalType": "address",
          "name": "from",
          "type": "address"
        },
        {
          "indexed": true,
          "internalType": "address",
          "name": "to",
          "type": "address"
        },
        {
          "indexed": false,
          "internalType": "uint256",
          "name": "amount",
          "type": "uint256"
        }
      ],
      "name": "Transfer",
      "type": "event"
    },
    {
      "anonymous": false,
      "inputs": [
        {
          "indexed": true,
          "internalType": "address",
          "name": "user",
          "type": "address"
        },
        {
          "indexed": true,
          "internalType": "uint8",
          "name": "role",
          "type": "uint8"
        },
        {
          "indexed": false,
          "internalType": "bool",
          "name": "enabled",
          "type": "bool"
        }
      ],
      "name": "UserRoleUpdated",
      "type": "event"
    },
    {
      "inputs": [],
      "name": "DOMAIN_SEPARATOR",
      "outputs": [
        {
          "internalType": "bytes32",
          "name": "",
          "type": "bytes32"
        }
      ],
      "stateMutability": "view",
      "type": "function"
    },
    {
      "inputs": [
        {
          "internalType": "address",
          "name": "",
          "type": "address"
        },
        {
          "internalType": "address",
          "name": "",
          "type": "address"
        }
      ],
      "name": "allowance",
      "outputs": [
        {
          "internalType": "uint256",
          "name": "",
          "type": "uint256"
        }
      ],
      "stateMutability": "view",
      "type": "function"
    },
    {
      "inputs": [
        {
          "internalType": "address",
          "name": "spender",
          "type": "address"
        },
        {
          "internalType": "uint256",
          "name": "amount",
          "type": "uint256"
        }
      ],
      "name": "approve",
      "outputs": [
        {
          "internalType": "bool",
          "name": "",
          "type": "bool"
        }
      ],
      "stateMutability": "nonpayable",
      "type": "function"
    },
    {
      "inputs": [],
      "name": "authority",
      "outputs": [
        {
          "internalType": "contract Authority",
          "name": "",
          "type": "address"
        }
      ],
      "stateMutability": "view",
      "type": "function"
    },
    {
      "inputs": [
        {
          "internalType": "address",
          "name": "",
          "type": "address"
        }
      ],
      "name": "balanceOf",
      "outputs": [
        {
          "internalType": "uint256",
          "name": "",
          "type": "uint256"
        }
      ],
      "stateMutability": "view",
      "type": "function"
    },
    {
      "inputs": [
        {
          "internalType": "uint256",
          "name": "amount",
          "type": "uint256"
        }
      ],
      "name": "burn",
      "outputs": [],
      "stateMutability": "nonpayable",
      "type": "function"
    },
    {
      "inputs": [
        {
          "internalType": "address",
          "name": "destination",
          "type": "address"
        },
        {
          "internalType": "uint256",
          "name": "amount",
          "type": "uint256"
        }
      ],
      "name": "burn",
      "outputs": [],
      "stateMutability": "nonpayable",
      "type": "function"
    },
    {
      "inputs": [
        {
          "internalType": "address",
          "name": "user",
          "type": "address"
        },
        {
          "internalType": "address",
          "name": "target",
          "type": "address"
        },
        {
          "internalType": "bytes4",
          "name": "functionSig",
          "type": "bytes4"
        }
      ],
      "name": "canCall",
      "outputs": [
        {
          "internalType": "bool",
          "name": "",
          "type": "bool"
        }
      ],
      "stateMutability": "view",
      "type": "function"
    },
    {
      "inputs": [],
      "name": "decimals",
      "outputs": [
        {
          "internalType": "uint8",
          "name": "",
          "type": "uint8"
        }
      ],
      "stateMutability": "view",
      "type": "function"
    },
    {
      "inputs": [
        {
          "internalType": "uint8",
          "name": "role",
          "type": "uint8"
        },
        {
          "internalType": "bytes4",
          "name": "functionSig",
          "type": "bytes4"
        }
      ],
      "name": "doesRoleHaveCapability",
      "outputs": [
        {
          "internalType": "bool",
          "name": "",
          "type": "bool"
        }
      ],
      "stateMutability": "view",
      "type": "function"
    },
    {
      "inputs": [
        {
          "internalType": "address",
          "name": "user",
          "type": "address"
        },
        {
          "internalType": "uint8",
          "name": "role",
          "type": "uint8"
        }
      ],
      "name": "doesUserHaveRole",
      "outputs": [
        {
          "internalType": "bool",
          "name": "",
          "type": "bool"
        }
      ],
      "stateMutability": "view",
      "type": "function"
    },
    {
      "inputs": [],
      "name": "getBufferedEther",
      "outputs": [
        {
          "internalType": "uint256",
          "name": "",
          "type": "uint256"
        }
      ],
      "stateMutability": "pure",
      "type": "function"
    },
    {
      "inputs": [
        {
          "internalType": "uint256",
          "name": "_sharesAmount",
          "type": "uint256"
        }
      ],
      "name": "getPooledEthByShares",
      "outputs": [
        {
          "internalType": "uint256",
          "name": "",
          "type": "uint256"
        }
      ],
      "stateMutability": "view",
      "type": "function"
    },
    {
      "inputs": [],
      "name": "getRate",
      "outputs": [
        {
          "internalType": "uint256",
          "name": "",
          "type": "uint256"
        }
      ],
      "stateMutability": "view",
      "type": "function"
    },
    {
      "inputs": [
        {
          "internalType": "bytes4",
          "name": "",
          "type": "bytes4"
        }
      ],
      "name": "getRolesWithCapability",
      "outputs": [
        {
          "internalType": "bytes32",
          "name": "",
          "type": "bytes32"
        }
      ],
      "stateMutability": "view",
      "type": "function"
    },
    {
      "inputs": [
        {
          "internalType": "uint256",
          "name": "_ethAmount",
          "type": "uint256"
        }
      ],
      "name": "getSharesByPooledEth",
      "outputs": [
        {
          "internalType": "uint256",
          "name": "",
          "type": "uint256"
        }
      ],
      "stateMutability": "view",
      "type": "function"
    },
    {
      "inputs": [
        {
          "internalType": "address",
          "name": "",
          "type": "address"
        }
      ],
      "name": "getTargetCustomAuthority",
      "outputs": [
        {
          "internalType": "contract Authority",
          "name": "",
          "type": "address"
        }
      ],
      "stateMutability": "view",
      "type": "function"
    },
    {
      "inputs": [],
      "name": "getTotalPooledEther",
      "outputs": [
        {
          "internalType": "uint256",
          "name": "",
          "type": "uint256"
        }
      ],
      "stateMutability": "view",
      "type": "function"
    },
    {
      "inputs": [],
      "name": "getTotalShares",
      "outputs": [
        {
          "internalType": "uint256",
          "name": "",
          "type": "uint256"
        }
      ],
      "stateMutability": "view",
      "type": "function"
    },
    {
      "inputs": [
        {
          "internalType": "address",
          "name": "",
          "type": "address"
        }
      ],
      "name": "getUserRoles",
      "outputs": [
        {
          "internalType": "bytes32",
          "name": "",
          "type": "bytes32"
        }
      ],
      "stateMutability": "view",
      "type": "function"
    },
    {
      "inputs": [
        {
          "internalType": "bytes4",
          "name": "",
          "type": "bytes4"
        }
      ],
      "name": "isCapabilityPublic",
      "outputs": [
        {
          "internalType": "bool",
          "name": "",
          "type": "bool"
        }
      ],
      "stateMutability": "view",
      "type": "function"
    },
    {
      "inputs": [],
      "name": "isCompetitionMode",
      "outputs": [
        {
          "internalType": "bool",
          "name": "",
          "type": "bool"
        }
      ],
      "stateMutability": "view",
      "type": "function"
    },
    {
      "inputs": [],
      "name": "maxMintAmount",
      "outputs": [
        {
          "internalType": "uint256",
          "name": "",
          "type": "uint256"
        }
      ],
      "stateMutability": "view",
      "type": "function"
    },
    {
      "inputs": [
        {
          "internalType": "address",
          "name": "destination",
          "type": "address"
        },
        {
          "internalType": "uint256",
          "name": "amount",
          "type": "uint256"
        }
      ],
      "name": "mint",
      "outputs": [],
      "stateMutability": "nonpayable",
      "type": "function"
    },
    {
      "inputs": [
        {
          "internalType": "uint256",
          "name": "amount",
          "type": "uint256"
        }
      ],
      "name": "mint",
      "outputs": [],
      "stateMutability": "nonpayable",
      "type": "function"
    },
    {
      "inputs": [],
      "name": "name",
      "outputs": [
        {
          "internalType": "string",
          "name": "",
          "type": "string"
        }
      ],
      "stateMutability": "view",
      "type": "function"
    },
    {
      "inputs": [
        {
          "internalType": "address",
          "name": "",
          "type": "address"
        }
      ],
      "name": "nonces",
      "outputs": [
        {
          "internalType": "uint256",
          "name": "",
          "type": "uint256"
        }
      ],
      "stateMutability": "view",
      "type": "function"
    },
    {
      "inputs": [],
      "name": "owner",
      "outputs": [
        {
          "internalType": "address",
          "name": "",
          "type": "address"
        }
      ],
      "stateMutability": "view",
      "type": "function"
    },
    {
      "inputs": [
        {
          "internalType": "address",
          "name": "owner",
          "type": "address"
        },
        {
          "internalType": "address",
          "name": "spender",
          "type": "address"
        },
        {
          "internalType": "uint256",
          "name": "value",
          "type": "uint256"
        },
        {
          "internalType": "uint256",
          "name": "deadline",
          "type": "uint256"
        },
        {
          "internalType": "uint8",
          "name": "v",
          "type": "uint8"
        },
        {
          "internalType": "bytes32",
          "name": "r",
          "type": "bytes32"
        },
        {
          "internalType": "bytes32",
          "name": "s",
          "type": "bytes32"
        }
      ],
      "name": "permit",
      "outputs": [],
      "stateMutability": "nonpayable",
      "type": "function"
    },
    {
      "inputs": [
        {
          "internalType": "contract Authority",
          "name": "newAuthority",
          "type": "address"
        }
      ],
      "name": "setAuthority",
      "outputs": [],
      "stateMutability": "nonpayable",
      "type": "function"
    },
    {
      "inputs": [
        {
          "internalType": "bytes4",
          "name": "functionSig",
          "type": "bytes4"
        },
        {
          "internalType": "bool",
          "name": "enabled",
          "type": "bool"
        }
      ],
      "name": "setPublicCapability",
      "outputs": [],
      "stateMutability": "nonpayable",
      "type": "function"
    },
    {
      "inputs": [
        {
          "internalType": "uint256",
          "name": "_rate_",
          "type": "uint256"
        }
      ],
      "name": "setRate",
      "outputs": [],
      "stateMutability": "nonpayable",
      "type": "function"
    },
    {
      "inputs": [
        {
          "internalType": "uint8",
          "name": "role",
          "type": "uint8"
        },
        {
          "internalType": "bytes4",
          "name": "functionSig",
          "type": "bytes4"
        },
        {
          "internalType": "bool",
          "name": "enabled",
          "type": "bool"
        }
      ],
      "name": "setRoleCapability",
      "outputs": [],
      "stateMutability": "nonpayable",
      "type": "function"
    },
    {
      "inputs": [
        {
          "internalType": "address",
          "name": "target",
          "type": "address"
        },
        {
          "internalType": "contract Authority",
          "name": "customAuthority",
          "type": "address"
        }
      ],
      "name": "setTargetCustomAuthority",
      "outputs": [],
      "stateMutability": "nonpayable",
      "type": "function"
    },
    {
      "inputs": [
        {
          "internalType": "address",
          "name": "user",
          "type": "address"
        },
        {
          "internalType": "uint8",
          "name": "role",
          "type": "uint8"
        },
        {
          "internalType": "bool",
          "name": "enabled",
          "type": "bool"
        }
      ],
      "name": "setUserRole",
      "outputs": [],
      "stateMutability": "nonpayable",
      "type": "function"
    },
    {
      "inputs": [
        {
          "internalType": "address",
          "name": "_account",
          "type": "address"
        }
      ],
      "name": "sharesOf",
      "outputs": [
        {
          "internalType": "uint256",
          "name": "",
          "type": "uint256"
        }
      ],
      "stateMutability": "view",
      "type": "function"
    },
    {
      "inputs": [
        {
          "internalType": "address",
          "name": "",
          "type": "address"
        }
      ],
      "name": "submit",
      "outputs": [
        {
          "internalType": "uint256",
          "name": "",
          "type": "uint256"
        }
      ],
      "stateMutability": "payable",
      "type": "function"
    },
    {
      "inputs": [],
      "name": "symbol",
      "outputs": [
        {
          "internalType": "string",
          "name": "",
          "type": "string"
        }
      ],
      "stateMutability": "view",
      "type": "function"
    },
    {
      "inputs": [],
      "name": "totalSupply",
      "outputs": [
        {
          "internalType": "uint256",
          "name": "",
          "type": "uint256"
        }
      ],
      "stateMutability": "view",
      "type": "function"
    },
    {
      "inputs": [
        {
          "internalType": "address",
          "name": "to",
          "type": "address"
        },
        {
          "internalType": "uint256",
          "name": "amount",
          "type": "uint256"
        }
      ],
      "name": "transfer",
      "outputs": [
        {
          "internalType": "bool",
          "name": "",
          "type": "bool"
        }
      ],
      "stateMutability": "nonpayable",
      "type": "function"
    },
    {
      "inputs": [
        {
          "internalType": "address",
          "name": "from",
          "type": "address"
        },
        {
          "internalType": "address",
          "name": "to",
          "type": "address"
        },
        {
          "internalType": "uint256",
          "name": "amount",
          "type": "uint256"
        }
      ],
      "name": "transferFrom",
      "outputs": [
        {
          "internalType": "bool",
          "name": "",
          "type": "bool"
        }
      ],
      "stateMutability": "nonpayable",
      "type": "function"
    },
    {
      "inputs": [
        {
          "internalType": "address",
          "name": "newOwner",
          "type": "address"
        }
      ],
      "name": "transferOwnership",
      "outputs": [],
      "stateMutability": "nonpayable",
      "type": "function"
    },
    {
      "inputs": [
        {
          "internalType": "address",
          "name": "_recipient",
          "type": "address"
        },
        {
          "internalType": "uint256",
          "name": "_sharesAmount",
          "type": "uint256"
        }
      ],
      "name": "transferShares",
      "outputs": [
        {
          "internalType": "uint256",
          "name": "",
          "type": "uint256"
        }
      ],
      "stateMutability": "nonpayable",
      "type": "function"
    },
    {
      "inputs": [
        {
          "internalType": "address",
          "name": "_sender",
          "type": "address"
        },
        {
          "internalType": "address",
          "name": "_recipient",
          "type": "address"
        },
        {
          "internalType": "uint256",
          "name": "_sharesAmount",
          "type": "uint256"
        }
      ],
      "name": "transferSharesFrom",
      "outputs": [
        {
          "internalType": "uint256",
          "name": "",
          "type": "uint256"
        }
      ],
      "stateMutability": "nonpayable",
      "type": "function"
    }
  ],
  "bytecode": "0x6101206040523480156200001257600080fd5b5060405162002d6438038062002d64833981016040819052620000359162000224565b6040518060400160405280601781526020017f4c6971756964207374616b656420457468657220322e30000000000000000000815250604051806040016040528060058152602001640e6e88aa8960db1b8152506012858585823081818989898260009081620000a6919062000327565b506001620000b5838262000327565b5060ff81166080524660a052620000cb62000188565b60c0525050600680546001600160a01b038086166001600160a01b03199283168117909355600780549186169190921617905560405190915033907f8be0079c531659141344cd1fd0a4f28419497f9722a3daafe3b4186f6b6457e090600090a36040516001600160a01b0382169033907fa3396fd7f6e0a21b50e5089d2da70d5ac0a3bbbd1f617a93f134b7638998019890600090a35050505090151560e05261010052505050600c94909455505042600d5550620004719050565b60007f8b73c3c69bb8fe3d512ecc4cf759cc79239f7b179b0ffacaa9a75d522b39400f6000604051620001bc9190620003f3565b6040805191829003822060208301939093528101919091527fc89efdaa54c0f20c7adf612882df0950f5a951637e0307cdcb4c672f298b8bc660608201524660808201523060a082015260c00160405160208183030381529060405280519060200120905090565b600080600080608085870312156200023b57600080fd5b845160208601519094506001600160a01b03811681146200025b57600080fd5b604086015190935080151581146200027257600080fd5b6060959095015193969295505050565b634e487b7160e01b600052604160045260246000fd5b600181811c90821680620002ad57607f821691505b602082108103620002ce57634e487b7160e01b600052602260045260246000fd5b50919050565b601f8211156200032257600081815260208120601f850160051c81016020861015620002fd5750805b601f850160051c820191505b818110156200031e5782815560010162000309565b5050505b505050565b81516001600160401b0381111562000343576200034362000282565b6200035b8162000354845462000298565b84620002d4565b602080601f8311600181146200039357600084156200037a5750858301515b600019600386901b1c1916600185901b1785556200031e565b600085815260208120601f198616915b82811015620003c457888601518255948401946001909101908401620003a3565b5085821015620003e35787850151600019600388901b60f8161c191681555b5050505050600190811b01905550565b6000808354620004038162000298565b600182811680156200041e5760018114620004345762000465565b60ff198416875282151583028701945062000465565b8760005260208060002060005b858110156200045c5781548a82015290840190820162000441565b50505082870194505b50929695505050505050565b60805160a05160c05160e0516101005161287d620004e76000396000818161041801528181610f9601526117e001526000818161063201528181610da301528181610edc0152818161102e01528181611662015261172601526000610ea101526000610e6c0152600061046c015261287d6000f3fe6080604052600436106102e75760003560e01c80637a28fb8811610184578063b7009613116100d6578063dd62ed3e1161008a578063ed0d0efb11610064578063ed0d0efb14610944578063f2fde38b14610971578063f5eb42dc1461099157600080fd5b8063dd62ed3e14610860578063e688747b14610898578063ea7ca276146108f357600080fd5b8063c53a3985116100bb578063c53a3985146107e8578063d5002f2e1461082b578063d505accf1461084057600080fd5b8063b70096131461079b578063bf7e214f146107bb57600080fd5b80638fcb4e5b11610138578063a0712d6811610112578063a0712d6814610748578063a1903eab14610768578063a9059cbb1461077b57600080fd5b80638fcb4e5b146106f357806395d89b41146107135780639dc29fac1461072857600080fd5b80637a9e5e4b116101695780637a9e5e4b146106545780637ecebe00146106745780638da5cb5b146106a157600080fd5b80637a28fb88146106005780637a8c63b51461062057600080fd5b80633644e5151161023d5780634b5159da116101f15780636d780459116101cb5780636d7804591461059357806370a08231146105b3578063728b952b146105e057600080fd5b80634b5159da1461053e578063679aefce1461055e57806367aff4841461057357600080fd5b806340c10f191161022257806340c10f19146104ea57806342966c681461050a57806347b714e01461052a57600080fd5b80633644e515146104c057806337cfdaca146104d557600080fd5b806318160ddd1161029f57806323b872dd1161027957806323b872dd1461043a578063313ce5671461045a57806334fcf437146104a057600080fd5b806318160ddd146103d057806319208451146103e6578063239c70ae1461040657600080fd5b8063095ea7b3116102d0578063095ea7b31461034e5780630bade8a41461037e5780630ea9b75b146103ae57600080fd5b806306a36aee146102ec57806306fdde031461032c575b600080fd5b3480156102f857600080fd5b50610319610307366004612340565b60096020526000908152604090205481565b6040519081526020015b60405180910390f35b34801561033857600080fd5b506103416109b1565b604051610323919061235d565b34801561035a57600080fd5b5061036e6103693660046123c9565b610a3f565b6040519015158152602001610323565b34801561038a57600080fd5b5061036e61039936600461242a565b600a6020526000908152604090205460ff1681565b3480156103ba57600080fd5b506103ce6103c9366004612464565b610ab9565b005b3480156103dc57600080fd5b5061031960025481565b3480156103f257600080fd5b506103196104013660046124ab565b610c3d565b34801561041257600080fd5b506103197f000000000000000000000000000000000000000000000000000000000000000081565b34801561044657600080fd5b5061036e6104553660046124c4565b610c5b565b34801561046657600080fd5b5061048e7f000000000000000000000000000000000000000000000000000000000000000081565b60405160ff9091168152602001610323565b3480156104ac57600080fd5b506103ce6104bb3660046124ab565b610da1565b3480156104cc57600080fd5b50610319610e68565b3480156104e157600080fd5b50610319610ec3565b3480156104f657600080fd5b506103ce6105053660046123c9565b610eda565b34801561051657600080fd5b506103ce6105253660046124ab565b61102c565b34801561053657600080fd5b506000610319565b34801561054a57600080fd5b506103ce610559366004612505565b6110f3565b34801561056a57600080fd5b50600c54610319565b34801561057f57600080fd5b506103ce61058e36600461253c565b61121d565b34801561059f57600080fd5b506103196105ae3660046124c4565b61136e565b3480156105bf57600080fd5b506103196105ce366004612340565b60036020526000908152604090205481565b3480156105ec57600080fd5b506103ce6105fb36600461256a565b6113a6565b34801561060c57600080fd5b5061031961061b3660046124ab565b6114b6565b34801561062c57600080fd5b5061036e7f000000000000000000000000000000000000000000000000000000000000000081565b34801561066057600080fd5b506103ce61066f366004612340565b6114cb565b34801561068057600080fd5b5061031961068f366004612340565b60056020526000908152604090205481565b3480156106ad57600080fd5b506006546106ce9073ffffffffffffffffffffffffffffffffffffffff1681565b60405173ffffffffffffffffffffffffffffffffffffffff9091168152602001610323565b3480156106ff57600080fd5b5061031961070e3660046123c9565b611628565b34801561071f57600080fd5b50610341611653565b34801561073457600080fd5b506103ce6107433660046123c9565b611660565b34801561075457600080fd5b506103ce6107633660046124ab565b611724565b610319610776366004612340565b611872565b34801561078757600080fd5b5061036e6107963660046123c9565b6118fe565b3480156107a757600080fd5b5061036e6107b6366004612598565b611983565b3480156107c757600080fd5b506007546106ce9073ffffffffffffffffffffffffffffffffffffffff1681565b3480156107f457600080fd5b506106ce610803366004612340565b60086020526000908152604090205473ffffffffffffffffffffffffffffffffffffffff1681565b34801561083757600080fd5b50600f54610319565b34801561084c57600080fd5b506103ce61085b3660046125df565b611b1a565b34801561086c57600080fd5b5061031961087b36600461256a565b600460209081526000928352604080842090915290825290205481565b3480156108a457600080fd5b5061036e6108b336600461264d565b7fffffffff00000000000000000000000000000000000000000000000000000000166000908152600b602052604090205460ff919091161c600116151590565b3480156108ff57600080fd5b5061036e61090e366004612680565b73ffffffffffffffffffffffffffffffffffffffff91909116600090815260096020526040902054600160ff9092161c16151590565b34801561095057600080fd5b5061031961095f36600461242a565b600b6020526000908152604090205481565b34801561097d57600080fd5b506103ce61098c366004612340565b611e39565b34801561099d57600080fd5b506103196109ac366004612340565b611f3e565b600080546109be906126ac565b80601f01602080910402602001604051908101604052809291908181526020018280546109ea906126ac565b8015610a375780601f10610a0c57610100808354040283529160200191610a37565b820191906000526020600020905b815481529060010190602001808311610a1a57829003601f168201915b505050505081565b33600081815260046020908152604080832073ffffffffffffffffffffffffffffffffffffffff8716808552925280832085905551919290917f8c5be1e5ebec7d5bd14f71427d1e84f3dd0314c0f7b2291e5b200ac8c7c3b92590610aa79086815260200190565b60405180910390a35060015b92915050565b610ae7336000357fffffffff0000000000000000000000000000000000000000000000000000000016611f80565b610b52576040517f08c379a000000000000000000000000000000000000000000000000000000000815260206004820152600c60248201527f554e415554484f52495a4544000000000000000000000000000000000000000060448201526064015b60405180910390fd5b8015610b9a577fffffffff0000000000000000000000000000000000000000000000000000000082166000908152600b602052604090208054600160ff86161b179055610bd9565b7fffffffff0000000000000000000000000000000000000000000000000000000082166000908152600b602052604090208054600160ff86161b191690555b817bffffffffffffffffffffffffffffffffffffffffffffffffffffffff19168360ff167fbfe16b2c35ce23dfd1ab0e7b5d086a10060c9b52d1574e1680c881b3b3a2b15183604051610c30911515815260200190565b60405180910390a3505050565b6000610ab3610c4b600f5490565b610c53610ec3565b849190612091565b73ffffffffffffffffffffffffffffffffffffffff831660009081526004602090815260408083203384529091528120547fffffffffffffffffffffffffffffffffffffffffffffffffffffffffffffffff8114610cef57610cbd838261272e565b73ffffffffffffffffffffffffffffffffffffffff861660009081526004602090815260408083203384529091529020555b73ffffffffffffffffffffffffffffffffffffffff851660009081526003602052604081208054859290610d2490849061272e565b909155505073ffffffffffffffffffffffffffffffffffffffff808516600081815260036020526040908190208054870190555190918716907fddf252ad1be2c89b69c2b068fc378daa952ba7f163c4a11628f55a4df523b3ef90610d8c9087815260200190565b60405180910390a360019150505b9392505050565b7f000000000000000000000000000000000000000000000000000000000000000015610e5b57610df5336000357fffffffff0000000000000000000000000000000000000000000000000000000016611f80565b610e5b576040517f08c379a000000000000000000000000000000000000000000000000000000000815260206004820152601d60248201527f45524332304d696e7461626c653a206e6f7420617574686f72697a65640000006044820152606401610b49565b610e636120cd565b600c55565b60007f00000000000000000000000000000000000000000000000000000000000000004614610e9e57610e996120fe565b905090565b507f000000000000000000000000000000000000000000000000000000000000000090565b6000610ecd612198565b600e54610e999190612741565b7f000000000000000000000000000000000000000000000000000000000000000015610f9457610f2e336000357fffffffff0000000000000000000000000000000000000000000000000000000016611f80565b610f94576040517f08c379a000000000000000000000000000000000000000000000000000000000815260206004820152601d60248201527f45524332304d696e7461626c653a206e6f7420617574686f72697a65640000006044820152606401610b49565b7f000000000000000000000000000000000000000000000000000000000000000081111561101e576040517f08c379a000000000000000000000000000000000000000000000000000000000815260206004820181905260248201527f4d6f636b455243343632363a20496e76616c6964206d696e7420616d6f756e746044820152606401610b49565b61102882826121ed565b5050565b7f0000000000000000000000000000000000000000000000000000000000000000156110e657611080336000357fffffffff0000000000000000000000000000000000000000000000000000000016611f80565b6110e6576040517f08c379a000000000000000000000000000000000000000000000000000000000815260206004820152601d60248201527f45524332304d696e7461626c653a206e6f7420617574686f72697a65640000006044820152606401610b49565b6110f03382612266565b50565b611121336000357fffffffff0000000000000000000000000000000000000000000000000000000016611f80565b611187576040517f08c379a000000000000000000000000000000000000000000000000000000000815260206004820152600c60248201527f554e415554484f52495a454400000000000000000000000000000000000000006044820152606401610b49565b7fffffffff0000000000000000000000000000000000000000000000000000000082166000818152600a602090815260409182902080547fffffffffffffffffffffffffffffffffffffffffffffffffffffffffffffff001685151590811790915591519182527f36d28126bef21a4f3765d7fcb7c45cead463ae4c41094ef3b771ede598544103910160405180910390a25050565b61124b336000357fffffffff0000000000000000000000000000000000000000000000000000000016611f80565b6112b1576040517f08c379a000000000000000000000000000000000000000000000000000000000815260206004820152600c60248201527f554e415554484f52495a454400000000000000000000000000000000000000006044820152606401610b49565b80156112ed5773ffffffffffffffffffffffffffffffffffffffff831660009081526009602052604090208054600160ff85161b179055611320565b73ffffffffffffffffffffffffffffffffffffffff831660009081526009602052604090208054600160ff85161b191690555b8160ff168373ffffffffffffffffffffffffffffffffffffffff167f4c9bdd0c8e073eb5eda2250b18d8e5121ff27b62064fbeeeed4869bb99bc5bf283604051610c30911515815260200190565b60006113786120cd565b6000611390611385610ec3565b600f54859190612091565b905061139d858583610c5b565b50949350505050565b6113d4336000357fffffffff0000000000000000000000000000000000000000000000000000000016611f80565b61143a576040517f08c379a000000000000000000000000000000000000000000000000000000000815260206004820152600c60248201527f554e415554484f52495a454400000000000000000000000000000000000000006044820152606401610b49565b73ffffffffffffffffffffffffffffffffffffffff82811660008181526008602052604080822080547fffffffffffffffffffffffff0000000000000000000000000000000000000000169486169485179055517fa4908e11a5f895b13d51526c331ac93cdd30e59772361c5d07874eb36bff20659190a35050565b6000610ab36114c3610ec3565b600f54610c53565b60065473ffffffffffffffffffffffffffffffffffffffff163314806115ae57506007546040517fb70096130000000000000000000000000000000000000000000000000000000081523360048201523060248201526000357fffffffff0000000000000000000000000000000000000000000000000000000016604482015273ffffffffffffffffffffffffffffffffffffffff9091169063b700961390606401602060405180830381865afa15801561158a573d6000803e3d6000fd5b505050506040513d601f19601f820116820180604052508101906115ae9190612754565b6115b757600080fd5b600780547fffffffffffffffffffffffff00000000000000000000000000000000000000001673ffffffffffffffffffffffffffffffffffffffff831690811790915560405133907fa3396fd7f6e0a21b50e5089d2da70d5ac0a3bbbd1f617a93f134b7638998019890600090a350565b60006116326120cd565b600061163f611385610ec3565b905061164b84826118fe565b509392505050565b600180546109be906126ac565b7f00000000000000000000000000000000000000000000000000000000000000001561171a576116b4336000357fffffffff0000000000000000000000000000000000000000000000000000000016611f80565b61171a576040517f08c379a000000000000000000000000000000000000000000000000000000000815260206004820152601d60248201527f45524332304d696e7461626c653a206e6f7420617574686f72697a65640000006044820152606401610b49565b6110288282612266565b7f0000000000000000000000000000000000000000000000000000000000000000156117de57611778336000357fffffffff0000000000000000000000000000000000000000000000000000000016611f80565b6117de576040517f08c379a000000000000000000000000000000000000000000000000000000000815260206004820152601d60248201527f45524332304d696e7461626c653a206e6f7420617574686f72697a65640000006044820152606401610b49565b7f0000000000000000000000000000000000000000000000000000000000000000811115611868576040517f08c379a000000000000000000000000000000000000000000000000000000000815260206004820181905260248201527f4d6f636b455243343632363a20496e76616c6964206d696e7420616d6f756e746044820152606401610b49565b6110f033826121ed565b600061187c6120cd565b600f546000036118a35734600f819055600e81905561189c9033906121ed565b5034919050565b60006118c16118b1600f5490565b6118b9610ec3565b349190612091565b905034600e60008282546118d59190612741565b9250508190555080600f60008282546118ee9190612741565b90915550610ab3905033346121ed565b3360009081526003602052604081208054839190839061191f90849061272e565b909155505073ffffffffffffffffffffffffffffffffffffffff8316600081815260036020526040908190208054850190555133907fddf252ad1be2c89b69c2b068fc378daa952ba7f163c4a11628f55a4df523b3ef90610aa79086815260200190565b73ffffffffffffffffffffffffffffffffffffffff8083166000908152600860205260408120549091168015611a7b576040517fb700961300000000000000000000000000000000000000000000000000000000815273ffffffffffffffffffffffffffffffffffffffff868116600483015285811660248301527fffffffff000000000000000000000000000000000000000000000000000000008516604483015282169063b700961390606401602060405180830381865afa158015611a4f573d6000803e3d6000fd5b505050506040513d601f19601f82011682018060405250810190611a739190612754565b915050610d9a565b7fffffffff0000000000000000000000000000000000000000000000000000000083166000908152600a602052604090205460ff1680611b1157507fffffffff0000000000000000000000000000000000000000000000000000000083166000908152600b602090815260408083205473ffffffffffffffffffffffffffffffffffffffff891684526009909252909120541615155b95945050505050565b42841015611b84576040517f08c379a000000000000000000000000000000000000000000000000000000000815260206004820152601760248201527f5045524d49545f444541444c494e455f455850495245440000000000000000006044820152606401610b49565b60006001611b90610e68565b73ffffffffffffffffffffffffffffffffffffffff8a811660008181526005602090815260409182902080546001810190915582517f6e71edae12b1b97f4d1f60370fef10105fa2faae0126114a169c64845d6126c98184015280840194909452938d166060840152608083018c905260a083019390935260c08083018b90528151808403909101815260e0830190915280519201919091207f190100000000000000000000000000000000000000000000000000000000000061010083015261010282019290925261012281019190915261014201604080517fffffffffffffffffffffffffffffffffffffffffffffffffffffffffffffffe08184030181528282528051602091820120600084529083018083525260ff871690820152606081018590526080810184905260a0016020604051602081039080840390855afa158015611ce2573d6000803e3d6000fd5b50506040517fffffffffffffffffffffffffffffffffffffffffffffffffffffffffffffffe0015191505073ffffffffffffffffffffffffffffffffffffffff811615801590611d5d57508773ffffffffffffffffffffffffffffffffffffffff168173ffffffffffffffffffffffffffffffffffffffff16145b611dc3576040517f08c379a000000000000000000000000000000000000000000000000000000000815260206004820152600e60248201527f494e56414c49445f5349474e45520000000000000000000000000000000000006044820152606401610b49565b73ffffffffffffffffffffffffffffffffffffffff90811660009081526004602090815260408083208a8516808552908352928190208990555188815291928a16917f8c5be1e5ebec7d5bd14f71427d1e84f3dd0314c0f7b2291e5b200ac8c7c3b925910160405180910390a350505050505050565b611e67336000357fffffffff0000000000000000000000000000000000000000000000000000000016611f80565b611ecd576040517f08c379a000000000000000000000000000000000000000000000000000000000815260206004820152600c60248201527f554e415554484f52495a454400000000000000000000000000000000000000006044820152606401610b49565b600680547fffffffffffffffffffffffff00000000000000000000000000000000000000001673ffffffffffffffffffffffffffffffffffffffff831690811790915560405133907f8be0079c531659141344cd1fd0a4f28419497f9722a3daafe3b4186f6b6457e090600090a350565b73ffffffffffffffffffffffffffffffffffffffff8116600090815260036020526040812054610d9a611f70600f5490565b611f78610ec3565b839190612091565b60075460009073ffffffffffffffffffffffffffffffffffffffff16801580159061206457506040517fb700961300000000000000000000000000000000000000000000000000000000815273ffffffffffffffffffffffffffffffffffffffff85811660048301523060248301527fffffffff000000000000000000000000000000000000000000000000000000008516604483015282169063b700961390606401602060405180830381865afa158015612040573d6000803e3d6000fd5b505050506040513d601f19601f820116820180604052508101906120649190612754565b80612089575060065473ffffffffffffffffffffffffffffffffffffffff8581169116145b949350505050565b6000827fffffffffffffffffffffffffffffffffffffffffffffffffffffffffffffffff04841183021582026120c657600080fd5b5091020490565b60006120d7612198565b905080156120f75780600e60008282546120f19190612741565b90915550505b5042600d55565b60007f8b73c3c69bb8fe3d512ecc4cf759cc79239f7b179b0ffacaa9a75d522b39400f60006040516121309190612771565b6040805191829003822060208301939093528101919091527fc89efdaa54c0f20c7adf612882df0950f5a951637e0307cdcb4c672f298b8bc660608201524660808201523060a082015260c00160405160208183030381529060405280519060200120905090565b6000600c546000036121aa5750600090565b60006121c86301e13380600d54426121c2919061272e565b906122f4565b90506000610d9a6121e483600c5461230990919063ffffffff16565b600e5490612309565b80600260008282546121ff9190612741565b909155505073ffffffffffffffffffffffffffffffffffffffff82166000818152600360209081526040808320805486019055518481527fddf252ad1be2c89b69c2b068fc378daa952ba7f163c4a11628f55a4df523b3ef91015b60405180910390a35050565b73ffffffffffffffffffffffffffffffffffffffff82166000908152600360205260408120805483929061229b90849061272e565b909155505060028054829003905560405181815260009073ffffffffffffffffffffffffffffffffffffffff8416907fddf252ad1be2c89b69c2b068fc378daa952ba7f163c4a11628f55a4df523b3ef9060200161225a565b6000610d9a83670de0b6b3a764000084612091565b6000610d9a8383670de0b6b3a7640000612091565b73ffffffffffffffffffffffffffffffffffffffff811681146110f057600080fd5b60006020828403121561235257600080fd5b8135610d9a8161231e565b600060208083528351808285015260005b8181101561238a5785810183015185820160400152820161236e565b5060006040828601015260407fffffffffffffffffffffffffffffffffffffffffffffffffffffffffffffffe0601f8301168501019250505092915050565b600080604083850312156123dc57600080fd5b82356123e78161231e565b946020939093013593505050565b80357fffffffff000000000000000000000000000000000000000000000000000000008116811461242557600080fd5b919050565b60006020828403121561243c57600080fd5b610d9a826123f5565b803560ff8116811461242557600080fd5b80151581146110f057600080fd5b60008060006060848603121561247957600080fd5b61248284612445565b9250612490602085016123f5565b915060408401356124a081612456565b809150509250925092565b6000602082840312156124bd57600080fd5b5035919050565b6000806000606084860312156124d957600080fd5b83356124e48161231e565b925060208401356124f48161231e565b929592945050506040919091013590565b6000806040838503121561251857600080fd5b612521836123f5565b9150602083013561253181612456565b809150509250929050565b60008060006060848603121561255157600080fd5b833561255c8161231e565b925061249060208501612445565b6000806040838503121561257d57600080fd5b82356125888161231e565b915060208301356125318161231e565b6000806000606084860312156125ad57600080fd5b83356125b88161231e565b925060208401356125c88161231e565b91506125d6604085016123f5565b90509250925092565b600080600080600080600060e0888a0312156125fa57600080fd5b87356126058161231e565b965060208801356126158161231e565b9550604088013594506060880135935061263160808901612445565b925060a0880135915060c0880135905092959891949750929550565b6000806040838503121561266057600080fd5b61266983612445565b9150612677602084016123f5565b90509250929050565b6000806040838503121561269357600080fd5b823561269e8161231e565b915061267760208401612445565b600181811c908216806126c057607f821691505b6020821081036126f9577f4e487b7100000000000000000000000000000000000000000000000000000000600052602260045260246000fd5b50919050565b7f4e487b7100000000000000000000000000000000000000000000000000000000600052601160045260246000fd5b81810381811115610ab357610ab36126ff565b80820180821115610ab357610ab36126ff565b60006020828403121561276657600080fd5b8151610d9a81612456565b600080835481600182811c91508083168061278d57607f831692505b602080841082036127c5577f4e487b710000000000000000000000000000000000000000000000000000000086526022600452602486fd5b8180156127d9576001811461280c57612839565b7fffffffffffffffffffffffffffffffffffffffffffffffffffffffffffffff0086168952841515850289019650612839565b60008a81526020902060005b868110156128315781548b820152908501908301612818565b505084890196505b50949897505050505050505056fea264697066735822122039b1cfee934544c2c52653086f9ac9192d84da2cc6a0980585c9f9622f3c23c164736f6c63430008140033",
  "linkReferences": {},
  "deployedLinkReferences": {}
}