{
  "_format": "hh-sol-artifact-1",
  "contractName": "StETHTarget4",
  "sourceName": "contracts/src/instances/steth/StETHTarget4.sol",
  "abi": [
    {
      "inputs": [
        {
          "components": [
            {
              "internalType": "contract IERC20",
              "name": "baseToken",
              "type": "address"
            },
            {
              "internalType": "contract IERC20",
              "name": "vaultSharesToken",
              "type": "address"
            },
            {
              "internalType": "address",
              "name": "linkerFactory",
              "type": "address"
            },
            {
              "internalType": "bytes32",
              "name": "linkerCodeHash",
              "type": "bytes32"
            },
            {
              "internalType": "uint256",
              "name": "initialVaultSharePrice",
              "type": "uint256"
            },
            {
              "internalType": "uint256",
              "name": "minimumShareReserves",
              "type": "uint256"
            },
            {
              "internalType": "uint256",
              "name": "minimumTransactionAmount",
              "type": "uint256"
            },
            {
              "internalType": "uint256",
              "name": "positionDuration",
              "type": "uint256"
            },
            {
              "internalType": "uint256",
              "name": "checkpointDuration",
              "type": "uint256"
            },
            {
              "internalType": "uint256",
              "name": "timeStretch",
              "type": "uint256"
            },
            {
              "internalType": "address",
              "name": "governance",
              "type": "address"
            },
            {
              "internalType": "address",
              "name": "feeCollector",
              "type": "address"
            },
            {
              "internalType": "address",
              "name": "sweepCollector",
              "type": "address"
            },
            {
              "components": [
                {
                  "internalType": "uint256",
                  "name": "curve",
                  "type": "uint256"
                },
                {
                  "internalType": "uint256",
                  "name": "flat",
                  "type": "uint256"
                },
                {
                  "internalType": "uint256",
                  "name": "governanceLP",
                  "type": "uint256"
                },
                {
                  "internalType": "uint256",
                  "name": "governanceZombie",
                  "type": "uint256"
                }
              ],
              "internalType": "struct IHyperdrive.Fees",
              "name": "fees",
              "type": "tuple"
            }
          ],
          "internalType": "struct IHyperdrive.PoolConfig",
          "name": "_config",
          "type": "tuple"
        }
      ],
      "stateMutability": "nonpayable",
      "type": "constructor"
    },
    {
      "inputs": [],
      "name": "DecreasedPresentValueWhenAddingLiquidity",
      "type": "error"
    },
    {
      "inputs": [],
      "name": "DistributeExcessIdleFailed",
      "type": "error"
    },
    {
      "inputs": [],
      "name": "ExpInvalidExponent",
      "type": "error"
    },
    {
      "inputs": [],
      "name": "InsufficientLiquidity",
      "type": "error"
    },
    {
      "inputs": [],
      "name": "InvalidApr",
      "type": "error"
    },
    {
      "inputs": [],
      "name": "InvalidPresentValue",
      "type": "error"
    },
    {
      "inputs": [],
      "name": "InvalidTimestamp",
      "type": "error"
    },
    {
      "inputs": [],
      "name": "LnInvalidInput",
      "type": "error"
    },
    {
      "inputs": [],
      "name": "MinimumSharePrice",
      "type": "error"
    },
    {
      "inputs": [],
      "name": "MinimumTransactionAmount",
      "type": "error"
    },
    {
      "inputs": [],
      "name": "OutputLimit",
      "type": "error"
    },
    {
      "inputs": [],
      "name": "PoolIsPaused",
      "type": "error"
    },
    {
      "inputs": [],
      "name": "ReentrancyGuardReentrantCall",
      "type": "error"
    },
    {
      "inputs": [],
      "name": "RestrictedZeroAddress",
      "type": "error"
    },
    {
      "inputs": [],
      "name": "TransferFailed",
      "type": "error"
    },
    {
      "inputs": [],
      "name": "UnsafeCastToInt128",
      "type": "error"
    },
    {
      "inputs": [],
      "name": "UnsafeCastToInt256",
      "type": "error"
    },
    {
      "inputs": [],
      "name": "UnsafeCastToUint112",
      "type": "error"
    },
    {
      "inputs": [],
      "name": "UnsafeCastToUint128",
      "type": "error"
    },
    {
      "inputs": [],
      "name": "UpdateLiquidityFailed",
      "type": "error"
    },
    {
      "anonymous": false,
      "inputs": [
        {
          "indexed": true,
          "internalType": "address",
          "name": "provider",
          "type": "address"
        },
        {
          "indexed": false,
          "internalType": "uint256",
          "name": "lpAmount",
          "type": "uint256"
        },
        {
          "indexed": false,
          "internalType": "uint256",
          "name": "baseAmount",
          "type": "uint256"
        },
        {
          "indexed": false,
          "internalType": "uint256",
          "name": "vaultShareAmount",
          "type": "uint256"
        },
        {
          "indexed": false,
          "internalType": "bool",
          "name": "asBase",
          "type": "bool"
        },
        {
          "indexed": false,
          "internalType": "uint256",
          "name": "lpSharePrice",
          "type": "uint256"
        }
      ],
      "name": "AddLiquidity",
      "type": "event"
    },
    {
      "anonymous": false,
      "inputs": [
        {
          "indexed": true,
          "internalType": "address",
          "name": "owner",
          "type": "address"
        },
        {
          "indexed": true,
          "internalType": "address",
          "name": "spender",
          "type": "address"
        },
        {
          "indexed": false,
          "internalType": "uint256",
          "name": "value",
          "type": "uint256"
        }
      ],
      "name": "Approval",
      "type": "event"
    },
    {
      "anonymous": false,
      "inputs": [
        {
          "indexed": true,
          "internalType": "address",
          "name": "account",
          "type": "address"
        },
        {
          "indexed": true,
          "internalType": "address",
          "name": "operator",
          "type": "address"
        },
        {
          "indexed": false,
          "internalType": "bool",
          "name": "approved",
          "type": "bool"
        }
      ],
      "name": "ApprovalForAll",
      "type": "event"
    },
    {
      "anonymous": false,
      "inputs": [
        {
          "indexed": true,
          "internalType": "address",
          "name": "trader",
          "type": "address"
        },
        {
          "indexed": true,
          "internalType": "address",
          "name": "destination",
          "type": "address"
        },
        {
          "indexed": true,
          "internalType": "uint256",
          "name": "assetId",
          "type": "uint256"
        },
        {
          "indexed": false,
          "internalType": "uint256",
          "name": "maturityTime",
          "type": "uint256"
        },
        {
          "indexed": false,
          "internalType": "uint256",
          "name": "baseAmount",
          "type": "uint256"
        },
        {
          "indexed": false,
          "internalType": "uint256",
          "name": "vaultShareAmount",
          "type": "uint256"
        },
        {
          "indexed": false,
          "internalType": "bool",
          "name": "asBase",
          "type": "bool"
        },
        {
          "indexed": false,
          "internalType": "uint256",
          "name": "bondAmount",
          "type": "uint256"
        }
      ],
      "name": "CloseLong",
      "type": "event"
    },
    {
      "anonymous": false,
      "inputs": [
        {
          "indexed": true,
          "internalType": "address",
          "name": "trader",
          "type": "address"
        },
        {
          "indexed": true,
          "internalType": "address",
          "name": "destination",
          "type": "address"
        },
        {
          "indexed": true,
          "internalType": "uint256",
          "name": "assetId",
          "type": "uint256"
        },
        {
          "indexed": false,
          "internalType": "uint256",
          "name": "maturityTime",
          "type": "uint256"
        },
        {
          "indexed": false,
          "internalType": "uint256",
          "name": "baseAmount",
          "type": "uint256"
        },
        {
          "indexed": false,
          "internalType": "uint256",
          "name": "vaultShareAmount",
          "type": "uint256"
        },
        {
          "indexed": false,
          "internalType": "bool",
          "name": "asBase",
          "type": "bool"
        },
        {
          "indexed": false,
          "internalType": "uint256",
          "name": "basePayment",
          "type": "uint256"
        },
        {
          "indexed": false,
          "internalType": "uint256",
          "name": "bondAmount",
          "type": "uint256"
        }
      ],
      "name": "CloseShort",
      "type": "event"
    },
    {
      "anonymous": false,
      "inputs": [
        {
          "indexed": true,
          "internalType": "address",
          "name": "collector",
          "type": "address"
        },
        {
          "indexed": false,
          "internalType": "uint256",
          "name": "fees",
          "type": "uint256"
        }
      ],
      "name": "CollectGovernanceFee",
      "type": "event"
    },
    {
      "anonymous": false,
      "inputs": [
        {
          "indexed": true,
          "internalType": "uint256",
          "name": "checkpointTime",
          "type": "uint256"
        },
        {
          "indexed": false,
          "internalType": "uint256",
          "name": "checkpointVaultSharePrice",
          "type": "uint256"
        },
        {
          "indexed": false,
          "internalType": "uint256",
          "name": "vaultSharePrice",
          "type": "uint256"
        },
        {
          "indexed": false,
          "internalType": "uint256",
          "name": "maturedShorts",
          "type": "uint256"
        },
        {
          "indexed": false,
          "internalType": "uint256",
          "name": "maturedLongs",
          "type": "uint256"
        },
        {
          "indexed": false,
          "internalType": "uint256",
          "name": "lpSharePrice",
          "type": "uint256"
        }
      ],
      "name": "CreateCheckpoint",
      "type": "event"
    },
    {
      "anonymous": false,
      "inputs": [
        {
          "indexed": true,
          "internalType": "address",
          "name": "newFeeCollector",
          "type": "address"
        }
      ],
      "name": "FeeCollectorUpdated",
      "type": "event"
    },
    {
      "anonymous": false,
      "inputs": [
        {
          "indexed": true,
          "internalType": "address",
          "name": "newGovernance",
          "type": "address"
        }
      ],
      "name": "GovernanceUpdated",
      "type": "event"
    },
    {
      "anonymous": false,
      "inputs": [
        {
          "indexed": true,
          "internalType": "address",
          "name": "provider",
          "type": "address"
        },
        {
          "indexed": false,
          "internalType": "uint256",
          "name": "lpAmount",
          "type": "uint256"
        },
        {
          "indexed": false,
          "internalType": "uint256",
          "name": "baseAmount",
          "type": "uint256"
        },
        {
          "indexed": false,
          "internalType": "uint256",
          "name": "vaultShareAmount",
          "type": "uint256"
        },
        {
          "indexed": false,
          "internalType": "bool",
          "name": "asBase",
          "type": "bool"
        },
        {
          "indexed": false,
          "internalType": "uint256",
          "name": "apr",
          "type": "uint256"
        }
      ],
      "name": "Initialize",
      "type": "event"
    },
    {
      "anonymous": false,
      "inputs": [
        {
          "indexed": true,
          "internalType": "address",
          "name": "trader",
          "type": "address"
        },
        {
          "indexed": true,
          "internalType": "uint256",
          "name": "assetId",
          "type": "uint256"
        },
        {
          "indexed": false,
          "internalType": "uint256",
          "name": "maturityTime",
          "type": "uint256"
        },
        {
          "indexed": false,
          "internalType": "uint256",
          "name": "baseAmount",
          "type": "uint256"
        },
        {
          "indexed": false,
          "internalType": "uint256",
          "name": "vaultShareAmount",
          "type": "uint256"
        },
        {
          "indexed": false,
          "internalType": "bool",
          "name": "asBase",
          "type": "bool"
        },
        {
          "indexed": false,
          "internalType": "uint256",
          "name": "bondAmount",
          "type": "uint256"
        }
      ],
      "name": "OpenLong",
      "type": "event"
    },
    {
      "anonymous": false,
      "inputs": [
        {
          "indexed": true,
          "internalType": "address",
          "name": "trader",
          "type": "address"
        },
        {
          "indexed": true,
          "internalType": "uint256",
          "name": "assetId",
          "type": "uint256"
        },
        {
          "indexed": false,
          "internalType": "uint256",
          "name": "maturityTime",
          "type": "uint256"
        },
        {
          "indexed": false,
          "internalType": "uint256",
          "name": "baseAmount",
          "type": "uint256"
        },
        {
          "indexed": false,
          "internalType": "uint256",
          "name": "vaultShareAmount",
          "type": "uint256"
        },
        {
          "indexed": false,
          "internalType": "bool",
          "name": "asBase",
          "type": "bool"
        },
        {
          "indexed": false,
          "internalType": "uint256",
          "name": "baseProceeds",
          "type": "uint256"
        },
        {
          "indexed": false,
          "internalType": "uint256",
          "name": "bondAmount",
          "type": "uint256"
        }
      ],
      "name": "OpenShort",
      "type": "event"
    },
    {
      "anonymous": false,
      "inputs": [
        {
          "indexed": false,
          "internalType": "bool",
          "name": "isPaused",
          "type": "bool"
        }
      ],
      "name": "PauseStatusUpdated",
      "type": "event"
    },
    {
      "anonymous": false,
      "inputs": [
        {
          "indexed": true,
          "internalType": "address",
          "name": "newPauser",
          "type": "address"
        },
        {
          "indexed": false,
          "internalType": "bool",
          "name": "status",
          "type": "bool"
        }
      ],
      "name": "PauserUpdated",
      "type": "event"
    },
    {
      "anonymous": false,
      "inputs": [
        {
          "indexed": true,
          "internalType": "address",
          "name": "provider",
          "type": "address"
        },
        {
          "indexed": true,
          "internalType": "address",
          "name": "destination",
          "type": "address"
        },
        {
          "indexed": false,
          "internalType": "uint256",
          "name": "withdrawalShareAmount",
          "type": "uint256"
        },
        {
          "indexed": false,
          "internalType": "uint256",
          "name": "baseAmount",
          "type": "uint256"
        },
        {
          "indexed": false,
          "internalType": "uint256",
          "name": "vaultShareAmount",
          "type": "uint256"
        },
        {
          "indexed": false,
          "internalType": "bool",
          "name": "asBase",
          "type": "bool"
        }
      ],
      "name": "RedeemWithdrawalShares",
      "type": "event"
    },
    {
      "anonymous": false,
      "inputs": [
        {
          "indexed": true,
          "internalType": "address",
          "name": "provider",
          "type": "address"
        },
        {
          "indexed": true,
          "internalType": "address",
          "name": "destination",
          "type": "address"
        },
        {
          "indexed": false,
          "internalType": "uint256",
          "name": "lpAmount",
          "type": "uint256"
        },
        {
          "indexed": false,
          "internalType": "uint256",
          "name": "baseAmount",
          "type": "uint256"
        },
        {
          "indexed": false,
          "internalType": "uint256",
          "name": "vaultShareAmount",
          "type": "uint256"
        },
        {
          "indexed": false,
          "internalType": "bool",
          "name": "asBase",
          "type": "bool"
        },
        {
          "indexed": false,
          "internalType": "uint256",
          "name": "withdrawalShareAmount",
          "type": "uint256"
        },
        {
          "indexed": false,
          "internalType": "uint256",
          "name": "lpSharePrice",
          "type": "uint256"
        }
      ],
      "name": "RemoveLiquidity",
      "type": "event"
    },
    {
      "anonymous": false,
      "inputs": [
        {
          "indexed": true,
          "internalType": "address",
          "name": "collector",
          "type": "address"
        },
        {
          "indexed": true,
          "internalType": "address",
          "name": "target",
          "type": "address"
        }
      ],
      "name": "Sweep",
      "type": "event"
    },
    {
      "anonymous": false,
      "inputs": [
        {
          "indexed": true,
          "internalType": "address",
          "name": "newSweepCollector",
          "type": "address"
        }
      ],
      "name": "SweepCollectorUpdated",
      "type": "event"
    },
    {
      "anonymous": false,
      "inputs": [
        {
          "indexed": true,
          "internalType": "address",
          "name": "operator",
          "type": "address"
        },
        {
          "indexed": true,
          "internalType": "address",
          "name": "from",
          "type": "address"
        },
        {
          "indexed": true,
          "internalType": "address",
          "name": "to",
          "type": "address"
        },
        {
          "indexed": false,
          "internalType": "uint256",
          "name": "id",
          "type": "uint256"
        },
        {
          "indexed": false,
          "internalType": "uint256",
          "name": "value",
          "type": "uint256"
        }
      ],
      "name": "TransferSingle",
      "type": "event"
    },
    {
      "inputs": [
        {
          "internalType": "uint256",
          "name": "_contribution",
          "type": "uint256"
        },
        {
          "internalType": "uint256",
          "name": "_minLpSharePrice",
          "type": "uint256"
        },
        {
          "internalType": "uint256",
          "name": "_minApr",
          "type": "uint256"
        },
        {
          "internalType": "uint256",
          "name": "_maxApr",
          "type": "uint256"
        },
        {
          "components": [
            {
              "internalType": "address",
              "name": "destination",
              "type": "address"
            },
            {
              "internalType": "bool",
              "name": "asBase",
              "type": "bool"
            },
            {
              "internalType": "bytes",
              "name": "extraData",
              "type": "bytes"
            }
          ],
          "internalType": "struct IHyperdrive.Options",
          "name": "_options",
          "type": "tuple"
        }
      ],
      "name": "addLiquidity",
      "outputs": [
        {
          "internalType": "uint256",
          "name": "",
          "type": "uint256"
        }
      ],
      "stateMutability": "payable",
      "type": "function"
    },
    {
      "inputs": [
        {
          "internalType": "uint256",
          "name": "_bondAmount",
          "type": "uint256"
        },
        {
          "internalType": "uint256",
          "name": "_maxDeposit",
          "type": "uint256"
        },
        {
          "internalType": "uint256",
          "name": "_minVaultSharePrice",
          "type": "uint256"
        },
        {
          "components": [
            {
              "internalType": "address",
              "name": "destination",
              "type": "address"
            },
            {
              "internalType": "bool",
              "name": "asBase",
              "type": "bool"
            },
            {
              "internalType": "bytes",
              "name": "extraData",
              "type": "bytes"
            }
          ],
          "internalType": "struct IHyperdrive.Options",
          "name": "_options",
          "type": "tuple"
        }
      ],
      "name": "openShort",
      "outputs": [
        {
          "internalType": "uint256",
          "name": "",
          "type": "uint256"
        },
        {
          "internalType": "uint256",
          "name": "",
          "type": "uint256"
        }
      ],
      "stateMutability": "payable",
      "type": "function"
    }
  ],
  "bytecode": "0x6102406040523480156200001257600080fd5b5060405162005577380380620055778339810160408190526200003591620001e1565b600160005580516001600160a01b039081166080908152602080840151831660a0908152918401516101a0908152918401516101c05260c0808501516101e0526101008086015190915260e0808601519052610120808601519091529184018051519092528151015161014090815281516040908101516101609081529251606090810151610180908152918601518516610200528501516102205290840151600a80546001600160a01b03199081169286169290921790559184015160088054841691851691909117905590920151600980549093169116179055620002d4565b6040516101c081016001600160401b03811182821017156200014957634e487b7160e01b600052604160045260246000fd5b60405290565b80516001600160a01b03811681146200016757600080fd5b919050565b6000608082840312156200017f57600080fd5b604051608081016001600160401b0381118282101715620001b057634e487b7160e01b600052604160045260246000fd5b8060405250809150825181526020830151602082015260408301516040820152606083015160608201525092915050565b60006102208284031215620001f557600080fd5b620001ff62000117565b6200020a836200014f565b81526200021a602084016200014f565b60208201526200022d604084016200014f565b6040820152606083015160608201526080830151608082015260a083015160a082015260c083015160c082015260e083015160e08201526101008084015181830152506101208084015181830152506101406200028c8185016200014f565b90820152610160620002a08482016200014f565b90820152610180620002b48482016200014f565b908201526101a0620002c9858583016200016c565b908201529392505050565b60805160a05160c05160e05161010051610120516101405161016051610180516101a0516101c0516101e05161020051610220516151406200043760003960005050600050506000818161010b015281816103e3015281816105f9015261110c0152600081816110e601528181611624015281816121bc0152818161221f0152818161295f01528181612de301528181613010015261305501526000818161019b015281816110c00152818161147f01526114f901526000611d08015260008181611e5b01528181612c0a0152612c83015260008181610ce60152818161159301528181611e2f0152612c5701526000612bd60152600081816101dd015281816111320152818161145d015261151a0152600081816101bc015281816106c101528181610c180152612864015260008181610a8201528181610b210152610b8f015260008181611a7901528181611b2e0152612ac90152600050506151406000f3fe6080604052600436106100295760003560e01c80634c2ac1d91461002e578063dbbe807014610054575b600080fd5b61004161003c366004614cda565b61007c565b6040519081526020015b60405180910390f35b610067610062366004614d3e565b610097565b6040805192835260208301919091520161004b565b600061008b86868686866100b4565b90505b95945050505050565b6000806100a6868686866105a1565b915091505b94509492505050565b60006100be610872565b600554610100900460ff1615610100576040517f21081abf00000000000000000000000000000000000000000000000000000000815260040160405180910390fd5b610109826108b5565b7f0000000000000000000000000000000000000000000000000000000000000000861015610163576040517f423bbb4600000000000000000000000000000000000000000000000000000000815260040160405180910390fd5b6000610201610170610914565b60015470010000000000000000000000000000000090046fffffffffffffffffffffffffffffffff167f00000000000000000000000000000000000000000000000000000000000000007f00000000000000000000000000000000000000000000000000000000000000007f0000000000000000000000000000000000000000000000000000000000000000610943565b90508481108061021057508381115b15610247576040517f76c22a2200000000000000000000000000000000000000000000000000000000815260040160405180910390fd5b6000806102548986610989565b9150915061026b610263610a7b565b826004610ab1565b506006547f03000000000000000000000000000000000000000000000000000000000000006000908152600e6020527fd2d06a3478833ecfcc0864e3afb188a7ff21caef68ea336a6e4f79f78f6fb3e95490916102dc916fffffffffffffffffffffffffffffffff90911690614dc7565b6000808052600e6020527fe710864318d4a32f37d6ce54cb3fadbef648dd12d8dbdf53973564d56b7f881c5491925090610317908390614dda565b9050600080600061032786611005565b9050610332816111c7565b915061034561034088611217565b611277565b6001546fffffffffffffffffffffffffffffffff8082168352600354600f0b602084015270010000000000000000000000000000000090910416604082015261038d816111c7565b9250818310156103c9576040517f309b2a4200000000000000000000000000000000000000000000000000000000815260040160405180910390fd5b6103df84836103d88187614dc7565b91906112b6565b98507f000000000000000000000000000000000000000000000000000000000000000089101561043b576040517f423bbb4600000000000000000000000000000000000000000000000000000000815260040160405180910390fd5b508b6104478e8a6112f2565b101561047f576040517fc972651700000000000000000000000000000000000000000000000000000000815260040160405180910390fd5b610497600061049160208c018c614ded565b8a611310565b60006104a2866113d2565b9050806104db576040517f8bdf918d00000000000000000000000000000000000000000000000000000000815260040160405180910390fd5b600084156104f2576104ed83866112f2565b6104f5565b60005b90508e6000610505828a8f6113df565b90508c6105156020820182614ded565b73ffffffffffffffffffffffffffffffffffffffff167fa59daf574c5c8db34377de83bceea2aa1433cc506d656f5e8f46e5f4b5c58a868e848e61055f6040870160208801614e23565b60408051948552602085019390935291830152151560608201526080810187905260a00160405180910390a250505050505050505050505061008e6001600055565b6000806105ac610872565b600554610100900460ff16156105ee576040517f21081abf00000000000000000000000000000000000000000000000000000000815260040160405180910390fd5b6105f7836108b5565b7f0000000000000000000000000000000000000000000000000000000000000000861015610651576040517f423bbb4600000000000000000000000000000000000000000000000000000000815260040160405180910390fd5b600061065b61140e565b905084811015610697576040517f42af972b00000000000000000000000000000000000000000000000000000000815260040160405180910390fd5b60006106a1610a7b565b905060006106b86106b0610a7b565b846004610ab1565b905060006106e67f000000000000000000000000000000000000000000000000000000000000000084614dda565b905060008060006106f88d8887611421565b92509250925080600b60008282546107109190614dda565b909155506000905061072384898d6115cd565b9050808d101561075f576040517fc972651700000000000000000000000000000000000000000000000000000000815260040160405180910390fd5b610769818c610989565b50506107778e848a886115f5565b60006107846002876118d1565b905060008f90506107a8828e60000160208101906107a29190614ded565b83611310565b848a8e846107b96020830183614ded565b73ffffffffffffffffffffffffffffffffffffffff167fb354b32bd86ebd9f0968a338e5c2873d7f0d473aa7a668c2488e66038380258b8c8c6107fd8b8888611937565b61080d6040880160208901614e23565b610823898f8c61081d9190614dc7565b9061195f565b6040805195865260208601949094529284019190915215156060830152608082015260a0810188905260c00160405180910390a350979c50929a50505050505050505050506100ab6001600055565b6002600054036108ae576040517f3ee5aeb500000000000000000000000000000000000000000000000000000000815260040160405180910390fd5b6002600055565b60006108c46020830183614ded565b73ffffffffffffffffffffffffffffffffffffffff1603610911576040517ff0dd15fd00000000000000000000000000000000000000000000000000000000815260040160405180910390fd5b50565b60015460035460009161093e916fffffffffffffffffffffffffffffffff90911690600f0b611974565b905090565b60008061095287878786611993565b905061097e61096682866301e133806119aa565b61097883670de0b6b3a7640000614dc7565b906112f2565b979650505050505050565b6000808061099d6040850160208601614e23565b156109c2576109b8856109b36040870187614e45565b6119ee565b90935090506109de565b50346109da856109d56040870187614e45565b611af3565b8492505b6109e661140e565b91508015610a7257604051600090339083908381818185875af1925050503d8060008114610a30576040519150601f19603f3d011682016040523d82523d6000602084013e610a35565b606091505b5050905080610a70576040517f90b8ec1800000000000000000000000000000000000000000000000000000000815260040160405180910390fd5b505b505b9250929050565b6000610aa77f000000000000000000000000000000000000000000000000000000000000000042614ed9565b61093e9042614dc7565b600083815260076020526040812080546fffffffffffffffffffffffffffffffff16151580610adf57504285115b15610afe57546fffffffffffffffffffffffffffffffff169050610ffe565b600080610b09610a7b565b9050808703610b1a57859150610bbd565b6000610b467f000000000000000000000000000000000000000000000000000000000000000089614dda565b90505b6000818152600760205260409020546fffffffffffffffffffffffffffffffff1692508181148015610b79575082155b15610b82578692505b82600003610bbb57610bb47f000000000000000000000000000000000000000000000000000000000000000082614dda565b9050610b49565b505b610bc682611bb6565b83547fffffffffffffffffffffffffffffffff00000000000000000000000000000000166fffffffffffffffffffffffffffffffff91909116178355610c0b86611c02565b5060009050600781610c3d7f00000000000000000000000000000000000000000000000000000000000000008b614dc7565b815260208101919091526040016000908120546fffffffffffffffffffffffffffffffff169150610c6f60028a6118d1565b6000818152600e60205260408120549192508a8a8315610df25760019250600080610c9e86898c866000611e18565b9150915080600b6000828254610cb49190614dda565b90915550610cd0905086600084610cca81611217565b88611ee7565b610cda8183614dda565b9150610d0a86838a8d877f000000000000000000000000000000000000000000000000000000000000000061210e565b9150610d1e610d19838561195f565b612152565b60058054600290610d469084906201000090046dffffffffffffffffffffffffffff16614eed565b92506101000a8154816dffffffffffffffffffffffffffff02191690836dffffffffffffffffffffffffffff160217905550610d8182611bb6565b60058054601090610db990849070010000000000000000000000000000000090046fffffffffffffffffffffffffffffffff16614f14565b92506101000a8154816fffffffffffffffffffffffffffffffff02191690836fffffffffffffffffffffffffffffffff16021790555050505b6000610dff6001846118d1565b6000818152600e60205260409020549091508015610f4b5760019450600080610e2c838b8e886001611e18565b9150915080600b6000828254610e429190614dda565b90915550610e5e905083600084610e5881611217565b8a61219c565b610e688183614dc7565b9150610e77610d19838761195f565b60058054600290610e9f9084906201000090046dffffffffffffffffffffffffffff16614eed565b92506101000a8154816dffffffffffffffffffffffffffff02191690836dffffffffffffffffffffffffffff160217905550610eda82611bb6565b60058054601090610f1290849070010000000000000000000000000000000090046fffffffffffffffffffffffffffffffff16614f14565b92506101000a8154816fffffffffffffffffffffffffffffffff02191690836fffffffffffffffffffffffffffffffff16021790555050505b8415610f8357610f77610f5d87611217565b610f6683611217565b610f709190614f3d565b6000612456565b610f818e8e61252d565b505b6000610f8e8f612720565b5090508f7fff888cf98d2696e95c8c39aa98c9ad55a5378008f7a56614c9353b7137a57ab78c868a8686604051610fe7959493929190948552602085019390935260408401919091526060830152608082015260a00190565b60405180910390a250989a50505050505050505050505b9392505050565b6110696040518061018001604052806000815260200160008152602001600081526020016000815260200160008152602001600081526020016000815260200160008152602001600081526020016000815260200160008152602001600081525090565b60408051610180810182526001546fffffffffffffffffffffffffffffffff8082168352600354600f0b602084015270010000000000000000000000000000000091829004811693830193909352606082018590527f000000000000000000000000000000000000000000000000000000000000000060808301527f000000000000000000000000000000000000000000000000000000000000000060a08301527f000000000000000000000000000000000000000000000000000000000000000060c08301527f000000000000000000000000000000000000000000000000000000000000000060e083015260025404821661010082015260045490916101208301916111779116612819565b81526003546fffffffffffffffffffffffffffffffff70010000000000000000000000000000000091829004811660208401526004546040909301926111bf92900416612819565b905292915050565b60008060006111d58461288f565b9150915080611210576040517faa2c651600000000000000000000000000000000000000000000000000000000815260040160405180910390fd5b5092915050565b60007f7fffffffffffffffffffffffffffffffffffffffffffffffffffffffffffffff821115611273576040517f72dd4e0200000000000000000000000000000000000000000000000000000000815260040160405180910390fd5b5090565b6112808161291c565b610911576040517f5044b7f500000000000000000000000000000000000000000000000000000000815260040160405180910390fd5b6000827fffffffffffffffffffffffffffffffffffffffffffffffffffffffffffffffff04841183021582026112eb57600080fd5b5091020490565b600061130783670de0b6b3a7640000846112b6565b90505b92915050565b6000838152600d6020908152604080832073ffffffffffffffffffffffffffffffffffffffff861684529091528120805483929061134f908490614dda565b90915550506000838152600e602052604081208054839290611372908490614dda565b9091555050604080518481526020810183905273ffffffffffffffffffffffffffffffffffffffff84169160009133917fc3d58168c5ae7397731d063d5bbf3d657854427343f4c083240f7aacaa2d0f62910160405180910390a4505050565b600061130a82600461252d565b60006113f16040830160208401614e23565b156113fd575082610ffe565b611407848461195f565b9050610ffe565b600061093e670de0b6b3a7640000612a97565b60008060006114a3611431610914565b60015470010000000000000000000000000000000090046fffffffffffffffffffffffffffffffff16887f0000000000000000000000000000000000000000000000000000000000000000897f0000000000000000000000000000000000000000000000000000000000000000612b49565b9150856114b08387612b6a565b11156114be576114be612b7f565b600080600061153e6114ce610914565b60015470010000000000000000000000000000000090046fffffffffffffffffffffffffffffffff167f00000000000000000000000000000000000000000000000000000000000000007f0000000000000000000000000000000000000000000000000000000000000000611993565b905061155489670de0b6b3a7640000838b612bb1565b5091945090925061156790508284614dc7565b6115719086614dc7565b94506115bd886115b78b611585868a614dc7565b8b6115908e82612cbf565b8e7f0000000000000000000000000000000000000000000000000000000000000000612cd5565b90612b6a565b9550909250505093509350939050565b60006115df6040830160208401614e23565b156115eb575082610ffe565b61140784846112f2565b6001546fffffffffffffffffffffffffffffffff168381101561161a5761161a612b7f565b60035490849003907f000000000000000000000000000000000000000000000000000000000000000090611652908390600f0b611974565b101561166057611660612b7f565b6003546116db906116d69070010000000000000000000000000000000090046fffffffffffffffffffffffffffffffff166116a3670de0b6b3a764000086614f5d565b60045470010000000000000000000000000000000090046fffffffffffffffffffffffffffffffff169190896001612cfa565b611bb6565b600480546fffffffffffffffffffffffffffffffff92831670010000000000000000000000000000000002921691909117905561171781611bb6565b600180547fffffffffffffffffffffffffffffffff00000000000000000000000000000000166fffffffffffffffffffffffffffffffff9290921691909117905561176185611bb6565b6001805460109061179990849070010000000000000000000000000000000090046fffffffffffffffffffffffffffffffff16614f14565b92506101000a8154816fffffffffffffffffffffffffffffffff02191690836fffffffffffffffffffffffffffffffff1602179055506117d885611bb6565b6003805460109061181090849070010000000000000000000000000000000090046fffffffffffffffffffffffffffffffff16614f14565b92506101000a8154816fffffffffffffffffffffffffffffffff02191690836fffffffffffffffffffffffffffffffff160217905550600061185183612d98565b905061186f8161186088611217565b61186a9084614f3d565b612456565b61187884612ddc565b61188457611884612b7f565b600061188f856113d2565b9050806118c8576040517f8bdf918d00000000000000000000000000000000000000000000000000000000815260040160405180910390fd5b50505050505050565b60007effffffffffffffffffffffffffffffffffffffffffffffffffffffffffffff82111561192c576040517fb7d0949700000000000000000000000000000000000000000000000000000000815260040160405180910390fd5b5060f89190911b1790565b60006119496040830160208401614e23565b156119585761140784846112f2565b5082610ffe565b60006113078383670de0b6b3a76400006112b6565b6000806119818484612e4e565b90925090508061121057611210612b7f565b600061008e826119a48588886112b6565b90612e8a565b6000827fffffffffffffffffffffffffffffffffffffffffffffffffffffffffffffffff04841183021582026119df57600080fd5b50910281810615159190040190565b60008084341015611a2b576040517f90b8ec1800000000000000000000000000000000000000000000000000000000815260040160405180910390fd5b506008546040517fa1903eab00000000000000000000000000000000000000000000000000000000815273ffffffffffffffffffffffffffffffffffffffff918216600482015234869003917f0000000000000000000000000000000000000000000000000000000000000000169063a1903eab90879060240160206040518083038185885af1158015611ac3573d6000803e3d6000fd5b50505050506040513d601f19601f82011682018060405250810190611ae89190614f74565b91505b935093915050565b6040517f6d780459000000000000000000000000000000000000000000000000000000008152336004820152306024820152604481018490527f000000000000000000000000000000000000000000000000000000000000000073ffffffffffffffffffffffffffffffffffffffff1690636d780459906064016020604051808303816000875af1158015611b8c573d6000803e3d6000fd5b505050506040513d601f19601f82011682018060405250810190611bb09190614f74565b50505050565b60006fffffffffffffffffffffffffffffffff821115611273576040517f1e15f2a200000000000000000000000000000000000000000000000000000000815260040160405180910390fd5b6005546000908190611c3b90849070010000000000000000000000000000000090046fffffffffffffffffffffffffffffffff1661195f565b6005546201000090046dffffffffffffffffffffffffffff169250905081811115611e13576000611c6c8383614dc7565b9050611c7b6116d68286612eff565b60058054601090611cb390849070010000000000000000000000000000000090046fffffffffffffffffffffffffffffffff16614f8d565b92506101000a8154816fffffffffffffffffffffffffffffffff02191690836fffffffffffffffffffffffffffffffff1602179055506000611cfe85836112f290919063ffffffff16565b90506000611d2c827f000000000000000000000000000000000000000000000000000000000000000061195f565b905080600b6000828254611d409190614dda565b90915550611d5090508183614dc7565b9150611d5b82611bb6565b60018054600090611d7f9084906fffffffffffffffffffffffffffffffff16614f14565b92506101000a8154816fffffffffffffffffffffffffffffffff02191690836fffffffffffffffffffffffffffffffff160217905550611dbe82612f14565b60038054600090611dd3908490600f0b614fb6565b92506101000a8154816fffffffffffffffffffffffffffffffff0219169083600f0b6fffffffffffffffffffffffffffffffff1602179055508493505050505b915091565b600080611e2587856112f2565b91506000611e53837f000000000000000000000000000000000000000000000000000000000000000061195f565b9050611e7f817f000000000000000000000000000000000000000000000000000000000000000061195f565b91508315611ea257611e918282614dc7565b611e9b9084614dc7565b9250611eb9565b611eac8282614dc7565b611eb69084614dda565b92505b86861015611edc57611ecc8387896112b6565b9250611ed98287896112b6565b91505b509550959350505050565b60035470010000000000000000000000000000000090046fffffffffffffffffffffffffffffffff16611f5c6116d682611f29670de0b6b3a764000086614f5d565b60045470010000000000000000000000000000000090046fffffffffffffffffffffffffffffffff1691908a6000612cfa565b600480546fffffffffffffffffffffffffffffffff928316700100000000000000000000000000000000029216919091179055611f9886611bb6565b611fa29082614f8d565b600380546fffffffffffffffffffffffffffffffff928316700100000000000000000000000000000000029216919091179055611fde84611bb6565b600180546000906120029084906fffffffffffffffffffffffffffffffff16614f14565b92506101000a8154816fffffffffffffffffffffffffffffffff02191690836fffffffffffffffffffffffffffffffff16021790555061204183612f60565b60038054600090612056908490600f0b614fb6565b92506101000a8154816fffffffffffffffffffffffffffffffff0219169083600f0b6fffffffffffffffffffffffffffffffff16021790555061209885611bb6565b600180546010906120d090849070010000000000000000000000000000000090046fffffffffffffffffffffffffffffffff16614f8d565b92506101000a8154816fffffffffffffffffffffffffffffffff02191690836fffffffffffffffffffffffffffffffff160217905550505050505050565b600080612120846109788a888a6112b6565b905061212d8884866112b6565b6121379082614dda565b9050868111156121475786810391505b509695505050505050565b60006dffffffffffffffffffffffffffff821115611273576040517f10d62a2e00000000000000000000000000000000000000000000000000000000815260040160405180910390fd5b6001546fffffffffffffffffffffffffffffffff16838110806121e757507f00000000000000000000000000000000000000000000000000000000000000006121e58583614dc7565b105b156121f4576121f4612b7f565b6003549084900390600f0b6122098482614f3d565b90508361221586611217565b13801561224a57507f00000000000000000000000000000000000000000000000000000000000000006122488383611974565b105b1561225757612257612b7f565b60025470010000000000000000000000000000000090046fffffffffffffffffffffffffffffffff166122b86116d682612299670de0b6b3a764000088614f5d565b6004546fffffffffffffffffffffffffffffffff1691908c6000612cfa565b600480547fffffffffffffffffffffffffffffffff00000000000000000000000000000000166fffffffffffffffffffffffffffffffff929092169190911790556123038882614dc7565b905061230e81611bb6565b600280546fffffffffffffffffffffffffffffffff92831670010000000000000000000000000000000002921691909117905561234a83611bb6565b600180547fffffffffffffffffffffffffffffffff00000000000000000000000000000000166fffffffffffffffffffffffffffffffff9290921691909117905561239482612f60565b600380547fffffffffffffffffffffffffffffffff00000000000000000000000000000000166fffffffffffffffffffffffffffffffff929092169190911790556123de87611bb6565b6001805460109061241690849070010000000000000000000000000000000090046fffffffffffffffffffffffffffffffff16614f14565b92506101000a8154816fffffffffffffffffffffffffffffffff02191690836fffffffffffffffffffffffffffffffff1602179055505050505050505050565b600061247f6124658483612fd6565b612470846000612fd6565b61247a9190614f3d565b612f60565b9050600081600f0b13156124ef57600280548291906000906124b49084906fffffffffffffffffffffffffffffffff16614f14565b92506101000a8154816fffffffffffffffffffffffffffffffff02191690836fffffffffffffffffffffffffffffffff160217905550505050565b600081600f0b12156125285761250481615004565b600280546000906124b49084906fffffffffffffffffffffffffffffffff16614f8d565b505050565b6006547f03000000000000000000000000000000000000000000000000000000000000006000908152600e6020527fd2d06a3478833ecfcc0864e3afb188a7ff21caef68ea336a6e4f79f78f6fb3e9549091829161259d916fffffffffffffffffffffffffffffffff1690614dc7565b9050806000036125b157600191505061130a565b60006125bc85612fe5565b9050806000036125d15760019250505061130a565b6000806125df8385896130a2565b91509150806125f557600094505050505061130a565b60008061260284896131a8565b9150915061262061261282611217565b61261b90615042565b61291c565b925082612636576000965050505050505061130a565b61263f82611bb6565b600680546000906126639084906fffffffffffffffffffffffffffffffff16614f14565b92506101000a8154816fffffffffffffffffffffffffffffffff02191690836fffffffffffffffffffffffffffffffff1602179055506126a281611bb6565b600680546010906126da90849070010000000000000000000000000000000090046fffffffffffffffffffffffffffffffff16614f14565b92506101000a8154816fffffffffffffffffffffffffffffffff02191690836fffffffffffffffffffffffffffffffff1602179055506001965050505050505092915050565b60008060008061273761273286611005565b61288f565b915091508061274d575060009485945092505050565b600080861161275d576000612767565b612767838761195f565b600654600e6020527fd2d06a3478833ecfcc0864e3afb188a7ff21caef68ea336a6e4f79f78f6fb3e95460008080527fe710864318d4a32f37d6ce54cb3fadbef648dd12d8dbdf53973564d56b7f881c54939450926fffffffffffffffffffffffffffffffff909216916127db9190614dda565b6127e59190614dc7565b9050806000036127fe5750600096879650945050505050565b600061280a83836112f2565b98600198509650505050505050565b600080670de0b6b3a764000061282d610a7b565b6128379190614f5d565b9050808311612847576000612851565b6128518184614dc7565b9150610ffe612888670de0b6b3a76400007f0000000000000000000000000000000000000000000000000000000000000000614f5d565b83906112f2565b60008060008060006128a086613298565b91509150806128b757506000958695509350505050565b6128c48660a00151611217565b6128cd876135b8565b836128db8960000151611217565b6128e5919061507a565b6128ef919061507a565b6128f99190614f3d565b9250505060008112156129125750600093849350915050565b9360019350915050565b6001546003546000916fffffffffffffffffffffffffffffffff80821692600f0b91700100000000000000000000000000000000900416838080806129848787877f00000000000000000000000000000000000000000000000000000000000000008d61361c565b9350935093509350806129a05750600098975050505050505050565b8684146129f2576129b084611bb6565b600180547fffffffffffffffffffffffffffffffff00000000000000000000000000000000166fffffffffffffffffffffffffffffffff929092169190911790555b858314612a4457612a0283612f60565b600380547fffffffffffffffffffffffffffffffff00000000000000000000000000000000166fffffffffffffffffffffffffffffffff929092169190911790555b848214612a8857612a5482611bb6565b600180546fffffffffffffffffffffffffffffffff9283167001000000000000000000000000000000000292169190911790555b50600198975050505050505050565b6040517f7a28fb88000000000000000000000000000000000000000000000000000000008152600481018290526000907f000000000000000000000000000000000000000000000000000000000000000073ffffffffffffffffffffffffffffffffffffffff1690637a28fb8890602401602060405180830381865afa158015612b25573d6000803e3d6000fd5b505050506040513d601f19601f8201168201806040525081019061130a9190614f74565b600061097e878787612b6388670de0b6b3a7640000614dc7565b8787613734565b60006113078383670de0b6b3a76400006119aa565b6040517fbb55fd2700000000000000000000000000000000000000000000000000000000815260040160405180910390fd5b6000808080612c028786612bfb8b6115b7612bd48c670de0b6b3a7640000614dc7565b7f000000000000000000000000000000000000000000000000000000000000000090612b6a565b91906119aa565b9350612c2e847f000000000000000000000000000000000000000000000000000000000000000061195f565b91506000612c4f612c4789670de0b6b3a7640000614dc7565b8a90886119aa565b9050612c7b817f0000000000000000000000000000000000000000000000000000000000000000612b6a565b9350612ca7847f000000000000000000000000000000000000000000000000000000000000000061195f565b612cb19084614dda565b915050945094509450949050565b6000818311612cce5781611307565b5090919050565b600080612ced84612ce78a888a6119aa565b90612eff565b905061212d8884866119aa565b600082600003612d0b57508461008e565b8115612d5e57612d3c612d1e8487614dda565b612d28858761195f565b612d32888a61195f565b6109789190614dda565b90506000612d4a8588613757565b905080821015612d58578091505b5061008e565b828503612d6d5750600061008e565b61008b612d7a8487614dc7565b612d848587612b6a565b612d8e888a61195f565b6109789190614dc7565b6000612dc0600e6000612dac6002866118d1565b815260200190815260200160002054611217565b612dd2600e6000612dac6001876118d1565b61130a9190614f3d565b6000612e087f000000000000000000000000000000000000000000000000000000000000000083612b6a565b600254612e2791906fffffffffffffffffffffffffffffffff16614dda565b600154612e46906fffffffffffffffffffffffffffffffff168461195f565b101592915050565b600080600083612e5d86611217565b612e679190614f3d565b90506000811215612e7f576000809250925050610a74565b946001945092505050565b600081600003612ea35750670de0b6b3a764000061130a565b82600003612eb35750600061130a565b6000612ebe83611217565b90506000612ed3612ece86611217565b613766565b9050818102612eea670de0b6b3a7640000826150a2565b9050612ef581613a07565b9695505050505050565b600061130783670de0b6b3a7640000846119aa565b60006f7fffffffffffffffffffffffffffffff821115611273576040517fa5353be500000000000000000000000000000000000000000000000000000000815260040160405180910390fd5b60007fffffffffffffffffffffffffffffffff80000000000000000000000000000000821280612f9f57506f7fffffffffffffffffffffffffffffff82135b15611273576040517fa5353be500000000000000000000000000000000000000000000000000000000815260040160405180910390fd5b6000818313612cce5781611307565b6002546000908190613009906fffffffffffffffffffffffffffffffff1684612eff565b90506130357f000000000000000000000000000000000000000000000000000000000000000082614dda565b6001546fffffffffffffffffffffffffffffffff16111561309c576001547f0000000000000000000000000000000000000000000000000000000000000000906130929083906fffffffffffffffffffffffffffffffff16614dc7565b610ffe9190614dc7565b50919050565b6130aa614c1a565b6000806130b684611005565b905060006130c38261288f565b93509050826130d8575060009150611aeb9050565b60006130ff6130fa84610160015185610140015161195f90919063ffffffff16565b611217565b61311f6130fa856101200151866101000151612b6a90919063ffffffff16565b6131299190614f3d565b604080516101208101825285815260208082019590955260008052600e85527fe710864318d4a32f37d6ce54cb3fadbef648dd12d8dbdf53973564d56b7f881c54818301526060810199909952608089019990995260a088015250815160c087015281015160e086015290940151610100840152509092600192509050565b6000806000806131c08660c001518760e00151612e4e565b91509150806131d757600080935093505050610a74565b60006131e38784613c20565b925090508115806131f2575080155b156132065760008094509450505050610a74565b60006132128883613d2f565b90508060000361322c576000809550955050505050610a74565b876060015181116132435794509250610a74915050565b50606087015160006132578986858b613e00565b90508060000361327257600080965096505050505050610a74565b82811061328a57600080965096505050505050610a74565b909890975095505050505050565b60008060006132bd6130fa85610160015186610140015161195f90919063ffffffff16565b6132dd6130fa866101200151876101000151612b6a90919063ffffffff16565b6132e79190614f3d565b90506000806132fe86600001518760200151612e4e565b915091508061331557506000958695509350505050565b60008313156134565760008390506000613363886000015189602001518a604001518b60a001518c60e00151670de0b6b3a76400006133549190614dc7565b8d606001518e60800151614317565b935090508261337c575060009788975095505050505050565b81811061341a5760006133b6858a60400151858c60e00151670de0b6b3a76400006133a79190614dc7565b8d606001518e60800151614423565b94509050831580156133cb57508860c0015183105b156133e25750600098600198509650505050505050565b836133f857506000988998509650505050505050565b61340181611217565b61340a90615042565b9960019950975050505050505050565b6000886020015112613442576134398860a00151856130fa9190614dc7565b61280a90615042565b60a08801518851613439916130fa91614dc7565b60008312156135a957600061346a84615042565b9050600061349e8489604001518a60e00151670de0b6b3a764000061348f9190614dc7565b8b606001518c608001516144e6565b93509050826134b7575060009788975095505050505050565b81811061353c5760006134f1858a60400151858c60e00151670de0b6b3a76400006134e29190614dc7565b8d606001518e60800151614592565b945090508315801561350657508860c0015183105b1561351d5750600098600198509650505050505050565b8361353357506000988998509650505050505050565b61340a81611217565b600061356e858a604001518b60e00151670de0b6b3a764000061355f9190614dc7565b8c606001518d60800151614669565b945090508361358857506000988998509650505050505050565b61340a61359f8a6060015184866109789190614dc7565b6130fa9083614dda565b50600095600195509350505050565b60006135eb6130fa836101200151670de0b6b3a76400006135d99190614dc7565b606085015161010086015191906119aa565b612dd26130fa846101600151670de0b6b3a764000061360a9190614dc7565b606086015161014087015191906112b6565b6000806000808460000361363b57508792508691508590506001613728565b6000856136478b611217565b613651919061507a565b905061365c87611217565b81121561367757600080600080945094509450945050613728565b80945060008912613697576136906130fa868b8d6112b6565b93506136ba565b6136ae6130fa6136a68b615042565b87908d6119aa565b6136b790615042565b93505b6000806136c78c8c612e4e565b91509150806136e6576000806000809650965096509650505050613728565b60006136f28888612e4e565b925090508161371257600080600080975097509750975050505050613728565b61371d8b82856112b6565b955060019450505050505b95509550955095915050565b600080613745888888888888614423565b90925090508061214757612147612b7f565b600081831161309c5782611307565b60008082136137a1576040517fe61b497500000000000000000000000000000000000000000000000000000000815260040160405180910390fd5b506fffffffffffffffffffffffffffffffff811160071b81811c67ffffffffffffffff1060061b1781811c63ffffffff1060051b1781811c61ffff1060041b1781811c60ff10600390811b90911782811c600f1060021b1782811c909110600190811b90911782811c90911017609f8181036060019290921b917fffffffffffffffffffffffffffffffffffffffffffffffffffffffffffffffa082019061384b9084901c611217565b6c465772b2bbbb5f824b15207a3081018102606090811d6d0388eaa27412d5aca026815d636e018202811d6d0df99ac502031bf953eff472fdcc018202811d6d13cdffb29d51d99322bdff5f2211018202811d6d0a0f742023def783a307a986912e018202811d6d01920d8043ca89b5239253284e42018202811d6c0b7a86d7375468fac667a0a527016c29508e458543d8aa4df2abee7883018302821d6d0139601a2efabe717e604cbb4894018302821d6d02247f7a7b6594320649aa03aba1018302821d7fffffffffffffffffffffffffffffffffffffff73c0c716a594e00d54e3c4cbc9018302821d7ffffffffffffffffffffffffffffffffffffffdc7b88c420e53a9890533129f6f01830290911d7fffffffffffffffffffffffffffffffffffffff465fda27eb4d63ded474e5f832019091027ffffffffffffffff5f6af8f7b3396644f18e157960000000000000000000000000105711340daa0d5f769dba1915cef59f0815a5506027d0267a36c0c95b3975ab3ee5b203a7614a3f75373f047d803ae7b6687f2b391909102017d57115e47018c7177eebf7cd370a3356a1b7863008a5ae8028c72b88642840160ae1d92915050565b60007ffffffffffffffffffffffffffffffffffffffffffffffffdb731c958f34d94c18213613a3857506000919050565b680755bf798b4a1bf1e58212613a7a576040517f73a2d6b100000000000000000000000000000000000000000000000000000000815260040160405180910390fd5b6503782dace9d9604e83901b059150600060606bb17217f7d1cf79abc9e3b39884821b056b80000000000000000000000001901d6bb17217f7d1cf79abc9e3b3988102909303927fffffffffffffffffffffffffffffffffffffffdbf3ccf1604d263450f02a550484018402606090811d6d0277594991cfc85f6e2461837cd9018502811d7fffffffffffffffffffffffffffffffffffffe5adedaa1cb095af9e4da10e363c018502811d6db1bbb201f443cf962f1a1d3db4a5018502811d7ffffffffffffffffffffffffffffffffffffd38dc772608b0ae56cce01296c0eb018502811d6e05180bb14799ab47a8a8cb2a527d57016d02d16720577bd19bf614176fe9ea6c10fe68e7fd37d0007b713f765087018702831d9081019087017ffffffffffffffffffffffffffffffffffffffe2c69812cf03b0763fd454a8f7e01810290921d6e0587f503bb6ea29d25fcb74019645001860279d835ebba824c98fb31b83b2ca45c000000000000000000000000018181059550929350909190612ef574029d9dc38563c32e5c2f6dc192ee70ef65f9978af3860260c38690031c611217565b60008060008460a0015112613c3d57505060808201516001610a74565b60008460a00151613c4d90615042565b90506000613c8985876101000151886000015160e00151670de0b6b3a7640000613c779190614dc7565b895160608101516080909101516144e6565b93509050821580613c98575080155b15613cab57600080935093505050610a74565b6000613cb78383612eff565b9050670de0b6b3a76400008111613cf35780670de0b6b3a7640000039450613cec8760c001518661195f90919063ffffffff16565b9450613d02565b60008094509450505050610a74565b8660800151851115613d21578660800151600194509450505050610a74565b506001925050509250929050565b600080613d658460c001518560e00151866101000151876000015160a00151613d5788611217565b613d6090615042565b61361c565b87516040810192909252602082019290925291909152905080613d8c57600091505061130a565b6000613d9b856000015161288f565b9250905081613daf5760009250505061130a565b84602001518110613dc55760009250505061130a565b600085606001518660400151613ddb9190614dda565b9050613df6828760200151836112b69092919063ffffffff16565b612ef59082614dc7565b60008085606001518660400151613e179190614dda565b60208701516060880151919250600091613e3191846112b6565b90508660a00151600003613e4857915061430f9050565b60008080896004881015613e5b57600497505b60005b888110156141b757613e70868b613757565b95506000613e998360c001518460e00151856101000151866000015160a00151613d578c611217565b86516040810192909252602082019290925291909152905080613ec75760009850505050505050505061430f565b6000613ed68e6000015161288f565b9250905081613ef1576000995050505050505050505061430f565b613efc84828b614718565b15613f125787995050505050505050505061430f565b60008460a00151131561407b57835180516020820151604083015160a084015160e090940151600094613f6694939291613f5490670de0b6b3a7640000614dc7565b8a516060810151608090910151614317565b9350905082613f825760009a505050505050505050505061430f565b808560a001511061407957613f968561477d565b909950925082613fb35760009a505050505050505050505061430f565b613fd88560c001518660e00151876101000151886000015160a00151613d578e611217565b885160408101929092526020820192909252919091529250826140085760009a505050505050505050505061430f565b845180516020820151604083015160a084015160e0909401516140389490613f5490670de0b6b3a7640000614dc7565b93509050826140545760009a505050505050505050505061430f565b8e60a00151811161407157889a505050505050505050505061430f565b505050613e5e565b505b600061408c858f8760a00151614853565b935090508215806140a55750670de0b6b3a76400008110155b156140bd5760009a505050505050505050505061430f565b80670de0b6b3a764000003905060006140ea6130fa87604001518860200151612b6a90919063ffffffff16565b6140f76130fa858e61195f565b6141019190614f3d565b905088158061411f575061411489614bae565b61411d82614bae565b125b1561412e578098508997508296505b6000811315614156576141458b61097883856112f2565b61414f908b614dda565b99506141a8565b600081121561419f5760006141708c610978858186615042565b90508a81101561418457808b039a50614199565b60009c5050505050505050505050505061430f565b506141a8565b505050506141b7565b84600101945050505050613e5e565b5060006141df8260c001518360e00151846101000151856000015160a00151613d578b611217565b8551604081019290925260208201929092529190915290508061420c57600097505050505050505061430f565b600061421b83600001516111c7565b9050600061423d6130fa85604001518660200151612b6a90919063ffffffff16565b61424a6130fa848c61195f565b6142549190614f3d565b905061425f87614bae565b61426882614bae565b1215614275578795508194505b61429c614290655af3107a4000670de0b6b3a7640000614dc7565b6020860151908b6119aa565b60408501516142ac9087906112f2565b10806142ec57506142da6142ce655af3107a4000670de0b6b3a7640000614dda565b6020860151908b6112b6565b60408501516142ea908790612eff565b115b15614303576000995050505050505050505061430f565b50939750505050505050505b949350505050565b60008060008812156143395761432c88615042565b6143369087614dda565b95505b6000806143468b8b612e4e565b915091508061435d57600080935093505050614417565b600061436c838b8a8a8a614bc6565b905060006143896143818a6119a48a8e612b6a565b8990896119aa565b9050808210156143a3576000809550955050505050614417565b808203670de0b6b3a764000081106143d8576143d16143ca670de0b6b3a76400008c6112f2565b8290612e8a565b90506143f0565b6143ed6143ca670de0b6b3a76400008c612eff565b90505b8b81101561440957600080965096505050505050614417565b8b9003955060019450505050505b97509795505050505050565b60008060006144358989888888614bf5565b9050614445866119a4898b614dda565b97508781101561445c5760008092509250506144db565b87810361446a8186886119aa565b9050670de0b6b3a76400008110614497576144906143ca670de0b6b3a764000089612eff565b90506144af565b6144ac6143ca670de0b6b3a7640000896112f2565b90505b6144b98186612eff565b9050808a10156144d1576000809350935050506144db565b8903925060019150505b965096945050505050565b60008060006144f88888888888614bf5565b90506000614523670de0b6b3a764000061451288886112f2565b61451c9190614dda565b8390612eff565b9050670de0b6b3a76400008110614550576145496143ca670de0b6b3a764000089612eff565b9050614568565b6145656143ca670de0b6b3a7640000896112f2565b90505b8088101561457e57600080935093505050614588565b8703925060019150505b9550959350505050565b60008060006145a48989888888614bf5565b9050868810156145bb5760008092509250506144db565b96869003966145ca8887612e8a565b9750878110156145e15760008092509250506144db565b8781036145ef8186886119aa565b9050670de0b6b3a7640000811061461c576146156143ca670de0b6b3a764000089612eff565b9050614634565b6146316143ca670de0b6b3a7640000896112f2565b90505b61463e8186612eff565b905089811015614656576000809350935050506144db565b9890980398600198509650505050505050565b600080600061467b8888888888614bc6565b9050600061469f670de0b6b3a76400006146958888612eff565b6128889190614dda565b9050670de0b6b3a764000081106146cc576146c56143ca670de0b6b3a7640000896112f2565b90506146e4565b6146e16143ca670de0b6b3a764000089612eff565b90505b6146ee81866112f2565b90508881101561470657600080935093505050614588565b97909703976001975095505050505050565b602083015160009061472a9084612eff565b604085015161473a9084906112f2565b1015801561430f5750602084015161476390846103d8633b9aca00670de0b6b3a7640000614dda565b6040850151614773908490612eff565b1115949350505050565b60008060008360e001511361479757506000928392509050565b60006147a684600001516135b8565b905060006147d28560400151866060015187604001516147c69190614dda565b602088015191906119aa565b9050600082126147f957808210156147ec5781900361480f565b5060009485945092505050565b61480282615042565b61480c9082614dda565b90505b60e085015160c08601516148249183906119aa565b9050808560c00151101561483f575060009485945092505050565b808560c00151036001935093505050915091565b600080600080841261487757855160400151614870908590614dda565b90506148b2565b600061488285615042565b8751604001519091508110156148a25786516040015181900391506148b0565b600080935093505050611aeb565b505b8551805160209091015160009182916148cb9190612e4e565b91509150806148e35760008094509450505050611aeb565b875160e08101516040909101516000916149189161490c916149059190612e8a565b8a9061195f565b6101008b015190612eff565b895160e081015160809091015161494391614937916119a4908861195f565b8b516060015190612eff565b61494d9190614dda565b905060006149856149796149728c6000015160e0015188612e8a90919063ffffffff16565b8b90612b6a565b6101008c0151906112f2565b9050808210156149a057600080965096505050505050611aeb565b808203915060006149e2858c60000151604001518d6000015160e00151670de0b6b3a76400006149d09190614dc7565b8e516060810151608090910151614bf5565b90506000614a0c8c6000015160e00151670de0b6b3a7640000614a059190614dc7565b8890612e8a565b905080821015614a29576000809850985050505050505050611aeb565b8b51608081015160609091015191830391614a459183916119aa565b9050670de0b6b3a76400008110614a89578b5160e00151614a82906143ca90614a7690670de0b6b3a7640000614dc7565b8e5160e0015190612eff565b9050614ab8565b8b5160e00151614ab5906143ca90614aa990670de0b6b3a7640000614dc7565b8e5160e00151906112f2565b90505b8b5160600151614acb90859083906119aa565b935083670de0b6b3a76400001115614aef5783670de0b6b3a7640000039350614b03565b600060019850985050505050505050611aeb565b60008c60e0015112614b665760c08c015160e08d0151614b2291612eff565b9250670de0b6b3a7640000831115614b47576000809850985050505050505050611aeb565b670de0b6b3a76400009290920391614b5f848461195f565b9350614b9b565b614b98614b7f8d60c001518e60e0015161097890615042565b614b9190670de0b6b3a7640000614dda565b859061195f565b93505b50919a60019a5098505050505050505050565b6000808212614bbd578161130a565b61130a82615042565b6000614bd28585612e8a565b614beb614be3866119a4868b61195f565b8590856112b6565b61008b9190614dda565b6000614c018585612e8a565b614beb614c12866119a4868b612b6a565b8590856119aa565b604051806101200160405280614c8a6040518061018001604052806000815260200160008152602001600081526020016000815260200160008152602001600081526020016000815260200160008152602001600081526020016000815260200160008152602001600081525090565b815260200160008152602001600081526020016000815260200160008152602001600081526020016000815260200160008152602001600081525090565b60006060828403121561309c57600080fd5b600080600080600060a08688031215614cf257600080fd5b85359450602086013593506040860135925060608601359150608086013567ffffffffffffffff811115614d2557600080fd5b614d3188828901614cc8565b9150509295509295909350565b60008060008060808587031215614d5457600080fd5b843593506020850135925060408501359150606085013567ffffffffffffffff811115614d8057600080fd5b614d8c87828801614cc8565b91505092959194509250565b7f4e487b7100000000000000000000000000000000000000000000000000000000600052601160045260246000fd5b8181038181111561130a5761130a614d98565b8082018082111561130a5761130a614d98565b600060208284031215614dff57600080fd5b813573ffffffffffffffffffffffffffffffffffffffff81168114610ffe57600080fd5b600060208284031215614e3557600080fd5b81358015158114610ffe57600080fd5b60008083357fffffffffffffffffffffffffffffffffffffffffffffffffffffffffffffffe1843603018112614e7a57600080fd5b83018035915067ffffffffffffffff821115614e9557600080fd5b602001915036819003821315610a7457600080fd5b7f4e487b7100000000000000000000000000000000000000000000000000000000600052601260045260246000fd5b600082614ee857614ee8614eaa565b500690565b6dffffffffffffffffffffffffffff81811683821601908082111561121057611210614d98565b6fffffffffffffffffffffffffffffffff81811683821601908082111561121057611210614d98565b818103600083128015838313168383128216171561121057611210614d98565b808202811582820484141761130a5761130a614d98565b600060208284031215614f8657600080fd5b5051919050565b6fffffffffffffffffffffffffffffffff82811682821603908082111561121057611210614d98565b600f81810b9083900b016f7fffffffffffffffffffffffffffffff81137fffffffffffffffffffffffffffffffff800000000000000000000000000000008212171561130a5761130a614d98565b600081600f0b7fffffffffffffffffffffffffffffffff80000000000000000000000000000000810361503957615039614d98565b60000392915050565b60007f8000000000000000000000000000000000000000000000000000000000000000820361507357615073614d98565b5060000390565b808201828112600083128015821682158216171561509a5761509a614d98565b505092915050565b6000826150b1576150b1614eaa565b7fffffffffffffffffffffffffffffffffffffffffffffffffffffffffffffffff83147f80000000000000000000000000000000000000000000000000000000000000008314161561510557615105614d98565b50059056fea26469706673582212209172e82d93ba2d128da7e7483a01c26857d9ebab5ec7cd39d3bc71bbe386e1af64736f6c63430008140033",
  "linkReferences": {},
  "deployedLinkReferences": {}
}