{
  "_format": "hh-sol-artifact-1",
  "contractName": "LsETHTarget4Deployer",
  "sourceName": "contracts/src/deployers/lseth/LsETHTarget4Deployer.sol",
  "abi": [
    {
      "inputs": [
        {
          "components": [
            {
              "internalType": "contract IERC20",
              "name": "baseToken",
              "type": "address"
            },
            {
              "internalType": "contract IERC20",
              "name": "vaultSharesToken",
              "type": "address"
            },
            {
              "internalType": "address",
              "name": "linkerFactory",
              "type": "address"
            },
            {
              "internalType": "bytes32",
              "name": "linkerCodeHash",
              "type": "bytes32"
            },
            {
              "internalType": "uint256",
              "name": "initialVaultSharePrice",
              "type": "uint256"
            },
            {
              "internalType": "uint256",
              "name": "minimumShareReserves",
              "type": "uint256"
            },
            {
              "internalType": "uint256",
              "name": "minimumTransactionAmount",
              "type": "uint256"
            },
            {
              "internalType": "uint256",
              "name": "positionDuration",
              "type": "uint256"
            },
            {
              "internalType": "uint256",
              "name": "checkpointDuration",
              "type": "uint256"
            },
            {
              "internalType": "uint256",
              "name": "timeStretch",
              "type": "uint256"
            },
            {
              "internalType": "address",
              "name": "governance",
              "type": "address"
            },
            {
              "internalType": "address",
              "name": "feeCollector",
              "type": "address"
            },
            {
              "internalType": "address",
              "name": "sweepCollector",
              "type": "address"
            },
            {
              "components": [
                {
                  "internalType": "uint256",
                  "name": "curve",
                  "type": "uint256"
                },
                {
                  "internalType": "uint256",
                  "name": "flat",
                  "type": "uint256"
                },
                {
                  "internalType": "uint256",
                  "name": "governanceLP",
                  "type": "uint256"
                },
                {
                  "internalType": "uint256",
                  "name": "governanceZombie",
                  "type": "uint256"
                }
              ],
              "internalType": "struct IHyperdrive.Fees",
              "name": "fees",
              "type": "tuple"
            }
          ],
          "internalType": "struct IHyperdrive.PoolConfig",
          "name": "_config",
          "type": "tuple"
        },
        {
          "internalType": "bytes",
          "name": "",
          "type": "bytes"
        },
        {
          "internalType": "bytes32",
          "name": "_salt",
          "type": "bytes32"
        }
      ],
      "name": "deploy",
      "outputs": [
        {
          "internalType": "address",
          "name": "",
          "type": "address"
        }
      ],
      "stateMutability": "nonpayable",
      "type": "function"
    }
  ],
  "bytecode": "0x608060405234801561001057600080fd5b50615cc7806100206000396000f3fe608060405234801561001057600080fd5b506004361061002b5760003560e01c8063195d4bfc14610030575b600080fd5b61004361003e366004610278565b61006c565b60405173ffffffffffffffffffffffffffffffffffffffff909116815260200160405180910390f35b6040805133602082015290810182905260009060600160405160208183030381529060405280519060200120846040516100a5906100d8565b6100af91906103a2565b8190604051809103906000f59050801580156100cf573d6000803e3d6000fd5b50949350505050565b61578e8061050483390190565b7f4e487b7100000000000000000000000000000000000000000000000000000000600052604160045260246000fd5b6040516101c0810167ffffffffffffffff81118282101715610138576101386100e5565b60405290565b803573ffffffffffffffffffffffffffffffffffffffff8116811461016257600080fd5b919050565b60006080828403121561017957600080fd5b6040516080810181811067ffffffffffffffff8211171561019c5761019c6100e5565b8060405250809150823581526020830135602082015260408301356040820152606083013560608201525092915050565b600082601f8301126101de57600080fd5b813567ffffffffffffffff808211156101f9576101f96100e5565b604051601f83017fffffffffffffffffffffffffffffffffffffffffffffffffffffffffffffffe0908116603f0116810190828211818310171561023f5761023f6100e5565b8160405283815286602085880101111561025857600080fd5b836020870160208301376000602085830101528094505050505092915050565b600080600083850361026081121561028f57600080fd5b6102208082121561029f57600080fd5b6102a7610114565b91506102b28661013e565b82526102c06020870161013e565b60208301526102d16040870161013e565b6040830152606086013560608301526080860135608083015260a086013560a083015260c086013560c083015260e086013560e083015261010080870135818401525061012080870135818401525061014061032e81880161013e565b9083015261016061034087820161013e565b9083015261018061035287820161013e565b908301526101a061036588888301610167565b9083015290935084013567ffffffffffffffff81111561038457600080fd5b610390868287016101cd565b92505061024084013590509250925092565b815173ffffffffffffffffffffffffffffffffffffffff168152610220810160208301516103e8602084018273ffffffffffffffffffffffffffffffffffffffff169052565b506040830151610410604084018273ffffffffffffffffffffffffffffffffffffffff169052565b50606083015160608301526080830151608083015260a083015160a083015260c083015160c083015260e083015160e0830152610100808401518184015250610120808401518184015250610140808401516104838285018273ffffffffffffffffffffffffffffffffffffffff169052565b50506101608381015173ffffffffffffffffffffffffffffffffffffffff81168483015250506101808381015173ffffffffffffffffffffffffffffffffffffffff81168483015250506101a08381015180518483015260208101516101c085015260408101516101e0850152606081015161020085015250509291505056fe6102406040523480156200001257600080fd5b506040516200578e3803806200578e8339810160408190526200003591620001e1565b600160005580516001600160a01b039081166080908152602080840151831660a0908152918401516101a0908152918401516101c05260c0808501516101e0526101008086015190915260e0808601519052610120808601519091529184018051519092528151015161014090815281516040908101516101609081529251606090810151610180908152918601518516610200528501516102205290840151600a80546001600160a01b03199081169286169290921790559184015160088054841691851691909117905590920151600980549093169116179055620002d4565b6040516101c081016001600160401b03811182821017156200014957634e487b7160e01b600052604160045260246000fd5b60405290565b80516001600160a01b03811681146200016757600080fd5b919050565b6000608082840312156200017f57600080fd5b604051608081016001600160401b0381118282101715620001b057634e487b7160e01b600052604160045260246000fd5b8060405250809150825181526020830151602082015260408301516040820152606083015160608201525092915050565b60006102208284031215620001f557600080fd5b620001ff62000117565b6200020a836200014f565b81526200021a602084016200014f565b60208201526200022d604084016200014f565b6040820152606083015160608201526080830151608082015260a083015160a082015260c083015160c082015260e083015160e08201526101008084015181830152506101208084015181830152506101406200028c8185016200014f565b90820152610160620002a08482016200014f565b90820152610180620002b48482016200014f565b908201526101a0620002c9858583016200016c565b908201529392505050565b60805160a05160c05160e05161010051610120516101405161016051610180516101a0516101c0516101e051610200516102205161535e62000430600039600050506000505060008181610113015281816103eb0152818161060901526111560152600081816111300152818161166e015281816120ba0152818161211d0152818161285801528181612cdc01528181612fa40152612fe90152600081816101a30152818161110a015281816114c9015261154301526000611c06015260008181611d5901528181612b030152612b7c015260008181610d30015281816115dd01528181611d2d0152612b5001526000612acf0152600081816101e50152818161117c015281816114a701526115640152600081816101c4015281816106d101528181610c62015261275d015260008181610acc01528181610b6b0152610bd9015260008181611a8701526129c201526000505061535e6000f3fe6080604052600436106100295760003560e01c80634c2ac1d91461002e578063dbbe807014610054575b600080fd5b61004161003c366004614ea3565b61007c565b6040519081526020015b60405180910390f35b610067610062366004614f07565b610097565b6040805192835260208301919091520161004b565b600061008b86868686866100b4565b90505b95945050505050565b6000806100a6868686866105a9565b915091505b94509492505050565b60006100be610882565b600554610100900460ff1615610100576040517f21081abf00000000000000000000000000000000000000000000000000000000815260040160405180910390fd5b6101086108c5565b610111826108ff565b7f000000000000000000000000000000000000000000000000000000000000000086101561016b576040517f423bbb4600000000000000000000000000000000000000000000000000000000815260040160405180910390fd5b600061020961017861095e565b60015470010000000000000000000000000000000090046fffffffffffffffffffffffffffffffff167f00000000000000000000000000000000000000000000000000000000000000007f00000000000000000000000000000000000000000000000000000000000000007f000000000000000000000000000000000000000000000000000000000000000061098d565b90508481108061021857508381115b1561024f576040517f76c22a2200000000000000000000000000000000000000000000000000000000815260040160405180910390fd5b60008061025c89866109d3565b9150915061027361026b610ac5565b826004610afb565b506006547f03000000000000000000000000000000000000000000000000000000000000006000908152600e6020527fd2d06a3478833ecfcc0864e3afb188a7ff21caef68ea336a6e4f79f78f6fb3e95490916102e4916fffffffffffffffffffffffffffffffff90911690614f90565b6000808052600e6020527fe710864318d4a32f37d6ce54cb3fadbef648dd12d8dbdf53973564d56b7f881c549192509061031f908390614fa3565b9050600080600061032f8661104f565b905061033a81611211565b915061034d61034888611261565b6112c1565b6001546fffffffffffffffffffffffffffffffff8082168352600354600f0b602084015270010000000000000000000000000000000090910416604082015261039581611211565b9250818310156103d1576040517f309b2a4200000000000000000000000000000000000000000000000000000000815260040160405180910390fd5b6103e784836103e08187614f90565b9190611300565b98507f0000000000000000000000000000000000000000000000000000000000000000891015610443576040517f423bbb4600000000000000000000000000000000000000000000000000000000815260040160405180910390fd5b508b61044f8e8a61133c565b1015610487576040517fc972651700000000000000000000000000000000000000000000000000000000815260040160405180910390fd5b61049f600061049960208c018c614fb6565b8a61135a565b60006104aa8661141c565b9050806104e3576040517f8bdf918d00000000000000000000000000000000000000000000000000000000815260040160405180910390fd5b600084156104fa576104f5838661133c565b6104fd565b60005b90508e600061050d828a8f611429565b90508c61051d6020820182614fb6565b73ffffffffffffffffffffffffffffffffffffffff167fa59daf574c5c8db34377de83bceea2aa1433cc506d656f5e8f46e5f4b5c58a868e848e6105676040870160208801614ffa565b60408051948552602085019390935291830152151560608201526080810187905260a00160405180910390a250505050505050505050505061008e6001600055565b6000806105b4610882565b600554610100900460ff16156105f6576040517f21081abf00000000000000000000000000000000000000000000000000000000815260040160405180910390fd5b6105fe6108c5565b610607836108ff565b7f0000000000000000000000000000000000000000000000000000000000000000861015610661576040517f423bbb4600000000000000000000000000000000000000000000000000000000815260040160405180910390fd5b600061066b611458565b9050848110156106a7576040517f42af972b00000000000000000000000000000000000000000000000000000000815260040160405180910390fd5b60006106b1610ac5565b905060006106c86106c0610ac5565b846004610afb565b905060006106f67f000000000000000000000000000000000000000000000000000000000000000084614fa3565b905060008060006107088d888761146b565b92509250925080600b60008282546107209190614fa3565b909155506000905061073384898d611617565b9050808d101561076f576040517fc972651700000000000000000000000000000000000000000000000000000000815260040160405180910390fd5b610779818c6109d3565b50506107878e848a8861163f565b600061079460028761191b565b905060008f90506107b8828e60000160208101906107b29190614fb6565b8361135a565b848a8e846107c96020830183614fb6565b73ffffffffffffffffffffffffffffffffffffffff167fb354b32bd86ebd9f0968a338e5c2873d7f0d473aa7a668c2488e66038380258b8c8c61080d8b8888611981565b61081d6040880160208901614ffa565b610833898f8c61082d9190614f90565b906119a9565b6040805195865260208601949094529284019190915215156060830152608082015260a0810188905260c00160405180910390a350979c50929a50505050505050505050506100ab6001600055565b6002600054036108be576040517f3ee5aeb500000000000000000000000000000000000000000000000000000000815260040160405180910390fd5b6002600055565b34156108fd576040517f1574f9f300000000000000000000000000000000000000000000000000000000815260040160405180910390fd5b565b600061090e6020830183614fb6565b73ffffffffffffffffffffffffffffffffffffffff160361095b576040517ff0dd15fd00000000000000000000000000000000000000000000000000000000815260040160405180910390fd5b50565b600154600354600091610988916fffffffffffffffffffffffffffffffff90911690600f0b6119be565b905090565b60008061099c878787866119dd565b90506109c86109b082866301e133806119f4565b6109c283670de0b6b3a7640000614f90565b9061133c565b979650505050505050565b600080806109e76040850160208601614ffa565b15610a0c57610a02856109fd6040870187615017565b611a38565b9093509050610a28565b5034610a2485610a1f6040870187615017565b611a6d565b8492505b610a30611458565b91508015610abc57604051600090339083908381818185875af1925050503d8060008114610a7a576040519150601f19603f3d011682016040523d82523d6000602084013e610a7f565b606091505b5050905080610aba576040517f90b8ec1800000000000000000000000000000000000000000000000000000000815260040160405180910390fd5b505b505b9250929050565b6000610af17f0000000000000000000000000000000000000000000000000000000000000000426150ab565b6109889042614f90565b600083815260076020526040812080546fffffffffffffffffffffffffffffffff16151580610b2957504285115b15610b4857546fffffffffffffffffffffffffffffffff169050611048565b600080610b53610ac5565b9050808703610b6457859150610c07565b6000610b907f000000000000000000000000000000000000000000000000000000000000000089614fa3565b90505b6000818152600760205260409020546fffffffffffffffffffffffffffffffff1692508181148015610bc3575082155b15610bcc578692505b82600003610c0557610bfe7f000000000000000000000000000000000000000000000000000000000000000082614fa3565b9050610b93565b505b610c1082611ab4565b83547fffffffffffffffffffffffffffffffff00000000000000000000000000000000166fffffffffffffffffffffffffffffffff91909116178355610c5586611b00565b5060009050600781610c877f00000000000000000000000000000000000000000000000000000000000000008b614f90565b815260208101919091526040016000908120546fffffffffffffffffffffffffffffffff169150610cb960028a61191b565b6000818152600e60205260408120549192508a8a8315610e3c5760019250600080610ce886898c866000611d16565b9150915080600b6000828254610cfe9190614fa3565b90915550610d1a905086600084610d1481611261565b88611de5565b610d248183614fa3565b9150610d5486838a8d877f000000000000000000000000000000000000000000000000000000000000000061200c565b9150610d68610d6383856119a9565b612050565b60058054600290610d909084906201000090046dffffffffffffffffffffffffffff166150bf565b92506101000a8154816dffffffffffffffffffffffffffff02191690836dffffffffffffffffffffffffffff160217905550610dcb82611ab4565b60058054601090610e0390849070010000000000000000000000000000000090046fffffffffffffffffffffffffffffffff166150e6565b92506101000a8154816fffffffffffffffffffffffffffffffff02191690836fffffffffffffffffffffffffffffffff16021790555050505b6000610e4960018461191b565b6000818152600e60205260409020549091508015610f955760019450600080610e76838b8e886001611d16565b9150915080600b6000828254610e8c9190614fa3565b90915550610ea8905083600084610ea281611261565b8a61209a565b610eb28183614f90565b9150610ec1610d6383876119a9565b60058054600290610ee99084906201000090046dffffffffffffffffffffffffffff166150bf565b92506101000a8154816dffffffffffffffffffffffffffff02191690836dffffffffffffffffffffffffffff160217905550610f2482611ab4565b60058054601090610f5c90849070010000000000000000000000000000000090046fffffffffffffffffffffffffffffffff166150e6565b92506101000a8154816fffffffffffffffffffffffffffffffff02191690836fffffffffffffffffffffffffffffffff16021790555050505b8415610fcd57610fc1610fa787611261565b610fb083611261565b610fba919061510f565b6000612354565b610fcb8e8e612426565b505b6000610fd88f612619565b5090508f7fff888cf98d2696e95c8c39aa98c9ad55a5378008f7a56614c9353b7137a57ab78c868a8686604051611031959493929190948552602085019390935260408401919091526060830152608082015260a00190565b60405180910390a250989a50505050505050505050505b9392505050565b6110b36040518061018001604052806000815260200160008152602001600081526020016000815260200160008152602001600081526020016000815260200160008152602001600081526020016000815260200160008152602001600081525090565b60408051610180810182526001546fffffffffffffffffffffffffffffffff8082168352600354600f0b602084015270010000000000000000000000000000000091829004811693830193909352606082018590527f000000000000000000000000000000000000000000000000000000000000000060808301527f000000000000000000000000000000000000000000000000000000000000000060a08301527f000000000000000000000000000000000000000000000000000000000000000060c08301527f000000000000000000000000000000000000000000000000000000000000000060e083015260025404821661010082015260045490916101208301916111c19116612712565b81526003546fffffffffffffffffffffffffffffffff700100000000000000000000000000000000918290048116602084015260045460409093019261120992900416612712565b905292915050565b600080600061121f84612788565b915091508061125a576040517faa2c651600000000000000000000000000000000000000000000000000000000815260040160405180910390fd5b5092915050565b60007f7fffffffffffffffffffffffffffffffffffffffffffffffffffffffffffffff8211156112bd576040517f72dd4e0200000000000000000000000000000000000000000000000000000000815260040160405180910390fd5b5090565b6112ca81612815565b61095b576040517f5044b7f500000000000000000000000000000000000000000000000000000000815260040160405180910390fd5b6000827fffffffffffffffffffffffffffffffffffffffffffffffffffffffffffffffff048411830215820261133557600080fd5b5091020490565b600061135183670de0b6b3a764000084611300565b90505b92915050565b6000838152600d6020908152604080832073ffffffffffffffffffffffffffffffffffffffff8616845290915281208054839290611399908490614fa3565b90915550506000838152600e6020526040812080548392906113bc908490614fa3565b9091555050604080518481526020810183905273ffffffffffffffffffffffffffffffffffffffff84169160009133917fc3d58168c5ae7397731d063d5bbf3d657854427343f4c083240f7aacaa2d0f62910160405180910390a4505050565b6000611354826004612426565b600061143b6040830160208401614ffa565b15611447575082611048565b61145184846119a9565b9050611048565b6000610988670de0b6b3a7640000612990565b60008060006114ed61147b61095e565b60015470010000000000000000000000000000000090046fffffffffffffffffffffffffffffffff16887f0000000000000000000000000000000000000000000000000000000000000000897f0000000000000000000000000000000000000000000000000000000000000000612a42565b9150856114fa8387612a63565b111561150857611508612a78565b600080600061158861151861095e565b60015470010000000000000000000000000000000090046fffffffffffffffffffffffffffffffff167f00000000000000000000000000000000000000000000000000000000000000007f00000000000000000000000000000000000000000000000000000000000000006119dd565b905061159e89670de0b6b3a7640000838b612aaa565b509194509092506115b190508284614f90565b6115bb9086614f90565b9450611607886116018b6115cf868a614f90565b8b6115da8e82612bb8565b8e7f0000000000000000000000000000000000000000000000000000000000000000612bce565b90612a63565b9550909250505093509350939050565b60006116296040830160208401614ffa565b15611635575082611048565b611451848461133c565b6001546fffffffffffffffffffffffffffffffff168381101561166457611664612a78565b60035490849003907f00000000000000000000000000000000000000000000000000000000000000009061169c908390600f0b6119be565b10156116aa576116aa612a78565b600354611725906117209070010000000000000000000000000000000090046fffffffffffffffffffffffffffffffff166116ed670de0b6b3a76400008661512f565b60045470010000000000000000000000000000000090046fffffffffffffffffffffffffffffffff169190896001612bf3565b611ab4565b600480546fffffffffffffffffffffffffffffffff92831670010000000000000000000000000000000002921691909117905561176181611ab4565b600180547fffffffffffffffffffffffffffffffff00000000000000000000000000000000166fffffffffffffffffffffffffffffffff929092169190911790556117ab85611ab4565b600180546010906117e390849070010000000000000000000000000000000090046fffffffffffffffffffffffffffffffff166150e6565b92506101000a8154816fffffffffffffffffffffffffffffffff02191690836fffffffffffffffffffffffffffffffff16021790555061182285611ab4565b6003805460109061185a90849070010000000000000000000000000000000090046fffffffffffffffffffffffffffffffff166150e6565b92506101000a8154816fffffffffffffffffffffffffffffffff02191690836fffffffffffffffffffffffffffffffff160217905550600061189b83612c91565b90506118b9816118aa88611261565b6118b4908461510f565b612354565b6118c284612cd5565b6118ce576118ce612a78565b60006118d98561141c565b905080611912576040517f8bdf918d00000000000000000000000000000000000000000000000000000000815260040160405180910390fd5b50505050505050565b60007effffffffffffffffffffffffffffffffffffffffffffffffffffffffffffff821115611976576040517fb7d0949700000000000000000000000000000000000000000000000000000000815260040160405180910390fd5b5060f89190911b1790565b60006119936040830160208401614ffa565b156119a257611451848461133c565b5082611048565b60006113518383670de0b6b3a7640000611300565b6000806119cb8484612d47565b90925090508061125a5761125a612a78565b600061008e826119ee858888611300565b90612d83565b6000827fffffffffffffffffffffffffffffffffffffffffffffffffffffffffffffffff0484118302158202611a2957600080fd5b50910281810615159190040190565b6000806040517f6a17288200000000000000000000000000000000000000000000000000000000815260040160405180910390fd5b611aaf73ffffffffffffffffffffffffffffffffffffffff7f000000000000000000000000000000000000000000000000000000000000000016333086612df8565b505050565b60006fffffffffffffffffffffffffffffffff8211156112bd576040517f1e15f2a200000000000000000000000000000000000000000000000000000000815260040160405180910390fd5b6005546000908190611b3990849070010000000000000000000000000000000090046fffffffffffffffffffffffffffffffff166119a9565b6005546201000090046dffffffffffffffffffffffffffff169250905081811115611d11576000611b6a8383614f90565b9050611b796117208286612e93565b60058054601090611bb190849070010000000000000000000000000000000090046fffffffffffffffffffffffffffffffff16615146565b92506101000a8154816fffffffffffffffffffffffffffffffff02191690836fffffffffffffffffffffffffffffffff1602179055506000611bfc858361133c90919063ffffffff16565b90506000611c2a827f00000000000000000000000000000000000000000000000000000000000000006119a9565b905080600b6000828254611c3e9190614fa3565b90915550611c4e90508183614f90565b9150611c5982611ab4565b60018054600090611c7d9084906fffffffffffffffffffffffffffffffff166150e6565b92506101000a8154816fffffffffffffffffffffffffffffffff02191690836fffffffffffffffffffffffffffffffff160217905550611cbc82612ea8565b60038054600090611cd1908490600f0b61516f565b92506101000a8154816fffffffffffffffffffffffffffffffff0219169083600f0b6fffffffffffffffffffffffffffffffff1602179055508493505050505b915091565b600080611d23878561133c565b91506000611d51837f00000000000000000000000000000000000000000000000000000000000000006119a9565b9050611d7d817f00000000000000000000000000000000000000000000000000000000000000006119a9565b91508315611da057611d8f8282614f90565b611d999084614f90565b9250611db7565b611daa8282614f90565b611db49084614fa3565b92505b86861015611dda57611dca838789611300565b9250611dd7828789611300565b91505b509550959350505050565b60035470010000000000000000000000000000000090046fffffffffffffffffffffffffffffffff16611e5a61172082611e27670de0b6b3a76400008661512f565b60045470010000000000000000000000000000000090046fffffffffffffffffffffffffffffffff1691908a6000612bf3565b600480546fffffffffffffffffffffffffffffffff928316700100000000000000000000000000000000029216919091179055611e9686611ab4565b611ea09082615146565b600380546fffffffffffffffffffffffffffffffff928316700100000000000000000000000000000000029216919091179055611edc84611ab4565b60018054600090611f009084906fffffffffffffffffffffffffffffffff166150e6565b92506101000a8154816fffffffffffffffffffffffffffffffff02191690836fffffffffffffffffffffffffffffffff160217905550611f3f83612ef4565b60038054600090611f54908490600f0b61516f565b92506101000a8154816fffffffffffffffffffffffffffffffff0219169083600f0b6fffffffffffffffffffffffffffffffff160217905550611f9685611ab4565b60018054601090611fce90849070010000000000000000000000000000000090046fffffffffffffffffffffffffffffffff16615146565b92506101000a8154816fffffffffffffffffffffffffffffffff02191690836fffffffffffffffffffffffffffffffff160217905550505050505050565b60008061201e846109c28a888a611300565b905061202b888486611300565b6120359082614fa3565b9050868111156120455786810391505b509695505050505050565b60006dffffffffffffffffffffffffffff8211156112bd576040517f10d62a2e00000000000000000000000000000000000000000000000000000000815260040160405180910390fd5b6001546fffffffffffffffffffffffffffffffff16838110806120e557507f00000000000000000000000000000000000000000000000000000000000000006120e38583614f90565b105b156120f2576120f2612a78565b6003549084900390600f0b612107848261510f565b90508361211386611261565b13801561214857507f000000000000000000000000000000000000000000000000000000000000000061214683836119be565b105b1561215557612155612a78565b60025470010000000000000000000000000000000090046fffffffffffffffffffffffffffffffff166121b661172082612197670de0b6b3a76400008861512f565b6004546fffffffffffffffffffffffffffffffff1691908c6000612bf3565b600480547fffffffffffffffffffffffffffffffff00000000000000000000000000000000166fffffffffffffffffffffffffffffffff929092169190911790556122018882614f90565b905061220c81611ab4565b600280546fffffffffffffffffffffffffffffffff92831670010000000000000000000000000000000002921691909117905561224883611ab4565b600180547fffffffffffffffffffffffffffffffff00000000000000000000000000000000166fffffffffffffffffffffffffffffffff9290921691909117905561229282612ef4565b600380547fffffffffffffffffffffffffffffffff00000000000000000000000000000000166fffffffffffffffffffffffffffffffff929092169190911790556122dc87611ab4565b6001805460109061231490849070010000000000000000000000000000000090046fffffffffffffffffffffffffffffffff166150e6565b92506101000a8154816fffffffffffffffffffffffffffffffff02191690836fffffffffffffffffffffffffffffffff1602179055505050505050505050565b600061237d6123638483612f6a565b61236e846000612f6a565b612378919061510f565b612ef4565b9050600081600f0b13156123ed57600280548291906000906123b29084906fffffffffffffffffffffffffffffffff166150e6565b92506101000a8154816fffffffffffffffffffffffffffffffff02191690836fffffffffffffffffffffffffffffffff160217905550505050565b600081600f0b1215611aaf57612402816151bd565b600280546000906123b29084906fffffffffffffffffffffffffffffffff16615146565b6006547f03000000000000000000000000000000000000000000000000000000000000006000908152600e6020527fd2d06a3478833ecfcc0864e3afb188a7ff21caef68ea336a6e4f79f78f6fb3e95490918291612496916fffffffffffffffffffffffffffffffff1690614f90565b9050806000036124aa576001915050611354565b60006124b585612f79565b9050806000036124ca57600192505050611354565b6000806124d8838589613036565b91509150806124ee576000945050505050611354565b6000806124fb8489613143565b9150915061251961250b82611261565b612514906151fb565b612815565b92508261252f5760009650505050505050611354565b61253882611ab4565b6006805460009061255c9084906fffffffffffffffffffffffffffffffff166150e6565b92506101000a8154816fffffffffffffffffffffffffffffffff02191690836fffffffffffffffffffffffffffffffff16021790555061259b81611ab4565b600680546010906125d390849070010000000000000000000000000000000090046fffffffffffffffffffffffffffffffff166150e6565b92506101000a8154816fffffffffffffffffffffffffffffffff02191690836fffffffffffffffffffffffffffffffff1602179055506001965050505050505092915050565b60008060008061263061262b8661104f565b612788565b9150915080612646575060009485945092505050565b6000808611612656576000612660565b61266083876119a9565b600654600e6020527fd2d06a3478833ecfcc0864e3afb188a7ff21caef68ea336a6e4f79f78f6fb3e95460008080527fe710864318d4a32f37d6ce54cb3fadbef648dd12d8dbdf53973564d56b7f881c54939450926fffffffffffffffffffffffffffffffff909216916126d49190614fa3565b6126de9190614f90565b9050806000036126f75750600096879650945050505050565b6000612703838361133c565b98600198509650505050505050565b600080670de0b6b3a7640000612726610ac5565b612730919061512f565b905080831161274057600061274a565b61274a8184614f90565b9150611048612781670de0b6b3a76400007f000000000000000000000000000000000000000000000000000000000000000061512f565b839061133c565b600080600080600061279986613233565b91509150806127b057506000958695509350505050565b6127bd8660a00151611261565b6127c687613553565b836127d48960000151611261565b6127de9190615233565b6127e89190615233565b6127f2919061510f565b92505050600081121561280b5750600093849350915050565b9360019350915050565b6001546003546000916fffffffffffffffffffffffffffffffff80821692600f0b917001000000000000000000000000000000009004168380808061287d8787877f00000000000000000000000000000000000000000000000000000000000000008d6135b7565b9350935093509350806128995750600098975050505050505050565b8684146128eb576128a984611ab4565b600180547fffffffffffffffffffffffffffffffff00000000000000000000000000000000166fffffffffffffffffffffffffffffffff929092169190911790555b85831461293d576128fb83612ef4565b600380547fffffffffffffffffffffffffffffffff00000000000000000000000000000000166fffffffffffffffffffffffffffffffff929092169190911790555b8482146129815761294d82611ab4565b600180546fffffffffffffffffffffffffffffffff9283167001000000000000000000000000000000000292169190911790555b50600198975050505050505050565b6040517ff79c3f02000000000000000000000000000000000000000000000000000000008152600481018290526000907f000000000000000000000000000000000000000000000000000000000000000073ffffffffffffffffffffffffffffffffffffffff169063f79c3f0290602401602060405180830381865afa158015612a1e573d6000803e3d6000fd5b505050506040513d601f19601f82011682018060405250810190611354919061525b565b60006109c8878787612a5c88670de0b6b3a7640000614f90565b87876136cf565b60006113518383670de0b6b3a76400006119f4565b6040517fbb55fd2700000000000000000000000000000000000000000000000000000000815260040160405180910390fd5b6000808080612afb8786612af48b611601612acd8c670de0b6b3a7640000614f90565b7f000000000000000000000000000000000000000000000000000000000000000090612a63565b91906119f4565b9350612b27847f00000000000000000000000000000000000000000000000000000000000000006119a9565b91506000612b48612b4089670de0b6b3a7640000614f90565b8a90886119f4565b9050612b74817f0000000000000000000000000000000000000000000000000000000000000000612a63565b9350612ba0847f00000000000000000000000000000000000000000000000000000000000000006119a9565b612baa9084614fa3565b915050945094509450949050565b6000818311612bc75781611351565b5090919050565b600080612be684612be08a888a6119f4565b90612e93565b905061202b8884866119f4565b600082600003612c0457508461008e565b8115612c5757612c35612c178487614fa3565b612c2185876119a9565b612c2b888a6119a9565b6109c29190614fa3565b90506000612c4385886136f2565b905080821015612c51578091505b5061008e565b828503612c665750600061008e565b61008b612c738487614f90565b612c7d8587612a63565b612c87888a6119a9565b6109c29190614f90565b6000612cb9600e6000612ca560028661191b565b815260200190815260200160002054611261565b612ccb600e6000612ca560018761191b565b611354919061510f565b6000612d017f000000000000000000000000000000000000000000000000000000000000000083612a63565b600254612d2091906fffffffffffffffffffffffffffffffff16614fa3565b600154612d3f906fffffffffffffffffffffffffffffffff16846119a9565b101592915050565b600080600083612d5686611261565b612d60919061510f565b90506000811215612d78576000809250925050610abe565b946001945092505050565b600081600003612d9c5750670de0b6b3a7640000611354565b82600003612dac57506000611354565b6000612db783611261565b90506000612dcc612dc786611261565b613701565b9050818102612de3670de0b6b3a764000082615274565b9050612dee816139a2565b9695505050505050565b6040805173ffffffffffffffffffffffffffffffffffffffff85811660248301528416604482015260648082018490528251808303909101815260849091019091526020810180517bffffffffffffffffffffffffffffffffffffffffffffffffffffffff167f23b872dd00000000000000000000000000000000000000000000000000000000179052612e8d908590613bbb565b50505050565b600061135183670de0b6b3a7640000846119f4565b60006f7fffffffffffffffffffffffffffffff8211156112bd576040517fa5353be500000000000000000000000000000000000000000000000000000000815260040160405180910390fd5b60007fffffffffffffffffffffffffffffffff80000000000000000000000000000000821280612f3357506f7fffffffffffffffffffffffffffffff82135b156112bd576040517fa5353be500000000000000000000000000000000000000000000000000000000815260040160405180910390fd5b6000818313612bc75781611351565b6002546000908190612f9d906fffffffffffffffffffffffffffffffff1684612e93565b9050612fc97f000000000000000000000000000000000000000000000000000000000000000082614fa3565b6001546fffffffffffffffffffffffffffffffff161115613030576001547f0000000000000000000000000000000000000000000000000000000000000000906130269083906fffffffffffffffffffffffffffffffff16614f90565b6110489190614f90565b50919050565b61303e614de3565b60008061304a8461104f565b9050600061305782612788565b935090508261306c57506000915061313b9050565b600061309361308e8461016001518561014001516119a990919063ffffffff16565b611261565b6130b361308e856101200151866101000151612a6390919063ffffffff16565b6130bd919061510f565b604080516101208101825285815260208082019590955260008052600e85527fe710864318d4a32f37d6ce54cb3fadbef648dd12d8dbdf53973564d56b7f881c5481830152606081018a9052608081018b905260a0810192909252845160c08301529284015160e08201529290910151610100830152509150600190505b935093915050565b60008060008061315b8660c001518760e00151612d47565b915091508061317257600080935093505050610abe565b600061317e8784613c56565b9250905081158061318d575080155b156131a15760008094509450505050610abe565b60006131ad8883613d65565b9050806000036131c7576000809550955050505050610abe565b876060015181116131de5794509250610abe915050565b50606087015160006131f28986858b613e36565b90508060000361320d57600080965096505050505050610abe565b82811061322557600080965096505050505050610abe565b909890975095505050505050565b600080600061325861308e8561016001518661014001516119a990919063ffffffff16565b61327861308e866101200151876101000151612a6390919063ffffffff16565b613282919061510f565b905060008061329986600001518760200151612d47565b91509150806132b057506000958695509350505050565b60008313156133f157600083905060006132fe886000015189602001518a604001518b60a001518c60e00151670de0b6b3a76400006132ef9190614f90565b8d606001518e6080015161434d565b9350905082613317575060009788975095505050505050565b8181106133b5576000613351858a60400151858c60e00151670de0b6b3a76400006133429190614f90565b8d606001518e60800151614459565b945090508315801561336657508860c0015183105b1561337d5750600098600198509650505050505050565b8361339357506000988998509650505050505050565b61339c81611261565b6133a5906151fb565b9960019950975050505050505050565b60008860200151126133dd576133d48860a001518561308e9190614f90565b612703906151fb565b60a088015188516133d49161308e91614f90565b6000831215613544576000613405846151fb565b905060006134398489604001518a60e00151670de0b6b3a764000061342a9190614f90565b8b606001518c6080015161451c565b9350905082613452575060009788975095505050505050565b8181106134d757600061348c858a60400151858c60e00151670de0b6b3a764000061347d9190614f90565b8d606001518e608001516145c8565b94509050831580156134a157508860c0015183105b156134b85750600098600198509650505050505050565b836134ce57506000988998509650505050505050565b6133a581611261565b6000613509858a604001518b60e00151670de0b6b3a76400006134fa9190614f90565b8c606001518d6080015161469f565b945090508361352357506000988998509650505050505050565b6133a561353a8a6060015184866109c29190614f90565b61308e9083614fa3565b50600095600195509350505050565b600061358661308e836101200151670de0b6b3a76400006135749190614f90565b606085015161010086015191906119f4565b612ccb61308e846101600151670de0b6b3a76400006135a59190614f90565b60608601516101408701519190611300565b600080600080846000036135d6575087925086915085905060016136c3565b6000856135e28b611261565b6135ec9190615233565b90506135f787611261565b811215613612576000806000809450945094509450506136c3565b809450600089126136325761362b61308e868b8d611300565b9350613655565b61364961308e6136418b6151fb565b87908d6119f4565b613652906151fb565b93505b6000806136628c8c612d47565b91509150806136815760008060008096509650965096505050506136c3565b600061368d8888612d47565b92509050816136ad576000806000809750975097509750505050506136c3565b6136b88b8285611300565b955060019450505050505b95509550955095915050565b6000806136e0888888888888614459565b90925090508061204557612045612a78565b60008183116130305782611351565b600080821361373c576040517fe61b497500000000000000000000000000000000000000000000000000000000815260040160405180910390fd5b506fffffffffffffffffffffffffffffffff811160071b81811c67ffffffffffffffff1060061b1781811c63ffffffff1060051b1781811c61ffff1060041b1781811c60ff10600390811b90911782811c600f1060021b1782811c909110600190811b90911782811c90911017609f8181036060019290921b917fffffffffffffffffffffffffffffffffffffffffffffffffffffffffffffffa08201906137e69084901c611261565b6c465772b2bbbb5f824b15207a3081018102606090811d6d0388eaa27412d5aca026815d636e018202811d6d0df99ac502031bf953eff472fdcc018202811d6d13cdffb29d51d99322bdff5f2211018202811d6d0a0f742023def783a307a986912e018202811d6d01920d8043ca89b5239253284e42018202811d6c0b7a86d7375468fac667a0a527016c29508e458543d8aa4df2abee7883018302821d6d0139601a2efabe717e604cbb4894018302821d6d02247f7a7b6594320649aa03aba1018302821d7fffffffffffffffffffffffffffffffffffffff73c0c716a594e00d54e3c4cbc9018302821d7ffffffffffffffffffffffffffffffffffffffdc7b88c420e53a9890533129f6f01830290911d7fffffffffffffffffffffffffffffffffffffff465fda27eb4d63ded474e5f832019091027ffffffffffffffff5f6af8f7b3396644f18e157960000000000000000000000000105711340daa0d5f769dba1915cef59f0815a5506027d0267a36c0c95b3975ab3ee5b203a7614a3f75373f047d803ae7b6687f2b391909102017d57115e47018c7177eebf7cd370a3356a1b7863008a5ae8028c72b88642840160ae1d92915050565b60007ffffffffffffffffffffffffffffffffffffffffffffffffdb731c958f34d94c182136139d357506000919050565b680755bf798b4a1bf1e58212613a15576040517f73a2d6b100000000000000000000000000000000000000000000000000000000815260040160405180910390fd5b6503782dace9d9604e83901b059150600060606bb17217f7d1cf79abc9e3b39884821b056b80000000000000000000000001901d6bb17217f7d1cf79abc9e3b3988102909303927fffffffffffffffffffffffffffffffffffffffdbf3ccf1604d263450f02a550484018402606090811d6d0277594991cfc85f6e2461837cd9018502811d7fffffffffffffffffffffffffffffffffffffe5adedaa1cb095af9e4da10e363c018502811d6db1bbb201f443cf962f1a1d3db4a5018502811d7ffffffffffffffffffffffffffffffffffffd38dc772608b0ae56cce01296c0eb018502811d6e05180bb14799ab47a8a8cb2a527d57016d02d16720577bd19bf614176fe9ea6c10fe68e7fd37d0007b713f765087018702831d9081019087017ffffffffffffffffffffffffffffffffffffffe2c69812cf03b0763fd454a8f7e01810290921d6e0587f503bb6ea29d25fcb74019645001860279d835ebba824c98fb31b83b2ca45c000000000000000000000000018181059550929350909190612dee74029d9dc38563c32e5c2f6dc192ee70ef65f9978af3860260c38690031c611261565b6000613bdd73ffffffffffffffffffffffffffffffffffffffff84168361474e565b90508051600014158015613c02575080806020019051810190613c0091906152dc565b155b15611aaf576040517f5274afe700000000000000000000000000000000000000000000000000000000815273ffffffffffffffffffffffffffffffffffffffff841660048201526024015b60405180910390fd5b60008060008460a0015112613c7357505060808201516001610abe565b60008460a00151613c83906151fb565b90506000613cbf85876101000151886000015160e00151670de0b6b3a7640000613cad9190614f90565b8951606081015160809091015161451c565b93509050821580613cce575080155b15613ce157600080935093505050610abe565b6000613ced8383612e93565b9050670de0b6b3a76400008111613d295780670de0b6b3a7640000039450613d228760c00151866119a990919063ffffffff16565b9450613d38565b60008094509450505050610abe565b8660800151851115613d57578660800151600194509450505050610abe565b506001925050509250929050565b600080613d9b8460c001518560e00151866101000151876000015160a00151613d8d88611261565b613d96906151fb565b6135b7565b87516040810192909252602082019290925291909152905080613dc2576000915050611354565b6000613dd18560000151612788565b9250905081613de557600092505050611354565b84602001518110613dfb57600092505050611354565b600085606001518660400151613e119190614fa3565b9050613e2c828760200151836113009092919063ffffffff16565b612dee9082614f90565b60008085606001518660400151613e4d9190614fa3565b60208701516060880151919250600091613e679184611300565b90508660a00151600003613e7e5791506143459050565b60008080896004881015613e9157600497505b60005b888110156141ed57613ea6868b6136f2565b95506000613ecf8360c001518460e00151856101000151866000015160a00151613d8d8c611261565b86516040810192909252602082019290925291909152905080613efd57600098505050505050505050614345565b6000613f0c8e60000151612788565b9250905081613f275760009950505050505050505050614345565b613f3284828b61475c565b15613f4857879950505050505050505050614345565b60008460a0015113156140b157835180516020820151604083015160a084015160e090940151600094613f9c94939291613f8a90670de0b6b3a7640000614f90565b8a51606081015160809091015161434d565b9350905082613fb85760009a5050505050505050505050614345565b808560a00151106140af57613fcc856147c1565b909950925082613fe95760009a5050505050505050505050614345565b61400e8560c001518660e00151876101000151886000015160a00151613d8d8e611261565b8851604081019290925260208201929092529190915292508261403e5760009a5050505050505050505050614345565b845180516020820151604083015160a084015160e09094015161406e9490613f8a90670de0b6b3a7640000614f90565b935090508261408a5760009a5050505050505050505050614345565b8e60a0015181116140a757889a5050505050505050505050614345565b505050613e94565b505b60006140c2858f8760a00151614897565b935090508215806140db5750670de0b6b3a76400008110155b156140f35760009a5050505050505050505050614345565b80670de0b6b3a7640000039050600061412061308e87604001518860200151612a6390919063ffffffff16565b61412d61308e858e6119a9565b614137919061510f565b9050881580614155575061414a89614bf2565b61415382614bf2565b125b15614164578098508997508296505b600081131561418c5761417b8b6109c2838561133c565b614185908b614fa3565b99506141de565b60008112156141d55760006141a68c6109c28581866151fb565b90508a8110156141ba57808b039a506141cf565b60009c50505050505050505050505050614345565b506141de565b505050506141ed565b84600101945050505050613e94565b5060006142158260c001518360e00151846101000151856000015160a00151613d8d8b611261565b85516040810192909252602082019290925291909152905080614242576000975050505050505050614345565b60006142518360000151611211565b9050600061427361308e85604001518660200151612a6390919063ffffffff16565b61428061308e848c6119a9565b61428a919061510f565b905061429587614bf2565b61429e82614bf2565b12156142ab578795508194505b6142d26142c6655af3107a4000670de0b6b3a7640000614f90565b6020860151908b6119f4565b60408501516142e290879061133c565b10806143225750614310614304655af3107a4000670de0b6b3a7640000614fa3565b6020860151908b611300565b6040850151614320908790612e93565b115b156143395760009950505050505050505050614345565b50939750505050505050505b949350505050565b600080600088121561436f57614362886151fb565b61436c9087614fa3565b95505b60008061437c8b8b612d47565b91509150806143935760008093509350505061444d565b60006143a2838b8a8a8a614c0a565b905060006143bf6143b78a6119ee8a8e612a63565b8990896119f4565b9050808210156143d957600080955095505050505061444d565b808203670de0b6b3a7640000811061440e57614407614400670de0b6b3a76400008c61133c565b8290612d83565b9050614426565b614423614400670de0b6b3a76400008c612e93565b90505b8b81101561443f5760008096509650505050505061444d565b8b9003955060019450505050505b97509795505050505050565b600080600061446b8989888888614c39565b905061447b866119ee898b614fa3565b975087811015614492576000809250925050614511565b8781036144a08186886119f4565b9050670de0b6b3a764000081106144cd576144c6614400670de0b6b3a764000089612e93565b90506144e5565b6144e2614400670de0b6b3a76400008961133c565b90505b6144ef8186612e93565b9050808a101561450757600080935093505050614511565b8903925060019150505b965096945050505050565b600080600061452e8888888888614c39565b90506000614559670de0b6b3a7640000614548888861133c565b6145529190614fa3565b8390612e93565b9050670de0b6b3a764000081106145865761457f614400670de0b6b3a764000089612e93565b905061459e565b61459b614400670de0b6b3a76400008961133c565b90505b808810156145b4576000809350935050506145be565b8703925060019150505b9550959350505050565b60008060006145da8989888888614c39565b9050868810156145f1576000809250925050614511565b96869003966146008887612d83565b975087811015614617576000809250925050614511565b8781036146258186886119f4565b9050670de0b6b3a764000081106146525761464b614400670de0b6b3a764000089612e93565b905061466a565b614667614400670de0b6b3a76400008961133c565b90505b6146748186612e93565b90508981101561468c57600080935093505050614511565b9890980398600198509650505050505050565b60008060006146b18888888888614c0a565b905060006146d5670de0b6b3a76400006146cb8888612e93565b6127819190614fa3565b9050670de0b6b3a76400008110614702576146fb614400670de0b6b3a76400008961133c565b905061471a565b614717614400670de0b6b3a764000089612e93565b90505b614724818661133c565b90508881101561473c576000809350935050506145be565b97909703976001975095505050505050565b606061135183836000614c5e565b602083015160009061476e9084612e93565b604085015161477e90849061133c565b10158015614345575060208401516147a790846103e0633b9aca00670de0b6b3a7640000614fa3565b60408501516147b7908490612e93565b1115949350505050565b60008060008360e00151136147db57506000928392509050565b60006147ea8460000151613553565b9050600061481685604001518660600151876040015161480a9190614fa3565b602088015191906119f4565b90506000821261483d578082101561483057819003614853565b5060009485945092505050565b614846826151fb565b6148509082614fa3565b90505b60e085015160c08601516148689183906119f4565b9050808560c001511015614883575060009485945092505050565b808560c00151036001935093505050915091565b60008060008084126148bb578551604001516148b4908590614fa3565b90506148f6565b60006148c6856151fb565b8751604001519091508110156148e65786516040015181900391506148f4565b60008093509350505061313b565b505b85518051602090910151600091829161490f9190612d47565b9150915080614927576000809450945050505061313b565b875160e081015160409091015160009161495c91614950916149499190612d83565b8a906119a9565b6101008b015190612e93565b895160e08101516080909101516149879161497b916119ee90886119a9565b8b516060015190612e93565b6149919190614fa3565b905060006149c96149bd6149b68c6000015160e0015188612d8390919063ffffffff16565b8b90612a63565b6101008c01519061133c565b9050808210156149e45760008096509650505050505061313b565b80820391506000614a26858c60000151604001518d6000015160e00151670de0b6b3a7640000614a149190614f90565b8e516060810151608090910151614c39565b90506000614a508c6000015160e00151670de0b6b3a7640000614a499190614f90565b8890612d83565b905080821015614a6d57600080985098505050505050505061313b565b8b51608081015160609091015191830391614a899183916119f4565b9050670de0b6b3a76400008110614acd578b5160e00151614ac69061440090614aba90670de0b6b3a7640000614f90565b8e5160e0015190612e93565b9050614afc565b8b5160e00151614af99061440090614aed90670de0b6b3a7640000614f90565b8e5160e001519061133c565b90505b8b5160600151614b0f90859083906119f4565b935083670de0b6b3a76400001115614b335783670de0b6b3a7640000039350614b47565b60006001985098505050505050505061313b565b60008c60e0015112614baa5760c08c015160e08d0151614b6691612e93565b9250670de0b6b3a7640000831115614b8b57600080985098505050505050505061313b565b670de0b6b3a76400009290920391614ba384846119a9565b9350614bdf565b614bdc614bc38d60c001518e60e001516109c2906151fb565b614bd590670de0b6b3a7640000614fa3565b85906119a9565b93505b50919a60019a5098505050505050505050565b6000808212614c015781611354565b611354826151fb565b6000614c168585612d83565b614c2f614c27866119ee868b6119a9565b859085611300565b61008b9190614fa3565b6000614c458585612d83565b614c2f614c56866119ee868b612a63565b8590856119f4565b606081471015614c9c576040517fcd786059000000000000000000000000000000000000000000000000000000008152306004820152602401613c4d565b6000808573ffffffffffffffffffffffffffffffffffffffff168486604051614cc591906152f9565b60006040518083038185875af1925050503d8060008114614d02576040519150601f19603f3d011682016040523d82523d6000602084013e614d07565b606091505b5091509150612dee868383606082614d2757614d2282614da1565b611048565b8151158015614d4b575073ffffffffffffffffffffffffffffffffffffffff84163b155b15614d9a576040517f9996b31500000000000000000000000000000000000000000000000000000000815273ffffffffffffffffffffffffffffffffffffffff85166004820152602401613c4d565b5080611048565b805115614db15780518082602001fd5b6040517f1425ea4200000000000000000000000000000000000000000000000000000000815260040160405180910390fd5b604051806101200160405280614e536040518061018001604052806000815260200160008152602001600081526020016000815260200160008152602001600081526020016000815260200160008152602001600081526020016000815260200160008152602001600081525090565b815260200160008152602001600081526020016000815260200160008152602001600081526020016000815260200160008152602001600081525090565b60006060828403121561303057600080fd5b600080600080600060a08688031215614ebb57600080fd5b85359450602086013593506040860135925060608601359150608086013567ffffffffffffffff811115614eee57600080fd5b614efa88828901614e91565b9150509295509295909350565b60008060008060808587031215614f1d57600080fd5b843593506020850135925060408501359150606085013567ffffffffffffffff811115614f4957600080fd5b614f5587828801614e91565b91505092959194509250565b7f4e487b7100000000000000000000000000000000000000000000000000000000600052601160045260246000fd5b8181038181111561135457611354614f61565b8082018082111561135457611354614f61565b600060208284031215614fc857600080fd5b813573ffffffffffffffffffffffffffffffffffffffff8116811461104857600080fd5b801515811461095b57600080fd5b60006020828403121561500c57600080fd5b813561104881614fec565b60008083357fffffffffffffffffffffffffffffffffffffffffffffffffffffffffffffffe184360301811261504c57600080fd5b83018035915067ffffffffffffffff82111561506757600080fd5b602001915036819003821315610abe57600080fd5b7f4e487b7100000000000000000000000000000000000000000000000000000000600052601260045260246000fd5b6000826150ba576150ba61507c565b500690565b6dffffffffffffffffffffffffffff81811683821601908082111561125a5761125a614f61565b6fffffffffffffffffffffffffffffffff81811683821601908082111561125a5761125a614f61565b818103600083128015838313168383128216171561125a5761125a614f61565b808202811582820484141761135457611354614f61565b6fffffffffffffffffffffffffffffffff82811682821603908082111561125a5761125a614f61565b600f81810b9083900b016f7fffffffffffffffffffffffffffffff81137fffffffffffffffffffffffffffffffff800000000000000000000000000000008212171561135457611354614f61565b600081600f0b7fffffffffffffffffffffffffffffffff8000000000000000000000000000000081036151f2576151f2614f61565b60000392915050565b60007f8000000000000000000000000000000000000000000000000000000000000000820361522c5761522c614f61565b5060000390565b808201828112600083128015821682158216171561525357615253614f61565b505092915050565b60006020828403121561526d57600080fd5b5051919050565b6000826152835761528361507c565b7fffffffffffffffffffffffffffffffffffffffffffffffffffffffffffffffff83147f8000000000000000000000000000000000000000000000000000000000000000831416156152d7576152d7614f61565b500590565b6000602082840312156152ee57600080fd5b815161104881614fec565b6000825160005b8181101561531a5760208186018101518583015201615300565b50600092019182525091905056fea26469706673582212203a6d2b03cefe898e5cae347719bb29ddd835ce8792c5d9f9522c250dea193c2264736f6c63430008140033a26469706673582212205ff6ee3976ef2373d2183ada5ad4bcd14ee0024e7b73de2c52a620a726dbefb364736f6c63430008140033",
  "linkReferences": {},
  "deployedLinkReferences": {}
}