{
  "_format": "hh-sol-artifact-1",
  "contractName": "RETHTarget3",
  "sourceName": "contracts/src/instances/reth/RETHTarget3.sol",
  "abi": [
    {
      "inputs": [
        {
          "components": [
            {
              "internalType": "contract IERC20",
              "name": "baseToken",
              "type": "address"
            },
            {
              "internalType": "contract IERC20",
              "name": "vaultSharesToken",
              "type": "address"
            },
            {
              "internalType": "address",
              "name": "linkerFactory",
              "type": "address"
            },
            {
              "internalType": "bytes32",
              "name": "linkerCodeHash",
              "type": "bytes32"
            },
            {
              "internalType": "uint256",
              "name": "initialVaultSharePrice",
              "type": "uint256"
            },
            {
              "internalType": "uint256",
              "name": "minimumShareReserves",
              "type": "uint256"
            },
            {
              "internalType": "uint256",
              "name": "minimumTransactionAmount",
              "type": "uint256"
            },
            {
              "internalType": "uint256",
              "name": "positionDuration",
              "type": "uint256"
            },
            {
              "internalType": "uint256",
              "name": "checkpointDuration",
              "type": "uint256"
            },
            {
              "internalType": "uint256",
              "name": "timeStretch",
              "type": "uint256"
            },
            {
              "internalType": "address",
              "name": "governance",
              "type": "address"
            },
            {
              "internalType": "address",
              "name": "feeCollector",
              "type": "address"
            },
            {
              "internalType": "address",
              "name": "sweepCollector",
              "type": "address"
            },
            {
              "components": [
                {
                  "internalType": "uint256",
                  "name": "curve",
                  "type": "uint256"
                },
                {
                  "internalType": "uint256",
                  "name": "flat",
                  "type": "uint256"
                },
                {
                  "internalType": "uint256",
                  "name": "governanceLP",
                  "type": "uint256"
                },
                {
                  "internalType": "uint256",
                  "name": "governanceZombie",
                  "type": "uint256"
                }
              ],
              "internalType": "struct IHyperdrive.Fees",
              "name": "fees",
              "type": "tuple"
            }
          ],
          "internalType": "struct IHyperdrive.PoolConfig",
          "name": "_config",
          "type": "tuple"
        }
      ],
      "stateMutability": "nonpayable",
      "type": "constructor"
    },
    {
      "inputs": [
        {
          "internalType": "address",
          "name": "target",
          "type": "address"
        }
      ],
      "name": "AddressEmptyCode",
      "type": "error"
    },
    {
      "inputs": [
        {
          "internalType": "address",
          "name": "account",
          "type": "address"
        }
      ],
      "name": "AddressInsufficientBalance",
      "type": "error"
    },
    {
      "inputs": [],
      "name": "BelowMinimumContribution",
      "type": "error"
    },
    {
      "inputs": [],
      "name": "DistributeExcessIdleFailed",
      "type": "error"
    },
    {
      "inputs": [],
      "name": "ExpInvalidExponent",
      "type": "error"
    },
    {
      "inputs": [],
      "name": "FailedInnerCall",
      "type": "error"
    },
    {
      "inputs": [],
      "name": "InsufficientLiquidity",
      "type": "error"
    },
    {
      "inputs": [],
      "name": "InvalidCheckpointTime",
      "type": "error"
    },
    {
      "inputs": [],
      "name": "InvalidPresentValue",
      "type": "error"
    },
    {
      "inputs": [],
      "name": "InvalidTimestamp",
      "type": "error"
    },
    {
      "inputs": [],
      "name": "LnInvalidInput",
      "type": "error"
    },
    {
      "inputs": [],
      "name": "MinimumSharePrice",
      "type": "error"
    },
    {
      "inputs": [],
      "name": "MinimumTransactionAmount",
      "type": "error"
    },
    {
      "inputs": [],
      "name": "NotPayable",
      "type": "error"
    },
    {
      "inputs": [],
      "name": "OutputLimit",
      "type": "error"
    },
    {
      "inputs": [],
      "name": "PoolAlreadyInitialized",
      "type": "error"
    },
    {
      "inputs": [],
      "name": "PoolIsPaused",
      "type": "error"
    },
    {
      "inputs": [],
      "name": "ReentrancyGuardReentrantCall",
      "type": "error"
    },
    {
      "inputs": [],
      "name": "RestrictedZeroAddress",
      "type": "error"
    },
    {
      "inputs": [
        {
          "internalType": "address",
          "name": "token",
          "type": "address"
        }
      ],
      "name": "SafeERC20FailedOperation",
      "type": "error"
    },
    {
      "inputs": [],
      "name": "TransferFailed",
      "type": "error"
    },
    {
      "inputs": [],
      "name": "UnsafeCastToInt128",
      "type": "error"
    },
    {
      "inputs": [],
      "name": "UnsafeCastToInt256",
      "type": "error"
    },
    {
      "inputs": [],
      "name": "UnsafeCastToUint112",
      "type": "error"
    },
    {
      "inputs": [],
      "name": "UnsafeCastToUint128",
      "type": "error"
    },
    {
      "inputs": [],
      "name": "UnsupportedToken",
      "type": "error"
    },
    {
      "anonymous": false,
      "inputs": [
        {
          "indexed": true,
          "internalType": "address",
          "name": "provider",
          "type": "address"
        },
        {
          "indexed": false,
          "internalType": "uint256",
          "name": "lpAmount",
          "type": "uint256"
        },
        {
          "indexed": false,
          "internalType": "uint256",
          "name": "baseAmount",
          "type": "uint256"
        },
        {
          "indexed": false,
          "internalType": "uint256",
          "name": "vaultShareAmount",
          "type": "uint256"
        },
        {
          "indexed": false,
          "internalType": "bool",
          "name": "asBase",
          "type": "bool"
        },
        {
          "indexed": false,
          "internalType": "uint256",
          "name": "lpSharePrice",
          "type": "uint256"
        }
      ],
      "name": "AddLiquidity",
      "type": "event"
    },
    {
      "anonymous": false,
      "inputs": [
        {
          "indexed": true,
          "internalType": "address",
          "name": "owner",
          "type": "address"
        },
        {
          "indexed": true,
          "internalType": "address",
          "name": "spender",
          "type": "address"
        },
        {
          "indexed": false,
          "internalType": "uint256",
          "name": "value",
          "type": "uint256"
        }
      ],
      "name": "Approval",
      "type": "event"
    },
    {
      "anonymous": false,
      "inputs": [
        {
          "indexed": true,
          "internalType": "address",
          "name": "account",
          "type": "address"
        },
        {
          "indexed": true,
          "internalType": "address",
          "name": "operator",
          "type": "address"
        },
        {
          "indexed": false,
          "internalType": "bool",
          "name": "approved",
          "type": "bool"
        }
      ],
      "name": "ApprovalForAll",
      "type": "event"
    },
    {
      "anonymous": false,
      "inputs": [
        {
          "indexed": true,
          "internalType": "address",
          "name": "trader",
          "type": "address"
        },
        {
          "indexed": true,
          "internalType": "address",
          "name": "destination",
          "type": "address"
        },
        {
          "indexed": true,
          "internalType": "uint256",
          "name": "assetId",
          "type": "uint256"
        },
        {
          "indexed": false,
          "internalType": "uint256",
          "name": "maturityTime",
          "type": "uint256"
        },
        {
          "indexed": false,
          "internalType": "uint256",
          "name": "baseAmount",
          "type": "uint256"
        },
        {
          "indexed": false,
          "internalType": "uint256",
          "name": "vaultShareAmount",
          "type": "uint256"
        },
        {
          "indexed": false,
          "internalType": "bool",
          "name": "asBase",
          "type": "bool"
        },
        {
          "indexed": false,
          "internalType": "uint256",
          "name": "bondAmount",
          "type": "uint256"
        }
      ],
      "name": "CloseLong",
      "type": "event"
    },
    {
      "anonymous": false,
      "inputs": [
        {
          "indexed": true,
          "internalType": "address",
          "name": "trader",
          "type": "address"
        },
        {
          "indexed": true,
          "internalType": "address",
          "name": "destination",
          "type": "address"
        },
        {
          "indexed": true,
          "internalType": "uint256",
          "name": "assetId",
          "type": "uint256"
        },
        {
          "indexed": false,
          "internalType": "uint256",
          "name": "maturityTime",
          "type": "uint256"
        },
        {
          "indexed": false,
          "internalType": "uint256",
          "name": "baseAmount",
          "type": "uint256"
        },
        {
          "indexed": false,
          "internalType": "uint256",
          "name": "vaultShareAmount",
          "type": "uint256"
        },
        {
          "indexed": false,
          "internalType": "bool",
          "name": "asBase",
          "type": "bool"
        },
        {
          "indexed": false,
          "internalType": "uint256",
          "name": "basePayment",
          "type": "uint256"
        },
        {
          "indexed": false,
          "internalType": "uint256",
          "name": "bondAmount",
          "type": "uint256"
        }
      ],
      "name": "CloseShort",
      "type": "event"
    },
    {
      "anonymous": false,
      "inputs": [
        {
          "indexed": true,
          "internalType": "address",
          "name": "collector",
          "type": "address"
        },
        {
          "indexed": false,
          "internalType": "uint256",
          "name": "fees",
          "type": "uint256"
        }
      ],
      "name": "CollectGovernanceFee",
      "type": "event"
    },
    {
      "anonymous": false,
      "inputs": [
        {
          "indexed": true,
          "internalType": "uint256",
          "name": "checkpointTime",
          "type": "uint256"
        },
        {
          "indexed": false,
          "internalType": "uint256",
          "name": "checkpointVaultSharePrice",
          "type": "uint256"
        },
        {
          "indexed": false,
          "internalType": "uint256",
          "name": "vaultSharePrice",
          "type": "uint256"
        },
        {
          "indexed": false,
          "internalType": "uint256",
          "name": "maturedShorts",
          "type": "uint256"
        },
        {
          "indexed": false,
          "internalType": "uint256",
          "name": "maturedLongs",
          "type": "uint256"
        },
        {
          "indexed": false,
          "internalType": "uint256",
          "name": "lpSharePrice",
          "type": "uint256"
        }
      ],
      "name": "CreateCheckpoint",
      "type": "event"
    },
    {
      "anonymous": false,
      "inputs": [
        {
          "indexed": true,
          "internalType": "address",
          "name": "newFeeCollector",
          "type": "address"
        }
      ],
      "name": "FeeCollectorUpdated",
      "type": "event"
    },
    {
      "anonymous": false,
      "inputs": [
        {
          "indexed": true,
          "internalType": "address",
          "name": "newGovernance",
          "type": "address"
        }
      ],
      "name": "GovernanceUpdated",
      "type": "event"
    },
    {
      "anonymous": false,
      "inputs": [
        {
          "indexed": true,
          "internalType": "address",
          "name": "provider",
          "type": "address"
        },
        {
          "indexed": false,
          "internalType": "uint256",
          "name": "lpAmount",
          "type": "uint256"
        },
        {
          "indexed": false,
          "internalType": "uint256",
          "name": "baseAmount",
          "type": "uint256"
        },
        {
          "indexed": false,
          "internalType": "uint256",
          "name": "vaultShareAmount",
          "type": "uint256"
        },
        {
          "indexed": false,
          "internalType": "bool",
          "name": "asBase",
          "type": "bool"
        },
        {
          "indexed": false,
          "internalType": "uint256",
          "name": "apr",
          "type": "uint256"
        }
      ],
      "name": "Initialize",
      "type": "event"
    },
    {
      "anonymous": false,
      "inputs": [
        {
          "indexed": true,
          "internalType": "address",
          "name": "trader",
          "type": "address"
        },
        {
          "indexed": true,
          "internalType": "uint256",
          "name": "assetId",
          "type": "uint256"
        },
        {
          "indexed": false,
          "internalType": "uint256",
          "name": "maturityTime",
          "type": "uint256"
        },
        {
          "indexed": false,
          "internalType": "uint256",
          "name": "baseAmount",
          "type": "uint256"
        },
        {
          "indexed": false,
          "internalType": "uint256",
          "name": "vaultShareAmount",
          "type": "uint256"
        },
        {
          "indexed": false,
          "internalType": "bool",
          "name": "asBase",
          "type": "bool"
        },
        {
          "indexed": false,
          "internalType": "uint256",
          "name": "bondAmount",
          "type": "uint256"
        }
      ],
      "name": "OpenLong",
      "type": "event"
    },
    {
      "anonymous": false,
      "inputs": [
        {
          "indexed": true,
          "internalType": "address",
          "name": "trader",
          "type": "address"
        },
        {
          "indexed": true,
          "internalType": "uint256",
          "name": "assetId",
          "type": "uint256"
        },
        {
          "indexed": false,
          "internalType": "uint256",
          "name": "maturityTime",
          "type": "uint256"
        },
        {
          "indexed": false,
          "internalType": "uint256",
          "name": "baseAmount",
          "type": "uint256"
        },
        {
          "indexed": false,
          "internalType": "uint256",
          "name": "vaultShareAmount",
          "type": "uint256"
        },
        {
          "indexed": false,
          "internalType": "bool",
          "name": "asBase",
          "type": "bool"
        },
        {
          "indexed": false,
          "internalType": "uint256",
          "name": "baseProceeds",
          "type": "uint256"
        },
        {
          "indexed": false,
          "internalType": "uint256",
          "name": "bondAmount",
          "type": "uint256"
        }
      ],
      "name": "OpenShort",
      "type": "event"
    },
    {
      "anonymous": false,
      "inputs": [
        {
          "indexed": false,
          "internalType": "bool",
          "name": "isPaused",
          "type": "bool"
        }
      ],
      "name": "PauseStatusUpdated",
      "type": "event"
    },
    {
      "anonymous": false,
      "inputs": [
        {
          "indexed": true,
          "internalType": "address",
          "name": "newPauser",
          "type": "address"
        },
        {
          "indexed": false,
          "internalType": "bool",
          "name": "status",
          "type": "bool"
        }
      ],
      "name": "PauserUpdated",
      "type": "event"
    },
    {
      "anonymous": false,
      "inputs": [
        {
          "indexed": true,
          "internalType": "address",
          "name": "provider",
          "type": "address"
        },
        {
          "indexed": true,
          "internalType": "address",
          "name": "destination",
          "type": "address"
        },
        {
          "indexed": false,
          "internalType": "uint256",
          "name": "withdrawalShareAmount",
          "type": "uint256"
        },
        {
          "indexed": false,
          "internalType": "uint256",
          "name": "baseAmount",
          "type": "uint256"
        },
        {
          "indexed": false,
          "internalType": "uint256",
          "name": "vaultShareAmount",
          "type": "uint256"
        },
        {
          "indexed": false,
          "internalType": "bool",
          "name": "asBase",
          "type": "bool"
        }
      ],
      "name": "RedeemWithdrawalShares",
      "type": "event"
    },
    {
      "anonymous": false,
      "inputs": [
        {
          "indexed": true,
          "internalType": "address",
          "name": "provider",
          "type": "address"
        },
        {
          "indexed": true,
          "internalType": "address",
          "name": "destination",
          "type": "address"
        },
        {
          "indexed": false,
          "internalType": "uint256",
          "name": "lpAmount",
          "type": "uint256"
        },
        {
          "indexed": false,
          "internalType": "uint256",
          "name": "baseAmount",
          "type": "uint256"
        },
        {
          "indexed": false,
          "internalType": "uint256",
          "name": "vaultShareAmount",
          "type": "uint256"
        },
        {
          "indexed": false,
          "internalType": "bool",
          "name": "asBase",
          "type": "bool"
        },
        {
          "indexed": false,
          "internalType": "uint256",
          "name": "withdrawalShareAmount",
          "type": "uint256"
        },
        {
          "indexed": false,
          "internalType": "uint256",
          "name": "lpSharePrice",
          "type": "uint256"
        }
      ],
      "name": "RemoveLiquidity",
      "type": "event"
    },
    {
      "anonymous": false,
      "inputs": [
        {
          "indexed": true,
          "internalType": "address",
          "name": "collector",
          "type": "address"
        },
        {
          "indexed": true,
          "internalType": "address",
          "name": "target",
          "type": "address"
        }
      ],
      "name": "Sweep",
      "type": "event"
    },
    {
      "anonymous": false,
      "inputs": [
        {
          "indexed": true,
          "internalType": "address",
          "name": "newSweepCollector",
          "type": "address"
        }
      ],
      "name": "SweepCollectorUpdated",
      "type": "event"
    },
    {
      "anonymous": false,
      "inputs": [
        {
          "indexed": true,
          "internalType": "address",
          "name": "operator",
          "type": "address"
        },
        {
          "indexed": true,
          "internalType": "address",
          "name": "from",
          "type": "address"
        },
        {
          "indexed": true,
          "internalType": "address",
          "name": "to",
          "type": "address"
        },
        {
          "indexed": false,
          "internalType": "uint256",
          "name": "id",
          "type": "uint256"
        },
        {
          "indexed": false,
          "internalType": "uint256",
          "name": "value",
          "type": "uint256"
        }
      ],
      "name": "TransferSingle",
      "type": "event"
    },
    {
      "inputs": [
        {
          "internalType": "uint256",
          "name": "_checkpointTime",
          "type": "uint256"
        },
        {
          "internalType": "uint256",
          "name": "_maxIterations",
          "type": "uint256"
        }
      ],
      "name": "checkpoint",
      "outputs": [],
      "stateMutability": "nonpayable",
      "type": "function"
    },
    {
      "inputs": [
        {
          "internalType": "uint256",
          "name": "_contribution",
          "type": "uint256"
        },
        {
          "internalType": "uint256",
          "name": "_apr",
          "type": "uint256"
        },
        {
          "components": [
            {
              "internalType": "address",
              "name": "destination",
              "type": "address"
            },
            {
              "internalType": "bool",
              "name": "asBase",
              "type": "bool"
            },
            {
              "internalType": "bytes",
              "name": "extraData",
              "type": "bytes"
            }
          ],
          "internalType": "struct IHyperdrive.Options",
          "name": "_options",
          "type": "tuple"
        }
      ],
      "name": "initialize",
      "outputs": [
        {
          "internalType": "uint256",
          "name": "",
          "type": "uint256"
        }
      ],
      "stateMutability": "payable",
      "type": "function"
    },
    {
      "inputs": [
        {
          "internalType": "uint256",
          "name": "_amount",
          "type": "uint256"
        },
        {
          "internalType": "uint256",
          "name": "_minOutput",
          "type": "uint256"
        },
        {
          "internalType": "uint256",
          "name": "_minVaultSharePrice",
          "type": "uint256"
        },
        {
          "components": [
            {
              "internalType": "address",
              "name": "destination",
              "type": "address"
            },
            {
              "internalType": "bool",
              "name": "asBase",
              "type": "bool"
            },
            {
              "internalType": "bytes",
              "name": "extraData",
              "type": "bytes"
            }
          ],
          "internalType": "struct IHyperdrive.Options",
          "name": "_options",
          "type": "tuple"
        }
      ],
      "name": "openLong",
      "outputs": [
        {
          "internalType": "uint256",
          "name": "",
          "type": "uint256"
        },
        {
          "internalType": "uint256",
          "name": "",
          "type": "uint256"
        }
      ],
      "stateMutability": "payable",
      "type": "function"
    },
    {
      "stateMutability": "payable",
      "type": "receive"
    }
  ],
  "bytecode": "0x6102406040523480156200001257600080fd5b5060405162005776380380620057768339810160408190526200003591620001e1565b600160005580516001600160a01b039081166080908152602080840151831660a0908152918401516101a0908152918401516101c05260c0808501516101e0526101008086015190915260e0808601519052610120808601519091529184018051519092528151015161014090815281516040908101516101609081529251606090810151610180908152918601518516610200528501516102205290840151600a80546001600160a01b03199081169286169290921790559184015160088054841691851691909117905590920151600980549093169116179055620002d4565b6040516101c081016001600160401b03811182821017156200014957634e487b7160e01b600052604160045260246000fd5b60405290565b80516001600160a01b03811681146200016757600080fd5b919050565b6000608082840312156200017f57600080fd5b604051608081016001600160401b0381118282101715620001b057634e487b7160e01b600052604160045260246000fd5b8060405250809150825181526020830151602082015260408301516040820152606083015160608201525092915050565b60006102208284031215620001f557600080fd5b620001ff62000117565b6200020a836200014f565b81526200021a602084016200014f565b60208201526200022d604084016200014f565b6040820152606083015160608201526080830151608082015260a083015160a082015260c083015160c082015260e083015160e08201526101008084015181830152506101208084015181830152506101406200028c8185016200014f565b90820152610160620002a08482016200014f565b90820152610180620002b48482016200014f565b908201526101a0620002c9858583016200016c565b908201529392505050565b60805160a05160c05160e05161010051610120516101405161016051610180516101a0516101c0516101e0516102005161022051615332620004446000396000505060005050600081816105cb0152612d7c0152600081816102b00152818161033e0152818161045c0152818161194d0152818161199201528181611c7e01528181612376015281816123d901528181612bfd0152612d560152600081816103b5015281816113a501528181611403015281816115390152612d3001526000611ebc01526000818161200f0152612ae6015260008181610caa015281816114760152611fe30152600081816114550152612aa20152600081816103f801528181611383015281816114240152818161155a0152612da20152600081816103d7015281816106e201528181610bdc0152613ec20152600081816101c001528181610a4601528181610ae50152610b530152600081816055015281816118a2015261282f0152600050506153326000f3fe6080604052600436106100385760003560e01c8063414f826d146100b357806377d05ff4146100d3578063cba2e58d146100f957600080fd5b366100ae573373ffffffffffffffffffffffffffffffffffffffff7f000000000000000000000000000000000000000000000000000000000000000016146100ac576040517f90b8ec1800000000000000000000000000000000000000000000000000000000815260040160405180910390fd5b005b600080fd5b3480156100bf57600080fd5b506100ac6100ce366004614e57565b610121565b6100e66100e1366004614e8b565b61012f565b6040519081526020015b60405180910390f35b61010c610107366004614edb565b610146565b604080519283526020830191909152016100f0565b61012b8282610163565b5050565b600061013c848484610241565b90505b9392505050565b6000806101558686868661054b565b915091505b94509492505050565b61016b6107f0565b6000610175610833565b6000848152600760205260409020549091506fffffffffffffffffffffffffffffffff16156101af576101a8818361084b565b5050610237565b60006101b9610a3f565b90506101e57f000000000000000000000000000000000000000000000000000000000000000085614f64565b1515806101f157508381105b15610228576040517fecd29e8100000000000000000000000000000000000000000000000000000000815260040160405180910390fd5b610233848385610a75565b5050505b61012b6001600055565b600061024b6107f0565b610253610fc7565b61025c82611001565b60055460ff1615610299576040517f7983c05100000000000000000000000000000000000000000000000000000000815260040160405180910390fd5b6000806102a68685611060565b90925090506102d67f00000000000000000000000000000000000000000000000000000000000000006002614fa7565b82101561030f576040517fabed41c400000000000000000000000000000000000000000000000000000000815260040160405180910390fd5b600580547fffffffffffffffffffffffffffffffffffffffffffffffffffffffffffffff0016600117905560027f0000000000000000000000000000000000000000000000000000000000000000028203925061036b82611152565b600180547fffffffffffffffffffffffffffffffff00000000000000000000000000000000166fffffffffffffffffffffffffffffffff9290921691909117905561042161041c837f0000000000000000000000000000000000000000000000000000000000000000887f00000000000000000000000000000000000000000000000000000000000000007f00000000000000000000000000000000000000000000000000000000000000006111a2565b611152565b600180546fffffffffffffffffffffffffffffffff9283167001000000000000000000000000000000000292169190911790556104806000807f0000000000000000000000000000000000000000000000000000000000000000611241565b61049860006104926020870187614fbe565b85611241565b6104ab6104a3610a3f565b826004610a75565b5060006104b9878387611303565b90506104c86020860186614fbe565b73ffffffffffffffffffffffffffffffffffffffff167fdfe2bf9f580df5ec15438120ffa6f0603237c4e6b65d07140a4695317da4f95285838661051260408b0160208c01615002565b60408051948552602085019390935291830152151560608201526080810189905260a00160405180910390a250505061013f6001600055565b6000806105566107f0565b600554610100900460ff1615610598576040517f21081abf00000000000000000000000000000000000000000000000000000000815260040160405180910390fd5b6105a0610fc7565b6105a983611001565b6000806105b68886611060565b909250905060006105c78383611332565b90507f0000000000000000000000000000000000000000000000000000000000000000811015610623576040517f423bbb4600000000000000000000000000000000000000000000000000000000815260040160405180910390fd5b8682101561065d576040517f42af972b00000000000000000000000000000000000000000000000000000000815260040160405180910390fd5b6000610667610a3f565b905061067581846004610a75565b506000806106838686611347565b90985090925090508a8710156106c5576040517fc972651700000000000000000000000000000000000000000000000000000000815260040160405180910390fd5b80600b60008282546106d7919061501f565b9091555061070790507f00000000000000000000000000000000000000000000000000000000000000008461501f565b97506107158288878b611596565b600061072260018a6117e2565b905061073b8161073560208d018d614fbe565b8a611241565b8c8989888d8561074e6020830183614fbe565b73ffffffffffffffffffffffffffffffffffffffff167f88087800d03445c97e2009f3f90906bf6ede79bbd194e275c66224e977a5b84c86610791898787611303565b61079c8a8888611848565b6107ac6040880160208901615002565b60408051948552602085019390935291830152151560608201526080810187905260a00160405180910390a350909a505050505050505050505061015a6001600055565b60026000540361082c576040517f3ee5aeb500000000000000000000000000000000000000000000000000000000815260040160405180910390fd5b6002600055565b6000610846670de0b6b3a7640000611870565b905090565b6006547f03000000000000000000000000000000000000000000000000000000000000006000908152600e6020527fd2d06a3478833ecfcc0864e3afb188a7ff21caef68ea336a6e4f79f78f6fb3e954909182916108bb916fffffffffffffffffffffffffffffffff1690615032565b9050806000036108cf576001915050610a39565b60006108da85611922565b9050806000036108ef57600192505050610a39565b6000806108fd8385896119e2565b9150915080610913576000945050505050610a39565b6000806109208489611aef565b9150915061093e61093082611bdf565b61093990615045565b611c3b565b9250826109545760009650505050505050610a39565b61095d82611152565b600680546000906109819084906fffffffffffffffffffffffffffffffff1661507d565b92506101000a8154816fffffffffffffffffffffffffffffffff02191690836fffffffffffffffffffffffffffffffff1602179055506109c081611152565b600680546010906109f890849070010000000000000000000000000000000090046fffffffffffffffffffffffffffffffff1661507d565b92506101000a8154816fffffffffffffffffffffffffffffffff02191690836fffffffffffffffffffffffffffffffff160217905550600196505050505050505b92915050565b6000610a6b7f000000000000000000000000000000000000000000000000000000000000000042614f64565b6108469042615032565b600083815260076020526040812080546fffffffffffffffffffffffffffffffff16151580610aa357504285115b15610ac257546fffffffffffffffffffffffffffffffff16905061013f565b600080610acd610a3f565b9050808703610ade57859150610b81565b6000610b0a7f00000000000000000000000000000000000000000000000000000000000000008961501f565b90505b6000818152600760205260409020546fffffffffffffffffffffffffffffffff1692508181148015610b3d575082155b15610b46578692505b82600003610b7f57610b787f00000000000000000000000000000000000000000000000000000000000000008261501f565b9050610b0d565b505b610b8a82611152565b83547fffffffffffffffffffffffffffffffff00000000000000000000000000000000166fffffffffffffffffffffffffffffffff91909116178355610bcf86611db6565b5060009050600781610c017f00000000000000000000000000000000000000000000000000000000000000008b615032565b815260208101919091526040016000908120546fffffffffffffffffffffffffffffffff169150610c3360028a6117e2565b6000818152600e60205260408120549192508a8a8315610db65760019250600080610c6286898c866000611fcc565b9150915080600b6000828254610c78919061501f565b90915550610c94905086600084610c8e81611bdf565b8861209b565b610c9e818361501f565b9150610cce86838a8d877f00000000000000000000000000000000000000000000000000000000000000006122c2565b9150610ce2610cdd8385611332565b61230c565b60058054600290610d0a9084906201000090046dffffffffffffffffffffffffffff166150a6565b92506101000a8154816dffffffffffffffffffffffffffff02191690836dffffffffffffffffffffffffffff160217905550610d4582611152565b60058054601090610d7d90849070010000000000000000000000000000000090046fffffffffffffffffffffffffffffffff1661507d565b92506101000a8154816fffffffffffffffffffffffffffffffff02191690836fffffffffffffffffffffffffffffffff16021790555050505b6000610dc36001846117e2565b6000818152600e60205260409020549091508015610f0f5760019450600080610df0838b8e886001611fcc565b9150915080600b6000828254610e06919061501f565b90915550610e22905083600084610e1c81611bdf565b8a612356565b610e2c8183615032565b9150610e3b610cdd8387611332565b60058054600290610e639084906201000090046dffffffffffffffffffffffffffff166150a6565b92506101000a8154816dffffffffffffffffffffffffffff02191690836dffffffffffffffffffffffffffff160217905550610e9e82611152565b60058054601090610ed690849070010000000000000000000000000000000090046fffffffffffffffffffffffffffffffff1661507d565b92506101000a8154816fffffffffffffffffffffffffffffffff02191690836fffffffffffffffffffffffffffffffff16021790555050505b8415610f4757610f3b610f2187611bdf565b610f2a83611bdf565b610f3491906150cd565b6000612610565b610f458e8e61084b565b505b6000610f528f6126e7565b5090508f7fff888cf98d2696e95c8c39aa98c9ad55a5378008f7a56614c9353b7137a57ab78c868a8686604051610fab959493929190948552602085019390935260408401919091526060830152608082015260a00190565b60405180910390a250989e9d5050505050505050505050505050565b3415610fff576040517f1574f9f300000000000000000000000000000000000000000000000000000000815260040160405180910390fd5b565b60006110106020830183614fbe565b73ffffffffffffffffffffffffffffffffffffffff160361105d576040517ff0dd15fd00000000000000000000000000000000000000000000000000000000815260040160405180910390fd5b50565b600080806110746040850160208601615002565b156110995761108f8561108a60408701876150ed565b6127e0565b90935090506110b5565b50346110b1856110ac60408701876150ed565b612815565b8492505b6110bd610833565b9150801561114957604051600090339083908381818185875af1925050503d8060008114611107576040519150601f19603f3d011682016040523d82523d6000602084013e61110c565b606091505b5050905080611147576040517f90b8ec1800000000000000000000000000000000000000000000000000000000815260040160405180910390fd5b505b505b9250929050565b60006fffffffffffffffffffffffffffffffff82111561119e576040517f1e15f2a200000000000000000000000000000000000000000000000000000000815260040160405180910390fd5b5090565b6000806111b3846301e13380612857565b905060006111c18683611332565b6111d390670de0b6b3a764000061501f565b9050670de0b6b3a76400008110611207576112006111f9670de0b6b3a764000086612857565b829061286c565b905061121f565b61121c6111f9670de0b6b3a7640000866128e1565b90505b6112338161122d898b611332565b90611332565b925050505b95945050505050565b6000838152600d6020908152604080832073ffffffffffffffffffffffffffffffffffffffff861684529091528120805483929061128090849061501f565b90915550506000838152600e6020526040812080548392906112a390849061501f565b9091555050604080518481526020810183905273ffffffffffffffffffffffffffffffffffffffff84169160009133917fc3d58168c5ae7397731d063d5bbf3d657854427343f4c083240f7aacaa2d0f62910160405180910390a4505050565b60006113156040830160208401615002565b1561132157508261013f565b61132b8484611332565b905061013f565b600061013f8383670de0b6b3a76400006128f6565b60008060006113c9611357612932565b60015470010000000000000000000000000000000090046fffffffffffffffffffffffffffffffff16877f0000000000000000000000000000000000000000000000000000000000000000887f000000000000000000000000000000000000000000000000000000000000000061295c565b915060006114486113d8612932565b60015470010000000000000000000000000000000090046fffffffffffffffffffffffffffffffff167f00000000000000000000000000000000000000000000000000000000000000007f0000000000000000000000000000000000000000000000000000000000000000612988565b905061149f868461149a847f00000000000000000000000000000000000000000000000000000000000000007f000000000000000000000000000000000000000000000000000000000000000061299f565b612a0a565b156114ac576114ac612a62565b6000806114ba888489612a94565b90925090506114c98286615032565b94506114d68184896128f6565b93506114e28489615032565b9550670de0b6b3a764000061157e876114f9612932565b611503919061501f565b60015461153790899070010000000000000000000000000000000090046fffffffffffffffffffffffffffffffff16615032565b7f00000000000000000000000000000000000000000000000000000000000000007f0000000000000000000000000000000000000000000000000000000000000000612988565b111561158c5761158c612a62565b5050509250925092565b60025470010000000000000000000000000000000090046fffffffffffffffffffffffffffffffff166115f761041c826115d8670de0b6b3a764000086614fa7565b6004546fffffffffffffffffffffffffffffffff169190886001612b14565b600480547fffffffffffffffffffffffffffffffff00000000000000000000000000000000166fffffffffffffffffffffffffffffffff9290921691909117905561164185611152565b600180546000906116659084906fffffffffffffffffffffffffffffffff1661507d565b92506101000a8154816fffffffffffffffffffffffffffffffff02191690836fffffffffffffffffffffffffffffffff1602179055506116a484611152565b600180546010906116dc90849070010000000000000000000000000000000090046fffffffffffffffffffffffffffffffff16615152565b92506101000a8154816fffffffffffffffffffffffffffffffff02191690836fffffffffffffffffffffffffffffffff16021790555061171b84611152565b611725908261507d565b600280546fffffffffffffffffffffffffffffffff8084167001000000000000000000000000000000000291161790559050600061176283612bb2565b90506117808161177187611bdf565b61177b908461517b565b612610565b61178984612bf6565b61179557611795612a62565b60006117a085612c68565b9050806117d9576040517f8bdf918d00000000000000000000000000000000000000000000000000000000815260040160405180910390fd5b50505050505050565b60007effffffffffffffffffffffffffffffffffffffffffffffffffffffffffffff82111561183d576040517fb7d0949700000000000000000000000000000000000000000000000000000000815260040160405180910390fd5b5060f89190911b1790565b600061185a6040830160208401615002565b156118695761132b8484612857565b508261013f565b6040517f8b32fa23000000000000000000000000000000000000000000000000000000008152600481018290526000907f000000000000000000000000000000000000000000000000000000000000000073ffffffffffffffffffffffffffffffffffffffff1690638b32fa2390602401602060405180830381865afa1580156118fe573d6000803e3d6000fd5b505050506040513d601f19601f82011682018060405250810190610a3991906151a3565b6002546000908190611946906fffffffffffffffffffffffffffffffff16846128e1565b90506119727f00000000000000000000000000000000000000000000000000000000000000008261501f565b6001546fffffffffffffffffffffffffffffffff1611156119dc576001547f0000000000000000000000000000000000000000000000000000000000000000906119cf9083906fffffffffffffffffffffffffffffffff16615032565b6119d99190615032565b91505b50919050565b6119ea614da9565b6000806119f684612c75565b90506000611a0382612e37565b9350905082611a18575060009150611ae79050565b6000611a3f611a3a84610160015185610140015161133290919063ffffffff16565b611bdf565b611a5f611a3a856101200151866101000151612ec490919063ffffffff16565b611a6991906150cd565b604080516101208101825285815260208082019590955260008052600e85527fe710864318d4a32f37d6ce54cb3fadbef648dd12d8dbdf53973564d56b7f881c5481830152606081018a9052608081018b905260a0810192909252845160c08301529284015160e08201529290910151610100830152509150600190505b935093915050565b600080600080611b078660c001518760e00151612ed9565b9150915080611b1e5760008093509350505061114b565b6000611b2a8784612f15565b92509050811580611b39575080155b15611b4d576000809450945050505061114b565b6000611b598883613024565b905080600003611b7357600080955095505050505061114b565b87606001518111611b8a579450925061114b915050565b5060608701516000611b9e8986858b6130f5565b905080600003611bb95760008096509650505050505061114b565b828110611bd15760008096509650505050505061114b565b909890975095505050505050565b60007f7fffffffffffffffffffffffffffffffffffffffffffffffffffffffffffffff82111561119e576040517f72dd4e0200000000000000000000000000000000000000000000000000000000815260040160405180910390fd5b6001546003546000916fffffffffffffffffffffffffffffffff80821692600f0b9170010000000000000000000000000000000090041683808080611ca38787877f00000000000000000000000000000000000000000000000000000000000000008d61360c565b935093509350935080611cbf5750600098975050505050505050565b868414611d1157611ccf84611152565b600180547fffffffffffffffffffffffffffffffff00000000000000000000000000000000166fffffffffffffffffffffffffffffffff929092169190911790555b858314611d6357611d2183613724565b600380547fffffffffffffffffffffffffffffffff00000000000000000000000000000000166fffffffffffffffffffffffffffffffff929092169190911790555b848214611da757611d7382611152565b600180546fffffffffffffffffffffffffffffffff9283167001000000000000000000000000000000000292169190911790555b50600198975050505050505050565b6005546000908190611def90849070010000000000000000000000000000000090046fffffffffffffffffffffffffffffffff16611332565b6005546201000090046dffffffffffffffffffffffffffff169250905081811115611fc7576000611e208383615032565b9050611e2f61041c82866128e1565b60058054601090611e6790849070010000000000000000000000000000000090046fffffffffffffffffffffffffffffffff16615152565b92506101000a8154816fffffffffffffffffffffffffffffffff02191690836fffffffffffffffffffffffffffffffff1602179055506000611eb2858361285790919063ffffffff16565b90506000611ee0827f0000000000000000000000000000000000000000000000000000000000000000611332565b905080600b6000828254611ef4919061501f565b90915550611f0490508183615032565b9150611f0f82611152565b60018054600090611f339084906fffffffffffffffffffffffffffffffff1661507d565b92506101000a8154816fffffffffffffffffffffffffffffffff02191690836fffffffffffffffffffffffffffffffff160217905550611f728261379a565b60038054600090611f87908490600f0b6151bc565b92506101000a8154816fffffffffffffffffffffffffffffffff0219169083600f0b6fffffffffffffffffffffffffffffffff1602179055508493505050505b915091565b600080611fd98785612857565b91506000612007837f0000000000000000000000000000000000000000000000000000000000000000611332565b9050612033817f0000000000000000000000000000000000000000000000000000000000000000611332565b91508315612056576120458282615032565b61204f9084615032565b925061206d565b6120608282615032565b61206a908461501f565b92505b86861015612090576120808387896128f6565b925061208d8287896128f6565b91505b509550959350505050565b60035470010000000000000000000000000000000090046fffffffffffffffffffffffffffffffff1661211061041c826120dd670de0b6b3a764000086614fa7565b60045470010000000000000000000000000000000090046fffffffffffffffffffffffffffffffff1691908a6000612b14565b600480546fffffffffffffffffffffffffffffffff92831670010000000000000000000000000000000002921691909117905561214c86611152565b6121569082615152565b600380546fffffffffffffffffffffffffffffffff92831670010000000000000000000000000000000002921691909117905561219284611152565b600180546000906121b69084906fffffffffffffffffffffffffffffffff1661507d565b92506101000a8154816fffffffffffffffffffffffffffffffff02191690836fffffffffffffffffffffffffffffffff1602179055506121f583613724565b6003805460009061220a908490600f0b6151bc565b92506101000a8154816fffffffffffffffffffffffffffffffff0219169083600f0b6fffffffffffffffffffffffffffffffff16021790555061224c85611152565b6001805460109061228490849070010000000000000000000000000000000090046fffffffffffffffffffffffffffffffff16615152565b92506101000a8154816fffffffffffffffffffffffffffffffff02191690836fffffffffffffffffffffffffffffffff160217905550505050505050565b6000806122da846122d48a888a6128f6565b90612857565b90506122e78884866128f6565b6122f1908261501f565b9050868111156123015786810391505b509695505050505050565b60006dffffffffffffffffffffffffffff82111561119e576040517f10d62a2e00000000000000000000000000000000000000000000000000000000815260040160405180910390fd5b6001546fffffffffffffffffffffffffffffffff16838110806123a157507f000000000000000000000000000000000000000000000000000000000000000061239f8583615032565b105b156123ae576123ae612a62565b6003549084900390600f0b6123c384826150cd565b9050836123cf86611bdf565b13801561240457507f000000000000000000000000000000000000000000000000000000000000000061240283836137e6565b105b1561241157612411612a62565b60025470010000000000000000000000000000000090046fffffffffffffffffffffffffffffffff1661247261041c82612453670de0b6b3a764000088614fa7565b6004546fffffffffffffffffffffffffffffffff1691908c6000612b14565b600480547fffffffffffffffffffffffffffffffff00000000000000000000000000000000166fffffffffffffffffffffffffffffffff929092169190911790556124bd8882615032565b90506124c881611152565b600280546fffffffffffffffffffffffffffffffff92831670010000000000000000000000000000000002921691909117905561250483611152565b600180547fffffffffffffffffffffffffffffffff00000000000000000000000000000000166fffffffffffffffffffffffffffffffff9290921691909117905561254e82613724565b600380547fffffffffffffffffffffffffffffffff00000000000000000000000000000000166fffffffffffffffffffffffffffffffff9290921691909117905561259887611152565b600180546010906125d090849070010000000000000000000000000000000090046fffffffffffffffffffffffffffffffff1661507d565b92506101000a8154816fffffffffffffffffffffffffffffffff02191690836fffffffffffffffffffffffffffffffff1602179055505050505050505050565b600061263961261f848361380c565b61262a84600061380c565b61263491906150cd565b613724565b9050600081600f0b13156126a9576002805482919060009061266e9084906fffffffffffffffffffffffffffffffff1661507d565b92506101000a8154816fffffffffffffffffffffffffffffffff02191690836fffffffffffffffffffffffffffffffff160217905550505050565b600081600f0b12156126e2576126be8161520a565b6002805460009061266e9084906fffffffffffffffffffffffffffffffff16615152565b505050565b6000806000806126fe6126f986612c75565b612e37565b9150915080612714575060009485945092505050565b600080861161272457600061272e565b61272e8387611332565b600654600e6020527fd2d06a3478833ecfcc0864e3afb188a7ff21caef68ea336a6e4f79f78f6fb3e95460008080527fe710864318d4a32f37d6ce54cb3fadbef648dd12d8dbdf53973564d56b7f881c54939450926fffffffffffffffffffffffffffffffff909216916127a2919061501f565b6127ac9190615032565b9050806000036127c55750600096879650945050505050565b60006127d18383612857565b98600198509650505050505050565b6000806040517f6a17288200000000000000000000000000000000000000000000000000000000815260040160405180910390fd5b6126e273ffffffffffffffffffffffffffffffffffffffff7f000000000000000000000000000000000000000000000000000000000000000016333086613822565b600061013f83670de0b6b3a7640000846128f6565b6000816000036128855750670de0b6b3a7640000610a39565b8260000361289557506000610a39565b60006128a083611bdf565b905060006128b56128b086611bdf565b6138bd565b90508181026128cc670de0b6b3a764000082615248565b90506128d781613b5e565b9695505050505050565b600061013f83670de0b6b3a764000084613d77565b6000827fffffffffffffffffffffffffffffffffffffffffffffffffffffffffffffffff048411830215820261292b57600080fd5b5091020490565b600154600354600091610846916fffffffffffffffffffffffffffffffff90911690600f0b6137e6565b600061297d87878761297688670de0b6b3a7640000615032565b8787613dbb565b979650505050505050565b6000611238826129998588886128f6565b9061286c565b600061013c6129e66129b984670de0b6b3a7640000615032565b6129e0670de0b6b3a76400006129cf818a6128e1565b6129d99190615032565b8790612ec4565b90612ec4565b6129f890670de0b6b3a764000061501f565b6122d484670de0b6b3a7640000615032565b600080612a5785612a19612932565b612a23919061501f565b60015461153790879070010000000000000000000000000000000090046fffffffffffffffffffffffffffffffff16615032565b909210949350505050565b6040517fbb55fd2700000000000000000000000000000000000000000000000000000000815260040160405180910390fd5b600080612ade856129e085817f0000000000000000000000000000000000000000000000000000000000000000670de0b6b3a7640000612ad4818c6128e1565b6129e09190615032565b9150612b0a827f0000000000000000000000000000000000000000000000000000000000000000611332565b9050935093915050565b600082600003612b25575084611238565b8115612b7857612b56612b38848761501f565b612b428587611332565b612b4c888a611332565b6122d4919061501f565b90506000612b648588613e68565b905080821015612b72578091505b50611238565b828503612b8757506000611238565b6128d7612b948487615032565b612b9e8587612ec4565b612ba8888a611332565b6122d49190615032565b6000612bda600e6000612bc66002866117e2565b815260200190815260200160002054611bdf565b612bec600e6000612bc66001876117e2565b610a3991906150cd565b6000612c227f000000000000000000000000000000000000000000000000000000000000000083612ec4565b600254612c4191906fffffffffffffffffffffffffffffffff1661501f565b600154612c60906fffffffffffffffffffffffffffffffff1684611332565b101592915050565b6000610a3982600461084b565b612cd96040518061018001604052806000815260200160008152602001600081526020016000815260200160008152602001600081526020016000815260200160008152602001600081526020016000815260200160008152602001600081525090565b60408051610180810182526001546fffffffffffffffffffffffffffffffff8082168352600354600f0b602084015270010000000000000000000000000000000091829004811693830193909352606082018590527f000000000000000000000000000000000000000000000000000000000000000060808301527f000000000000000000000000000000000000000000000000000000000000000060a08301527f000000000000000000000000000000000000000000000000000000000000000060c08301527f000000000000000000000000000000000000000000000000000000000000000060e08301526002540482166101008201526004549091610120830191612de79116613e77565b81526003546fffffffffffffffffffffffffffffffff7001000000000000000000000000000000009182900481166020840152600454604090930192612e2f92900416613e77565b905292915050565b6000806000806000612e4886613eed565b9150915080612e5f57506000958695509350505050565b612e6c8660a00151611bdf565b612e758761420d565b83612e838960000151611bdf565b612e8d919061517b565b612e97919061517b565b612ea191906150cd565b925050506000811215612eba5750600093849350915050565b9360019350915050565b600061013f8383670de0b6b3a7640000613d77565b600080600083612ee886611bdf565b612ef291906150cd565b90506000811215612f0a57600080925092505061114b565b946001945092505050565b60008060008460a0015112612f325750506080820151600161114b565b60008460a00151612f4290615045565b90506000612f7e85876101000151886000015160e00151670de0b6b3a7640000612f6c9190615032565b89516060810151608090910151614271565b93509050821580612f8d575080155b15612fa05760008093509350505061114b565b6000612fac83836128e1565b9050670de0b6b3a76400008111612fe85780670de0b6b3a7640000039450612fe18760c001518661133290919063ffffffff16565b9450612ff7565b6000809450945050505061114b565b866080015185111561301657866080015160019450945050505061114b565b506001925050509250929050565b60008061305a8460c001518560e00151866101000151876000015160a0015161304c88611bdf565b61305590615045565b61360c565b87516040810192909252602082019290925291909152905080613081576000915050610a39565b60006130908560000151612e37565b92509050816130a457600092505050610a39565b846020015181106130ba57600092505050610a39565b6000856060015186604001516130d0919061501f565b90506130eb828760200151836128f69092919063ffffffff16565b6128d79082615032565b6000808560600151866040015161310c919061501f565b6020870151606088015191925060009161312691846128f6565b90508660a0015160000361313d5791506136049050565b6000808089600488101561315057600497505b60005b888110156134ac57613165868b613e68565b9550600061318e8360c001518460e00151856101000151866000015160a0015161304c8c611bdf565b865160408101929092526020820192909252919091529050806131bc57600098505050505050505050613604565b60006131cb8e60000151612e37565b92509050816131e65760009950505050505050505050613604565b6131f184828b61431d565b1561320757879950505050505050505050613604565b60008460a00151131561337057835180516020820151604083015160a084015160e09094015160009461325b9493929161324990670de0b6b3a7640000615032565b8a516060810151608090910151614389565b93509050826132775760009a5050505050505050505050613604565b808560a001511061336e5761328b8561448e565b9099509250826132a85760009a5050505050505050505050613604565b6132cd8560c001518660e00151876101000151886000015160a0015161304c8e611bdf565b885160408101929092526020820192909252919091529250826132fd5760009a5050505050505050505050613604565b845180516020820151604083015160a084015160e09094015161332d949061324990670de0b6b3a7640000615032565b93509050826133495760009a5050505050505050505050613604565b8e60a00151811161336657889a5050505050505050505050613604565b505050613153565b505b6000613381858f8760a00151614564565b9350905082158061339a5750670de0b6b3a76400008110155b156133b25760009a5050505050505050505050613604565b80670de0b6b3a764000003905060006133df611a3a87604001518860200151612ec490919063ffffffff16565b6133ec611a3a858e611332565b6133f691906150cd565b90508815806134145750613409896148bf565b613412826148bf565b125b15613423578098508997508296505b600081131561344b5761343a8b6122d48385612857565b613444908b61501f565b995061349d565b60008112156134945760006134658c6122d4858186615045565b90508a81101561347957808b039a5061348e565b60009c50505050505050505050505050613604565b5061349d565b505050506134ac565b84600101945050505050613153565b5060006134d48260c001518360e00151846101000151856000015160a0015161304c8b611bdf565b85516040810192909252602082019290925291909152905080613501576000975050505050505050613604565b600061351083600001516148d7565b90506000613532611a3a85604001518660200151612ec490919063ffffffff16565b61353f611a3a848c611332565b61354991906150cd565b9050613554876148bf565b61355d826148bf565b121561356a578795508194505b613591613585655af3107a4000670de0b6b3a7640000615032565b6020860151908b613d77565b60408501516135a1908790612857565b10806135e157506135cf6135c3655af3107a4000670de0b6b3a764000061501f565b6020860151908b6128f6565b60408501516135df9087906128e1565b115b156135f85760009950505050505050505050613604565b50939750505050505050505b949350505050565b6000806000808460000361362b57508792508691508590506001613718565b6000856136378b611bdf565b613641919061517b565b905061364c87611bdf565b81121561366757600080600080945094509450945050613718565b8094506000891261368757613680611a3a868b8d6128f6565b93506136aa565b61369e611a3a6136968b615045565b87908d613d77565b6136a790615045565b93505b6000806136b78c8c612ed9565b91509150806136d6576000806000809650965096509650505050613718565b60006136e28888612ed9565b925090508161370257600080600080975097509750975050505050613718565b61370d8b82856128f6565b955060019450505050505b95509550955095915050565b60007fffffffffffffffffffffffffffffffff8000000000000000000000000000000082128061376357506f7fffffffffffffffffffffffffffffff82135b1561119e576040517fa5353be500000000000000000000000000000000000000000000000000000000815260040160405180910390fd5b60006f7fffffffffffffffffffffffffffffff82111561119e576040517fa5353be500000000000000000000000000000000000000000000000000000000815260040160405180910390fd5b6000806137f38484612ed9565b90925090508061380557613805612a62565b5092915050565b600081831361381b578161013f565b5090919050565b6040805173ffffffffffffffffffffffffffffffffffffffff85811660248301528416604482015260648082018490528251808303909101815260849091019091526020810180517bffffffffffffffffffffffffffffffffffffffffffffffffffffffff167f23b872dd000000000000000000000000000000000000000000000000000000001790526138b7908590614920565b50505050565b60008082136138f8576040517fe61b497500000000000000000000000000000000000000000000000000000000815260040160405180910390fd5b506fffffffffffffffffffffffffffffffff811160071b81811c67ffffffffffffffff1060061b1781811c63ffffffff1060051b1781811c61ffff1060041b1781811c60ff10600390811b90911782811c600f1060021b1782811c909110600190811b90911782811c90911017609f8181036060019290921b917fffffffffffffffffffffffffffffffffffffffffffffffffffffffffffffffa08201906139a29084901c611bdf565b6c465772b2bbbb5f824b15207a3081018102606090811d6d0388eaa27412d5aca026815d636e018202811d6d0df99ac502031bf953eff472fdcc018202811d6d13cdffb29d51d99322bdff5f2211018202811d6d0a0f742023def783a307a986912e018202811d6d01920d8043ca89b5239253284e42018202811d6c0b7a86d7375468fac667a0a527016c29508e458543d8aa4df2abee7883018302821d6d0139601a2efabe717e604cbb4894018302821d6d02247f7a7b6594320649aa03aba1018302821d7fffffffffffffffffffffffffffffffffffffff73c0c716a594e00d54e3c4cbc9018302821d7ffffffffffffffffffffffffffffffffffffffdc7b88c420e53a9890533129f6f01830290911d7fffffffffffffffffffffffffffffffffffffff465fda27eb4d63ded474e5f832019091027ffffffffffffffff5f6af8f7b3396644f18e157960000000000000000000000000105711340daa0d5f769dba1915cef59f0815a5506027d0267a36c0c95b3975ab3ee5b203a7614a3f75373f047d803ae7b6687f2b391909102017d57115e47018c7177eebf7cd370a3356a1b7863008a5ae8028c72b88642840160ae1d92915050565b60007ffffffffffffffffffffffffffffffffffffffffffffffffdb731c958f34d94c18213613b8f57506000919050565b680755bf798b4a1bf1e58212613bd1576040517f73a2d6b100000000000000000000000000000000000000000000000000000000815260040160405180910390fd5b6503782dace9d9604e83901b059150600060606bb17217f7d1cf79abc9e3b39884821b056b80000000000000000000000001901d6bb17217f7d1cf79abc9e3b3988102909303927fffffffffffffffffffffffffffffffffffffffdbf3ccf1604d263450f02a550484018402606090811d6d0277594991cfc85f6e2461837cd9018502811d7fffffffffffffffffffffffffffffffffffffe5adedaa1cb095af9e4da10e363c018502811d6db1bbb201f443cf962f1a1d3db4a5018502811d7ffffffffffffffffffffffffffffffffffffd38dc772608b0ae56cce01296c0eb018502811d6e05180bb14799ab47a8a8cb2a527d57016d02d16720577bd19bf614176fe9ea6c10fe68e7fd37d0007b713f765087018702831d9081019087017ffffffffffffffffffffffffffffffffffffffe2c69812cf03b0763fd454a8f7e01810290921d6e0587f503bb6ea29d25fcb74019645001860279d835ebba824c98fb31b83b2ca45c0000000000000000000000000181810595509293509091906128d774029d9dc38563c32e5c2f6dc192ee70ef65f9978af3860260c38690031c611bdf565b6000827fffffffffffffffffffffffffffffffffffffffffffffffffffffffffffffffff0484118302158202613dac57600080fd5b50910281810615159190040190565b600080613dcb88888787876149bb565b9050613de585612999613dde898c61501f565b8690611332565b9750613df28489856128f6565b975087811015613e0457613e04612a62565b878103670de0b6b3a76400008110613e3257613e2b6111f9670de0b6b3a7640000886128e1565b9050613e4a565b613e476111f9670de0b6b3a764000088612857565b90505b80881015613e5a57613e5a612a62565b909603979650505050505050565b60008183116119dc578261013f565b600080670de0b6b3a7640000613e8b610a3f565b613e959190614fa7565b9050808311613ea5576000613eaf565b613eaf8184615032565b91506119d9613ee6670de0b6b3a76400007f0000000000000000000000000000000000000000000000000000000000000000614fa7565b8390612857565b6000806000613f12611a3a85610160015186610140015161133290919063ffffffff16565b613f32611a3a866101200151876101000151612ec490919063ffffffff16565b613f3c91906150cd565b9050600080613f5386600001518760200151612ed9565b9150915080613f6a57506000958695509350505050565b60008313156140ab5760008390506000613fb8886000015189602001518a604001518b60a001518c60e00151670de0b6b3a7640000613fa99190615032565b8d606001518e60800151614389565b9350905082613fd1575060009788975095505050505050565b81811061406f57600061400b858a60400151858c60e00151670de0b6b3a7640000613ffc9190615032565b8d606001518e608001516149ea565b945090508315801561402057508860c0015183105b156140375750600098600198509650505050505050565b8361404d57506000988998509650505050505050565b61405681611bdf565b61405f90615045565b9960019950975050505050505050565b60008860200151126140975761408e8860a0015185611a3a9190615032565b6127d190615045565b60a0880151885161408e91611a3a91615032565b60008312156141fe5760006140bf84615045565b905060006140f38489604001518a60e00151670de0b6b3a76400006140e49190615032565b8b606001518c60800151614271565b935090508261410c575060009788975095505050505050565b818110614191576000614146858a60400151858c60e00151670de0b6b3a76400006141379190615032565b8d606001518e60800151614aad565b945090508315801561415b57508860c0015183105b156141725750600098600198509650505050505050565b8361418857506000988998509650505050505050565b61405f81611bdf565b60006141c3858a604001518b60e00151670de0b6b3a76400006141b49190615032565b8c606001518d60800151614b84565b94509050836141dd57506000988998509650505050505050565b61405f6141f48a6060015184866122d49190615032565b611a3a908361501f565b50600095600195509350505050565b6000614240611a3a836101200151670de0b6b3a764000061422e9190615032565b60608501516101008601519190613d77565b612bec611a3a846101600151670de0b6b3a764000061425f9190615032565b606086015161014087015191906128f6565b600080600061428388888888886149bb565b905060006142ae670de0b6b3a764000061429d8888612857565b6142a7919061501f565b83906128e1565b9050670de0b6b3a764000081106142db576142d46111f9670de0b6b3a7640000896128e1565b90506142f3565b6142f06111f9670de0b6b3a764000089612857565b90505b8088101561430957600080935093505050614313565b8703925060019150505b9550959350505050565b602083015160009061432f90846128e1565b604085015161433f908490612857565b1015801561013c5750602084015161436f9084614368633b9aca00670de0b6b3a764000061501f565b91906128f6565b604085015161437f9084906128e1565b1115949350505050565b60008060008812156143ab5761439e88615045565b6143a8908761501f565b95505b6000806143b88b8b612ed9565b91509150806143cf57600080935093505050614482565b60006143de838b8a8a8a614c33565b905060006143fb6143f38a6129998a8e612ec4565b899089613d77565b905080821015614415576000809550955050505050614482565b808203670de0b6b3a764000081106144435761443c6111f9670de0b6b3a76400008c612857565b905061445b565b6144586111f9670de0b6b3a76400008c6128e1565b90505b8b81101561447457600080965096505050505050614482565b8b9003955060019450505050505b97509795505050505050565b60008060008360e00151136144a857506000928392509050565b60006144b7846000015161420d565b905060006144e38560400151866060015187604001516144d7919061501f565b60208801519190613d77565b90506000821261450a57808210156144fd57819003614520565b5060009485945092505050565b61451382615045565b61451d908261501f565b90505b60e085015160c0860151614535918390613d77565b9050808560c001511015614550575060009485945092505050565b808560c00151036001935093505050915091565b60008060008084126145885785516040015161458190859061501f565b90506145c3565b600061459385615045565b8751604001519091508110156145b35786516040015181900391506145c1565b600080935093505050611ae7565b505b8551805160209091015160009182916145dc9190612ed9565b91509150806145f45760008094509450505050611ae7565b875160e08101516040909101516000916146299161461d91614616919061286c565b8a90611332565b6101008b0151906128e1565b895160e081015160809091015161465491614648916129999088611332565b8b5160600151906128e1565b61465e919061501f565b9050600061469661468a6146838c6000015160e001518861286c90919063ffffffff16565b8b90612ec4565b6101008c015190612857565b9050808210156146b157600080965096505050505050611ae7565b808203915060006146f3858c60000151604001518d6000015160e00151670de0b6b3a76400006146e19190615032565b8e5160608101516080909101516149bb565b9050600061471d8c6000015160e00151670de0b6b3a76400006147169190615032565b889061286c565b90508082101561473a576000809850985050505050505050611ae7565b8b51608081015160609091015191830391614756918391613d77565b9050670de0b6b3a7640000811061479a578b5160e00151614793906111f99061478790670de0b6b3a7640000615032565b8e5160e00151906128e1565b90506147c9565b8b5160e001516147c6906111f9906147ba90670de0b6b3a7640000615032565b8e5160e0015190612857565b90505b8b51606001516147dc9085908390613d77565b935083670de0b6b3a764000011156148005783670de0b6b3a7640000039350614814565b600060019850985050505050505050611ae7565b60008c60e00151126148775760c08c015160e08d0151614833916128e1565b9250670de0b6b3a7640000831115614858576000809850985050505050505050611ae7565b670de0b6b3a764000092909203916148708484611332565b93506148ac565b6148a96148908d60c001518e60e001516122d490615045565b6148a290670de0b6b3a764000061501f565b8590611332565b93505b50919a60019a5098505050505050505050565b60008082126148ce5781610a39565b610a3982615045565b60008060006148e584612e37565b9150915080613805576040517faa2c651600000000000000000000000000000000000000000000000000000000815260040160405180910390fd5b600061494273ffffffffffffffffffffffffffffffffffffffff841683614c58565b9050805160001415801561496757508080602001905181019061496591906152b0565b155b156126e2576040517f5274afe700000000000000000000000000000000000000000000000000000000815273ffffffffffffffffffffffffffffffffffffffff841660048201526024015b60405180910390fd5b60006149c7858561286c565b6149e06149d886612999868b612ec4565b859085613d77565b6128d7919061501f565b60008060006149fc89898888886149bb565b9050614a0c86612999898b61501f565b975087811015614a23576000809250925050614aa2565b878103614a31818688613d77565b9050670de0b6b3a76400008110614a5e57614a576111f9670de0b6b3a7640000896128e1565b9050614a76565b614a736111f9670de0b6b3a764000089612857565b90505b614a8081866128e1565b9050808a1015614a9857600080935093505050614aa2565b8903925060019150505b965096945050505050565b6000806000614abf89898888886149bb565b905086881015614ad6576000809250925050614aa2565b9686900396614ae5888761286c565b975087811015614afc576000809250925050614aa2565b878103614b0a818688613d77565b9050670de0b6b3a76400008110614b3757614b306111f9670de0b6b3a7640000896128e1565b9050614b4f565b614b4c6111f9670de0b6b3a764000089612857565b90505b614b5981866128e1565b905089811015614b7157600080935093505050614aa2565b9890980398600198509650505050505050565b6000806000614b968888888888614c33565b90506000614bba670de0b6b3a7640000614bb088886128e1565b613ee6919061501f565b9050670de0b6b3a76400008110614be757614be06111f9670de0b6b3a764000089612857565b9050614bff565b614bfc6111f9670de0b6b3a7640000896128e1565b90505b614c098186612857565b905088811015614c2157600080935093505050614313565b97909703976001975095505050505050565b6000614c3f858561286c565b6149e0614c5086612999868b611332565b8590856128f6565b606061013f83836000846000808573ffffffffffffffffffffffffffffffffffffffff168486604051614c8b91906152cd565b60006040518083038185875af1925050503d8060008114614cc8576040519150601f19603f3d011682016040523d82523d6000602084013e614ccd565b606091505b50915091506128d7868383606082614ced57614ce882614d67565b61013f565b8151158015614d11575073ffffffffffffffffffffffffffffffffffffffff84163b155b15614d60576040517f9996b31500000000000000000000000000000000000000000000000000000000815273ffffffffffffffffffffffffffffffffffffffff851660048201526024016149b2565b508061013f565b805115614d775780518082602001fd5b6040517f1425ea4200000000000000000000000000000000000000000000000000000000815260040160405180910390fd5b604051806101200160405280614e196040518061018001604052806000815260200160008152602001600081526020016000815260200160008152602001600081526020016000815260200160008152602001600081526020016000815260200160008152602001600081525090565b815260200160008152602001600081526020016000815260200160008152602001600081526020016000815260200160008152602001600081525090565b60008060408385031215614e6a57600080fd5b50508035926020909101359150565b6000606082840312156119dc57600080fd5b600080600060608486031215614ea057600080fd5b8335925060208401359150604084013567ffffffffffffffff811115614ec557600080fd5b614ed186828701614e79565b9150509250925092565b60008060008060808587031215614ef157600080fd5b843593506020850135925060408501359150606085013567ffffffffffffffff811115614f1d57600080fd5b614f2987828801614e79565b91505092959194509250565b7f4e487b7100000000000000000000000000000000000000000000000000000000600052601260045260246000fd5b600082614f7357614f73614f35565b500690565b7f4e487b7100000000000000000000000000000000000000000000000000000000600052601160045260246000fd5b8082028115828204841417610a3957610a39614f78565b600060208284031215614fd057600080fd5b813573ffffffffffffffffffffffffffffffffffffffff8116811461013f57600080fd5b801515811461105d57600080fd5b60006020828403121561501457600080fd5b813561013f81614ff4565b80820180821115610a3957610a39614f78565b81810381811115610a3957610a39614f78565b60007f8000000000000000000000000000000000000000000000000000000000000000820361507657615076614f78565b5060000390565b6fffffffffffffffffffffffffffffffff81811683821601908082111561380557613805614f78565b6dffffffffffffffffffffffffffff81811683821601908082111561380557613805614f78565b818103600083128015838313168383128216171561380557613805614f78565b60008083357fffffffffffffffffffffffffffffffffffffffffffffffffffffffffffffffe184360301811261512257600080fd5b83018035915067ffffffffffffffff82111561513d57600080fd5b60200191503681900382131561114b57600080fd5b6fffffffffffffffffffffffffffffffff82811682821603908082111561380557613805614f78565b808201828112600083128015821682158216171561519b5761519b614f78565b505092915050565b6000602082840312156151b557600080fd5b5051919050565b600f81810b9083900b016f7fffffffffffffffffffffffffffffff81137fffffffffffffffffffffffffffffffff8000000000000000000000000000000082121715610a3957610a39614f78565b600081600f0b7fffffffffffffffffffffffffffffffff80000000000000000000000000000000810361523f5761523f614f78565b60000392915050565b60008261525757615257614f35565b7fffffffffffffffffffffffffffffffffffffffffffffffffffffffffffffffff83147f8000000000000000000000000000000000000000000000000000000000000000831416156152ab576152ab614f78565b500590565b6000602082840312156152c257600080fd5b815161013f81614ff4565b6000825160005b818110156152ee57602081860181015185830152016152d4565b50600092019182525091905056fea2646970667358221220fe855291dada71f4c260912e029d116a34a9e89ed01efb89232d853e35f9e57164736f6c63430008140033",
  "linkReferences": {},
  "deployedLinkReferences": {}
}