{
  "_format": "hh-sol-artifact-1",
  "contractName": "StETHHyperdriveCoreDeployer",
  "sourceName": "contracts/src/deployers/steth/StETHHyperdriveCoreDeployer.sol",
  "abi": [
    {
      "inputs": [
        {
          "components": [
            {
              "internalType": "contract IERC20",
              "name": "baseToken",
              "type": "address"
            },
            {
              "internalType": "contract IERC20",
              "name": "vaultSharesToken",
              "type": "address"
            },
            {
              "internalType": "address",
              "name": "linkerFactory",
              "type": "address"
            },
            {
              "internalType": "bytes32",
              "name": "linkerCodeHash",
              "type": "bytes32"
            },
            {
              "internalType": "uint256",
              "name": "initialVaultSharePrice",
              "type": "uint256"
            },
            {
              "internalType": "uint256",
              "name": "minimumShareReserves",
              "type": "uint256"
            },
            {
              "internalType": "uint256",
              "name": "minimumTransactionAmount",
              "type": "uint256"
            },
            {
              "internalType": "uint256",
              "name": "positionDuration",
              "type": "uint256"
            },
            {
              "internalType": "uint256",
              "name": "checkpointDuration",
              "type": "uint256"
            },
            {
              "internalType": "uint256",
              "name": "timeStretch",
              "type": "uint256"
            },
            {
              "internalType": "address",
              "name": "governance",
              "type": "address"
            },
            {
              "internalType": "address",
              "name": "feeCollector",
              "type": "address"
            },
            {
              "internalType": "address",
              "name": "sweepCollector",
              "type": "address"
            },
            {
              "components": [
                {
                  "internalType": "uint256",
                  "name": "curve",
                  "type": "uint256"
                },
                {
                  "internalType": "uint256",
                  "name": "flat",
                  "type": "uint256"
                },
                {
                  "internalType": "uint256",
                  "name": "governanceLP",
                  "type": "uint256"
                },
                {
                  "internalType": "uint256",
                  "name": "governanceZombie",
                  "type": "uint256"
                }
              ],
              "internalType": "struct IHyperdrive.Fees",
              "name": "fees",
              "type": "tuple"
            }
          ],
          "internalType": "struct IHyperdrive.PoolConfig",
          "name": "_config",
          "type": "tuple"
        },
        {
          "internalType": "bytes",
          "name": "",
          "type": "bytes"
        },
        {
          "internalType": "address",
          "name": "target0",
          "type": "address"
        },
        {
          "internalType": "address",
          "name": "target1",
          "type": "address"
        },
        {
          "internalType": "address",
          "name": "target2",
          "type": "address"
        },
        {
          "internalType": "address",
          "name": "target3",
          "type": "address"
        },
        {
          "internalType": "address",
          "name": "target4",
          "type": "address"
        },
        {
          "internalType": "bytes32",
          "name": "_salt",
          "type": "bytes32"
        }
      ],
      "name": "deploy",
      "outputs": [
        {
          "internalType": "address",
          "name": "",
          "type": "address"
        }
      ],
      "stateMutability": "nonpayable",
      "type": "function"
    }
  ],
  "bytecode": "0x608060405234801561001057600080fd5b50611dfe806100206000396000f3fe608060405234801561001057600080fd5b506004361061002b5760003560e01c8063ed871fd714610030575b600080fd5b61004361003e366004610287565b61006c565b60405173ffffffffffffffffffffffffffffffffffffffff909116815260200160405180910390f35b60408051336020820152908101829052600090606001604051602081830303815290604052805190602001208988888888886040516100aa906100e7565b6100b996959493929190610409565b8190604051809103906000f59050801580156100d9573d6000803e3d6000fd5b509998505050505050505050565b6118448061058583390190565b7f4e487b7100000000000000000000000000000000000000000000000000000000600052604160045260246000fd5b6040516101c0810167ffffffffffffffff81118282101715610147576101476100f4565b60405290565b803573ffffffffffffffffffffffffffffffffffffffff8116811461017157600080fd5b919050565b60006080828403121561018857600080fd5b6040516080810181811067ffffffffffffffff821117156101ab576101ab6100f4565b8060405250809150823581526020830135602082015260408301356040820152606083013560608201525092915050565b600082601f8301126101ed57600080fd5b813567ffffffffffffffff80821115610208576102086100f4565b604051601f83017fffffffffffffffffffffffffffffffffffffffffffffffffffffffffffffffe0908116603f0116810190828211818310171561024e5761024e6100f4565b8160405283815286602085880101111561026757600080fd5b836020870160208301376000602085830101528094505050505092915050565b600080600080600080600080888a036103008112156102a557600080fd5b610220808212156102b557600080fd5b6102bd610123565b91506102c88b61014d565b82526102d660208c0161014d565b60208301526102e760408c0161014d565b604083015260608b0135606083015260808b0135608083015260a08b013560a083015260c08b013560c083015260e08b013560e0830152610100808c01358184015250610120808c01358184015250610140610344818d0161014d565b908301526101606103568c820161014d565b908301526101806103688c820161014d565b908301526101a061037b8d8d8301610176565b9083015290985089013567ffffffffffffffff81111561039a57600080fd5b6103a68b828c016101dc565b9750506103b66102408a0161014d565b95506103c56102608a0161014d565b94506103d46102808a0161014d565b93506103e36102a08a0161014d565b92506103f26102c08a0161014d565b91506102e089013590509295985092959890939650565b865173ffffffffffffffffffffffffffffffffffffffff1681526102c08101602088015161044f602084018273ffffffffffffffffffffffffffffffffffffffff169052565b506040880151610477604084018273ffffffffffffffffffffffffffffffffffffffff169052565b50606088015160608301526080880151608083015260a088015160a083015260c088015160c083015260e088015160e0830152610100808901518184015250610120808901518184015250610140808901516104ea8285018273ffffffffffffffffffffffffffffffffffffffff169052565b50506101608881015173ffffffffffffffffffffffffffffffffffffffff90811691840191909152610180808a01518216908401526101a09889015180519984019990995260208901516101c084015260408901516101e084015260609098015161020083015295871661022082015293861661024085015291851661026084015284166102808301529092166102a0909201919091529056fe6102e06040523480156200001257600080fd5b506040516200184438038062001844833981016040819052620000359162000201565b600160005585516001600160a01b039081166080908152602080890151831660a0908152918901516101a0908152918901516101c05260c0808a01516101e052610100808b015190915260e0808b01519052610120808b01519091529189018051519092528151015161014090815281516040908101516101609081529251606090810151610180908152918b01518516610200528a01516102205290890151600a80549185166001600160a01b0319928316179055918901516008805491851691841691909117905590970151600980549183169190981617909655938516610240529184166102605283166102805282166102a052166102c0526200036b565b6040516101c081016001600160401b03811182821017156200016957634e487b7160e01b600052604160045260246000fd5b60405290565b80516001600160a01b03811681146200018757600080fd5b919050565b6000608082840312156200019f57600080fd5b604051608081016001600160401b0381118282101715620001d057634e487b7160e01b600052604160045260246000fd5b8060405250809150825181526020830151602082015260408301516040820152606083015160608201525092915050565b6000806000806000808688036102c08112156200021d57600080fd5b610220808212156200022e57600080fd5b6200023862000137565b915062000245896200016f565b82526200025560208a016200016f565b60208301526200026860408a016200016f565b6040830152606089015160608301526080890151608083015260a089015160a083015260c089015160c083015260e089015160e0830152610100808a01518184015250610120808a01518184015250610140620002c7818b016200016f565b90830152610160620002db8a82016200016f565b90830152610180620002ef8a82016200016f565b908301526101a0620003048b8b83016200018c565b818401525081975062000319818a016200016f565b965050506200032c61024088016200016f565b93506200033d61026088016200016f565b92506200034e61028088016200016f565b91506200035f6102a088016200016f565b90509295509295509295565b60805160a05160c05160e05161010051610120516101405161016051610180516101a0516101c0516101e05161020051610220516102405161026051610280516102a0516102c0516113a66200049e600039600081816106d9015281816109120152610c7801526000818161061e015281816108e2015281816109700152610c160152600081816105b701528181610c4c0152610ca30152600081816106a5015281816107e9015261087f0152600081816101e40152818161041b015281816107b90152818161081b0152818161084d015281816108b301528181610945015281816109a101528181610be40152610ccc015260005050600050506000505060005050600050506000505060005050600050506000505060005050600050506000505060005050600050506113a66000f3fe6080604052600436106101cd5760003560e01c80639cd241af116100f7578063d899e11211610095578063e4af29d111610064578063e4af29d114610352578063eac3e79914610693578063f3f70707146106c7578063f698da25146106fb576101cd565b8063d899e1121461060c578063dbbe807014610640578063ded0623114610653578063e44808bc14610673576101cd565b8063a6e8a859116100d1578063a6e8a859146105a5578063ab033ea914610352578063cba2e58d146105d9578063cbc13434146105ec576101cd565b80639cd241af14610585578063a22cb46514610532578063a42dce8014610352576101cd565b806330adf81f1161016f5780634ed2d6ac1161013e5780634ed2d6ac146105175780637180c8ca1461053257806377d05ff4146105525780639032c72614610565576101cd565b806330adf81f146104905780633e691db9146104c4578063414f826d146104e45780634c2ac1d914610504576101cd565b806317fad7fc116101ab57806317fad7fc146103c95780631c0f12b6146103e957806321b57d531461040957806329b23fc114610462576101cd565b806301681a621461035257806302329a2914610374578063074a6de91461038f575b3480156101d957600080fd5b5060003660606000807f000000000000000000000000000000000000000000000000000000000000000073ffffffffffffffffffffffffffffffffffffffff168585604051610229929190610d21565b600060405180830381855af49150503d8060008114610264576040519150601f19603f3d011682016040523d82523d6000602084013e610269565b606091505b509150915081156102a6576040517f8bb0a34b00000000000000000000000000000000000000000000000000000000815260040160405180910390fd5b60006102b182610d31565b90507fffffffff0000000000000000000000000000000000000000000000000000000081167fdcc81126000000000000000000000000000000000000000000000000000000001461030457815160208301fd5b81517ffffffffffffffffffffffffffffffffffffffffffffffffffffffffffffffffc8101600484019081529261034391810160200190602401610dd4565b80519650602001945050505050f35b34801561035e57600080fd5b5061037261036d366004610ec4565b6107b4565b005b34801561038057600080fd5b5061037261036d366004610efd565b34801561039b57600080fd5b506103af6103aa366004610f2a565b6107e1565b604080519283526020830191909152015b60405180910390f35b3480156103d557600080fd5b506103726103e4366004610fc6565b610816565b3480156103f557600080fd5b5061037261040436600461105b565b610848565b34801561041557600080fd5b5061043d7f000000000000000000000000000000000000000000000000000000000000000081565b60405173ffffffffffffffffffffffffffffffffffffffff90911681526020016103c0565b34801561046e57600080fd5b5061048261047d3660046110a3565b610878565b6040519081526020016103c0565b34801561049c57600080fd5b506104827f65619c8664d6db8aae8c236ad19598696159942a4245b23b45565cc18e97367381565b3480156104d057600080fd5b506104826104df3660046110fd565b6108ac565b3480156104f057600080fd5b506103726104ff36600461113a565b6108dd565b61048261051236600461115c565b61090b565b34801561052357600080fd5b506103726104043660046111c0565b34801561053e57600080fd5b5061037261054d36600461120a565b610940565b610482610560366004610f2a565b610969565b34801561057157600080fd5b5061037261058036600461123f565b61099c565b34801561059157600080fd5b506103726105a03660046112bd565b610bdf565b3480156105b157600080fd5b5061043d7f000000000000000000000000000000000000000000000000000000000000000081565b6103af6105e73660046110a3565b610c0e565b3480156105f857600080fd5b506103af610607366004610f2a565b610c44565b34801561061857600080fd5b5061043d7f000000000000000000000000000000000000000000000000000000000000000081565b6103af61064e3660046110a3565b610c70565b34801561065f57600080fd5b5061048261066e3660046110a3565b610c9c565b34801561067f57600080fd5b5061037261068e3660046112f5565b610cc7565b34801561069f57600080fd5b5061043d7f000000000000000000000000000000000000000000000000000000000000000081565b3480156106d357600080fd5b5061043d7f000000000000000000000000000000000000000000000000000000000000000081565b34801561070757600080fd5b50604080518082018252600181527f310000000000000000000000000000000000000000000000000000000000000060209182015281517f2aef22f9d7df5f9d21c56d14029233f3fdaa91917727e1eb68e504d27072d6cd818301527fc89efdaa54c0f20c7adf612882df0950f5a951637e0307cdcb4c672f298b8bc681840152466060820152306080808301919091528351808303909101815260a09091019092528151910120610482565b6107dd7f0000000000000000000000000000000000000000000000000000000000000000610cf8565b5050565b60008061080d7f0000000000000000000000000000000000000000000000000000000000000000610cf8565b50935093915050565b61083f7f0000000000000000000000000000000000000000000000000000000000000000610cf8565b50505050505050565b6108717f0000000000000000000000000000000000000000000000000000000000000000610cf8565b5050505050565b60006108a37f0000000000000000000000000000000000000000000000000000000000000000610cf8565b50949350505050565b60006108d77f0000000000000000000000000000000000000000000000000000000000000000610cf8565b50919050565b6109067f0000000000000000000000000000000000000000000000000000000000000000610cf8565b505050565b60006109367f0000000000000000000000000000000000000000000000000000000000000000610cf8565b5095945050505050565b6109067f0000000000000000000000000000000000000000000000000000000000000000610cf8565b60006109947f0000000000000000000000000000000000000000000000000000000000000000610cf8565b509392505050565b6000807f000000000000000000000000000000000000000000000000000000000000000073ffffffffffffffffffffffffffffffffffffffff16610a83604080518082018252600181527f310000000000000000000000000000000000000000000000000000000000000060209182015281517f2aef22f9d7df5f9d21c56d14029233f3fdaa91917727e1eb68e504d27072d6cd818301527fc89efdaa54c0f20c7adf612882df0950f5a951637e0307cdcb4c672f298b8bc681840152466060820152306080808301919091528351808303909101815260a0909101909252815191012090565b60405160248101919091527f65619c8664d6db8aae8c236ad19598696159942a4245b23b45565cc18e973673604482015273ffffffffffffffffffffffffffffffffffffffff808c1660648301528a16608482015288151560a482015260c4810188905260ff871660e48201526101048101869052610124810185905261014401604080517fffffffffffffffffffffffffffffffffffffffffffffffffffffffffffffffe08184030181529181526020820180517bffffffffffffffffffffffffffffffffffffffffffffffffffffffff167f14e5f07b0000000000000000000000000000000000000000000000000000000017905251610b859190611354565b600060405180830381855af49150503d8060008114610bc0576040519150601f19603f3d011682016040523d82523d6000602084013e610bc5565b606091505b509150915081610bd757805160208201fd5b805160208201f35b610c087f0000000000000000000000000000000000000000000000000000000000000000610cf8565b50505050565b600080610c3a7f0000000000000000000000000000000000000000000000000000000000000000610cf8565b5094509492505050565b60008061080d7f0000000000000000000000000000000000000000000000000000000000000000610cf8565b600080610c3a7f0000000000000000000000000000000000000000000000000000000000000000610cf8565b60006108a37f0000000000000000000000000000000000000000000000000000000000000000610cf8565b610cf07f0000000000000000000000000000000000000000000000000000000000000000610cf8565b505050505050565b60606000808373ffffffffffffffffffffffffffffffffffffffff16600036604051610b859291905b8183823760009101908152919050565b6000815160208301517fffffffff0000000000000000000000000000000000000000000000000000000080821693506004831015610d795780818460040360031b1b83161693505b505050919050565b7f4e487b7100000000000000000000000000000000000000000000000000000000600052604160045260246000fd5b60005b83811015610dcb578181015183820152602001610db3565b50506000910152565b600060208284031215610de657600080fd5b815167ffffffffffffffff80821115610dfe57600080fd5b818401915084601f830112610e1257600080fd5b815181811115610e2457610e24610d81565b604051601f82017fffffffffffffffffffffffffffffffffffffffffffffffffffffffffffffffe0908116603f01168101908382118183101715610e6a57610e6a610d81565b81604052828152876020848701011115610e8357600080fd5b610e94836020830160208801610db0565b979650505050505050565b73ffffffffffffffffffffffffffffffffffffffff81168114610ec157600080fd5b50565b600060208284031215610ed657600080fd5b8135610ee181610e9f565b9392505050565b80358015158114610ef857600080fd5b919050565b600060208284031215610f0f57600080fd5b610ee182610ee8565b6000606082840312156108d757600080fd5b600080600060608486031215610f3f57600080fd5b8335925060208401359150604084013567ffffffffffffffff811115610f6457600080fd5b610f7086828701610f18565b9150509250925092565b60008083601f840112610f8c57600080fd5b50813567ffffffffffffffff811115610fa457600080fd5b6020830191508360208260051b8501011115610fbf57600080fd5b9250929050565b60008060008060008060808789031215610fdf57600080fd5b8635610fea81610e9f565b95506020870135610ffa81610e9f565b9450604087013567ffffffffffffffff8082111561101757600080fd5b6110238a838b01610f7a565b9096509450606089013591508082111561103c57600080fd5b5061104989828a01610f7a565b979a9699509497509295939492505050565b6000806000806080858703121561107157600080fd5b84359350602085013561108381610e9f565b9250604085013561109381610e9f565b9396929550929360600135925050565b600080600080608085870312156110b957600080fd5b843593506020850135925060408501359150606085013567ffffffffffffffff8111156110e557600080fd5b6110f187828801610f18565b91505092959194509250565b60006020828403121561110f57600080fd5b813567ffffffffffffffff81111561112657600080fd5b61113284828501610f18565b949350505050565b6000806040838503121561114d57600080fd5b50508035926020909101359150565b600080600080600060a0868803121561117457600080fd5b85359450602086013593506040860135925060608601359150608086013567ffffffffffffffff8111156111a757600080fd5b6111b388828901610f18565b9150509295509295909350565b600080600080608085870312156111d657600080fd5b8435935060208501356111e881610e9f565b92506040850135915060608501356111ff81610e9f565b939692955090935050565b6000806040838503121561121d57600080fd5b823561122881610e9f565b915061123660208401610ee8565b90509250929050565b600080600080600080600060e0888a03121561125a57600080fd5b873561126581610e9f565b9650602088013561127581610e9f565b955061128360408901610ee8565b945060608801359350608088013560ff811681146112a057600080fd5b9699959850939692959460a0840135945060c09093013592915050565b6000806000606084860312156112d257600080fd5b8335925060208401356112e481610e9f565b929592945050506040919091013590565b600080600080600060a0868803121561130d57600080fd5b85359450602086013561131f81610e9f565b9350604086013561132f81610e9f565b925060608601359150608086013561134681610e9f565b809150509295509295909350565b60008251611366818460208701610db0565b919091019291505056fea2646970667358221220f43bee3cdf87cd87f1e459df85dde8c12e177438744a94173b2bd1e2d69de38d64736f6c63430008140033a2646970667358221220fdb3e6e415c55bf65a109fb26112879ba403b47df5ef6243d2d4f322464bbc0a64736f6c63430008140033",
  "linkReferences": {},
  "deployedLinkReferences": {}
}