{
  "_format": "hh-sol-artifact-1",
  "contractName": "MockHyperdriveTarget3",
  "sourceName": "contracts/test/MockHyperdrive.sol",
  "abi": [
    {
      "inputs": [
        {
          "components": [
            {
              "internalType": "contract IERC20",
              "name": "baseToken",
              "type": "address"
            },
            {
              "internalType": "contract IERC20",
              "name": "vaultSharesToken",
              "type": "address"
            },
            {
              "internalType": "address",
              "name": "linkerFactory",
              "type": "address"
            },
            {
              "internalType": "bytes32",
              "name": "linkerCodeHash",
              "type": "bytes32"
            },
            {
              "internalType": "uint256",
              "name": "initialVaultSharePrice",
              "type": "uint256"
            },
            {
              "internalType": "uint256",
              "name": "minimumShareReserves",
              "type": "uint256"
            },
            {
              "internalType": "uint256",
              "name": "minimumTransactionAmount",
              "type": "uint256"
            },
            {
              "internalType": "uint256",
              "name": "positionDuration",
              "type": "uint256"
            },
            {
              "internalType": "uint256",
              "name": "checkpointDuration",
              "type": "uint256"
            },
            {
              "internalType": "uint256",
              "name": "timeStretch",
              "type": "uint256"
            },
            {
              "internalType": "address",
              "name": "governance",
              "type": "address"
            },
            {
              "internalType": "address",
              "name": "feeCollector",
              "type": "address"
            },
            {
              "internalType": "address",
              "name": "sweepCollector",
              "type": "address"
            },
            {
              "components": [
                {
                  "internalType": "uint256",
                  "name": "curve",
                  "type": "uint256"
                },
                {
                  "internalType": "uint256",
                  "name": "flat",
                  "type": "uint256"
                },
                {
                  "internalType": "uint256",
                  "name": "governanceLP",
                  "type": "uint256"
                },
                {
                  "internalType": "uint256",
                  "name": "governanceZombie",
                  "type": "uint256"
                }
              ],
              "internalType": "struct IHyperdrive.Fees",
              "name": "fees",
              "type": "tuple"
            }
          ],
          "internalType": "struct IHyperdrive.PoolConfig",
          "name": "_config",
          "type": "tuple"
        }
      ],
      "stateMutability": "nonpayable",
      "type": "constructor"
    },
    {
      "inputs": [],
      "name": "BelowMinimumContribution",
      "type": "error"
    },
    {
      "inputs": [],
      "name": "DistributeExcessIdleFailed",
      "type": "error"
    },
    {
      "inputs": [],
      "name": "ExpInvalidExponent",
      "type": "error"
    },
    {
      "inputs": [],
      "name": "InsufficientLiquidity",
      "type": "error"
    },
    {
      "inputs": [],
      "name": "InvalidCheckpointTime",
      "type": "error"
    },
    {
      "inputs": [],
      "name": "InvalidPresentValue",
      "type": "error"
    },
    {
      "inputs": [],
      "name": "InvalidTimestamp",
      "type": "error"
    },
    {
      "inputs": [],
      "name": "LnInvalidInput",
      "type": "error"
    },
    {
      "inputs": [],
      "name": "MinimumSharePrice",
      "type": "error"
    },
    {
      "inputs": [],
      "name": "MinimumTransactionAmount",
      "type": "error"
    },
    {
      "inputs": [],
      "name": "NotPayable",
      "type": "error"
    },
    {
      "inputs": [],
      "name": "OutputLimit",
      "type": "error"
    },
    {
      "inputs": [],
      "name": "PoolAlreadyInitialized",
      "type": "error"
    },
    {
      "inputs": [],
      "name": "PoolIsPaused",
      "type": "error"
    },
    {
      "inputs": [],
      "name": "ReentrancyGuardReentrantCall",
      "type": "error"
    },
    {
      "inputs": [],
      "name": "RestrictedZeroAddress",
      "type": "error"
    },
    {
      "inputs": [],
      "name": "TransferFailed",
      "type": "error"
    },
    {
      "inputs": [],
      "name": "UnsafeCastToInt128",
      "type": "error"
    },
    {
      "inputs": [],
      "name": "UnsafeCastToInt256",
      "type": "error"
    },
    {
      "inputs": [],
      "name": "UnsafeCastToUint112",
      "type": "error"
    },
    {
      "inputs": [],
      "name": "UnsafeCastToUint128",
      "type": "error"
    },
    {
      "anonymous": false,
      "inputs": [
        {
          "indexed": true,
          "internalType": "address",
          "name": "provider",
          "type": "address"
        },
        {
          "indexed": false,
          "internalType": "uint256",
          "name": "lpAmount",
          "type": "uint256"
        },
        {
          "indexed": false,
          "internalType": "uint256",
          "name": "baseAmount",
          "type": "uint256"
        },
        {
          "indexed": false,
          "internalType": "uint256",
          "name": "vaultShareAmount",
          "type": "uint256"
        },
        {
          "indexed": false,
          "internalType": "bool",
          "name": "asBase",
          "type": "bool"
        },
        {
          "indexed": false,
          "internalType": "uint256",
          "name": "lpSharePrice",
          "type": "uint256"
        }
      ],
      "name": "AddLiquidity",
      "type": "event"
    },
    {
      "anonymous": false,
      "inputs": [
        {
          "indexed": true,
          "internalType": "address",
          "name": "owner",
          "type": "address"
        },
        {
          "indexed": true,
          "internalType": "address",
          "name": "spender",
          "type": "address"
        },
        {
          "indexed": false,
          "internalType": "uint256",
          "name": "value",
          "type": "uint256"
        }
      ],
      "name": "Approval",
      "type": "event"
    },
    {
      "anonymous": false,
      "inputs": [
        {
          "indexed": true,
          "internalType": "address",
          "name": "account",
          "type": "address"
        },
        {
          "indexed": true,
          "internalType": "address",
          "name": "operator",
          "type": "address"
        },
        {
          "indexed": false,
          "internalType": "bool",
          "name": "approved",
          "type": "bool"
        }
      ],
      "name": "ApprovalForAll",
      "type": "event"
    },
    {
      "anonymous": false,
      "inputs": [
        {
          "indexed": true,
          "internalType": "address",
          "name": "trader",
          "type": "address"
        },
        {
          "indexed": true,
          "internalType": "address",
          "name": "destination",
          "type": "address"
        },
        {
          "indexed": true,
          "internalType": "uint256",
          "name": "assetId",
          "type": "uint256"
        },
        {
          "indexed": false,
          "internalType": "uint256",
          "name": "maturityTime",
          "type": "uint256"
        },
        {
          "indexed": false,
          "internalType": "uint256",
          "name": "baseAmount",
          "type": "uint256"
        },
        {
          "indexed": false,
          "internalType": "uint256",
          "name": "vaultShareAmount",
          "type": "uint256"
        },
        {
          "indexed": false,
          "internalType": "bool",
          "name": "asBase",
          "type": "bool"
        },
        {
          "indexed": false,
          "internalType": "uint256",
          "name": "bondAmount",
          "type": "uint256"
        }
      ],
      "name": "CloseLong",
      "type": "event"
    },
    {
      "anonymous": false,
      "inputs": [
        {
          "indexed": true,
          "internalType": "address",
          "name": "trader",
          "type": "address"
        },
        {
          "indexed": true,
          "internalType": "address",
          "name": "destination",
          "type": "address"
        },
        {
          "indexed": true,
          "internalType": "uint256",
          "name": "assetId",
          "type": "uint256"
        },
        {
          "indexed": false,
          "internalType": "uint256",
          "name": "maturityTime",
          "type": "uint256"
        },
        {
          "indexed": false,
          "internalType": "uint256",
          "name": "baseAmount",
          "type": "uint256"
        },
        {
          "indexed": false,
          "internalType": "uint256",
          "name": "vaultShareAmount",
          "type": "uint256"
        },
        {
          "indexed": false,
          "internalType": "bool",
          "name": "asBase",
          "type": "bool"
        },
        {
          "indexed": false,
          "internalType": "uint256",
          "name": "basePayment",
          "type": "uint256"
        },
        {
          "indexed": false,
          "internalType": "uint256",
          "name": "bondAmount",
          "type": "uint256"
        }
      ],
      "name": "CloseShort",
      "type": "event"
    },
    {
      "anonymous": false,
      "inputs": [
        {
          "indexed": true,
          "internalType": "address",
          "name": "collector",
          "type": "address"
        },
        {
          "indexed": false,
          "internalType": "uint256",
          "name": "fees",
          "type": "uint256"
        }
      ],
      "name": "CollectGovernanceFee",
      "type": "event"
    },
    {
      "anonymous": false,
      "inputs": [
        {
          "indexed": true,
          "internalType": "uint256",
          "name": "checkpointTime",
          "type": "uint256"
        },
        {
          "indexed": false,
          "internalType": "uint256",
          "name": "checkpointVaultSharePrice",
          "type": "uint256"
        },
        {
          "indexed": false,
          "internalType": "uint256",
          "name": "vaultSharePrice",
          "type": "uint256"
        },
        {
          "indexed": false,
          "internalType": "uint256",
          "name": "maturedShorts",
          "type": "uint256"
        },
        {
          "indexed": false,
          "internalType": "uint256",
          "name": "maturedLongs",
          "type": "uint256"
        },
        {
          "indexed": false,
          "internalType": "uint256",
          "name": "lpSharePrice",
          "type": "uint256"
        }
      ],
      "name": "CreateCheckpoint",
      "type": "event"
    },
    {
      "anonymous": false,
      "inputs": [
        {
          "indexed": true,
          "internalType": "address",
          "name": "newFeeCollector",
          "type": "address"
        }
      ],
      "name": "FeeCollectorUpdated",
      "type": "event"
    },
    {
      "anonymous": false,
      "inputs": [
        {
          "indexed": true,
          "internalType": "address",
          "name": "newGovernance",
          "type": "address"
        }
      ],
      "name": "GovernanceUpdated",
      "type": "event"
    },
    {
      "anonymous": false,
      "inputs": [
        {
          "indexed": true,
          "internalType": "address",
          "name": "provider",
          "type": "address"
        },
        {
          "indexed": false,
          "internalType": "uint256",
          "name": "lpAmount",
          "type": "uint256"
        },
        {
          "indexed": false,
          "internalType": "uint256",
          "name": "baseAmount",
          "type": "uint256"
        },
        {
          "indexed": false,
          "internalType": "uint256",
          "name": "vaultShareAmount",
          "type": "uint256"
        },
        {
          "indexed": false,
          "internalType": "bool",
          "name": "asBase",
          "type": "bool"
        },
        {
          "indexed": false,
          "internalType": "uint256",
          "name": "apr",
          "type": "uint256"
        }
      ],
      "name": "Initialize",
      "type": "event"
    },
    {
      "anonymous": false,
      "inputs": [
        {
          "indexed": true,
          "internalType": "address",
          "name": "trader",
          "type": "address"
        },
        {
          "indexed": true,
          "internalType": "uint256",
          "name": "assetId",
          "type": "uint256"
        },
        {
          "indexed": false,
          "internalType": "uint256",
          "name": "maturityTime",
          "type": "uint256"
        },
        {
          "indexed": false,
          "internalType": "uint256",
          "name": "baseAmount",
          "type": "uint256"
        },
        {
          "indexed": false,
          "internalType": "uint256",
          "name": "vaultShareAmount",
          "type": "uint256"
        },
        {
          "indexed": false,
          "internalType": "bool",
          "name": "asBase",
          "type": "bool"
        },
        {
          "indexed": false,
          "internalType": "uint256",
          "name": "bondAmount",
          "type": "uint256"
        }
      ],
      "name": "OpenLong",
      "type": "event"
    },
    {
      "anonymous": false,
      "inputs": [
        {
          "indexed": true,
          "internalType": "address",
          "name": "trader",
          "type": "address"
        },
        {
          "indexed": true,
          "internalType": "uint256",
          "name": "assetId",
          "type": "uint256"
        },
        {
          "indexed": false,
          "internalType": "uint256",
          "name": "maturityTime",
          "type": "uint256"
        },
        {
          "indexed": false,
          "internalType": "uint256",
          "name": "baseAmount",
          "type": "uint256"
        },
        {
          "indexed": false,
          "internalType": "uint256",
          "name": "vaultShareAmount",
          "type": "uint256"
        },
        {
          "indexed": false,
          "internalType": "bool",
          "name": "asBase",
          "type": "bool"
        },
        {
          "indexed": false,
          "internalType": "uint256",
          "name": "baseProceeds",
          "type": "uint256"
        },
        {
          "indexed": false,
          "internalType": "uint256",
          "name": "bondAmount",
          "type": "uint256"
        }
      ],
      "name": "OpenShort",
      "type": "event"
    },
    {
      "anonymous": false,
      "inputs": [
        {
          "indexed": false,
          "internalType": "bool",
          "name": "isPaused",
          "type": "bool"
        }
      ],
      "name": "PauseStatusUpdated",
      "type": "event"
    },
    {
      "anonymous": false,
      "inputs": [
        {
          "indexed": true,
          "internalType": "address",
          "name": "newPauser",
          "type": "address"
        },
        {
          "indexed": false,
          "internalType": "bool",
          "name": "status",
          "type": "bool"
        }
      ],
      "name": "PauserUpdated",
      "type": "event"
    },
    {
      "anonymous": false,
      "inputs": [
        {
          "indexed": true,
          "internalType": "address",
          "name": "provider",
          "type": "address"
        },
        {
          "indexed": true,
          "internalType": "address",
          "name": "destination",
          "type": "address"
        },
        {
          "indexed": false,
          "internalType": "uint256",
          "name": "withdrawalShareAmount",
          "type": "uint256"
        },
        {
          "indexed": false,
          "internalType": "uint256",
          "name": "baseAmount",
          "type": "uint256"
        },
        {
          "indexed": false,
          "internalType": "uint256",
          "name": "vaultShareAmount",
          "type": "uint256"
        },
        {
          "indexed": false,
          "internalType": "bool",
          "name": "asBase",
          "type": "bool"
        }
      ],
      "name": "RedeemWithdrawalShares",
      "type": "event"
    },
    {
      "anonymous": false,
      "inputs": [
        {
          "indexed": true,
          "internalType": "address",
          "name": "provider",
          "type": "address"
        },
        {
          "indexed": true,
          "internalType": "address",
          "name": "destination",
          "type": "address"
        },
        {
          "indexed": false,
          "internalType": "uint256",
          "name": "lpAmount",
          "type": "uint256"
        },
        {
          "indexed": false,
          "internalType": "uint256",
          "name": "baseAmount",
          "type": "uint256"
        },
        {
          "indexed": false,
          "internalType": "uint256",
          "name": "vaultShareAmount",
          "type": "uint256"
        },
        {
          "indexed": false,
          "internalType": "bool",
          "name": "asBase",
          "type": "bool"
        },
        {
          "indexed": false,
          "internalType": "uint256",
          "name": "withdrawalShareAmount",
          "type": "uint256"
        },
        {
          "indexed": false,
          "internalType": "uint256",
          "name": "lpSharePrice",
          "type": "uint256"
        }
      ],
      "name": "RemoveLiquidity",
      "type": "event"
    },
    {
      "anonymous": false,
      "inputs": [
        {
          "indexed": true,
          "internalType": "address",
          "name": "collector",
          "type": "address"
        },
        {
          "indexed": true,
          "internalType": "address",
          "name": "target",
          "type": "address"
        }
      ],
      "name": "Sweep",
      "type": "event"
    },
    {
      "anonymous": false,
      "inputs": [
        {
          "indexed": true,
          "internalType": "address",
          "name": "newSweepCollector",
          "type": "address"
        }
      ],
      "name": "SweepCollectorUpdated",
      "type": "event"
    },
    {
      "anonymous": false,
      "inputs": [
        {
          "indexed": true,
          "internalType": "address",
          "name": "operator",
          "type": "address"
        },
        {
          "indexed": true,
          "internalType": "address",
          "name": "from",
          "type": "address"
        },
        {
          "indexed": true,
          "internalType": "address",
          "name": "to",
          "type": "address"
        },
        {
          "indexed": false,
          "internalType": "uint256",
          "name": "id",
          "type": "uint256"
        },
        {
          "indexed": false,
          "internalType": "uint256",
          "name": "value",
          "type": "uint256"
        }
      ],
      "name": "TransferSingle",
      "type": "event"
    },
    {
      "inputs": [
        {
          "internalType": "uint256",
          "name": "_checkpointTime",
          "type": "uint256"
        },
        {
          "internalType": "uint256",
          "name": "_maxIterations",
          "type": "uint256"
        }
      ],
      "name": "checkpoint",
      "outputs": [],
      "stateMutability": "nonpayable",
      "type": "function"
    },
    {
      "inputs": [
        {
          "internalType": "uint256",
          "name": "_contribution",
          "type": "uint256"
        },
        {
          "internalType": "uint256",
          "name": "_apr",
          "type": "uint256"
        },
        {
          "components": [
            {
              "internalType": "address",
              "name": "destination",
              "type": "address"
            },
            {
              "internalType": "bool",
              "name": "asBase",
              "type": "bool"
            },
            {
              "internalType": "bytes",
              "name": "extraData",
              "type": "bytes"
            }
          ],
          "internalType": "struct IHyperdrive.Options",
          "name": "_options",
          "type": "tuple"
        }
      ],
      "name": "initialize",
      "outputs": [
        {
          "internalType": "uint256",
          "name": "",
          "type": "uint256"
        }
      ],
      "stateMutability": "payable",
      "type": "function"
    },
    {
      "inputs": [
        {
          "internalType": "uint256",
          "name": "_amount",
          "type": "uint256"
        },
        {
          "internalType": "uint256",
          "name": "_minOutput",
          "type": "uint256"
        },
        {
          "internalType": "uint256",
          "name": "_minVaultSharePrice",
          "type": "uint256"
        },
        {
          "components": [
            {
              "internalType": "address",
              "name": "destination",
              "type": "address"
            },
            {
              "internalType": "bool",
              "name": "asBase",
              "type": "bool"
            },
            {
              "internalType": "bytes",
              "name": "extraData",
              "type": "bytes"
            }
          ],
          "internalType": "struct IHyperdrive.Options",
          "name": "_options",
          "type": "tuple"
        }
      ],
      "name": "openLong",
      "outputs": [
        {
          "internalType": "uint256",
          "name": "",
          "type": "uint256"
        },
        {
          "internalType": "uint256",
          "name": "",
          "type": "uint256"
        }
      ],
      "stateMutability": "payable",
      "type": "function"
    }
  ],
  "bytecode": "0x6102406040523480156200001257600080fd5b5060405162005b6f38038062005b6f8339810160408190526200003591620001e1565b600160005580516001600160a01b039081166080908152602080840151831660a0908152918401516101a0908152918401516101c05260c0808501516101e0526101008086015190915260e0808601519052610120808601519091529184018051519092528151015161014090815281516040908101516101609081529251606090810151610180908152918601518516610200528501516102205290840151600a80546001600160a01b03199081169286169290921790559184015160088054841691851691909117905590920151600980549093169116179055620002d4565b6040516101c081016001600160401b03811182821017156200014957634e487b7160e01b600052604160045260246000fd5b60405290565b80516001600160a01b03811681146200016757600080fd5b919050565b6000608082840312156200017f57600080fd5b604051608081016001600160401b0381118282101715620001b057634e487b7160e01b600052604160045260246000fd5b8060405250809150825181526020830151602082015260408301516040820152606083015160608201525092915050565b60006102208284031215620001f557600080fd5b620001ff62000117565b6200020a836200014f565b81526200021a602084016200014f565b60208201526200022d604084016200014f565b6040820152606083015160608201526080830151608082015260a083015160a082015260c083015160c082015260e083015160e08201526101008084015181830152506101208084015181830152506101406200028c8185016200014f565b90820152610160620002a08482016200014f565b90820152610180620002b48482016200014f565b908201526101a0620002c9858583016200016c565b908201529392505050565b60805160a05160c05160e05161010051610120516101405161016051610180516101a0516101c0516101e05161020051610220516156e46200048b60003960005050600050506000818161055301526132bd015260008181610238015281816102c6015281816103e4015281816119b4015281816119f901528181611ce2015281816123da0152818161243d0152818161313e015261329701526000818161033d01528181611385015281816113e30152818161151901528181612b1001528181612b9b015261327101526000611f200152600081816120730152613027015260008181610c320152818161145601526120470152600081816114350152612fe301526000818161038001528181611363015281816114040152818161153a01526132e301526000818161035f0152818161066a01528181610b64015261448f015260008181610148015281816109ce01528181610a6d0152610adb01526000505060008181610f5101528181611876015281816118e50152818161286b015281816128da0152818161298401528181612a4401528181612c1401528181612cd401528181613d890152613df801526156e46000f3fe6080604052600436106100345760003560e01c8063414f826d1461003957806377d05ff41461005b578063cba2e58d14610081575b600080fd5b34801561004557600080fd5b50610059610054366004615238565b6100a9565b005b61006e61006936600461526c565b6100b7565b6040519081526020015b60405180910390f35b61009461008f3660046152bc565b6100ce565b60408051928352602083019190915201610078565b6100b382826100eb565b5050565b60006100c48484846101c9565b90505b9392505050565b6000806100dd868686866104d3565b915091505b94509492505050565b6100f3610778565b60006100fd6107bb565b6000848152600760205260409020549091506fffffffffffffffffffffffffffffffff16156101375761013081836107d3565b50506101bf565b60006101416109c7565b905061016d7f000000000000000000000000000000000000000000000000000000000000000085615345565b15158061017957508381105b156101b0576040517fecd29e8100000000000000000000000000000000000000000000000000000000815260040160405180910390fd5b6101bb8483856109fd565b5050505b6100b36001600055565b60006101d3610778565b6101db610f4f565b6101e482610fe1565b60055460ff1615610221576040517f7983c05100000000000000000000000000000000000000000000000000000000815260040160405180910390fd5b60008061022e8685611040565b909250905061025e7f00000000000000000000000000000000000000000000000000000000000000006002615388565b821015610297576040517fabed41c400000000000000000000000000000000000000000000000000000000815260040160405180910390fd5b600580547fffffffffffffffffffffffffffffffffffffffffffffffffffffffffffffff0016600117905560027f000000000000000000000000000000000000000000000000000000000000000002820392506102f382611132565b600180547fffffffffffffffffffffffffffffffff00000000000000000000000000000000166fffffffffffffffffffffffffffffffff929092169190911790556103a96103a4837f0000000000000000000000000000000000000000000000000000000000000000887f00000000000000000000000000000000000000000000000000000000000000007f0000000000000000000000000000000000000000000000000000000000000000611182565b611132565b600180546fffffffffffffffffffffffffffffffff9283167001000000000000000000000000000000000292169190911790556104086000807f0000000000000000000000000000000000000000000000000000000000000000611221565b610420600061041a602087018761539f565b85611221565b61043361042b6109c7565b8260046109fd565b5060006104418783876112e3565b9050610450602086018661539f565b73ffffffffffffffffffffffffffffffffffffffff167fdfe2bf9f580df5ec15438120ffa6f0603237c4e6b65d07140a4695317da4f95285838661049a60408b0160208c016153e3565b60408051948552602085019390935291830152151560608201526080810189905260a00160405180910390a25050506100c76001600055565b6000806104de610778565b600554610100900460ff1615610520576040517f21081abf00000000000000000000000000000000000000000000000000000000815260040160405180910390fd5b610528610f4f565b61053183610fe1565b60008061053e8886611040565b9092509050600061054f8383611312565b90507f00000000000000000000000000000000000000000000000000000000000000008110156105ab576040517f423bbb4600000000000000000000000000000000000000000000000000000000815260040160405180910390fd5b868210156105e5576040517f42af972b00000000000000000000000000000000000000000000000000000000815260040160405180910390fd5b60006105ef6109c7565b90506105fd818460046109fd565b5060008061060b8686611327565b90985090925090508a87101561064d576040517fc972651700000000000000000000000000000000000000000000000000000000815260040160405180910390fd5b80600b600082825461065f9190615400565b9091555061068f90507f000000000000000000000000000000000000000000000000000000000000000084615400565b975061069d8288878b611576565b60006106aa60018a6117c2565b90506106c3816106bd60208d018d61539f565b8a611221565b8c8989888d856106d6602083018361539f565b73ffffffffffffffffffffffffffffffffffffffff167f88087800d03445c97e2009f3f90906bf6ede79bbd194e275c66224e977a5b84c866107198987876112e3565b6107248a8888611828565b61073460408801602089016153e3565b60408051948552602085019390935291830152151560608201526080810187905260a00160405180910390a350909a50505050505050505050506100e26001600055565b6002600054036107b4576040517f3ee5aeb500000000000000000000000000000000000000000000000000000000815260040160405180910390fd5b6002600055565b60006107ce670de0b6b3a7640000611850565b905090565b6006547f03000000000000000000000000000000000000000000000000000000000000006000908152600e6020527fd2d06a3478833ecfcc0864e3afb188a7ff21caef68ea336a6e4f79f78f6fb3e95490918291610843916fffffffffffffffffffffffffffffffff1690615413565b9050806000036108575760019150506109c1565b600061086285611989565b905080600003610877576001925050506109c1565b600080610885838589611a46565b915091508061089b5760009450505050506109c1565b6000806108a88489611b53565b915091506108c66108b882611c43565b6108c190615426565b611c9f565b9250826108dc57600096505050505050506109c1565b6108e582611132565b600680546000906109099084906fffffffffffffffffffffffffffffffff1661545e565b92506101000a8154816fffffffffffffffffffffffffffffffff02191690836fffffffffffffffffffffffffffffffff16021790555061094881611132565b6006805460109061098090849070010000000000000000000000000000000090046fffffffffffffffffffffffffffffffff1661545e565b92506101000a8154816fffffffffffffffffffffffffffffffff02191690836fffffffffffffffffffffffffffffffff160217905550600196505050505050505b92915050565b60006109f37f000000000000000000000000000000000000000000000000000000000000000042615345565b6107ce9042615413565b600083815260076020526040812080546fffffffffffffffffffffffffffffffff16151580610a2b57504285115b15610a4a57546fffffffffffffffffffffffffffffffff1690506100c7565b600080610a556109c7565b9050808703610a6657859150610b09565b6000610a927f000000000000000000000000000000000000000000000000000000000000000089615400565b90505b6000818152600760205260409020546fffffffffffffffffffffffffffffffff1692508181148015610ac5575082155b15610ace578692505b82600003610b0757610b007f000000000000000000000000000000000000000000000000000000000000000082615400565b9050610a95565b505b610b1282611132565b83547fffffffffffffffffffffffffffffffff00000000000000000000000000000000166fffffffffffffffffffffffffffffffff91909116178355610b5786611e1a565b5060009050600781610b897f00000000000000000000000000000000000000000000000000000000000000008b615413565b815260208101919091526040016000908120546fffffffffffffffffffffffffffffffff169150610bbb60028a6117c2565b6000818152600e60205260408120549192508a8a8315610d3e5760019250600080610bea86898c866000612030565b9150915080600b6000828254610c009190615400565b90915550610c1c905086600084610c1681611c43565b886120ff565b610c268183615400565b9150610c5686838a8d877f0000000000000000000000000000000000000000000000000000000000000000612326565b9150610c6a610c658385611312565b612370565b60058054600290610c929084906201000090046dffffffffffffffffffffffffffff16615487565b92506101000a8154816dffffffffffffffffffffffffffff02191690836dffffffffffffffffffffffffffff160217905550610ccd82611132565b60058054601090610d0590849070010000000000000000000000000000000090046fffffffffffffffffffffffffffffffff1661545e565b92506101000a8154816fffffffffffffffffffffffffffffffff02191690836fffffffffffffffffffffffffffffffff16021790555050505b6000610d4b6001846117c2565b6000818152600e60205260409020549091508015610e975760019450600080610d78838b8e886001612030565b9150915080600b6000828254610d8e9190615400565b90915550610daa905083600084610da481611c43565b8a6123ba565b610db48183615413565b9150610dc3610c658387611312565b60058054600290610deb9084906201000090046dffffffffffffffffffffffffffff16615487565b92506101000a8154816dffffffffffffffffffffffffffff02191690836dffffffffffffffffffffffffffff160217905550610e2682611132565b60058054601090610e5e90849070010000000000000000000000000000000090046fffffffffffffffffffffffffffffffff1661545e565b92506101000a8154816fffffffffffffffffffffffffffffffff02191690836fffffffffffffffffffffffffffffffff16021790555050505b8415610ecf57610ec3610ea987611c43565b610eb283611c43565b610ebc91906154ae565b6000612674565b610ecd8e8e6107d3565b505b6000610eda8f61274b565b5090508f7fff888cf98d2696e95c8c39aa98c9ad55a5378008f7a56614c9353b7137a57ab78c868a8686604051610f33959493929190948552602085019390935260408401919091526060830152608082015260a00190565b60405180910390a250989e9d5050505050505050505050505050565b7f000000000000000000000000000000000000000000000000000000000000000073ffffffffffffffffffffffffffffffffffffffff1673eeeeeeeeeeeeeeeeeeeeeeeeeeeeeeeeeeeeeeee14801590610fa857503415155b15610fdf576040517f1574f9f300000000000000000000000000000000000000000000000000000000815260040160405180910390fd5b565b6000610ff0602083018361539f565b73ffffffffffffffffffffffffffffffffffffffff160361103d576040517ff0dd15fd00000000000000000000000000000000000000000000000000000000815260040160405180910390fd5b50565b6000808061105460408501602086016153e3565b156110795761106f8561106a60408701876154ce565b612844565b9093509050611095565b50346110918561108c60408701876154ce565b612b7e565b8492505b61109d6107bb565b9150801561112957604051600090339083908381818185875af1925050503d80600081146110e7576040519150601f19603f3d011682016040523d82523d6000602084013e6110ec565b606091505b5050905080611127576040517f90b8ec1800000000000000000000000000000000000000000000000000000000815260040160405180910390fd5b505b505b9250929050565b60006fffffffffffffffffffffffffffffffff82111561117e576040517f1e15f2a200000000000000000000000000000000000000000000000000000000815260040160405180910390fd5b5090565b600080611193846301e13380612d98565b905060006111a18683611312565b6111b390670de0b6b3a7640000615400565b9050670de0b6b3a764000081106111e7576111e06111d9670de0b6b3a764000086612d98565b8290612dad565b90506111ff565b6111fc6111d9670de0b6b3a764000086612e22565b90505b6112138161120d898b611312565b90611312565b925050505b95945050505050565b6000838152600d6020908152604080832073ffffffffffffffffffffffffffffffffffffffff8616845290915281208054839290611260908490615400565b90915550506000838152600e602052604081208054839290611283908490615400565b9091555050604080518481526020810183905273ffffffffffffffffffffffffffffffffffffffff84169160009133917fc3d58168c5ae7397731d063d5bbf3d657854427343f4c083240f7aacaa2d0f62910160405180910390a4505050565b60006112f560408301602084016153e3565b156113015750826100c7565b61130b8484611312565b90506100c7565b60006100c78383670de0b6b3a7640000612e37565b60008060006113a9611337612e73565b60015470010000000000000000000000000000000090046fffffffffffffffffffffffffffffffff16877f0000000000000000000000000000000000000000000000000000000000000000887f0000000000000000000000000000000000000000000000000000000000000000612e9d565b915060006114286113b8612e73565b60015470010000000000000000000000000000000090046fffffffffffffffffffffffffffffffff167f00000000000000000000000000000000000000000000000000000000000000007f0000000000000000000000000000000000000000000000000000000000000000612ec9565b905061147f868461147a847f00000000000000000000000000000000000000000000000000000000000000007f0000000000000000000000000000000000000000000000000000000000000000612ee0565b612f4b565b1561148c5761148c612fa3565b60008061149a888489612fd5565b90925090506114a98286615413565b94506114b6818489612e37565b93506114c28489615413565b9550670de0b6b3a764000061155e876114d9612e73565b6114e39190615400565b60015461151790899070010000000000000000000000000000000090046fffffffffffffffffffffffffffffffff16615413565b7f00000000000000000000000000000000000000000000000000000000000000007f0000000000000000000000000000000000000000000000000000000000000000612ec9565b111561156c5761156c612fa3565b5050509250925092565b60025470010000000000000000000000000000000090046fffffffffffffffffffffffffffffffff166115d76103a4826115b8670de0b6b3a764000086615388565b6004546fffffffffffffffffffffffffffffffff169190886001613055565b600480547fffffffffffffffffffffffffffffffff00000000000000000000000000000000166fffffffffffffffffffffffffffffffff9290921691909117905561162185611132565b600180546000906116459084906fffffffffffffffffffffffffffffffff1661545e565b92506101000a8154816fffffffffffffffffffffffffffffffff02191690836fffffffffffffffffffffffffffffffff16021790555061168484611132565b600180546010906116bc90849070010000000000000000000000000000000090046fffffffffffffffffffffffffffffffff16615533565b92506101000a8154816fffffffffffffffffffffffffffffffff02191690836fffffffffffffffffffffffffffffffff1602179055506116fb84611132565b611705908261545e565b600280546fffffffffffffffffffffffffffffffff80841670010000000000000000000000000000000002911617905590506000611742836130f3565b90506117608161175187611c43565b61175b908461555c565b612674565b61176984613137565b61177557611775612fa3565b6000611780856131a9565b9050806117b9576040517f8bdf918d00000000000000000000000000000000000000000000000000000000815260040160405180910390fd5b50505050505050565b60007effffffffffffffffffffffffffffffffffffffffffffffffffffffffffffff82111561181d576040517fb7d0949700000000000000000000000000000000000000000000000000000000815260040160405180910390fd5b5060f89190911b1790565b600061183a60408301602084016153e3565b156118495761130b8484612d98565b50826100c7565b6000807fffffffffffffffffffffffff11111111111111111111111111111111111111127f000000000000000000000000000000000000000000000000000000000000000073ffffffffffffffffffffffffffffffffffffffff16016118b7575047611968565b6040517f70a082310000000000000000000000000000000000000000000000000000000081523060048201527f000000000000000000000000000000000000000000000000000000000000000073ffffffffffffffffffffffffffffffffffffffff16906370a0823190602401602060405180830381865afa158015611941573d6000803e3d6000fd5b505050506040513d601f19601f820116820180604052508101906119659190615584565b90505b6012546000036119795760006100c7565b6012546100c79084908390612e37565b60025460009081906119ad906fffffffffffffffffffffffffffffffff1684612e22565b90506119d97f000000000000000000000000000000000000000000000000000000000000000082615400565b6001546fffffffffffffffffffffffffffffffff161115611a40576001547f000000000000000000000000000000000000000000000000000000000000000090611a369083906fffffffffffffffffffffffffffffffff16615413565b6100c79190615413565b50919050565b611a4e61518a565b600080611a5a846131b6565b90506000611a6782613378565b9350905082611a7c575060009150611b4b9050565b6000611aa3611a9e84610160015185610140015161131290919063ffffffff16565b611c43565b611ac3611a9e85610120015186610100015161340590919063ffffffff16565b611acd91906154ae565b604080516101208101825285815260208082019590955260008052600e85527fe710864318d4a32f37d6ce54cb3fadbef648dd12d8dbdf53973564d56b7f881c5481830152606081018a9052608081018b905260a0810192909252845160c08301529284015160e08201529290910151610100830152509150600190505b935093915050565b600080600080611b6b8660c001518760e0015161341a565b9150915080611b825760008093509350505061112b565b6000611b8e8784613456565b92509050811580611b9d575080155b15611bb1576000809450945050505061112b565b6000611bbd8883613565565b905080600003611bd757600080955095505050505061112b565b87606001518111611bee579450925061112b915050565b5060608701516000611c028986858b613636565b905080600003611c1d5760008096509650505050505061112b565b828110611c355760008096509650505050505061112b565b909890975095505050505050565b60007f7fffffffffffffffffffffffffffffffffffffffffffffffffffffffffffffff82111561117e576040517f72dd4e0200000000000000000000000000000000000000000000000000000000815260040160405180910390fd5b6001546003546000916fffffffffffffffffffffffffffffffff80821692600f0b9170010000000000000000000000000000000090041683808080611d078787877f00000000000000000000000000000000000000000000000000000000000000008d613b4d565b935093509350935080611d235750600098975050505050505050565b868414611d7557611d3384611132565b600180547fffffffffffffffffffffffffffffffff00000000000000000000000000000000166fffffffffffffffffffffffffffffffff929092169190911790555b858314611dc757611d8583613c65565b600380547fffffffffffffffffffffffffffffffff00000000000000000000000000000000166fffffffffffffffffffffffffffffffff929092169190911790555b848214611e0b57611dd782611132565b600180546fffffffffffffffffffffffffffffffff9283167001000000000000000000000000000000000292169190911790555b50600198975050505050505050565b6005546000908190611e5390849070010000000000000000000000000000000090046fffffffffffffffffffffffffffffffff16611312565b6005546201000090046dffffffffffffffffffffffffffff16925090508181111561202b576000611e848383615413565b9050611e936103a48286612e22565b60058054601090611ecb90849070010000000000000000000000000000000090046fffffffffffffffffffffffffffffffff16615533565b92506101000a8154816fffffffffffffffffffffffffffffffff02191690836fffffffffffffffffffffffffffffffff1602179055506000611f168583612d9890919063ffffffff16565b90506000611f44827f0000000000000000000000000000000000000000000000000000000000000000611312565b905080600b6000828254611f589190615400565b90915550611f6890508183615413565b9150611f7382611132565b60018054600090611f979084906fffffffffffffffffffffffffffffffff1661545e565b92506101000a8154816fffffffffffffffffffffffffffffffff02191690836fffffffffffffffffffffffffffffffff160217905550611fd682613cdb565b60038054600090611feb908490600f0b61559d565b92506101000a8154816fffffffffffffffffffffffffffffffff0219169083600f0b6fffffffffffffffffffffffffffffffff1602179055508493505050505b915091565b60008061203d8785612d98565b9150600061206b837f0000000000000000000000000000000000000000000000000000000000000000611312565b9050612097817f0000000000000000000000000000000000000000000000000000000000000000611312565b915083156120ba576120a98282615413565b6120b39084615413565b92506120d1565b6120c48282615413565b6120ce9084615400565b92505b868610156120f4576120e4838789612e37565b92506120f1828789612e37565b91505b509550959350505050565b60035470010000000000000000000000000000000090046fffffffffffffffffffffffffffffffff166121746103a482612141670de0b6b3a764000086615388565b60045470010000000000000000000000000000000090046fffffffffffffffffffffffffffffffff1691908a6000613055565b600480546fffffffffffffffffffffffffffffffff9283167001000000000000000000000000000000000292169190911790556121b086611132565b6121ba9082615533565b600380546fffffffffffffffffffffffffffffffff9283167001000000000000000000000000000000000292169190911790556121f684611132565b6001805460009061221a9084906fffffffffffffffffffffffffffffffff1661545e565b92506101000a8154816fffffffffffffffffffffffffffffffff02191690836fffffffffffffffffffffffffffffffff16021790555061225983613c65565b6003805460009061226e908490600f0b61559d565b92506101000a8154816fffffffffffffffffffffffffffffffff0219169083600f0b6fffffffffffffffffffffffffffffffff1602179055506122b085611132565b600180546010906122e890849070010000000000000000000000000000000090046fffffffffffffffffffffffffffffffff16615533565b92506101000a8154816fffffffffffffffffffffffffffffffff02191690836fffffffffffffffffffffffffffffffff160217905550505050505050565b60008061233e846123388a888a612e37565b90612d98565b905061234b888486612e37565b6123559082615400565b9050868111156123655786810391505b509695505050505050565b60006dffffffffffffffffffffffffffff82111561117e576040517f10d62a2e00000000000000000000000000000000000000000000000000000000815260040160405180910390fd5b6001546fffffffffffffffffffffffffffffffff168381108061240557507f00000000000000000000000000000000000000000000000000000000000000006124038583615413565b105b1561241257612412612fa3565b6003549084900390600f0b61242784826154ae565b90508361243386611c43565b13801561246857507f00000000000000000000000000000000000000000000000000000000000000006124668383613d27565b105b1561247557612475612fa3565b60025470010000000000000000000000000000000090046fffffffffffffffffffffffffffffffff166124d66103a4826124b7670de0b6b3a764000088615388565b6004546fffffffffffffffffffffffffffffffff1691908c6000613055565b600480547fffffffffffffffffffffffffffffffff00000000000000000000000000000000166fffffffffffffffffffffffffffffffff929092169190911790556125218882615413565b905061252c81611132565b600280546fffffffffffffffffffffffffffffffff92831670010000000000000000000000000000000002921691909117905561256883611132565b600180547fffffffffffffffffffffffffffffffff00000000000000000000000000000000166fffffffffffffffffffffffffffffffff929092169190911790556125b282613c65565b600380547fffffffffffffffffffffffffffffffff00000000000000000000000000000000166fffffffffffffffffffffffffffffffff929092169190911790556125fc87611132565b6001805460109061263490849070010000000000000000000000000000000090046fffffffffffffffffffffffffffffffff1661545e565b92506101000a8154816fffffffffffffffffffffffffffffffff02191690836fffffffffffffffffffffffffffffffff1602179055505050505050505050565b600061269d6126838483613d4d565b61268e846000613d4d565b61269891906154ae565b613c65565b9050600081600f0b131561270d57600280548291906000906126d29084906fffffffffffffffffffffffffffffffff1661545e565b92506101000a8154816fffffffffffffffffffffffffffffffff02191690836fffffffffffffffffffffffffffffffff160217905550505050565b600081600f0b121561274657612722816155eb565b600280546000906126d29084906fffffffffffffffffffffffffffffffff16615533565b505050565b60008060008061276261275d866131b6565b613378565b9150915080612778575060009485945092505050565b6000808611612788576000612792565b6127928387611312565b600654600e6020527fd2d06a3478833ecfcc0864e3afb188a7ff21caef68ea336a6e4f79f78f6fb3e95460008080527fe710864318d4a32f37d6ce54cb3fadbef648dd12d8dbdf53973564d56b7f881c54939450926fffffffffffffffffffffffffffffffff909216916128069190615400565b6128109190615413565b9050806000036128295750600096879650945050505050565b60006128358383612d98565b98600198509650505050505050565b600080807fffffffffffffffffffffffff11111111111111111111111111111111111111127f000000000000000000000000000000000000000000000000000000000000000073ffffffffffffffffffffffffffffffffffffffff16016128ac57504761295d565b6040517f70a082310000000000000000000000000000000000000000000000000000000081523060048201527f000000000000000000000000000000000000000000000000000000000000000073ffffffffffffffffffffffffffffffffffffffff16906370a0823190602401602060405180830381865afa158015612936573d6000803e3d6000fd5b505050506040513d601f19601f8201168201806040525081019061295a9190615584565b90505b600160007fffffffffffffffffffffffff11111111111111111111111111111111111111127f000000000000000000000000000000000000000000000000000000000000000073ffffffffffffffffffffffffffffffffffffffff1601612a0957873410156129f8576040517f90b8ec1800000000000000000000000000000000000000000000000000000000815260040160405180910390fd5b612a028834615413565b9050612ac9565b6040517f23b872dd000000000000000000000000000000000000000000000000000000008152336004820152306024820152604481018990527f000000000000000000000000000000000000000000000000000000000000000073ffffffffffffffffffffffffffffffffffffffff16906323b872dd906064016020604051808303816000875af1158015612aa2573d6000803e3d6000fd5b505050506040513d601f19601f82011682018060405250810190612ac69190615629565b91505b81612b00576040517f90b8ec1800000000000000000000000000000000000000000000000000000000815260040160405180910390fd5b601254600003612b4557612b34887f0000000000000000000000000000000000000000000000000000000000000000612d98565b601281905594509250611b4b915050565b601254600090612b57908a9086612e37565b90508060126000828254612b6b9190615400565b90915550909550909350611b4b92505050565b6000612b8984611850565b9050601254600003612bc757612bbf817f0000000000000000000000000000000000000000000000000000000000000000612d98565b601255612bed565b6000612bd282613d63565b90508060126000828254612be69190615400565b9091555050505b600160007fffffffffffffffffffffffff11111111111111111111111111111111111111127f000000000000000000000000000000000000000000000000000000000000000073ffffffffffffffffffffffffffffffffffffffff1601612c995782341015612c88576040517f90b8ec1800000000000000000000000000000000000000000000000000000000815260040160405180910390fd5b612c928334615413565b9050612d59565b6040517f23b872dd000000000000000000000000000000000000000000000000000000008152336004820152306024820152604481018490527f000000000000000000000000000000000000000000000000000000000000000073ffffffffffffffffffffffffffffffffffffffff16906323b872dd906064016020604051808303816000875af1158015612d32573d6000803e3d6000fd5b505050506040513d601f19601f82011682018060405250810190612d569190615629565b91505b81612d90576040517f90b8ec1800000000000000000000000000000000000000000000000000000000815260040160405180910390fd5b505050505050565b60006100c783670de0b6b3a764000084612e37565b600081600003612dc65750670de0b6b3a76400006109c1565b82600003612dd6575060006109c1565b6000612de183611c43565b90506000612df6612df186611c43565b613e8a565b9050818102612e0d670de0b6b3a764000082615646565b9050612e188161412b565b9695505050505050565b60006100c783670de0b6b3a764000084614344565b6000827fffffffffffffffffffffffffffffffffffffffffffffffffffffffffffffffff0484118302158202612e6c57600080fd5b5091020490565b6001546003546000916107ce916fffffffffffffffffffffffffffffffff90911690600f0b613d27565b6000612ebe878787612eb788670de0b6b3a7640000615413565b8787614388565b979650505050505050565b600061121882612eda858888612e37565b90612dad565b60006100c4612f27612efa84670de0b6b3a7640000615413565b612f21670de0b6b3a7640000612f10818a612e22565b612f1a9190615413565b8790613405565b90613405565b612f3990670de0b6b3a7640000615400565b61233884670de0b6b3a7640000615413565b600080612f9885612f5a612e73565b612f649190615400565b60015461151790879070010000000000000000000000000000000090046fffffffffffffffffffffffffffffffff16615413565b909210949350505050565b6040517fbb55fd2700000000000000000000000000000000000000000000000000000000815260040160405180910390fd5b60008061301f85612f2185817f0000000000000000000000000000000000000000000000000000000000000000670de0b6b3a7640000613015818c612e22565b612f219190615413565b915061304b827f0000000000000000000000000000000000000000000000000000000000000000611312565b9050935093915050565b600082600003613066575084611218565b81156130b9576130976130798487615400565b6130838587611312565b61308d888a611312565b6123389190615400565b905060006130a58588614435565b9050808210156130b3578091505b50611218565b8285036130c857506000611218565b612e186130d58487615413565b6130df8587613405565b6130e9888a611312565b6123389190615413565b600061311b600e60006131076002866117c2565b815260200190815260200160002054611c43565b61312d600e60006131076001876117c2565b6109c191906154ae565b60006131637f000000000000000000000000000000000000000000000000000000000000000083613405565b60025461318291906fffffffffffffffffffffffffffffffff16615400565b6001546131a1906fffffffffffffffffffffffffffffffff1684611312565b101592915050565b60006109c18260046107d3565b61321a6040518061018001604052806000815260200160008152602001600081526020016000815260200160008152602001600081526020016000815260200160008152602001600081526020016000815260200160008152602001600081525090565b60408051610180810182526001546fffffffffffffffffffffffffffffffff8082168352600354600f0b602084015270010000000000000000000000000000000091829004811693830193909352606082018590527f000000000000000000000000000000000000000000000000000000000000000060808301527f000000000000000000000000000000000000000000000000000000000000000060a08301527f000000000000000000000000000000000000000000000000000000000000000060c08301527f000000000000000000000000000000000000000000000000000000000000000060e083015260025404821661010082015260045490916101208301916133289116614444565b81526003546fffffffffffffffffffffffffffffffff700100000000000000000000000000000000918290048116602084015260045460409093019261337092900416614444565b905292915050565b6000806000806000613389866144ba565b91509150806133a057506000958695509350505050565b6133ad8660a00151611c43565b6133b6876147da565b836133c48960000151611c43565b6133ce919061555c565b6133d8919061555c565b6133e291906154ae565b9250505060008112156133fb5750600093849350915050565b9360019350915050565b60006100c78383670de0b6b3a7640000614344565b60008060008361342986611c43565b61343391906154ae565b9050600081121561344b57600080925092505061112b565b946001945092505050565b60008060008460a00151126134735750506080820151600161112b565b60008460a0015161348390615426565b905060006134bf85876101000151886000015160e00151670de0b6b3a76400006134ad9190615413565b8951606081015160809091015161483e565b935090508215806134ce575080155b156134e15760008093509350505061112b565b60006134ed8383612e22565b9050670de0b6b3a764000081116135295780670de0b6b3a76400000394506135228760c001518661131290919063ffffffff16565b9450613538565b6000809450945050505061112b565b866080015185111561355757866080015160019450945050505061112b565b506001925050509250929050565b60008061359b8460c001518560e00151866101000151876000015160a0015161358d88611c43565b61359690615426565b613b4d565b875160408101929092526020820192909252919091529050806135c25760009150506109c1565b60006135d18560000151613378565b92509050816135e5576000925050506109c1565b846020015181106135fb576000925050506109c1565b6000856060015186604001516136119190615400565b905061362c82876020015183612e379092919063ffffffff16565b612e189082615413565b6000808560600151866040015161364d9190615400565b602087015160608801519192506000916136679184612e37565b90508660a0015160000361367e579150613b459050565b6000808089600488101561369157600497505b60005b888110156139ed576136a6868b614435565b955060006136cf8360c001518460e00151856101000151866000015160a0015161358d8c611c43565b865160408101929092526020820192909252919091529050806136fd57600098505050505050505050613b45565b600061370c8e60000151613378565b92509050816137275760009950505050505050505050613b45565b61373284828b6148ea565b1561374857879950505050505050505050613b45565b60008460a0015113156138b157835180516020820151604083015160a084015160e09094015160009461379c9493929161378a90670de0b6b3a7640000615413565b8a516060810151608090910151614956565b93509050826137b85760009a5050505050505050505050613b45565b808560a00151106138af576137cc85614a5b565b9099509250826137e95760009a5050505050505050505050613b45565b61380e8560c001518660e00151876101000151886000015160a0015161358d8e611c43565b8851604081019290925260208201929092529190915292508261383e5760009a5050505050505050505050613b45565b845180516020820151604083015160a084015160e09094015161386e949061378a90670de0b6b3a7640000615413565b935090508261388a5760009a5050505050505050505050613b45565b8e60a0015181116138a757889a5050505050505050505050613b45565b505050613694565b505b60006138c2858f8760a00151614b31565b935090508215806138db5750670de0b6b3a76400008110155b156138f35760009a5050505050505050505050613b45565b80670de0b6b3a76400000390506000613920611a9e8760400151886020015161340590919063ffffffff16565b61392d611a9e858e611312565b61393791906154ae565b9050881580613955575061394a89614e8c565b61395382614e8c565b125b15613964578098508997508296505b600081131561398c5761397b8b6123388385612d98565b613985908b615400565b99506139de565b60008112156139d55760006139a68c612338858186615426565b90508a8110156139ba57808b039a506139cf565b60009c50505050505050505050505050613b45565b506139de565b505050506139ed565b84600101945050505050613694565b506000613a158260c001518360e00151846101000151856000015160a0015161358d8b611c43565b85516040810192909252602082019290925291909152905080613a42576000975050505050505050613b45565b6000613a518360000151614ea4565b90506000613a73611a9e8560400151866020015161340590919063ffffffff16565b613a80611a9e848c611312565b613a8a91906154ae565b9050613a9587614e8c565b613a9e82614e8c565b1215613aab578795508194505b613ad2613ac6655af3107a4000670de0b6b3a7640000615413565b6020860151908b614344565b6040850151613ae2908790612d98565b1080613b225750613b10613b04655af3107a4000670de0b6b3a7640000615400565b6020860151908b612e37565b6040850151613b20908790612e22565b115b15613b395760009950505050505050505050613b45565b50939750505050505050505b949350505050565b60008060008084600003613b6c57508792508691508590506001613c59565b600085613b788b611c43565b613b82919061555c565b9050613b8d87611c43565b811215613ba857600080600080945094509450945050613c59565b80945060008912613bc857613bc1611a9e868b8d612e37565b9350613beb565b613bdf611a9e613bd78b615426565b87908d614344565b613be890615426565b93505b600080613bf88c8c61341a565b9150915080613c17576000806000809650965096509650505050613c59565b6000613c23888861341a565b9250905081613c4357600080600080975097509750975050505050613c59565b613c4e8b8285612e37565b955060019450505050505b95509550955095915050565b60007fffffffffffffffffffffffffffffffff80000000000000000000000000000000821280613ca457506f7fffffffffffffffffffffffffffffff82135b1561117e576040517fa5353be500000000000000000000000000000000000000000000000000000000815260040160405180910390fd5b60006f7fffffffffffffffffffffffffffffff82111561117e576040517fa5353be500000000000000000000000000000000000000000000000000000000815260040160405180910390fd5b600080613d34848461341a565b909250905080613d4657613d46612fa3565b5092915050565b6000818313613d5c57816100c7565b5090919050565b6000807fffffffffffffffffffffffff11111111111111111111111111111111111111127f000000000000000000000000000000000000000000000000000000000000000073ffffffffffffffffffffffffffffffffffffffff1601613dca575047613e7b565b6040517f70a082310000000000000000000000000000000000000000000000000000000081523060048201527f000000000000000000000000000000000000000000000000000000000000000073ffffffffffffffffffffffffffffffffffffffff16906370a0823190602401602060405180830381865afa158015613e54573d6000803e3d6000fd5b505050506040513d601f19601f82011682018060405250810190613e789190615584565b90505b6012546100c790849083612e37565b6000808213613ec5576040517fe61b497500000000000000000000000000000000000000000000000000000000815260040160405180910390fd5b506fffffffffffffffffffffffffffffffff811160071b81811c67ffffffffffffffff1060061b1781811c63ffffffff1060051b1781811c61ffff1060041b1781811c60ff10600390811b90911782811c600f1060021b1782811c909110600190811b90911782811c90911017609f8181036060019290921b917fffffffffffffffffffffffffffffffffffffffffffffffffffffffffffffffa0820190613f6f9084901c611c43565b6c465772b2bbbb5f824b15207a3081018102606090811d6d0388eaa27412d5aca026815d636e018202811d6d0df99ac502031bf953eff472fdcc018202811d6d13cdffb29d51d99322bdff5f2211018202811d6d0a0f742023def783a307a986912e018202811d6d01920d8043ca89b5239253284e42018202811d6c0b7a86d7375468fac667a0a527016c29508e458543d8aa4df2abee7883018302821d6d0139601a2efabe717e604cbb4894018302821d6d02247f7a7b6594320649aa03aba1018302821d7fffffffffffffffffffffffffffffffffffffff73c0c716a594e00d54e3c4cbc9018302821d7ffffffffffffffffffffffffffffffffffffffdc7b88c420e53a9890533129f6f01830290911d7fffffffffffffffffffffffffffffffffffffff465fda27eb4d63ded474e5f832019091027ffffffffffffffff5f6af8f7b3396644f18e157960000000000000000000000000105711340daa0d5f769dba1915cef59f0815a5506027d0267a36c0c95b3975ab3ee5b203a7614a3f75373f047d803ae7b6687f2b391909102017d57115e47018c7177eebf7cd370a3356a1b7863008a5ae8028c72b88642840160ae1d92915050565b60007ffffffffffffffffffffffffffffffffffffffffffffffffdb731c958f34d94c1821361415c57506000919050565b680755bf798b4a1bf1e5821261419e576040517f73a2d6b100000000000000000000000000000000000000000000000000000000815260040160405180910390fd5b6503782dace9d9604e83901b059150600060606bb17217f7d1cf79abc9e3b39884821b056b80000000000000000000000001901d6bb17217f7d1cf79abc9e3b3988102909303927fffffffffffffffffffffffffffffffffffffffdbf3ccf1604d263450f02a550484018402606090811d6d0277594991cfc85f6e2461837cd9018502811d7fffffffffffffffffffffffffffffffffffffe5adedaa1cb095af9e4da10e363c018502811d6db1bbb201f443cf962f1a1d3db4a5018502811d7ffffffffffffffffffffffffffffffffffffd38dc772608b0ae56cce01296c0eb018502811d6e05180bb14799ab47a8a8cb2a527d57016d02d16720577bd19bf614176fe9ea6c10fe68e7fd37d0007b713f765087018702831d9081019087017ffffffffffffffffffffffffffffffffffffffe2c69812cf03b0763fd454a8f7e01810290921d6e0587f503bb6ea29d25fcb74019645001860279d835ebba824c98fb31b83b2ca45c000000000000000000000000018181059550929350909190612e1874029d9dc38563c32e5c2f6dc192ee70ef65f9978af3860260c38690031c611c43565b6000827fffffffffffffffffffffffffffffffffffffffffffffffffffffffffffffffff048411830215820261437957600080fd5b50910281810615159190040190565b6000806143988888878787614eed565b90506143b285612eda6143ab898c615400565b8690611312565b97506143bf848985612e37565b9750878110156143d1576143d1612fa3565b878103670de0b6b3a764000081106143ff576143f86111d9670de0b6b3a764000088612e22565b9050614417565b6144146111d9670de0b6b3a764000088612d98565b90505b8088101561442757614427612fa3565b909603979650505050505050565b6000818311611a4057826100c7565b600080670de0b6b3a76400006144586109c7565b6144629190615388565b905080831161447257600061447c565b61447c8184615413565b91506100c76144b3670de0b6b3a76400007f0000000000000000000000000000000000000000000000000000000000000000615388565b8390612d98565b60008060006144df611a9e85610160015186610140015161131290919063ffffffff16565b6144ff611a9e86610120015187610100015161340590919063ffffffff16565b61450991906154ae565b90506000806145208660000151876020015161341a565b915091508061453757506000958695509350505050565b60008313156146785760008390506000614585886000015189602001518a604001518b60a001518c60e00151670de0b6b3a76400006145769190615413565b8d606001518e60800151614956565b935090508261459e575060009788975095505050505050565b81811061463c5760006145d8858a60400151858c60e00151670de0b6b3a76400006145c99190615413565b8d606001518e60800151614f1c565b94509050831580156145ed57508860c0015183105b156146045750600098600198509650505050505050565b8361461a57506000988998509650505050505050565b61462381611c43565b61462c90615426565b9960019950975050505050505050565b60008860200151126146645761465b8860a0015185611a9e9190615413565b61283590615426565b60a0880151885161465b91611a9e91615413565b60008312156147cb57600061468c84615426565b905060006146c08489604001518a60e00151670de0b6b3a76400006146b19190615413565b8b606001518c6080015161483e565b93509050826146d9575060009788975095505050505050565b81811061475e576000614713858a60400151858c60e00151670de0b6b3a76400006147049190615413565b8d606001518e60800151614fdf565b945090508315801561472857508860c0015183105b1561473f5750600098600198509650505050505050565b8361475557506000988998509650505050505050565b61462c81611c43565b6000614790858a604001518b60e00151670de0b6b3a76400006147819190615413565b8c606001518d608001516150b6565b94509050836147aa57506000988998509650505050505050565b61462c6147c18a6060015184866123389190615413565b611a9e9083615400565b50600095600195509350505050565b600061480d611a9e836101200151670de0b6b3a76400006147fb9190615413565b60608501516101008601519190614344565b61312d611a9e846101600151670de0b6b3a764000061482c9190615413565b60608601516101408701519190612e37565b60008060006148508888888888614eed565b9050600061487b670de0b6b3a764000061486a8888612d98565b6148749190615400565b8390612e22565b9050670de0b6b3a764000081106148a8576148a16111d9670de0b6b3a764000089612e22565b90506148c0565b6148bd6111d9670de0b6b3a764000089612d98565b90505b808810156148d6576000809350935050506148e0565b8703925060019150505b9550959350505050565b60208301516000906148fc9084612e22565b604085015161490c908490612d98565b101580156100c45750602084015161493c9084614935633b9aca00670de0b6b3a7640000615400565b9190612e37565b604085015161494c908490612e22565b1115949350505050565b60008060008812156149785761496b88615426565b6149759087615400565b95505b6000806149858b8b61341a565b915091508061499c57600080935093505050614a4f565b60006149ab838b8a8a8a615165565b905060006149c86149c08a612eda8a8e613405565b899089614344565b9050808210156149e2576000809550955050505050614a4f565b808203670de0b6b3a76400008110614a1057614a096111d9670de0b6b3a76400008c612d98565b9050614a28565b614a256111d9670de0b6b3a76400008c612e22565b90505b8b811015614a4157600080965096505050505050614a4f565b8b9003955060019450505050505b97509795505050505050565b60008060008360e0015113614a7557506000928392509050565b6000614a8484600001516147da565b90506000614ab0856040015186606001518760400151614aa49190615400565b60208801519190614344565b905060008212614ad75780821015614aca57819003614aed565b5060009485945092505050565b614ae082615426565b614aea9082615400565b90505b60e085015160c0860151614b02918390614344565b9050808560c001511015614b1d575060009485945092505050565b808560c00151036001935093505050915091565b6000806000808412614b5557855160400151614b4e908590615400565b9050614b90565b6000614b6085615426565b875160400151909150811015614b80578651604001518190039150614b8e565b600080935093505050611b4b565b505b855180516020909101516000918291614ba9919061341a565b9150915080614bc15760008094509450505050611b4b565b875160e0810151604090910151600091614bf691614bea91614be39190612dad565b8a90611312565b6101008b015190612e22565b895160e0810151608090910151614c2191614c1591612eda9088611312565b8b516060015190612e22565b614c2b9190615400565b90506000614c63614c57614c508c6000015160e0015188612dad90919063ffffffff16565b8b90613405565b6101008c015190612d98565b905080821015614c7e57600080965096505050505050611b4b565b80820391506000614cc0858c60000151604001518d6000015160e00151670de0b6b3a7640000614cae9190615413565b8e516060810151608090910151614eed565b90506000614cea8c6000015160e00151670de0b6b3a7640000614ce39190615413565b8890612dad565b905080821015614d07576000809850985050505050505050611b4b565b8b51608081015160609091015191830391614d23918391614344565b9050670de0b6b3a76400008110614d67578b5160e00151614d60906111d990614d5490670de0b6b3a7640000615413565b8e5160e0015190612e22565b9050614d96565b8b5160e00151614d93906111d990614d8790670de0b6b3a7640000615413565b8e5160e0015190612d98565b90505b8b5160600151614da99085908390614344565b935083670de0b6b3a76400001115614dcd5783670de0b6b3a7640000039350614de1565b600060019850985050505050505050611b4b565b60008c60e0015112614e445760c08c015160e08d0151614e0091612e22565b9250670de0b6b3a7640000831115614e25576000809850985050505050505050611b4b565b670de0b6b3a76400009290920391614e3d8484611312565b9350614e79565b614e76614e5d8d60c001518e60e0015161233890615426565b614e6f90670de0b6b3a7640000615400565b8590611312565b93505b50919a60019a5098505050505050505050565b6000808212614e9b57816109c1565b6109c182615426565b6000806000614eb284613378565b9150915080613d46576040517faa2c651600000000000000000000000000000000000000000000000000000000815260040160405180910390fd5b6000614ef98585612dad565b614f12614f0a86612eda868b613405565b859085614344565b612e189190615400565b6000806000614f2e8989888888614eed565b9050614f3e86612eda898b615400565b975087811015614f55576000809250925050614fd4565b878103614f63818688614344565b9050670de0b6b3a76400008110614f9057614f896111d9670de0b6b3a764000089612e22565b9050614fa8565b614fa56111d9670de0b6b3a764000089612d98565b90505b614fb28186612e22565b9050808a1015614fca57600080935093505050614fd4565b8903925060019150505b965096945050505050565b6000806000614ff18989888888614eed565b905086881015615008576000809250925050614fd4565b96869003966150178887612dad565b97508781101561502e576000809250925050614fd4565b87810361503c818688614344565b9050670de0b6b3a76400008110615069576150626111d9670de0b6b3a764000089612e22565b9050615081565b61507e6111d9670de0b6b3a764000089612d98565b90505b61508b8186612e22565b9050898110156150a357600080935093505050614fd4565b9890980398600198509650505050505050565b60008060006150c88888888888615165565b905060006150ec670de0b6b3a76400006150e28888612e22565b6144b39190615400565b9050670de0b6b3a76400008110615119576151126111d9670de0b6b3a764000089612d98565b9050615131565b61512e6111d9670de0b6b3a764000089612e22565b90505b61513b8186612d98565b905088811015615153576000809350935050506148e0565b97909703976001975095505050505050565b60006151718585612dad565b614f1261518286612eda868b611312565b859085612e37565b6040518061012001604052806151fa6040518061018001604052806000815260200160008152602001600081526020016000815260200160008152602001600081526020016000815260200160008152602001600081526020016000815260200160008152602001600081525090565b815260200160008152602001600081526020016000815260200160008152602001600081526020016000815260200160008152602001600081525090565b6000806040838503121561524b57600080fd5b50508035926020909101359150565b600060608284031215611a4057600080fd5b60008060006060848603121561528157600080fd5b8335925060208401359150604084013567ffffffffffffffff8111156152a657600080fd5b6152b28682870161525a565b9150509250925092565b600080600080608085870312156152d257600080fd5b843593506020850135925060408501359150606085013567ffffffffffffffff8111156152fe57600080fd5b61530a8782880161525a565b91505092959194509250565b7f4e487b7100000000000000000000000000000000000000000000000000000000600052601260045260246000fd5b60008261535457615354615316565b500690565b7f4e487b7100000000000000000000000000000000000000000000000000000000600052601160045260246000fd5b80820281158282048414176109c1576109c1615359565b6000602082840312156153b157600080fd5b813573ffffffffffffffffffffffffffffffffffffffff811681146100c757600080fd5b801515811461103d57600080fd5b6000602082840312156153f557600080fd5b81356100c7816153d5565b808201808211156109c1576109c1615359565b818103818111156109c1576109c1615359565b60007f8000000000000000000000000000000000000000000000000000000000000000820361545757615457615359565b5060000390565b6fffffffffffffffffffffffffffffffff818116838216019080821115613d4657613d46615359565b6dffffffffffffffffffffffffffff818116838216019080821115613d4657613d46615359565b8181036000831280158383131683831282161715613d4657613d46615359565b60008083357fffffffffffffffffffffffffffffffffffffffffffffffffffffffffffffffe184360301811261550357600080fd5b83018035915067ffffffffffffffff82111561551e57600080fd5b60200191503681900382131561112b57600080fd5b6fffffffffffffffffffffffffffffffff828116828216039080821115613d4657613d46615359565b808201828112600083128015821682158216171561557c5761557c615359565b505092915050565b60006020828403121561559657600080fd5b5051919050565b600f81810b9083900b016f7fffffffffffffffffffffffffffffff81137fffffffffffffffffffffffffffffffff80000000000000000000000000000000821217156109c1576109c1615359565b600081600f0b7fffffffffffffffffffffffffffffffff80000000000000000000000000000000810361562057615620615359565b60000392915050565b60006020828403121561563b57600080fd5b81516100c7816153d5565b60008261565557615655615316565b7fffffffffffffffffffffffffffffffffffffffffffffffffffffffffffffffff83147f8000000000000000000000000000000000000000000000000000000000000000831416156156a9576156a9615359565b50059056fea26469706673582212208e50d7ee1fc01e5ce21da9545849be07405f642ab2cfb67abe9c84b859794de364736f6c63430008140033",
  "linkReferences": {},
  "deployedLinkReferences": {}
}