{
  "_format": "hh-sol-artifact-1",
  "contractName": "MockHyperdriveTarget4",
  "sourceName": "contracts/test/MockHyperdrive.sol",
  "abi": [
    {
      "inputs": [
        {
          "components": [
            {
              "internalType": "contract IERC20",
              "name": "baseToken",
              "type": "address"
            },
            {
              "internalType": "contract IERC20",
              "name": "vaultSharesToken",
              "type": "address"
            },
            {
              "internalType": "address",
              "name": "linkerFactory",
              "type": "address"
            },
            {
              "internalType": "bytes32",
              "name": "linkerCodeHash",
              "type": "bytes32"
            },
            {
              "internalType": "uint256",
              "name": "initialVaultSharePrice",
              "type": "uint256"
            },
            {
              "internalType": "uint256",
              "name": "minimumShareReserves",
              "type": "uint256"
            },
            {
              "internalType": "uint256",
              "name": "minimumTransactionAmount",
              "type": "uint256"
            },
            {
              "internalType": "uint256",
              "name": "positionDuration",
              "type": "uint256"
            },
            {
              "internalType": "uint256",
              "name": "checkpointDuration",
              "type": "uint256"
            },
            {
              "internalType": "uint256",
              "name": "timeStretch",
              "type": "uint256"
            },
            {
              "internalType": "address",
              "name": "governance",
              "type": "address"
            },
            {
              "internalType": "address",
              "name": "feeCollector",
              "type": "address"
            },
            {
              "internalType": "address",
              "name": "sweepCollector",
              "type": "address"
            },
            {
              "components": [
                {
                  "internalType": "uint256",
                  "name": "curve",
                  "type": "uint256"
                },
                {
                  "internalType": "uint256",
                  "name": "flat",
                  "type": "uint256"
                },
                {
                  "internalType": "uint256",
                  "name": "governanceLP",
                  "type": "uint256"
                },
                {
                  "internalType": "uint256",
                  "name": "governanceZombie",
                  "type": "uint256"
                }
              ],
              "internalType": "struct IHyperdrive.Fees",
              "name": "fees",
              "type": "tuple"
            }
          ],
          "internalType": "struct IHyperdrive.PoolConfig",
          "name": "_config",
          "type": "tuple"
        }
      ],
      "stateMutability": "nonpayable",
      "type": "constructor"
    },
    {
      "inputs": [],
      "name": "DecreasedPresentValueWhenAddingLiquidity",
      "type": "error"
    },
    {
      "inputs": [],
      "name": "DistributeExcessIdleFailed",
      "type": "error"
    },
    {
      "inputs": [],
      "name": "ExpInvalidExponent",
      "type": "error"
    },
    {
      "inputs": [],
      "name": "InsufficientLiquidity",
      "type": "error"
    },
    {
      "inputs": [],
      "name": "InvalidApr",
      "type": "error"
    },
    {
      "inputs": [],
      "name": "InvalidPresentValue",
      "type": "error"
    },
    {
      "inputs": [],
      "name": "InvalidTimestamp",
      "type": "error"
    },
    {
      "inputs": [],
      "name": "LnInvalidInput",
      "type": "error"
    },
    {
      "inputs": [],
      "name": "MinimumSharePrice",
      "type": "error"
    },
    {
      "inputs": [],
      "name": "MinimumTransactionAmount",
      "type": "error"
    },
    {
      "inputs": [],
      "name": "NotPayable",
      "type": "error"
    },
    {
      "inputs": [],
      "name": "OutputLimit",
      "type": "error"
    },
    {
      "inputs": [],
      "name": "PoolIsPaused",
      "type": "error"
    },
    {
      "inputs": [],
      "name": "ReentrancyGuardReentrantCall",
      "type": "error"
    },
    {
      "inputs": [],
      "name": "RestrictedZeroAddress",
      "type": "error"
    },
    {
      "inputs": [],
      "name": "TransferFailed",
      "type": "error"
    },
    {
      "inputs": [],
      "name": "UnsafeCastToInt128",
      "type": "error"
    },
    {
      "inputs": [],
      "name": "UnsafeCastToInt256",
      "type": "error"
    },
    {
      "inputs": [],
      "name": "UnsafeCastToUint112",
      "type": "error"
    },
    {
      "inputs": [],
      "name": "UnsafeCastToUint128",
      "type": "error"
    },
    {
      "inputs": [],
      "name": "UpdateLiquidityFailed",
      "type": "error"
    },
    {
      "anonymous": false,
      "inputs": [
        {
          "indexed": true,
          "internalType": "address",
          "name": "provider",
          "type": "address"
        },
        {
          "indexed": false,
          "internalType": "uint256",
          "name": "lpAmount",
          "type": "uint256"
        },
        {
          "indexed": false,
          "internalType": "uint256",
          "name": "baseAmount",
          "type": "uint256"
        },
        {
          "indexed": false,
          "internalType": "uint256",
          "name": "vaultShareAmount",
          "type": "uint256"
        },
        {
          "indexed": false,
          "internalType": "bool",
          "name": "asBase",
          "type": "bool"
        },
        {
          "indexed": false,
          "internalType": "uint256",
          "name": "lpSharePrice",
          "type": "uint256"
        }
      ],
      "name": "AddLiquidity",
      "type": "event"
    },
    {
      "anonymous": false,
      "inputs": [
        {
          "indexed": true,
          "internalType": "address",
          "name": "owner",
          "type": "address"
        },
        {
          "indexed": true,
          "internalType": "address",
          "name": "spender",
          "type": "address"
        },
        {
          "indexed": false,
          "internalType": "uint256",
          "name": "value",
          "type": "uint256"
        }
      ],
      "name": "Approval",
      "type": "event"
    },
    {
      "anonymous": false,
      "inputs": [
        {
          "indexed": true,
          "internalType": "address",
          "name": "account",
          "type": "address"
        },
        {
          "indexed": true,
          "internalType": "address",
          "name": "operator",
          "type": "address"
        },
        {
          "indexed": false,
          "internalType": "bool",
          "name": "approved",
          "type": "bool"
        }
      ],
      "name": "ApprovalForAll",
      "type": "event"
    },
    {
      "anonymous": false,
      "inputs": [
        {
          "indexed": true,
          "internalType": "address",
          "name": "trader",
          "type": "address"
        },
        {
          "indexed": true,
          "internalType": "address",
          "name": "destination",
          "type": "address"
        },
        {
          "indexed": true,
          "internalType": "uint256",
          "name": "assetId",
          "type": "uint256"
        },
        {
          "indexed": false,
          "internalType": "uint256",
          "name": "maturityTime",
          "type": "uint256"
        },
        {
          "indexed": false,
          "internalType": "uint256",
          "name": "baseAmount",
          "type": "uint256"
        },
        {
          "indexed": false,
          "internalType": "uint256",
          "name": "vaultShareAmount",
          "type": "uint256"
        },
        {
          "indexed": false,
          "internalType": "bool",
          "name": "asBase",
          "type": "bool"
        },
        {
          "indexed": false,
          "internalType": "uint256",
          "name": "bondAmount",
          "type": "uint256"
        }
      ],
      "name": "CloseLong",
      "type": "event"
    },
    {
      "anonymous": false,
      "inputs": [
        {
          "indexed": true,
          "internalType": "address",
          "name": "trader",
          "type": "address"
        },
        {
          "indexed": true,
          "internalType": "address",
          "name": "destination",
          "type": "address"
        },
        {
          "indexed": true,
          "internalType": "uint256",
          "name": "assetId",
          "type": "uint256"
        },
        {
          "indexed": false,
          "internalType": "uint256",
          "name": "maturityTime",
          "type": "uint256"
        },
        {
          "indexed": false,
          "internalType": "uint256",
          "name": "baseAmount",
          "type": "uint256"
        },
        {
          "indexed": false,
          "internalType": "uint256",
          "name": "vaultShareAmount",
          "type": "uint256"
        },
        {
          "indexed": false,
          "internalType": "bool",
          "name": "asBase",
          "type": "bool"
        },
        {
          "indexed": false,
          "internalType": "uint256",
          "name": "basePayment",
          "type": "uint256"
        },
        {
          "indexed": false,
          "internalType": "uint256",
          "name": "bondAmount",
          "type": "uint256"
        }
      ],
      "name": "CloseShort",
      "type": "event"
    },
    {
      "anonymous": false,
      "inputs": [
        {
          "indexed": true,
          "internalType": "address",
          "name": "collector",
          "type": "address"
        },
        {
          "indexed": false,
          "internalType": "uint256",
          "name": "fees",
          "type": "uint256"
        }
      ],
      "name": "CollectGovernanceFee",
      "type": "event"
    },
    {
      "anonymous": false,
      "inputs": [
        {
          "indexed": true,
          "internalType": "uint256",
          "name": "checkpointTime",
          "type": "uint256"
        },
        {
          "indexed": false,
          "internalType": "uint256",
          "name": "checkpointVaultSharePrice",
          "type": "uint256"
        },
        {
          "indexed": false,
          "internalType": "uint256",
          "name": "vaultSharePrice",
          "type": "uint256"
        },
        {
          "indexed": false,
          "internalType": "uint256",
          "name": "maturedShorts",
          "type": "uint256"
        },
        {
          "indexed": false,
          "internalType": "uint256",
          "name": "maturedLongs",
          "type": "uint256"
        },
        {
          "indexed": false,
          "internalType": "uint256",
          "name": "lpSharePrice",
          "type": "uint256"
        }
      ],
      "name": "CreateCheckpoint",
      "type": "event"
    },
    {
      "anonymous": false,
      "inputs": [
        {
          "indexed": true,
          "internalType": "address",
          "name": "newFeeCollector",
          "type": "address"
        }
      ],
      "name": "FeeCollectorUpdated",
      "type": "event"
    },
    {
      "anonymous": false,
      "inputs": [
        {
          "indexed": true,
          "internalType": "address",
          "name": "newGovernance",
          "type": "address"
        }
      ],
      "name": "GovernanceUpdated",
      "type": "event"
    },
    {
      "anonymous": false,
      "inputs": [
        {
          "indexed": true,
          "internalType": "address",
          "name": "provider",
          "type": "address"
        },
        {
          "indexed": false,
          "internalType": "uint256",
          "name": "lpAmount",
          "type": "uint256"
        },
        {
          "indexed": false,
          "internalType": "uint256",
          "name": "baseAmount",
          "type": "uint256"
        },
        {
          "indexed": false,
          "internalType": "uint256",
          "name": "vaultShareAmount",
          "type": "uint256"
        },
        {
          "indexed": false,
          "internalType": "bool",
          "name": "asBase",
          "type": "bool"
        },
        {
          "indexed": false,
          "internalType": "uint256",
          "name": "apr",
          "type": "uint256"
        }
      ],
      "name": "Initialize",
      "type": "event"
    },
    {
      "anonymous": false,
      "inputs": [
        {
          "indexed": true,
          "internalType": "address",
          "name": "trader",
          "type": "address"
        },
        {
          "indexed": true,
          "internalType": "uint256",
          "name": "assetId",
          "type": "uint256"
        },
        {
          "indexed": false,
          "internalType": "uint256",
          "name": "maturityTime",
          "type": "uint256"
        },
        {
          "indexed": false,
          "internalType": "uint256",
          "name": "baseAmount",
          "type": "uint256"
        },
        {
          "indexed": false,
          "internalType": "uint256",
          "name": "vaultShareAmount",
          "type": "uint256"
        },
        {
          "indexed": false,
          "internalType": "bool",
          "name": "asBase",
          "type": "bool"
        },
        {
          "indexed": false,
          "internalType": "uint256",
          "name": "bondAmount",
          "type": "uint256"
        }
      ],
      "name": "OpenLong",
      "type": "event"
    },
    {
      "anonymous": false,
      "inputs": [
        {
          "indexed": true,
          "internalType": "address",
          "name": "trader",
          "type": "address"
        },
        {
          "indexed": true,
          "internalType": "uint256",
          "name": "assetId",
          "type": "uint256"
        },
        {
          "indexed": false,
          "internalType": "uint256",
          "name": "maturityTime",
          "type": "uint256"
        },
        {
          "indexed": false,
          "internalType": "uint256",
          "name": "baseAmount",
          "type": "uint256"
        },
        {
          "indexed": false,
          "internalType": "uint256",
          "name": "vaultShareAmount",
          "type": "uint256"
        },
        {
          "indexed": false,
          "internalType": "bool",
          "name": "asBase",
          "type": "bool"
        },
        {
          "indexed": false,
          "internalType": "uint256",
          "name": "baseProceeds",
          "type": "uint256"
        },
        {
          "indexed": false,
          "internalType": "uint256",
          "name": "bondAmount",
          "type": "uint256"
        }
      ],
      "name": "OpenShort",
      "type": "event"
    },
    {
      "anonymous": false,
      "inputs": [
        {
          "indexed": false,
          "internalType": "bool",
          "name": "isPaused",
          "type": "bool"
        }
      ],
      "name": "PauseStatusUpdated",
      "type": "event"
    },
    {
      "anonymous": false,
      "inputs": [
        {
          "indexed": true,
          "internalType": "address",
          "name": "newPauser",
          "type": "address"
        },
        {
          "indexed": false,
          "internalType": "bool",
          "name": "status",
          "type": "bool"
        }
      ],
      "name": "PauserUpdated",
      "type": "event"
    },
    {
      "anonymous": false,
      "inputs": [
        {
          "indexed": true,
          "internalType": "address",
          "name": "provider",
          "type": "address"
        },
        {
          "indexed": true,
          "internalType": "address",
          "name": "destination",
          "type": "address"
        },
        {
          "indexed": false,
          "internalType": "uint256",
          "name": "withdrawalShareAmount",
          "type": "uint256"
        },
        {
          "indexed": false,
          "internalType": "uint256",
          "name": "baseAmount",
          "type": "uint256"
        },
        {
          "indexed": false,
          "internalType": "uint256",
          "name": "vaultShareAmount",
          "type": "uint256"
        },
        {
          "indexed": false,
          "internalType": "bool",
          "name": "asBase",
          "type": "bool"
        }
      ],
      "name": "RedeemWithdrawalShares",
      "type": "event"
    },
    {
      "anonymous": false,
      "inputs": [
        {
          "indexed": true,
          "internalType": "address",
          "name": "provider",
          "type": "address"
        },
        {
          "indexed": true,
          "internalType": "address",
          "name": "destination",
          "type": "address"
        },
        {
          "indexed": false,
          "internalType": "uint256",
          "name": "lpAmount",
          "type": "uint256"
        },
        {
          "indexed": false,
          "internalType": "uint256",
          "name": "baseAmount",
          "type": "uint256"
        },
        {
          "indexed": false,
          "internalType": "uint256",
          "name": "vaultShareAmount",
          "type": "uint256"
        },
        {
          "indexed": false,
          "internalType": "bool",
          "name": "asBase",
          "type": "bool"
        },
        {
          "indexed": false,
          "internalType": "uint256",
          "name": "withdrawalShareAmount",
          "type": "uint256"
        },
        {
          "indexed": false,
          "internalType": "uint256",
          "name": "lpSharePrice",
          "type": "uint256"
        }
      ],
      "name": "RemoveLiquidity",
      "type": "event"
    },
    {
      "anonymous": false,
      "inputs": [
        {
          "indexed": true,
          "internalType": "address",
          "name": "collector",
          "type": "address"
        },
        {
          "indexed": true,
          "internalType": "address",
          "name": "target",
          "type": "address"
        }
      ],
      "name": "Sweep",
      "type": "event"
    },
    {
      "anonymous": false,
      "inputs": [
        {
          "indexed": true,
          "internalType": "address",
          "name": "newSweepCollector",
          "type": "address"
        }
      ],
      "name": "SweepCollectorUpdated",
      "type": "event"
    },
    {
      "anonymous": false,
      "inputs": [
        {
          "indexed": true,
          "internalType": "address",
          "name": "operator",
          "type": "address"
        },
        {
          "indexed": true,
          "internalType": "address",
          "name": "from",
          "type": "address"
        },
        {
          "indexed": true,
          "internalType": "address",
          "name": "to",
          "type": "address"
        },
        {
          "indexed": false,
          "internalType": "uint256",
          "name": "id",
          "type": "uint256"
        },
        {
          "indexed": false,
          "internalType": "uint256",
          "name": "value",
          "type": "uint256"
        }
      ],
      "name": "TransferSingle",
      "type": "event"
    },
    {
      "inputs": [
        {
          "internalType": "uint256",
          "name": "_contribution",
          "type": "uint256"
        },
        {
          "internalType": "uint256",
          "name": "_minLpSharePrice",
          "type": "uint256"
        },
        {
          "internalType": "uint256",
          "name": "_minApr",
          "type": "uint256"
        },
        {
          "internalType": "uint256",
          "name": "_maxApr",
          "type": "uint256"
        },
        {
          "components": [
            {
              "internalType": "address",
              "name": "destination",
              "type": "address"
            },
            {
              "internalType": "bool",
              "name": "asBase",
              "type": "bool"
            },
            {
              "internalType": "bytes",
              "name": "extraData",
              "type": "bytes"
            }
          ],
          "internalType": "struct IHyperdrive.Options",
          "name": "_options",
          "type": "tuple"
        }
      ],
      "name": "addLiquidity",
      "outputs": [
        {
          "internalType": "uint256",
          "name": "",
          "type": "uint256"
        }
      ],
      "stateMutability": "payable",
      "type": "function"
    },
    {
      "inputs": [
        {
          "internalType": "uint256",
          "name": "_bondAmount",
          "type": "uint256"
        },
        {
          "internalType": "uint256",
          "name": "_maxDeposit",
          "type": "uint256"
        },
        {
          "internalType": "uint256",
          "name": "_minVaultSharePrice",
          "type": "uint256"
        },
        {
          "components": [
            {
              "internalType": "address",
              "name": "destination",
              "type": "address"
            },
            {
              "internalType": "bool",
              "name": "asBase",
              "type": "bool"
            },
            {
              "internalType": "bytes",
              "name": "extraData",
              "type": "bytes"
            }
          ],
          "internalType": "struct IHyperdrive.Options",
          "name": "_options",
          "type": "tuple"
        }
      ],
      "name": "openShort",
      "outputs": [
        {
          "internalType": "uint256",
          "name": "",
          "type": "uint256"
        },
        {
          "internalType": "uint256",
          "name": "",
          "type": "uint256"
        }
      ],
      "stateMutability": "payable",
      "type": "function"
    }
  ],
  "bytecode": "0x6102406040523480156200001257600080fd5b5060405162005bc738038062005bc78339810160408190526200003591620001e1565b600160005580516001600160a01b039081166080908152602080840151831660a0908152918401516101a0908152918401516101c05260c0808501516101e0526101008086015190915260e0808601519052610120808601519091529184018051519092528151015161014090815281516040908101516101609081529251606090810151610180908152918601518516610200528501516102205290840151600a80546001600160a01b03199081169286169290921790559184015160088054841691851691909117905590920151600980549093169116179055620002d4565b6040516101c081016001600160401b03811182821017156200014957634e487b7160e01b600052604160045260246000fd5b60405290565b80516001600160a01b03811681146200016757600080fd5b919050565b6000608082840312156200017f57600080fd5b604051608081016001600160401b0381118282101715620001b057634e487b7160e01b600052604160045260246000fd5b8060405250809150825181526020830151602082015260408301516040820152606083015160608201525092915050565b60006102208284031215620001f557600080fd5b620001ff62000117565b6200020a836200014f565b81526200021a602084016200014f565b60208201526200022d604084016200014f565b6040820152606083015160608201526080830151608082015260a083015160a082015260c083015160c082015260e083015160e08201526101008084015181830152506101208084015181830152506101406200028c8185016200014f565b90820152610160620002a08482016200014f565b90820152610180620002b48482016200014f565b908201526101a0620002c9858583016200016c565b908201529392505050565b60805160a05160c05160e05161010051610120516101405161016051610180516101a0516101c0516101e051610200516102205161574a6200047d600039600050506000505060008181610113015281816103eb0152818161060901526111ae015260008181611188015281816116c6015281816125f20152818161265501528181612d95015281816132a0015281816135f401526136390152600081816101a301528181611162015281816115210152818161159b01528181611d5c0152611def0152600061213e015260008181612291015281816130c70152613140015260008181610d8801528181611635015281816122650152613114015260006130930152600081816101e5015281816111d4015281816114ff01526115bc0152600081816101c4015281816106d101528181610cba0152612c9a015260008181610b2401528181610bc30152610c31015260005050600081816108c701528181611ab701528181611b2601528181611bd001528181611c9001528181611e6801528181611f2801528181612ef301528181612f62015281816133e20152613451015261574a6000f3fe6080604052600436106100295760003560e01c80634c2ac1d91461002e578063dbbe807014610054575b600080fd5b61004161003c3660046152be565b61007c565b6040519081526020015b60405180910390f35b610067610062366004615322565b610097565b6040805192835260208301919091520161004b565b600061008b86868686866100b4565b90505b95945050505050565b6000806100a6868686866105a9565b915091505b94509492505050565b60006100be610882565b600554610100900460ff1615610100576040517f21081abf00000000000000000000000000000000000000000000000000000000815260040160405180910390fd5b6101086108c5565b61011182610957565b7f000000000000000000000000000000000000000000000000000000000000000086101561016b576040517f423bbb4600000000000000000000000000000000000000000000000000000000815260040160405180910390fd5b60006102096101786109b6565b60015470010000000000000000000000000000000090046fffffffffffffffffffffffffffffffff167f00000000000000000000000000000000000000000000000000000000000000007f00000000000000000000000000000000000000000000000000000000000000007f00000000000000000000000000000000000000000000000000000000000000006109e5565b90508481108061021857508381115b1561024f576040517f76c22a2200000000000000000000000000000000000000000000000000000000815260040160405180910390fd5b60008061025c8986610a2b565b9150915061027361026b610b1d565b826004610b53565b506006547f03000000000000000000000000000000000000000000000000000000000000006000908152600e6020527fd2d06a3478833ecfcc0864e3afb188a7ff21caef68ea336a6e4f79f78f6fb3e95490916102e4916fffffffffffffffffffffffffffffffff909116906153ab565b6000808052600e6020527fe710864318d4a32f37d6ce54cb3fadbef648dd12d8dbdf53973564d56b7f881c549192509061031f9083906153be565b9050600080600061032f866110a7565b905061033a81611269565b915061034d610348886112b9565b611319565b6001546fffffffffffffffffffffffffffffffff8082168352600354600f0b602084015270010000000000000000000000000000000090910416604082015261039581611269565b9250818310156103d1576040517f309b2a4200000000000000000000000000000000000000000000000000000000815260040160405180910390fd5b6103e784836103e081876153ab565b9190611358565b98507f0000000000000000000000000000000000000000000000000000000000000000891015610443576040517f423bbb4600000000000000000000000000000000000000000000000000000000815260040160405180910390fd5b508b61044f8e8a611394565b1015610487576040517fc972651700000000000000000000000000000000000000000000000000000000815260040160405180910390fd5b61049f600061049960208c018c6153d1565b8a6113b2565b60006104aa86611474565b9050806104e3576040517f8bdf918d00000000000000000000000000000000000000000000000000000000815260040160405180910390fd5b600084156104fa576104f58386611394565b6104fd565b60005b90508e600061050d828a8f611481565b90508c61051d60208201826153d1565b73ffffffffffffffffffffffffffffffffffffffff167fa59daf574c5c8db34377de83bceea2aa1433cc506d656f5e8f46e5f4b5c58a868e848e6105676040870160208801615415565b60408051948552602085019390935291830152151560608201526080810187905260a00160405180910390a250505050505050505050505061008e6001600055565b6000806105b4610882565b600554610100900460ff16156105f6576040517f21081abf00000000000000000000000000000000000000000000000000000000815260040160405180910390fd5b6105fe6108c5565b61060783610957565b7f0000000000000000000000000000000000000000000000000000000000000000861015610661576040517f423bbb4600000000000000000000000000000000000000000000000000000000815260040160405180910390fd5b600061066b6114b0565b9050848110156106a7576040517f42af972b00000000000000000000000000000000000000000000000000000000815260040160405180910390fd5b60006106b1610b1d565b905060006106c86106c0610b1d565b846004610b53565b905060006106f67f0000000000000000000000000000000000000000000000000000000000000000846153be565b905060008060006107088d88876114c3565b92509250925080600b600082825461072091906153be565b909155506000905061073384898d61166f565b9050808d101561076f576040517fc972651700000000000000000000000000000000000000000000000000000000815260040160405180910390fd5b610779818c610a2b565b50506107878e848a88611697565b6000610794600287611973565b905060008f90506107b8828e60000160208101906107b291906153d1565b836113b2565b848a8e846107c960208301836153d1565b73ffffffffffffffffffffffffffffffffffffffff167fb354b32bd86ebd9f0968a338e5c2873d7f0d473aa7a668c2488e66038380258b8c8c61080d8b88886119d9565b61081d6040880160208901615415565b610833898f8c61082d91906153ab565b90611a01565b6040805195865260208601949094529284019190915215156060830152608082015260a0810188905260c00160405180910390a350979c50929a50505050505050505050506100ab6001600055565b6002600054036108be576040517f3ee5aeb500000000000000000000000000000000000000000000000000000000815260040160405180910390fd5b6002600055565b7f000000000000000000000000000000000000000000000000000000000000000073ffffffffffffffffffffffffffffffffffffffff1673eeeeeeeeeeeeeeeeeeeeeeeeeeeeeeeeeeeeeeee1480159061091e57503415155b15610955576040517f1574f9f300000000000000000000000000000000000000000000000000000000815260040160405180910390fd5b565b600061096660208301836153d1565b73ffffffffffffffffffffffffffffffffffffffff16036109b3576040517ff0dd15fd00000000000000000000000000000000000000000000000000000000815260040160405180910390fd5b50565b6001546003546000916109e0916fffffffffffffffffffffffffffffffff90911690600f0b611a16565b905090565b6000806109f487878786611a35565b9050610a20610a0882866301e13380611a4c565b610a1a83670de0b6b3a76400006153ab565b90611394565b979650505050505050565b60008080610a3f6040850160208601615415565b15610a6457610a5a85610a556040870187615432565b611a90565b9093509050610a80565b5034610a7c85610a776040870187615432565b611dd2565b8492505b610a886114b0565b91508015610b1457604051600090339083908381818185875af1925050503d8060008114610ad2576040519150601f19603f3d011682016040523d82523d6000602084013e610ad7565b606091505b5050905080610b12576040517f90b8ec1800000000000000000000000000000000000000000000000000000000815260040160405180910390fd5b505b505b9250929050565b6000610b497f0000000000000000000000000000000000000000000000000000000000000000426154c6565b6109e090426153ab565b600083815260076020526040812080546fffffffffffffffffffffffffffffffff16151580610b8157504285115b15610ba057546fffffffffffffffffffffffffffffffff1690506110a0565b600080610bab610b1d565b9050808703610bbc57859150610c5f565b6000610be87f0000000000000000000000000000000000000000000000000000000000000000896153be565b90505b6000818152600760205260409020546fffffffffffffffffffffffffffffffff1692508181148015610c1b575082155b15610c24578692505b82600003610c5d57610c567f0000000000000000000000000000000000000000000000000000000000000000826153be565b9050610beb565b505b610c6882611fec565b83547fffffffffffffffffffffffffffffffff00000000000000000000000000000000166fffffffffffffffffffffffffffffffff91909116178355610cad86612038565b5060009050600781610cdf7f00000000000000000000000000000000000000000000000000000000000000008b6153ab565b815260208101919091526040016000908120546fffffffffffffffffffffffffffffffff169150610d1160028a611973565b6000818152600e60205260408120549192508a8a8315610e945760019250600080610d4086898c86600061224e565b9150915080600b6000828254610d5691906153be565b90915550610d72905086600084610d6c816112b9565b8861231d565b610d7c81836153be565b9150610dac86838a8d877f0000000000000000000000000000000000000000000000000000000000000000612544565b9150610dc0610dbb8385611a01565b612588565b60058054600290610de89084906201000090046dffffffffffffffffffffffffffff166154da565b92506101000a8154816dffffffffffffffffffffffffffff02191690836dffffffffffffffffffffffffffff160217905550610e2382611fec565b60058054601090610e5b90849070010000000000000000000000000000000090046fffffffffffffffffffffffffffffffff16615501565b92506101000a8154816fffffffffffffffffffffffffffffffff02191690836fffffffffffffffffffffffffffffffff16021790555050505b6000610ea1600184611973565b6000818152600e60205260409020549091508015610fed5760019450600080610ece838b8e88600161224e565b9150915080600b6000828254610ee491906153be565b90915550610f00905083600084610efa816112b9565b8a6125d2565b610f0a81836153ab565b9150610f19610dbb8387611a01565b60058054600290610f419084906201000090046dffffffffffffffffffffffffffff166154da565b92506101000a8154816dffffffffffffffffffffffffffff02191690836dffffffffffffffffffffffffffff160217905550610f7c82611fec565b60058054601090610fb490849070010000000000000000000000000000000090046fffffffffffffffffffffffffffffffff16615501565b92506101000a8154816fffffffffffffffffffffffffffffffff02191690836fffffffffffffffffffffffffffffffff16021790555050505b841561102557611019610fff876112b9565b611008836112b9565b611012919061552a565b600061288c565b6110238e8e612963565b505b60006110308f612b56565b5090508f7fff888cf98d2696e95c8c39aa98c9ad55a5378008f7a56614c9353b7137a57ab78c868a8686604051611089959493929190948552602085019390935260408401919091526060830152608082015260a00190565b60405180910390a250989a50505050505050505050505b9392505050565b61110b6040518061018001604052806000815260200160008152602001600081526020016000815260200160008152602001600081526020016000815260200160008152602001600081526020016000815260200160008152602001600081525090565b60408051610180810182526001546fffffffffffffffffffffffffffffffff8082168352600354600f0b602084015270010000000000000000000000000000000091829004811693830193909352606082018590527f000000000000000000000000000000000000000000000000000000000000000060808301527f000000000000000000000000000000000000000000000000000000000000000060a08301527f000000000000000000000000000000000000000000000000000000000000000060c08301527f000000000000000000000000000000000000000000000000000000000000000060e083015260025404821661010082015260045490916101208301916112199116612c4f565b81526003546fffffffffffffffffffffffffffffffff700100000000000000000000000000000000918290048116602084015260045460409093019261126192900416612c4f565b905292915050565b600080600061127784612cc5565b91509150806112b2576040517faa2c651600000000000000000000000000000000000000000000000000000000815260040160405180910390fd5b5092915050565b60007f7fffffffffffffffffffffffffffffffffffffffffffffffffffffffffffffff821115611315576040517f72dd4e0200000000000000000000000000000000000000000000000000000000815260040160405180910390fd5b5090565b61132281612d52565b6109b3576040517f5044b7f500000000000000000000000000000000000000000000000000000000815260040160405180910390fd5b6000827fffffffffffffffffffffffffffffffffffffffffffffffffffffffffffffffff048411830215820261138d57600080fd5b5091020490565b60006113a983670de0b6b3a764000084611358565b90505b92915050565b6000838152600d6020908152604080832073ffffffffffffffffffffffffffffffffffffffff86168452909152812080548392906113f19084906153be565b90915550506000838152600e6020526040812080548392906114149084906153be565b9091555050604080518481526020810183905273ffffffffffffffffffffffffffffffffffffffff84169160009133917fc3d58168c5ae7397731d063d5bbf3d657854427343f4c083240f7aacaa2d0f62910160405180910390a4505050565b60006113ac826004612963565b60006114936040830160208401615415565b1561149f5750826110a0565b6114a98484611a01565b90506110a0565b60006109e0670de0b6b3a7640000612ecd565b60008060006115456114d36109b6565b60015470010000000000000000000000000000000090046fffffffffffffffffffffffffffffffff16887f0000000000000000000000000000000000000000000000000000000000000000897f0000000000000000000000000000000000000000000000000000000000000000613006565b9150856115528387613027565b11156115605761156061303c565b60008060006115e06115706109b6565b60015470010000000000000000000000000000000090046fffffffffffffffffffffffffffffffff167f00000000000000000000000000000000000000000000000000000000000000007f0000000000000000000000000000000000000000000000000000000000000000611a35565b90506115f689670de0b6b3a7640000838b61306e565b50919450909250611609905082846153ab565b61161390866153ab565b945061165f886116598b611627868a6153ab565b8b6116328e8261317c565b8e7f0000000000000000000000000000000000000000000000000000000000000000613192565b90613027565b9550909250505093509350939050565b60006116816040830160208401615415565b1561168d5750826110a0565b6114a98484611394565b6001546fffffffffffffffffffffffffffffffff16838110156116bc576116bc61303c565b60035490849003907f0000000000000000000000000000000000000000000000000000000000000000906116f4908390600f0b611a16565b10156117025761170261303c565b60035461177d906117789070010000000000000000000000000000000090046fffffffffffffffffffffffffffffffff16611745670de0b6b3a76400008661554a565b60045470010000000000000000000000000000000090046fffffffffffffffffffffffffffffffff1691908960016131b7565b611fec565b600480546fffffffffffffffffffffffffffffffff9283167001000000000000000000000000000000000292169190911790556117b981611fec565b600180547fffffffffffffffffffffffffffffffff00000000000000000000000000000000166fffffffffffffffffffffffffffffffff9290921691909117905561180385611fec565b6001805460109061183b90849070010000000000000000000000000000000090046fffffffffffffffffffffffffffffffff16615501565b92506101000a8154816fffffffffffffffffffffffffffffffff02191690836fffffffffffffffffffffffffffffffff16021790555061187a85611fec565b600380546010906118b290849070010000000000000000000000000000000090046fffffffffffffffffffffffffffffffff16615501565b92506101000a8154816fffffffffffffffffffffffffffffffff02191690836fffffffffffffffffffffffffffffffff16021790555060006118f383613255565b905061191181611902886112b9565b61190c908461552a565b61288c565b61191a84613299565b6119265761192661303c565b600061193185611474565b90508061196a576040517f8bdf918d00000000000000000000000000000000000000000000000000000000815260040160405180910390fd5b50505050505050565b60007effffffffffffffffffffffffffffffffffffffffffffffffffffffffffffff8211156119ce576040517fb7d0949700000000000000000000000000000000000000000000000000000000815260040160405180910390fd5b5060f89190911b1790565b60006119eb6040830160208401615415565b156119fa576114a98484611394565b50826110a0565b60006113a98383670de0b6b3a7640000611358565b600080611a23848461330b565b9092509050806112b2576112b261303c565b600061008e82611a46858888611358565b90613347565b6000827fffffffffffffffffffffffffffffffffffffffffffffffffffffffffffffffff0484118302158202611a8157600080fd5b50910281810615159190040190565b600080807fffffffffffffffffffffffff11111111111111111111111111111111111111127f000000000000000000000000000000000000000000000000000000000000000073ffffffffffffffffffffffffffffffffffffffff1601611af8575047611ba9565b6040517f70a082310000000000000000000000000000000000000000000000000000000081523060048201527f000000000000000000000000000000000000000000000000000000000000000073ffffffffffffffffffffffffffffffffffffffff16906370a0823190602401602060405180830381865afa158015611b82573d6000803e3d6000fd5b505050506040513d601f19601f82011682018060405250810190611ba69190615561565b90505b600160007fffffffffffffffffffffffff11111111111111111111111111111111111111127f000000000000000000000000000000000000000000000000000000000000000073ffffffffffffffffffffffffffffffffffffffff1601611c555787341015611c44576040517f90b8ec1800000000000000000000000000000000000000000000000000000000815260040160405180910390fd5b611c4e88346153ab565b9050611d15565b6040517f23b872dd000000000000000000000000000000000000000000000000000000008152336004820152306024820152604481018990527f000000000000000000000000000000000000000000000000000000000000000073ffffffffffffffffffffffffffffffffffffffff16906323b872dd906064016020604051808303816000875af1158015611cee573d6000803e3d6000fd5b505050506040513d601f19601f82011682018060405250810190611d12919061557a565b91505b81611d4c576040517f90b8ec1800000000000000000000000000000000000000000000000000000000815260040160405180910390fd5b601254600003611d9157611d80887f0000000000000000000000000000000000000000000000000000000000000000611394565b601281905594509250611dca915050565b601254600090611da3908a9086611358565b90508060126000828254611db791906153be565b90915550909550909350611dca92505050565b935093915050565b6000611ddd84612ecd565b9050601254600003611e1b57611e13817f0000000000000000000000000000000000000000000000000000000000000000611394565b601255611e41565b6000611e26826133bc565b90508060126000828254611e3a91906153be565b9091555050505b600160007fffffffffffffffffffffffff11111111111111111111111111111111111111127f000000000000000000000000000000000000000000000000000000000000000073ffffffffffffffffffffffffffffffffffffffff1601611eed5782341015611edc576040517f90b8ec1800000000000000000000000000000000000000000000000000000000815260040160405180910390fd5b611ee683346153ab565b9050611fad565b6040517f23b872dd000000000000000000000000000000000000000000000000000000008152336004820152306024820152604481018490527f000000000000000000000000000000000000000000000000000000000000000073ffffffffffffffffffffffffffffffffffffffff16906323b872dd906064016020604051808303816000875af1158015611f86573d6000803e3d6000fd5b505050506040513d601f19601f82011682018060405250810190611faa919061557a565b91505b81611fe4576040517f90b8ec1800000000000000000000000000000000000000000000000000000000815260040160405180910390fd5b505050505050565b60006fffffffffffffffffffffffffffffffff821115611315576040517f1e15f2a200000000000000000000000000000000000000000000000000000000815260040160405180910390fd5b600554600090819061207190849070010000000000000000000000000000000090046fffffffffffffffffffffffffffffffff16611a01565b6005546201000090046dffffffffffffffffffffffffffff1692509050818111156122495760006120a283836153ab565b90506120b161177882866134e3565b600580546010906120e990849070010000000000000000000000000000000090046fffffffffffffffffffffffffffffffff16615597565b92506101000a8154816fffffffffffffffffffffffffffffffff02191690836fffffffffffffffffffffffffffffffff1602179055506000612134858361139490919063ffffffff16565b90506000612162827f0000000000000000000000000000000000000000000000000000000000000000611a01565b905080600b600082825461217691906153be565b90915550612186905081836153ab565b915061219182611fec565b600180546000906121b59084906fffffffffffffffffffffffffffffffff16615501565b92506101000a8154816fffffffffffffffffffffffffffffffff02191690836fffffffffffffffffffffffffffffffff1602179055506121f4826134f8565b60038054600090612209908490600f0b6155c0565b92506101000a8154816fffffffffffffffffffffffffffffffff0219169083600f0b6fffffffffffffffffffffffffffffffff1602179055508493505050505b915091565b60008061225b8785611394565b91506000612289837f0000000000000000000000000000000000000000000000000000000000000000611a01565b90506122b5817f0000000000000000000000000000000000000000000000000000000000000000611a01565b915083156122d8576122c782826153ab565b6122d190846153ab565b92506122ef565b6122e282826153ab565b6122ec90846153be565b92505b8686101561231257612302838789611358565b925061230f828789611358565b91505b509550959350505050565b60035470010000000000000000000000000000000090046fffffffffffffffffffffffffffffffff166123926117788261235f670de0b6b3a76400008661554a565b60045470010000000000000000000000000000000090046fffffffffffffffffffffffffffffffff1691908a60006131b7565b600480546fffffffffffffffffffffffffffffffff9283167001000000000000000000000000000000000292169190911790556123ce86611fec565b6123d89082615597565b600380546fffffffffffffffffffffffffffffffff92831670010000000000000000000000000000000002921691909117905561241484611fec565b600180546000906124389084906fffffffffffffffffffffffffffffffff16615501565b92506101000a8154816fffffffffffffffffffffffffffffffff02191690836fffffffffffffffffffffffffffffffff16021790555061247783613544565b6003805460009061248c908490600f0b6155c0565b92506101000a8154816fffffffffffffffffffffffffffffffff0219169083600f0b6fffffffffffffffffffffffffffffffff1602179055506124ce85611fec565b6001805460109061250690849070010000000000000000000000000000000090046fffffffffffffffffffffffffffffffff16615597565b92506101000a8154816fffffffffffffffffffffffffffffffff02191690836fffffffffffffffffffffffffffffffff160217905550505050505050565b60008061255684610a1a8a888a611358565b9050612563888486611358565b61256d90826153be565b90508681111561257d5786810391505b509695505050505050565b60006dffffffffffffffffffffffffffff821115611315576040517f10d62a2e00000000000000000000000000000000000000000000000000000000815260040160405180910390fd5b6001546fffffffffffffffffffffffffffffffff168381108061261d57507f000000000000000000000000000000000000000000000000000000000000000061261b85836153ab565b105b1561262a5761262a61303c565b6003549084900390600f0b61263f848261552a565b90508361264b866112b9565b13801561268057507f000000000000000000000000000000000000000000000000000000000000000061267e8383611a16565b105b1561268d5761268d61303c565b60025470010000000000000000000000000000000090046fffffffffffffffffffffffffffffffff166126ee611778826126cf670de0b6b3a76400008861554a565b6004546fffffffffffffffffffffffffffffffff1691908c60006131b7565b600480547fffffffffffffffffffffffffffffffff00000000000000000000000000000000166fffffffffffffffffffffffffffffffff9290921691909117905561273988826153ab565b905061274481611fec565b600280546fffffffffffffffffffffffffffffffff92831670010000000000000000000000000000000002921691909117905561278083611fec565b600180547fffffffffffffffffffffffffffffffff00000000000000000000000000000000166fffffffffffffffffffffffffffffffff929092169190911790556127ca82613544565b600380547fffffffffffffffffffffffffffffffff00000000000000000000000000000000166fffffffffffffffffffffffffffffffff9290921691909117905561281487611fec565b6001805460109061284c90849070010000000000000000000000000000000090046fffffffffffffffffffffffffffffffff16615501565b92506101000a8154816fffffffffffffffffffffffffffffffff02191690836fffffffffffffffffffffffffffffffff1602179055505050505050505050565b60006128b561289b84836135ba565b6128a68460006135ba565b6128b0919061552a565b613544565b9050600081600f0b131561292557600280548291906000906128ea9084906fffffffffffffffffffffffffffffffff16615501565b92506101000a8154816fffffffffffffffffffffffffffffffff02191690836fffffffffffffffffffffffffffffffff160217905550505050565b600081600f0b121561295e5761293a8161560e565b600280546000906128ea9084906fffffffffffffffffffffffffffffffff16615597565b505050565b6006547f03000000000000000000000000000000000000000000000000000000000000006000908152600e6020527fd2d06a3478833ecfcc0864e3afb188a7ff21caef68ea336a6e4f79f78f6fb3e954909182916129d3916fffffffffffffffffffffffffffffffff16906153ab565b9050806000036129e75760019150506113ac565b60006129f2856135c9565b905080600003612a07576001925050506113ac565b600080612a15838589613686565b9150915080612a2b5760009450505050506113ac565b600080612a38848961378c565b91509150612a56612a48826112b9565b612a519061564c565b612d52565b925082612a6c57600096505050505050506113ac565b612a7582611fec565b60068054600090612a999084906fffffffffffffffffffffffffffffffff16615501565b92506101000a8154816fffffffffffffffffffffffffffffffff02191690836fffffffffffffffffffffffffffffffff160217905550612ad881611fec565b60068054601090612b1090849070010000000000000000000000000000000090046fffffffffffffffffffffffffffffffff16615501565b92506101000a8154816fffffffffffffffffffffffffffffffff02191690836fffffffffffffffffffffffffffffffff1602179055506001965050505050505092915050565b600080600080612b6d612b68866110a7565b612cc5565b9150915080612b83575060009485945092505050565b6000808611612b93576000612b9d565b612b9d8387611a01565b600654600e6020527fd2d06a3478833ecfcc0864e3afb188a7ff21caef68ea336a6e4f79f78f6fb3e95460008080527fe710864318d4a32f37d6ce54cb3fadbef648dd12d8dbdf53973564d56b7f881c54939450926fffffffffffffffffffffffffffffffff90921691612c1191906153be565b612c1b91906153ab565b905080600003612c345750600096879650945050505050565b6000612c408383611394565b98600198509650505050505050565b600080670de0b6b3a7640000612c63610b1d565b612c6d919061554a565b9050808311612c7d576000612c87565b612c8781846153ab565b91506110a0612cbe670de0b6b3a76400007f000000000000000000000000000000000000000000000000000000000000000061554a565b8390611394565b6000806000806000612cd68661387c565b9150915080612ced57506000958695509350505050565b612cfa8660a001516112b9565b612d0387613b9c565b83612d1189600001516112b9565b612d1b9190615684565b612d259190615684565b612d2f919061552a565b925050506000811215612d485750600093849350915050565b9360019350915050565b6001546003546000916fffffffffffffffffffffffffffffffff80821692600f0b9170010000000000000000000000000000000090041683808080612dba8787877f00000000000000000000000000000000000000000000000000000000000000008d613c00565b935093509350935080612dd65750600098975050505050505050565b868414612e2857612de684611fec565b600180547fffffffffffffffffffffffffffffffff00000000000000000000000000000000166fffffffffffffffffffffffffffffffff929092169190911790555b858314612e7a57612e3883613544565b600380547fffffffffffffffffffffffffffffffff00000000000000000000000000000000166fffffffffffffffffffffffffffffffff929092169190911790555b848214612ebe57612e8a82611fec565b600180546fffffffffffffffffffffffffffffffff9283167001000000000000000000000000000000000292169190911790555b50600198975050505050505050565b6000807fffffffffffffffffffffffff11111111111111111111111111111111111111127f000000000000000000000000000000000000000000000000000000000000000073ffffffffffffffffffffffffffffffffffffffff1601612f34575047612fe5565b6040517f70a082310000000000000000000000000000000000000000000000000000000081523060048201527f000000000000000000000000000000000000000000000000000000000000000073ffffffffffffffffffffffffffffffffffffffff16906370a0823190602401602060405180830381865afa158015612fbe573d6000803e3d6000fd5b505050506040513d601f19601f82011682018060405250810190612fe29190615561565b90505b601254600003612ff65760006110a0565b6012546110a09084908390611358565b6000610a2087878761302088670de0b6b3a76400006153ab565b8787613d18565b60006113a98383670de0b6b3a7640000611a4c565b6040517fbb55fd2700000000000000000000000000000000000000000000000000000000815260040160405180910390fd5b60008080806130bf87866130b88b6116596130918c670de0b6b3a76400006153ab565b7f000000000000000000000000000000000000000000000000000000000000000090613027565b9190611a4c565b93506130eb847f0000000000000000000000000000000000000000000000000000000000000000611a01565b9150600061310c61310489670de0b6b3a76400006153ab565b8a9088611a4c565b9050613138817f0000000000000000000000000000000000000000000000000000000000000000613027565b9350613164847f0000000000000000000000000000000000000000000000000000000000000000611a01565b61316e90846153be565b915050945094509450949050565b600081831161318b57816113a9565b5090919050565b6000806131aa846131a48a888a611a4c565b906134e3565b9050612563888486611a4c565b6000826000036131c857508461008e565b811561321b576131f96131db84876153be565b6131e58587611a01565b6131ef888a611a01565b610a1a91906153be565b905060006132078588613d3b565b905080821015613215578091505b5061008e565b82850361322a5750600061008e565b61008b61323784876153ab565b6132418587613027565b61324b888a611a01565b610a1a91906153ab565b600061327d600e6000613269600286611973565b8152602001908152602001600020546112b9565b61328f600e6000613269600187611973565b6113ac919061552a565b60006132c57f000000000000000000000000000000000000000000000000000000000000000083613027565b6002546132e491906fffffffffffffffffffffffffffffffff166153be565b600154613303906fffffffffffffffffffffffffffffffff1684611a01565b101592915050565b60008060008361331a866112b9565b613324919061552a565b9050600081121561333c576000809250925050610b16565b946001945092505050565b6000816000036133605750670de0b6b3a76400006113ac565b82600003613370575060006113ac565b600061337b836112b9565b9050600061339061338b866112b9565b613d4a565b90508181026133a7670de0b6b3a7640000826156ac565b90506133b281613feb565b9695505050505050565b6000807fffffffffffffffffffffffff11111111111111111111111111111111111111127f000000000000000000000000000000000000000000000000000000000000000073ffffffffffffffffffffffffffffffffffffffff16016134235750476134d4565b6040517f70a082310000000000000000000000000000000000000000000000000000000081523060048201527f000000000000000000000000000000000000000000000000000000000000000073ffffffffffffffffffffffffffffffffffffffff16906370a0823190602401602060405180830381865afa1580156134ad573d6000803e3d6000fd5b505050506040513d601f19601f820116820180604052508101906134d19190615561565b90505b6012546110a090849083611358565b60006113a983670de0b6b3a764000084611a4c565b60006f7fffffffffffffffffffffffffffffff821115611315576040517fa5353be500000000000000000000000000000000000000000000000000000000815260040160405180910390fd5b60007fffffffffffffffffffffffffffffffff8000000000000000000000000000000082128061358357506f7fffffffffffffffffffffffffffffff82135b15611315576040517fa5353be500000000000000000000000000000000000000000000000000000000815260040160405180910390fd5b600081831361318b57816113a9565b60025460009081906135ed906fffffffffffffffffffffffffffffffff16846134e3565b90506136197f0000000000000000000000000000000000000000000000000000000000000000826153be565b6001546fffffffffffffffffffffffffffffffff161115613680576001547f0000000000000000000000000000000000000000000000000000000000000000906136769083906fffffffffffffffffffffffffffffffff166153ab565b6110a091906153ab565b50919050565b61368e6151fe565b60008061369a846110a7565b905060006136a782612cc5565b93509050826136bc575060009150611dca9050565b60006136e36136de846101600151856101400151611a0190919063ffffffff16565b6112b9565b6137036136de85610120015186610100015161302790919063ffffffff16565b61370d919061552a565b604080516101208101825285815260208082019590955260008052600e85527fe710864318d4a32f37d6ce54cb3fadbef648dd12d8dbdf53973564d56b7f881c54818301526060810199909952608089019990995260a088015250815160c087015281015160e086015290940151610100840152509092600192509050565b6000806000806137a48660c001518760e0015161330b565b91509150806137bb57600080935093505050610b16565b60006137c78784614204565b925090508115806137d6575080155b156137ea5760008094509450505050610b16565b60006137f68883614313565b905080600003613810576000809550955050505050610b16565b876060015181116138275794509250610b16915050565b506060870151600061383b8986858b6143e4565b90508060000361385657600080965096505050505050610b16565b82811061386e57600080965096505050505050610b16565b909890975095505050505050565b60008060006138a16136de856101600151866101400151611a0190919063ffffffff16565b6138c16136de86610120015187610100015161302790919063ffffffff16565b6138cb919061552a565b90506000806138e28660000151876020015161330b565b91509150806138f957506000958695509350505050565b6000831315613a3a5760008390506000613947886000015189602001518a604001518b60a001518c60e00151670de0b6b3a764000061393891906153ab565b8d606001518e608001516148fb565b9350905082613960575060009788975095505050505050565b8181106139fe57600061399a858a60400151858c60e00151670de0b6b3a764000061398b91906153ab565b8d606001518e60800151614a07565b94509050831580156139af57508860c0015183105b156139c65750600098600198509650505050505050565b836139dc57506000988998509650505050505050565b6139e5816112b9565b6139ee9061564c565b9960019950975050505050505050565b6000886020015112613a2657613a1d8860a00151856136de91906153ab565b612c409061564c565b60a08801518851613a1d916136de916153ab565b6000831215613b8d576000613a4e8461564c565b90506000613a828489604001518a60e00151670de0b6b3a7640000613a7391906153ab565b8b606001518c60800151614aca565b9350905082613a9b575060009788975095505050505050565b818110613b20576000613ad5858a60400151858c60e00151670de0b6b3a7640000613ac691906153ab565b8d606001518e60800151614b76565b9450905083158015613aea57508860c0015183105b15613b015750600098600198509650505050505050565b83613b1757506000988998509650505050505050565b6139ee816112b9565b6000613b52858a604001518b60e00151670de0b6b3a7640000613b4391906153ab565b8c606001518d60800151614c4d565b9450905083613b6c57506000988998509650505050505050565b6139ee613b838a606001518486610a1a91906153ab565b6136de90836153be565b50600095600195509350505050565b6000613bcf6136de836101200151670de0b6b3a7640000613bbd91906153ab565b60608501516101008601519190611a4c565b61328f6136de846101600151670de0b6b3a7640000613bee91906153ab565b60608601516101408701519190611358565b60008060008084600003613c1f57508792508691508590506001613d0c565b600085613c2b8b6112b9565b613c359190615684565b9050613c40876112b9565b811215613c5b57600080600080945094509450945050613d0c565b80945060008912613c7b57613c746136de868b8d611358565b9350613c9e565b613c926136de613c8a8b61564c565b87908d611a4c565b613c9b9061564c565b93505b600080613cab8c8c61330b565b9150915080613cca576000806000809650965096509650505050613d0c565b6000613cd6888861330b565b9250905081613cf657600080600080975097509750975050505050613d0c565b613d018b8285611358565b955060019450505050505b95509550955095915050565b600080613d29888888888888614a07565b90925090508061257d5761257d61303c565b600081831161368057826113a9565b6000808213613d85576040517fe61b497500000000000000000000000000000000000000000000000000000000815260040160405180910390fd5b506fffffffffffffffffffffffffffffffff811160071b81811c67ffffffffffffffff1060061b1781811c63ffffffff1060051b1781811c61ffff1060041b1781811c60ff10600390811b90911782811c600f1060021b1782811c909110600190811b90911782811c90911017609f8181036060019290921b917fffffffffffffffffffffffffffffffffffffffffffffffffffffffffffffffa0820190613e2f9084901c6112b9565b6c465772b2bbbb5f824b15207a3081018102606090811d6d0388eaa27412d5aca026815d636e018202811d6d0df99ac502031bf953eff472fdcc018202811d6d13cdffb29d51d99322bdff5f2211018202811d6d0a0f742023def783a307a986912e018202811d6d01920d8043ca89b5239253284e42018202811d6c0b7a86d7375468fac667a0a527016c29508e458543d8aa4df2abee7883018302821d6d0139601a2efabe717e604cbb4894018302821d6d02247f7a7b6594320649aa03aba1018302821d7fffffffffffffffffffffffffffffffffffffff73c0c716a594e00d54e3c4cbc9018302821d7ffffffffffffffffffffffffffffffffffffffdc7b88c420e53a9890533129f6f01830290911d7fffffffffffffffffffffffffffffffffffffff465fda27eb4d63ded474e5f832019091027ffffffffffffffff5f6af8f7b3396644f18e157960000000000000000000000000105711340daa0d5f769dba1915cef59f0815a5506027d0267a36c0c95b3975ab3ee5b203a7614a3f75373f047d803ae7b6687f2b391909102017d57115e47018c7177eebf7cd370a3356a1b7863008a5ae8028c72b88642840160ae1d92915050565b60007ffffffffffffffffffffffffffffffffffffffffffffffffdb731c958f34d94c1821361401c57506000919050565b680755bf798b4a1bf1e5821261405e576040517f73a2d6b100000000000000000000000000000000000000000000000000000000815260040160405180910390fd5b6503782dace9d9604e83901b059150600060606bb17217f7d1cf79abc9e3b39884821b056b80000000000000000000000001901d6bb17217f7d1cf79abc9e3b3988102909303927fffffffffffffffffffffffffffffffffffffffdbf3ccf1604d263450f02a550484018402606090811d6d0277594991cfc85f6e2461837cd9018502811d7fffffffffffffffffffffffffffffffffffffe5adedaa1cb095af9e4da10e363c018502811d6db1bbb201f443cf962f1a1d3db4a5018502811d7ffffffffffffffffffffffffffffffffffffd38dc772608b0ae56cce01296c0eb018502811d6e05180bb14799ab47a8a8cb2a527d57016d02d16720577bd19bf614176fe9ea6c10fe68e7fd37d0007b713f765087018702831d9081019087017ffffffffffffffffffffffffffffffffffffffe2c69812cf03b0763fd454a8f7e01810290921d6e0587f503bb6ea29d25fcb74019645001860279d835ebba824c98fb31b83b2ca45c0000000000000000000000000181810595509293509091906133b274029d9dc38563c32e5c2f6dc192ee70ef65f9978af3860260c38690031c6112b9565b60008060008460a001511261422157505060808201516001610b16565b60008460a001516142319061564c565b9050600061426d85876101000151886000015160e00151670de0b6b3a764000061425b91906153ab565b89516060810151608090910151614aca565b9350905082158061427c575080155b1561428f57600080935093505050610b16565b600061429b83836134e3565b9050670de0b6b3a764000081116142d75780670de0b6b3a76400000394506142d08760c0015186611a0190919063ffffffff16565b94506142e6565b60008094509450505050610b16565b8660800151851115614305578660800151600194509450505050610b16565b506001925050509250929050565b6000806143498460c001518560e00151866101000151876000015160a0015161433b886112b9565b6143449061564c565b613c00565b875160408101929092526020820192909252919091529050806143705760009150506113ac565b600061437f8560000151612cc5565b9250905081614393576000925050506113ac565b846020015181106143a9576000925050506113ac565b6000856060015186604001516143bf91906153be565b90506143da828760200151836113589092919063ffffffff16565b6133b290826153ab565b600080856060015186604001516143fb91906153be565b602087015160608801519192506000916144159184611358565b90508660a0015160000361442c5791506148f39050565b6000808089600488101561443f57600497505b60005b8881101561479b57614454868b613d3b565b9550600061447d8360c001518460e00151856101000151866000015160a0015161433b8c6112b9565b865160408101929092526020820192909252919091529050806144ab576000985050505050505050506148f3565b60006144ba8e60000151612cc5565b92509050816144d557600099505050505050505050506148f3565b6144e084828b614cfc565b156144f6578799505050505050505050506148f3565b60008460a00151131561465f57835180516020820151604083015160a084015160e09094015160009461454a9493929161453890670de0b6b3a76400006153ab565b8a5160608101516080909101516148fb565b93509050826145665760009a50505050505050505050506148f3565b808560a001511061465d5761457a85614d61565b9099509250826145975760009a50505050505050505050506148f3565b6145bc8560c001518660e00151876101000151886000015160a0015161433b8e6112b9565b885160408101929092526020820192909252919091529250826145ec5760009a50505050505050505050506148f3565b845180516020820151604083015160a084015160e09094015161461c949061453890670de0b6b3a76400006153ab565b93509050826146385760009a50505050505050505050506148f3565b8e60a00151811161465557889a50505050505050505050506148f3565b505050614442565b505b6000614670858f8760a00151614e37565b935090508215806146895750670de0b6b3a76400008110155b156146a15760009a50505050505050505050506148f3565b80670de0b6b3a764000003905060006146ce6136de8760400151886020015161302790919063ffffffff16565b6146db6136de858e611a01565b6146e5919061552a565b905088158061470357506146f889615192565b61470182615192565b125b15614712578098508997508296505b600081131561473a576147298b610a1a8385611394565b614733908b6153be565b995061478c565b60008112156147835760006147548c610a1a85818661564c565b90508a81101561476857808b039a5061477d565b60009c505050505050505050505050506148f3565b5061478c565b5050505061479b565b84600101945050505050614442565b5060006147c38260c001518360e00151846101000151856000015160a0015161433b8b6112b9565b855160408101929092526020820192909252919091529050806147f05760009750505050505050506148f3565b60006147ff8360000151611269565b905060006148216136de8560400151866020015161302790919063ffffffff16565b61482e6136de848c611a01565b614838919061552a565b905061484387615192565b61484c82615192565b1215614859578795508194505b614880614874655af3107a4000670de0b6b3a76400006153ab565b6020860151908b611a4c565b6040850151614890908790611394565b10806148d057506148be6148b2655af3107a4000670de0b6b3a76400006153be565b6020860151908b611358565b60408501516148ce9087906134e3565b115b156148e757600099505050505050505050506148f3565b50939750505050505050505b949350505050565b600080600088121561491d576149108861564c565b61491a90876153be565b95505b60008061492a8b8b61330b565b9150915080614941576000809350935050506149fb565b6000614950838b8a8a8a6151aa565b9050600061496d6149658a611a468a8e613027565b899089611a4c565b9050808210156149875760008095509550505050506149fb565b808203670de0b6b3a764000081106149bc576149b56149ae670de0b6b3a76400008c611394565b8290613347565b90506149d4565b6149d16149ae670de0b6b3a76400008c6134e3565b90505b8b8110156149ed576000809650965050505050506149fb565b8b9003955060019450505050505b97509795505050505050565b6000806000614a1989898888886151d9565b9050614a2986611a46898b6153be565b975087811015614a40576000809250925050614abf565b878103614a4e818688611a4c565b9050670de0b6b3a76400008110614a7b57614a746149ae670de0b6b3a7640000896134e3565b9050614a93565b614a906149ae670de0b6b3a764000089611394565b90505b614a9d81866134e3565b9050808a1015614ab557600080935093505050614abf565b8903925060019150505b965096945050505050565b6000806000614adc88888888886151d9565b90506000614b07670de0b6b3a7640000614af68888611394565b614b0091906153be565b83906134e3565b9050670de0b6b3a76400008110614b3457614b2d6149ae670de0b6b3a7640000896134e3565b9050614b4c565b614b496149ae670de0b6b3a764000089611394565b90505b80881015614b6257600080935093505050614b6c565b8703925060019150505b9550959350505050565b6000806000614b8889898888886151d9565b905086881015614b9f576000809250925050614abf565b9686900396614bae8887613347565b975087811015614bc5576000809250925050614abf565b878103614bd3818688611a4c565b9050670de0b6b3a76400008110614c0057614bf96149ae670de0b6b3a7640000896134e3565b9050614c18565b614c156149ae670de0b6b3a764000089611394565b90505b614c2281866134e3565b905089811015614c3a57600080935093505050614abf565b9890980398600198509650505050505050565b6000806000614c5f88888888886151aa565b90506000614c83670de0b6b3a7640000614c7988886134e3565b612cbe91906153be565b9050670de0b6b3a76400008110614cb057614ca96149ae670de0b6b3a764000089611394565b9050614cc8565b614cc56149ae670de0b6b3a7640000896134e3565b90505b614cd28186611394565b905088811015614cea57600080935093505050614b6c565b97909703976001975095505050505050565b6020830151600090614d0e90846134e3565b6040850151614d1e908490611394565b101580156148f357506020840151614d4790846103e0633b9aca00670de0b6b3a76400006153be565b6040850151614d579084906134e3565b1115949350505050565b60008060008360e0015113614d7b57506000928392509050565b6000614d8a8460000151613b9c565b90506000614db6856040015186606001518760400151614daa91906153be565b60208801519190611a4c565b905060008212614ddd5780821015614dd057819003614df3565b5060009485945092505050565b614de68261564c565b614df090826153be565b90505b60e085015160c0860151614e08918390611a4c565b9050808560c001511015614e23575060009485945092505050565b808560c00151036001935093505050915091565b6000806000808412614e5b57855160400151614e549085906153be565b9050614e96565b6000614e668561564c565b875160400151909150811015614e86578651604001518190039150614e94565b600080935093505050611dca565b505b855180516020909101516000918291614eaf919061330b565b9150915080614ec75760008094509450505050611dca565b875160e0810151604090910151600091614efc91614ef091614ee99190613347565b8a90611a01565b6101008b0151906134e3565b895160e0810151608090910151614f2791614f1b91611a469088611a01565b8b5160600151906134e3565b614f3191906153be565b90506000614f69614f5d614f568c6000015160e001518861334790919063ffffffff16565b8b90613027565b6101008c015190611394565b905080821015614f8457600080965096505050505050611dca565b80820391506000614fc6858c60000151604001518d6000015160e00151670de0b6b3a7640000614fb491906153ab565b8e5160608101516080909101516151d9565b90506000614ff08c6000015160e00151670de0b6b3a7640000614fe991906153ab565b8890613347565b90508082101561500d576000809850985050505050505050611dca565b8b51608081015160609091015191830391615029918391611a4c565b9050670de0b6b3a7640000811061506d578b5160e00151615066906149ae9061505a90670de0b6b3a76400006153ab565b8e5160e00151906134e3565b905061509c565b8b5160e00151615099906149ae9061508d90670de0b6b3a76400006153ab565b8e5160e0015190611394565b90505b8b51606001516150af9085908390611a4c565b935083670de0b6b3a764000011156150d35783670de0b6b3a76400000393506150e7565b600060019850985050505050505050611dca565b60008c60e001511261514a5760c08c015160e08d0151615106916134e3565b9250670de0b6b3a764000083111561512b576000809850985050505050505050611dca565b670de0b6b3a764000092909203916151438484611a01565b935061517f565b61517c6151638d60c001518e60e00151610a1a9061564c565b61517590670de0b6b3a76400006153be565b8590611a01565b93505b50919a60019a5098505050505050505050565b60008082126151a157816113ac565b6113ac8261564c565b60006151b68585613347565b6151cf6151c786611a46868b611a01565b859085611358565b61008b91906153be565b60006151e58585613347565b6151cf6151f686611a46868b613027565b859085611a4c565b60405180610120016040528061526e6040518061018001604052806000815260200160008152602001600081526020016000815260200160008152602001600081526020016000815260200160008152602001600081526020016000815260200160008152602001600081525090565b815260200160008152602001600081526020016000815260200160008152602001600081526020016000815260200160008152602001600081525090565b60006060828403121561368057600080fd5b600080600080600060a086880312156152d657600080fd5b85359450602086013593506040860135925060608601359150608086013567ffffffffffffffff81111561530957600080fd5b615315888289016152ac565b9150509295509295909350565b6000806000806080858703121561533857600080fd5b843593506020850135925060408501359150606085013567ffffffffffffffff81111561536457600080fd5b615370878288016152ac565b91505092959194509250565b7f4e487b7100000000000000000000000000000000000000000000000000000000600052601160045260246000fd5b818103818111156113ac576113ac61537c565b808201808211156113ac576113ac61537c565b6000602082840312156153e357600080fd5b813573ffffffffffffffffffffffffffffffffffffffff811681146110a057600080fd5b80151581146109b357600080fd5b60006020828403121561542757600080fd5b81356110a081615407565b60008083357fffffffffffffffffffffffffffffffffffffffffffffffffffffffffffffffe184360301811261546757600080fd5b83018035915067ffffffffffffffff82111561548257600080fd5b602001915036819003821315610b1657600080fd5b7f4e487b7100000000000000000000000000000000000000000000000000000000600052601260045260246000fd5b6000826154d5576154d5615497565b500690565b6dffffffffffffffffffffffffffff8181168382160190808211156112b2576112b261537c565b6fffffffffffffffffffffffffffffffff8181168382160190808211156112b2576112b261537c565b81810360008312801583831316838312821617156112b2576112b261537c565b80820281158282048414176113ac576113ac61537c565b60006020828403121561557357600080fd5b5051919050565b60006020828403121561558c57600080fd5b81516110a081615407565b6fffffffffffffffffffffffffffffffff8281168282160390808211156112b2576112b261537c565b600f81810b9083900b016f7fffffffffffffffffffffffffffffff81137fffffffffffffffffffffffffffffffff80000000000000000000000000000000821217156113ac576113ac61537c565b600081600f0b7fffffffffffffffffffffffffffffffff8000000000000000000000000000000081036156435761564361537c565b60000392915050565b60007f8000000000000000000000000000000000000000000000000000000000000000820361567d5761567d61537c565b5060000390565b80820182811260008312801582168215821617156156a4576156a461537c565b505092915050565b6000826156bb576156bb615497565b7fffffffffffffffffffffffffffffffffffffffffffffffffffffffffffffffff83147f80000000000000000000000000000000000000000000000000000000000000008314161561570f5761570f61537c565b50059056fea2646970667358221220adceb559955a69accab134823e484556f4467fde003c7b134c3d1c4a2c80ad1064736f6c63430008140033",
  "linkReferences": {},
  "deployedLinkReferences": {}
}