{
  "_format": "hh-sol-artifact-1",
  "contractName": "MockHyperdriveTarget2",
  "sourceName": "contracts/test/MockHyperdrive.sol",
  "abi": [
    {
      "inputs": [
        {
          "components": [
            {
              "internalType": "contract IERC20",
              "name": "baseToken",
              "type": "address"
            },
            {
              "internalType": "contract IERC20",
              "name": "vaultSharesToken",
              "type": "address"
            },
            {
              "internalType": "address",
              "name": "linkerFactory",
              "type": "address"
            },
            {
              "internalType": "bytes32",
              "name": "linkerCodeHash",
              "type": "bytes32"
            },
            {
              "internalType": "uint256",
              "name": "initialVaultSharePrice",
              "type": "uint256"
            },
            {
              "internalType": "uint256",
              "name": "minimumShareReserves",
              "type": "uint256"
            },
            {
              "internalType": "uint256",
              "name": "minimumTransactionAmount",
              "type": "uint256"
            },
            {
              "internalType": "uint256",
              "name": "positionDuration",
              "type": "uint256"
            },
            {
              "internalType": "uint256",
              "name": "checkpointDuration",
              "type": "uint256"
            },
            {
              "internalType": "uint256",
              "name": "timeStretch",
              "type": "uint256"
            },
            {
              "internalType": "address",
              "name": "governance",
              "type": "address"
            },
            {
              "internalType": "address",
              "name": "feeCollector",
              "type": "address"
            },
            {
              "internalType": "address",
              "name": "sweepCollector",
              "type": "address"
            },
            {
              "components": [
                {
                  "internalType": "uint256",
                  "name": "curve",
                  "type": "uint256"
                },
                {
                  "internalType": "uint256",
                  "name": "flat",
                  "type": "uint256"
                },
                {
                  "internalType": "uint256",
                  "name": "governanceLP",
                  "type": "uint256"
                },
                {
                  "internalType": "uint256",
                  "name": "governanceZombie",
                  "type": "uint256"
                }
              ],
              "internalType": "struct IHyperdrive.Fees",
              "name": "fees",
              "type": "tuple"
            }
          ],
          "internalType": "struct IHyperdrive.PoolConfig",
          "name": "_config",
          "type": "tuple"
        }
      ],
      "stateMutability": "nonpayable",
      "type": "constructor"
    },
    {
      "inputs": [],
      "name": "DistributeExcessIdleFailed",
      "type": "error"
    },
    {
      "inputs": [],
      "name": "ExpInvalidExponent",
      "type": "error"
    },
    {
      "inputs": [],
      "name": "InsufficientBalance",
      "type": "error"
    },
    {
      "inputs": [],
      "name": "InsufficientLiquidity",
      "type": "error"
    },
    {
      "inputs": [],
      "name": "InvalidPresentValue",
      "type": "error"
    },
    {
      "inputs": [],
      "name": "InvalidTimestamp",
      "type": "error"
    },
    {
      "inputs": [],
      "name": "LnInvalidInput",
      "type": "error"
    },
    {
      "inputs": [],
      "name": "MinimumTransactionAmount",
      "type": "error"
    },
    {
      "inputs": [],
      "name": "OutputLimit",
      "type": "error"
    },
    {
      "inputs": [],
      "name": "ReentrancyGuardReentrantCall",
      "type": "error"
    },
    {
      "inputs": [],
      "name": "RestrictedZeroAddress",
      "type": "error"
    },
    {
      "inputs": [],
      "name": "TransferFailed",
      "type": "error"
    },
    {
      "inputs": [],
      "name": "UnsafeCastToInt128",
      "type": "error"
    },
    {
      "inputs": [],
      "name": "UnsafeCastToInt256",
      "type": "error"
    },
    {
      "inputs": [],
      "name": "UnsafeCastToUint112",
      "type": "error"
    },
    {
      "inputs": [],
      "name": "UnsafeCastToUint128",
      "type": "error"
    },
    {
      "anonymous": false,
      "inputs": [
        {
          "indexed": true,
          "internalType": "address",
          "name": "provider",
          "type": "address"
        },
        {
          "indexed": false,
          "internalType": "uint256",
          "name": "lpAmount",
          "type": "uint256"
        },
        {
          "indexed": false,
          "internalType": "uint256",
          "name": "baseAmount",
          "type": "uint256"
        },
        {
          "indexed": false,
          "internalType": "uint256",
          "name": "vaultShareAmount",
          "type": "uint256"
        },
        {
          "indexed": false,
          "internalType": "bool",
          "name": "asBase",
          "type": "bool"
        },
        {
          "indexed": false,
          "internalType": "uint256",
          "name": "lpSharePrice",
          "type": "uint256"
        }
      ],
      "name": "AddLiquidity",
      "type": "event"
    },
    {
      "anonymous": false,
      "inputs": [
        {
          "indexed": true,
          "internalType": "address",
          "name": "owner",
          "type": "address"
        },
        {
          "indexed": true,
          "internalType": "address",
          "name": "spender",
          "type": "address"
        },
        {
          "indexed": false,
          "internalType": "uint256",
          "name": "value",
          "type": "uint256"
        }
      ],
      "name": "Approval",
      "type": "event"
    },
    {
      "anonymous": false,
      "inputs": [
        {
          "indexed": true,
          "internalType": "address",
          "name": "account",
          "type": "address"
        },
        {
          "indexed": true,
          "internalType": "address",
          "name": "operator",
          "type": "address"
        },
        {
          "indexed": false,
          "internalType": "bool",
          "name": "approved",
          "type": "bool"
        }
      ],
      "name": "ApprovalForAll",
      "type": "event"
    },
    {
      "anonymous": false,
      "inputs": [
        {
          "indexed": true,
          "internalType": "address",
          "name": "trader",
          "type": "address"
        },
        {
          "indexed": true,
          "internalType": "address",
          "name": "destination",
          "type": "address"
        },
        {
          "indexed": true,
          "internalType": "uint256",
          "name": "assetId",
          "type": "uint256"
        },
        {
          "indexed": false,
          "internalType": "uint256",
          "name": "maturityTime",
          "type": "uint256"
        },
        {
          "indexed": false,
          "internalType": "uint256",
          "name": "baseAmount",
          "type": "uint256"
        },
        {
          "indexed": false,
          "internalType": "uint256",
          "name": "vaultShareAmount",
          "type": "uint256"
        },
        {
          "indexed": false,
          "internalType": "bool",
          "name": "asBase",
          "type": "bool"
        },
        {
          "indexed": false,
          "internalType": "uint256",
          "name": "bondAmount",
          "type": "uint256"
        }
      ],
      "name": "CloseLong",
      "type": "event"
    },
    {
      "anonymous": false,
      "inputs": [
        {
          "indexed": true,
          "internalType": "address",
          "name": "trader",
          "type": "address"
        },
        {
          "indexed": true,
          "internalType": "address",
          "name": "destination",
          "type": "address"
        },
        {
          "indexed": true,
          "internalType": "uint256",
          "name": "assetId",
          "type": "uint256"
        },
        {
          "indexed": false,
          "internalType": "uint256",
          "name": "maturityTime",
          "type": "uint256"
        },
        {
          "indexed": false,
          "internalType": "uint256",
          "name": "baseAmount",
          "type": "uint256"
        },
        {
          "indexed": false,
          "internalType": "uint256",
          "name": "vaultShareAmount",
          "type": "uint256"
        },
        {
          "indexed": false,
          "internalType": "bool",
          "name": "asBase",
          "type": "bool"
        },
        {
          "indexed": false,
          "internalType": "uint256",
          "name": "basePayment",
          "type": "uint256"
        },
        {
          "indexed": false,
          "internalType": "uint256",
          "name": "bondAmount",
          "type": "uint256"
        }
      ],
      "name": "CloseShort",
      "type": "event"
    },
    {
      "anonymous": false,
      "inputs": [
        {
          "indexed": true,
          "internalType": "address",
          "name": "collector",
          "type": "address"
        },
        {
          "indexed": false,
          "internalType": "uint256",
          "name": "fees",
          "type": "uint256"
        }
      ],
      "name": "CollectGovernanceFee",
      "type": "event"
    },
    {
      "anonymous": false,
      "inputs": [
        {
          "indexed": true,
          "internalType": "uint256",
          "name": "checkpointTime",
          "type": "uint256"
        },
        {
          "indexed": false,
          "internalType": "uint256",
          "name": "checkpointVaultSharePrice",
          "type": "uint256"
        },
        {
          "indexed": false,
          "internalType": "uint256",
          "name": "vaultSharePrice",
          "type": "uint256"
        },
        {
          "indexed": false,
          "internalType": "uint256",
          "name": "maturedShorts",
          "type": "uint256"
        },
        {
          "indexed": false,
          "internalType": "uint256",
          "name": "maturedLongs",
          "type": "uint256"
        },
        {
          "indexed": false,
          "internalType": "uint256",
          "name": "lpSharePrice",
          "type": "uint256"
        }
      ],
      "name": "CreateCheckpoint",
      "type": "event"
    },
    {
      "anonymous": false,
      "inputs": [
        {
          "indexed": true,
          "internalType": "address",
          "name": "newFeeCollector",
          "type": "address"
        }
      ],
      "name": "FeeCollectorUpdated",
      "type": "event"
    },
    {
      "anonymous": false,
      "inputs": [
        {
          "indexed": true,
          "internalType": "address",
          "name": "newGovernance",
          "type": "address"
        }
      ],
      "name": "GovernanceUpdated",
      "type": "event"
    },
    {
      "anonymous": false,
      "inputs": [
        {
          "indexed": true,
          "internalType": "address",
          "name": "provider",
          "type": "address"
        },
        {
          "indexed": false,
          "internalType": "uint256",
          "name": "lpAmount",
          "type": "uint256"
        },
        {
          "indexed": false,
          "internalType": "uint256",
          "name": "baseAmount",
          "type": "uint256"
        },
        {
          "indexed": false,
          "internalType": "uint256",
          "name": "vaultShareAmount",
          "type": "uint256"
        },
        {
          "indexed": false,
          "internalType": "bool",
          "name": "asBase",
          "type": "bool"
        },
        {
          "indexed": false,
          "internalType": "uint256",
          "name": "apr",
          "type": "uint256"
        }
      ],
      "name": "Initialize",
      "type": "event"
    },
    {
      "anonymous": false,
      "inputs": [
        {
          "indexed": true,
          "internalType": "address",
          "name": "trader",
          "type": "address"
        },
        {
          "indexed": true,
          "internalType": "uint256",
          "name": "assetId",
          "type": "uint256"
        },
        {
          "indexed": false,
          "internalType": "uint256",
          "name": "maturityTime",
          "type": "uint256"
        },
        {
          "indexed": false,
          "internalType": "uint256",
          "name": "baseAmount",
          "type": "uint256"
        },
        {
          "indexed": false,
          "internalType": "uint256",
          "name": "vaultShareAmount",
          "type": "uint256"
        },
        {
          "indexed": false,
          "internalType": "bool",
          "name": "asBase",
          "type": "bool"
        },
        {
          "indexed": false,
          "internalType": "uint256",
          "name": "bondAmount",
          "type": "uint256"
        }
      ],
      "name": "OpenLong",
      "type": "event"
    },
    {
      "anonymous": false,
      "inputs": [
        {
          "indexed": true,
          "internalType": "address",
          "name": "trader",
          "type": "address"
        },
        {
          "indexed": true,
          "internalType": "uint256",
          "name": "assetId",
          "type": "uint256"
        },
        {
          "indexed": false,
          "internalType": "uint256",
          "name": "maturityTime",
          "type": "uint256"
        },
        {
          "indexed": false,
          "internalType": "uint256",
          "name": "baseAmount",
          "type": "uint256"
        },
        {
          "indexed": false,
          "internalType": "uint256",
          "name": "vaultShareAmount",
          "type": "uint256"
        },
        {
          "indexed": false,
          "internalType": "bool",
          "name": "asBase",
          "type": "bool"
        },
        {
          "indexed": false,
          "internalType": "uint256",
          "name": "baseProceeds",
          "type": "uint256"
        },
        {
          "indexed": false,
          "internalType": "uint256",
          "name": "bondAmount",
          "type": "uint256"
        }
      ],
      "name": "OpenShort",
      "type": "event"
    },
    {
      "anonymous": false,
      "inputs": [
        {
          "indexed": false,
          "internalType": "bool",
          "name": "isPaused",
          "type": "bool"
        }
      ],
      "name": "PauseStatusUpdated",
      "type": "event"
    },
    {
      "anonymous": false,
      "inputs": [
        {
          "indexed": true,
          "internalType": "address",
          "name": "newPauser",
          "type": "address"
        },
        {
          "indexed": false,
          "internalType": "bool",
          "name": "status",
          "type": "bool"
        }
      ],
      "name": "PauserUpdated",
      "type": "event"
    },
    {
      "anonymous": false,
      "inputs": [
        {
          "indexed": true,
          "internalType": "address",
          "name": "provider",
          "type": "address"
        },
        {
          "indexed": true,
          "internalType": "address",
          "name": "destination",
          "type": "address"
        },
        {
          "indexed": false,
          "internalType": "uint256",
          "name": "withdrawalShareAmount",
          "type": "uint256"
        },
        {
          "indexed": false,
          "internalType": "uint256",
          "name": "baseAmount",
          "type": "uint256"
        },
        {
          "indexed": false,
          "internalType": "uint256",
          "name": "vaultShareAmount",
          "type": "uint256"
        },
        {
          "indexed": false,
          "internalType": "bool",
          "name": "asBase",
          "type": "bool"
        }
      ],
      "name": "RedeemWithdrawalShares",
      "type": "event"
    },
    {
      "anonymous": false,
      "inputs": [
        {
          "indexed": true,
          "internalType": "address",
          "name": "provider",
          "type": "address"
        },
        {
          "indexed": true,
          "internalType": "address",
          "name": "destination",
          "type": "address"
        },
        {
          "indexed": false,
          "internalType": "uint256",
          "name": "lpAmount",
          "type": "uint256"
        },
        {
          "indexed": false,
          "internalType": "uint256",
          "name": "baseAmount",
          "type": "uint256"
        },
        {
          "indexed": false,
          "internalType": "uint256",
          "name": "vaultShareAmount",
          "type": "uint256"
        },
        {
          "indexed": false,
          "internalType": "bool",
          "name": "asBase",
          "type": "bool"
        },
        {
          "indexed": false,
          "internalType": "uint256",
          "name": "withdrawalShareAmount",
          "type": "uint256"
        },
        {
          "indexed": false,
          "internalType": "uint256",
          "name": "lpSharePrice",
          "type": "uint256"
        }
      ],
      "name": "RemoveLiquidity",
      "type": "event"
    },
    {
      "anonymous": false,
      "inputs": [
        {
          "indexed": true,
          "internalType": "address",
          "name": "collector",
          "type": "address"
        },
        {
          "indexed": true,
          "internalType": "address",
          "name": "target",
          "type": "address"
        }
      ],
      "name": "Sweep",
      "type": "event"
    },
    {
      "anonymous": false,
      "inputs": [
        {
          "indexed": true,
          "internalType": "address",
          "name": "newSweepCollector",
          "type": "address"
        }
      ],
      "name": "SweepCollectorUpdated",
      "type": "event"
    },
    {
      "anonymous": false,
      "inputs": [
        {
          "indexed": true,
          "internalType": "address",
          "name": "operator",
          "type": "address"
        },
        {
          "indexed": true,
          "internalType": "address",
          "name": "from",
          "type": "address"
        },
        {
          "indexed": true,
          "internalType": "address",
          "name": "to",
          "type": "address"
        },
        {
          "indexed": false,
          "internalType": "uint256",
          "name": "id",
          "type": "uint256"
        },
        {
          "indexed": false,
          "internalType": "uint256",
          "name": "value",
          "type": "uint256"
        }
      ],
      "name": "TransferSingle",
      "type": "event"
    },
    {
      "inputs": [
        {
          "internalType": "uint256",
          "name": "_maturityTime",
          "type": "uint256"
        },
        {
          "internalType": "uint256",
          "name": "_bondAmount",
          "type": "uint256"
        },
        {
          "internalType": "uint256",
          "name": "_minOutput",
          "type": "uint256"
        },
        {
          "components": [
            {
              "internalType": "address",
              "name": "destination",
              "type": "address"
            },
            {
              "internalType": "bool",
              "name": "asBase",
              "type": "bool"
            },
            {
              "internalType": "bytes",
              "name": "extraData",
              "type": "bytes"
            }
          ],
          "internalType": "struct IHyperdrive.Options",
          "name": "_options",
          "type": "tuple"
        }
      ],
      "name": "closeLong",
      "outputs": [
        {
          "internalType": "uint256",
          "name": "",
          "type": "uint256"
        }
      ],
      "stateMutability": "nonpayable",
      "type": "function"
    },
    {
      "inputs": [
        {
          "internalType": "uint256",
          "name": "_lpShares",
          "type": "uint256"
        },
        {
          "internalType": "uint256",
          "name": "_minOutputPerShare",
          "type": "uint256"
        },
        {
          "components": [
            {
              "internalType": "address",
              "name": "destination",
              "type": "address"
            },
            {
              "internalType": "bool",
              "name": "asBase",
              "type": "bool"
            },
            {
              "internalType": "bytes",
              "name": "extraData",
              "type": "bytes"
            }
          ],
          "internalType": "struct IHyperdrive.Options",
          "name": "_options",
          "type": "tuple"
        }
      ],
      "name": "removeLiquidity",
      "outputs": [
        {
          "internalType": "uint256",
          "name": "",
          "type": "uint256"
        },
        {
          "internalType": "uint256",
          "name": "",
          "type": "uint256"
        }
      ],
      "stateMutability": "nonpayable",
      "type": "function"
    }
  ],
  "bytecode": "0x6102406040523480156200001257600080fd5b50604051620057e3380380620057e38339810160408190526200003591620001e1565b600160005580516001600160a01b039081166080908152602080840151831660a0908152918401516101a0908152918401516101c05260c0808501516101e0526101008086015190915260e0808601519052610120808601519091529184018051519092528151015161014090815281516040908101516101609081529251606090810151610180908152918601518516610200528501516102205290840151600a80546001600160a01b03199081169286169290921790559184015160088054841691851691909117905590920151600980549093169116179055620002d4565b6040516101c081016001600160401b03811182821017156200014957634e487b7160e01b600052604160045260246000fd5b60405290565b80516001600160a01b03811681146200016757600080fd5b919050565b6000608082840312156200017f57600080fd5b604051608081016001600160401b0381118282101715620001b057634e487b7160e01b600052604160045260246000fd5b8060405250809150825181526020830151602082015260408301516040820152606083015160608201525092915050565b60006102208284031215620001f557600080fd5b620001ff62000117565b6200020a836200014f565b81526200021a602084016200014f565b60208201526200022d604084016200014f565b6040820152606083015160608201526080830151608082015260a083015160a082015260c083015160c082015260e083015160e08201526101008084015181830152506101208084015181830152506101406200028c8185016200014f565b90820152610160620002a08482016200014f565b90820152610180620002b48482016200014f565b908201526101a0620002c9858583016200016c565b908201529392505050565b60805160a05160c05160e05161010051610120516101405161016051610180516101a0516101c0516101e05161020051610220516153ad6200043660003960005050600050506000818160d301528181610289015261241f01526000818161130c0152818161136f01528181611733015281816123f901528181612f3801528181612f7d0152613205015260008181611145015281816111ab01526123d301526000611c25015260008181611d78015281816126dd015261275601526000818161084301528181611d4c015261272a015260006126a3015260008181611123015281816111cc015261244501526000818161077501528181611254015281816125a901526133cc0152600081816105df0152818161067e01526106ec015260005050600081816119c001528181611a2f015281816129b301528181612a2201528181612b1501528181612c0101528181612d110152612dfd01526153ad6000f3fe608060405234801561001057600080fd5b50600436106100365760003560e01c8063cbc134341461003b578063ded0623114610068575b600080fd5b61004e610049366004614f35565b610089565b604080519283526020830191909152015b60405180910390f35b61007b610076366004614f85565b6100a4565b60405190815260200161005f565b6000806100978585856100bd565b915091505b935093915050565b60006100b285858585610274565b90505b949350505050565b6000806100c861051e565b6100d183610561565b7f000000000000000000000000000000000000000000000000000000000000000085101561012b576040517f423bbb4600000000000000000000000000000000000000000000000000000000815260040160405180910390fd5b60006101356105c0565b905061014a6101426105d8565b82600461060e565b5061015760003388610b62565b61018e7f03000000000000000000000000000000000000000000000000000000000000006101886020870187614fdf565b88610c7c565b60006101a96101a06020870187614fdf565b88848989610d36565b90945090506101b88188615044565b925060006101c583610f1f565b5090506101d56020870187614fdf565b73ffffffffffffffffffffffffffffffffffffffff16337f56e07298e87dce53d3298b9775b947b87b39b2dde51df86371f0540885da83c98a61021989888c611018565b6102248a898d611047565b61023460408d0160208e01615065565b60408051948552602085019390935291830152151560608201526080810188905260a0810185905260c00160405180910390a350505061009c6001600055565b600061027e61051e565b61028782610561565b7f00000000000000000000000000000000000000000000000000000000000000008410156102e1576040517f423bbb4600000000000000000000000000000000000000000000000000000000815260040160405180910390fd5b60006102eb6105c0565b905085421015610306576103006101426105d8565b50610314565b6103128682600461060e565b505b61032961032260018861106f565b3387610b62565b600080600080600061033c8a878d6110d5565b9450945094509450945060008b90508b4210156104015781600b60008282546103659190615082565b9091555061037890508b878686856112ec565b6000610383826115ab565b90506103a16103918d6115f5565b61039b9083615095565b82611655565b6103aa8861172c565b6103b6576103b661179e565b60006103c1896117d0565b9050806103fa576040517f8bdf918d00000000000000000000000000000000000000000000000000000000815260040160405180910390fd5b5050610418565b61040b85886117dd565b9450610416876117d0565b505b600061042586898c611900565b90508a811015610461576040517fc972651700000000000000000000000000000000000000000000000000000000815260040160405180910390fd5b8b888b61046f60018661106f565b61047c6020830183614fdf565b73ffffffffffffffffffffffffffffffffffffffff16337fc0e1704f2ff88686bdc2a73d31e0dc4e054eddbdc3564af7a148229cf857b802886104c0898888611018565b6104cb8a8989611047565b6104db6040890160208a01615065565b60408051948552602085019390935291830152151560608201526080810188905260a00160405180910390a4509199505050505050505050506100b56001600055565b60026000540361055a576040517f3ee5aeb500000000000000000000000000000000000000000000000000000000815260040160405180910390fd5b6002600055565b60006105706020830183614fdf565b73ffffffffffffffffffffffffffffffffffffffff16036105bd576040517ff0dd15fd00000000000000000000000000000000000000000000000000000000815260040160405180910390fd5b50565b60006105d3670de0b6b3a764000061199a565b905090565b60006106047f0000000000000000000000000000000000000000000000000000000000000000426150ec565b6105d39042615044565b600083815260076020526040812080546fffffffffffffffffffffffffffffffff1615158061063c57504285115b1561065b57546fffffffffffffffffffffffffffffffff169050610b5b565b6000806106666105d8565b90508087036106775785915061071a565b60006106a37f000000000000000000000000000000000000000000000000000000000000000089615082565b90505b6000818152600760205260409020546fffffffffffffffffffffffffffffffff16925081811480156106d6575082155b156106df578692505b82600003610718576107117f000000000000000000000000000000000000000000000000000000000000000082615082565b90506106a6565b505b61072382611ad3565b83547fffffffffffffffffffffffffffffffff00000000000000000000000000000000166fffffffffffffffffffffffffffffffff9190911617835561076886611b1f565b506000905060078161079a7f00000000000000000000000000000000000000000000000000000000000000008b615044565b815260208101919091526040016000908120546fffffffffffffffffffffffffffffffff1691506107cc60028a61106f565b6000818152600e60205260408120549192508a8a831561094f57600192506000806107fb86898c866000611d35565b9150915080600b60008282546108119190615082565b9091555061082d905086600084610827816115f5565b88611e04565b6108378183615082565b915061086786838a8d877f000000000000000000000000000000000000000000000000000000000000000061202b565b915061087b6108768385612075565b61208a565b600580546002906108a39084906201000090046dffffffffffffffffffffffffffff16615100565b92506101000a8154816dffffffffffffffffffffffffffff02191690836dffffffffffffffffffffffffffff1602179055506108de82611ad3565b6005805460109061091690849070010000000000000000000000000000000090046fffffffffffffffffffffffffffffffff16615127565b92506101000a8154816fffffffffffffffffffffffffffffffff02191690836fffffffffffffffffffffffffffffffff16021790555050505b600061095c60018461106f565b6000818152600e60205260409020549091508015610aa85760019450600080610989838b8e886001611d35565b9150915080600b600082825461099f9190615082565b909155506109bb9050836000846109b5816115f5565b8a6112ec565b6109c58183615044565b91506109d46108768387612075565b600580546002906109fc9084906201000090046dffffffffffffffffffffffffffff16615100565b92506101000a8154816dffffffffffffffffffffffffffff02191690836dffffffffffffffffffffffffffff160217905550610a3782611ad3565b60058054601090610a6f90849070010000000000000000000000000000000090046fffffffffffffffffffffffffffffffff16615127565b92506101000a8154816fffffffffffffffffffffffffffffffff02191690836fffffffffffffffffffffffffffffffff16021790555050505b8415610ae057610ad4610aba876115f5565b610ac3836115f5565b610acd9190615150565b6000611655565b610ade8e8e6120d4565b505b6000610aeb8f610f1f565b5090508f7fff888cf98d2696e95c8c39aa98c9ad55a5378008f7a56614c9353b7137a57ab78c868a8686604051610b44959493929190948552602085019390935260408401919091526060830152608082015260a00190565b60405180910390a250989a50505050505050505050505b9392505050565b6000838152600d6020908152604080832073ffffffffffffffffffffffffffffffffffffffff86168452909152902054811115610bcb576040517ff4d678b800000000000000000000000000000000000000000000000000000000815260040160405180910390fd5b6000838152600d6020908152604080832073ffffffffffffffffffffffffffffffffffffffff86168452825280832080548590039055858352600e90915281208054839290610c1b908490615044565b9091555050604080518481526020810183905260009173ffffffffffffffffffffffffffffffffffffffff85169133917fc3d58168c5ae7397731d063d5bbf3d657854427343f4c083240f7aacaa2d0f6291015b60405180910390a4505050565b6000838152600d6020908152604080832073ffffffffffffffffffffffffffffffffffffffff8616845290915281208054839290610cbb908490615082565b90915550506000838152600e602052604081208054839290610cde908490615082565b9091555050604080518481526020810183905273ffffffffffffffffffffffffffffffffffffffff84169160009133917fc3d58168c5ae7397731d063d5bbf3d657854427343f4c083240f7aacaa2d0f629101610c6f565b600080610d42856117d0565b505060065485906fffffffffffffffffffffffffffffffff1680821115610d7957806fffffffffffffffffffffffffffffffff1691505b81600003610d8e576000809250925050610f15565b610db97f03000000000000000000000000000000000000000000000000000000000000008984610b62565b600654600090610df59084906fffffffffffffffffffffffffffffffff70010000000000000000000000000000000090910481169085166122c7565b9050610e0083611ad3565b610e0a9083615170565b600680547fffffffffffffffffffffffffffffffff00000000000000000000000000000000166fffffffffffffffffffffffffffffffff92909216919091179055610e5481611ad3565b60068054601090610e8c90849070010000000000000000000000000000000090046fffffffffffffffffffffffffffffffff16615170565b92506101000a8154816fffffffffffffffffffffffffffffffff02191690836fffffffffffffffffffffffffffffffff160217905550610ecd818887611900565b9350610ed98684612303565b841015610f12576040517fc972651700000000000000000000000000000000000000000000000000000000815260040160405180910390fd5b50505b9550959350505050565b600080600080610f36610f3186612318565b6124da565b9150915080610f4c575060009485945092505050565b6000808611610f5c576000610f66565b610f668387612075565b600654600e6020527fd2d06a3478833ecfcc0864e3afb188a7ff21caef68ea336a6e4f79f78f6fb3e95460008080527fe710864318d4a32f37d6ce54cb3fadbef648dd12d8dbdf53973564d56b7f881c54939450926fffffffffffffffffffffffffffffffff90921691610fda9190615082565b610fe49190615044565b905080600003610ffd5750600096879650945050505050565b60006110098383612567565b98600198509650505050505050565b600061102a6040830160208401615065565b15611036575082610b5b565b6110408484612075565b9050610b5b565b60006110596040830160208401615065565b15611068576110408484612567565b5082610b5b565b60007effffffffffffffffffffffffffffffffffffffffffffffffffffffffffffff8211156110ca576040517fb7d0949700000000000000000000000000000000000000000000000000000000815260040160405180910390fd5b5060f89190911b1790565b60008060008060008060006110e98861257c565b90506111696110f66125cd565b60015470010000000000000000000000000000000090046fffffffffffffffffffffffffffffffff168c847f00000000000000000000000000000000000000000000000000000000000000008e7f00000000000000000000000000000000000000000000000000000000000000006125f7565b9098509650915060008080806111f06111806125cd565b60015470010000000000000000000000000000000090046fffffffffffffffffffffffffffffffff167f00000000000000000000000000000000000000000000000000000000000000007f0000000000000000000000000000000000000000000000000000000000000000612667565b90508c6111ff8f87848461267e565b9a5091965090945092506112138486615044565b61121d9088615044565b96506112298386615082565b611233908c615044565b9a5061123f888c615082565b99505050505050506112d785858385600760007f00000000000000000000000000000000000000000000000000000000000000008e61127e9190615044565b81526020810191909152604001600020546fffffffffffffffffffffffffffffffff16428d116112ce5760008d8152600760205260409020546fffffffffffffffffffffffffffffffff166112d0565b8d5b6001612792565b999d939c50919a509098509095505050505050565b6001546fffffffffffffffffffffffffffffffff168381108061133757507f00000000000000000000000000000000000000000000000000000000000000006113358583615044565b105b156113445761134461179e565b6003549084900390600f0b6113598482615150565b905083611365866115f5565b13801561139a57507f00000000000000000000000000000000000000000000000000000000000000006113988383612831565b105b156113a7576113a761179e565b60025470010000000000000000000000000000000090046fffffffffffffffffffffffffffffffff1661140d611408826113e9670de0b6b3a764000088615199565b6004546fffffffffffffffffffffffffffffffff1691908c6000612857565b611ad3565b600480547fffffffffffffffffffffffffffffffff00000000000000000000000000000000166fffffffffffffffffffffffffffffffff929092169190911790556114588882615044565b905061146381611ad3565b600280546fffffffffffffffffffffffffffffffff92831670010000000000000000000000000000000002921691909117905561149f83611ad3565b600180547fffffffffffffffffffffffffffffffff00000000000000000000000000000000166fffffffffffffffffffffffffffffffff929092169190911790556114e982612901565b600380547fffffffffffffffffffffffffffffffff00000000000000000000000000000000166fffffffffffffffffffffffffffffffff9290921691909117905561153387611ad3565b6001805460109061156b90849070010000000000000000000000000000000090046fffffffffffffffffffffffffffffffff16615127565b92506101000a8154816fffffffffffffffffffffffffffffffff02191690836fffffffffffffffffffffffffffffffff1602179055505050505050505050565b60006115d3600e60006115bf60028661106f565b8152602001908152602001600020546115f5565b6115e5600e60006115bf60018761106f565b6115ef9190615150565b92915050565b60007f7fffffffffffffffffffffffffffffffffffffffffffffffffffffffffffffff821115611651576040517f72dd4e0200000000000000000000000000000000000000000000000000000000815260040160405180910390fd5b5090565b600061167e6116648483612977565b61166f846000612977565b6116799190615150565b612901565b9050600081600f0b13156116ee57600280548291906000906116b39084906fffffffffffffffffffffffffffffffff16615127565b92506101000a8154816fffffffffffffffffffffffffffffffff02191690836fffffffffffffffffffffffffffffffff160217905550505050565b600081600f0b121561172757611703816151b0565b600280546000906116b39084906fffffffffffffffffffffffffffffffff16615170565b505050565b60006117587f000000000000000000000000000000000000000000000000000000000000000083612303565b60025461177791906fffffffffffffffffffffffffffffffff16615082565b600154611796906fffffffffffffffffffffffffffffffff1684612075565b101592915050565b6040517fbb55fd2700000000000000000000000000000000000000000000000000000000815260040160405180910390fd5b60006115ef8260046120d4565b60008060006117eb84611b1f565b909250905060006117fc8686612075565b905081831115611814576118118683856122c7565b95505b8281101561182657808303925061182b565b600092505b6118348361208a565b600580546dffffffffffffffffffffffffffff9290921662010000027fffffffffffffffffffffffffffffffff0000000000000000000000000000ffff90921691909117908190556fffffffffffffffffffffffffffffffff70010000000000000000000000000000000090910416808710156118b3578690036118b7565b5060005b6118c081611ad3565b600580546fffffffffffffffffffffffffffffffff9283167001000000000000000000000000000000000292169190911790555085935050505092915050565b60008061190d8585612075565b90506119188161298d565b94508460000361192c576000915050610b5b565b61193c6040840160208501615065565b1561196b57611964856119526020860186614fdf565b61195f60408701876151ee565b612ab4565b9150611992565b61198e8561197c6020860186614fdf565b61198960408701876151ee565b612cb2565b8491505b509392505050565b6000807fffffffffffffffffffffffff11111111111111111111111111111111111111127f000000000000000000000000000000000000000000000000000000000000000073ffffffffffffffffffffffffffffffffffffffff1601611a01575047611ab2565b6040517f70a082310000000000000000000000000000000000000000000000000000000081523060048201527f000000000000000000000000000000000000000000000000000000000000000073ffffffffffffffffffffffffffffffffffffffff16906370a0823190602401602060405180830381865afa158015611a8b573d6000803e3d6000fd5b505050506040513d601f19601f82011682018060405250810190611aaf9190615253565b90505b601254600003611ac3576000610b5b565b601254610b5b90849083906122c7565b60006fffffffffffffffffffffffffffffffff821115611651576040517f1e15f2a200000000000000000000000000000000000000000000000000000000815260040160405180910390fd5b6005546000908190611b5890849070010000000000000000000000000000000090046fffffffffffffffffffffffffffffffff16612075565b6005546201000090046dffffffffffffffffffffffffffff169250905081811115611d30576000611b898383615044565b9050611b986114088286612eac565b60058054601090611bd090849070010000000000000000000000000000000090046fffffffffffffffffffffffffffffffff16615170565b92506101000a8154816fffffffffffffffffffffffffffffffff02191690836fffffffffffffffffffffffffffffffff1602179055506000611c1b858361256790919063ffffffff16565b90506000611c49827f0000000000000000000000000000000000000000000000000000000000000000612075565b905080600b6000828254611c5d9190615082565b90915550611c6d90508183615044565b9150611c7882611ad3565b60018054600090611c9c9084906fffffffffffffffffffffffffffffffff16615127565b92506101000a8154816fffffffffffffffffffffffffffffffff02191690836fffffffffffffffffffffffffffffffff160217905550611cdb82612ec1565b60038054600090611cf0908490600f0b61526c565b92506101000a8154816fffffffffffffffffffffffffffffffff0219169083600f0b6fffffffffffffffffffffffffffffffff1602179055508493505050505b915091565b600080611d428785612567565b91506000611d70837f0000000000000000000000000000000000000000000000000000000000000000612075565b9050611d9c817f0000000000000000000000000000000000000000000000000000000000000000612075565b91508315611dbf57611dae8282615044565b611db89084615044565b9250611dd6565b611dc98282615044565b611dd39084615082565b92505b86861015611df957611de98387896122c7565b9250611df68287896122c7565b91505b509550959350505050565b60035470010000000000000000000000000000000090046fffffffffffffffffffffffffffffffff16611e7961140882611e46670de0b6b3a764000086615199565b60045470010000000000000000000000000000000090046fffffffffffffffffffffffffffffffff1691908a6000612857565b600480546fffffffffffffffffffffffffffffffff928316700100000000000000000000000000000000029216919091179055611eb586611ad3565b611ebf9082615170565b600380546fffffffffffffffffffffffffffffffff928316700100000000000000000000000000000000029216919091179055611efb84611ad3565b60018054600090611f1f9084906fffffffffffffffffffffffffffffffff16615127565b92506101000a8154816fffffffffffffffffffffffffffffffff02191690836fffffffffffffffffffffffffffffffff160217905550611f5e83612901565b60038054600090611f73908490600f0b61526c565b92506101000a8154816fffffffffffffffffffffffffffffffff0219169083600f0b6fffffffffffffffffffffffffffffffff160217905550611fb585611ad3565b60018054601090611fed90849070010000000000000000000000000000000090046fffffffffffffffffffffffffffffffff16615170565b92506101000a8154816fffffffffffffffffffffffffffffffff02191690836fffffffffffffffffffffffffffffffff160217905550505050505050565b6000806120438461203d8a888a6122c7565b90612567565b90506120508884866122c7565b61205a9082615082565b90508681111561206a5786810391505b509695505050505050565b6000610b5b8383670de0b6b3a76400006122c7565b60006dffffffffffffffffffffffffffff821115611651576040517f10d62a2e00000000000000000000000000000000000000000000000000000000815260040160405180910390fd5b6006547f03000000000000000000000000000000000000000000000000000000000000006000908152600e6020527fd2d06a3478833ecfcc0864e3afb188a7ff21caef68ea336a6e4f79f78f6fb3e95490918291612144916fffffffffffffffffffffffffffffffff1690615044565b9050806000036121585760019150506115ef565b600061216385612f0d565b905080600003612178576001925050506115ef565b600080612186838589612fca565b915091508061219c5760009450505050506115ef565b6000806121a984896130d0565b915091506121c76121b9826115f5565b6121c2906152ba565b6131c2565b9250826121dd57600096505050505050506115ef565b6121e682611ad3565b6006805460009061220a9084906fffffffffffffffffffffffffffffffff16615127565b92506101000a8154816fffffffffffffffffffffffffffffffff02191690836fffffffffffffffffffffffffffffffff16021790555061224981611ad3565b6006805460109061228190849070010000000000000000000000000000000090046fffffffffffffffffffffffffffffffff16615127565b92506101000a8154816fffffffffffffffffffffffffffffffff02191690836fffffffffffffffffffffffffffffffff1602179055506001965050505050505092915050565b6000827fffffffffffffffffffffffffffffffffffffffffffffffffffffffffffffffff04841183021582026122fc57600080fd5b5091020490565b6000610b5b8383670de0b6b3a764000061333d565b61237c6040518061018001604052806000815260200160008152602001600081526020016000815260200160008152602001600081526020016000815260200160008152602001600081526020016000815260200160008152602001600081525090565b60408051610180810182526001546fffffffffffffffffffffffffffffffff8082168352600354600f0b602084015270010000000000000000000000000000000091829004811693830193909352606082018590527f000000000000000000000000000000000000000000000000000000000000000060808301527f000000000000000000000000000000000000000000000000000000000000000060a08301527f000000000000000000000000000000000000000000000000000000000000000060c08301527f000000000000000000000000000000000000000000000000000000000000000060e0830152600254048216610100820152600454909161012083019161248a9116613381565b81526003546fffffffffffffffffffffffffffffffff70010000000000000000000000000000000091829004811660208401526004546040909301926124d292900416613381565b905292915050565b60008060008060006124eb866133f7565b915091508061250257506000958695509350505050565b61250f8660a001516115f5565b61251887613717565b8361252689600001516115f5565b6125309190615095565b61253a9190615095565b6125449190615150565b92505050600081121561255d5750600093849350915050565b9360019350915050565b6000610b5b83670de0b6b3a7640000846122c7565b6000806125876105d8565b90508083116125975760006125a1565b6125a18184615044565b9150610b5b827f0000000000000000000000000000000000000000000000000000000000000000612567565b6001546003546000916105d3916fffffffffffffffffffffffffffffffff90911690600f0b612831565b6000808061261861261088670de0b6b3a7640000615044565b8990876122c7565b9050861561265a5761262a8888612075565b915061264b8a8a846126448a670de0b6b3a7640000615044565b898961377b565b92506126578382615082565b90505b9750975097945050505050565b60006100b2826126788588886122c7565b9061379e565b60008080806126d587866126ce8b6126c86126a18c670de0b6b3a7640000615044565b7f000000000000000000000000000000000000000000000000000000000000000090612303565b90612303565b919061333d565b9350612701847f0000000000000000000000000000000000000000000000000000000000000000612075565b9150600061272261271a89670de0b6b3a7640000615044565b8a908861333d565b905061274e817f0000000000000000000000000000000000000000000000000000000000000000612303565b935061277a847f0000000000000000000000000000000000000000000000000000000000000000612075565b6127849084615082565b915050945094509450949050565b600080600080600080888810156128015786156127b7576127b48d898b6122c7565b9c505b6127c28c898b6122c7565b9b506127cd8b6115f5565b6127d68d6115f5565b6127e09190615150565b90506127ed8b898b6122c7565b9a506127fa8a898b6122c7565b9950612820565b61280a8b6115f5565b6128138d6115f5565b61281d9190615150565b90505b9b9c9a9b999a975050505050505050565b60008061283e8484613813565b9092509050806128505761285061179e565b5092915050565b6000826000036128685750846128f8565b81156128bb5761289961287b8487615082565b6128858587612075565b61288f888a612075565b61203d9190615082565b905060006128a7858861384f565b9050808210156128b5578091505b506128f8565b8285036128ca575060006128f8565b6128f56128d78487615044565b6128e18587612303565b6128eb888a612075565b61203d9190615044565b90505b95945050505050565b60007fffffffffffffffffffffffffffffffff8000000000000000000000000000000082128061294057506f7fffffffffffffffffffffffffffffff82135b15611651576040517fa5353be500000000000000000000000000000000000000000000000000000000815260040160405180910390fd5b60008183136129865781610b5b565b5090919050565b6000807fffffffffffffffffffffffff11111111111111111111111111111111111111127f000000000000000000000000000000000000000000000000000000000000000073ffffffffffffffffffffffffffffffffffffffff16016129f4575047612aa5565b6040517f70a082310000000000000000000000000000000000000000000000000000000081523060048201527f000000000000000000000000000000000000000000000000000000000000000073ffffffffffffffffffffffffffffffffffffffff16906370a0823190602401602060405180830381865afa158015612a7e573d6000803e3d6000fd5b505050506040513d601f19601f82011682018060405250810190612aa29190615253565b90505b601254610b5b908490836122c7565b60006012548511612ac55784612ac9565b6012545b94506000612ad68661199a565b90508560126000828254612aea9190615044565b90915550600090507fffffffffffffffffffffffff11111111111111111111111111111111111111127f000000000000000000000000000000000000000000000000000000000000000073ffffffffffffffffffffffffffffffffffffffff1601612bb55760405173ffffffffffffffffffffffffffffffffffffffff8716908390600081818185875af1925050503d8060008114612ba5576040519150601f19603f3d011682016040523d82523d6000602084013e612baa565b606091505b505080915050612c71565b6040517fa9059cbb00000000000000000000000000000000000000000000000000000000815273ffffffffffffffffffffffffffffffffffffffff8781166004830152602482018490527f0000000000000000000000000000000000000000000000000000000000000000169063a9059cbb906044016020604051808303816000875af1158015612c4a573d6000803e3d6000fd5b505050506040513d601f19601f82011682018060405250810190612c6e91906152f2565b90505b80612ca8576040517f90b8ec1800000000000000000000000000000000000000000000000000000000815260040160405180910390fd5b5095945050505050565b6012548411612cc15783612cc5565b6012545b93506000612cd28561199a565b90508460126000828254612ce69190615044565b90915550600090507fffffffffffffffffffffffff11111111111111111111111111111111111111127f000000000000000000000000000000000000000000000000000000000000000073ffffffffffffffffffffffffffffffffffffffff1601612db15760405173ffffffffffffffffffffffffffffffffffffffff8616908390600081818185875af1925050503d8060008114612da1576040519150601f19603f3d011682016040523d82523d6000602084013e612da6565b606091505b505080915050612e6d565b6040517fa9059cbb00000000000000000000000000000000000000000000000000000000815273ffffffffffffffffffffffffffffffffffffffff8681166004830152602482018490527f0000000000000000000000000000000000000000000000000000000000000000169063a9059cbb906044016020604051808303816000875af1158015612e46573d6000803e3d6000fd5b505050506040513d601f19601f82011682018060405250810190612e6a91906152f2565b90505b80612ea4576040517f90b8ec1800000000000000000000000000000000000000000000000000000000815260040160405180910390fd5b505050505050565b6000610b5b83670de0b6b3a76400008461333d565b60006f7fffffffffffffffffffffffffffffff821115611651576040517fa5353be500000000000000000000000000000000000000000000000000000000815260040160405180910390fd5b6002546000908190612f31906fffffffffffffffffffffffffffffffff1684612eac565b9050612f5d7f000000000000000000000000000000000000000000000000000000000000000082615082565b6001546fffffffffffffffffffffffffffffffff161115612fc4576001547f000000000000000000000000000000000000000000000000000000000000000090612fba9083906fffffffffffffffffffffffffffffffff16615044565b610b5b9190615044565b50919050565b612fd2614e75565b600080612fde84612318565b90506000612feb826124da565b935090508261300057506000915061009c9050565b600061302761302284610160015185610140015161207590919063ffffffff16565b6115f5565b61304761302285610120015186610100015161230390919063ffffffff16565b6130519190615150565b604080516101208101825285815260208082019590955260008052600e85527fe710864318d4a32f37d6ce54cb3fadbef648dd12d8dbdf53973564d56b7f881c54818301526060810199909952608089019990995260a088015250815160c087015281015160e086015290940151610100840152509092600192509050565b6000806000806130e88660c001518760e00151613813565b91509150806130ff576000809350935050506131bb565b600061310b878461385e565b9250905081158061311a575080155b1561312e57600080945094505050506131bb565b600061313a888361396d565b9050806000036131545760008095509550505050506131bb565b8760600151811161316b57945092506131bb915050565b506060870151600061317f8986858b613a3e565b90508060000361319a576000809650965050505050506131bb565b8281106131b2576000809650965050505050506131bb565b90955093505050505b9250929050565b6001546003546000916fffffffffffffffffffffffffffffffff80821692600f0b917001000000000000000000000000000000009004168380808061322a8787877f00000000000000000000000000000000000000000000000000000000000000008d613f53565b9350935093509350806132465750600098975050505050505050565b8684146132985761325684611ad3565b600180547fffffffffffffffffffffffffffffffff00000000000000000000000000000000166fffffffffffffffffffffffffffffffff929092169190911790555b8583146132ea576132a883612901565b600380547fffffffffffffffffffffffffffffffff00000000000000000000000000000000166fffffffffffffffffffffffffffffffff929092169190911790555b84821461332e576132fa82611ad3565b600180546fffffffffffffffffffffffffffffffff9283167001000000000000000000000000000000000292169190911790555b50600198975050505050505050565b6000827fffffffffffffffffffffffffffffffffffffffffffffffffffffffffffffffff048411830215820261337257600080fd5b50910281810615159190040190565b600080670de0b6b3a76400006133956105d8565b61339f9190615199565b90508083116133af5760006133b9565b6133b98184615044565b9150610b5b6133f0670de0b6b3a76400007f0000000000000000000000000000000000000000000000000000000000000000615199565b8390612567565b600080600061341c61302285610160015186610140015161207590919063ffffffff16565b61343c61302286610120015187610100015161230390919063ffffffff16565b6134469190615150565b905060008061345d86600001518760200151613813565b915091508061347457506000958695509350505050565b60008313156135b557600083905060006134c2886000015189602001518a604001518b60a001518c60e00151670de0b6b3a76400006134b39190615044565b8d606001518e6080015161406b565b93509050826134db575060009788975095505050505050565b818110613579576000613515858a60400151858c60e00151670de0b6b3a76400006135069190615044565b8d606001518e60800151614177565b945090508315801561352a57508860c0015183105b156135415750600098600198509650505050505050565b8361355757506000988998509650505050505050565b613560816115f5565b613569906152ba565b9960019950975050505050505050565b60008860200151126135a1576135988860a00151856130229190615044565b611009906152ba565b60a088015188516135989161302291615044565b60008312156137085760006135c9846152ba565b905060006135fd8489604001518a60e00151670de0b6b3a76400006135ee9190615044565b8b606001518c6080015161423a565b9350905082613616575060009788975095505050505050565b81811061369b576000613650858a60400151858c60e00151670de0b6b3a76400006136419190615044565b8d606001518e608001516142e3565b945090508315801561366557508860c0015183105b1561367c5750600098600198509650505050505050565b8361369257506000988998509650505050505050565b613569816115f5565b60006136cd858a604001518b60e00151670de0b6b3a76400006136be9190615044565b8c606001518d608001516143ba565b94509050836136e757506000988998509650505050505050565b6135696136fe8a60600151848661203d9190615044565b6130229083615082565b50600095600195509350505050565b600061374a613022836101200151670de0b6b3a76400006137389190615044565b6060850151610100860151919061333d565b6115e5613022846101600151670de0b6b3a76400006137699190615044565b606086015161014087015191906122c7565b60008061378c888888888888614177565b90925090508061206a5761206a61179e565b6000816000036137b75750670de0b6b3a76400006115ef565b826000036137c7575060006115ef565b60006137d2836115f5565b905060006137e76137e2866115f5565b614469565b90508181026137fe670de0b6b3a76400008261530f565b90506138098161470a565b9695505050505050565b600080600083613822866115f5565b61382c9190615150565b905060008112156138445760008092509250506131bb565b946001945092505050565b6000818311612fc45782610b5b565b60008060008460a001511261387b575050608082015160016131bb565b60008460a0015161388b906152ba565b905060006138c785876101000151886000015160e00151670de0b6b3a76400006138b59190615044565b8951606081015160809091015161423a565b935090508215806138d6575080155b156138e9576000809350935050506131bb565b60006138f58383612eac565b9050670de0b6b3a764000081116139315780670de0b6b3a764000003945061392a8760c001518661207590919063ffffffff16565b9450613940565b600080945094505050506131bb565b866080015185111561395f5786608001516001945094505050506131bb565b506001925050509250929050565b6000806139a38460c001518560e00151866101000151876000015160a00151613995886115f5565b61399e906152ba565b613f53565b875160408101929092526020820192909252919091529050806139ca5760009150506115ef565b60006139d985600001516124da565b92509050816139ed576000925050506115ef565b84602001518110613a03576000925050506115ef565b600085606001518660400151613a199190615082565b9050613a34828760200151836122c79092919063ffffffff16565b6138099082615044565b60008085606001518660400151613a559190615082565b60208701516060880151919250600091613a6f91846122c7565b90508660a00151600003613a865791506100b59050565b60008080896004881015613a9957600497505b60005b88811015613df557613aae868b61384f565b95506000613ad78360c001518460e00151856101000151866000015160a001516139958c6115f5565b86516040810192909252602082019290925291909152905080613b05576000985050505050505050506100b5565b6000613b148e600001516124da565b9250905081613b2f57600099505050505050505050506100b5565b613b3a84828b614923565b15613b50578799505050505050505050506100b5565b60008460a001511315613cb957835180516020820151604083015160a084015160e090940151600094613ba494939291613b9290670de0b6b3a7640000615044565b8a51606081015160809091015161406b565b9350905082613bc05760009a50505050505050505050506100b5565b808560a0015110613cb757613bd48561498f565b909950925082613bf15760009a50505050505050505050506100b5565b613c168560c001518660e00151876101000151886000015160a001516139958e6115f5565b88516040810192909252602082019290925291909152925082613c465760009a50505050505050505050506100b5565b845180516020820151604083015160a084015160e090940151613c769490613b9290670de0b6b3a7640000615044565b9350905082613c925760009a50505050505050505050506100b5565b8e60a001518111613caf57889a50505050505050505050506100b5565b505050613a9c565b505b6000613cca858f8760a00151614a65565b93509050821580613ce35750670de0b6b3a76400008110155b15613cfb5760009a50505050505050505050506100b5565b80670de0b6b3a76400000390506000613d286130228760400151886020015161230390919063ffffffff16565b613d35613022858e612075565b613d3f9190615150565b9050881580613d5d5750613d5289614dc0565b613d5b82614dc0565b125b15613d6c578098508997508296505b6000811315613d9457613d838b61203d8385612567565b613d8d908b615082565b9950613de6565b6000811215613ddd576000613dae8c61203d8581866152ba565b90508a811015613dc257808b039a50613dd7565b60009c505050505050505050505050506100b5565b50613de6565b50505050613df5565b84600101945050505050613a9c565b506000613e1d8260c001518360e00151846101000151856000015160a001516139958b6115f5565b85516040810192909252602082019290925291909152905080613e4a5760009750505050505050506100b5565b6000613e598360000151614dd8565b90506000613e7b6130228560400151866020015161230390919063ffffffff16565b613e88613022848c612075565b613e929190615150565b9050613e9d87614dc0565b613ea682614dc0565b1215613eb3578795508194505b613eda613ece655af3107a4000670de0b6b3a7640000615044565b6020860151908b61333d565b6040850151613eea908790612567565b1080613f2a5750613f18613f0c655af3107a4000670de0b6b3a7640000615082565b6020860151908b6122c7565b6040850151613f28908790612eac565b115b15613f4157600099505050505050505050506100b5565b50939c9b505050505050505050505050565b60008060008084600003613f725750879250869150859050600161405f565b600085613f7e8b6115f5565b613f889190615095565b9050613f93876115f5565b811215613fae5760008060008094509450945094505061405f565b80945060008912613fce57613fc7613022868b8d6122c7565b9350613ff1565b613fe5613022613fdd8b6152ba565b87908d61333d565b613fee906152ba565b93505b600080613ffe8c8c613813565b915091508061401d57600080600080965096509650965050505061405f565b60006140298888613813565b92509050816140495760008060008097509750975097505050505061405f565b6140548b82856122c7565b955060019450505050505b95509550955095915050565b600080600088121561408d57614080886152ba565b61408a9087615082565b95505b60008061409a8b8b613813565b91509150806140b15760008093509350505061416b565b60006140c0838b8a8a8a614e21565b905060006140dd6140d58a6126788a8e612303565b89908961333d565b9050808210156140f757600080955095505050505061416b565b808203670de0b6b3a7640000811061412c5761412561411e670de0b6b3a76400008c612567565b829061379e565b9050614144565b61414161411e670de0b6b3a76400008c612eac565b90505b8b81101561415d5760008096509650505050505061416b565b8b9003955060019450505050505b97509795505050505050565b60008060006141898989888888614e50565b905061419986612678898b615082565b9750878110156141b057600080925092505061422f565b8781036141be81868861333d565b9050670de0b6b3a764000081106141eb576141e461411e670de0b6b3a764000089612eac565b9050614203565b61420061411e670de0b6b3a764000089612567565b90505b61420d8186612eac565b9050808a10156142255760008093509350505061422f565b8903925060019150505b965096945050505050565b600080600061424c8888888888614e50565b90506000614277670de0b6b3a76400006142668888612567565b6142709190615082565b8390612eac565b9050670de0b6b3a764000081106142a45761429d61411e670de0b6b3a764000089612eac565b90506142bc565b6142b961411e670de0b6b3a764000089612567565b90505b808810156142d257600080935093505050610f15565b909603976001975095505050505050565b60008060006142f58989888888614e50565b90508688101561430c57600080925092505061422f565b968690039661431b888761379e565b97508781101561433257600080925092505061422f565b87810361434081868861333d565b9050670de0b6b3a7640000811061436d5761436661411e670de0b6b3a764000089612eac565b9050614385565b61438261411e670de0b6b3a764000089612567565b90505b61438f8186612eac565b9050898110156143a75760008093509350505061422f565b9890980398600198509650505050505050565b60008060006143cc8888888888614e21565b905060006143f0670de0b6b3a76400006143e68888612eac565b6133f09190615082565b9050670de0b6b3a7640000811061441d5761441661411e670de0b6b3a764000089612567565b9050614435565b61443261411e670de0b6b3a764000089612eac565b90505b61443f8186612567565b90508881101561445757600080935093505050610f15565b97909703976001975095505050505050565b60008082136144a4576040517fe61b497500000000000000000000000000000000000000000000000000000000815260040160405180910390fd5b506fffffffffffffffffffffffffffffffff811160071b81811c67ffffffffffffffff1060061b1781811c63ffffffff1060051b1781811c61ffff1060041b1781811c60ff10600390811b90911782811c600f1060021b1782811c909110600190811b90911782811c90911017609f8181036060019290921b917fffffffffffffffffffffffffffffffffffffffffffffffffffffffffffffffa082019061454e9084901c6115f5565b6c465772b2bbbb5f824b15207a3081018102606090811d6d0388eaa27412d5aca026815d636e018202811d6d0df99ac502031bf953eff472fdcc018202811d6d13cdffb29d51d99322bdff5f2211018202811d6d0a0f742023def783a307a986912e018202811d6d01920d8043ca89b5239253284e42018202811d6c0b7a86d7375468fac667a0a527016c29508e458543d8aa4df2abee7883018302821d6d0139601a2efabe717e604cbb4894018302821d6d02247f7a7b6594320649aa03aba1018302821d7fffffffffffffffffffffffffffffffffffffff73c0c716a594e00d54e3c4cbc9018302821d7ffffffffffffffffffffffffffffffffffffffdc7b88c420e53a9890533129f6f01830290911d7fffffffffffffffffffffffffffffffffffffff465fda27eb4d63ded474e5f832019091027ffffffffffffffff5f6af8f7b3396644f18e157960000000000000000000000000105711340daa0d5f769dba1915cef59f0815a5506027d0267a36c0c95b3975ab3ee5b203a7614a3f75373f047d803ae7b6687f2b391909102017d57115e47018c7177eebf7cd370a3356a1b7863008a5ae8028c72b88642840160ae1d92915050565b60007ffffffffffffffffffffffffffffffffffffffffffffffffdb731c958f34d94c1821361473b57506000919050565b680755bf798b4a1bf1e5821261477d576040517f73a2d6b100000000000000000000000000000000000000000000000000000000815260040160405180910390fd5b6503782dace9d9604e83901b059150600060606bb17217f7d1cf79abc9e3b39884821b056b80000000000000000000000001901d6bb17217f7d1cf79abc9e3b3988102909303927fffffffffffffffffffffffffffffffffffffffdbf3ccf1604d263450f02a550484018402606090811d6d0277594991cfc85f6e2461837cd9018502811d7fffffffffffffffffffffffffffffffffffffe5adedaa1cb095af9e4da10e363c018502811d6db1bbb201f443cf962f1a1d3db4a5018502811d7ffffffffffffffffffffffffffffffffffffd38dc772608b0ae56cce01296c0eb018502811d6e05180bb14799ab47a8a8cb2a527d57016d02d16720577bd19bf614176fe9ea6c10fe68e7fd37d0007b713f765087018702831d9081019087017ffffffffffffffffffffffffffffffffffffffe2c69812cf03b0763fd454a8f7e01810290921d6e0587f503bb6ea29d25fcb74019645001860279d835ebba824c98fb31b83b2ca45c00000000000000000000000001818105955092935090919061380974029d9dc38563c32e5c2f6dc192ee70ef65f9978af3860260c38690031c6115f5565b60208301516000906149359084612eac565b6040850151614945908490612567565b101580156100b557506020840151614975908461496e633b9aca00670de0b6b3a7640000615082565b91906122c7565b6040850151614985908490612eac565b1115949350505050565b60008060008360e00151136149a957506000928392509050565b60006149b88460000151613717565b905060006149e48560400151866060015187604001516149d89190615082565b6020880151919061333d565b905060008212614a0b57808210156149fe57819003614a21565b5060009485945092505050565b614a14826152ba565b614a1e9082615082565b90505b60e085015160c0860151614a3691839061333d565b9050808560c001511015614a51575060009485945092505050565b808560c00151036001935093505050915091565b6000806000808412614a8957855160400151614a82908590615082565b9050614ac4565b6000614a94856152ba565b875160400151909150811015614ab4578651604001518190039150614ac2565b60008093509350505061009c565b505b855180516020909101516000918291614add9190613813565b9150915080614af5576000809450945050505061009c565b875160e0810151604090910151600091614b2a91614b1e91614b17919061379e565b8a90612075565b6101008b015190612eac565b895160e0810151608090910151614b5591614b49916126789088612075565b8b516060015190612eac565b614b5f9190615082565b90506000614b97614b8b614b848c6000015160e001518861379e90919063ffffffff16565b8b90612303565b6101008c015190612567565b905080821015614bb25760008096509650505050505061009c565b80820391506000614bf4858c60000151604001518d6000015160e00151670de0b6b3a7640000614be29190615044565b8e516060810151608090910151614e50565b90506000614c1e8c6000015160e00151670de0b6b3a7640000614c179190615044565b889061379e565b905080821015614c3b57600080985098505050505050505061009c565b8b51608081015160609091015191830391614c5791839161333d565b9050670de0b6b3a76400008110614c9b578b5160e00151614c949061411e90614c8890670de0b6b3a7640000615044565b8e5160e0015190612eac565b9050614cca565b8b5160e00151614cc79061411e90614cbb90670de0b6b3a7640000615044565b8e5160e0015190612567565b90505b8b5160600151614cdd908590839061333d565b935083670de0b6b3a76400001115614d015783670de0b6b3a7640000039350614d15565b60006001985098505050505050505061009c565b60008c60e0015112614d785760c08c015160e08d0151614d3491612eac565b9250670de0b6b3a7640000831115614d5957600080985098505050505050505061009c565b670de0b6b3a76400009290920391614d718484612075565b9350614dad565b614daa614d918d60c001518e60e0015161203d906152ba565b614da390670de0b6b3a7640000615082565b8590612075565b93505b50919a60019a5098505050505050505050565b6000808212614dcf57816115ef565b6115ef826152ba565b6000806000614de6846124da565b9150915080612850576040517faa2c651600000000000000000000000000000000000000000000000000000000815260040160405180910390fd5b6000614e2d858561379e565b614e46614e3e86612678868b612075565b8590856122c7565b6128f59190615082565b6000614e5c858561379e565b614e46614e6d86612678868b612303565b85908561333d565b604051806101200160405280614ee56040518061018001604052806000815260200160008152602001600081526020016000815260200160008152602001600081526020016000815260200160008152602001600081526020016000815260200160008152602001600081525090565b815260200160008152602001600081526020016000815260200160008152602001600081526020016000815260200160008152602001600081525090565b600060608284031215612fc457600080fd5b600080600060608486031215614f4a57600080fd5b8335925060208401359150604084013567ffffffffffffffff811115614f6f57600080fd5b614f7b86828701614f23565b9150509250925092565b60008060008060808587031215614f9b57600080fd5b843593506020850135925060408501359150606085013567ffffffffffffffff811115614fc757600080fd5b614fd387828801614f23565b91505092959194509250565b600060208284031215614ff157600080fd5b813573ffffffffffffffffffffffffffffffffffffffff81168114610b5b57600080fd5b7f4e487b7100000000000000000000000000000000000000000000000000000000600052601160045260246000fd5b818103818111156115ef576115ef615015565b80151581146105bd57600080fd5b60006020828403121561507757600080fd5b8135610b5b81615057565b808201808211156115ef576115ef615015565b80820182811260008312801582168215821617156150b5576150b5615015565b505092915050565b7f4e487b7100000000000000000000000000000000000000000000000000000000600052601260045260246000fd5b6000826150fb576150fb6150bd565b500690565b6dffffffffffffffffffffffffffff81811683821601908082111561285057612850615015565b6fffffffffffffffffffffffffffffffff81811683821601908082111561285057612850615015565b818103600083128015838313168383128216171561285057612850615015565b6fffffffffffffffffffffffffffffffff82811682821603908082111561285057612850615015565b80820281158282048414176115ef576115ef615015565b600081600f0b7fffffffffffffffffffffffffffffffff8000000000000000000000000000000081036151e5576151e5615015565b60000392915050565b60008083357fffffffffffffffffffffffffffffffffffffffffffffffffffffffffffffffe184360301811261522357600080fd5b83018035915067ffffffffffffffff82111561523e57600080fd5b6020019150368190038213156131bb57600080fd5b60006020828403121561526557600080fd5b5051919050565b600f81810b9083900b016f7fffffffffffffffffffffffffffffff81137fffffffffffffffffffffffffffffffff80000000000000000000000000000000821217156115ef576115ef615015565b60007f800000000000000000000000000000000000000000000000000000000000000082036152eb576152eb615015565b5060000390565b60006020828403121561530457600080fd5b8151610b5b81615057565b60008261531e5761531e6150bd565b7fffffffffffffffffffffffffffffffffffffffffffffffffffffffffffffffff83147f80000000000000000000000000000000000000000000000000000000000000008314161561537257615372615015565b50059056fea26469706673582212205b10557bf27daeabbe29de37266dd73a8c33c718bd0177df654427d85e8bcb2964736f6c63430008140033",
  "linkReferences": {},
  "deployedLinkReferences": {}
}